{
	"contracts/USElection.sol": {
		"USElection": {
			"abi": [
				{
					"inputs": [],
					"name": "BIDEN",
					"outputs": [
						{
							"internalType": "uint8",
							"name": "",
							"type": "uint8"
						}
					],
					"stateMutability": "view",
					"type": "function"
				},
				{
					"inputs": [],
					"name": "TRUMP",
					"outputs": [
						{
							"internalType": "uint8",
							"name": "",
							"type": "uint8"
						}
					],
					"stateMutability": "view",
					"type": "function"
				},
				{
					"inputs": [],
					"name": "currentLeader",
					"outputs": [
						{
							"internalType": "uint8",
							"name": "",
							"type": "uint8"
						}
					],
					"stateMutability": "view",
					"type": "function"
				},
				{
					"inputs": [],
					"name": "electionEnded",
					"outputs": [
						{
							"internalType": "bool",
							"name": "",
							"type": "bool"
						}
					],
					"stateMutability": "view",
					"type": "function"
				},
				{
					"inputs": [],
					"name": "endElection",
					"outputs": [],
					"stateMutability": "nonpayable",
					"type": "function"
				},
				{
					"inputs": [
						{
							"internalType": "uint8",
							"name": "",
							"type": "uint8"
						}
					],
					"name": "seats",
					"outputs": [
						{
							"internalType": "uint8",
							"name": "",
							"type": "uint8"
						}
					],
					"stateMutability": "view",
					"type": "function"
				},
				{
					"inputs": [
						{
							"components": [
								{
									"internalType": "string",
									"name": "name",
									"type": "string"
								},
								{
									"internalType": "uint256",
									"name": "votesBiden",
									"type": "uint256"
								},
								{
									"internalType": "uint256",
									"name": "votesTrump",
									"type": "uint256"
								},
								{
									"internalType": "uint8",
									"name": "stateSeats",
									"type": "uint8"
								}
							],
							"internalType": "struct USElection.StateResult",
							"name": "result",
							"type": "tuple"
						}
					],
					"name": "submitStateResult",
					"outputs": [],
					"stateMutability": "nonpayable",
					"type": "function"
				},
				{
					"inputs": [
						{
							"internalType": "string",
							"name": "",
							"type": "string"
						}
					],
					"name": "submitedStates",
					"outputs": [
						{
							"internalType": "bool",
							"name": "",
							"type": "bool"
						}
					],
					"stateMutability": "view",
					"type": "function"
				}
			],
			"devdoc": {
				"kind": "dev",
				"methods": {},
				"version": 1
			},
			"evm": {
				"assembly": "    /* \"contracts/USElection.sol\":87:1420  contract USElection {\r... */\n  mstore(0x40, 0x80)\n  callvalue\n  dup1\n  iszero\n  tag_1\n  jumpi\n  0x00\n  dup1\n  revert\ntag_1:\n  pop\n  dataSize(sub_0)\n  dup1\n  dataOffset(sub_0)\n  0x00\n  codecopy\n  0x00\n  return\nstop\n\nsub_0: assembly {\n        /* \"contracts/USElection.sol\":87:1420  contract USElection {\r... */\n      mstore(0x40, 0x80)\n      callvalue\n      dup1\n      iszero\n      tag_1\n      jumpi\n      0x00\n      dup1\n      revert\n    tag_1:\n      pop\n      jumpi(tag_2, lt(calldatasize, 0x04))\n      shr(0xe0, calldataload(0x00))\n      dup1\n      0x713d87c5\n      gt\n      tag_11\n      jumpi\n      dup1\n      0x713d87c5\n      eq\n      tag_7\n      jumpi\n      dup1\n      0xac4bd53a\n      eq\n      tag_8\n      jumpi\n      dup1\n      0xc94ca9e3\n      eq\n      tag_9\n      jumpi\n      dup1\n      0xe494a883\n      eq\n      tag_10\n      jumpi\n      jump(tag_2)\n    tag_11:\n      dup1\n      0x2d674216\n      eq\n      tag_3\n      jumpi\n      dup1\n      0x2d78d8e5\n      eq\n      tag_4\n      jumpi\n      dup1\n      0x59f78468\n      eq\n      tag_5\n      jumpi\n      dup1\n      0x69b36bd4\n      eq\n      tag_6\n      jumpi\n    tag_2:\n      0x00\n      dup1\n      revert\n        /* \"contracts/USElection.sol\":277:322  mapping(string => bool) public submitedStates */\n    tag_3:\n      tag_12\n      0x04\n      dup1\n      calldatasize\n      sub\n      dup2\n      add\n      swap1\n      tag_13\n      swap2\n      swap1\n      tag_14\n      jump\t// in\n    tag_13:\n      tag_15\n      jump\t// in\n    tag_12:\n      mload(0x40)\n      tag_16\n      swap2\n      swap1\n      tag_17\n      jump\t// in\n    tag_16:\n      mload(0x40)\n      dup1\n      swap2\n      sub\n      swap1\n      return\n        /* \"contracts/USElection.sol\":152:183  uint8 public constant TRUMP = 2 */\n    tag_4:\n      tag_18\n      tag_19\n      jump\t// in\n    tag_18:\n      mload(0x40)\n      tag_20\n      swap2\n      swap1\n      tag_21\n      jump\t// in\n    tag_20:\n      mload(0x40)\n      dup1\n      swap2\n      sub\n      swap1\n      return\n        /* \"contracts/USElection.sol\":1323:1411  function endElection() public onlyActiveElection {\r... */\n    tag_5:\n      tag_22\n      tag_23\n      jump\t// in\n    tag_22:\n      stop\n        /* \"contracts/USElection.sol\":114:145  uint8 public constant BIDEN = 1 */\n    tag_6:\n      tag_24\n      tag_25\n      jump\t// in\n    tag_24:\n      mload(0x40)\n      tag_26\n      swap2\n      swap1\n      tag_21\n      jump\t// in\n    tag_26:\n      mload(0x40)\n      dup1\n      swap2\n      sub\n      swap1\n      return\n        /* \"contracts/USElection.sol\":234:270  mapping(uint8 => uint8) public seats */\n    tag_7:\n      tag_27\n      0x04\n      dup1\n      calldatasize\n      sub\n      dup2\n      add\n      swap1\n      tag_28\n      swap2\n      swap1\n      tag_29\n      jump\t// in\n    tag_28:\n      tag_30\n      jump\t// in\n    tag_27:\n      mload(0x40)\n      tag_31\n      swap2\n      swap1\n      tag_21\n      jump\t// in\n    tag_31:\n      mload(0x40)\n      dup1\n      swap2\n      sub\n      swap1\n      return\n        /* \"contracts/USElection.sol\":1110:1311  function currentLeader() public view returns(uint8) {\r... */\n    tag_8:\n      tag_32\n      tag_33\n      jump\t// in\n    tag_32:\n      mload(0x40)\n      tag_34\n      swap2\n      swap1\n      tag_21\n      jump\t// in\n    tag_34:\n      mload(0x40)\n      dup1\n      swap2\n      sub\n      swap1\n      return\n        /* \"contracts/USElection.sol\":196:221  bool public electionEnded */\n    tag_9:\n      tag_35\n      tag_36\n      jump\t// in\n    tag_35:\n      mload(0x40)\n      tag_37\n      swap2\n      swap1\n      tag_17\n      jump\t// in\n    tag_37:\n      mload(0x40)\n      dup1\n      swap2\n      sub\n      swap1\n      return\n        /* \"contracts/USElection.sol\":588:1098  function submitStateResult(StateResult calldata result) public onlyActiveElection {\r... */\n    tag_10:\n      tag_38\n      0x04\n      dup1\n      calldatasize\n      sub\n      dup2\n      add\n      swap1\n      tag_39\n      swap2\n      swap1\n      tag_40\n      jump\t// in\n    tag_39:\n      tag_41\n      jump\t// in\n    tag_38:\n      stop\n        /* \"contracts/USElection.sol\":277:322  mapping(string => bool) public submitedStates */\n    tag_15:\n      0x02\n      dup2\n      dup1\n      mload\n      0x20\n      dup2\n      add\n      dup3\n      add\n      dup1\n      mload\n      dup5\n      dup3\n      mstore\n      0x20\n      dup4\n      add\n      0x20\n      dup6\n      add\n      keccak256\n      dup2\n      dup4\n      mstore\n      dup1\n      swap6\n      pop\n      pop\n      pop\n      pop\n      pop\n      pop\n      0x00\n      swap2\n      pop\n      sload\n      swap1\n      0x0100\n      exp\n      swap1\n      div\n      0xff\n      and\n      dup2\n      jump\t// out\n        /* \"contracts/USElection.sol\":152:183  uint8 public constant TRUMP = 2 */\n    tag_19:\n        /* \"contracts/USElection.sol\":182:183  2 */\n      0x02\n        /* \"contracts/USElection.sol\":152:183  uint8 public constant TRUMP = 2 */\n      dup2\n      jump\t// out\n        /* \"contracts/USElection.sol\":1323:1411  function endElection() public onlyActiveElection {\r... */\n    tag_23:\n        /* \"contracts/USElection.sol\":523:536  electionEnded */\n      0x00\n      dup1\n      sload\n      swap1\n      0x0100\n      exp\n      swap1\n      div\n      0xff\n      and\n        /* \"contracts/USElection.sol\":522:536  !electionEnded */\n      iszero\n        /* \"contracts/USElection.sol\":514:560  require(!electionEnded, \"Election has ended!\") */\n      tag_43\n      jumpi\n      mload(0x40)\n      0x08c379a000000000000000000000000000000000000000000000000000000000\n      dup2\n      mstore\n      0x04\n      add\n      tag_44\n      swap1\n      tag_45\n      jump\t// in\n    tag_44:\n      mload(0x40)\n      dup1\n      swap2\n      sub\n      swap1\n      revert\n    tag_43:\n        /* \"contracts/USElection.sol\":1399:1403  true */\n      0x01\n        /* \"contracts/USElection.sol\":1383:1396  electionEnded */\n      0x00\n      dup1\n        /* \"contracts/USElection.sol\":1383:1403  electionEnded = true */\n      0x0100\n      exp\n      dup2\n      sload\n      dup2\n      0xff\n      mul\n      not\n      and\n      swap1\n      dup4\n      iszero\n      iszero\n      mul\n      or\n      swap1\n      sstore\n      pop\n        /* \"contracts/USElection.sol\":1323:1411  function endElection() public onlyActiveElection {\r... */\n      jump\t// out\n        /* \"contracts/USElection.sol\":114:145  uint8 public constant BIDEN = 1 */\n    tag_25:\n        /* \"contracts/USElection.sol\":144:145  1 */\n      0x01\n        /* \"contracts/USElection.sol\":114:145  uint8 public constant BIDEN = 1 */\n      dup2\n      jump\t// out\n        /* \"contracts/USElection.sol\":234:270  mapping(uint8 => uint8) public seats */\n    tag_30:\n      mstore(0x20, 0x01)\n      dup1\n      0x00\n      mstore\n      keccak256(0x00, 0x40)\n      0x00\n      swap2\n      pop\n      sload\n      swap1\n      0x0100\n      exp\n      swap1\n      div\n      0xff\n      and\n      dup2\n      jump\t// out\n        /* \"contracts/USElection.sol\":1110:1311  function currentLeader() public view returns(uint8) {\r... */\n    tag_33:\n        /* \"contracts/USElection.sol\":1155:1160  uint8 */\n      0x00\n        /* \"contracts/USElection.sol\":1173:1188  uint bidenSeats */\n      dup1\n        /* \"contracts/USElection.sol\":1191:1196  seats */\n      0x01\n        /* \"contracts/USElection.sol\":1191:1203  seats[BIDEN] */\n      0x00\n        /* \"contracts/USElection.sol\":144:145  1 */\n      0x01\n        /* \"contracts/USElection.sol\":1191:1203  seats[BIDEN] */\n      0xff\n      and\n      0xff\n      and\n      dup2\n      mstore\n      0x20\n      add\n      swap1\n      dup2\n      mstore\n      0x20\n      add\n      0x00\n      keccak256\n      0x00\n      swap1\n      sload\n      swap1\n      0x0100\n      exp\n      swap1\n      div\n      0xff\n      and\n        /* \"contracts/USElection.sol\":1173:1203  uint bidenSeats = seats[BIDEN] */\n      0xff\n      and\n      swap1\n      pop\n        /* \"contracts/USElection.sol\":1214:1229  uint trumpSeats */\n      0x00\n        /* \"contracts/USElection.sol\":1232:1237  seats */\n      0x01\n        /* \"contracts/USElection.sol\":1232:1244  seats[TRUMP] */\n      0x00\n        /* \"contracts/USElection.sol\":182:183  2 */\n      0x02\n        /* \"contracts/USElection.sol\":1232:1244  seats[TRUMP] */\n      0xff\n      and\n      0xff\n      and\n      dup2\n      mstore\n      0x20\n      add\n      swap1\n      dup2\n      mstore\n      0x20\n      add\n      0x00\n      keccak256\n      0x00\n      swap1\n      sload\n      swap1\n      0x0100\n      exp\n      swap1\n      div\n      0xff\n      and\n        /* \"contracts/USElection.sol\":1214:1244  uint trumpSeats = seats[TRUMP] */\n      0xff\n      and\n      swap1\n      pop\n        /* \"contracts/USElection.sol\":1277:1287  trumpSeats */\n      dup1\n        /* \"contracts/USElection.sol\":1264:1274  bidenSeats */\n      dup3\n        /* \"contracts/USElection.sol\":1264:1287  bidenSeats > trumpSeats */\n      gt\n        /* \"contracts/USElection.sol\":1264:1303  bidenSeats > trumpSeats ? BIDEN : TRUMP */\n      tag_48\n      jumpi\n        /* \"contracts/USElection.sol\":182:183  2 */\n      0x02\n        /* \"contracts/USElection.sol\":1264:1303  bidenSeats > trumpSeats ? BIDEN : TRUMP */\n      jump(tag_49)\n    tag_48:\n        /* \"contracts/USElection.sol\":144:145  1 */\n      0x01\n        /* \"contracts/USElection.sol\":1264:1303  bidenSeats > trumpSeats ? BIDEN : TRUMP */\n    tag_49:\n        /* \"contracts/USElection.sol\":1257:1303  return bidenSeats > trumpSeats ? BIDEN : TRUMP */\n      swap3\n      pop\n      pop\n      pop\n        /* \"contracts/USElection.sol\":1110:1311  function currentLeader() public view returns(uint8) {\r... */\n      swap1\n      jump\t// out\n        /* \"contracts/USElection.sol\":196:221  bool public electionEnded */\n    tag_36:\n      0x00\n      dup1\n      sload\n      swap1\n      0x0100\n      exp\n      swap1\n      div\n      0xff\n      and\n      dup2\n      jump\t// out\n        /* \"contracts/USElection.sol\":588:1098  function submitStateResult(StateResult calldata result) public onlyActiveElection {\r... */\n    tag_41:\n        /* \"contracts/USElection.sol\":523:536  electionEnded */\n      0x00\n      dup1\n      sload\n      swap1\n      0x0100\n      exp\n      swap1\n      div\n      0xff\n      and\n        /* \"contracts/USElection.sol\":522:536  !electionEnded */\n      iszero\n        /* \"contracts/USElection.sol\":514:560  require(!electionEnded, \"Election has ended!\") */\n      tag_51\n      jumpi\n      mload(0x40)\n      0x08c379a000000000000000000000000000000000000000000000000000000000\n      dup2\n      mstore\n      0x04\n      add\n      tag_52\n      swap1\n      tag_45\n      jump\t// in\n    tag_52:\n      mload(0x40)\n      dup1\n      swap2\n      sub\n      swap1\n      revert\n    tag_51:\n        /* \"contracts/USElection.sol\":709:710  0 */\n      0x00\n        /* \"contracts/USElection.sol\":689:695  result */\n      dup2\n        /* \"contracts/USElection.sol\":689:706  result.stateSeats */\n      0x60\n      add\n      0x20\n      dup2\n      add\n      swap1\n      tag_54\n      swap2\n      swap1\n      tag_29\n      jump\t// in\n    tag_54:\n        /* \"contracts/USElection.sol\":689:710  result.stateSeats > 0 */\n      0xff\n      and\n      gt\n        /* \"contracts/USElection.sol\":681:743  require(result.stateSeats > 0, \"State seets cannot be empty!\") */\n      tag_55\n      jumpi\n      mload(0x40)\n      0x08c379a000000000000000000000000000000000000000000000000000000000\n      dup2\n      mstore\n      0x04\n      add\n      tag_56\n      swap1\n      tag_57\n      jump\t// in\n    tag_56:\n      mload(0x40)\n      dup1\n      swap2\n      sub\n      swap1\n      revert\n    tag_55:\n        /* \"contracts/USElection.sol\":762:776  submitedStates */\n      0x02\n        /* \"contracts/USElection.sol\":777:783  result */\n      dup2\n        /* \"contracts/USElection.sol\":777:788  result.name */\n      dup1\n      0x00\n      add\n      swap1\n      tag_58\n      swap2\n      swap1\n      tag_59\n      jump\t// in\n    tag_58:\n        /* \"contracts/USElection.sol\":762:789  submitedStates[result.name] */\n      mload(0x40)\n      tag_60\n      swap3\n      swap2\n      swap1\n      tag_61\n      jump\t// in\n    tag_60:\n      swap1\n      dup2\n      mstore\n      0x20\n      add\n      mload(0x40)\n      dup1\n      swap2\n      sub\n      swap1\n      keccak256\n      0x00\n      swap1\n      sload\n      swap1\n      0x0100\n      exp\n      swap1\n      div\n      0xff\n      and\n        /* \"contracts/USElection.sol\":754:834  require(submitedStates[result.name], \"This state has already submited results!\") */\n      tag_62\n      jumpi\n      mload(0x40)\n      0x08c379a000000000000000000000000000000000000000000000000000000000\n      dup2\n      mstore\n      0x04\n      add\n      tag_63\n      swap1\n      tag_64\n      jump\t// in\n    tag_63:\n      mload(0x40)\n      dup1\n      swap2\n      sub\n      swap1\n      revert\n    tag_62:\n        /* \"contracts/USElection.sol\":874:880  result */\n      dup1\n        /* \"contracts/USElection.sol\":874:891  result.votesTrump */\n      0x40\n      add\n      calldataload\n        /* \"contracts/USElection.sol\":853:859  result */\n      dup2\n        /* \"contracts/USElection.sol\":853:870  result.votesBiden */\n      0x20\n      add\n      calldataload\n        /* \"contracts/USElection.sol\":853:891  result.votesBiden != result.votesTrump */\n      eq\n      iszero\n        /* \"contracts/USElection.sol\":845:917  require(result.votesBiden != result.votesTrump, \"There cannot be a tie\") */\n      tag_65\n      jumpi\n      mload(0x40)\n      0x08c379a000000000000000000000000000000000000000000000000000000000\n      dup2\n      mstore\n      0x04\n      add\n      tag_66\n      swap1\n      tag_67\n      jump\t// in\n    tag_66:\n      mload(0x40)\n      dup1\n      swap2\n      sub\n      swap1\n      revert\n    tag_65:\n        /* \"contracts/USElection.sol\":960:964  true */\n      0x01\n        /* \"contracts/USElection.sol\":930:944  submitedStates */\n      0x02\n        /* \"contracts/USElection.sol\":945:951  result */\n      dup3\n        /* \"contracts/USElection.sol\":945:956  result.name */\n      dup1\n      0x00\n      add\n      swap1\n      tag_68\n      swap2\n      swap1\n      tag_59\n      jump\t// in\n    tag_68:\n        /* \"contracts/USElection.sol\":930:957  submitedStates[result.name] */\n      mload(0x40)\n      tag_69\n      swap3\n      swap2\n      swap1\n      tag_61\n      jump\t// in\n    tag_69:\n      swap1\n      dup2\n      mstore\n      0x20\n      add\n      mload(0x40)\n      dup1\n      swap2\n      sub\n      swap1\n      keccak256\n      0x00\n        /* \"contracts/USElection.sol\":930:964  submitedStates[result.name] = true */\n      0x0100\n      exp\n      dup2\n      sload\n      dup2\n      0xff\n      mul\n      not\n      and\n      swap1\n      dup4\n      iszero\n      iszero\n      mul\n      or\n      swap1\n      sstore\n      pop\n        /* \"contracts/USElection.sol\":977:989  uint8 winner */\n      0x00\n        /* \"contracts/USElection.sol\":1012:1018  result */\n      dup2\n        /* \"contracts/USElection.sol\":1012:1029  result.votesBiden */\n      0x20\n      add\n      calldataload\n        /* \"contracts/USElection.sol\":992:998  result */\n      dup3\n        /* \"contracts/USElection.sol\":992:1009  result.votesTrump */\n      0x40\n      add\n      calldataload\n        /* \"contracts/USElection.sol\":992:1029  result.votesTrump > result.votesBiden */\n      gt\n        /* \"contracts/USElection.sol\":992:1045  result.votesTrump > result.votesBiden ? TRUMP : BIDEN */\n      tag_70\n      jumpi\n        /* \"contracts/USElection.sol\":144:145  1 */\n      0x01\n        /* \"contracts/USElection.sol\":992:1045  result.votesTrump > result.votesBiden ? TRUMP : BIDEN */\n      jump(tag_71)\n    tag_70:\n        /* \"contracts/USElection.sol\":182:183  2 */\n      0x02\n        /* \"contracts/USElection.sol\":992:1045  result.votesTrump > result.votesBiden ? TRUMP : BIDEN */\n    tag_71:\n        /* \"contracts/USElection.sol\":977:1045  uint8 winner = result.votesTrump > result.votesBiden ? TRUMP : BIDEN */\n      swap1\n      pop\n        /* \"contracts/USElection.sol\":1073:1079  result */\n      dup2\n        /* \"contracts/USElection.sol\":1073:1090  result.stateSeats */\n      0x60\n      add\n      0x20\n      dup2\n      add\n      swap1\n      tag_72\n      swap2\n      swap1\n      tag_29\n      jump\t// in\n    tag_72:\n        /* \"contracts/USElection.sol\":1056:1061  seats */\n      0x01\n        /* \"contracts/USElection.sol\":1056:1069  seats[winner] */\n      0x00\n        /* \"contracts/USElection.sol\":1062:1068  winner */\n      dup4\n        /* \"contracts/USElection.sol\":1056:1069  seats[winner] */\n      0xff\n      and\n      0xff\n      and\n      dup2\n      mstore\n      0x20\n      add\n      swap1\n      dup2\n      mstore\n      0x20\n      add\n      0x00\n      keccak256\n      0x00\n        /* \"contracts/USElection.sol\":1056:1090  seats[winner] += result.stateSeats */\n      dup3\n      dup3\n      dup3\n      swap1\n      sload\n      swap1\n      0x0100\n      exp\n      swap1\n      div\n      0xff\n      and\n      tag_73\n      swap2\n      swap1\n      tag_74\n      jump\t// in\n    tag_73:\n      swap3\n      pop\n      0x0100\n      exp\n      dup2\n      sload\n      dup2\n      0xff\n      mul\n      not\n      and\n      swap1\n      dup4\n      0xff\n      and\n      mul\n      or\n      swap1\n      sstore\n      pop\n        /* \"contracts/USElection.sol\":670:1098  {\r... */\n      pop\n        /* \"contracts/USElection.sol\":588:1098  function submitStateResult(StateResult calldata result) public onlyActiveElection {\r... */\n      pop\n      jump\t// out\n        /* \"#utility.yul\":7:419   */\n    tag_76:\n        /* \"#utility.yul\":85:90   */\n      0x00\n        /* \"#utility.yul\":110:176   */\n      tag_78\n        /* \"#utility.yul\":126:175   */\n      tag_79\n        /* \"#utility.yul\":168:174   */\n      dup5\n        /* \"#utility.yul\":126:175   */\n      tag_80\n      jump\t// in\n    tag_79:\n        /* \"#utility.yul\":110:176   */\n      tag_81\n      jump\t// in\n    tag_78:\n        /* \"#utility.yul\":101:176   */\n      swap1\n      pop\n        /* \"#utility.yul\":199:205   */\n      dup3\n        /* \"#utility.yul\":192:197   */\n      dup2\n        /* \"#utility.yul\":185:206   */\n      mstore\n        /* \"#utility.yul\":237:241   */\n      0x20\n        /* \"#utility.yul\":230:235   */\n      dup2\n        /* \"#utility.yul\":226:242   */\n      add\n        /* \"#utility.yul\":275:278   */\n      dup5\n        /* \"#utility.yul\":266:272   */\n      dup5\n        /* \"#utility.yul\":261:264   */\n      dup5\n        /* \"#utility.yul\":257:273   */\n      add\n        /* \"#utility.yul\":254:279   */\n      gt\n        /* \"#utility.yul\":251:363   */\n      iszero\n      tag_82\n      jumpi\n        /* \"#utility.yul\":282:361   */\n      tag_83\n      tag_84\n      jump\t// in\n    tag_83:\n        /* \"#utility.yul\":251:363   */\n    tag_82:\n        /* \"#utility.yul\":372:413   */\n      tag_85\n        /* \"#utility.yul\":406:412   */\n      dup5\n        /* \"#utility.yul\":401:404   */\n      dup3\n        /* \"#utility.yul\":396:399   */\n      dup6\n        /* \"#utility.yul\":372:413   */\n      tag_86\n      jump\t// in\n    tag_85:\n        /* \"#utility.yul\":91:419   */\n      pop\n        /* \"#utility.yul\":7:419   */\n      swap4\n      swap3\n      pop\n      pop\n      pop\n      jump\t// out\n        /* \"#utility.yul\":439:779   */\n    tag_87:\n        /* \"#utility.yul\":495:500   */\n      0x00\n        /* \"#utility.yul\":544:547   */\n      dup3\n        /* \"#utility.yul\":537:541   */\n      0x1f\n        /* \"#utility.yul\":529:535   */\n      dup4\n        /* \"#utility.yul\":525:542   */\n      add\n        /* \"#utility.yul\":521:548   */\n      slt\n        /* \"#utility.yul\":511:633   */\n      tag_89\n      jumpi\n        /* \"#utility.yul\":552:631   */\n      tag_90\n      tag_91\n      jump\t// in\n    tag_90:\n        /* \"#utility.yul\":511:633   */\n    tag_89:\n        /* \"#utility.yul\":669:675   */\n      dup2\n        /* \"#utility.yul\":656:676   */\n      calldataload\n        /* \"#utility.yul\":694:773   */\n      tag_92\n        /* \"#utility.yul\":769:772   */\n      dup5\n        /* \"#utility.yul\":761:767   */\n      dup3\n        /* \"#utility.yul\":754:758   */\n      0x20\n        /* \"#utility.yul\":746:752   */\n      dup7\n        /* \"#utility.yul\":742:759   */\n      add\n        /* \"#utility.yul\":694:773   */\n      tag_76\n      jump\t// in\n    tag_92:\n        /* \"#utility.yul\":685:773   */\n      swap2\n      pop\n        /* \"#utility.yul\":501:779   */\n      pop\n        /* \"#utility.yul\":439:779   */\n      swap3\n      swap2\n      pop\n      pop\n      jump\t// out\n        /* \"#utility.yul\":822:1056   */\n    tag_93:\n        /* \"#utility.yul\":897:902   */\n      0x00\n        /* \"#utility.yul\":938:941   */\n      0x80\n        /* \"#utility.yul\":929:935   */\n      dup3\n        /* \"#utility.yul\":924:927   */\n      dup5\n        /* \"#utility.yul\":920:936   */\n      sub\n        /* \"#utility.yul\":916:942   */\n      slt\n        /* \"#utility.yul\":913:1026   */\n      iszero\n      tag_95\n      jumpi\n        /* \"#utility.yul\":945:1024   */\n      tag_96\n      tag_97\n      jump\t// in\n    tag_96:\n        /* \"#utility.yul\":913:1026   */\n    tag_95:\n        /* \"#utility.yul\":1044:1050   */\n      dup2\n        /* \"#utility.yul\":1035:1050   */\n      swap1\n      pop\n        /* \"#utility.yul\":822:1056   */\n      swap3\n      swap2\n      pop\n      pop\n      jump\t// out\n        /* \"#utility.yul\":1062:1197   */\n    tag_98:\n        /* \"#utility.yul\":1106:1111   */\n      0x00\n        /* \"#utility.yul\":1144:1150   */\n      dup2\n        /* \"#utility.yul\":1131:1151   */\n      calldataload\n        /* \"#utility.yul\":1122:1151   */\n      swap1\n      pop\n        /* \"#utility.yul\":1160:1191   */\n      tag_100\n        /* \"#utility.yul\":1185:1190   */\n      dup2\n        /* \"#utility.yul\":1160:1191   */\n      tag_101\n      jump\t// in\n    tag_100:\n        /* \"#utility.yul\":1062:1197   */\n      swap3\n      swap2\n      pop\n      pop\n      jump\t// out\n        /* \"#utility.yul\":1203:1712   */\n    tag_14:\n        /* \"#utility.yul\":1272:1278   */\n      0x00\n        /* \"#utility.yul\":1321:1323   */\n      0x20\n        /* \"#utility.yul\":1309:1318   */\n      dup3\n        /* \"#utility.yul\":1300:1307   */\n      dup5\n        /* \"#utility.yul\":1296:1319   */\n      sub\n        /* \"#utility.yul\":1292:1324   */\n      slt\n        /* \"#utility.yul\":1289:1408   */\n      iszero\n      tag_103\n      jumpi\n        /* \"#utility.yul\":1327:1406   */\n      tag_104\n      tag_105\n      jump\t// in\n    tag_104:\n        /* \"#utility.yul\":1289:1408   */\n    tag_103:\n        /* \"#utility.yul\":1475:1476   */\n      0x00\n        /* \"#utility.yul\":1464:1473   */\n      dup3\n        /* \"#utility.yul\":1460:1477   */\n      add\n        /* \"#utility.yul\":1447:1478   */\n      calldataload\n        /* \"#utility.yul\":1505:1523   */\n      0xffffffffffffffff\n        /* \"#utility.yul\":1497:1503   */\n      dup2\n        /* \"#utility.yul\":1494:1524   */\n      gt\n        /* \"#utility.yul\":1491:1608   */\n      iszero\n      tag_106\n      jumpi\n        /* \"#utility.yul\":1527:1606   */\n      tag_107\n      tag_108\n      jump\t// in\n    tag_107:\n        /* \"#utility.yul\":1491:1608   */\n    tag_106:\n        /* \"#utility.yul\":1632:1695   */\n      tag_109\n        /* \"#utility.yul\":1687:1694   */\n      dup5\n        /* \"#utility.yul\":1678:1684   */\n      dup3\n        /* \"#utility.yul\":1667:1676   */\n      dup6\n        /* \"#utility.yul\":1663:1685   */\n      add\n        /* \"#utility.yul\":1632:1695   */\n      tag_87\n      jump\t// in\n    tag_109:\n        /* \"#utility.yul\":1622:1695   */\n      swap2\n      pop\n        /* \"#utility.yul\":1418:1705   */\n      pop\n        /* \"#utility.yul\":1203:1712   */\n      swap3\n      swap2\n      pop\n      pop\n      jump\t// out\n        /* \"#utility.yul\":1718:2265   */\n    tag_40:\n        /* \"#utility.yul\":1806:1812   */\n      0x00\n        /* \"#utility.yul\":1855:1857   */\n      0x20\n        /* \"#utility.yul\":1843:1852   */\n      dup3\n        /* \"#utility.yul\":1834:1841   */\n      dup5\n        /* \"#utility.yul\":1830:1853   */\n      sub\n        /* \"#utility.yul\":1826:1858   */\n      slt\n        /* \"#utility.yul\":1823:1942   */\n      iszero\n      tag_111\n      jumpi\n        /* \"#utility.yul\":1861:1940   */\n      tag_112\n      tag_105\n      jump\t// in\n    tag_112:\n        /* \"#utility.yul\":1823:1942   */\n    tag_111:\n        /* \"#utility.yul\":2009:2010   */\n      0x00\n        /* \"#utility.yul\":1998:2007   */\n      dup3\n        /* \"#utility.yul\":1994:2011   */\n      add\n        /* \"#utility.yul\":1981:2012   */\n      calldataload\n        /* \"#utility.yul\":2039:2057   */\n      0xffffffffffffffff\n        /* \"#utility.yul\":2031:2037   */\n      dup2\n        /* \"#utility.yul\":2028:2058   */\n      gt\n        /* \"#utility.yul\":2025:2142   */\n      iszero\n      tag_113\n      jumpi\n        /* \"#utility.yul\":2061:2140   */\n      tag_114\n      tag_108\n      jump\t// in\n    tag_114:\n        /* \"#utility.yul\":2025:2142   */\n    tag_113:\n        /* \"#utility.yul\":2166:2248   */\n      tag_115\n        /* \"#utility.yul\":2240:2247   */\n      dup5\n        /* \"#utility.yul\":2231:2237   */\n      dup3\n        /* \"#utility.yul\":2220:2229   */\n      dup6\n        /* \"#utility.yul\":2216:2238   */\n      add\n        /* \"#utility.yul\":2166:2248   */\n      tag_93\n      jump\t// in\n    tag_115:\n        /* \"#utility.yul\":2156:2248   */\n      swap2\n      pop\n        /* \"#utility.yul\":1952:2258   */\n      pop\n        /* \"#utility.yul\":1718:2265   */\n      swap3\n      swap2\n      pop\n      pop\n      jump\t// out\n        /* \"#utility.yul\":2271:2596   */\n    tag_29:\n        /* \"#utility.yul\":2328:2334   */\n      0x00\n        /* \"#utility.yul\":2377:2379   */\n      0x20\n        /* \"#utility.yul\":2365:2374   */\n      dup3\n        /* \"#utility.yul\":2356:2363   */\n      dup5\n        /* \"#utility.yul\":2352:2375   */\n      sub\n        /* \"#utility.yul\":2348:2380   */\n      slt\n        /* \"#utility.yul\":2345:2464   */\n      iszero\n      tag_117\n      jumpi\n        /* \"#utility.yul\":2383:2462   */\n      tag_118\n      tag_105\n      jump\t// in\n    tag_118:\n        /* \"#utility.yul\":2345:2464   */\n    tag_117:\n        /* \"#utility.yul\":2503:2504   */\n      0x00\n        /* \"#utility.yul\":2528:2579   */\n      tag_119\n        /* \"#utility.yul\":2571:2578   */\n      dup5\n        /* \"#utility.yul\":2562:2568   */\n      dup3\n        /* \"#utility.yul\":2551:2560   */\n      dup6\n        /* \"#utility.yul\":2547:2569   */\n      add\n        /* \"#utility.yul\":2528:2579   */\n      tag_98\n      jump\t// in\n    tag_119:\n        /* \"#utility.yul\":2518:2579   */\n      swap2\n      pop\n        /* \"#utility.yul\":2474:2589   */\n      pop\n        /* \"#utility.yul\":2271:2596   */\n      swap3\n      swap2\n      pop\n      pop\n      jump\t// out\n        /* \"#utility.yul\":2602:2711   */\n    tag_120:\n        /* \"#utility.yul\":2683:2704   */\n      tag_122\n        /* \"#utility.yul\":2698:2703   */\n      dup2\n        /* \"#utility.yul\":2683:2704   */\n      tag_123\n      jump\t// in\n    tag_122:\n        /* \"#utility.yul\":2678:2681   */\n      dup3\n        /* \"#utility.yul\":2671:2705   */\n      mstore\n        /* \"#utility.yul\":2602:2711   */\n      pop\n      pop\n      jump\t// out\n        /* \"#utility.yul\":2741:3058   */\n    tag_124:\n        /* \"#utility.yul\":2857:2860   */\n      0x00\n        /* \"#utility.yul\":2878:2967   */\n      tag_126\n        /* \"#utility.yul\":2960:2966   */\n      dup4\n        /* \"#utility.yul\":2955:2958   */\n      dup6\n        /* \"#utility.yul\":2878:2967   */\n      tag_127\n      jump\t// in\n    tag_126:\n        /* \"#utility.yul\":2871:2967   */\n      swap4\n      pop\n        /* \"#utility.yul\":2977:3020   */\n      tag_128\n        /* \"#utility.yul\":3013:3019   */\n      dup4\n        /* \"#utility.yul\":3008:3011   */\n      dup6\n        /* \"#utility.yul\":3001:3006   */\n      dup5\n        /* \"#utility.yul\":2977:3020   */\n      tag_86\n      jump\t// in\n    tag_128:\n        /* \"#utility.yul\":3045:3051   */\n      dup3\n        /* \"#utility.yul\":3040:3043   */\n      dup5\n        /* \"#utility.yul\":3036:3052   */\n      add\n        /* \"#utility.yul\":3029:3052   */\n      swap1\n      pop\n        /* \"#utility.yul\":2741:3058   */\n      swap4\n      swap3\n      pop\n      pop\n      pop\n      jump\t// out\n        /* \"#utility.yul\":3064:3430   */\n    tag_129:\n        /* \"#utility.yul\":3206:3209   */\n      0x00\n        /* \"#utility.yul\":3227:3294   */\n      tag_131\n        /* \"#utility.yul\":3291:3293   */\n      0x13\n        /* \"#utility.yul\":3286:3289   */\n      dup4\n        /* \"#utility.yul\":3227:3294   */\n      tag_132\n      jump\t// in\n    tag_131:\n        /* \"#utility.yul\":3220:3294   */\n      swap2\n      pop\n        /* \"#utility.yul\":3303:3396   */\n      tag_133\n        /* \"#utility.yul\":3392:3395   */\n      dup3\n        /* \"#utility.yul\":3303:3396   */\n      tag_134\n      jump\t// in\n    tag_133:\n        /* \"#utility.yul\":3421:3423   */\n      0x20\n        /* \"#utility.yul\":3416:3419   */\n      dup3\n        /* \"#utility.yul\":3412:3424   */\n      add\n        /* \"#utility.yul\":3405:3424   */\n      swap1\n      pop\n        /* \"#utility.yul\":3064:3430   */\n      swap2\n      swap1\n      pop\n      jump\t// out\n        /* \"#utility.yul\":3436:3802   */\n    tag_135:\n        /* \"#utility.yul\":3578:3581   */\n      0x00\n        /* \"#utility.yul\":3599:3666   */\n      tag_137\n        /* \"#utility.yul\":3663:3665   */\n      0x15\n        /* \"#utility.yul\":3658:3661   */\n      dup4\n        /* \"#utility.yul\":3599:3666   */\n      tag_132\n      jump\t// in\n    tag_137:\n        /* \"#utility.yul\":3592:3666   */\n      swap2\n      pop\n        /* \"#utility.yul\":3675:3768   */\n      tag_138\n        /* \"#utility.yul\":3764:3767   */\n      dup3\n        /* \"#utility.yul\":3675:3768   */\n      tag_139\n      jump\t// in\n    tag_138:\n        /* \"#utility.yul\":3793:3795   */\n      0x20\n        /* \"#utility.yul\":3788:3791   */\n      dup3\n        /* \"#utility.yul\":3784:3796   */\n      add\n        /* \"#utility.yul\":3777:3796   */\n      swap1\n      pop\n        /* \"#utility.yul\":3436:3802   */\n      swap2\n      swap1\n      pop\n      jump\t// out\n        /* \"#utility.yul\":3808:4174   */\n    tag_140:\n        /* \"#utility.yul\":3950:3953   */\n      0x00\n        /* \"#utility.yul\":3971:4038   */\n      tag_142\n        /* \"#utility.yul\":4035:4037   */\n      0x28\n        /* \"#utility.yul\":4030:4033   */\n      dup4\n        /* \"#utility.yul\":3971:4038   */\n      tag_132\n      jump\t// in\n    tag_142:\n        /* \"#utility.yul\":3964:4038   */\n      swap2\n      pop\n        /* \"#utility.yul\":4047:4140   */\n      tag_143\n        /* \"#utility.yul\":4136:4139   */\n      dup3\n        /* \"#utility.yul\":4047:4140   */\n      tag_144\n      jump\t// in\n    tag_143:\n        /* \"#utility.yul\":4165:4167   */\n      0x40\n        /* \"#utility.yul\":4160:4163   */\n      dup3\n        /* \"#utility.yul\":4156:4168   */\n      add\n        /* \"#utility.yul\":4149:4168   */\n      swap1\n      pop\n        /* \"#utility.yul\":3808:4174   */\n      swap2\n      swap1\n      pop\n      jump\t// out\n        /* \"#utility.yul\":4180:4546   */\n    tag_145:\n        /* \"#utility.yul\":4322:4325   */\n      0x00\n        /* \"#utility.yul\":4343:4410   */\n      tag_147\n        /* \"#utility.yul\":4407:4409   */\n      0x1c\n        /* \"#utility.yul\":4402:4405   */\n      dup4\n        /* \"#utility.yul\":4343:4410   */\n      tag_132\n      jump\t// in\n    tag_147:\n        /* \"#utility.yul\":4336:4410   */\n      swap2\n      pop\n        /* \"#utility.yul\":4419:4512   */\n      tag_148\n        /* \"#utility.yul\":4508:4511   */\n      dup3\n        /* \"#utility.yul\":4419:4512   */\n      tag_149\n      jump\t// in\n    tag_148:\n        /* \"#utility.yul\":4537:4539   */\n      0x20\n        /* \"#utility.yul\":4532:4535   */\n      dup3\n        /* \"#utility.yul\":4528:4540   */\n      add\n        /* \"#utility.yul\":4521:4540   */\n      swap1\n      pop\n        /* \"#utility.yul\":4180:4546   */\n      swap2\n      swap1\n      pop\n      jump\t// out\n        /* \"#utility.yul\":4552:4664   */\n    tag_150:\n        /* \"#utility.yul\":4635:4657   */\n      tag_152\n        /* \"#utility.yul\":4651:4656   */\n      dup2\n        /* \"#utility.yul\":4635:4657   */\n      tag_153\n      jump\t// in\n    tag_152:\n        /* \"#utility.yul\":4630:4633   */\n      dup3\n        /* \"#utility.yul\":4623:4658   */\n      mstore\n        /* \"#utility.yul\":4552:4664   */\n      pop\n      pop\n      jump\t// out\n        /* \"#utility.yul\":4670:4965   */\n    tag_61:\n        /* \"#utility.yul\":4812:4815   */\n      0x00\n        /* \"#utility.yul\":4834:4939   */\n      tag_155\n        /* \"#utility.yul\":4935:4938   */\n      dup3\n        /* \"#utility.yul\":4926:4932   */\n      dup5\n        /* \"#utility.yul\":4918:4924   */\n      dup7\n        /* \"#utility.yul\":4834:4939   */\n      tag_124\n      jump\t// in\n    tag_155:\n        /* \"#utility.yul\":4827:4939   */\n      swap2\n      pop\n        /* \"#utility.yul\":4956:4959   */\n      dup2\n        /* \"#utility.yul\":4949:4959   */\n      swap1\n      pop\n        /* \"#utility.yul\":4670:4965   */\n      swap4\n      swap3\n      pop\n      pop\n      pop\n      jump\t// out\n        /* \"#utility.yul\":4971:5181   */\n    tag_17:\n        /* \"#utility.yul\":5058:5062   */\n      0x00\n        /* \"#utility.yul\":5096:5098   */\n      0x20\n        /* \"#utility.yul\":5085:5094   */\n      dup3\n        /* \"#utility.yul\":5081:5099   */\n      add\n        /* \"#utility.yul\":5073:5099   */\n      swap1\n      pop\n        /* \"#utility.yul\":5109:5174   */\n      tag_157\n        /* \"#utility.yul\":5171:5172   */\n      0x00\n        /* \"#utility.yul\":5160:5169   */\n      dup4\n        /* \"#utility.yul\":5156:5173   */\n      add\n        /* \"#utility.yul\":5147:5153   */\n      dup5\n        /* \"#utility.yul\":5109:5174   */\n      tag_120\n      jump\t// in\n    tag_157:\n        /* \"#utility.yul\":4971:5181   */\n      swap3\n      swap2\n      pop\n      pop\n      jump\t// out\n        /* \"#utility.yul\":5187:5606   */\n    tag_45:\n        /* \"#utility.yul\":5353:5357   */\n      0x00\n        /* \"#utility.yul\":5391:5393   */\n      0x20\n        /* \"#utility.yul\":5380:5389   */\n      dup3\n        /* \"#utility.yul\":5376:5394   */\n      add\n        /* \"#utility.yul\":5368:5394   */\n      swap1\n      pop\n        /* \"#utility.yul\":5440:5449   */\n      dup2\n        /* \"#utility.yul\":5434:5438   */\n      dup2\n        /* \"#utility.yul\":5430:5450   */\n      sub\n        /* \"#utility.yul\":5426:5427   */\n      0x00\n        /* \"#utility.yul\":5415:5424   */\n      dup4\n        /* \"#utility.yul\":5411:5428   */\n      add\n        /* \"#utility.yul\":5404:5451   */\n      mstore\n        /* \"#utility.yul\":5468:5599   */\n      tag_159\n        /* \"#utility.yul\":5594:5598   */\n      dup2\n        /* \"#utility.yul\":5468:5599   */\n      tag_129\n      jump\t// in\n    tag_159:\n        /* \"#utility.yul\":5460:5599   */\n      swap1\n      pop\n        /* \"#utility.yul\":5187:5606   */\n      swap2\n      swap1\n      pop\n      jump\t// out\n        /* \"#utility.yul\":5612:6031   */\n    tag_67:\n        /* \"#utility.yul\":5778:5782   */\n      0x00\n        /* \"#utility.yul\":5816:5818   */\n      0x20\n        /* \"#utility.yul\":5805:5814   */\n      dup3\n        /* \"#utility.yul\":5801:5819   */\n      add\n        /* \"#utility.yul\":5793:5819   */\n      swap1\n      pop\n        /* \"#utility.yul\":5865:5874   */\n      dup2\n        /* \"#utility.yul\":5859:5863   */\n      dup2\n        /* \"#utility.yul\":5855:5875   */\n      sub\n        /* \"#utility.yul\":5851:5852   */\n      0x00\n        /* \"#utility.yul\":5840:5849   */\n      dup4\n        /* \"#utility.yul\":5836:5853   */\n      add\n        /* \"#utility.yul\":5829:5876   */\n      mstore\n        /* \"#utility.yul\":5893:6024   */\n      tag_161\n        /* \"#utility.yul\":6019:6023   */\n      dup2\n        /* \"#utility.yul\":5893:6024   */\n      tag_135\n      jump\t// in\n    tag_161:\n        /* \"#utility.yul\":5885:6024   */\n      swap1\n      pop\n        /* \"#utility.yul\":5612:6031   */\n      swap2\n      swap1\n      pop\n      jump\t// out\n        /* \"#utility.yul\":6037:6456   */\n    tag_64:\n        /* \"#utility.yul\":6203:6207   */\n      0x00\n        /* \"#utility.yul\":6241:6243   */\n      0x20\n        /* \"#utility.yul\":6230:6239   */\n      dup3\n        /* \"#utility.yul\":6226:6244   */\n      add\n        /* \"#utility.yul\":6218:6244   */\n      swap1\n      pop\n        /* \"#utility.yul\":6290:6299   */\n      dup2\n        /* \"#utility.yul\":6284:6288   */\n      dup2\n        /* \"#utility.yul\":6280:6300   */\n      sub\n        /* \"#utility.yul\":6276:6277   */\n      0x00\n        /* \"#utility.yul\":6265:6274   */\n      dup4\n        /* \"#utility.yul\":6261:6278   */\n      add\n        /* \"#utility.yul\":6254:6301   */\n      mstore\n        /* \"#utility.yul\":6318:6449   */\n      tag_163\n        /* \"#utility.yul\":6444:6448   */\n      dup2\n        /* \"#utility.yul\":6318:6449   */\n      tag_140\n      jump\t// in\n    tag_163:\n        /* \"#utility.yul\":6310:6449   */\n      swap1\n      pop\n        /* \"#utility.yul\":6037:6456   */\n      swap2\n      swap1\n      pop\n      jump\t// out\n        /* \"#utility.yul\":6462:6881   */\n    tag_57:\n        /* \"#utility.yul\":6628:6632   */\n      0x00\n        /* \"#utility.yul\":6666:6668   */\n      0x20\n        /* \"#utility.yul\":6655:6664   */\n      dup3\n        /* \"#utility.yul\":6651:6669   */\n      add\n        /* \"#utility.yul\":6643:6669   */\n      swap1\n      pop\n        /* \"#utility.yul\":6715:6724   */\n      dup2\n        /* \"#utility.yul\":6709:6713   */\n      dup2\n        /* \"#utility.yul\":6705:6725   */\n      sub\n        /* \"#utility.yul\":6701:6702   */\n      0x00\n        /* \"#utility.yul\":6690:6699   */\n      dup4\n        /* \"#utility.yul\":6686:6703   */\n      add\n        /* \"#utility.yul\":6679:6726   */\n      mstore\n        /* \"#utility.yul\":6743:6874   */\n      tag_165\n        /* \"#utility.yul\":6869:6873   */\n      dup2\n        /* \"#utility.yul\":6743:6874   */\n      tag_145\n      jump\t// in\n    tag_165:\n        /* \"#utility.yul\":6735:6874   */\n      swap1\n      pop\n        /* \"#utility.yul\":6462:6881   */\n      swap2\n      swap1\n      pop\n      jump\t// out\n        /* \"#utility.yul\":6887:7101   */\n    tag_21:\n        /* \"#utility.yul\":6976:6980   */\n      0x00\n        /* \"#utility.yul\":7014:7016   */\n      0x20\n        /* \"#utility.yul\":7003:7012   */\n      dup3\n        /* \"#utility.yul\":6999:7017   */\n      add\n        /* \"#utility.yul\":6991:7017   */\n      swap1\n      pop\n        /* \"#utility.yul\":7027:7094   */\n      tag_167\n        /* \"#utility.yul\":7091:7092   */\n      0x00\n        /* \"#utility.yul\":7080:7089   */\n      dup4\n        /* \"#utility.yul\":7076:7093   */\n      add\n        /* \"#utility.yul\":7067:7073   */\n      dup5\n        /* \"#utility.yul\":7027:7094   */\n      tag_150\n      jump\t// in\n    tag_167:\n        /* \"#utility.yul\":6887:7101   */\n      swap3\n      swap2\n      pop\n      pop\n      jump\t// out\n        /* \"#utility.yul\":7107:7832   */\n    tag_59:\n        /* \"#utility.yul\":7185:7189   */\n      0x00\n        /* \"#utility.yul\":7191:7197   */\n      dup1\n        /* \"#utility.yul\":7247:7258   */\n      dup4\n        /* \"#utility.yul\":7234:7259   */\n      calldataload\n        /* \"#utility.yul\":7347:7348   */\n      0x01\n        /* \"#utility.yul\":7341:7345   */\n      0x20\n        /* \"#utility.yul\":7337:7349   */\n      sub\n        /* \"#utility.yul\":7326:7334   */\n      dup5\n        /* \"#utility.yul\":7310:7324   */\n      calldatasize\n        /* \"#utility.yul\":7306:7335   */\n      sub\n        /* \"#utility.yul\":7302:7350   */\n      sub\n        /* \"#utility.yul\":7282:7300   */\n      dup2\n        /* \"#utility.yul\":7278:7351   */\n      slt\n        /* \"#utility.yul\":7268:7436   */\n      tag_169\n      jumpi\n        /* \"#utility.yul\":7355:7434   */\n      tag_170\n      tag_171\n      jump\t// in\n    tag_170:\n        /* \"#utility.yul\":7268:7436   */\n    tag_169:\n        /* \"#utility.yul\":7467:7485   */\n      dup1\n        /* \"#utility.yul\":7457:7465   */\n      dup5\n        /* \"#utility.yul\":7453:7486   */\n      add\n        /* \"#utility.yul\":7445:7486   */\n      swap3\n      pop\n        /* \"#utility.yul\":7519:7523   */\n      dup3\n        /* \"#utility.yul\":7506:7524   */\n      calldataload\n        /* \"#utility.yul\":7496:7524   */\n      swap2\n      pop\n        /* \"#utility.yul\":7547:7565   */\n      0xffffffffffffffff\n        /* \"#utility.yul\":7539:7545   */\n      dup3\n        /* \"#utility.yul\":7536:7566   */\n      gt\n        /* \"#utility.yul\":7533:7650   */\n      iszero\n      tag_172\n      jumpi\n        /* \"#utility.yul\":7569:7648   */\n      tag_173\n      tag_174\n      jump\t// in\n    tag_173:\n        /* \"#utility.yul\":7533:7650   */\n    tag_172:\n        /* \"#utility.yul\":7677:7679   */\n      0x20\n        /* \"#utility.yul\":7671:7675   */\n      dup4\n        /* \"#utility.yul\":7667:7680   */\n      add\n        /* \"#utility.yul\":7659:7680   */\n      swap3\n      pop\n        /* \"#utility.yul\":7734:7738   */\n      0x01\n        /* \"#utility.yul\":7726:7732   */\n      dup3\n        /* \"#utility.yul\":7722:7739   */\n      mul\n        /* \"#utility.yul\":7706:7720   */\n      calldatasize\n        /* \"#utility.yul\":7702:7740   */\n      sub\n        /* \"#utility.yul\":7696:7700   */\n      dup4\n        /* \"#utility.yul\":7692:7741   */\n      sgt\n        /* \"#utility.yul\":7689:7825   */\n      iszero\n      tag_175\n      jumpi\n        /* \"#utility.yul\":7744:7823   */\n      tag_176\n      tag_177\n      jump\t// in\n    tag_176:\n        /* \"#utility.yul\":7689:7825   */\n    tag_175:\n        /* \"#utility.yul\":7198:7832   */\n      pop\n        /* \"#utility.yul\":7107:7832   */\n      swap3\n      pop\n      swap3\n      swap1\n      pop\n      jump\t// out\n        /* \"#utility.yul\":7838:7967   */\n    tag_81:\n        /* \"#utility.yul\":7872:7878   */\n      0x00\n        /* \"#utility.yul\":7899:7919   */\n      tag_179\n      tag_180\n      jump\t// in\n    tag_179:\n        /* \"#utility.yul\":7889:7919   */\n      swap1\n      pop\n        /* \"#utility.yul\":7928:7961   */\n      tag_181\n        /* \"#utility.yul\":7956:7960   */\n      dup3\n        /* \"#utility.yul\":7948:7954   */\n      dup3\n        /* \"#utility.yul\":7928:7961   */\n      tag_182\n      jump\t// in\n    tag_181:\n        /* \"#utility.yul\":7838:7967   */\n      swap2\n      swap1\n      pop\n      jump\t// out\n        /* \"#utility.yul\":7973:8048   */\n    tag_180:\n        /* \"#utility.yul\":8006:8012   */\n      0x00\n        /* \"#utility.yul\":8039:8041   */\n      0x40\n        /* \"#utility.yul\":8033:8042   */\n      mload\n        /* \"#utility.yul\":8023:8042   */\n      swap1\n      pop\n        /* \"#utility.yul\":7973:8048   */\n      swap1\n      jump\t// out\n        /* \"#utility.yul\":8054:8362   */\n    tag_80:\n        /* \"#utility.yul\":8116:8120   */\n      0x00\n        /* \"#utility.yul\":8206:8224   */\n      0xffffffffffffffff\n        /* \"#utility.yul\":8198:8204   */\n      dup3\n        /* \"#utility.yul\":8195:8225   */\n      gt\n        /* \"#utility.yul\":8192:8248   */\n      iszero\n      tag_185\n      jumpi\n        /* \"#utility.yul\":8228:8246   */\n      tag_186\n      tag_187\n      jump\t// in\n    tag_186:\n        /* \"#utility.yul\":8192:8248   */\n    tag_185:\n        /* \"#utility.yul\":8266:8295   */\n      tag_188\n        /* \"#utility.yul\":8288:8294   */\n      dup3\n        /* \"#utility.yul\":8266:8295   */\n      tag_189\n      jump\t// in\n    tag_188:\n        /* \"#utility.yul\":8258:8295   */\n      swap1\n      pop\n        /* \"#utility.yul\":8350:8354   */\n      0x20\n        /* \"#utility.yul\":8344:8348   */\n      dup2\n        /* \"#utility.yul\":8340:8355   */\n      add\n        /* \"#utility.yul\":8332:8355   */\n      swap1\n      pop\n        /* \"#utility.yul\":8054:8362   */\n      swap2\n      swap1\n      pop\n      jump\t// out\n        /* \"#utility.yul\":8368:8537   */\n    tag_132:\n        /* \"#utility.yul\":8452:8463   */\n      0x00\n        /* \"#utility.yul\":8486:8492   */\n      dup3\n        /* \"#utility.yul\":8481:8484   */\n      dup3\n        /* \"#utility.yul\":8474:8493   */\n      mstore\n        /* \"#utility.yul\":8526:8530   */\n      0x20\n        /* \"#utility.yul\":8521:8524   */\n      dup3\n        /* \"#utility.yul\":8517:8531   */\n      add\n        /* \"#utility.yul\":8502:8531   */\n      swap1\n      pop\n        /* \"#utility.yul\":8368:8537   */\n      swap3\n      swap2\n      pop\n      pop\n      jump\t// out\n        /* \"#utility.yul\":8543:8691   */\n    tag_127:\n        /* \"#utility.yul\":8645:8656   */\n      0x00\n        /* \"#utility.yul\":8682:8685   */\n      dup2\n        /* \"#utility.yul\":8667:8685   */\n      swap1\n      pop\n        /* \"#utility.yul\":8543:8691   */\n      swap3\n      swap2\n      pop\n      pop\n      jump\t// out\n        /* \"#utility.yul\":8697:8934   */\n    tag_74:\n        /* \"#utility.yul\":8735:8738   */\n      0x00\n        /* \"#utility.yul\":8754:8772   */\n      tag_193\n        /* \"#utility.yul\":8770:8771   */\n      dup3\n        /* \"#utility.yul\":8754:8772   */\n      tag_153\n      jump\t// in\n    tag_193:\n        /* \"#utility.yul\":8749:8772   */\n      swap2\n      pop\n        /* \"#utility.yul\":8786:8804   */\n      tag_194\n        /* \"#utility.yul\":8802:8803   */\n      dup4\n        /* \"#utility.yul\":8786:8804   */\n      tag_153\n      jump\t// in\n    tag_194:\n        /* \"#utility.yul\":8781:8804   */\n      swap3\n      pop\n        /* \"#utility.yul\":8876:8877   */\n      dup3\n        /* \"#utility.yul\":8870:8874   */\n      0xff\n        /* \"#utility.yul\":8866:8878   */\n      sub\n        /* \"#utility.yul\":8863:8864   */\n      dup3\n        /* \"#utility.yul\":8860:8879   */\n      gt\n        /* \"#utility.yul\":8857:8902   */\n      iszero\n      tag_195\n      jumpi\n        /* \"#utility.yul\":8882:8900   */\n      tag_196\n      tag_197\n      jump\t// in\n    tag_196:\n        /* \"#utility.yul\":8857:8902   */\n    tag_195:\n        /* \"#utility.yul\":8926:8927   */\n      dup3\n        /* \"#utility.yul\":8923:8924   */\n      dup3\n        /* \"#utility.yul\":8919:8928   */\n      add\n        /* \"#utility.yul\":8912:8928   */\n      swap1\n      pop\n        /* \"#utility.yul\":8697:8934   */\n      swap3\n      swap2\n      pop\n      pop\n      jump\t// out\n        /* \"#utility.yul\":8940:9030   */\n    tag_123:\n        /* \"#utility.yul\":8974:8981   */\n      0x00\n        /* \"#utility.yul\":9017:9022   */\n      dup2\n        /* \"#utility.yul\":9010:9023   */\n      iszero\n        /* \"#utility.yul\":9003:9024   */\n      iszero\n        /* \"#utility.yul\":8992:9024   */\n      swap1\n      pop\n        /* \"#utility.yul\":8940:9030   */\n      swap2\n      swap1\n      pop\n      jump\t// out\n        /* \"#utility.yul\":9036:9122   */\n    tag_153:\n        /* \"#utility.yul\":9071:9078   */\n      0x00\n        /* \"#utility.yul\":9111:9115   */\n      0xff\n        /* \"#utility.yul\":9104:9109   */\n      dup3\n        /* \"#utility.yul\":9100:9116   */\n      and\n        /* \"#utility.yul\":9089:9116   */\n      swap1\n      pop\n        /* \"#utility.yul\":9036:9122   */\n      swap2\n      swap1\n      pop\n      jump\t// out\n        /* \"#utility.yul\":9128:9282   */\n    tag_86:\n        /* \"#utility.yul\":9212:9218   */\n      dup3\n        /* \"#utility.yul\":9207:9210   */\n      dup2\n        /* \"#utility.yul\":9202:9205   */\n      dup4\n        /* \"#utility.yul\":9189:9219   */\n      calldatacopy\n        /* \"#utility.yul\":9274:9275   */\n      0x00\n        /* \"#utility.yul\":9265:9271   */\n      dup4\n        /* \"#utility.yul\":9260:9263   */\n      dup4\n        /* \"#utility.yul\":9256:9272   */\n      add\n        /* \"#utility.yul\":9249:9276   */\n      mstore\n        /* \"#utility.yul\":9128:9282   */\n      pop\n      pop\n      pop\n      jump\t// out\n        /* \"#utility.yul\":9288:9569   */\n    tag_182:\n        /* \"#utility.yul\":9371:9398   */\n      tag_202\n        /* \"#utility.yul\":9393:9397   */\n      dup3\n        /* \"#utility.yul\":9371:9398   */\n      tag_189\n      jump\t// in\n    tag_202:\n        /* \"#utility.yul\":9363:9369   */\n      dup2\n        /* \"#utility.yul\":9359:9399   */\n      add\n        /* \"#utility.yul\":9501:9507   */\n      dup2\n        /* \"#utility.yul\":9489:9499   */\n      dup2\n        /* \"#utility.yul\":9486:9508   */\n      lt\n        /* \"#utility.yul\":9465:9483   */\n      0xffffffffffffffff\n        /* \"#utility.yul\":9453:9463   */\n      dup3\n        /* \"#utility.yul\":9450:9484   */\n      gt\n        /* \"#utility.yul\":9447:9509   */\n      or\n        /* \"#utility.yul\":9444:9532   */\n      iszero\n      tag_203\n      jumpi\n        /* \"#utility.yul\":9512:9530   */\n      tag_204\n      tag_187\n      jump\t// in\n    tag_204:\n        /* \"#utility.yul\":9444:9532   */\n    tag_203:\n        /* \"#utility.yul\":9552:9562   */\n      dup1\n        /* \"#utility.yul\":9548:9550   */\n      0x40\n        /* \"#utility.yul\":9541:9563   */\n      mstore\n        /* \"#utility.yul\":9331:9569   */\n      pop\n        /* \"#utility.yul\":9288:9569   */\n      pop\n      pop\n      jump\t// out\n        /* \"#utility.yul\":9575:9755   */\n    tag_197:\n        /* \"#utility.yul\":9623:9700   */\n      0x4e487b7100000000000000000000000000000000000000000000000000000000\n        /* \"#utility.yul\":9620:9621   */\n      0x00\n        /* \"#utility.yul\":9613:9701   */\n      mstore\n        /* \"#utility.yul\":9720:9724   */\n      0x11\n        /* \"#utility.yul\":9717:9718   */\n      0x04\n        /* \"#utility.yul\":9710:9725   */\n      mstore\n        /* \"#utility.yul\":9744:9748   */\n      0x24\n        /* \"#utility.yul\":9741:9742   */\n      0x00\n        /* \"#utility.yul\":9734:9749   */\n      revert\n        /* \"#utility.yul\":9761:9941   */\n    tag_187:\n        /* \"#utility.yul\":9809:9886   */\n      0x4e487b7100000000000000000000000000000000000000000000000000000000\n        /* \"#utility.yul\":9806:9807   */\n      0x00\n        /* \"#utility.yul\":9799:9887   */\n      mstore\n        /* \"#utility.yul\":9906:9910   */\n      0x41\n        /* \"#utility.yul\":9903:9904   */\n      0x04\n        /* \"#utility.yul\":9896:9911   */\n      mstore\n        /* \"#utility.yul\":9930:9934   */\n      0x24\n        /* \"#utility.yul\":9927:9928   */\n      0x00\n        /* \"#utility.yul\":9920:9935   */\n      revert\n        /* \"#utility.yul\":9947:10064   */\n    tag_91:\n        /* \"#utility.yul\":10056:10057   */\n      0x00\n        /* \"#utility.yul\":10053:10054   */\n      dup1\n        /* \"#utility.yul\":10046:10058   */\n      revert\n        /* \"#utility.yul\":10070:10187   */\n    tag_174:\n        /* \"#utility.yul\":10179:10180   */\n      0x00\n        /* \"#utility.yul\":10176:10177   */\n      dup1\n        /* \"#utility.yul\":10169:10181   */\n      revert\n        /* \"#utility.yul\":10193:10310   */\n    tag_97:\n        /* \"#utility.yul\":10302:10303   */\n      0x00\n        /* \"#utility.yul\":10299:10300   */\n      dup1\n        /* \"#utility.yul\":10292:10304   */\n      revert\n        /* \"#utility.yul\":10316:10433   */\n    tag_171:\n        /* \"#utility.yul\":10425:10426   */\n      0x00\n        /* \"#utility.yul\":10422:10423   */\n      dup1\n        /* \"#utility.yul\":10415:10427   */\n      revert\n        /* \"#utility.yul\":10439:10556   */\n    tag_177:\n        /* \"#utility.yul\":10548:10549   */\n      0x00\n        /* \"#utility.yul\":10545:10546   */\n      dup1\n        /* \"#utility.yul\":10538:10550   */\n      revert\n        /* \"#utility.yul\":10562:10679   */\n    tag_84:\n        /* \"#utility.yul\":10671:10672   */\n      0x00\n        /* \"#utility.yul\":10668:10669   */\n      dup1\n        /* \"#utility.yul\":10661:10673   */\n      revert\n        /* \"#utility.yul\":10685:10802   */\n    tag_108:\n        /* \"#utility.yul\":10794:10795   */\n      0x00\n        /* \"#utility.yul\":10791:10792   */\n      dup1\n        /* \"#utility.yul\":10784:10796   */\n      revert\n        /* \"#utility.yul\":10808:10925   */\n    tag_105:\n        /* \"#utility.yul\":10917:10918   */\n      0x00\n        /* \"#utility.yul\":10914:10915   */\n      dup1\n        /* \"#utility.yul\":10907:10919   */\n      revert\n        /* \"#utility.yul\":10931:11033   */\n    tag_189:\n        /* \"#utility.yul\":10972:10978   */\n      0x00\n        /* \"#utility.yul\":11023:11025   */\n      0x1f\n        /* \"#utility.yul\":11019:11026   */\n      not\n        /* \"#utility.yul\":11014:11016   */\n      0x1f\n        /* \"#utility.yul\":11007:11012   */\n      dup4\n        /* \"#utility.yul\":11003:11017   */\n      add\n        /* \"#utility.yul\":10999:11027   */\n      and\n        /* \"#utility.yul\":10989:11027   */\n      swap1\n      pop\n        /* \"#utility.yul\":10931:11033   */\n      swap2\n      swap1\n      pop\n      jump\t// out\n        /* \"#utility.yul\":11039:11208   */\n    tag_134:\n        /* \"#utility.yul\":11179:11200   */\n      0x456c656374696f6e2068617320656e6465642100000000000000000000000000\n        /* \"#utility.yul\":11175:11176   */\n      0x00\n        /* \"#utility.yul\":11167:11173   */\n      dup3\n        /* \"#utility.yul\":11163:11177   */\n      add\n        /* \"#utility.yul\":11156:11201   */\n      mstore\n        /* \"#utility.yul\":11039:11208   */\n      pop\n      jump\t// out\n        /* \"#utility.yul\":11214:11385   */\n    tag_139:\n        /* \"#utility.yul\":11354:11377   */\n      0x54686572652063616e6e6f742062652061207469650000000000000000000000\n        /* \"#utility.yul\":11350:11351   */\n      0x00\n        /* \"#utility.yul\":11342:11348   */\n      dup3\n        /* \"#utility.yul\":11338:11352   */\n      add\n        /* \"#utility.yul\":11331:11378   */\n      mstore\n        /* \"#utility.yul\":11214:11385   */\n      pop\n      jump\t// out\n        /* \"#utility.yul\":11391:11618   */\n    tag_144:\n        /* \"#utility.yul\":11531:11565   */\n      0x546869732073746174652068617320616c7265616479207375626d6974656420\n        /* \"#utility.yul\":11527:11528   */\n      0x00\n        /* \"#utility.yul\":11519:11525   */\n      dup3\n        /* \"#utility.yul\":11515:11529   */\n      add\n        /* \"#utility.yul\":11508:11566   */\n      mstore\n        /* \"#utility.yul\":11600:11610   */\n      0x726573756c747321000000000000000000000000000000000000000000000000\n        /* \"#utility.yul\":11595:11597   */\n      0x20\n        /* \"#utility.yul\":11587:11593   */\n      dup3\n        /* \"#utility.yul\":11583:11598   */\n      add\n        /* \"#utility.yul\":11576:11611   */\n      mstore\n        /* \"#utility.yul\":11391:11618   */\n      pop\n      jump\t// out\n        /* \"#utility.yul\":11624:11802   */\n    tag_149:\n        /* \"#utility.yul\":11764:11794   */\n      0x53746174652073656574732063616e6e6f7420626520656d7074792100000000\n        /* \"#utility.yul\":11760:11761   */\n      0x00\n        /* \"#utility.yul\":11752:11758   */\n      dup3\n        /* \"#utility.yul\":11748:11762   */\n      add\n        /* \"#utility.yul\":11741:11795   */\n      mstore\n        /* \"#utility.yul\":11624:11802   */\n      pop\n      jump\t// out\n        /* \"#utility.yul\":11808:11926   */\n    tag_101:\n        /* \"#utility.yul\":11879:11901   */\n      tag_221\n        /* \"#utility.yul\":11895:11900   */\n      dup2\n        /* \"#utility.yul\":11879:11901   */\n      tag_153\n      jump\t// in\n    tag_221:\n        /* \"#utility.yul\":11872:11877   */\n      dup2\n        /* \"#utility.yul\":11869:11902   */\n      eq\n        /* \"#utility.yul\":11859:11920   */\n      tag_222\n      jumpi\n        /* \"#utility.yul\":11916:11917   */\n      0x00\n        /* \"#utility.yul\":11913:11914   */\n      dup1\n        /* \"#utility.yul\":11906:11918   */\n      revert\n        /* \"#utility.yul\":11859:11920   */\n    tag_222:\n        /* \"#utility.yul\":11808:11926   */\n      pop\n      jump\t// out\n\n    auxdata: 0xa26469706673582212201b12b885e2df13f9d1b6d08c4bbd835ff8cce91e0be249e8df0b5df33bfd583f64736f6c63430008070033\n}\n",
				"bytecode": {
					"linkReferences": {},
					"object": "608060405234801561001057600080fd5b50610b24806100206000396000f3fe608060405234801561001057600080fd5b50600436106100885760003560e01c8063713d87c51161005b578063713d87c514610103578063ac4bd53a14610133578063c94ca9e314610151578063e494a8831461016f57610088565b80632d6742161461008d5780632d78d8e5146100bd57806359f78468146100db57806369b36bd4146100e5575b600080fd5b6100a760048036038101906100a291906105b4565b61018b565b6040516100b4919061075b565b60405180910390f35b6100c56101c1565b6040516100d291906107f6565b60405180910390f35b6100e36101c6565b005b6100ed610230565b6040516100fa91906107f6565b60405180910390f35b61011d60048036038101906101189190610646565b610235565b60405161012a91906107f6565b60405180910390f35b61013b610255565b60405161014891906107f6565b60405180910390f35b6101596102cc565b604051610166919061075b565b60405180910390f35b610189600480360381019061018491906105fd565b6102dd565b005b6002818051602081018201805184825260208301602085012081835280955050505050506000915054906101000a900460ff1681565b600281565b60008054906101000a900460ff1615610214576040517f08c379a000000000000000000000000000000000000000000000000000000000815260040161020b90610776565b60405180910390fd5b60016000806101000a81548160ff021916908315150217905550565b600181565b60016020528060005260406000206000915054906101000a900460ff1681565b60008060016000600160ff1660ff16815260200190815260200160002060009054906101000a900460ff1660ff169050600060016000600260ff1660ff16815260200190815260200160002060009054906101000a900460ff1660ff1690508082116102c25760026102c5565b60015b9250505090565b60008054906101000a900460ff1681565b60008054906101000a900460ff161561032b576040517f08c379a000000000000000000000000000000000000000000000000000000000815260040161032290610776565b60405180910390fd5b60008160600160208101906103409190610646565b60ff1611610383576040517f08c379a000000000000000000000000000000000000000000000000000000000815260040161037a906107d6565b60405180910390fd5b60028180600001906103959190610811565b6040516103a3929190610742565b908152602001604051809103902060009054906101000a900460ff166103fe576040517f08c379a00000000000000000000000000000000000000000000000000000000081526004016103f5906107b6565b60405180910390fd5b806040013581602001351415610449576040517f08c379a000000000000000000000000000000000000000000000000000000000815260040161044090610796565b60405180910390fd5b6001600282806000019061045d9190610811565b60405161046b929190610742565b908152602001604051809103902060006101000a81548160ff021916908315150217905550600081602001358260400135116104a85760016104ab565b60025b90508160600160208101906104c09190610646565b600160008360ff1660ff16815260200190815260200160002060008282829054906101000a900460ff166104f491906108e6565b92506101000a81548160ff021916908360ff1602179055505050565b600061052361051e84610899565b610874565b90508281526020810184848401111561053f5761053e6109ed565b5b61054a848285610936565b509392505050565b600082601f830112610567576105666109d4565b5b8135610577848260208601610510565b91505092915050565b600060808284031215610596576105956109de565b5b81905092915050565b6000813590506105ae81610ad7565b92915050565b6000602082840312156105ca576105c96109f7565b5b600082013567ffffffffffffffff8111156105e8576105e76109f2565b5b6105f484828501610552565b91505092915050565b600060208284031215610613576106126109f7565b5b600082013567ffffffffffffffff811115610631576106306109f2565b5b61063d84828501610580565b91505092915050565b60006020828403121561065c5761065b6109f7565b5b600061066a8482850161059f565b91505092915050565b61067c8161091d565b82525050565b600061068e83856108db565b935061069b838584610936565b82840190509392505050565b60006106b46013836108ca565b91506106bf82610a0d565b602082019050919050565b60006106d76015836108ca565b91506106e282610a36565b602082019050919050565b60006106fa6028836108ca565b915061070582610a5f565b604082019050919050565b600061071d601c836108ca565b915061072882610aae565b602082019050919050565b61073c81610929565b82525050565b600061074f828486610682565b91508190509392505050565b60006020820190506107706000830184610673565b92915050565b6000602082019050818103600083015261078f816106a7565b9050919050565b600060208201905081810360008301526107af816106ca565b9050919050565b600060208201905081810360008301526107cf816106ed565b9050919050565b600060208201905081810360008301526107ef81610710565b9050919050565b600060208201905061080b6000830184610733565b92915050565b6000808335600160200384360303811261082e5761082d6109e3565b5b80840192508235915067ffffffffffffffff8211156108505761084f6109d9565b5b60208301925060018202360383131561086c5761086b6109e8565b5b509250929050565b600061087e61088f565b905061088a8282610945565b919050565b6000604051905090565b600067ffffffffffffffff8211156108b4576108b36109a5565b5b6108bd826109fc565b9050602081019050919050565b600082825260208201905092915050565b600081905092915050565b60006108f182610929565b91506108fc83610929565b92508260ff0382111561091257610911610976565b5b828201905092915050565b60008115159050919050565b600060ff82169050919050565b82818337600083830152505050565b61094e826109fc565b810181811067ffffffffffffffff8211171561096d5761096c6109a5565b5b80604052505050565b7f4e487b7100000000000000000000000000000000000000000000000000000000600052601160045260246000fd5b7f4e487b7100000000000000000000000000000000000000000000000000000000600052604160045260246000fd5b600080fd5b600080fd5b600080fd5b600080fd5b600080fd5b600080fd5b600080fd5b600080fd5b6000601f19601f8301169050919050565b7f456c656374696f6e2068617320656e6465642100000000000000000000000000600082015250565b7f54686572652063616e6e6f742062652061207469650000000000000000000000600082015250565b7f546869732073746174652068617320616c7265616479207375626d697465642060008201527f726573756c747321000000000000000000000000000000000000000000000000602082015250565b7f53746174652073656574732063616e6e6f7420626520656d7074792100000000600082015250565b610ae081610929565b8114610aeb57600080fd5b5056fea26469706673582212201b12b885e2df13f9d1b6d08c4bbd835ff8cce91e0be249e8df0b5df33bfd583f64736f6c63430008070033",
					"opcodes": "PUSH1 0x80 PUSH1 0x40 MSTORE CALLVALUE DUP1 ISZERO PUSH2 0x10 JUMPI PUSH1 0x0 DUP1 REVERT JUMPDEST POP PUSH2 0xB24 DUP1 PUSH2 0x20 PUSH1 0x0 CODECOPY PUSH1 0x0 RETURN INVALID PUSH1 0x80 PUSH1 0x40 MSTORE CALLVALUE DUP1 ISZERO PUSH2 0x10 JUMPI PUSH1 0x0 DUP1 REVERT JUMPDEST POP PUSH1 0x4 CALLDATASIZE LT PUSH2 0x88 JUMPI PUSH1 0x0 CALLDATALOAD PUSH1 0xE0 SHR DUP1 PUSH4 0x713D87C5 GT PUSH2 0x5B JUMPI DUP1 PUSH4 0x713D87C5 EQ PUSH2 0x103 JUMPI DUP1 PUSH4 0xAC4BD53A EQ PUSH2 0x133 JUMPI DUP1 PUSH4 0xC94CA9E3 EQ PUSH2 0x151 JUMPI DUP1 PUSH4 0xE494A883 EQ PUSH2 0x16F JUMPI PUSH2 0x88 JUMP JUMPDEST DUP1 PUSH4 0x2D674216 EQ PUSH2 0x8D JUMPI DUP1 PUSH4 0x2D78D8E5 EQ PUSH2 0xBD JUMPI DUP1 PUSH4 0x59F78468 EQ PUSH2 0xDB JUMPI DUP1 PUSH4 0x69B36BD4 EQ PUSH2 0xE5 JUMPI JUMPDEST PUSH1 0x0 DUP1 REVERT JUMPDEST PUSH2 0xA7 PUSH1 0x4 DUP1 CALLDATASIZE SUB DUP2 ADD SWAP1 PUSH2 0xA2 SWAP2 SWAP1 PUSH2 0x5B4 JUMP JUMPDEST PUSH2 0x18B JUMP JUMPDEST PUSH1 0x40 MLOAD PUSH2 0xB4 SWAP2 SWAP1 PUSH2 0x75B JUMP JUMPDEST PUSH1 0x40 MLOAD DUP1 SWAP2 SUB SWAP1 RETURN JUMPDEST PUSH2 0xC5 PUSH2 0x1C1 JUMP JUMPDEST PUSH1 0x40 MLOAD PUSH2 0xD2 SWAP2 SWAP1 PUSH2 0x7F6 JUMP JUMPDEST PUSH1 0x40 MLOAD DUP1 SWAP2 SUB SWAP1 RETURN JUMPDEST PUSH2 0xE3 PUSH2 0x1C6 JUMP JUMPDEST STOP JUMPDEST PUSH2 0xED PUSH2 0x230 JUMP JUMPDEST PUSH1 0x40 MLOAD PUSH2 0xFA SWAP2 SWAP1 PUSH2 0x7F6 JUMP JUMPDEST PUSH1 0x40 MLOAD DUP1 SWAP2 SUB SWAP1 RETURN JUMPDEST PUSH2 0x11D PUSH1 0x4 DUP1 CALLDATASIZE SUB DUP2 ADD SWAP1 PUSH2 0x118 SWAP2 SWAP1 PUSH2 0x646 JUMP JUMPDEST PUSH2 0x235 JUMP JUMPDEST PUSH1 0x40 MLOAD PUSH2 0x12A SWAP2 SWAP1 PUSH2 0x7F6 JUMP JUMPDEST PUSH1 0x40 MLOAD DUP1 SWAP2 SUB SWAP1 RETURN JUMPDEST PUSH2 0x13B PUSH2 0x255 JUMP JUMPDEST PUSH1 0x40 MLOAD PUSH2 0x148 SWAP2 SWAP1 PUSH2 0x7F6 JUMP JUMPDEST PUSH1 0x40 MLOAD DUP1 SWAP2 SUB SWAP1 RETURN JUMPDEST PUSH2 0x159 PUSH2 0x2CC JUMP JUMPDEST PUSH1 0x40 MLOAD PUSH2 0x166 SWAP2 SWAP1 PUSH2 0x75B JUMP JUMPDEST PUSH1 0x40 MLOAD DUP1 SWAP2 SUB SWAP1 RETURN JUMPDEST PUSH2 0x189 PUSH1 0x4 DUP1 CALLDATASIZE SUB DUP2 ADD SWAP1 PUSH2 0x184 SWAP2 SWAP1 PUSH2 0x5FD JUMP JUMPDEST PUSH2 0x2DD JUMP JUMPDEST STOP JUMPDEST PUSH1 0x2 DUP2 DUP1 MLOAD PUSH1 0x20 DUP2 ADD DUP3 ADD DUP1 MLOAD DUP5 DUP3 MSTORE PUSH1 0x20 DUP4 ADD PUSH1 0x20 DUP6 ADD KECCAK256 DUP2 DUP4 MSTORE DUP1 SWAP6 POP POP POP POP POP POP PUSH1 0x0 SWAP2 POP SLOAD SWAP1 PUSH2 0x100 EXP SWAP1 DIV PUSH1 0xFF AND DUP2 JUMP JUMPDEST PUSH1 0x2 DUP2 JUMP JUMPDEST PUSH1 0x0 DUP1 SLOAD SWAP1 PUSH2 0x100 EXP SWAP1 DIV PUSH1 0xFF AND ISZERO PUSH2 0x214 JUMPI PUSH1 0x40 MLOAD PUSH32 0x8C379A000000000000000000000000000000000000000000000000000000000 DUP2 MSTORE PUSH1 0x4 ADD PUSH2 0x20B SWAP1 PUSH2 0x776 JUMP JUMPDEST PUSH1 0x40 MLOAD DUP1 SWAP2 SUB SWAP1 REVERT JUMPDEST PUSH1 0x1 PUSH1 0x0 DUP1 PUSH2 0x100 EXP DUP2 SLOAD DUP2 PUSH1 0xFF MUL NOT AND SWAP1 DUP4 ISZERO ISZERO MUL OR SWAP1 SSTORE POP JUMP JUMPDEST PUSH1 0x1 DUP2 JUMP JUMPDEST PUSH1 0x1 PUSH1 0x20 MSTORE DUP1 PUSH1 0x0 MSTORE PUSH1 0x40 PUSH1 0x0 KECCAK256 PUSH1 0x0 SWAP2 POP SLOAD SWAP1 PUSH2 0x100 EXP SWAP1 DIV PUSH1 0xFF AND DUP2 JUMP JUMPDEST PUSH1 0x0 DUP1 PUSH1 0x1 PUSH1 0x0 PUSH1 0x1 PUSH1 0xFF AND PUSH1 0xFF AND DUP2 MSTORE PUSH1 0x20 ADD SWAP1 DUP2 MSTORE PUSH1 0x20 ADD PUSH1 0x0 KECCAK256 PUSH1 0x0 SWAP1 SLOAD SWAP1 PUSH2 0x100 EXP SWAP1 DIV PUSH1 0xFF AND PUSH1 0xFF AND SWAP1 POP PUSH1 0x0 PUSH1 0x1 PUSH1 0x0 PUSH1 0x2 PUSH1 0xFF AND PUSH1 0xFF AND DUP2 MSTORE PUSH1 0x20 ADD SWAP1 DUP2 MSTORE PUSH1 0x20 ADD PUSH1 0x0 KECCAK256 PUSH1 0x0 SWAP1 SLOAD SWAP1 PUSH2 0x100 EXP SWAP1 DIV PUSH1 0xFF AND PUSH1 0xFF AND SWAP1 POP DUP1 DUP3 GT PUSH2 0x2C2 JUMPI PUSH1 0x2 PUSH2 0x2C5 JUMP JUMPDEST PUSH1 0x1 JUMPDEST SWAP3 POP POP POP SWAP1 JUMP JUMPDEST PUSH1 0x0 DUP1 SLOAD SWAP1 PUSH2 0x100 EXP SWAP1 DIV PUSH1 0xFF AND DUP2 JUMP JUMPDEST PUSH1 0x0 DUP1 SLOAD SWAP1 PUSH2 0x100 EXP SWAP1 DIV PUSH1 0xFF AND ISZERO PUSH2 0x32B JUMPI PUSH1 0x40 MLOAD PUSH32 0x8C379A000000000000000000000000000000000000000000000000000000000 DUP2 MSTORE PUSH1 0x4 ADD PUSH2 0x322 SWAP1 PUSH2 0x776 JUMP JUMPDEST PUSH1 0x40 MLOAD DUP1 SWAP2 SUB SWAP1 REVERT JUMPDEST PUSH1 0x0 DUP2 PUSH1 0x60 ADD PUSH1 0x20 DUP2 ADD SWAP1 PUSH2 0x340 SWAP2 SWAP1 PUSH2 0x646 JUMP JUMPDEST PUSH1 0xFF AND GT PUSH2 0x383 JUMPI PUSH1 0x40 MLOAD PUSH32 0x8C379A000000000000000000000000000000000000000000000000000000000 DUP2 MSTORE PUSH1 0x4 ADD PUSH2 0x37A SWAP1 PUSH2 0x7D6 JUMP JUMPDEST PUSH1 0x40 MLOAD DUP1 SWAP2 SUB SWAP1 REVERT JUMPDEST PUSH1 0x2 DUP2 DUP1 PUSH1 0x0 ADD SWAP1 PUSH2 0x395 SWAP2 SWAP1 PUSH2 0x811 JUMP JUMPDEST PUSH1 0x40 MLOAD PUSH2 0x3A3 SWAP3 SWAP2 SWAP1 PUSH2 0x742 JUMP JUMPDEST SWAP1 DUP2 MSTORE PUSH1 0x20 ADD PUSH1 0x40 MLOAD DUP1 SWAP2 SUB SWAP1 KECCAK256 PUSH1 0x0 SWAP1 SLOAD SWAP1 PUSH2 0x100 EXP SWAP1 DIV PUSH1 0xFF AND PUSH2 0x3FE JUMPI PUSH1 0x40 MLOAD PUSH32 0x8C379A000000000000000000000000000000000000000000000000000000000 DUP2 MSTORE PUSH1 0x4 ADD PUSH2 0x3F5 SWAP1 PUSH2 0x7B6 JUMP JUMPDEST PUSH1 0x40 MLOAD DUP1 SWAP2 SUB SWAP1 REVERT JUMPDEST DUP1 PUSH1 0x40 ADD CALLDATALOAD DUP2 PUSH1 0x20 ADD CALLDATALOAD EQ ISZERO PUSH2 0x449 JUMPI PUSH1 0x40 MLOAD PUSH32 0x8C379A000000000000000000000000000000000000000000000000000000000 DUP2 MSTORE PUSH1 0x4 ADD PUSH2 0x440 SWAP1 PUSH2 0x796 JUMP JUMPDEST PUSH1 0x40 MLOAD DUP1 SWAP2 SUB SWAP1 REVERT JUMPDEST PUSH1 0x1 PUSH1 0x2 DUP3 DUP1 PUSH1 0x0 ADD SWAP1 PUSH2 0x45D SWAP2 SWAP1 PUSH2 0x811 JUMP JUMPDEST PUSH1 0x40 MLOAD PUSH2 0x46B SWAP3 SWAP2 SWAP1 PUSH2 0x742 JUMP JUMPDEST SWAP1 DUP2 MSTORE PUSH1 0x20 ADD PUSH1 0x40 MLOAD DUP1 SWAP2 SUB SWAP1 KECCAK256 PUSH1 0x0 PUSH2 0x100 EXP DUP2 SLOAD DUP2 PUSH1 0xFF MUL NOT AND SWAP1 DUP4 ISZERO ISZERO MUL OR SWAP1 SSTORE POP PUSH1 0x0 DUP2 PUSH1 0x20 ADD CALLDATALOAD DUP3 PUSH1 0x40 ADD CALLDATALOAD GT PUSH2 0x4A8 JUMPI PUSH1 0x1 PUSH2 0x4AB JUMP JUMPDEST PUSH1 0x2 JUMPDEST SWAP1 POP DUP2 PUSH1 0x60 ADD PUSH1 0x20 DUP2 ADD SWAP1 PUSH2 0x4C0 SWAP2 SWAP1 PUSH2 0x646 JUMP JUMPDEST PUSH1 0x1 PUSH1 0x0 DUP4 PUSH1 0xFF AND PUSH1 0xFF AND DUP2 MSTORE PUSH1 0x20 ADD SWAP1 DUP2 MSTORE PUSH1 0x20 ADD PUSH1 0x0 KECCAK256 PUSH1 0x0 DUP3 DUP3 DUP3 SWAP1 SLOAD SWAP1 PUSH2 0x100 EXP SWAP1 DIV PUSH1 0xFF AND PUSH2 0x4F4 SWAP2 SWAP1 PUSH2 0x8E6 JUMP JUMPDEST SWAP3 POP PUSH2 0x100 EXP DUP2 SLOAD DUP2 PUSH1 0xFF MUL NOT AND SWAP1 DUP4 PUSH1 0xFF AND MUL OR SWAP1 SSTORE POP POP POP JUMP JUMPDEST PUSH1 0x0 PUSH2 0x523 PUSH2 0x51E DUP5 PUSH2 0x899 JUMP JUMPDEST PUSH2 0x874 JUMP JUMPDEST SWAP1 POP DUP3 DUP2 MSTORE PUSH1 0x20 DUP2 ADD DUP5 DUP5 DUP5 ADD GT ISZERO PUSH2 0x53F JUMPI PUSH2 0x53E PUSH2 0x9ED JUMP JUMPDEST JUMPDEST PUSH2 0x54A DUP5 DUP3 DUP6 PUSH2 0x936 JUMP JUMPDEST POP SWAP4 SWAP3 POP POP POP JUMP JUMPDEST PUSH1 0x0 DUP3 PUSH1 0x1F DUP4 ADD SLT PUSH2 0x567 JUMPI PUSH2 0x566 PUSH2 0x9D4 JUMP JUMPDEST JUMPDEST DUP2 CALLDATALOAD PUSH2 0x577 DUP5 DUP3 PUSH1 0x20 DUP7 ADD PUSH2 0x510 JUMP JUMPDEST SWAP2 POP POP SWAP3 SWAP2 POP POP JUMP JUMPDEST PUSH1 0x0 PUSH1 0x80 DUP3 DUP5 SUB SLT ISZERO PUSH2 0x596 JUMPI PUSH2 0x595 PUSH2 0x9DE JUMP JUMPDEST JUMPDEST DUP2 SWAP1 POP SWAP3 SWAP2 POP POP JUMP JUMPDEST PUSH1 0x0 DUP2 CALLDATALOAD SWAP1 POP PUSH2 0x5AE DUP2 PUSH2 0xAD7 JUMP JUMPDEST SWAP3 SWAP2 POP POP JUMP JUMPDEST PUSH1 0x0 PUSH1 0x20 DUP3 DUP5 SUB SLT ISZERO PUSH2 0x5CA JUMPI PUSH2 0x5C9 PUSH2 0x9F7 JUMP JUMPDEST JUMPDEST PUSH1 0x0 DUP3 ADD CALLDATALOAD PUSH8 0xFFFFFFFFFFFFFFFF DUP2 GT ISZERO PUSH2 0x5E8 JUMPI PUSH2 0x5E7 PUSH2 0x9F2 JUMP JUMPDEST JUMPDEST PUSH2 0x5F4 DUP5 DUP3 DUP6 ADD PUSH2 0x552 JUMP JUMPDEST SWAP2 POP POP SWAP3 SWAP2 POP POP JUMP JUMPDEST PUSH1 0x0 PUSH1 0x20 DUP3 DUP5 SUB SLT ISZERO PUSH2 0x613 JUMPI PUSH2 0x612 PUSH2 0x9F7 JUMP JUMPDEST JUMPDEST PUSH1 0x0 DUP3 ADD CALLDATALOAD PUSH8 0xFFFFFFFFFFFFFFFF DUP2 GT ISZERO PUSH2 0x631 JUMPI PUSH2 0x630 PUSH2 0x9F2 JUMP JUMPDEST JUMPDEST PUSH2 0x63D DUP5 DUP3 DUP6 ADD PUSH2 0x580 JUMP JUMPDEST SWAP2 POP POP SWAP3 SWAP2 POP POP JUMP JUMPDEST PUSH1 0x0 PUSH1 0x20 DUP3 DUP5 SUB SLT ISZERO PUSH2 0x65C JUMPI PUSH2 0x65B PUSH2 0x9F7 JUMP JUMPDEST JUMPDEST PUSH1 0x0 PUSH2 0x66A DUP5 DUP3 DUP6 ADD PUSH2 0x59F JUMP JUMPDEST SWAP2 POP POP SWAP3 SWAP2 POP POP JUMP JUMPDEST PUSH2 0x67C DUP2 PUSH2 0x91D JUMP JUMPDEST DUP3 MSTORE POP POP JUMP JUMPDEST PUSH1 0x0 PUSH2 0x68E DUP4 DUP6 PUSH2 0x8DB JUMP JUMPDEST SWAP4 POP PUSH2 0x69B DUP4 DUP6 DUP5 PUSH2 0x936 JUMP JUMPDEST DUP3 DUP5 ADD SWAP1 POP SWAP4 SWAP3 POP POP POP JUMP JUMPDEST PUSH1 0x0 PUSH2 0x6B4 PUSH1 0x13 DUP4 PUSH2 0x8CA JUMP JUMPDEST SWAP2 POP PUSH2 0x6BF DUP3 PUSH2 0xA0D JUMP JUMPDEST PUSH1 0x20 DUP3 ADD SWAP1 POP SWAP2 SWAP1 POP JUMP JUMPDEST PUSH1 0x0 PUSH2 0x6D7 PUSH1 0x15 DUP4 PUSH2 0x8CA JUMP JUMPDEST SWAP2 POP PUSH2 0x6E2 DUP3 PUSH2 0xA36 JUMP JUMPDEST PUSH1 0x20 DUP3 ADD SWAP1 POP SWAP2 SWAP1 POP JUMP JUMPDEST PUSH1 0x0 PUSH2 0x6FA PUSH1 0x28 DUP4 PUSH2 0x8CA JUMP JUMPDEST SWAP2 POP PUSH2 0x705 DUP3 PUSH2 0xA5F JUMP JUMPDEST PUSH1 0x40 DUP3 ADD SWAP1 POP SWAP2 SWAP1 POP JUMP JUMPDEST PUSH1 0x0 PUSH2 0x71D PUSH1 0x1C DUP4 PUSH2 0x8CA JUMP JUMPDEST SWAP2 POP PUSH2 0x728 DUP3 PUSH2 0xAAE JUMP JUMPDEST PUSH1 0x20 DUP3 ADD SWAP1 POP SWAP2 SWAP1 POP JUMP JUMPDEST PUSH2 0x73C DUP2 PUSH2 0x929 JUMP JUMPDEST DUP3 MSTORE POP POP JUMP JUMPDEST PUSH1 0x0 PUSH2 0x74F DUP3 DUP5 DUP7 PUSH2 0x682 JUMP JUMPDEST SWAP2 POP DUP2 SWAP1 POP SWAP4 SWAP3 POP POP POP JUMP JUMPDEST PUSH1 0x0 PUSH1 0x20 DUP3 ADD SWAP1 POP PUSH2 0x770 PUSH1 0x0 DUP4 ADD DUP5 PUSH2 0x673 JUMP JUMPDEST SWAP3 SWAP2 POP POP JUMP JUMPDEST PUSH1 0x0 PUSH1 0x20 DUP3 ADD SWAP1 POP DUP2 DUP2 SUB PUSH1 0x0 DUP4 ADD MSTORE PUSH2 0x78F DUP2 PUSH2 0x6A7 JUMP JUMPDEST SWAP1 POP SWAP2 SWAP1 POP JUMP JUMPDEST PUSH1 0x0 PUSH1 0x20 DUP3 ADD SWAP1 POP DUP2 DUP2 SUB PUSH1 0x0 DUP4 ADD MSTORE PUSH2 0x7AF DUP2 PUSH2 0x6CA JUMP JUMPDEST SWAP1 POP SWAP2 SWAP1 POP JUMP JUMPDEST PUSH1 0x0 PUSH1 0x20 DUP3 ADD SWAP1 POP DUP2 DUP2 SUB PUSH1 0x0 DUP4 ADD MSTORE PUSH2 0x7CF DUP2 PUSH2 0x6ED JUMP JUMPDEST SWAP1 POP SWAP2 SWAP1 POP JUMP JUMPDEST PUSH1 0x0 PUSH1 0x20 DUP3 ADD SWAP1 POP DUP2 DUP2 SUB PUSH1 0x0 DUP4 ADD MSTORE PUSH2 0x7EF DUP2 PUSH2 0x710 JUMP JUMPDEST SWAP1 POP SWAP2 SWAP1 POP JUMP JUMPDEST PUSH1 0x0 PUSH1 0x20 DUP3 ADD SWAP1 POP PUSH2 0x80B PUSH1 0x0 DUP4 ADD DUP5 PUSH2 0x733 JUMP JUMPDEST SWAP3 SWAP2 POP POP JUMP JUMPDEST PUSH1 0x0 DUP1 DUP4 CALLDATALOAD PUSH1 0x1 PUSH1 0x20 SUB DUP5 CALLDATASIZE SUB SUB DUP2 SLT PUSH2 0x82E JUMPI PUSH2 0x82D PUSH2 0x9E3 JUMP JUMPDEST JUMPDEST DUP1 DUP5 ADD SWAP3 POP DUP3 CALLDATALOAD SWAP2 POP PUSH8 0xFFFFFFFFFFFFFFFF DUP3 GT ISZERO PUSH2 0x850 JUMPI PUSH2 0x84F PUSH2 0x9D9 JUMP JUMPDEST JUMPDEST PUSH1 0x20 DUP4 ADD SWAP3 POP PUSH1 0x1 DUP3 MUL CALLDATASIZE SUB DUP4 SGT ISZERO PUSH2 0x86C JUMPI PUSH2 0x86B PUSH2 0x9E8 JUMP JUMPDEST JUMPDEST POP SWAP3 POP SWAP3 SWAP1 POP JUMP JUMPDEST PUSH1 0x0 PUSH2 0x87E PUSH2 0x88F JUMP JUMPDEST SWAP1 POP PUSH2 0x88A DUP3 DUP3 PUSH2 0x945 JUMP JUMPDEST SWAP2 SWAP1 POP JUMP JUMPDEST PUSH1 0x0 PUSH1 0x40 MLOAD SWAP1 POP SWAP1 JUMP JUMPDEST PUSH1 0x0 PUSH8 0xFFFFFFFFFFFFFFFF DUP3 GT ISZERO PUSH2 0x8B4 JUMPI PUSH2 0x8B3 PUSH2 0x9A5 JUMP JUMPDEST JUMPDEST PUSH2 0x8BD DUP3 PUSH2 0x9FC JUMP JUMPDEST SWAP1 POP PUSH1 0x20 DUP2 ADD SWAP1 POP SWAP2 SWAP1 POP JUMP JUMPDEST PUSH1 0x0 DUP3 DUP3 MSTORE PUSH1 0x20 DUP3 ADD SWAP1 POP SWAP3 SWAP2 POP POP JUMP JUMPDEST PUSH1 0x0 DUP2 SWAP1 POP SWAP3 SWAP2 POP POP JUMP JUMPDEST PUSH1 0x0 PUSH2 0x8F1 DUP3 PUSH2 0x929 JUMP JUMPDEST SWAP2 POP PUSH2 0x8FC DUP4 PUSH2 0x929 JUMP JUMPDEST SWAP3 POP DUP3 PUSH1 0xFF SUB DUP3 GT ISZERO PUSH2 0x912 JUMPI PUSH2 0x911 PUSH2 0x976 JUMP JUMPDEST JUMPDEST DUP3 DUP3 ADD SWAP1 POP SWAP3 SWAP2 POP POP JUMP JUMPDEST PUSH1 0x0 DUP2 ISZERO ISZERO SWAP1 POP SWAP2 SWAP1 POP JUMP JUMPDEST PUSH1 0x0 PUSH1 0xFF DUP3 AND SWAP1 POP SWAP2 SWAP1 POP JUMP JUMPDEST DUP3 DUP2 DUP4 CALLDATACOPY PUSH1 0x0 DUP4 DUP4 ADD MSTORE POP POP POP JUMP JUMPDEST PUSH2 0x94E DUP3 PUSH2 0x9FC JUMP JUMPDEST DUP2 ADD DUP2 DUP2 LT PUSH8 0xFFFFFFFFFFFFFFFF DUP3 GT OR ISZERO PUSH2 0x96D JUMPI PUSH2 0x96C PUSH2 0x9A5 JUMP JUMPDEST JUMPDEST DUP1 PUSH1 0x40 MSTORE POP POP POP JUMP JUMPDEST PUSH32 0x4E487B7100000000000000000000000000000000000000000000000000000000 PUSH1 0x0 MSTORE PUSH1 0x11 PUSH1 0x4 MSTORE PUSH1 0x24 PUSH1 0x0 REVERT JUMPDEST PUSH32 0x4E487B7100000000000000000000000000000000000000000000000000000000 PUSH1 0x0 MSTORE PUSH1 0x41 PUSH1 0x4 MSTORE PUSH1 0x24 PUSH1 0x0 REVERT JUMPDEST PUSH1 0x0 DUP1 REVERT JUMPDEST PUSH1 0x0 DUP1 REVERT JUMPDEST PUSH1 0x0 DUP1 REVERT JUMPDEST PUSH1 0x0 DUP1 REVERT JUMPDEST PUSH1 0x0 DUP1 REVERT JUMPDEST PUSH1 0x0 DUP1 REVERT JUMPDEST PUSH1 0x0 DUP1 REVERT JUMPDEST PUSH1 0x0 DUP1 REVERT JUMPDEST PUSH1 0x0 PUSH1 0x1F NOT PUSH1 0x1F DUP4 ADD AND SWAP1 POP SWAP2 SWAP1 POP JUMP JUMPDEST PUSH32 0x456C656374696F6E2068617320656E6465642100000000000000000000000000 PUSH1 0x0 DUP3 ADD MSTORE POP JUMP JUMPDEST PUSH32 0x54686572652063616E6E6F742062652061207469650000000000000000000000 PUSH1 0x0 DUP3 ADD MSTORE POP JUMP JUMPDEST PUSH32 0x546869732073746174652068617320616C7265616479207375626D6974656420 PUSH1 0x0 DUP3 ADD MSTORE PUSH32 0x726573756C747321000000000000000000000000000000000000000000000000 PUSH1 0x20 DUP3 ADD MSTORE POP JUMP JUMPDEST PUSH32 0x53746174652073656574732063616E6E6F7420626520656D7074792100000000 PUSH1 0x0 DUP3 ADD MSTORE POP JUMP JUMPDEST PUSH2 0xAE0 DUP2 PUSH2 0x929 JUMP JUMPDEST DUP2 EQ PUSH2 0xAEB JUMPI PUSH1 0x0 DUP1 REVERT JUMPDEST POP JUMP INVALID LOG2 PUSH5 0x6970667358 0x22 SLT KECCAK256 SHL SLT 0xB8 DUP6 0xE2 0xDF SGT 0xF9 0xD1 0xB6 0xD0 DUP13 0x4B 0xBD DUP4 0x5F 0xF8 0xCC 0xE9 0x1E SIGNEXTEND 0xE2 0x49 0xE8 0xDF SIGNEXTEND 0x5D RETURN EXTCODESIZE REVERT PC EXTCODEHASH PUSH5 0x736F6C6343 STOP ADDMOD SMOD STOP CALLER "
				},
				"gasEstimates": {
					"creation": {
						"codeDepositCost": "570400",
						"executionCost": "606",
						"totalCost": "571006"
					},
					"external": {
						"BIDEN()": "402",
						"TRUMP()": "358",
						"currentLeader()": "4889",
						"electionEnded()": "2512",
						"endElection()": "26609",
						"seats(uint8)": "infinite",
						"submitStateResult((string,uint256,uint256,uint8))": "infinite",
						"submitedStates(string)": "infinite"
					}
				},
				"methodIdentifiers": {
					"BIDEN()": "69b36bd4",
					"TRUMP()": "2d78d8e5",
					"currentLeader()": "ac4bd53a",
					"electionEnded()": "c94ca9e3",
					"endElection()": "59f78468",
					"seats(uint8)": "713d87c5",
					"submitStateResult((string,uint256,uint256,uint8))": "e494a883",
					"submitedStates(string)": "2d674216"
				}
			},
			"storageLayout": {
				"storage": [
					{
						"astId": 10,
						"contract": "contracts/USElection.sol:USElection",
						"label": "electionEnded",
						"offset": 0,
						"slot": "0",
						"type": "t_bool"
					},
					{
						"astId": 14,
						"contract": "contracts/USElection.sol:USElection",
						"label": "seats",
						"offset": 0,
						"slot": "1",
						"type": "t_mapping(t_uint8,t_uint8)"
					},
					{
						"astId": 18,
						"contract": "contracts/USElection.sol:USElection",
						"label": "submitedStates",
						"offset": 0,
						"slot": "2",
						"type": "t_mapping(t_string_memory_ptr,t_bool)"
					}
				],
				"types": {
					"t_bool": {
						"encoding": "inplace",
						"label": "bool",
						"numberOfBytes": "1"
					},
					"t_mapping(t_string_memory_ptr,t_bool)": {
						"encoding": "mapping",
						"key": "t_string_memory_ptr",
						"label": "mapping(string => bool)",
						"numberOfBytes": "32",
						"value": "t_bool"
					},
					"t_mapping(t_uint8,t_uint8)": {
						"encoding": "mapping",
						"key": "t_uint8",
						"label": "mapping(uint8 => uint8)",
						"numberOfBytes": "32",
						"value": "t_uint8"
					},
					"t_string_memory_ptr": {
						"encoding": "bytes",
						"label": "string",
						"numberOfBytes": "32"
					},
					"t_uint8": {
						"encoding": "inplace",
						"label": "uint8",
						"numberOfBytes": "1"
					}
				}
			},
			"userdoc": {
				"kind": "user",
				"methods": {},
				"version": 1
			}
		}
	}
}