{
	"contracts/Store.sol": {
		"Store": {
			"abi": [
				{
					"anonymous": false,
					"inputs": [
						{
							"indexed": false,
							"internalType": "string",
							"name": "",
							"type": "string"
						},
						{
							"indexed": false,
							"internalType": "uint256",
							"name": "",
							"type": "uint256"
						},
						{
							"indexed": false,
							"internalType": "uint256",
							"name": "",
							"type": "uint256"
						}
					],
					"name": "ProductAdded",
					"type": "event"
				},
				{
					"anonymous": false,
					"inputs": [
						{
							"indexed": false,
							"internalType": "address",
							"name": "",
							"type": "address"
						},
						{
							"indexed": false,
							"internalType": "uint256",
							"name": "",
							"type": "uint256"
						},
						{
							"indexed": false,
							"internalType": "uint256",
							"name": "",
							"type": "uint256"
						}
					],
					"name": "ProductBought",
					"type": "event"
				},
				{
					"anonymous": false,
					"inputs": [
						{
							"indexed": false,
							"internalType": "address",
							"name": "",
							"type": "address"
						},
						{
							"indexed": false,
							"internalType": "uint256",
							"name": "",
							"type": "uint256"
						}
					],
					"name": "ProductReturned",
					"type": "event"
				},
				{
					"anonymous": false,
					"inputs": [
						{
							"indexed": false,
							"internalType": "uint256",
							"name": "",
							"type": "uint256"
						},
						{
							"indexed": false,
							"internalType": "uint256",
							"name": "",
							"type": "uint256"
						}
					],
					"name": "ProductUpdated",
					"type": "event"
				},
				{
					"inputs": [
						{
							"internalType": "string",
							"name": "name",
							"type": "string"
						},
						{
							"internalType": "uint256",
							"name": "quantity",
							"type": "uint256"
						},
						{
							"internalType": "uint256",
							"name": "price",
							"type": "uint256"
						}
					],
					"name": "addNewProduct",
					"outputs": [],
					"stateMutability": "nonpayable",
					"type": "function"
				},
				{
					"inputs": [
						{
							"internalType": "string",
							"name": "",
							"type": "string"
						}
					],
					"name": "availableProductsNames",
					"outputs": [
						{
							"internalType": "bool",
							"name": "",
							"type": "bool"
						}
					],
					"stateMutability": "view",
					"type": "function"
				},
				{
					"inputs": [
						{
							"internalType": "uint256",
							"name": "id",
							"type": "uint256"
						},
						{
							"internalType": "uint256",
							"name": "quantity",
							"type": "uint256"
						}
					],
					"name": "buyProduct",
					"outputs": [],
					"stateMutability": "payable",
					"type": "function"
				},
				{
					"inputs": [
						{
							"internalType": "uint256",
							"name": "",
							"type": "uint256"
						},
						{
							"internalType": "uint256",
							"name": "",
							"type": "uint256"
						}
					],
					"name": "clientAddressesByProduct",
					"outputs": [
						{
							"internalType": "address",
							"name": "",
							"type": "address"
						}
					],
					"stateMutability": "view",
					"type": "function"
				},
				{
					"inputs": [
						{
							"internalType": "uint256",
							"name": "id",
							"type": "uint256"
						}
					],
					"name": "getClientsAdressesByBoughtProductId",
					"outputs": [
						{
							"internalType": "address[]",
							"name": "clientAddresses",
							"type": "address[]"
						}
					],
					"stateMutability": "nonpayable",
					"type": "function"
				},
				{
					"inputs": [],
					"name": "getProducts",
					"outputs": [
						{
							"components": [
								{
									"internalType": "uint256",
									"name": "id",
									"type": "uint256"
								},
								{
									"internalType": "string",
									"name": "name",
									"type": "string"
								},
								{
									"internalType": "uint256",
									"name": "quantity",
									"type": "uint256"
								},
								{
									"internalType": "uint256",
									"name": "price",
									"type": "uint256"
								}
							],
							"internalType": "struct Store.Product[]",
							"name": "",
							"type": "tuple[]"
						}
					],
					"stateMutability": "view",
					"type": "function"
				},
				{
					"inputs": [],
					"name": "owner",
					"outputs": [
						{
							"internalType": "address",
							"name": "",
							"type": "address"
						}
					],
					"stateMutability": "view",
					"type": "function"
				},
				{
					"inputs": [
						{
							"internalType": "uint256",
							"name": "",
							"type": "uint256"
						}
					],
					"name": "products",
					"outputs": [
						{
							"internalType": "uint256",
							"name": "id",
							"type": "uint256"
						},
						{
							"internalType": "string",
							"name": "name",
							"type": "string"
						},
						{
							"internalType": "uint256",
							"name": "quantity",
							"type": "uint256"
						},
						{
							"internalType": "uint256",
							"name": "price",
							"type": "uint256"
						}
					],
					"stateMutability": "view",
					"type": "function"
				},
				{
					"inputs": [
						{
							"internalType": "uint256",
							"name": "",
							"type": "uint256"
						},
						{
							"internalType": "address",
							"name": "",
							"type": "address"
						}
					],
					"name": "productsPurchases",
					"outputs": [
						{
							"internalType": "uint256",
							"name": "quantity",
							"type": "uint256"
						},
						{
							"internalType": "uint256",
							"name": "time",
							"type": "uint256"
						}
					],
					"stateMutability": "view",
					"type": "function"
				},
				{
					"inputs": [
						{
							"internalType": "uint256",
							"name": "id",
							"type": "uint256"
						}
					],
					"name": "returnProduct",
					"outputs": [],
					"stateMutability": "nonpayable",
					"type": "function"
				},
				{
					"inputs": [
						{
							"internalType": "uint256",
							"name": "id",
							"type": "uint256"
						},
						{
							"internalType": "uint256",
							"name": "quantity",
							"type": "uint256"
						}
					],
					"name": "updateProductQuantity",
					"outputs": [],
					"stateMutability": "nonpayable",
					"type": "function"
				}
			],
			"devdoc": {
				"kind": "dev",
				"methods": {},
				"version": 1
			},
			"evm": {
				"assembly": "    /* \"contracts/Store.sol\":93:4359  contract Store is Ownable {\r... */\n  mstore(0x40, 0x80)\n  callvalue\n  dup1\n  iszero\n  tag_1\n  jumpi\n  0x00\n  dup1\n  revert\ntag_1:\n  pop\n    /* \"contracts/Ownable.sol\":156:166  msg.sender */\n  caller\n    /* \"contracts/Ownable.sol\":148:153  owner */\n  0x00\n  dup1\n    /* \"contracts/Ownable.sol\":148:166  owner = msg.sender */\n  0x0100\n  exp\n  dup2\n  sload\n  dup2\n  0xffffffffffffffffffffffffffffffffffffffff\n  mul\n  not\n  and\n  swap1\n  dup4\n  0xffffffffffffffffffffffffffffffffffffffff\n  and\n  mul\n  or\n  swap1\n  sstore\n  pop\n    /* \"contracts/Store.sol\":93:4359  contract Store is Ownable {\r... */\n  dataSize(sub_0)\n  dup1\n  dataOffset(sub_0)\n  0x00\n  codecopy\n  0x00\n  return\nstop\n\nsub_0: assembly {\n        /* \"contracts/Store.sol\":93:4359  contract Store is Ownable {\r... */\n      mstore(0x40, 0x80)\n      jumpi(tag_1, lt(calldatasize, 0x04))\n      shr(0xe0, calldataload(0x00))\n      dup1\n      0x8c75ae83\n      gt\n      tag_13\n      jumpi\n      dup1\n      0x8c75ae83\n      eq\n      tag_7\n      jumpi\n      dup1\n      0x8da5cb5b\n      eq\n      tag_8\n      jumpi\n      dup1\n      0xc29b2f20\n      eq\n      tag_9\n      jumpi\n      dup1\n      0xccc4174a\n      eq\n      tag_10\n      jumpi\n      dup1\n      0xfcc93b0b\n      eq\n      tag_11\n      jumpi\n      dup1\n      0xfe4b953d\n      eq\n      tag_12\n      jumpi\n      jump(tag_1)\n    tag_13:\n      dup1\n      0x0a5bd44b\n      eq\n      tag_2\n      jumpi\n      dup1\n      0x131e407d\n      eq\n      tag_3\n      jumpi\n      dup1\n      0x4c437514\n      eq\n      tag_4\n      jumpi\n      dup1\n      0x53b62866\n      eq\n      tag_5\n      jumpi\n      dup1\n      0x7acc0b20\n      eq\n      tag_6\n      jumpi\n    tag_1:\n      0x00\n      dup1\n      revert\n        /* \"contracts/Store.sol\":834:1297  function addNewProduct(string calldata name, uint quantity, uint price) public onlyOwner {\r... */\n    tag_2:\n      callvalue\n      dup1\n      iszero\n      tag_14\n      jumpi\n      0x00\n      dup1\n      revert\n    tag_14:\n      pop\n      tag_15\n      0x04\n      dup1\n      calldatasize\n      sub\n      dup2\n      add\n      swap1\n      tag_16\n      swap2\n      swap1\n      tag_17\n      jump\t// in\n    tag_16:\n      tag_18\n      jump\t// in\n    tag_15:\n      stop\n        /* \"contracts/Store.sol\":3018:4179  function returnProduct(uint id) public {\r... */\n    tag_3:\n      callvalue\n      dup1\n      iszero\n      tag_19\n      jumpi\n      0x00\n      dup1\n      revert\n    tag_19:\n      pop\n      tag_20\n      0x04\n      dup1\n      calldatasize\n      sub\n      dup2\n      add\n      swap1\n      tag_21\n      swap2\n      swap1\n      tag_22\n      jump\t// in\n    tag_21:\n      tag_23\n      jump\t// in\n    tag_20:\n      stop\n        /* \"contracts/Store.sol\":274:327  mapping(string => bool) public availableProductsNames */\n    tag_4:\n      callvalue\n      dup1\n      iszero\n      tag_24\n      jumpi\n      0x00\n      dup1\n      revert\n    tag_24:\n      pop\n      tag_25\n      0x04\n      dup1\n      calldatasize\n      sub\n      dup2\n      add\n      swap1\n      tag_26\n      swap2\n      swap1\n      tag_27\n      jump\t// in\n    tag_26:\n      tag_28\n      jump\t// in\n    tag_25:\n      mload(0x40)\n      tag_29\n      swap2\n      swap1\n      tag_30\n      jump\t// in\n    tag_29:\n      mload(0x40)\n      dup1\n      swap2\n      sub\n      swap1\n      return\n        /* \"contracts/Store.sol\":1755:3010  function buyProduct(uint id, uint quantity) payable public onlyExistingProduct(id) {\r... */\n    tag_5:\n      tag_31\n      0x04\n      dup1\n      calldatasize\n      sub\n      dup2\n      add\n      swap1\n      tag_32\n      swap2\n      swap1\n      tag_33\n      jump\t// in\n    tag_32:\n      tag_34\n      jump\t// in\n    tag_31:\n      stop\n        /* \"contracts/Store.sol\":242:267  Product[] public products */\n    tag_6:\n      callvalue\n      dup1\n      iszero\n      tag_35\n      jumpi\n      0x00\n      dup1\n      revert\n    tag_35:\n      pop\n      tag_36\n      0x04\n      dup1\n      calldatasize\n      sub\n      dup2\n      add\n      swap1\n      tag_37\n      swap2\n      swap1\n      tag_22\n      jump\t// in\n    tag_37:\n      tag_38\n      jump\t// in\n    tag_36:\n      mload(0x40)\n      tag_39\n      swap5\n      swap4\n      swap3\n      swap2\n      swap1\n      tag_40\n      jump\t// in\n    tag_39:\n      mload(0x40)\n      dup1\n      swap2\n      sub\n      swap1\n      return\n        /* \"contracts/Store.sol\":4187:4356  function getClientsAdressesByBoughtProductId(uint id) public returns (address[] memory clientAddresses) {\r... */\n    tag_7:\n      callvalue\n      dup1\n      iszero\n      tag_41\n      jumpi\n      0x00\n      dup1\n      revert\n    tag_41:\n      pop\n      tag_42\n      0x04\n      dup1\n      calldatasize\n      sub\n      dup2\n      add\n      swap1\n      tag_43\n      swap2\n      swap1\n      tag_22\n      jump\t// in\n    tag_43:\n      tag_44\n      jump\t// in\n    tag_42:\n      mload(0x40)\n      tag_45\n      swap2\n      swap1\n      tag_46\n      jump\t// in\n    tag_45:\n      mload(0x40)\n      dup1\n      swap2\n      sub\n      swap1\n      return\n        /* \"contracts/Ownable.sol\":90:110  address public owner */\n    tag_8:\n      callvalue\n      dup1\n      iszero\n      tag_47\n      jumpi\n      0x00\n      dup1\n      revert\n    tag_47:\n      pop\n      tag_48\n      tag_49\n      jump\t// in\n    tag_48:\n      mload(0x40)\n      tag_50\n      swap2\n      swap1\n      tag_51\n      jump\t// in\n    tag_50:\n      mload(0x40)\n      dup1\n      swap2\n      sub\n      swap1\n      return\n        /* \"contracts/Store.sol\":1652:1747  function getProducts() public view returns(Product[] memory) {\r... */\n    tag_9:\n      callvalue\n      dup1\n      iszero\n      tag_52\n      jumpi\n      0x00\n      dup1\n      revert\n    tag_52:\n      pop\n      tag_53\n      tag_54\n      jump\t// in\n    tag_53:\n      mload(0x40)\n      tag_55\n      swap2\n      swap1\n      tag_56\n      jump\t// in\n    tag_55:\n      mload(0x40)\n      dup1\n      swap2\n      sub\n      swap1\n      return\n        /* \"contracts/Store.sol\":466:536  mapping(uint => mapping(address => Purchase)) public productsPurchases */\n    tag_10:\n      callvalue\n      dup1\n      iszero\n      tag_57\n      jumpi\n      0x00\n      dup1\n      revert\n    tag_57:\n      pop\n      tag_58\n      0x04\n      dup1\n      calldatasize\n      sub\n      dup2\n      add\n      swap1\n      tag_59\n      swap2\n      swap1\n      tag_60\n      jump\t// in\n    tag_59:\n      tag_61\n      jump\t// in\n    tag_58:\n      mload(0x40)\n      tag_62\n      swap3\n      swap2\n      swap1\n      tag_63\n      jump\t// in\n    tag_62:\n      mload(0x40)\n      dup1\n      swap2\n      sub\n      swap1\n      return\n        /* \"contracts/Store.sol\":1443:1644  function updateProductQuantity(uint id, uint quantity) public onlyOwner onlyExistingProduct(id) {\r... */\n    tag_11:\n      callvalue\n      dup1\n      iszero\n      tag_64\n      jumpi\n      0x00\n      dup1\n      revert\n    tag_64:\n      pop\n      tag_65\n      0x04\n      dup1\n      calldatasize\n      sub\n      dup2\n      add\n      swap1\n      tag_66\n      swap2\n      swap1\n      tag_33\n      jump\t// in\n    tag_66:\n      tag_67\n      jump\t// in\n    tag_65:\n      stop\n        /* \"contracts/Store.sol\":591:649  mapping(uint => address[]) public clientAddressesByProduct */\n    tag_12:\n      callvalue\n      dup1\n      iszero\n      tag_68\n      jumpi\n      0x00\n      dup1\n      revert\n    tag_68:\n      pop\n      tag_69\n      0x04\n      dup1\n      calldatasize\n      sub\n      dup2\n      add\n      swap1\n      tag_70\n      swap2\n      swap1\n      tag_33\n      jump\t// in\n    tag_70:\n      tag_71\n      jump\t// in\n    tag_69:\n      mload(0x40)\n      tag_72\n      swap2\n      swap1\n      tag_51\n      jump\t// in\n    tag_72:\n      mload(0x40)\n      dup1\n      swap2\n      sub\n      swap1\n      return\n        /* \"contracts/Store.sol\":834:1297  function addNewProduct(string calldata name, uint quantity, uint price) public onlyOwner {\r... */\n    tag_18:\n        /* \"contracts/Ownable.sol\":236:241  owner */\n      0x00\n      dup1\n      sload\n      swap1\n      0x0100\n      exp\n      swap1\n      div\n      0xffffffffffffffffffffffffffffffffffffffff\n      and\n        /* \"contracts/Ownable.sol\":222:241  msg.sender == owner */\n      0xffffffffffffffffffffffffffffffffffffffff\n      and\n        /* \"contracts/Ownable.sol\":222:232  msg.sender */\n      caller\n        /* \"contracts/Ownable.sol\":222:241  msg.sender == owner */\n      0xffffffffffffffffffffffffffffffffffffffff\n      and\n      eq\n        /* \"contracts/Ownable.sol\":214:268  require(msg.sender == owner, \"You are not the owner!\") */\n      tag_74\n      jumpi\n      mload(0x40)\n      0x08c379a000000000000000000000000000000000000000000000000000000000\n      dup2\n      mstore\n      0x04\n      add\n      tag_75\n      swap1\n      tag_76\n      jump\t// in\n    tag_75:\n      mload(0x40)\n      dup1\n      swap2\n      sub\n      swap1\n      revert\n    tag_74:\n        /* \"contracts/Store.sol\":964:965  0 */\n      0x00\n        /* \"contracts/Store.sol\":948:952  name */\n      dup5\n      dup5\n        /* \"contracts/Store.sol\":942:960  bytes(name).length */\n      swap1\n      pop\n        /* \"contracts/Store.sol\":942:965  bytes(name).length != 0 */\n      eq\n      iszero\n        /* \"contracts/Store.sol\":942:978  bytes(name).length != 0 && price > 0 */\n      dup1\n      iszero\n      tag_78\n      jumpi\n      pop\n        /* \"contracts/Store.sol\":977:978  0 */\n      0x00\n        /* \"contracts/Store.sol\":969:974  price */\n      dup2\n        /* \"contracts/Store.sol\":969:978  price > 0 */\n      gt\n        /* \"contracts/Store.sol\":942:978  bytes(name).length != 0 && price > 0 */\n    tag_78:\n        /* \"contracts/Store.sol\":934:979  require(bytes(name).length != 0 && price > 0) */\n      tag_79\n      jumpi\n      0x00\n      dup1\n      revert\n    tag_79:\n        /* \"contracts/Store.sol\":999:1021  availableProductsNames */\n      0x02\n        /* \"contracts/Store.sol\":1022:1026  name */\n      dup5\n      dup5\n        /* \"contracts/Store.sol\":999:1027  availableProductsNames[name] */\n      mload(0x40)\n      tag_80\n      swap3\n      swap2\n      swap1\n      tag_81\n      jump\t// in\n    tag_80:\n      swap1\n      dup2\n      mstore\n      0x20\n      add\n      mload(0x40)\n      dup1\n      swap2\n      sub\n      swap1\n      keccak256\n      0x00\n      swap1\n      sload\n      swap1\n      0x0100\n      exp\n      swap1\n      div\n      0xff\n      and\n        /* \"contracts/Store.sol\":998:1027  !availableProductsNames[name] */\n      iszero\n        /* \"contracts/Store.sol\":990:1068  require(!availableProductsNames[name], \"The product is already in the store!\") */\n      tag_82\n      jumpi\n      mload(0x40)\n      0x08c379a000000000000000000000000000000000000000000000000000000000\n      dup2\n      mstore\n      0x04\n      add\n      tag_83\n      swap1\n      tag_84\n      jump\t// in\n    tag_83:\n      mload(0x40)\n      dup1\n      swap2\n      sub\n      swap1\n      revert\n    tag_82:\n        /* \"contracts/Store.sol\":1089:1103  uint productId */\n      0x00\n        /* \"contracts/Store.sol\":1106:1114  products */\n      0x01\n        /* \"contracts/Store.sol\":1106:1121  products.length */\n      dup1\n      sload\n      swap1\n      pop\n        /* \"contracts/Store.sol\":1089:1121  uint productId = products.length */\n      swap1\n      pop\n        /* \"contracts/Store.sol\":1165:1169  true */\n      0x01\n        /* \"contracts/Store.sol\":1134:1156  availableProductsNames */\n      0x02\n        /* \"contracts/Store.sol\":1157:1161  name */\n      dup7\n      dup7\n        /* \"contracts/Store.sol\":1134:1162  availableProductsNames[name] */\n      mload(0x40)\n      tag_85\n      swap3\n      swap2\n      swap1\n      tag_81\n      jump\t// in\n    tag_85:\n      swap1\n      dup2\n      mstore\n      0x20\n      add\n      mload(0x40)\n      dup1\n      swap2\n      sub\n      swap1\n      keccak256\n      0x00\n        /* \"contracts/Store.sol\":1134:1169  availableProductsNames[name] = true */\n      0x0100\n      exp\n      dup2\n      sload\n      dup2\n      0xff\n      mul\n      not\n      and\n      swap1\n      dup4\n      iszero\n      iszero\n      mul\n      or\n      swap1\n      sstore\n      pop\n        /* \"contracts/Store.sol\":1180:1188  products */\n      0x01\n        /* \"contracts/Store.sol\":1194:1235  Product(productId, name, quantity, price) */\n      mload(0x40)\n      dup1\n      0x80\n      add\n      0x40\n      mstore\n      dup1\n        /* \"contracts/Store.sol\":1202:1211  productId */\n      dup4\n        /* \"contracts/Store.sol\":1194:1235  Product(productId, name, quantity, price) */\n      dup2\n      mstore\n      0x20\n      add\n        /* \"contracts/Store.sol\":1213:1217  name */\n      dup8\n      dup8\n        /* \"contracts/Store.sol\":1194:1235  Product(productId, name, quantity, price) */\n      dup1\n      dup1\n      0x1f\n      add\n      0x20\n      dup1\n      swap2\n      div\n      mul\n      0x20\n      add\n      mload(0x40)\n      swap1\n      dup2\n      add\n      0x40\n      mstore\n      dup1\n      swap4\n      swap3\n      swap2\n      swap1\n      dup2\n      dup2\n      mstore\n      0x20\n      add\n      dup4\n      dup4\n      dup1\n      dup3\n      dup5\n      calldatacopy\n      0x00\n      dup2\n      dup5\n      add\n      mstore\n      not(0x1f)\n      0x1f\n      dup3\n      add\n      and\n      swap1\n      pop\n      dup1\n      dup4\n      add\n      swap3\n      pop\n      pop\n      pop\n      pop\n      pop\n      pop\n      pop\n      dup2\n      mstore\n      0x20\n      add\n        /* \"contracts/Store.sol\":1219:1227  quantity */\n      dup6\n        /* \"contracts/Store.sol\":1194:1235  Product(productId, name, quantity, price) */\n      dup2\n      mstore\n      0x20\n      add\n        /* \"contracts/Store.sol\":1229:1234  price */\n      dup5\n        /* \"contracts/Store.sol\":1194:1235  Product(productId, name, quantity, price) */\n      dup2\n      mstore\n      pop\n        /* \"contracts/Store.sol\":1180:1236  products.push(Product(productId, name, quantity, price)) */\n      swap1\n      dup1\n      0x01\n      dup2\n      sload\n      add\n      dup1\n      dup3\n      sstore\n      dup1\n      swap2\n      pop\n      pop\n      0x01\n      swap1\n      sub\n      swap1\n      0x00\n      mstore\n      keccak256(0x00, 0x20)\n      swap1\n      0x04\n      mul\n      add\n      0x00\n      swap1\n      swap2\n      swap1\n      swap2\n      swap1\n      swap2\n      pop\n      0x00\n      dup3\n      add\n      mload\n      dup2\n      0x00\n      add\n      sstore\n      0x20\n      dup3\n      add\n      mload\n      dup2\n      0x01\n      add\n      swap1\n      dup1\n      mload\n      swap1\n      0x20\n      add\n      swap1\n      tag_87\n      swap3\n      swap2\n      swap1\n      tag_88\n      jump\t// in\n    tag_87:\n      pop\n      0x40\n      dup3\n      add\n      mload\n      dup2\n      0x02\n      add\n      sstore\n      0x60\n      dup3\n      add\n      mload\n      dup2\n      0x03\n      add\n      sstore\n      pop\n      pop\n        /* \"contracts/Store.sol\":1254:1289  ProductAdded(name, quantity, price) */\n      0xaf15189af1861da85d7d959da20a528553cf2d64fc75f6fc7f6894097e9e9cf1\n        /* \"contracts/Store.sol\":1267:1271  name */\n      dup6\n      dup6\n        /* \"contracts/Store.sol\":1273:1281  quantity */\n      dup6\n        /* \"contracts/Store.sol\":1283:1288  price */\n      dup6\n        /* \"contracts/Store.sol\":1254:1289  ProductAdded(name, quantity, price) */\n      mload(0x40)\n      tag_89\n      swap5\n      swap4\n      swap3\n      swap2\n      swap1\n      tag_90\n      jump\t// in\n    tag_89:\n      mload(0x40)\n      dup1\n      swap2\n      sub\n      swap1\n      log1\n        /* \"contracts/Store.sol\":923:1297  {\r... */\n      pop\n        /* \"contracts/Store.sol\":834:1297  function addNewProduct(string calldata name, uint quantity, uint price) public onlyOwner {\r... */\n      pop\n      pop\n      pop\n      pop\n      jump\t// out\n        /* \"contracts/Store.sol\":3018:4179  function returnProduct(uint id) public {\r... */\n    tag_23:\n        /* \"contracts/Store.sol\":3068:3089  address clientAddress */\n      0x00\n        /* \"contracts/Store.sol\":3092:3102  msg.sender */\n      caller\n        /* \"contracts/Store.sol\":3068:3102  address clientAddress = msg.sender */\n      swap1\n      pop\n        /* \"contracts/Store.sol\":3115:3139  Purchase memory purchase */\n      0x00\n        /* \"contracts/Store.sol\":3142:3159  productsPurchases */\n      0x03\n        /* \"contracts/Store.sol\":3142:3163  productsPurchases[id] */\n      0x00\n        /* \"contracts/Store.sol\":3160:3162  id */\n      dup5\n        /* \"contracts/Store.sol\":3142:3163  productsPurchases[id] */\n      dup2\n      mstore\n      0x20\n      add\n      swap1\n      dup2\n      mstore\n      0x20\n      add\n      0x00\n      keccak256\n        /* \"contracts/Store.sol\":3142:3178  productsPurchases[id][clientAddress] */\n      0x00\n        /* \"contracts/Store.sol\":3164:3177  clientAddress */\n      dup4\n        /* \"contracts/Store.sol\":3142:3178  productsPurchases[id][clientAddress] */\n      0xffffffffffffffffffffffffffffffffffffffff\n      and\n      0xffffffffffffffffffffffffffffffffffffffff\n      and\n      dup2\n      mstore\n      0x20\n      add\n      swap1\n      dup2\n      mstore\n      0x20\n      add\n      0x00\n      keccak256\n        /* \"contracts/Store.sol\":3115:3178  Purchase memory purchase = productsPurchases[id][clientAddress] */\n      mload(0x40)\n      dup1\n      0x40\n      add\n      0x40\n      mstore\n      swap1\n      dup2\n      0x00\n      dup3\n      add\n      sload\n      dup2\n      mstore\n      0x20\n      add\n      0x01\n      dup3\n      add\n      sload\n      dup2\n      mstore\n      pop\n      pop\n      swap1\n      pop\n        /* \"contracts/Store.sol\":3218:3219  0 */\n      0x00\n        /* \"contracts/Store.sol\":3197:3205  purchase */\n      dup2\n        /* \"contracts/Store.sol\":3197:3214  purchase.quantity */\n      0x00\n      add\n      mload\n        /* \"contracts/Store.sol\":3197:3219  purchase.quantity != 0 */\n      eq\n      iszero\n        /* \"contracts/Store.sol\":3189:3257  require(purchase.quantity != 0, \"You have not bought this product!\") */\n      tag_92\n      jumpi\n      mload(0x40)\n      0x08c379a000000000000000000000000000000000000000000000000000000000\n      dup2\n      mstore\n      0x04\n      add\n      tag_93\n      swap1\n      tag_94\n      jump\t// in\n    tag_93:\n      mload(0x40)\n      dup1\n      swap2\n      sub\n      swap1\n      revert\n    tag_92:\n        /* \"contracts/Store.sol\":3270:3289  uint256 currentTime */\n      0x00\n        /* \"contracts/Store.sol\":3292:3304  block.number */\n      number\n        /* \"contracts/Store.sol\":3270:3304  uint256 currentTime = block.number */\n      swap1\n      pop\n        /* \"contracts/Store.sol\":3346:3357  currentTime */\n      dup1\n        /* \"contracts/Store.sol\":3339:3342  100 */\n      0x64\n        /* \"contracts/Store.sol\":3323:3331  purchase */\n      dup4\n        /* \"contracts/Store.sol\":3323:3336  purchase.time */\n      0x20\n      add\n      mload\n        /* \"contracts/Store.sol\":3323:3342  purchase.time + 100 */\n      tag_95\n      swap2\n      swap1\n      tag_96\n      jump\t// in\n    tag_95:\n        /* \"contracts/Store.sol\":3323:3357  purchase.time + 100 >= currentTime */\n      lt\n      iszero\n        /* \"contracts/Store.sol\":3315:3390  require(purchase.time + 100 >= currentTime, \"Time for return has expired!\") */\n      tag_97\n      jumpi\n      mload(0x40)\n      0x08c379a000000000000000000000000000000000000000000000000000000000\n      dup2\n      mstore\n      0x04\n      add\n      tag_98\n      swap1\n      tag_99\n      jump\t// in\n    tag_98:\n      mload(0x40)\n      dup1\n      swap2\n      sub\n      swap1\n      revert\n    tag_97:\n        /* \"contracts/Store.sol\":3525:3533  purchase */\n      dup2\n        /* \"contracts/Store.sol\":3525:3542  purchase.quantity */\n      0x00\n      add\n      mload\n        /* \"contracts/Store.sol\":3500:3508  products */\n      0x01\n        /* \"contracts/Store.sol\":3509:3511  id */\n      dup6\n        /* \"contracts/Store.sol\":3500:3512  products[id] */\n      dup2\n      sload\n      dup2\n      lt\n      tag_100\n      jumpi\n      tag_101\n      tag_102\n      jump\t// in\n    tag_101:\n    tag_100:\n      swap1\n      0x00\n      mstore\n      keccak256(0x00, 0x20)\n      swap1\n      0x04\n      mul\n      add\n        /* \"contracts/Store.sol\":3500:3521  products[id].quantity */\n      0x02\n      add\n      0x00\n        /* \"contracts/Store.sol\":3500:3542  products[id].quantity += purchase.quantity */\n      dup3\n      dup3\n      sload\n      tag_104\n      swap2\n      swap1\n      tag_96\n      jump\t// in\n    tag_104:\n      swap3\n      pop\n      pop\n      dup2\n      swap1\n      sstore\n      pop\n        /* \"contracts/Store.sol\":3560:3577  productsPurchases */\n      0x03\n        /* \"contracts/Store.sol\":3560:3581  productsPurchases[id] */\n      0x00\n        /* \"contracts/Store.sol\":3578:3580  id */\n      dup6\n        /* \"contracts/Store.sol\":3560:3581  productsPurchases[id] */\n      dup2\n      mstore\n      0x20\n      add\n      swap1\n      dup2\n      mstore\n      0x20\n      add\n      0x00\n      keccak256\n        /* \"contracts/Store.sol\":3560:3596  productsPurchases[id][clientAddress] */\n      0x00\n        /* \"contracts/Store.sol\":3582:3595  clientAddress */\n      dup5\n        /* \"contracts/Store.sol\":3560:3596  productsPurchases[id][clientAddress] */\n      0xffffffffffffffffffffffffffffffffffffffff\n      and\n      0xffffffffffffffffffffffffffffffffffffffff\n      and\n      dup2\n      mstore\n      0x20\n      add\n      swap1\n      dup2\n      mstore\n      0x20\n      add\n      0x00\n      keccak256\n      0x00\n        /* \"contracts/Store.sol\":3553:3596  delete productsPurchases[id][clientAddress] */\n      dup1\n      dup3\n      add\n      0x00\n      swap1\n      sstore\n      0x01\n      dup3\n      add\n      0x00\n      swap1\n      sstore\n      pop\n      pop\n        /* \"contracts/Store.sol\":3688:3721  address[] storage clientAddresses */\n      0x00\n        /* \"contracts/Store.sol\":3724:3748  clientAddressesByProduct */\n      0x04\n        /* \"contracts/Store.sol\":3724:3752  clientAddressesByProduct[id] */\n      0x00\n        /* \"contracts/Store.sol\":3749:3751  id */\n      dup7\n        /* \"contracts/Store.sol\":3724:3752  clientAddressesByProduct[id] */\n      dup2\n      mstore\n      0x20\n      add\n      swap1\n      dup2\n      mstore\n      0x20\n      add\n      0x00\n      keccak256\n        /* \"contracts/Store.sol\":3688:3752  address[] storage clientAddresses = clientAddressesByProduct[id] */\n      swap1\n      pop\n        /* \"contracts/Store.sol\":3763:3788  uint clientAddressesCount */\n      0x00\n        /* \"contracts/Store.sol\":3791:3806  clientAddresses */\n      dup2\n        /* \"contracts/Store.sol\":3791:3813  clientAddresses.length */\n      dup1\n      sload\n      swap1\n      pop\n        /* \"contracts/Store.sol\":3763:3813  uint clientAddressesCount = clientAddresses.length */\n      swap1\n      pop\n        /* \"contracts/Store.sol\":3829:3839  uint index */\n      0x00\n        /* \"contracts/Store.sol\":3824:4120  for (uint index = 0; index < clientAddressesCount; index++) {\r... */\n    tag_105:\n        /* \"contracts/Store.sol\":3853:3873  clientAddressesCount */\n      dup2\n        /* \"contracts/Store.sol\":3845:3850  index */\n      dup2\n        /* \"contracts/Store.sol\":3845:3873  index < clientAddressesCount */\n      lt\n        /* \"contracts/Store.sol\":3824:4120  for (uint index = 0; index < clientAddressesCount; index++) {\r... */\n      iszero\n      tag_106\n      jumpi\n        /* \"contracts/Store.sol\":3929:3942  clientAddress */\n      dup6\n        /* \"contracts/Store.sol\":3903:3942  clientAddresses[index] == clientAddress */\n      0xffffffffffffffffffffffffffffffffffffffff\n      and\n        /* \"contracts/Store.sol\":3903:3918  clientAddresses */\n      dup4\n        /* \"contracts/Store.sol\":3919:3924  index */\n      dup3\n        /* \"contracts/Store.sol\":3903:3925  clientAddresses[index] */\n      dup2\n      sload\n      dup2\n      lt\n      tag_108\n      jumpi\n      tag_109\n      tag_102\n      jump\t// in\n    tag_109:\n    tag_108:\n      swap1\n      0x00\n      mstore\n      keccak256(0x00, 0x20)\n      add\n      0x00\n      swap1\n      sload\n      swap1\n      0x0100\n      exp\n      swap1\n      div\n      0xffffffffffffffffffffffffffffffffffffffff\n      and\n        /* \"contracts/Store.sol\":3903:3942  clientAddresses[index] == clientAddress */\n      0xffffffffffffffffffffffffffffffffffffffff\n      and\n      eq\n        /* \"contracts/Store.sol\":3899:4109  if (clientAddresses[index] == clientAddress) {\r... */\n      iszero\n      tag_111\n      jumpi\n        /* \"contracts/Store.sol\":3988:4003  clientAddresses */\n      dup3\n        /* \"contracts/Store.sol\":4027:4028  1 */\n      0x01\n        /* \"contracts/Store.sol\":4004:4024  clientAddressesCount */\n      dup4\n        /* \"contracts/Store.sol\":4004:4028  clientAddressesCount - 1 */\n      tag_112\n      swap2\n      swap1\n      tag_113\n      jump\t// in\n    tag_112:\n        /* \"contracts/Store.sol\":3988:4029  clientAddresses[clientAddressesCount - 1] */\n      dup2\n      sload\n      dup2\n      lt\n      tag_114\n      jumpi\n      tag_115\n      tag_102\n      jump\t// in\n    tag_115:\n    tag_114:\n      swap1\n      0x00\n      mstore\n      keccak256(0x00, 0x20)\n      add\n      0x00\n      swap1\n      sload\n      swap1\n      0x0100\n      exp\n      swap1\n      div\n      0xffffffffffffffffffffffffffffffffffffffff\n      and\n        /* \"contracts/Store.sol\":3963:3978  clientAddresses */\n      dup4\n        /* \"contracts/Store.sol\":3979:3984  index */\n      dup3\n        /* \"contracts/Store.sol\":3963:3985  clientAddresses[index] */\n      dup2\n      sload\n      dup2\n      lt\n      tag_117\n      jumpi\n      tag_118\n      tag_102\n      jump\t// in\n    tag_118:\n    tag_117:\n      swap1\n      0x00\n      mstore\n      keccak256(0x00, 0x20)\n      add\n      0x00\n        /* \"contracts/Store.sol\":3963:4029  clientAddresses[index] = clientAddresses[clientAddressesCount - 1] */\n      0x0100\n      exp\n      dup2\n      sload\n      dup2\n      0xffffffffffffffffffffffffffffffffffffffff\n      mul\n      not\n      and\n      swap1\n      dup4\n      0xffffffffffffffffffffffffffffffffffffffff\n      and\n      mul\n      or\n      swap1\n      sstore\n      pop\n        /* \"contracts/Store.sol\":4048:4063  clientAddresses */\n      dup3\n        /* \"contracts/Store.sol\":4048:4069  clientAddresses.pop() */\n      dup1\n      sload\n      dup1\n      tag_120\n      jumpi\n      tag_121\n      tag_122\n      jump\t// in\n    tag_121:\n    tag_120:\n      0x01\n      swap1\n      sub\n      dup2\n      dup2\n      swap1\n      0x00\n      mstore\n      keccak256(0x00, 0x20)\n      add\n      exp(0x0100, 0x00)\n      dup2\n      sload\n      swap1\n      0xffffffffffffffffffffffffffffffffffffffff\n      mul\n      not\n      and\n      swap1\n      sstore\n      swap1\n      sstore\n        /* \"contracts/Store.sol\":4088:4093  break */\n      jump(tag_106)\n        /* \"contracts/Store.sol\":3899:4109  if (clientAddresses[index] == clientAddress) {\r... */\n    tag_111:\n        /* \"contracts/Store.sol\":3875:3882  index++ */\n      dup1\n      dup1\n      tag_124\n      swap1\n      tag_125\n      jump\t// in\n    tag_124:\n      swap2\n      pop\n      pop\n        /* \"contracts/Store.sol\":3824:4120  for (uint index = 0; index < clientAddressesCount; index++) {\r... */\n      jump(tag_105)\n    tag_106:\n      pop\n        /* \"contracts/Store.sol\":4137:4171  ProductReturned(clientAddress, id) */\n      0x8ca1aa6579d40102b86ea2cb41e387842eeca2bc27384cd954407822d79f2375\n        /* \"contracts/Store.sol\":4153:4166  clientAddress */\n      dup6\n        /* \"contracts/Store.sol\":4168:4170  id */\n      dup8\n        /* \"contracts/Store.sol\":4137:4171  ProductReturned(clientAddress, id) */\n      mload(0x40)\n      tag_126\n      swap3\n      swap2\n      swap1\n      tag_127\n      jump\t// in\n    tag_126:\n      mload(0x40)\n      dup1\n      swap2\n      sub\n      swap1\n      log1\n        /* \"contracts/Store.sol\":3057:4179  {\r... */\n      pop\n      pop\n      pop\n      pop\n      pop\n        /* \"contracts/Store.sol\":3018:4179  function returnProduct(uint id) public {\r... */\n      pop\n      jump\t// out\n        /* \"contracts/Store.sol\":274:327  mapping(string => bool) public availableProductsNames */\n    tag_28:\n      0x02\n      dup2\n      dup1\n      mload\n      0x20\n      dup2\n      add\n      dup3\n      add\n      dup1\n      mload\n      dup5\n      dup3\n      mstore\n      0x20\n      dup4\n      add\n      0x20\n      dup6\n      add\n      keccak256\n      dup2\n      dup4\n      mstore\n      dup1\n      swap6\n      pop\n      pop\n      pop\n      pop\n      pop\n      pop\n      0x00\n      swap2\n      pop\n      sload\n      swap1\n      0x0100\n      exp\n      swap1\n      div\n      0xff\n      and\n      dup2\n      jump\t// out\n        /* \"contracts/Store.sol\":1755:3010  function buyProduct(uint id, uint quantity) payable public onlyExistingProduct(id) {\r... */\n    tag_34:\n        /* \"contracts/Store.sol\":1834:1836  id */\n      dup2\n        /* \"contracts/Store.sol\":1367:1375  products */\n      0x01\n        /* \"contracts/Store.sol\":1367:1382  products.length */\n      dup1\n      sload\n      swap1\n      pop\n        /* \"contracts/Store.sol\":1362:1364  id */\n      dup2\n        /* \"contracts/Store.sol\":1362:1382  id < products.length */\n      lt\n        /* \"contracts/Store.sol\":1354:1415  require(id < products.length, \"The product is not existing!\") */\n      tag_129\n      jumpi\n      mload(0x40)\n      0x08c379a000000000000000000000000000000000000000000000000000000000\n      dup2\n      mstore\n      0x04\n      add\n      tag_130\n      swap1\n      tag_131\n      jump\t// in\n    tag_130:\n      mload(0x40)\n      dup1\n      swap2\n      sub\n      swap1\n      revert\n    tag_129:\n        /* \"contracts/Store.sol\":1868:1869  0 */\n      0x00\n        /* \"contracts/Store.sol\":1857:1865  quantity */\n      dup3\n        /* \"contracts/Store.sol\":1857:1869  quantity > 0 */\n      gt\n        /* \"contracts/Store.sol\":1849:1891  require(quantity > 0, \"Invalid quantity!\") */\n      tag_133\n      jumpi\n      mload(0x40)\n      0x08c379a000000000000000000000000000000000000000000000000000000000\n      dup2\n      mstore\n      0x04\n      add\n      tag_134\n      swap1\n      tag_135\n      jump\t// in\n    tag_134:\n      mload(0x40)\n      dup1\n      swap2\n      sub\n      swap1\n      revert\n    tag_133:\n        /* \"contracts/Store.sol\":1904:1925  address clientAddress */\n      0x00\n        /* \"contracts/Store.sol\":1928:1938  msg.sender */\n      caller\n        /* \"contracts/Store.sol\":1904:1938  address clientAddress = msg.sender */\n      swap1\n      pop\n        /* \"contracts/Store.sol\":2077:2078  0 */\n      0x00\n        /* \"contracts/Store.sol\":2028:2045  productsPurchases */\n      0x03\n        /* \"contracts/Store.sol\":2028:2049  productsPurchases[id] */\n      0x00\n        /* \"contracts/Store.sol\":2046:2048  id */\n      dup7\n        /* \"contracts/Store.sol\":2028:2049  productsPurchases[id] */\n      dup2\n      mstore\n      0x20\n      add\n      swap1\n      dup2\n      mstore\n      0x20\n      add\n      0x00\n      keccak256\n        /* \"contracts/Store.sol\":2028:2064  productsPurchases[id][clientAddress] */\n      0x00\n        /* \"contracts/Store.sol\":2050:2063  clientAddress */\n      dup4\n        /* \"contracts/Store.sol\":2028:2064  productsPurchases[id][clientAddress] */\n      0xffffffffffffffffffffffffffffffffffffffff\n      and\n      0xffffffffffffffffffffffffffffffffffffffff\n      and\n      dup2\n      mstore\n      0x20\n      add\n      swap1\n      dup2\n      mstore\n      0x20\n      add\n      0x00\n      keccak256\n        /* \"contracts/Store.sol\":2028:2073  productsPurchases[id][clientAddress].quantity */\n      0x00\n      add\n      sload\n        /* \"contracts/Store.sol\":2028:2078  productsPurchases[id][clientAddress].quantity == 0 */\n      eq\n        /* \"contracts/Store.sol\":2020:2120  require(productsPurchases[id][clientAddress].quantity == 0, \"You have already bought this product!\") */\n      tag_136\n      jumpi\n      mload(0x40)\n      0x08c379a000000000000000000000000000000000000000000000000000000000\n      dup2\n      mstore\n      0x04\n      add\n      tag_137\n      swap1\n      tag_138\n      jump\t// in\n    tag_137:\n      mload(0x40)\n      dup1\n      swap2\n      sub\n      swap1\n      revert\n    tag_136:\n        /* \"contracts/Store.sol\":2133:2163  Product storage currentProduct */\n      0x00\n        /* \"contracts/Store.sol\":2166:2174  products */\n      0x01\n        /* \"contracts/Store.sol\":2175:2177  id */\n      dup6\n        /* \"contracts/Store.sol\":2166:2178  products[id] */\n      dup2\n      sload\n      dup2\n      lt\n      tag_139\n      jumpi\n      tag_140\n      tag_102\n      jump\t// in\n    tag_140:\n    tag_139:\n      swap1\n      0x00\n      mstore\n      keccak256(0x00, 0x20)\n      swap1\n      0x04\n      mul\n      add\n        /* \"contracts/Store.sol\":2133:2178  Product storage currentProduct = products[id] */\n      swap1\n      pop\n        /* \"contracts/Store.sol\":2288:2296  quantity */\n      dup4\n        /* \"contracts/Store.sol\":2261:2275  currentProduct */\n      dup2\n        /* \"contracts/Store.sol\":2261:2284  currentProduct.quantity */\n      0x02\n      add\n      sload\n        /* \"contracts/Store.sol\":2261:2296  currentProduct.quantity >= quantity */\n      lt\n      iszero\n        /* \"contracts/Store.sol\":2253:2346  require(currentProduct.quantity >= quantity, \"The product quantity is less than you wanted!\") */\n      tag_142\n      jumpi\n      mload(0x40)\n      0x08c379a000000000000000000000000000000000000000000000000000000000\n      dup2\n      mstore\n      0x04\n      add\n      tag_143\n      swap1\n      tag_144\n      jump\t// in\n    tag_143:\n      mload(0x40)\n      dup1\n      swap2\n      sub\n      swap1\n      revert\n    tag_142:\n        /* \"contracts/Store.sol\":2359:2377  uint256 totalPrice */\n      0x00\n        /* \"contracts/Store.sol\":2409:2417  quantity */\n      dup5\n        /* \"contracts/Store.sol\":2388:2396  products */\n      0x01\n        /* \"contracts/Store.sol\":2397:2399  id */\n      dup8\n        /* \"contracts/Store.sol\":2388:2400  products[id] */\n      dup2\n      sload\n      dup2\n      lt\n      tag_145\n      jumpi\n      tag_146\n      tag_102\n      jump\t// in\n    tag_146:\n    tag_145:\n      swap1\n      0x00\n      mstore\n      keccak256(0x00, 0x20)\n      swap1\n      0x04\n      mul\n      add\n        /* \"contracts/Store.sol\":2388:2406  products[id].price */\n      0x03\n      add\n      sload\n        /* \"contracts/Store.sol\":2388:2417  products[id].price * quantity */\n      tag_148\n      swap2\n      swap1\n      tag_149\n      jump\t// in\n    tag_148:\n        /* \"contracts/Store.sol\":2359:2418  uint256 totalPrice = uint256(products[id].price * quantity) */\n      swap1\n      pop\n        /* \"contracts/Store.sol\":2450:2460  totalPrice */\n      dup1\n        /* \"contracts/Store.sol\":2437:2446  msg.value */\n      callvalue\n        /* \"contracts/Store.sol\":2437:2460  msg.value == totalPrice */\n      eq\n        /* \"contracts/Store.sol\":2429:2544  require(msg.value == totalPrice, \"Please send the exact price of the product multiplied by the quantity you want!\") */\n      tag_150\n      jumpi\n      mload(0x40)\n      0x08c379a000000000000000000000000000000000000000000000000000000000\n      dup2\n      mstore\n      0x04\n      add\n      tag_151\n      swap1\n      tag_152\n      jump\t// in\n    tag_151:\n      mload(0x40)\n      dup1\n      swap2\n      sub\n      swap1\n      revert\n    tag_150:\n        /* \"contracts/Store.sol\":2622:2627  owner */\n      0x00\n      dup1\n      sload\n      swap1\n      0x0100\n      exp\n      swap1\n      div\n      0xffffffffffffffffffffffffffffffffffffffff\n      and\n        /* \"contracts/Store.sol\":2614:2637  payable(owner).transfer */\n      0xffffffffffffffffffffffffffffffffffffffff\n      and\n        /* \"contracts/Store.sol\":2614:2649  payable(owner).transfer(totalPrice) */\n      0x08fc\n        /* \"contracts/Store.sol\":2638:2648  totalPrice */\n      dup3\n        /* \"contracts/Store.sol\":2614:2649  payable(owner).transfer(totalPrice) */\n      swap1\n      dup2\n      iszero\n      mul\n      swap1\n      mload(0x40)\n      0x00\n      mload(0x40)\n      dup1\n      dup4\n      sub\n      dup2\n      dup6\n      dup9\n      dup9\n      call\n      swap4\n      pop\n      pop\n      pop\n      pop\n      iszero\n      dup1\n      iszero\n      tag_154\n      jumpi\n      returndatasize\n      0x00\n      dup1\n      returndatacopy\n      revert(0x00, returndatasize)\n    tag_154:\n      pop\n        /* \"contracts/Store.sol\":2747:2779  Purchase(quantity, block.number) */\n      mload(0x40)\n      dup1\n      0x40\n      add\n      0x40\n      mstore\n      dup1\n        /* \"contracts/Store.sol\":2756:2764  quantity */\n      dup7\n        /* \"contracts/Store.sol\":2747:2779  Purchase(quantity, block.number) */\n      dup2\n      mstore\n      0x20\n      add\n        /* \"contracts/Store.sol\":2766:2778  block.number */\n      number\n        /* \"contracts/Store.sol\":2747:2779  Purchase(quantity, block.number) */\n      dup2\n      mstore\n      pop\n        /* \"contracts/Store.sol\":2708:2725  productsPurchases */\n      0x03\n        /* \"contracts/Store.sol\":2708:2729  productsPurchases[id] */\n      0x00\n        /* \"contracts/Store.sol\":2726:2728  id */\n      dup9\n        /* \"contracts/Store.sol\":2708:2729  productsPurchases[id] */\n      dup2\n      mstore\n      0x20\n      add\n      swap1\n      dup2\n      mstore\n      0x20\n      add\n      0x00\n      keccak256\n        /* \"contracts/Store.sol\":2708:2744  productsPurchases[id][clientAddress] */\n      0x00\n        /* \"contracts/Store.sol\":2730:2743  clientAddress */\n      dup6\n        /* \"contracts/Store.sol\":2708:2744  productsPurchases[id][clientAddress] */\n      0xffffffffffffffffffffffffffffffffffffffff\n      and\n      0xffffffffffffffffffffffffffffffffffffffff\n      and\n      dup2\n      mstore\n      0x20\n      add\n      swap1\n      dup2\n      mstore\n      0x20\n      add\n      0x00\n      keccak256\n        /* \"contracts/Store.sol\":2708:2779  productsPurchases[id][clientAddress] = Purchase(quantity, block.number) */\n      0x00\n      dup3\n      add\n      mload\n      dup2\n      0x00\n      add\n      sstore\n      0x20\n      dup3\n      add\n      mload\n      dup2\n      0x01\n      add\n      sstore\n      swap1\n      pop\n      pop\n        /* \"contracts/Store.sol\":2790:2814  clientAddressesByProduct */\n      0x04\n        /* \"contracts/Store.sol\":2790:2818  clientAddressesByProduct[id] */\n      0x00\n        /* \"contracts/Store.sol\":2815:2817  id */\n      dup8\n        /* \"contracts/Store.sol\":2790:2818  clientAddressesByProduct[id] */\n      dup2\n      mstore\n      0x20\n      add\n      swap1\n      dup2\n      mstore\n      0x20\n      add\n      0x00\n      keccak256\n        /* \"contracts/Store.sol\":2824:2837  clientAddress */\n      dup4\n        /* \"contracts/Store.sol\":2790:2838  clientAddressesByProduct[id].push(clientAddress) */\n      swap1\n      dup1\n      0x01\n      dup2\n      sload\n      add\n      dup1\n      dup3\n      sstore\n      dup1\n      swap2\n      pop\n      pop\n      0x01\n      swap1\n      sub\n      swap1\n      0x00\n      mstore\n      keccak256(0x00, 0x20)\n      add\n      0x00\n      swap1\n      swap2\n      swap1\n      swap2\n      swap1\n      swap2\n      0x0100\n      exp\n      dup2\n      sload\n      dup2\n      0xffffffffffffffffffffffffffffffffffffffff\n      mul\n      not\n      and\n      swap1\n      dup4\n      0xffffffffffffffffffffffffffffffffffffffff\n      and\n      mul\n      or\n      swap1\n      sstore\n      pop\n        /* \"contracts/Store.sol\":2934:2942  quantity */\n      dup5\n        /* \"contracts/Store.sol\":2907:2921  currentProduct */\n      dup3\n        /* \"contracts/Store.sol\":2907:2930  currentProduct.quantity */\n      0x02\n      add\n      0x00\n        /* \"contracts/Store.sol\":2907:2942  currentProduct.quantity -= quantity */\n      dup3\n      dup3\n      sload\n      tag_156\n      swap2\n      swap1\n      tag_113\n      jump\t// in\n    tag_156:\n      swap3\n      pop\n      pop\n      dup2\n      swap1\n      sstore\n      pop\n        /* \"contracts/Store.sol\":2960:3002  ProductBought(clientAddress, id, quantity) */\n      0xc032f62758cac23a902e648ab54b6825665b9bc19e7cd0a8ab915cbf3eea4fa0\n        /* \"contracts/Store.sol\":2974:2987  clientAddress */\n      dup4\n        /* \"contracts/Store.sol\":2989:2991  id */\n      dup8\n        /* \"contracts/Store.sol\":2993:3001  quantity */\n      dup8\n        /* \"contracts/Store.sol\":2960:3002  ProductBought(clientAddress, id, quantity) */\n      mload(0x40)\n      tag_157\n      swap4\n      swap3\n      swap2\n      swap1\n      tag_158\n      jump\t// in\n    tag_157:\n      mload(0x40)\n      dup1\n      swap2\n      sub\n      swap1\n      log1\n        /* \"contracts/Store.sol\":1838:3010  {\r... */\n      pop\n      pop\n      pop\n        /* \"contracts/Store.sol\":1755:3010  function buyProduct(uint id, uint quantity) payable public onlyExistingProduct(id) {\r... */\n      pop\n      pop\n      pop\n      jump\t// out\n        /* \"contracts/Store.sol\":242:267  Product[] public products */\n    tag_38:\n      0x01\n      dup2\n      dup2\n      sload\n      dup2\n      lt\n      tag_159\n      jumpi\n      0x00\n      dup1\n      revert\n    tag_159:\n      swap1\n      0x00\n      mstore\n      keccak256(0x00, 0x20)\n      swap1\n      0x04\n      mul\n      add\n      0x00\n      swap2\n      pop\n      swap1\n      pop\n      dup1\n      0x00\n      add\n      sload\n      swap1\n      dup1\n      0x01\n      add\n      dup1\n      sload\n      tag_161\n      swap1\n      tag_162\n      jump\t// in\n    tag_161:\n      dup1\n      0x1f\n      add\n      0x20\n      dup1\n      swap2\n      div\n      mul\n      0x20\n      add\n      mload(0x40)\n      swap1\n      dup2\n      add\n      0x40\n      mstore\n      dup1\n      swap3\n      swap2\n      swap1\n      dup2\n      dup2\n      mstore\n      0x20\n      add\n      dup3\n      dup1\n      sload\n      tag_163\n      swap1\n      tag_162\n      jump\t// in\n    tag_163:\n      dup1\n      iszero\n      tag_164\n      jumpi\n      dup1\n      0x1f\n      lt\n      tag_165\n      jumpi\n      0x0100\n      dup1\n      dup4\n      sload\n      div\n      mul\n      dup4\n      mstore\n      swap2\n      0x20\n      add\n      swap2\n      jump(tag_164)\n    tag_165:\n      dup3\n      add\n      swap2\n      swap1\n      0x00\n      mstore\n      keccak256(0x00, 0x20)\n      swap1\n    tag_166:\n      dup2\n      sload\n      dup2\n      mstore\n      swap1\n      0x01\n      add\n      swap1\n      0x20\n      add\n      dup1\n      dup4\n      gt\n      tag_166\n      jumpi\n      dup3\n      swap1\n      sub\n      0x1f\n      and\n      dup3\n      add\n      swap2\n    tag_164:\n      pop\n      pop\n      pop\n      pop\n      pop\n      swap1\n      dup1\n      0x02\n      add\n      sload\n      swap1\n      dup1\n      0x03\n      add\n      sload\n      swap1\n      pop\n      dup5\n      jump\t// out\n        /* \"contracts/Store.sol\":4187:4356  function getClientsAdressesByBoughtProductId(uint id) public returns (address[] memory clientAddresses) {\r... */\n    tag_44:\n        /* \"contracts/Store.sol\":4257:4289  address[] memory clientAddresses */\n      0x60\n        /* \"contracts/Store.sol\":4320:4344  clientAddressesByProduct */\n      0x04\n        /* \"contracts/Store.sol\":4320:4348  clientAddressesByProduct[id] */\n      0x00\n        /* \"contracts/Store.sol\":4345:4347  id */\n      dup4\n        /* \"contracts/Store.sol\":4320:4348  clientAddressesByProduct[id] */\n      dup2\n      mstore\n      0x20\n      add\n      swap1\n      dup2\n      mstore\n      0x20\n      add\n      0x00\n      keccak256\n        /* \"contracts/Store.sol\":4302:4348  clientAddresses = clientAddressesByProduct[id] */\n      dup1\n      sload\n      dup1\n      0x20\n      mul\n      0x20\n      add\n      mload(0x40)\n      swap1\n      dup2\n      add\n      0x40\n      mstore\n      dup1\n      swap3\n      swap2\n      swap1\n      dup2\n      dup2\n      mstore\n      0x20\n      add\n      dup3\n      dup1\n      sload\n      dup1\n      iszero\n      tag_168\n      jumpi\n      0x20\n      mul\n      dup3\n      add\n      swap2\n      swap1\n      0x00\n      mstore\n      keccak256(0x00, 0x20)\n      swap1\n    tag_169:\n      dup2\n      0x00\n      swap1\n      sload\n      swap1\n      0x0100\n      exp\n      swap1\n      div\n      0xffffffffffffffffffffffffffffffffffffffff\n      and\n      0xffffffffffffffffffffffffffffffffffffffff\n      and\n      dup2\n      mstore\n      0x20\n      add\n      swap1\n      0x01\n      add\n      swap1\n      dup1\n      dup4\n      gt\n      tag_169\n      jumpi\n    tag_168:\n      pop\n      pop\n      pop\n      pop\n      pop\n      swap1\n      pop\n        /* \"contracts/Store.sol\":4187:4356  function getClientsAdressesByBoughtProductId(uint id) public returns (address[] memory clientAddresses) {\r... */\n      swap2\n      swap1\n      pop\n      jump\t// out\n        /* \"contracts/Ownable.sol\":90:110  address public owner */\n    tag_49:\n      0x00\n      dup1\n      sload\n      swap1\n      0x0100\n      exp\n      swap1\n      div\n      0xffffffffffffffffffffffffffffffffffffffff\n      and\n      dup2\n      jump\t// out\n        /* \"contracts/Store.sol\":1652:1747  function getProducts() public view returns(Product[] memory) {\r... */\n    tag_54:\n        /* \"contracts/Store.sol\":1695:1711  Product[] memory */\n      0x60\n        /* \"contracts/Store.sol\":1731:1739  products */\n      0x01\n        /* \"contracts/Store.sol\":1724:1739  return products */\n      dup1\n      sload\n      dup1\n      0x20\n      mul\n      0x20\n      add\n      mload(0x40)\n      swap1\n      dup2\n      add\n      0x40\n      mstore\n      dup1\n      swap3\n      swap2\n      swap1\n      dup2\n      dup2\n      mstore\n      0x20\n      add\n      0x00\n      swap1\n    tag_171:\n      dup3\n      dup3\n      lt\n      iszero\n      tag_172\n      jumpi\n      dup4\n      dup3\n      swap1\n      0x00\n      mstore\n      keccak256(0x00, 0x20)\n      swap1\n      0x04\n      mul\n      add\n      mload(0x40)\n      dup1\n      0x80\n      add\n      0x40\n      mstore\n      swap1\n      dup2\n      0x00\n      dup3\n      add\n      sload\n      dup2\n      mstore\n      0x20\n      add\n      0x01\n      dup3\n      add\n      dup1\n      sload\n      tag_174\n      swap1\n      tag_162\n      jump\t// in\n    tag_174:\n      dup1\n      0x1f\n      add\n      0x20\n      dup1\n      swap2\n      div\n      mul\n      0x20\n      add\n      mload(0x40)\n      swap1\n      dup2\n      add\n      0x40\n      mstore\n      dup1\n      swap3\n      swap2\n      swap1\n      dup2\n      dup2\n      mstore\n      0x20\n      add\n      dup3\n      dup1\n      sload\n      tag_175\n      swap1\n      tag_162\n      jump\t// in\n    tag_175:\n      dup1\n      iszero\n      tag_176\n      jumpi\n      dup1\n      0x1f\n      lt\n      tag_177\n      jumpi\n      0x0100\n      dup1\n      dup4\n      sload\n      div\n      mul\n      dup4\n      mstore\n      swap2\n      0x20\n      add\n      swap2\n      jump(tag_176)\n    tag_177:\n      dup3\n      add\n      swap2\n      swap1\n      0x00\n      mstore\n      keccak256(0x00, 0x20)\n      swap1\n    tag_178:\n      dup2\n      sload\n      dup2\n      mstore\n      swap1\n      0x01\n      add\n      swap1\n      0x20\n      add\n      dup1\n      dup4\n      gt\n      tag_178\n      jumpi\n      dup3\n      swap1\n      sub\n      0x1f\n      and\n      dup3\n      add\n      swap2\n    tag_176:\n      pop\n      pop\n      pop\n      pop\n      pop\n      dup2\n      mstore\n      0x20\n      add\n      0x02\n      dup3\n      add\n      sload\n      dup2\n      mstore\n      0x20\n      add\n      0x03\n      dup3\n      add\n      sload\n      dup2\n      mstore\n      pop\n      pop\n      dup2\n      mstore\n      0x20\n      add\n      swap1\n      0x01\n      add\n      swap1\n      jump(tag_171)\n    tag_172:\n      pop\n      pop\n      pop\n      pop\n      swap1\n      pop\n        /* \"contracts/Store.sol\":1652:1747  function getProducts() public view returns(Product[] memory) {\r... */\n      swap1\n      jump\t// out\n        /* \"contracts/Store.sol\":466:536  mapping(uint => mapping(address => Purchase)) public productsPurchases */\n    tag_61:\n      mstore(0x20, 0x03)\n      dup2\n      0x00\n      mstore\n      mstore(0x20, keccak256(0x00, 0x40))\n      dup1\n      0x00\n      mstore\n      keccak256(0x00, 0x40)\n      0x00\n      swap2\n      pop\n      swap2\n      pop\n      pop\n      dup1\n      0x00\n      add\n      sload\n      swap1\n      dup1\n      0x01\n      add\n      sload\n      swap1\n      pop\n      dup3\n      jump\t// out\n        /* \"contracts/Store.sol\":1443:1644  function updateProductQuantity(uint id, uint quantity) public onlyOwner onlyExistingProduct(id) {\r... */\n    tag_67:\n        /* \"contracts/Ownable.sol\":236:241  owner */\n      0x00\n      dup1\n      sload\n      swap1\n      0x0100\n      exp\n      swap1\n      div\n      0xffffffffffffffffffffffffffffffffffffffff\n      and\n        /* \"contracts/Ownable.sol\":222:241  msg.sender == owner */\n      0xffffffffffffffffffffffffffffffffffffffff\n      and\n        /* \"contracts/Ownable.sol\":222:232  msg.sender */\n      caller\n        /* \"contracts/Ownable.sol\":222:241  msg.sender == owner */\n      0xffffffffffffffffffffffffffffffffffffffff\n      and\n      eq\n        /* \"contracts/Ownable.sol\":214:268  require(msg.sender == owner, \"You are not the owner!\") */\n      tag_180\n      jumpi\n      mload(0x40)\n      0x08c379a000000000000000000000000000000000000000000000000000000000\n      dup2\n      mstore\n      0x04\n      add\n      tag_181\n      swap1\n      tag_76\n      jump\t// in\n    tag_181:\n      mload(0x40)\n      dup1\n      swap2\n      sub\n      swap1\n      revert\n    tag_180:\n        /* \"contracts/Store.sol\":1535:1537  id */\n      dup2\n        /* \"contracts/Store.sol\":1367:1375  products */\n      0x01\n        /* \"contracts/Store.sol\":1367:1382  products.length */\n      dup1\n      sload\n      swap1\n      pop\n        /* \"contracts/Store.sol\":1362:1364  id */\n      dup2\n        /* \"contracts/Store.sol\":1362:1382  id < products.length */\n      lt\n        /* \"contracts/Store.sol\":1354:1415  require(id < products.length, \"The product is not existing!\") */\n      tag_183\n      jumpi\n      mload(0x40)\n      0x08c379a000000000000000000000000000000000000000000000000000000000\n      dup2\n      mstore\n      0x04\n      add\n      tag_184\n      swap1\n      tag_131\n      jump\t// in\n    tag_184:\n      mload(0x40)\n      dup1\n      swap2\n      sub\n      swap1\n      revert\n    tag_183:\n        /* \"contracts/Store.sol\":1574:1582  quantity */\n      dup2\n        /* \"contracts/Store.sol\":1550:1558  products */\n      0x01\n        /* \"contracts/Store.sol\":1559:1561  id */\n      dup5\n        /* \"contracts/Store.sol\":1550:1562  products[id] */\n      dup2\n      sload\n      dup2\n      lt\n      tag_186\n      jumpi\n      tag_187\n      tag_102\n      jump\t// in\n    tag_187:\n    tag_186:\n      swap1\n      0x00\n      mstore\n      keccak256(0x00, 0x20)\n      swap1\n      0x04\n      mul\n      add\n        /* \"contracts/Store.sol\":1550:1571  products[id].quantity */\n      0x02\n      add\n        /* \"contracts/Store.sol\":1550:1582  products[id].quantity = quantity */\n      dup2\n      swap1\n      sstore\n      pop\n        /* \"contracts/Store.sol\":1608:1636  ProductUpdated(id, quantity) */\n      0x1a58b4c176a67828ebe2456bc637af85e69b115be11597e049b0669d13bea999\n        /* \"contracts/Store.sol\":1623:1625  id */\n      dup4\n        /* \"contracts/Store.sol\":1627:1635  quantity */\n      dup4\n        /* \"contracts/Store.sol\":1608:1636  ProductUpdated(id, quantity) */\n      mload(0x40)\n      tag_189\n      swap3\n      swap2\n      swap1\n      tag_63\n      jump\t// in\n    tag_189:\n      mload(0x40)\n      dup1\n      swap2\n      sub\n      swap1\n      log1\n        /* \"contracts/Ownable.sol\":279:280  _ */\n      pop\n        /* \"contracts/Store.sol\":1443:1644  function updateProductQuantity(uint id, uint quantity) public onlyOwner onlyExistingProduct(id) {\r... */\n      pop\n      pop\n      jump\t// out\n        /* \"contracts/Store.sol\":591:649  mapping(uint => address[]) public clientAddressesByProduct */\n    tag_71:\n      mstore(0x20, 0x04)\n      dup2\n      0x00\n      mstore\n      keccak256(0x00, 0x40)\n      dup2\n      dup2\n      sload\n      dup2\n      lt\n      tag_190\n      jumpi\n      0x00\n      dup1\n      revert\n    tag_190:\n      swap1\n      0x00\n      mstore\n      keccak256(0x00, 0x20)\n      add\n      0x00\n      swap2\n      pop\n      swap2\n      pop\n      swap1\n      sload\n      swap1\n      0x0100\n      exp\n      swap1\n      div\n      0xffffffffffffffffffffffffffffffffffffffff\n      and\n      dup2\n      jump\t// out\n    tag_88:\n      dup3\n      dup1\n      sload\n      tag_192\n      swap1\n      tag_162\n      jump\t// in\n    tag_192:\n      swap1\n      0x00\n      mstore\n      keccak256(0x00, 0x20)\n      swap1\n      0x1f\n      add\n      0x20\n      swap1\n      div\n      dup2\n      add\n      swap3\n      dup3\n      tag_194\n      jumpi\n      0x00\n      dup6\n      sstore\n      jump(tag_193)\n    tag_194:\n      dup3\n      0x1f\n      lt\n      tag_195\n      jumpi\n      dup1\n      mload\n      not(0xff)\n      and\n      dup4\n      dup1\n      add\n      or\n      dup6\n      sstore\n      jump(tag_193)\n    tag_195:\n      dup3\n      dup1\n      add\n      0x01\n      add\n      dup6\n      sstore\n      dup3\n      iszero\n      tag_193\n      jumpi\n      swap2\n      dup3\n      add\n    tag_196:\n      dup3\n      dup2\n      gt\n      iszero\n      tag_197\n      jumpi\n      dup3\n      mload\n      dup3\n      sstore\n      swap2\n      0x20\n      add\n      swap2\n      swap1\n      0x01\n      add\n      swap1\n      jump(tag_196)\n    tag_197:\n    tag_193:\n      pop\n      swap1\n      pop\n      tag_198\n      swap2\n      swap1\n      tag_199\n      jump\t// in\n    tag_198:\n      pop\n      swap1\n      jump\t// out\n    tag_199:\n    tag_200:\n      dup1\n      dup3\n      gt\n      iszero\n      tag_201\n      jumpi\n      0x00\n      dup2\n      0x00\n      swap1\n      sstore\n      pop\n      0x01\n      add\n      jump(tag_200)\n    tag_201:\n      pop\n      swap1\n      jump\t// out\n        /* \"#utility.yul\":7:419   */\n    tag_203:\n        /* \"#utility.yul\":85:90   */\n      0x00\n        /* \"#utility.yul\":110:176   */\n      tag_205\n        /* \"#utility.yul\":126:175   */\n      tag_206\n        /* \"#utility.yul\":168:174   */\n      dup5\n        /* \"#utility.yul\":126:175   */\n      tag_207\n      jump\t// in\n    tag_206:\n        /* \"#utility.yul\":110:176   */\n      tag_208\n      jump\t// in\n    tag_205:\n        /* \"#utility.yul\":101:176   */\n      swap1\n      pop\n        /* \"#utility.yul\":199:205   */\n      dup3\n        /* \"#utility.yul\":192:197   */\n      dup2\n        /* \"#utility.yul\":185:206   */\n      mstore\n        /* \"#utility.yul\":237:241   */\n      0x20\n        /* \"#utility.yul\":230:235   */\n      dup2\n        /* \"#utility.yul\":226:242   */\n      add\n        /* \"#utility.yul\":275:278   */\n      dup5\n        /* \"#utility.yul\":266:272   */\n      dup5\n        /* \"#utility.yul\":261:264   */\n      dup5\n        /* \"#utility.yul\":257:273   */\n      add\n        /* \"#utility.yul\":254:279   */\n      gt\n        /* \"#utility.yul\":251:363   */\n      iszero\n      tag_209\n      jumpi\n        /* \"#utility.yul\":282:361   */\n      tag_210\n      tag_211\n      jump\t// in\n    tag_210:\n        /* \"#utility.yul\":251:363   */\n    tag_209:\n        /* \"#utility.yul\":372:413   */\n      tag_212\n        /* \"#utility.yul\":406:412   */\n      dup5\n        /* \"#utility.yul\":401:404   */\n      dup3\n        /* \"#utility.yul\":396:399   */\n      dup6\n        /* \"#utility.yul\":372:413   */\n      tag_213\n      jump\t// in\n    tag_212:\n        /* \"#utility.yul\":91:419   */\n      pop\n        /* \"#utility.yul\":7:419   */\n      swap4\n      swap3\n      pop\n      pop\n      pop\n      jump\t// out\n        /* \"#utility.yul\":425:564   */\n    tag_214:\n        /* \"#utility.yul\":471:476   */\n      0x00\n        /* \"#utility.yul\":509:515   */\n      dup2\n        /* \"#utility.yul\":496:516   */\n      calldataload\n        /* \"#utility.yul\":487:516   */\n      swap1\n      pop\n        /* \"#utility.yul\":525:558   */\n      tag_216\n        /* \"#utility.yul\":552:557   */\n      dup2\n        /* \"#utility.yul\":525:558   */\n      tag_217\n      jump\t// in\n    tag_216:\n        /* \"#utility.yul\":425:564   */\n      swap3\n      swap2\n      pop\n      pop\n      jump\t// out\n        /* \"#utility.yul\":584:1137   */\n    tag_218:\n        /* \"#utility.yul\":642:650   */\n      0x00\n        /* \"#utility.yul\":652:658   */\n      dup1\n        /* \"#utility.yul\":702:705   */\n      dup4\n        /* \"#utility.yul\":695:699   */\n      0x1f\n        /* \"#utility.yul\":687:693   */\n      dup5\n        /* \"#utility.yul\":683:700   */\n      add\n        /* \"#utility.yul\":679:706   */\n      slt\n        /* \"#utility.yul\":669:791   */\n      tag_220\n      jumpi\n        /* \"#utility.yul\":710:789   */\n      tag_221\n      tag_222\n      jump\t// in\n    tag_221:\n        /* \"#utility.yul\":669:791   */\n    tag_220:\n        /* \"#utility.yul\":823:829   */\n      dup3\n        /* \"#utility.yul\":810:830   */\n      calldataload\n        /* \"#utility.yul\":800:830   */\n      swap1\n      pop\n        /* \"#utility.yul\":853:871   */\n      0xffffffffffffffff\n        /* \"#utility.yul\":845:851   */\n      dup2\n        /* \"#utility.yul\":842:872   */\n      gt\n        /* \"#utility.yul\":839:956   */\n      iszero\n      tag_223\n      jumpi\n        /* \"#utility.yul\":875:954   */\n      tag_224\n      tag_225\n      jump\t// in\n    tag_224:\n        /* \"#utility.yul\":839:956   */\n    tag_223:\n        /* \"#utility.yul\":989:993   */\n      0x20\n        /* \"#utility.yul\":981:987   */\n      dup4\n        /* \"#utility.yul\":977:994   */\n      add\n        /* \"#utility.yul\":965:994   */\n      swap2\n      pop\n        /* \"#utility.yul\":1043:1046   */\n      dup4\n        /* \"#utility.yul\":1035:1039   */\n      0x01\n        /* \"#utility.yul\":1027:1033   */\n      dup3\n        /* \"#utility.yul\":1023:1040   */\n      mul\n        /* \"#utility.yul\":1013:1021   */\n      dup4\n        /* \"#utility.yul\":1009:1041   */\n      add\n        /* \"#utility.yul\":1006:1047   */\n      gt\n        /* \"#utility.yul\":1003:1131   */\n      iszero\n      tag_226\n      jumpi\n        /* \"#utility.yul\":1050:1129   */\n      tag_227\n      tag_228\n      jump\t// in\n    tag_227:\n        /* \"#utility.yul\":1003:1131   */\n    tag_226:\n        /* \"#utility.yul\":584:1137   */\n      swap3\n      pop\n      swap3\n      swap1\n      pop\n      jump\t// out\n        /* \"#utility.yul\":1157:1497   */\n    tag_229:\n        /* \"#utility.yul\":1213:1218   */\n      0x00\n        /* \"#utility.yul\":1262:1265   */\n      dup3\n        /* \"#utility.yul\":1255:1259   */\n      0x1f\n        /* \"#utility.yul\":1247:1253   */\n      dup4\n        /* \"#utility.yul\":1243:1260   */\n      add\n        /* \"#utility.yul\":1239:1266   */\n      slt\n        /* \"#utility.yul\":1229:1351   */\n      tag_231\n      jumpi\n        /* \"#utility.yul\":1270:1349   */\n      tag_232\n      tag_222\n      jump\t// in\n    tag_232:\n        /* \"#utility.yul\":1229:1351   */\n    tag_231:\n        /* \"#utility.yul\":1387:1393   */\n      dup2\n        /* \"#utility.yul\":1374:1394   */\n      calldataload\n        /* \"#utility.yul\":1412:1491   */\n      tag_233\n        /* \"#utility.yul\":1487:1490   */\n      dup5\n        /* \"#utility.yul\":1479:1485   */\n      dup3\n        /* \"#utility.yul\":1472:1476   */\n      0x20\n        /* \"#utility.yul\":1464:1470   */\n      dup7\n        /* \"#utility.yul\":1460:1477   */\n      add\n        /* \"#utility.yul\":1412:1491   */\n      tag_203\n      jump\t// in\n    tag_233:\n        /* \"#utility.yul\":1403:1491   */\n      swap2\n      pop\n        /* \"#utility.yul\":1219:1497   */\n      pop\n        /* \"#utility.yul\":1157:1497   */\n      swap3\n      swap2\n      pop\n      pop\n      jump\t// out\n        /* \"#utility.yul\":1503:1642   */\n    tag_234:\n        /* \"#utility.yul\":1549:1554   */\n      0x00\n        /* \"#utility.yul\":1587:1593   */\n      dup2\n        /* \"#utility.yul\":1574:1594   */\n      calldataload\n        /* \"#utility.yul\":1565:1594   */\n      swap1\n      pop\n        /* \"#utility.yul\":1603:1636   */\n      tag_236\n        /* \"#utility.yul\":1630:1635   */\n      dup2\n        /* \"#utility.yul\":1603:1636   */\n      tag_237\n      jump\t// in\n    tag_236:\n        /* \"#utility.yul\":1503:1642   */\n      swap3\n      swap2\n      pop\n      pop\n      jump\t// out\n        /* \"#utility.yul\":1648:2467   */\n    tag_17:\n        /* \"#utility.yul\":1737:1743   */\n      0x00\n        /* \"#utility.yul\":1745:1751   */\n      dup1\n        /* \"#utility.yul\":1753:1759   */\n      0x00\n        /* \"#utility.yul\":1761:1767   */\n      dup1\n        /* \"#utility.yul\":1810:1812   */\n      0x60\n        /* \"#utility.yul\":1798:1807   */\n      dup6\n        /* \"#utility.yul\":1789:1796   */\n      dup8\n        /* \"#utility.yul\":1785:1808   */\n      sub\n        /* \"#utility.yul\":1781:1813   */\n      slt\n        /* \"#utility.yul\":1778:1897   */\n      iszero\n      tag_239\n      jumpi\n        /* \"#utility.yul\":1816:1895   */\n      tag_240\n      tag_241\n      jump\t// in\n    tag_240:\n        /* \"#utility.yul\":1778:1897   */\n    tag_239:\n        /* \"#utility.yul\":1964:1965   */\n      0x00\n        /* \"#utility.yul\":1953:1962   */\n      dup6\n        /* \"#utility.yul\":1949:1966   */\n      add\n        /* \"#utility.yul\":1936:1967   */\n      calldataload\n        /* \"#utility.yul\":1994:2012   */\n      0xffffffffffffffff\n        /* \"#utility.yul\":1986:1992   */\n      dup2\n        /* \"#utility.yul\":1983:2013   */\n      gt\n        /* \"#utility.yul\":1980:2097   */\n      iszero\n      tag_242\n      jumpi\n        /* \"#utility.yul\":2016:2095   */\n      tag_243\n      tag_244\n      jump\t// in\n    tag_243:\n        /* \"#utility.yul\":1980:2097   */\n    tag_242:\n        /* \"#utility.yul\":2129:2194   */\n      tag_245\n        /* \"#utility.yul\":2186:2193   */\n      dup8\n        /* \"#utility.yul\":2177:2183   */\n      dup3\n        /* \"#utility.yul\":2166:2175   */\n      dup9\n        /* \"#utility.yul\":2162:2184   */\n      add\n        /* \"#utility.yul\":2129:2194   */\n      tag_218\n      jump\t// in\n    tag_245:\n        /* \"#utility.yul\":2111:2194   */\n      swap5\n      pop\n      swap5\n      pop\n        /* \"#utility.yul\":1907:2204   */\n      pop\n        /* \"#utility.yul\":2243:2245   */\n      0x20\n        /* \"#utility.yul\":2269:2322   */\n      tag_246\n        /* \"#utility.yul\":2314:2321   */\n      dup8\n        /* \"#utility.yul\":2305:2311   */\n      dup3\n        /* \"#utility.yul\":2294:2303   */\n      dup9\n        /* \"#utility.yul\":2290:2312   */\n      add\n        /* \"#utility.yul\":2269:2322   */\n      tag_234\n      jump\t// in\n    tag_246:\n        /* \"#utility.yul\":2259:2322   */\n      swap3\n      pop\n        /* \"#utility.yul\":2214:2332   */\n      pop\n        /* \"#utility.yul\":2371:2373   */\n      0x40\n        /* \"#utility.yul\":2397:2450   */\n      tag_247\n        /* \"#utility.yul\":2442:2449   */\n      dup8\n        /* \"#utility.yul\":2433:2439   */\n      dup3\n        /* \"#utility.yul\":2422:2431   */\n      dup9\n        /* \"#utility.yul\":2418:2440   */\n      add\n        /* \"#utility.yul\":2397:2450   */\n      tag_234\n      jump\t// in\n    tag_247:\n        /* \"#utility.yul\":2387:2450   */\n      swap2\n      pop\n        /* \"#utility.yul\":2342:2460   */\n      pop\n        /* \"#utility.yul\":1648:2467   */\n      swap3\n      swap6\n      swap2\n      swap5\n      pop\n      swap3\n      pop\n      jump\t// out\n        /* \"#utility.yul\":2473:2982   */\n    tag_27:\n        /* \"#utility.yul\":2542:2548   */\n      0x00\n        /* \"#utility.yul\":2591:2593   */\n      0x20\n        /* \"#utility.yul\":2579:2588   */\n      dup3\n        /* \"#utility.yul\":2570:2577   */\n      dup5\n        /* \"#utility.yul\":2566:2589   */\n      sub\n        /* \"#utility.yul\":2562:2594   */\n      slt\n        /* \"#utility.yul\":2559:2678   */\n      iszero\n      tag_249\n      jumpi\n        /* \"#utility.yul\":2597:2676   */\n      tag_250\n      tag_241\n      jump\t// in\n    tag_250:\n        /* \"#utility.yul\":2559:2678   */\n    tag_249:\n        /* \"#utility.yul\":2745:2746   */\n      0x00\n        /* \"#utility.yul\":2734:2743   */\n      dup3\n        /* \"#utility.yul\":2730:2747   */\n      add\n        /* \"#utility.yul\":2717:2748   */\n      calldataload\n        /* \"#utility.yul\":2775:2793   */\n      0xffffffffffffffff\n        /* \"#utility.yul\":2767:2773   */\n      dup2\n        /* \"#utility.yul\":2764:2794   */\n      gt\n        /* \"#utility.yul\":2761:2878   */\n      iszero\n      tag_251\n      jumpi\n        /* \"#utility.yul\":2797:2876   */\n      tag_252\n      tag_244\n      jump\t// in\n    tag_252:\n        /* \"#utility.yul\":2761:2878   */\n    tag_251:\n        /* \"#utility.yul\":2902:2965   */\n      tag_253\n        /* \"#utility.yul\":2957:2964   */\n      dup5\n        /* \"#utility.yul\":2948:2954   */\n      dup3\n        /* \"#utility.yul\":2937:2946   */\n      dup6\n        /* \"#utility.yul\":2933:2955   */\n      add\n        /* \"#utility.yul\":2902:2965   */\n      tag_229\n      jump\t// in\n    tag_253:\n        /* \"#utility.yul\":2892:2965   */\n      swap2\n      pop\n        /* \"#utility.yul\":2688:2975   */\n      pop\n        /* \"#utility.yul\":2473:2982   */\n      swap3\n      swap2\n      pop\n      pop\n      jump\t// out\n        /* \"#utility.yul\":2988:3317   */\n    tag_22:\n        /* \"#utility.yul\":3047:3053   */\n      0x00\n        /* \"#utility.yul\":3096:3098   */\n      0x20\n        /* \"#utility.yul\":3084:3093   */\n      dup3\n        /* \"#utility.yul\":3075:3082   */\n      dup5\n        /* \"#utility.yul\":3071:3094   */\n      sub\n        /* \"#utility.yul\":3067:3099   */\n      slt\n        /* \"#utility.yul\":3064:3183   */\n      iszero\n      tag_255\n      jumpi\n        /* \"#utility.yul\":3102:3181   */\n      tag_256\n      tag_241\n      jump\t// in\n    tag_256:\n        /* \"#utility.yul\":3064:3183   */\n    tag_255:\n        /* \"#utility.yul\":3222:3223   */\n      0x00\n        /* \"#utility.yul\":3247:3300   */\n      tag_257\n        /* \"#utility.yul\":3292:3299   */\n      dup5\n        /* \"#utility.yul\":3283:3289   */\n      dup3\n        /* \"#utility.yul\":3272:3281   */\n      dup6\n        /* \"#utility.yul\":3268:3290   */\n      add\n        /* \"#utility.yul\":3247:3300   */\n      tag_234\n      jump\t// in\n    tag_257:\n        /* \"#utility.yul\":3237:3300   */\n      swap2\n      pop\n        /* \"#utility.yul\":3193:3310   */\n      pop\n        /* \"#utility.yul\":2988:3317   */\n      swap3\n      swap2\n      pop\n      pop\n      jump\t// out\n        /* \"#utility.yul\":3323:3797   */\n    tag_60:\n        /* \"#utility.yul\":3391:3397   */\n      0x00\n        /* \"#utility.yul\":3399:3405   */\n      dup1\n        /* \"#utility.yul\":3448:3450   */\n      0x40\n        /* \"#utility.yul\":3436:3445   */\n      dup4\n        /* \"#utility.yul\":3427:3434   */\n      dup6\n        /* \"#utility.yul\":3423:3446   */\n      sub\n        /* \"#utility.yul\":3419:3451   */\n      slt\n        /* \"#utility.yul\":3416:3535   */\n      iszero\n      tag_259\n      jumpi\n        /* \"#utility.yul\":3454:3533   */\n      tag_260\n      tag_241\n      jump\t// in\n    tag_260:\n        /* \"#utility.yul\":3416:3535   */\n    tag_259:\n        /* \"#utility.yul\":3574:3575   */\n      0x00\n        /* \"#utility.yul\":3599:3652   */\n      tag_261\n        /* \"#utility.yul\":3644:3651   */\n      dup6\n        /* \"#utility.yul\":3635:3641   */\n      dup3\n        /* \"#utility.yul\":3624:3633   */\n      dup7\n        /* \"#utility.yul\":3620:3642   */\n      add\n        /* \"#utility.yul\":3599:3652   */\n      tag_234\n      jump\t// in\n    tag_261:\n        /* \"#utility.yul\":3589:3652   */\n      swap3\n      pop\n        /* \"#utility.yul\":3545:3662   */\n      pop\n        /* \"#utility.yul\":3701:3703   */\n      0x20\n        /* \"#utility.yul\":3727:3780   */\n      tag_262\n        /* \"#utility.yul\":3772:3779   */\n      dup6\n        /* \"#utility.yul\":3763:3769   */\n      dup3\n        /* \"#utility.yul\":3752:3761   */\n      dup7\n        /* \"#utility.yul\":3748:3770   */\n      add\n        /* \"#utility.yul\":3727:3780   */\n      tag_214\n      jump\t// in\n    tag_262:\n        /* \"#utility.yul\":3717:3780   */\n      swap2\n      pop\n        /* \"#utility.yul\":3672:3790   */\n      pop\n        /* \"#utility.yul\":3323:3797   */\n      swap3\n      pop\n      swap3\n      swap1\n      pop\n      jump\t// out\n        /* \"#utility.yul\":3803:4277   */\n    tag_33:\n        /* \"#utility.yul\":3871:3877   */\n      0x00\n        /* \"#utility.yul\":3879:3885   */\n      dup1\n        /* \"#utility.yul\":3928:3930   */\n      0x40\n        /* \"#utility.yul\":3916:3925   */\n      dup4\n        /* \"#utility.yul\":3907:3914   */\n      dup6\n        /* \"#utility.yul\":3903:3926   */\n      sub\n        /* \"#utility.yul\":3899:3931   */\n      slt\n        /* \"#utility.yul\":3896:4015   */\n      iszero\n      tag_264\n      jumpi\n        /* \"#utility.yul\":3934:4013   */\n      tag_265\n      tag_241\n      jump\t// in\n    tag_265:\n        /* \"#utility.yul\":3896:4015   */\n    tag_264:\n        /* \"#utility.yul\":4054:4055   */\n      0x00\n        /* \"#utility.yul\":4079:4132   */\n      tag_266\n        /* \"#utility.yul\":4124:4131   */\n      dup6\n        /* \"#utility.yul\":4115:4121   */\n      dup3\n        /* \"#utility.yul\":4104:4113   */\n      dup7\n        /* \"#utility.yul\":4100:4122   */\n      add\n        /* \"#utility.yul\":4079:4132   */\n      tag_234\n      jump\t// in\n    tag_266:\n        /* \"#utility.yul\":4069:4132   */\n      swap3\n      pop\n        /* \"#utility.yul\":4025:4142   */\n      pop\n        /* \"#utility.yul\":4181:4183   */\n      0x20\n        /* \"#utility.yul\":4207:4260   */\n      tag_267\n        /* \"#utility.yul\":4252:4259   */\n      dup6\n        /* \"#utility.yul\":4243:4249   */\n      dup3\n        /* \"#utility.yul\":4232:4241   */\n      dup7\n        /* \"#utility.yul\":4228:4250   */\n      add\n        /* \"#utility.yul\":4207:4260   */\n      tag_234\n      jump\t// in\n    tag_267:\n        /* \"#utility.yul\":4197:4260   */\n      swap2\n      pop\n        /* \"#utility.yul\":4152:4270   */\n      pop\n        /* \"#utility.yul\":3803:4277   */\n      swap3\n      pop\n      swap3\n      swap1\n      pop\n      jump\t// out\n        /* \"#utility.yul\":4283:4462   */\n    tag_268:\n        /* \"#utility.yul\":4352:4362   */\n      0x00\n        /* \"#utility.yul\":4373:4419   */\n      tag_270\n        /* \"#utility.yul\":4415:4418   */\n      dup4\n        /* \"#utility.yul\":4407:4413   */\n      dup4\n        /* \"#utility.yul\":4373:4419   */\n      tag_271\n      jump\t// in\n    tag_270:\n        /* \"#utility.yul\":4451:4455   */\n      0x20\n        /* \"#utility.yul\":4446:4449   */\n      dup4\n        /* \"#utility.yul\":4442:4456   */\n      add\n        /* \"#utility.yul\":4428:4456   */\n      swap1\n      pop\n        /* \"#utility.yul\":4283:4462   */\n      swap3\n      swap2\n      pop\n      pop\n      jump\t// out\n        /* \"#utility.yul\":4468:4716   */\n    tag_272:\n        /* \"#utility.yul\":4583:4593   */\n      0x00\n        /* \"#utility.yul\":4618:4710   */\n      tag_274\n        /* \"#utility.yul\":4706:4709   */\n      dup4\n        /* \"#utility.yul\":4698:4704   */\n      dup4\n        /* \"#utility.yul\":4618:4710   */\n      tag_275\n      jump\t// in\n    tag_274:\n        /* \"#utility.yul\":4604:4710   */\n      swap1\n      pop\n        /* \"#utility.yul\":4468:4716   */\n      swap3\n      swap2\n      pop\n      pop\n      jump\t// out\n        /* \"#utility.yul\":4722:4830   */\n    tag_271:\n        /* \"#utility.yul\":4799:4823   */\n      tag_277\n        /* \"#utility.yul\":4817:4822   */\n      dup2\n        /* \"#utility.yul\":4799:4823   */\n      tag_278\n      jump\t// in\n    tag_277:\n        /* \"#utility.yul\":4794:4797   */\n      dup3\n        /* \"#utility.yul\":4787:4824   */\n      mstore\n        /* \"#utility.yul\":4722:4830   */\n      pop\n      pop\n      jump\t// out\n        /* \"#utility.yul\":4836:4954   */\n    tag_279:\n        /* \"#utility.yul\":4923:4947   */\n      tag_281\n        /* \"#utility.yul\":4941:4946   */\n      dup2\n        /* \"#utility.yul\":4923:4947   */\n      tag_278\n      jump\t// in\n    tag_281:\n        /* \"#utility.yul\":4918:4921   */\n      dup3\n        /* \"#utility.yul\":4911:4948   */\n      mstore\n        /* \"#utility.yul\":4836:4954   */\n      pop\n      pop\n      jump\t// out\n        /* \"#utility.yul\":4990:5722   */\n    tag_282:\n        /* \"#utility.yul\":5109:5112   */\n      0x00\n        /* \"#utility.yul\":5138:5192   */\n      tag_284\n        /* \"#utility.yul\":5186:5191   */\n      dup3\n        /* \"#utility.yul\":5138:5192   */\n      tag_285\n      jump\t// in\n    tag_284:\n        /* \"#utility.yul\":5208:5294   */\n      tag_286\n        /* \"#utility.yul\":5287:5293   */\n      dup2\n        /* \"#utility.yul\":5282:5285   */\n      dup6\n        /* \"#utility.yul\":5208:5294   */\n      tag_287\n      jump\t// in\n    tag_286:\n        /* \"#utility.yul\":5201:5294   */\n      swap4\n      pop\n        /* \"#utility.yul\":5318:5374   */\n      tag_288\n        /* \"#utility.yul\":5368:5373   */\n      dup4\n        /* \"#utility.yul\":5318:5374   */\n      tag_289\n      jump\t// in\n    tag_288:\n        /* \"#utility.yul\":5397:5404   */\n      dup1\n        /* \"#utility.yul\":5428:5429   */\n      0x00\n        /* \"#utility.yul\":5413:5697   */\n    tag_290:\n        /* \"#utility.yul\":5438:5444   */\n      dup4\n        /* \"#utility.yul\":5435:5436   */\n      dup2\n        /* \"#utility.yul\":5432:5445   */\n      lt\n        /* \"#utility.yul\":5413:5697   */\n      iszero\n      tag_292\n      jumpi\n        /* \"#utility.yul\":5514:5520   */\n      dup2\n        /* \"#utility.yul\":5508:5521   */\n      mload\n        /* \"#utility.yul\":5541:5604   */\n      tag_293\n        /* \"#utility.yul\":5600:5603   */\n      dup9\n        /* \"#utility.yul\":5585:5598   */\n      dup3\n        /* \"#utility.yul\":5541:5604   */\n      tag_268\n      jump\t// in\n    tag_293:\n        /* \"#utility.yul\":5534:5604   */\n      swap8\n      pop\n        /* \"#utility.yul\":5627:5687   */\n      tag_294\n        /* \"#utility.yul\":5680:5686   */\n      dup4\n        /* \"#utility.yul\":5627:5687   */\n      tag_295\n      jump\t// in\n    tag_294:\n        /* \"#utility.yul\":5617:5687   */\n      swap3\n      pop\n        /* \"#utility.yul\":5473:5697   */\n      pop\n        /* \"#utility.yul\":5460:5461   */\n      0x01\n        /* \"#utility.yul\":5457:5458   */\n      dup2\n        /* \"#utility.yul\":5453:5462   */\n      add\n        /* \"#utility.yul\":5448:5462   */\n      swap1\n      pop\n        /* \"#utility.yul\":5413:5697   */\n      jump(tag_290)\n    tag_292:\n        /* \"#utility.yul\":5417:5431   */\n      pop\n        /* \"#utility.yul\":5713:5716   */\n      dup6\n        /* \"#utility.yul\":5706:5716   */\n      swap4\n      pop\n        /* \"#utility.yul\":5114:5722   */\n      pop\n      pop\n      pop\n        /* \"#utility.yul\":4990:5722   */\n      swap3\n      swap2\n      pop\n      pop\n      jump\t// out\n        /* \"#utility.yul\":5784:6879   */\n    tag_296:\n        /* \"#utility.yul\":5949:5952   */\n      0x00\n        /* \"#utility.yul\":5978:6055   */\n      tag_298\n        /* \"#utility.yul\":6049:6054   */\n      dup3\n        /* \"#utility.yul\":5978:6055   */\n      tag_299\n      jump\t// in\n    tag_298:\n        /* \"#utility.yul\":6071:6180   */\n      tag_300\n        /* \"#utility.yul\":6173:6179   */\n      dup2\n        /* \"#utility.yul\":6168:6171   */\n      dup6\n        /* \"#utility.yul\":6071:6180   */\n      tag_301\n      jump\t// in\n    tag_300:\n        /* \"#utility.yul\":6064:6180   */\n      swap4\n      pop\n        /* \"#utility.yul\":6206:6209   */\n      dup4\n        /* \"#utility.yul\":6251:6255   */\n      0x20\n        /* \"#utility.yul\":6243:6249   */\n      dup3\n        /* \"#utility.yul\":6239:6256   */\n      mul\n        /* \"#utility.yul\":6234:6237   */\n      dup6\n        /* \"#utility.yul\":6230:6257   */\n      add\n        /* \"#utility.yul\":6281:6360   */\n      tag_302\n        /* \"#utility.yul\":6354:6359   */\n      dup6\n        /* \"#utility.yul\":6281:6360   */\n      tag_303\n      jump\t// in\n    tag_302:\n        /* \"#utility.yul\":6383:6390   */\n      dup1\n        /* \"#utility.yul\":6414:6415   */\n      0x00\n        /* \"#utility.yul\":6399:6834   */\n    tag_304:\n        /* \"#utility.yul\":6424:6430   */\n      dup6\n        /* \"#utility.yul\":6421:6422   */\n      dup2\n        /* \"#utility.yul\":6418:6431   */\n      lt\n        /* \"#utility.yul\":6399:6834   */\n      iszero\n      tag_306\n      jumpi\n        /* \"#utility.yul\":6495:6504   */\n      dup5\n        /* \"#utility.yul\":6489:6493   */\n      dup5\n        /* \"#utility.yul\":6485:6505   */\n      sub\n        /* \"#utility.yul\":6480:6483   */\n      dup10\n        /* \"#utility.yul\":6473:6506   */\n      mstore\n        /* \"#utility.yul\":6546:6552   */\n      dup2\n        /* \"#utility.yul\":6540:6553   */\n      mload\n        /* \"#utility.yul\":6574:6684   */\n      tag_307\n        /* \"#utility.yul\":6679:6683   */\n      dup6\n        /* \"#utility.yul\":6664:6677   */\n      dup3\n        /* \"#utility.yul\":6574:6684   */\n      tag_272\n      jump\t// in\n    tag_307:\n        /* \"#utility.yul\":6566:6684   */\n      swap5\n      pop\n        /* \"#utility.yul\":6707:6790   */\n      tag_308\n        /* \"#utility.yul\":6783:6789   */\n      dup4\n        /* \"#utility.yul\":6707:6790   */\n      tag_309\n      jump\t// in\n    tag_308:\n        /* \"#utility.yul\":6697:6790   */\n      swap3\n      pop\n        /* \"#utility.yul\":6819:6823   */\n      0x20\n        /* \"#utility.yul\":6814:6817   */\n      dup11\n        /* \"#utility.yul\":6810:6824   */\n      add\n        /* \"#utility.yul\":6803:6824   */\n      swap10\n      pop\n        /* \"#utility.yul\":6459:6834   */\n      pop\n        /* \"#utility.yul\":6446:6447   */\n      0x01\n        /* \"#utility.yul\":6443:6444   */\n      dup2\n        /* \"#utility.yul\":6439:6448   */\n      add\n        /* \"#utility.yul\":6434:6448   */\n      swap1\n      pop\n        /* \"#utility.yul\":6399:6834   */\n      jump(tag_304)\n    tag_306:\n        /* \"#utility.yul\":6403:6417   */\n      pop\n        /* \"#utility.yul\":6850:6854   */\n      dup3\n        /* \"#utility.yul\":6843:6854   */\n      swap8\n      pop\n        /* \"#utility.yul\":6870:6873   */\n      dup8\n        /* \"#utility.yul\":6863:6873   */\n      swap6\n      pop\n        /* \"#utility.yul\":5954:6879   */\n      pop\n      pop\n      pop\n      pop\n      pop\n        /* \"#utility.yul\":5784:6879   */\n      swap3\n      swap2\n      pop\n      pop\n      jump\t// out\n        /* \"#utility.yul\":6885:6994   */\n    tag_310:\n        /* \"#utility.yul\":6966:6987   */\n      tag_312\n        /* \"#utility.yul\":6981:6986   */\n      dup2\n        /* \"#utility.yul\":6966:6987   */\n      tag_313\n      jump\t// in\n    tag_312:\n        /* \"#utility.yul\":6961:6964   */\n      dup3\n        /* \"#utility.yul\":6954:6988   */\n      mstore\n        /* \"#utility.yul\":6885:6994   */\n      pop\n      pop\n      jump\t// out\n        /* \"#utility.yul\":7024:7328   */\n    tag_314:\n        /* \"#utility.yul\":7122:7125   */\n      0x00\n        /* \"#utility.yul\":7143:7214   */\n      tag_316\n        /* \"#utility.yul\":7207:7213   */\n      dup4\n        /* \"#utility.yul\":7202:7205   */\n      dup6\n        /* \"#utility.yul\":7143:7214   */\n      tag_317\n      jump\t// in\n    tag_316:\n        /* \"#utility.yul\":7136:7214   */\n      swap4\n      pop\n        /* \"#utility.yul\":7224:7267   */\n      tag_318\n        /* \"#utility.yul\":7260:7266   */\n      dup4\n        /* \"#utility.yul\":7255:7258   */\n      dup6\n        /* \"#utility.yul\":7248:7253   */\n      dup5\n        /* \"#utility.yul\":7224:7267   */\n      tag_213\n      jump\t// in\n    tag_318:\n        /* \"#utility.yul\":7292:7321   */\n      tag_319\n        /* \"#utility.yul\":7314:7320   */\n      dup4\n        /* \"#utility.yul\":7292:7321   */\n      tag_320\n      jump\t// in\n    tag_319:\n        /* \"#utility.yul\":7287:7290   */\n      dup5\n        /* \"#utility.yul\":7283:7322   */\n      add\n        /* \"#utility.yul\":7276:7322   */\n      swap1\n      pop\n        /* \"#utility.yul\":7024:7328   */\n      swap4\n      swap3\n      pop\n      pop\n      pop\n      jump\t// out\n        /* \"#utility.yul\":7358:7675   */\n    tag_321:\n        /* \"#utility.yul\":7474:7477   */\n      0x00\n        /* \"#utility.yul\":7495:7584   */\n      tag_323\n        /* \"#utility.yul\":7577:7583   */\n      dup4\n        /* \"#utility.yul\":7572:7575   */\n      dup6\n        /* \"#utility.yul\":7495:7584   */\n      tag_324\n      jump\t// in\n    tag_323:\n        /* \"#utility.yul\":7488:7584   */\n      swap4\n      pop\n        /* \"#utility.yul\":7594:7637   */\n      tag_325\n        /* \"#utility.yul\":7630:7636   */\n      dup4\n        /* \"#utility.yul\":7625:7628   */\n      dup6\n        /* \"#utility.yul\":7618:7623   */\n      dup5\n        /* \"#utility.yul\":7594:7637   */\n      tag_213\n      jump\t// in\n    tag_325:\n        /* \"#utility.yul\":7662:7668   */\n      dup3\n        /* \"#utility.yul\":7657:7660   */\n      dup5\n        /* \"#utility.yul\":7653:7669   */\n      add\n        /* \"#utility.yul\":7646:7669   */\n      swap1\n      pop\n        /* \"#utility.yul\":7358:7675   */\n      swap4\n      swap3\n      pop\n      pop\n      pop\n      jump\t// out\n        /* \"#utility.yul\":7681:8025   */\n    tag_326:\n        /* \"#utility.yul\":7759:7762   */\n      0x00\n        /* \"#utility.yul\":7787:7826   */\n      tag_328\n        /* \"#utility.yul\":7820:7825   */\n      dup3\n        /* \"#utility.yul\":7787:7826   */\n      tag_329\n      jump\t// in\n    tag_328:\n        /* \"#utility.yul\":7842:7903   */\n      tag_330\n        /* \"#utility.yul\":7896:7902   */\n      dup2\n        /* \"#utility.yul\":7891:7894   */\n      dup6\n        /* \"#utility.yul\":7842:7903   */\n      tag_331\n      jump\t// in\n    tag_330:\n        /* \"#utility.yul\":7835:7903   */\n      swap4\n      pop\n        /* \"#utility.yul\":7912:7964   */\n      tag_332\n        /* \"#utility.yul\":7957:7963   */\n      dup2\n        /* \"#utility.yul\":7952:7955   */\n      dup6\n        /* \"#utility.yul\":7945:7949   */\n      0x20\n        /* \"#utility.yul\":7938:7943   */\n      dup7\n        /* \"#utility.yul\":7934:7950   */\n      add\n        /* \"#utility.yul\":7912:7964   */\n      tag_333\n      jump\t// in\n    tag_332:\n        /* \"#utility.yul\":7989:8018   */\n      tag_334\n        /* \"#utility.yul\":8011:8017   */\n      dup2\n        /* \"#utility.yul\":7989:8018   */\n      tag_320\n      jump\t// in\n    tag_334:\n        /* \"#utility.yul\":7984:7987   */\n      dup5\n        /* \"#utility.yul\":7980:8019   */\n      add\n        /* \"#utility.yul\":7973:8019   */\n      swap2\n      pop\n        /* \"#utility.yul\":7763:8025   */\n      pop\n        /* \"#utility.yul\":7681:8025   */\n      swap3\n      swap2\n      pop\n      pop\n      jump\t// out\n        /* \"#utility.yul\":8031:8395   */\n    tag_335:\n        /* \"#utility.yul\":8119:8122   */\n      0x00\n        /* \"#utility.yul\":8147:8186   */\n      tag_337\n        /* \"#utility.yul\":8180:8185   */\n      dup3\n        /* \"#utility.yul\":8147:8186   */\n      tag_329\n      jump\t// in\n    tag_337:\n        /* \"#utility.yul\":8202:8273   */\n      tag_338\n        /* \"#utility.yul\":8266:8272   */\n      dup2\n        /* \"#utility.yul\":8261:8264   */\n      dup6\n        /* \"#utility.yul\":8202:8273   */\n      tag_317\n      jump\t// in\n    tag_338:\n        /* \"#utility.yul\":8195:8273   */\n      swap4\n      pop\n        /* \"#utility.yul\":8282:8334   */\n      tag_339\n        /* \"#utility.yul\":8327:8333   */\n      dup2\n        /* \"#utility.yul\":8322:8325   */\n      dup6\n        /* \"#utility.yul\":8315:8319   */\n      0x20\n        /* \"#utility.yul\":8308:8313   */\n      dup7\n        /* \"#utility.yul\":8304:8320   */\n      add\n        /* \"#utility.yul\":8282:8334   */\n      tag_333\n      jump\t// in\n    tag_339:\n        /* \"#utility.yul\":8359:8388   */\n      tag_340\n        /* \"#utility.yul\":8381:8387   */\n      dup2\n        /* \"#utility.yul\":8359:8388   */\n      tag_320\n      jump\t// in\n    tag_340:\n        /* \"#utility.yul\":8354:8357   */\n      dup5\n        /* \"#utility.yul\":8350:8389   */\n      add\n        /* \"#utility.yul\":8343:8389   */\n      swap2\n      pop\n        /* \"#utility.yul\":8123:8395   */\n      pop\n        /* \"#utility.yul\":8031:8395   */\n      swap3\n      swap2\n      pop\n      pop\n      jump\t// out\n        /* \"#utility.yul\":8401:8767   */\n    tag_341:\n        /* \"#utility.yul\":8543:8546   */\n      0x00\n        /* \"#utility.yul\":8564:8631   */\n      tag_343\n        /* \"#utility.yul\":8628:8630   */\n      0x16\n        /* \"#utility.yul\":8623:8626   */\n      dup4\n        /* \"#utility.yul\":8564:8631   */\n      tag_317\n      jump\t// in\n    tag_343:\n        /* \"#utility.yul\":8557:8631   */\n      swap2\n      pop\n        /* \"#utility.yul\":8640:8733   */\n      tag_344\n        /* \"#utility.yul\":8729:8732   */\n      dup3\n        /* \"#utility.yul\":8640:8733   */\n      tag_345\n      jump\t// in\n    tag_344:\n        /* \"#utility.yul\":8758:8760   */\n      0x20\n        /* \"#utility.yul\":8753:8756   */\n      dup3\n        /* \"#utility.yul\":8749:8761   */\n      add\n        /* \"#utility.yul\":8742:8761   */\n      swap1\n      pop\n        /* \"#utility.yul\":8401:8767   */\n      swap2\n      swap1\n      pop\n      jump\t// out\n        /* \"#utility.yul\":8773:9139   */\n    tag_346:\n        /* \"#utility.yul\":8915:8918   */\n      0x00\n        /* \"#utility.yul\":8936:9003   */\n      tag_348\n        /* \"#utility.yul\":9000:9002   */\n      0x2d\n        /* \"#utility.yul\":8995:8998   */\n      dup4\n        /* \"#utility.yul\":8936:9003   */\n      tag_317\n      jump\t// in\n    tag_348:\n        /* \"#utility.yul\":8929:9003   */\n      swap2\n      pop\n        /* \"#utility.yul\":9012:9105   */\n      tag_349\n        /* \"#utility.yul\":9101:9104   */\n      dup3\n        /* \"#utility.yul\":9012:9105   */\n      tag_350\n      jump\t// in\n    tag_349:\n        /* \"#utility.yul\":9130:9132   */\n      0x40\n        /* \"#utility.yul\":9125:9128   */\n      dup3\n        /* \"#utility.yul\":9121:9133   */\n      add\n        /* \"#utility.yul\":9114:9133   */\n      swap1\n      pop\n        /* \"#utility.yul\":8773:9139   */\n      swap2\n      swap1\n      pop\n      jump\t// out\n        /* \"#utility.yul\":9145:9511   */\n    tag_351:\n        /* \"#utility.yul\":9287:9290   */\n      0x00\n        /* \"#utility.yul\":9308:9375   */\n      tag_353\n        /* \"#utility.yul\":9372:9374   */\n      0x1c\n        /* \"#utility.yul\":9367:9370   */\n      dup4\n        /* \"#utility.yul\":9308:9375   */\n      tag_317\n      jump\t// in\n    tag_353:\n        /* \"#utility.yul\":9301:9375   */\n      swap2\n      pop\n        /* \"#utility.yul\":9384:9477   */\n      tag_354\n        /* \"#utility.yul\":9473:9476   */\n      dup3\n        /* \"#utility.yul\":9384:9477   */\n      tag_355\n      jump\t// in\n    tag_354:\n        /* \"#utility.yul\":9502:9504   */\n      0x20\n        /* \"#utility.yul\":9497:9500   */\n      dup3\n        /* \"#utility.yul\":9493:9505   */\n      add\n        /* \"#utility.yul\":9486:9505   */\n      swap1\n      pop\n        /* \"#utility.yul\":9145:9511   */\n      swap2\n      swap1\n      pop\n      jump\t// out\n        /* \"#utility.yul\":9517:9883   */\n    tag_356:\n        /* \"#utility.yul\":9659:9662   */\n      0x00\n        /* \"#utility.yul\":9680:9747   */\n      tag_358\n        /* \"#utility.yul\":9744:9746   */\n      0x4f\n        /* \"#utility.yul\":9739:9742   */\n      dup4\n        /* \"#utility.yul\":9680:9747   */\n      tag_317\n      jump\t// in\n    tag_358:\n        /* \"#utility.yul\":9673:9747   */\n      swap2\n      pop\n        /* \"#utility.yul\":9756:9849   */\n      tag_359\n        /* \"#utility.yul\":9845:9848   */\n      dup3\n        /* \"#utility.yul\":9756:9849   */\n      tag_360\n      jump\t// in\n    tag_359:\n        /* \"#utility.yul\":9874:9876   */\n      0x60\n        /* \"#utility.yul\":9869:9872   */\n      dup3\n        /* \"#utility.yul\":9865:9877   */\n      add\n        /* \"#utility.yul\":9858:9877   */\n      swap1\n      pop\n        /* \"#utility.yul\":9517:9883   */\n      swap2\n      swap1\n      pop\n      jump\t// out\n        /* \"#utility.yul\":9889:10255   */\n    tag_361:\n        /* \"#utility.yul\":10031:10034   */\n      0x00\n        /* \"#utility.yul\":10052:10119   */\n      tag_363\n        /* \"#utility.yul\":10116:10118   */\n      0x21\n        /* \"#utility.yul\":10111:10114   */\n      dup4\n        /* \"#utility.yul\":10052:10119   */\n      tag_317\n      jump\t// in\n    tag_363:\n        /* \"#utility.yul\":10045:10119   */\n      swap2\n      pop\n        /* \"#utility.yul\":10128:10221   */\n      tag_364\n        /* \"#utility.yul\":10217:10220   */\n      dup3\n        /* \"#utility.yul\":10128:10221   */\n      tag_365\n      jump\t// in\n    tag_364:\n        /* \"#utility.yul\":10246:10248   */\n      0x40\n        /* \"#utility.yul\":10241:10244   */\n      dup3\n        /* \"#utility.yul\":10237:10249   */\n      add\n        /* \"#utility.yul\":10230:10249   */\n      swap1\n      pop\n        /* \"#utility.yul\":9889:10255   */\n      swap2\n      swap1\n      pop\n      jump\t// out\n        /* \"#utility.yul\":10261:10627   */\n    tag_366:\n        /* \"#utility.yul\":10403:10406   */\n      0x00\n        /* \"#utility.yul\":10424:10491   */\n      tag_368\n        /* \"#utility.yul\":10488:10490   */\n      0x11\n        /* \"#utility.yul\":10483:10486   */\n      dup4\n        /* \"#utility.yul\":10424:10491   */\n      tag_317\n      jump\t// in\n    tag_368:\n        /* \"#utility.yul\":10417:10491   */\n      swap2\n      pop\n        /* \"#utility.yul\":10500:10593   */\n      tag_369\n        /* \"#utility.yul\":10589:10592   */\n      dup3\n        /* \"#utility.yul\":10500:10593   */\n      tag_370\n      jump\t// in\n    tag_369:\n        /* \"#utility.yul\":10618:10620   */\n      0x20\n        /* \"#utility.yul\":10613:10616   */\n      dup3\n        /* \"#utility.yul\":10609:10621   */\n      add\n        /* \"#utility.yul\":10602:10621   */\n      swap1\n      pop\n        /* \"#utility.yul\":10261:10627   */\n      swap2\n      swap1\n      pop\n      jump\t// out\n        /* \"#utility.yul\":10633:10999   */\n    tag_371:\n        /* \"#utility.yul\":10775:10778   */\n      0x00\n        /* \"#utility.yul\":10796:10863   */\n      tag_373\n        /* \"#utility.yul\":10860:10862   */\n      0x25\n        /* \"#utility.yul\":10855:10858   */\n      dup4\n        /* \"#utility.yul\":10796:10863   */\n      tag_317\n      jump\t// in\n    tag_373:\n        /* \"#utility.yul\":10789:10863   */\n      swap2\n      pop\n        /* \"#utility.yul\":10872:10965   */\n      tag_374\n        /* \"#utility.yul\":10961:10964   */\n      dup3\n        /* \"#utility.yul\":10872:10965   */\n      tag_375\n      jump\t// in\n    tag_374:\n        /* \"#utility.yul\":10990:10992   */\n      0x40\n        /* \"#utility.yul\":10985:10988   */\n      dup3\n        /* \"#utility.yul\":10981:10993   */\n      add\n        /* \"#utility.yul\":10974:10993   */\n      swap1\n      pop\n        /* \"#utility.yul\":10633:10999   */\n      swap2\n      swap1\n      pop\n      jump\t// out\n        /* \"#utility.yul\":11005:11371   */\n    tag_376:\n        /* \"#utility.yul\":11147:11150   */\n      0x00\n        /* \"#utility.yul\":11168:11235   */\n      tag_378\n        /* \"#utility.yul\":11232:11234   */\n      0x1c\n        /* \"#utility.yul\":11227:11230   */\n      dup4\n        /* \"#utility.yul\":11168:11235   */\n      tag_317\n      jump\t// in\n    tag_378:\n        /* \"#utility.yul\":11161:11235   */\n      swap2\n      pop\n        /* \"#utility.yul\":11244:11337   */\n      tag_379\n        /* \"#utility.yul\":11333:11336   */\n      dup3\n        /* \"#utility.yul\":11244:11337   */\n      tag_380\n      jump\t// in\n    tag_379:\n        /* \"#utility.yul\":11362:11364   */\n      0x20\n        /* \"#utility.yul\":11357:11360   */\n      dup3\n        /* \"#utility.yul\":11353:11365   */\n      add\n        /* \"#utility.yul\":11346:11365   */\n      swap1\n      pop\n        /* \"#utility.yul\":11005:11371   */\n      swap2\n      swap1\n      pop\n      jump\t// out\n        /* \"#utility.yul\":11377:11743   */\n    tag_381:\n        /* \"#utility.yul\":11519:11522   */\n      0x00\n        /* \"#utility.yul\":11540:11607   */\n      tag_383\n        /* \"#utility.yul\":11604:11606   */\n      0x24\n        /* \"#utility.yul\":11599:11602   */\n      dup4\n        /* \"#utility.yul\":11540:11607   */\n      tag_317\n      jump\t// in\n    tag_383:\n        /* \"#utility.yul\":11533:11607   */\n      swap2\n      pop\n        /* \"#utility.yul\":11616:11709   */\n      tag_384\n        /* \"#utility.yul\":11705:11708   */\n      dup3\n        /* \"#utility.yul\":11616:11709   */\n      tag_385\n      jump\t// in\n    tag_384:\n        /* \"#utility.yul\":11734:11736   */\n      0x40\n        /* \"#utility.yul\":11729:11732   */\n      dup3\n        /* \"#utility.yul\":11725:11737   */\n      add\n        /* \"#utility.yul\":11718:11737   */\n      swap1\n      pop\n        /* \"#utility.yul\":11377:11743   */\n      swap2\n      swap1\n      pop\n      jump\t// out\n        /* \"#utility.yul\":11801:12744   */\n    tag_275:\n        /* \"#utility.yul\":11906:11909   */\n      0x00\n        /* \"#utility.yul\":11942:11946   */\n      0x80\n        /* \"#utility.yul\":11937:11940   */\n      dup4\n        /* \"#utility.yul\":11933:11947   */\n      add\n        /* \"#utility.yul\":12027:12031   */\n      0x00\n        /* \"#utility.yul\":12020:12025   */\n      dup4\n        /* \"#utility.yul\":12016:12032   */\n      add\n        /* \"#utility.yul\":12010:12033   */\n      mload\n        /* \"#utility.yul\":12046:12109   */\n      tag_387\n        /* \"#utility.yul\":12103:12107   */\n      0x00\n        /* \"#utility.yul\":12098:12101   */\n      dup7\n        /* \"#utility.yul\":12094:12108   */\n      add\n        /* \"#utility.yul\":12080:12092   */\n      dup3\n        /* \"#utility.yul\":12046:12109   */\n      tag_388\n      jump\t// in\n    tag_387:\n        /* \"#utility.yul\":11957:12119   */\n      pop\n        /* \"#utility.yul\":12201:12205   */\n      0x20\n        /* \"#utility.yul\":12194:12199   */\n      dup4\n        /* \"#utility.yul\":12190:12206   */\n      add\n        /* \"#utility.yul\":12184:12207   */\n      mload\n        /* \"#utility.yul\":12254:12257   */\n      dup5\n        /* \"#utility.yul\":12248:12252   */\n      dup3\n        /* \"#utility.yul\":12244:12258   */\n      sub\n        /* \"#utility.yul\":12237:12241   */\n      0x20\n        /* \"#utility.yul\":12232:12235   */\n      dup7\n        /* \"#utility.yul\":12228:12242   */\n      add\n        /* \"#utility.yul\":12221:12259   */\n      mstore\n        /* \"#utility.yul\":12280:12353   */\n      tag_389\n        /* \"#utility.yul\":12348:12352   */\n      dup3\n        /* \"#utility.yul\":12334:12346   */\n      dup3\n        /* \"#utility.yul\":12280:12353   */\n      tag_326\n      jump\t// in\n    tag_389:\n        /* \"#utility.yul\":12272:12353   */\n      swap2\n      pop\n        /* \"#utility.yul\":12129:12364   */\n      pop\n        /* \"#utility.yul\":12450:12454   */\n      0x40\n        /* \"#utility.yul\":12443:12448   */\n      dup4\n        /* \"#utility.yul\":12439:12455   */\n      add\n        /* \"#utility.yul\":12433:12456   */\n      mload\n        /* \"#utility.yul\":12469:12532   */\n      tag_390\n        /* \"#utility.yul\":12526:12530   */\n      0x40\n        /* \"#utility.yul\":12521:12524   */\n      dup7\n        /* \"#utility.yul\":12517:12531   */\n      add\n        /* \"#utility.yul\":12503:12515   */\n      dup3\n        /* \"#utility.yul\":12469:12532   */\n      tag_388\n      jump\t// in\n    tag_390:\n        /* \"#utility.yul\":12374:12542   */\n      pop\n        /* \"#utility.yul\":12625:12629   */\n      0x60\n        /* \"#utility.yul\":12618:12623   */\n      dup4\n        /* \"#utility.yul\":12614:12630   */\n      add\n        /* \"#utility.yul\":12608:12631   */\n      mload\n        /* \"#utility.yul\":12644:12707   */\n      tag_391\n        /* \"#utility.yul\":12701:12705   */\n      0x60\n        /* \"#utility.yul\":12696:12699   */\n      dup7\n        /* \"#utility.yul\":12692:12706   */\n      add\n        /* \"#utility.yul\":12678:12690   */\n      dup3\n        /* \"#utility.yul\":12644:12707   */\n      tag_388\n      jump\t// in\n    tag_391:\n        /* \"#utility.yul\":12552:12717   */\n      pop\n        /* \"#utility.yul\":12734:12738   */\n      dup1\n        /* \"#utility.yul\":12727:12738   */\n      swap2\n      pop\n        /* \"#utility.yul\":11911:12744   */\n      pop\n        /* \"#utility.yul\":11801:12744   */\n      swap3\n      swap2\n      pop\n      pop\n      jump\t// out\n        /* \"#utility.yul\":12750:12858   */\n    tag_388:\n        /* \"#utility.yul\":12827:12851   */\n      tag_393\n        /* \"#utility.yul\":12845:12850   */\n      dup2\n        /* \"#utility.yul\":12827:12851   */\n      tag_394\n      jump\t// in\n    tag_393:\n        /* \"#utility.yul\":12822:12825   */\n      dup3\n        /* \"#utility.yul\":12815:12852   */\n      mstore\n        /* \"#utility.yul\":12750:12858   */\n      pop\n      pop\n      jump\t// out\n        /* \"#utility.yul\":12864:12982   */\n    tag_395:\n        /* \"#utility.yul\":12951:12975   */\n      tag_397\n        /* \"#utility.yul\":12969:12974   */\n      dup2\n        /* \"#utility.yul\":12951:12975   */\n      tag_394\n      jump\t// in\n    tag_397:\n        /* \"#utility.yul\":12946:12949   */\n      dup3\n        /* \"#utility.yul\":12939:12976   */\n      mstore\n        /* \"#utility.yul\":12864:12982   */\n      pop\n      pop\n      jump\t// out\n        /* \"#utility.yul\":12988:13283   */\n    tag_81:\n        /* \"#utility.yul\":13130:13133   */\n      0x00\n        /* \"#utility.yul\":13152:13257   */\n      tag_399\n        /* \"#utility.yul\":13253:13256   */\n      dup3\n        /* \"#utility.yul\":13244:13250   */\n      dup5\n        /* \"#utility.yul\":13236:13242   */\n      dup7\n        /* \"#utility.yul\":13152:13257   */\n      tag_321\n      jump\t// in\n    tag_399:\n        /* \"#utility.yul\":13145:13257   */\n      swap2\n      pop\n        /* \"#utility.yul\":13274:13277   */\n      dup2\n        /* \"#utility.yul\":13267:13277   */\n      swap1\n      pop\n        /* \"#utility.yul\":12988:13283   */\n      swap4\n      swap3\n      pop\n      pop\n      pop\n      jump\t// out\n        /* \"#utility.yul\":13289:13511   */\n    tag_51:\n        /* \"#utility.yul\":13382:13386   */\n      0x00\n        /* \"#utility.yul\":13420:13422   */\n      0x20\n        /* \"#utility.yul\":13409:13418   */\n      dup3\n        /* \"#utility.yul\":13405:13423   */\n      add\n        /* \"#utility.yul\":13397:13423   */\n      swap1\n      pop\n        /* \"#utility.yul\":13433:13504   */\n      tag_401\n        /* \"#utility.yul\":13501:13502   */\n      0x00\n        /* \"#utility.yul\":13490:13499   */\n      dup4\n        /* \"#utility.yul\":13486:13503   */\n      add\n        /* \"#utility.yul\":13477:13483   */\n      dup5\n        /* \"#utility.yul\":13433:13504   */\n      tag_279\n      jump\t// in\n    tag_401:\n        /* \"#utility.yul\":13289:13511   */\n      swap3\n      swap2\n      pop\n      pop\n      jump\t// out\n        /* \"#utility.yul\":13517:13849   */\n    tag_127:\n        /* \"#utility.yul\":13638:13642   */\n      0x00\n        /* \"#utility.yul\":13676:13678   */\n      0x40\n        /* \"#utility.yul\":13665:13674   */\n      dup3\n        /* \"#utility.yul\":13661:13679   */\n      add\n        /* \"#utility.yul\":13653:13679   */\n      swap1\n      pop\n        /* \"#utility.yul\":13689:13760   */\n      tag_403\n        /* \"#utility.yul\":13757:13758   */\n      0x00\n        /* \"#utility.yul\":13746:13755   */\n      dup4\n        /* \"#utility.yul\":13742:13759   */\n      add\n        /* \"#utility.yul\":13733:13739   */\n      dup6\n        /* \"#utility.yul\":13689:13760   */\n      tag_279\n      jump\t// in\n    tag_403:\n        /* \"#utility.yul\":13770:13842   */\n      tag_404\n        /* \"#utility.yul\":13838:13840   */\n      0x20\n        /* \"#utility.yul\":13827:13836   */\n      dup4\n        /* \"#utility.yul\":13823:13841   */\n      add\n        /* \"#utility.yul\":13814:13820   */\n      dup5\n        /* \"#utility.yul\":13770:13842   */\n      tag_395\n      jump\t// in\n    tag_404:\n        /* \"#utility.yul\":13517:13849   */\n      swap4\n      swap3\n      pop\n      pop\n      pop\n      jump\t// out\n        /* \"#utility.yul\":13855:14297   */\n    tag_158:\n        /* \"#utility.yul\":14004:14008   */\n      0x00\n        /* \"#utility.yul\":14042:14044   */\n      0x60\n        /* \"#utility.yul\":14031:14040   */\n      dup3\n        /* \"#utility.yul\":14027:14045   */\n      add\n        /* \"#utility.yul\":14019:14045   */\n      swap1\n      pop\n        /* \"#utility.yul\":14055:14126   */\n      tag_406\n        /* \"#utility.yul\":14123:14124   */\n      0x00\n        /* \"#utility.yul\":14112:14121   */\n      dup4\n        /* \"#utility.yul\":14108:14125   */\n      add\n        /* \"#utility.yul\":14099:14105   */\n      dup7\n        /* \"#utility.yul\":14055:14126   */\n      tag_279\n      jump\t// in\n    tag_406:\n        /* \"#utility.yul\":14136:14208   */\n      tag_407\n        /* \"#utility.yul\":14204:14206   */\n      0x20\n        /* \"#utility.yul\":14193:14202   */\n      dup4\n        /* \"#utility.yul\":14189:14207   */\n      add\n        /* \"#utility.yul\":14180:14186   */\n      dup6\n        /* \"#utility.yul\":14136:14208   */\n      tag_395\n      jump\t// in\n    tag_407:\n        /* \"#utility.yul\":14218:14290   */\n      tag_408\n        /* \"#utility.yul\":14286:14288   */\n      0x40\n        /* \"#utility.yul\":14275:14284   */\n      dup4\n        /* \"#utility.yul\":14271:14289   */\n      add\n        /* \"#utility.yul\":14262:14268   */\n      dup5\n        /* \"#utility.yul\":14218:14290   */\n      tag_395\n      jump\t// in\n    tag_408:\n        /* \"#utility.yul\":13855:14297   */\n      swap5\n      swap4\n      pop\n      pop\n      pop\n      pop\n      jump\t// out\n        /* \"#utility.yul\":14303:14676   */\n    tag_46:\n        /* \"#utility.yul\":14446:14450   */\n      0x00\n        /* \"#utility.yul\":14484:14486   */\n      0x20\n        /* \"#utility.yul\":14473:14482   */\n      dup3\n        /* \"#utility.yul\":14469:14487   */\n      add\n        /* \"#utility.yul\":14461:14487   */\n      swap1\n      pop\n        /* \"#utility.yul\":14533:14542   */\n      dup2\n        /* \"#utility.yul\":14527:14531   */\n      dup2\n        /* \"#utility.yul\":14523:14543   */\n      sub\n        /* \"#utility.yul\":14519:14520   */\n      0x00\n        /* \"#utility.yul\":14508:14517   */\n      dup4\n        /* \"#utility.yul\":14504:14521   */\n      add\n        /* \"#utility.yul\":14497:14544   */\n      mstore\n        /* \"#utility.yul\":14561:14669   */\n      tag_410\n        /* \"#utility.yul\":14664:14668   */\n      dup2\n        /* \"#utility.yul\":14655:14661   */\n      dup5\n        /* \"#utility.yul\":14561:14669   */\n      tag_282\n      jump\t// in\n    tag_410:\n        /* \"#utility.yul\":14553:14669   */\n      swap1\n      pop\n        /* \"#utility.yul\":14303:14676   */\n      swap3\n      swap2\n      pop\n      pop\n      jump\t// out\n        /* \"#utility.yul\":14682:15147   */\n    tag_56:\n        /* \"#utility.yul\":14871:14875   */\n      0x00\n        /* \"#utility.yul\":14909:14911   */\n      0x20\n        /* \"#utility.yul\":14898:14907   */\n      dup3\n        /* \"#utility.yul\":14894:14912   */\n      add\n        /* \"#utility.yul\":14886:14912   */\n      swap1\n      pop\n        /* \"#utility.yul\":14958:14967   */\n      dup2\n        /* \"#utility.yul\":14952:14956   */\n      dup2\n        /* \"#utility.yul\":14948:14968   */\n      sub\n        /* \"#utility.yul\":14944:14945   */\n      0x00\n        /* \"#utility.yul\":14933:14942   */\n      dup4\n        /* \"#utility.yul\":14929:14946   */\n      add\n        /* \"#utility.yul\":14922:14969   */\n      mstore\n        /* \"#utility.yul\":14986:15140   */\n      tag_412\n        /* \"#utility.yul\":15135:15139   */\n      dup2\n        /* \"#utility.yul\":15126:15132   */\n      dup5\n        /* \"#utility.yul\":14986:15140   */\n      tag_296\n      jump\t// in\n    tag_412:\n        /* \"#utility.yul\":14978:15140   */\n      swap1\n      pop\n        /* \"#utility.yul\":14682:15147   */\n      swap3\n      swap2\n      pop\n      pop\n      jump\t// out\n        /* \"#utility.yul\":15153:15363   */\n    tag_30:\n        /* \"#utility.yul\":15240:15244   */\n      0x00\n        /* \"#utility.yul\":15278:15280   */\n      0x20\n        /* \"#utility.yul\":15267:15276   */\n      dup3\n        /* \"#utility.yul\":15263:15281   */\n      add\n        /* \"#utility.yul\":15255:15281   */\n      swap1\n      pop\n        /* \"#utility.yul\":15291:15356   */\n      tag_414\n        /* \"#utility.yul\":15353:15354   */\n      0x00\n        /* \"#utility.yul\":15342:15351   */\n      dup4\n        /* \"#utility.yul\":15338:15355   */\n      add\n        /* \"#utility.yul\":15329:15335   */\n      dup5\n        /* \"#utility.yul\":15291:15356   */\n      tag_310\n      jump\t// in\n    tag_414:\n        /* \"#utility.yul\":15153:15363   */\n      swap3\n      swap2\n      pop\n      pop\n      jump\t// out\n        /* \"#utility.yul\":15369:15922   */\n    tag_90:\n        /* \"#utility.yul\":15548:15552   */\n      0x00\n        /* \"#utility.yul\":15586:15588   */\n      0x60\n        /* \"#utility.yul\":15575:15584   */\n      dup3\n        /* \"#utility.yul\":15571:15589   */\n      add\n        /* \"#utility.yul\":15563:15589   */\n      swap1\n      pop\n        /* \"#utility.yul\":15635:15644   */\n      dup2\n        /* \"#utility.yul\":15629:15633   */\n      dup2\n        /* \"#utility.yul\":15625:15645   */\n      sub\n        /* \"#utility.yul\":15621:15622   */\n      0x00\n        /* \"#utility.yul\":15610:15619   */\n      dup4\n        /* \"#utility.yul\":15606:15623   */\n      add\n        /* \"#utility.yul\":15599:15646   */\n      mstore\n        /* \"#utility.yul\":15663:15751   */\n      tag_416\n        /* \"#utility.yul\":15746:15750   */\n      dup2\n        /* \"#utility.yul\":15737:15743   */\n      dup7\n        /* \"#utility.yul\":15729:15735   */\n      dup9\n        /* \"#utility.yul\":15663:15751   */\n      tag_314\n      jump\t// in\n    tag_416:\n        /* \"#utility.yul\":15655:15751   */\n      swap1\n      pop\n        /* \"#utility.yul\":15761:15833   */\n      tag_417\n        /* \"#utility.yul\":15829:15831   */\n      0x20\n        /* \"#utility.yul\":15818:15827   */\n      dup4\n        /* \"#utility.yul\":15814:15832   */\n      add\n        /* \"#utility.yul\":15805:15811   */\n      dup6\n        /* \"#utility.yul\":15761:15833   */\n      tag_395\n      jump\t// in\n    tag_417:\n        /* \"#utility.yul\":15843:15915   */\n      tag_418\n        /* \"#utility.yul\":15911:15913   */\n      0x40\n        /* \"#utility.yul\":15900:15909   */\n      dup4\n        /* \"#utility.yul\":15896:15914   */\n      add\n        /* \"#utility.yul\":15887:15893   */\n      dup5\n        /* \"#utility.yul\":15843:15915   */\n      tag_395\n      jump\t// in\n    tag_418:\n        /* \"#utility.yul\":15369:15922   */\n      swap6\n      swap5\n      pop\n      pop\n      pop\n      pop\n      pop\n      jump\t// out\n        /* \"#utility.yul\":15928:16347   */\n    tag_76:\n        /* \"#utility.yul\":16094:16098   */\n      0x00\n        /* \"#utility.yul\":16132:16134   */\n      0x20\n        /* \"#utility.yul\":16121:16130   */\n      dup3\n        /* \"#utility.yul\":16117:16135   */\n      add\n        /* \"#utility.yul\":16109:16135   */\n      swap1\n      pop\n        /* \"#utility.yul\":16181:16190   */\n      dup2\n        /* \"#utility.yul\":16175:16179   */\n      dup2\n        /* \"#utility.yul\":16171:16191   */\n      sub\n        /* \"#utility.yul\":16167:16168   */\n      0x00\n        /* \"#utility.yul\":16156:16165   */\n      dup4\n        /* \"#utility.yul\":16152:16169   */\n      add\n        /* \"#utility.yul\":16145:16192   */\n      mstore\n        /* \"#utility.yul\":16209:16340   */\n      tag_420\n        /* \"#utility.yul\":16335:16339   */\n      dup2\n        /* \"#utility.yul\":16209:16340   */\n      tag_341\n      jump\t// in\n    tag_420:\n        /* \"#utility.yul\":16201:16340   */\n      swap1\n      pop\n        /* \"#utility.yul\":15928:16347   */\n      swap2\n      swap1\n      pop\n      jump\t// out\n        /* \"#utility.yul\":16353:16772   */\n    tag_144:\n        /* \"#utility.yul\":16519:16523   */\n      0x00\n        /* \"#utility.yul\":16557:16559   */\n      0x20\n        /* \"#utility.yul\":16546:16555   */\n      dup3\n        /* \"#utility.yul\":16542:16560   */\n      add\n        /* \"#utility.yul\":16534:16560   */\n      swap1\n      pop\n        /* \"#utility.yul\":16606:16615   */\n      dup2\n        /* \"#utility.yul\":16600:16604   */\n      dup2\n        /* \"#utility.yul\":16596:16616   */\n      sub\n        /* \"#utility.yul\":16592:16593   */\n      0x00\n        /* \"#utility.yul\":16581:16590   */\n      dup4\n        /* \"#utility.yul\":16577:16594   */\n      add\n        /* \"#utility.yul\":16570:16617   */\n      mstore\n        /* \"#utility.yul\":16634:16765   */\n      tag_422\n        /* \"#utility.yul\":16760:16764   */\n      dup2\n        /* \"#utility.yul\":16634:16765   */\n      tag_346\n      jump\t// in\n    tag_422:\n        /* \"#utility.yul\":16626:16765   */\n      swap1\n      pop\n        /* \"#utility.yul\":16353:16772   */\n      swap2\n      swap1\n      pop\n      jump\t// out\n        /* \"#utility.yul\":16778:17197   */\n    tag_99:\n        /* \"#utility.yul\":16944:16948   */\n      0x00\n        /* \"#utility.yul\":16982:16984   */\n      0x20\n        /* \"#utility.yul\":16971:16980   */\n      dup3\n        /* \"#utility.yul\":16967:16985   */\n      add\n        /* \"#utility.yul\":16959:16985   */\n      swap1\n      pop\n        /* \"#utility.yul\":17031:17040   */\n      dup2\n        /* \"#utility.yul\":17025:17029   */\n      dup2\n        /* \"#utility.yul\":17021:17041   */\n      sub\n        /* \"#utility.yul\":17017:17018   */\n      0x00\n        /* \"#utility.yul\":17006:17015   */\n      dup4\n        /* \"#utility.yul\":17002:17019   */\n      add\n        /* \"#utility.yul\":16995:17042   */\n      mstore\n        /* \"#utility.yul\":17059:17190   */\n      tag_424\n        /* \"#utility.yul\":17185:17189   */\n      dup2\n        /* \"#utility.yul\":17059:17190   */\n      tag_351\n      jump\t// in\n    tag_424:\n        /* \"#utility.yul\":17051:17190   */\n      swap1\n      pop\n        /* \"#utility.yul\":16778:17197   */\n      swap2\n      swap1\n      pop\n      jump\t// out\n        /* \"#utility.yul\":17203:17622   */\n    tag_152:\n        /* \"#utility.yul\":17369:17373   */\n      0x00\n        /* \"#utility.yul\":17407:17409   */\n      0x20\n        /* \"#utility.yul\":17396:17405   */\n      dup3\n        /* \"#utility.yul\":17392:17410   */\n      add\n        /* \"#utility.yul\":17384:17410   */\n      swap1\n      pop\n        /* \"#utility.yul\":17456:17465   */\n      dup2\n        /* \"#utility.yul\":17450:17454   */\n      dup2\n        /* \"#utility.yul\":17446:17466   */\n      sub\n        /* \"#utility.yul\":17442:17443   */\n      0x00\n        /* \"#utility.yul\":17431:17440   */\n      dup4\n        /* \"#utility.yul\":17427:17444   */\n      add\n        /* \"#utility.yul\":17420:17467   */\n      mstore\n        /* \"#utility.yul\":17484:17615   */\n      tag_426\n        /* \"#utility.yul\":17610:17614   */\n      dup2\n        /* \"#utility.yul\":17484:17615   */\n      tag_356\n      jump\t// in\n    tag_426:\n        /* \"#utility.yul\":17476:17615   */\n      swap1\n      pop\n        /* \"#utility.yul\":17203:17622   */\n      swap2\n      swap1\n      pop\n      jump\t// out\n        /* \"#utility.yul\":17628:18047   */\n    tag_94:\n        /* \"#utility.yul\":17794:17798   */\n      0x00\n        /* \"#utility.yul\":17832:17834   */\n      0x20\n        /* \"#utility.yul\":17821:17830   */\n      dup3\n        /* \"#utility.yul\":17817:17835   */\n      add\n        /* \"#utility.yul\":17809:17835   */\n      swap1\n      pop\n        /* \"#utility.yul\":17881:17890   */\n      dup2\n        /* \"#utility.yul\":17875:17879   */\n      dup2\n        /* \"#utility.yul\":17871:17891   */\n      sub\n        /* \"#utility.yul\":17867:17868   */\n      0x00\n        /* \"#utility.yul\":17856:17865   */\n      dup4\n        /* \"#utility.yul\":17852:17869   */\n      add\n        /* \"#utility.yul\":17845:17892   */\n      mstore\n        /* \"#utility.yul\":17909:18040   */\n      tag_428\n        /* \"#utility.yul\":18035:18039   */\n      dup2\n        /* \"#utility.yul\":17909:18040   */\n      tag_361\n      jump\t// in\n    tag_428:\n        /* \"#utility.yul\":17901:18040   */\n      swap1\n      pop\n        /* \"#utility.yul\":17628:18047   */\n      swap2\n      swap1\n      pop\n      jump\t// out\n        /* \"#utility.yul\":18053:18472   */\n    tag_135:\n        /* \"#utility.yul\":18219:18223   */\n      0x00\n        /* \"#utility.yul\":18257:18259   */\n      0x20\n        /* \"#utility.yul\":18246:18255   */\n      dup3\n        /* \"#utility.yul\":18242:18260   */\n      add\n        /* \"#utility.yul\":18234:18260   */\n      swap1\n      pop\n        /* \"#utility.yul\":18306:18315   */\n      dup2\n        /* \"#utility.yul\":18300:18304   */\n      dup2\n        /* \"#utility.yul\":18296:18316   */\n      sub\n        /* \"#utility.yul\":18292:18293   */\n      0x00\n        /* \"#utility.yul\":18281:18290   */\n      dup4\n        /* \"#utility.yul\":18277:18294   */\n      add\n        /* \"#utility.yul\":18270:18317   */\n      mstore\n        /* \"#utility.yul\":18334:18465   */\n      tag_430\n        /* \"#utility.yul\":18460:18464   */\n      dup2\n        /* \"#utility.yul\":18334:18465   */\n      tag_366\n      jump\t// in\n    tag_430:\n        /* \"#utility.yul\":18326:18465   */\n      swap1\n      pop\n        /* \"#utility.yul\":18053:18472   */\n      swap2\n      swap1\n      pop\n      jump\t// out\n        /* \"#utility.yul\":18478:18897   */\n    tag_138:\n        /* \"#utility.yul\":18644:18648   */\n      0x00\n        /* \"#utility.yul\":18682:18684   */\n      0x20\n        /* \"#utility.yul\":18671:18680   */\n      dup3\n        /* \"#utility.yul\":18667:18685   */\n      add\n        /* \"#utility.yul\":18659:18685   */\n      swap1\n      pop\n        /* \"#utility.yul\":18731:18740   */\n      dup2\n        /* \"#utility.yul\":18725:18729   */\n      dup2\n        /* \"#utility.yul\":18721:18741   */\n      sub\n        /* \"#utility.yul\":18717:18718   */\n      0x00\n        /* \"#utility.yul\":18706:18715   */\n      dup4\n        /* \"#utility.yul\":18702:18719   */\n      add\n        /* \"#utility.yul\":18695:18742   */\n      mstore\n        /* \"#utility.yul\":18759:18890   */\n      tag_432\n        /* \"#utility.yul\":18885:18889   */\n      dup2\n        /* \"#utility.yul\":18759:18890   */\n      tag_371\n      jump\t// in\n    tag_432:\n        /* \"#utility.yul\":18751:18890   */\n      swap1\n      pop\n        /* \"#utility.yul\":18478:18897   */\n      swap2\n      swap1\n      pop\n      jump\t// out\n        /* \"#utility.yul\":18903:19322   */\n    tag_131:\n        /* \"#utility.yul\":19069:19073   */\n      0x00\n        /* \"#utility.yul\":19107:19109   */\n      0x20\n        /* \"#utility.yul\":19096:19105   */\n      dup3\n        /* \"#utility.yul\":19092:19110   */\n      add\n        /* \"#utility.yul\":19084:19110   */\n      swap1\n      pop\n        /* \"#utility.yul\":19156:19165   */\n      dup2\n        /* \"#utility.yul\":19150:19154   */\n      dup2\n        /* \"#utility.yul\":19146:19166   */\n      sub\n        /* \"#utility.yul\":19142:19143   */\n      0x00\n        /* \"#utility.yul\":19131:19140   */\n      dup4\n        /* \"#utility.yul\":19127:19144   */\n      add\n        /* \"#utility.yul\":19120:19167   */\n      mstore\n        /* \"#utility.yul\":19184:19315   */\n      tag_434\n        /* \"#utility.yul\":19310:19314   */\n      dup2\n        /* \"#utility.yul\":19184:19315   */\n      tag_376\n      jump\t// in\n    tag_434:\n        /* \"#utility.yul\":19176:19315   */\n      swap1\n      pop\n        /* \"#utility.yul\":18903:19322   */\n      swap2\n      swap1\n      pop\n      jump\t// out\n        /* \"#utility.yul\":19328:19747   */\n    tag_84:\n        /* \"#utility.yul\":19494:19498   */\n      0x00\n        /* \"#utility.yul\":19532:19534   */\n      0x20\n        /* \"#utility.yul\":19521:19530   */\n      dup3\n        /* \"#utility.yul\":19517:19535   */\n      add\n        /* \"#utility.yul\":19509:19535   */\n      swap1\n      pop\n        /* \"#utility.yul\":19581:19590   */\n      dup2\n        /* \"#utility.yul\":19575:19579   */\n      dup2\n        /* \"#utility.yul\":19571:19591   */\n      sub\n        /* \"#utility.yul\":19567:19568   */\n      0x00\n        /* \"#utility.yul\":19556:19565   */\n      dup4\n        /* \"#utility.yul\":19552:19569   */\n      add\n        /* \"#utility.yul\":19545:19592   */\n      mstore\n        /* \"#utility.yul\":19609:19740   */\n      tag_436\n        /* \"#utility.yul\":19735:19739   */\n      dup2\n        /* \"#utility.yul\":19609:19740   */\n      tag_381\n      jump\t// in\n    tag_436:\n        /* \"#utility.yul\":19601:19740   */\n      swap1\n      pop\n        /* \"#utility.yul\":19328:19747   */\n      swap2\n      swap1\n      pop\n      jump\t// out\n        /* \"#utility.yul\":19753:20397   */\n    tag_40:\n        /* \"#utility.yul\":19950:19954   */\n      0x00\n        /* \"#utility.yul\":19988:19991   */\n      0x80\n        /* \"#utility.yul\":19977:19986   */\n      dup3\n        /* \"#utility.yul\":19973:19992   */\n      add\n        /* \"#utility.yul\":19965:19992   */\n      swap1\n      pop\n        /* \"#utility.yul\":20002:20073   */\n      tag_438\n        /* \"#utility.yul\":20070:20071   */\n      0x00\n        /* \"#utility.yul\":20059:20068   */\n      dup4\n        /* \"#utility.yul\":20055:20072   */\n      add\n        /* \"#utility.yul\":20046:20052   */\n      dup8\n        /* \"#utility.yul\":20002:20073   */\n      tag_395\n      jump\t// in\n    tag_438:\n        /* \"#utility.yul\":20120:20129   */\n      dup2\n        /* \"#utility.yul\":20114:20118   */\n      dup2\n        /* \"#utility.yul\":20110:20130   */\n      sub\n        /* \"#utility.yul\":20105:20107   */\n      0x20\n        /* \"#utility.yul\":20094:20103   */\n      dup4\n        /* \"#utility.yul\":20090:20108   */\n      add\n        /* \"#utility.yul\":20083:20131   */\n      mstore\n        /* \"#utility.yul\":20148:20226   */\n      tag_439\n        /* \"#utility.yul\":20221:20225   */\n      dup2\n        /* \"#utility.yul\":20212:20218   */\n      dup7\n        /* \"#utility.yul\":20148:20226   */\n      tag_335\n      jump\t// in\n    tag_439:\n        /* \"#utility.yul\":20140:20226   */\n      swap1\n      pop\n        /* \"#utility.yul\":20236:20308   */\n      tag_440\n        /* \"#utility.yul\":20304:20306   */\n      0x40\n        /* \"#utility.yul\":20293:20302   */\n      dup4\n        /* \"#utility.yul\":20289:20307   */\n      add\n        /* \"#utility.yul\":20280:20286   */\n      dup6\n        /* \"#utility.yul\":20236:20308   */\n      tag_395\n      jump\t// in\n    tag_440:\n        /* \"#utility.yul\":20318:20390   */\n      tag_441\n        /* \"#utility.yul\":20386:20388   */\n      0x60\n        /* \"#utility.yul\":20375:20384   */\n      dup4\n        /* \"#utility.yul\":20371:20389   */\n      add\n        /* \"#utility.yul\":20362:20368   */\n      dup5\n        /* \"#utility.yul\":20318:20390   */\n      tag_395\n      jump\t// in\n    tag_441:\n        /* \"#utility.yul\":19753:20397   */\n      swap6\n      swap5\n      pop\n      pop\n      pop\n      pop\n      pop\n      jump\t// out\n        /* \"#utility.yul\":20403:20735   */\n    tag_63:\n        /* \"#utility.yul\":20524:20528   */\n      0x00\n        /* \"#utility.yul\":20562:20564   */\n      0x40\n        /* \"#utility.yul\":20551:20560   */\n      dup3\n        /* \"#utility.yul\":20547:20565   */\n      add\n        /* \"#utility.yul\":20539:20565   */\n      swap1\n      pop\n        /* \"#utility.yul\":20575:20646   */\n      tag_443\n        /* \"#utility.yul\":20643:20644   */\n      0x00\n        /* \"#utility.yul\":20632:20641   */\n      dup4\n        /* \"#utility.yul\":20628:20645   */\n      add\n        /* \"#utility.yul\":20619:20625   */\n      dup6\n        /* \"#utility.yul\":20575:20646   */\n      tag_395\n      jump\t// in\n    tag_443:\n        /* \"#utility.yul\":20656:20728   */\n      tag_444\n        /* \"#utility.yul\":20724:20726   */\n      0x20\n        /* \"#utility.yul\":20713:20722   */\n      dup4\n        /* \"#utility.yul\":20709:20727   */\n      add\n        /* \"#utility.yul\":20700:20706   */\n      dup5\n        /* \"#utility.yul\":20656:20728   */\n      tag_395\n      jump\t// in\n    tag_444:\n        /* \"#utility.yul\":20403:20735   */\n      swap4\n      swap3\n      pop\n      pop\n      pop\n      jump\t// out\n        /* \"#utility.yul\":20741:20870   */\n    tag_208:\n        /* \"#utility.yul\":20775:20781   */\n      0x00\n        /* \"#utility.yul\":20802:20822   */\n      tag_446\n      tag_447\n      jump\t// in\n    tag_446:\n        /* \"#utility.yul\":20792:20822   */\n      swap1\n      pop\n        /* \"#utility.yul\":20831:20864   */\n      tag_448\n        /* \"#utility.yul\":20859:20863   */\n      dup3\n        /* \"#utility.yul\":20851:20857   */\n      dup3\n        /* \"#utility.yul\":20831:20864   */\n      tag_449\n      jump\t// in\n    tag_448:\n        /* \"#utility.yul\":20741:20870   */\n      swap2\n      swap1\n      pop\n      jump\t// out\n        /* \"#utility.yul\":20876:20951   */\n    tag_447:\n        /* \"#utility.yul\":20909:20915   */\n      0x00\n        /* \"#utility.yul\":20942:20944   */\n      0x40\n        /* \"#utility.yul\":20936:20945   */\n      mload\n        /* \"#utility.yul\":20926:20945   */\n      swap1\n      pop\n        /* \"#utility.yul\":20876:20951   */\n      swap1\n      jump\t// out\n        /* \"#utility.yul\":20957:21265   */\n    tag_207:\n        /* \"#utility.yul\":21019:21023   */\n      0x00\n        /* \"#utility.yul\":21109:21127   */\n      0xffffffffffffffff\n        /* \"#utility.yul\":21101:21107   */\n      dup3\n        /* \"#utility.yul\":21098:21128   */\n      gt\n        /* \"#utility.yul\":21095:21151   */\n      iszero\n      tag_452\n      jumpi\n        /* \"#utility.yul\":21131:21149   */\n      tag_453\n      tag_454\n      jump\t// in\n    tag_453:\n        /* \"#utility.yul\":21095:21151   */\n    tag_452:\n        /* \"#utility.yul\":21169:21198   */\n      tag_455\n        /* \"#utility.yul\":21191:21197   */\n      dup3\n        /* \"#utility.yul\":21169:21198   */\n      tag_320\n      jump\t// in\n    tag_455:\n        /* \"#utility.yul\":21161:21198   */\n      swap1\n      pop\n        /* \"#utility.yul\":21253:21257   */\n      0x20\n        /* \"#utility.yul\":21247:21251   */\n      dup2\n        /* \"#utility.yul\":21243:21258   */\n      add\n        /* \"#utility.yul\":21235:21258   */\n      swap1\n      pop\n        /* \"#utility.yul\":20957:21265   */\n      swap2\n      swap1\n      pop\n      jump\t// out\n        /* \"#utility.yul\":21271:21403   */\n    tag_289:\n        /* \"#utility.yul\":21338:21342   */\n      0x00\n        /* \"#utility.yul\":21361:21364   */\n      dup2\n        /* \"#utility.yul\":21353:21364   */\n      swap1\n      pop\n        /* \"#utility.yul\":21391:21395   */\n      0x20\n        /* \"#utility.yul\":21386:21389   */\n      dup3\n        /* \"#utility.yul\":21382:21396   */\n      add\n        /* \"#utility.yul\":21374:21396   */\n      swap1\n      pop\n        /* \"#utility.yul\":21271:21403   */\n      swap2\n      swap1\n      pop\n      jump\t// out\n        /* \"#utility.yul\":21409:21564   */\n    tag_303:\n        /* \"#utility.yul\":21499:21503   */\n      0x00\n        /* \"#utility.yul\":21522:21525   */\n      dup2\n        /* \"#utility.yul\":21514:21525   */\n      swap1\n      pop\n        /* \"#utility.yul\":21552:21556   */\n      0x20\n        /* \"#utility.yul\":21547:21550   */\n      dup3\n        /* \"#utility.yul\":21543:21557   */\n      add\n        /* \"#utility.yul\":21535:21557   */\n      swap1\n      pop\n        /* \"#utility.yul\":21409:21564   */\n      swap2\n      swap1\n      pop\n      jump\t// out\n        /* \"#utility.yul\":21570:21684   */\n    tag_285:\n        /* \"#utility.yul\":21637:21643   */\n      0x00\n        /* \"#utility.yul\":21671:21676   */\n      dup2\n        /* \"#utility.yul\":21665:21677   */\n      mload\n        /* \"#utility.yul\":21655:21677   */\n      swap1\n      pop\n        /* \"#utility.yul\":21570:21684   */\n      swap2\n      swap1\n      pop\n      jump\t// out\n        /* \"#utility.yul\":21690:21827   */\n    tag_299:\n        /* \"#utility.yul\":21780:21786   */\n      0x00\n        /* \"#utility.yul\":21814:21819   */\n      dup2\n        /* \"#utility.yul\":21808:21820   */\n      mload\n        /* \"#utility.yul\":21798:21820   */\n      swap1\n      pop\n        /* \"#utility.yul\":21690:21827   */\n      swap2\n      swap1\n      pop\n      jump\t// out\n        /* \"#utility.yul\":21833:21932   */\n    tag_329:\n        /* \"#utility.yul\":21885:21891   */\n      0x00\n        /* \"#utility.yul\":21919:21924   */\n      dup2\n        /* \"#utility.yul\":21913:21925   */\n      mload\n        /* \"#utility.yul\":21903:21925   */\n      swap1\n      pop\n        /* \"#utility.yul\":21833:21932   */\n      swap2\n      swap1\n      pop\n      jump\t// out\n        /* \"#utility.yul\":21938:22051   */\n    tag_295:\n        /* \"#utility.yul\":22008:22012   */\n      0x00\n        /* \"#utility.yul\":22040:22044   */\n      0x20\n        /* \"#utility.yul\":22035:22038   */\n      dup3\n        /* \"#utility.yul\":22031:22045   */\n      add\n        /* \"#utility.yul\":22023:22045   */\n      swap1\n      pop\n        /* \"#utility.yul\":21938:22051   */\n      swap2\n      swap1\n      pop\n      jump\t// out\n        /* \"#utility.yul\":22057:22193   */\n    tag_309:\n        /* \"#utility.yul\":22150:22154   */\n      0x00\n        /* \"#utility.yul\":22182:22186   */\n      0x20\n        /* \"#utility.yul\":22177:22180   */\n      dup3\n        /* \"#utility.yul\":22173:22187   */\n      add\n        /* \"#utility.yul\":22165:22187   */\n      swap1\n      pop\n        /* \"#utility.yul\":22057:22193   */\n      swap2\n      swap1\n      pop\n      jump\t// out\n        /* \"#utility.yul\":22199:22383   */\n    tag_287:\n        /* \"#utility.yul\":22298:22309   */\n      0x00\n        /* \"#utility.yul\":22332:22338   */\n      dup3\n        /* \"#utility.yul\":22327:22330   */\n      dup3\n        /* \"#utility.yul\":22320:22339   */\n      mstore\n        /* \"#utility.yul\":22372:22376   */\n      0x20\n        /* \"#utility.yul\":22367:22370   */\n      dup3\n        /* \"#utility.yul\":22363:22377   */\n      add\n        /* \"#utility.yul\":22348:22377   */\n      swap1\n      pop\n        /* \"#utility.yul\":22199:22383   */\n      swap3\n      swap2\n      pop\n      pop\n      jump\t// out\n        /* \"#utility.yul\":22389:22596   */\n    tag_301:\n        /* \"#utility.yul\":22511:22522   */\n      0x00\n        /* \"#utility.yul\":22545:22551   */\n      dup3\n        /* \"#utility.yul\":22540:22543   */\n      dup3\n        /* \"#utility.yul\":22533:22552   */\n      mstore\n        /* \"#utility.yul\":22585:22589   */\n      0x20\n        /* \"#utility.yul\":22580:22583   */\n      dup3\n        /* \"#utility.yul\":22576:22590   */\n      add\n        /* \"#utility.yul\":22561:22590   */\n      swap1\n      pop\n        /* \"#utility.yul\":22389:22596   */\n      swap3\n      swap2\n      pop\n      pop\n      jump\t// out\n        /* \"#utility.yul\":22602:22761   */\n    tag_331:\n        /* \"#utility.yul\":22676:22687   */\n      0x00\n        /* \"#utility.yul\":22710:22716   */\n      dup3\n        /* \"#utility.yul\":22705:22708   */\n      dup3\n        /* \"#utility.yul\":22698:22717   */\n      mstore\n        /* \"#utility.yul\":22750:22754   */\n      0x20\n        /* \"#utility.yul\":22745:22748   */\n      dup3\n        /* \"#utility.yul\":22741:22755   */\n      add\n        /* \"#utility.yul\":22726:22755   */\n      swap1\n      pop\n        /* \"#utility.yul\":22602:22761   */\n      swap3\n      swap2\n      pop\n      pop\n      jump\t// out\n        /* \"#utility.yul\":22767:22936   */\n    tag_317:\n        /* \"#utility.yul\":22851:22862   */\n      0x00\n        /* \"#utility.yul\":22885:22891   */\n      dup3\n        /* \"#utility.yul\":22880:22883   */\n      dup3\n        /* \"#utility.yul\":22873:22892   */\n      mstore\n        /* \"#utility.yul\":22925:22929   */\n      0x20\n        /* \"#utility.yul\":22920:22923   */\n      dup3\n        /* \"#utility.yul\":22916:22930   */\n      add\n        /* \"#utility.yul\":22901:22930   */\n      swap1\n      pop\n        /* \"#utility.yul\":22767:22936   */\n      swap3\n      swap2\n      pop\n      pop\n      jump\t// out\n        /* \"#utility.yul\":22942:23090   */\n    tag_324:\n        /* \"#utility.yul\":23044:23055   */\n      0x00\n        /* \"#utility.yul\":23081:23084   */\n      dup2\n        /* \"#utility.yul\":23066:23084   */\n      swap1\n      pop\n        /* \"#utility.yul\":22942:23090   */\n      swap3\n      swap2\n      pop\n      pop\n      jump\t// out\n        /* \"#utility.yul\":23096:23401   */\n    tag_96:\n        /* \"#utility.yul\":23136:23139   */\n      0x00\n        /* \"#utility.yul\":23155:23175   */\n      tag_469\n        /* \"#utility.yul\":23173:23174   */\n      dup3\n        /* \"#utility.yul\":23155:23175   */\n      tag_394\n      jump\t// in\n    tag_469:\n        /* \"#utility.yul\":23150:23175   */\n      swap2\n      pop\n        /* \"#utility.yul\":23189:23209   */\n      tag_470\n        /* \"#utility.yul\":23207:23208   */\n      dup4\n        /* \"#utility.yul\":23189:23209   */\n      tag_394\n      jump\t// in\n    tag_470:\n        /* \"#utility.yul\":23184:23209   */\n      swap3\n      pop\n        /* \"#utility.yul\":23343:23344   */\n      dup3\n        /* \"#utility.yul\":23275:23341   */\n      0xffffffffffffffffffffffffffffffffffffffffffffffffffffffffffffffff\n        /* \"#utility.yul\":23271:23345   */\n      sub\n        /* \"#utility.yul\":23268:23269   */\n      dup3\n        /* \"#utility.yul\":23265:23346   */\n      gt\n        /* \"#utility.yul\":23262:23369   */\n      iszero\n      tag_471\n      jumpi\n        /* \"#utility.yul\":23349:23367   */\n      tag_472\n      tag_473\n      jump\t// in\n    tag_472:\n        /* \"#utility.yul\":23262:23369   */\n    tag_471:\n        /* \"#utility.yul\":23393:23394   */\n      dup3\n        /* \"#utility.yul\":23390:23391   */\n      dup3\n        /* \"#utility.yul\":23386:23395   */\n      add\n        /* \"#utility.yul\":23379:23395   */\n      swap1\n      pop\n        /* \"#utility.yul\":23096:23401   */\n      swap3\n      swap2\n      pop\n      pop\n      jump\t// out\n        /* \"#utility.yul\":23407:23755   */\n    tag_149:\n        /* \"#utility.yul\":23447:23454   */\n      0x00\n        /* \"#utility.yul\":23470:23490   */\n      tag_475\n        /* \"#utility.yul\":23488:23489   */\n      dup3\n        /* \"#utility.yul\":23470:23490   */\n      tag_394\n      jump\t// in\n    tag_475:\n        /* \"#utility.yul\":23465:23490   */\n      swap2\n      pop\n        /* \"#utility.yul\":23504:23524   */\n      tag_476\n        /* \"#utility.yul\":23522:23523   */\n      dup4\n        /* \"#utility.yul\":23504:23524   */\n      tag_394\n      jump\t// in\n    tag_476:\n        /* \"#utility.yul\":23499:23524   */\n      swap3\n      pop\n        /* \"#utility.yul\":23692:23693   */\n      dup2\n        /* \"#utility.yul\":23624:23690   */\n      0xffffffffffffffffffffffffffffffffffffffffffffffffffffffffffffffff\n        /* \"#utility.yul\":23620:23694   */\n      div\n        /* \"#utility.yul\":23617:23618   */\n      dup4\n        /* \"#utility.yul\":23614:23695   */\n      gt\n        /* \"#utility.yul\":23609:23610   */\n      dup3\n        /* \"#utility.yul\":23602:23611   */\n      iszero\n        /* \"#utility.yul\":23595:23612   */\n      iszero\n        /* \"#utility.yul\":23591:23696   */\n      and\n        /* \"#utility.yul\":23588:23719   */\n      iszero\n      tag_477\n      jumpi\n        /* \"#utility.yul\":23699:23717   */\n      tag_478\n      tag_473\n      jump\t// in\n    tag_478:\n        /* \"#utility.yul\":23588:23719   */\n    tag_477:\n        /* \"#utility.yul\":23747:23748   */\n      dup3\n        /* \"#utility.yul\":23744:23745   */\n      dup3\n        /* \"#utility.yul\":23740:23749   */\n      mul\n        /* \"#utility.yul\":23729:23749   */\n      swap1\n      pop\n        /* \"#utility.yul\":23407:23755   */\n      swap3\n      swap2\n      pop\n      pop\n      jump\t// out\n        /* \"#utility.yul\":23761:23952   */\n    tag_113:\n        /* \"#utility.yul\":23801:23805   */\n      0x00\n        /* \"#utility.yul\":23821:23841   */\n      tag_480\n        /* \"#utility.yul\":23839:23840   */\n      dup3\n        /* \"#utility.yul\":23821:23841   */\n      tag_394\n      jump\t// in\n    tag_480:\n        /* \"#utility.yul\":23816:23841   */\n      swap2\n      pop\n        /* \"#utility.yul\":23855:23875   */\n      tag_481\n        /* \"#utility.yul\":23873:23874   */\n      dup4\n        /* \"#utility.yul\":23855:23875   */\n      tag_394\n      jump\t// in\n    tag_481:\n        /* \"#utility.yul\":23850:23875   */\n      swap3\n      pop\n        /* \"#utility.yul\":23894:23895   */\n      dup3\n        /* \"#utility.yul\":23891:23892   */\n      dup3\n        /* \"#utility.yul\":23888:23896   */\n      lt\n        /* \"#utility.yul\":23885:23919   */\n      iszero\n      tag_482\n      jumpi\n        /* \"#utility.yul\":23899:23917   */\n      tag_483\n      tag_473\n      jump\t// in\n    tag_483:\n        /* \"#utility.yul\":23885:23919   */\n    tag_482:\n        /* \"#utility.yul\":23944:23945   */\n      dup3\n        /* \"#utility.yul\":23941:23942   */\n      dup3\n        /* \"#utility.yul\":23937:23946   */\n      sub\n        /* \"#utility.yul\":23929:23946   */\n      swap1\n      pop\n        /* \"#utility.yul\":23761:23952   */\n      swap3\n      swap2\n      pop\n      pop\n      jump\t// out\n        /* \"#utility.yul\":23958:24054   */\n    tag_278:\n        /* \"#utility.yul\":23995:24002   */\n      0x00\n        /* \"#utility.yul\":24024:24048   */\n      tag_485\n        /* \"#utility.yul\":24042:24047   */\n      dup3\n        /* \"#utility.yul\":24024:24048   */\n      tag_486\n      jump\t// in\n    tag_485:\n        /* \"#utility.yul\":24013:24048   */\n      swap1\n      pop\n        /* \"#utility.yul\":23958:24054   */\n      swap2\n      swap1\n      pop\n      jump\t// out\n        /* \"#utility.yul\":24060:24150   */\n    tag_313:\n        /* \"#utility.yul\":24094:24101   */\n      0x00\n        /* \"#utility.yul\":24137:24142   */\n      dup2\n        /* \"#utility.yul\":24130:24143   */\n      iszero\n        /* \"#utility.yul\":24123:24144   */\n      iszero\n        /* \"#utility.yul\":24112:24144   */\n      swap1\n      pop\n        /* \"#utility.yul\":24060:24150   */\n      swap2\n      swap1\n      pop\n      jump\t// out\n        /* \"#utility.yul\":24156:24282   */\n    tag_486:\n        /* \"#utility.yul\":24193:24200   */\n      0x00\n        /* \"#utility.yul\":24233:24275   */\n      0xffffffffffffffffffffffffffffffffffffffff\n        /* \"#utility.yul\":24226:24231   */\n      dup3\n        /* \"#utility.yul\":24222:24276   */\n      and\n        /* \"#utility.yul\":24211:24276   */\n      swap1\n      pop\n        /* \"#utility.yul\":24156:24282   */\n      swap2\n      swap1\n      pop\n      jump\t// out\n        /* \"#utility.yul\":24288:24365   */\n    tag_394:\n        /* \"#utility.yul\":24325:24332   */\n      0x00\n        /* \"#utility.yul\":24354:24359   */\n      dup2\n        /* \"#utility.yul\":24343:24359   */\n      swap1\n      pop\n        /* \"#utility.yul\":24288:24365   */\n      swap2\n      swap1\n      pop\n      jump\t// out\n        /* \"#utility.yul\":24371:24525   */\n    tag_213:\n        /* \"#utility.yul\":24455:24461   */\n      dup3\n        /* \"#utility.yul\":24450:24453   */\n      dup2\n        /* \"#utility.yul\":24445:24448   */\n      dup4\n        /* \"#utility.yul\":24432:24462   */\n      calldatacopy\n        /* \"#utility.yul\":24517:24518   */\n      0x00\n        /* \"#utility.yul\":24508:24514   */\n      dup4\n        /* \"#utility.yul\":24503:24506   */\n      dup4\n        /* \"#utility.yul\":24499:24515   */\n      add\n        /* \"#utility.yul\":24492:24519   */\n      mstore\n        /* \"#utility.yul\":24371:24525   */\n      pop\n      pop\n      pop\n      jump\t// out\n        /* \"#utility.yul\":24531:24838   */\n    tag_333:\n        /* \"#utility.yul\":24599:24600   */\n      0x00\n        /* \"#utility.yul\":24609:24722   */\n    tag_492:\n        /* \"#utility.yul\":24623:24629   */\n      dup4\n        /* \"#utility.yul\":24620:24621   */\n      dup2\n        /* \"#utility.yul\":24617:24630   */\n      lt\n        /* \"#utility.yul\":24609:24722   */\n      iszero\n      tag_494\n      jumpi\n        /* \"#utility.yul\":24708:24709   */\n      dup1\n        /* \"#utility.yul\":24703:24706   */\n      dup3\n        /* \"#utility.yul\":24699:24710   */\n      add\n        /* \"#utility.yul\":24693:24711   */\n      mload\n        /* \"#utility.yul\":24689:24690   */\n      dup2\n        /* \"#utility.yul\":24684:24687   */\n      dup5\n        /* \"#utility.yul\":24680:24691   */\n      add\n        /* \"#utility.yul\":24673:24712   */\n      mstore\n        /* \"#utility.yul\":24645:24647   */\n      0x20\n        /* \"#utility.yul\":24642:24643   */\n      dup2\n        /* \"#utility.yul\":24638:24648   */\n      add\n        /* \"#utility.yul\":24633:24648   */\n      swap1\n      pop\n        /* \"#utility.yul\":24609:24722   */\n      jump(tag_492)\n    tag_494:\n        /* \"#utility.yul\":24740:24746   */\n      dup4\n        /* \"#utility.yul\":24737:24738   */\n      dup2\n        /* \"#utility.yul\":24734:24747   */\n      gt\n        /* \"#utility.yul\":24731:24832   */\n      iszero\n      tag_495\n      jumpi\n        /* \"#utility.yul\":24820:24821   */\n      0x00\n        /* \"#utility.yul\":24811:24817   */\n      dup5\n        /* \"#utility.yul\":24806:24809   */\n      dup5\n        /* \"#utility.yul\":24802:24818   */\n      add\n        /* \"#utility.yul\":24795:24822   */\n      mstore\n        /* \"#utility.yul\":24731:24832   */\n    tag_495:\n        /* \"#utility.yul\":24580:24838   */\n      pop\n        /* \"#utility.yul\":24531:24838   */\n      pop\n      pop\n      pop\n      jump\t// out\n        /* \"#utility.yul\":24844:25164   */\n    tag_162:\n        /* \"#utility.yul\":24888:24894   */\n      0x00\n        /* \"#utility.yul\":24925:24926   */\n      0x02\n        /* \"#utility.yul\":24919:24923   */\n      dup3\n        /* \"#utility.yul\":24915:24927   */\n      div\n        /* \"#utility.yul\":24905:24927   */\n      swap1\n      pop\n        /* \"#utility.yul\":24972:24973   */\n      0x01\n        /* \"#utility.yul\":24966:24970   */\n      dup3\n        /* \"#utility.yul\":24962:24974   */\n      and\n        /* \"#utility.yul\":24993:25011   */\n      dup1\n        /* \"#utility.yul\":24983:25064   */\n      tag_497\n      jumpi\n        /* \"#utility.yul\":25049:25053   */\n      0x7f\n        /* \"#utility.yul\":25041:25047   */\n      dup3\n        /* \"#utility.yul\":25037:25054   */\n      and\n        /* \"#utility.yul\":25027:25054   */\n      swap2\n      pop\n        /* \"#utility.yul\":24983:25064   */\n    tag_497:\n        /* \"#utility.yul\":25111:25113   */\n      0x20\n        /* \"#utility.yul\":25103:25109   */\n      dup3\n        /* \"#utility.yul\":25100:25114   */\n      lt\n        /* \"#utility.yul\":25080:25098   */\n      dup2\n        /* \"#utility.yul\":25077:25115   */\n      eq\n        /* \"#utility.yul\":25074:25158   */\n      iszero\n      tag_498\n      jumpi\n        /* \"#utility.yul\":25130:25148   */\n      tag_499\n      tag_500\n      jump\t// in\n    tag_499:\n        /* \"#utility.yul\":25074:25158   */\n    tag_498:\n        /* \"#utility.yul\":24895:25164   */\n      pop\n        /* \"#utility.yul\":24844:25164   */\n      swap2\n      swap1\n      pop\n      jump\t// out\n        /* \"#utility.yul\":25170:25451   */\n    tag_449:\n        /* \"#utility.yul\":25253:25280   */\n      tag_502\n        /* \"#utility.yul\":25275:25279   */\n      dup3\n        /* \"#utility.yul\":25253:25280   */\n      tag_320\n      jump\t// in\n    tag_502:\n        /* \"#utility.yul\":25245:25251   */\n      dup2\n        /* \"#utility.yul\":25241:25281   */\n      add\n        /* \"#utility.yul\":25383:25389   */\n      dup2\n        /* \"#utility.yul\":25371:25381   */\n      dup2\n        /* \"#utility.yul\":25368:25390   */\n      lt\n        /* \"#utility.yul\":25347:25365   */\n      0xffffffffffffffff\n        /* \"#utility.yul\":25335:25345   */\n      dup3\n        /* \"#utility.yul\":25332:25366   */\n      gt\n        /* \"#utility.yul\":25329:25391   */\n      or\n        /* \"#utility.yul\":25326:25414   */\n      iszero\n      tag_503\n      jumpi\n        /* \"#utility.yul\":25394:25412   */\n      tag_504\n      tag_454\n      jump\t// in\n    tag_504:\n        /* \"#utility.yul\":25326:25414   */\n    tag_503:\n        /* \"#utility.yul\":25434:25444   */\n      dup1\n        /* \"#utility.yul\":25430:25432   */\n      0x40\n        /* \"#utility.yul\":25423:25445   */\n      mstore\n        /* \"#utility.yul\":25213:25451   */\n      pop\n        /* \"#utility.yul\":25170:25451   */\n      pop\n      pop\n      jump\t// out\n        /* \"#utility.yul\":25457:25690   */\n    tag_125:\n        /* \"#utility.yul\":25496:25499   */\n      0x00\n        /* \"#utility.yul\":25519:25543   */\n      tag_506\n        /* \"#utility.yul\":25537:25542   */\n      dup3\n        /* \"#utility.yul\":25519:25543   */\n      tag_394\n      jump\t// in\n    tag_506:\n        /* \"#utility.yul\":25510:25543   */\n      swap2\n      pop\n        /* \"#utility.yul\":25565:25631   */\n      0xffffffffffffffffffffffffffffffffffffffffffffffffffffffffffffffff\n        /* \"#utility.yul\":25558:25563   */\n      dup3\n        /* \"#utility.yul\":25555:25632   */\n      eq\n        /* \"#utility.yul\":25552:25655   */\n      iszero\n      tag_507\n      jumpi\n        /* \"#utility.yul\":25635:25653   */\n      tag_508\n      tag_473\n      jump\t// in\n    tag_508:\n        /* \"#utility.yul\":25552:25655   */\n    tag_507:\n        /* \"#utility.yul\":25682:25683   */\n      0x01\n        /* \"#utility.yul\":25675:25680   */\n      dup3\n        /* \"#utility.yul\":25671:25684   */\n      add\n        /* \"#utility.yul\":25664:25684   */\n      swap1\n      pop\n        /* \"#utility.yul\":25457:25690   */\n      swap2\n      swap1\n      pop\n      jump\t// out\n        /* \"#utility.yul\":25696:25876   */\n    tag_473:\n        /* \"#utility.yul\":25744:25821   */\n      0x4e487b7100000000000000000000000000000000000000000000000000000000\n        /* \"#utility.yul\":25741:25742   */\n      0x00\n        /* \"#utility.yul\":25734:25822   */\n      mstore\n        /* \"#utility.yul\":25841:25845   */\n      0x11\n        /* \"#utility.yul\":25838:25839   */\n      0x04\n        /* \"#utility.yul\":25831:25846   */\n      mstore\n        /* \"#utility.yul\":25865:25869   */\n      0x24\n        /* \"#utility.yul\":25862:25863   */\n      0x00\n        /* \"#utility.yul\":25855:25870   */\n      revert\n        /* \"#utility.yul\":25882:26062   */\n    tag_500:\n        /* \"#utility.yul\":25930:26007   */\n      0x4e487b7100000000000000000000000000000000000000000000000000000000\n        /* \"#utility.yul\":25927:25928   */\n      0x00\n        /* \"#utility.yul\":25920:26008   */\n      mstore\n        /* \"#utility.yul\":26027:26031   */\n      0x22\n        /* \"#utility.yul\":26024:26025   */\n      0x04\n        /* \"#utility.yul\":26017:26032   */\n      mstore\n        /* \"#utility.yul\":26051:26055   */\n      0x24\n        /* \"#utility.yul\":26048:26049   */\n      0x00\n        /* \"#utility.yul\":26041:26056   */\n      revert\n        /* \"#utility.yul\":26068:26248   */\n    tag_122:\n        /* \"#utility.yul\":26116:26193   */\n      0x4e487b7100000000000000000000000000000000000000000000000000000000\n        /* \"#utility.yul\":26113:26114   */\n      0x00\n        /* \"#utility.yul\":26106:26194   */\n      mstore\n        /* \"#utility.yul\":26213:26217   */\n      0x31\n        /* \"#utility.yul\":26210:26211   */\n      0x04\n        /* \"#utility.yul\":26203:26218   */\n      mstore\n        /* \"#utility.yul\":26237:26241   */\n      0x24\n        /* \"#utility.yul\":26234:26235   */\n      0x00\n        /* \"#utility.yul\":26227:26242   */\n      revert\n        /* \"#utility.yul\":26254:26434   */\n    tag_102:\n        /* \"#utility.yul\":26302:26379   */\n      0x4e487b7100000000000000000000000000000000000000000000000000000000\n        /* \"#utility.yul\":26299:26300   */\n      0x00\n        /* \"#utility.yul\":26292:26380   */\n      mstore\n        /* \"#utility.yul\":26399:26403   */\n      0x32\n        /* \"#utility.yul\":26396:26397   */\n      0x04\n        /* \"#utility.yul\":26389:26404   */\n      mstore\n        /* \"#utility.yul\":26423:26427   */\n      0x24\n        /* \"#utility.yul\":26420:26421   */\n      0x00\n        /* \"#utility.yul\":26413:26428   */\n      revert\n        /* \"#utility.yul\":26440:26620   */\n    tag_454:\n        /* \"#utility.yul\":26488:26565   */\n      0x4e487b7100000000000000000000000000000000000000000000000000000000\n        /* \"#utility.yul\":26485:26486   */\n      0x00\n        /* \"#utility.yul\":26478:26566   */\n      mstore\n        /* \"#utility.yul\":26585:26589   */\n      0x41\n        /* \"#utility.yul\":26582:26583   */\n      0x04\n        /* \"#utility.yul\":26575:26590   */\n      mstore\n        /* \"#utility.yul\":26609:26613   */\n      0x24\n        /* \"#utility.yul\":26606:26607   */\n      0x00\n        /* \"#utility.yul\":26599:26614   */\n      revert\n        /* \"#utility.yul\":26626:26743   */\n    tag_225:\n        /* \"#utility.yul\":26735:26736   */\n      0x00\n        /* \"#utility.yul\":26732:26733   */\n      dup1\n        /* \"#utility.yul\":26725:26737   */\n      revert\n        /* \"#utility.yul\":26749:26866   */\n    tag_222:\n        /* \"#utility.yul\":26858:26859   */\n      0x00\n        /* \"#utility.yul\":26855:26856   */\n      dup1\n        /* \"#utility.yul\":26848:26860   */\n      revert\n        /* \"#utility.yul\":26872:26989   */\n    tag_228:\n        /* \"#utility.yul\":26981:26982   */\n      0x00\n        /* \"#utility.yul\":26978:26979   */\n      dup1\n        /* \"#utility.yul\":26971:26983   */\n      revert\n        /* \"#utility.yul\":26995:27112   */\n    tag_211:\n        /* \"#utility.yul\":27104:27105   */\n      0x00\n        /* \"#utility.yul\":27101:27102   */\n      dup1\n        /* \"#utility.yul\":27094:27106   */\n      revert\n        /* \"#utility.yul\":27118:27235   */\n    tag_244:\n        /* \"#utility.yul\":27227:27228   */\n      0x00\n        /* \"#utility.yul\":27224:27225   */\n      dup1\n        /* \"#utility.yul\":27217:27229   */\n      revert\n        /* \"#utility.yul\":27241:27358   */\n    tag_241:\n        /* \"#utility.yul\":27350:27351   */\n      0x00\n        /* \"#utility.yul\":27347:27348   */\n      dup1\n        /* \"#utility.yul\":27340:27352   */\n      revert\n        /* \"#utility.yul\":27364:27466   */\n    tag_320:\n        /* \"#utility.yul\":27405:27411   */\n      0x00\n        /* \"#utility.yul\":27456:27458   */\n      0x1f\n        /* \"#utility.yul\":27452:27459   */\n      not\n        /* \"#utility.yul\":27447:27449   */\n      0x1f\n        /* \"#utility.yul\":27440:27445   */\n      dup4\n        /* \"#utility.yul\":27436:27450   */\n      add\n        /* \"#utility.yul\":27432:27460   */\n      and\n        /* \"#utility.yul\":27422:27460   */\n      swap1\n      pop\n        /* \"#utility.yul\":27364:27466   */\n      swap2\n      swap1\n      pop\n      jump\t// out\n        /* \"#utility.yul\":27472:27644   */\n    tag_345:\n        /* \"#utility.yul\":27612:27636   */\n      0x596f7520617265206e6f7420746865206f776e65722100000000000000000000\n        /* \"#utility.yul\":27608:27609   */\n      0x00\n        /* \"#utility.yul\":27600:27606   */\n      dup3\n        /* \"#utility.yul\":27596:27610   */\n      add\n        /* \"#utility.yul\":27589:27637   */\n      mstore\n        /* \"#utility.yul\":27472:27644   */\n      pop\n      jump\t// out\n        /* \"#utility.yul\":27650:27882   */\n    tag_350:\n        /* \"#utility.yul\":27790:27824   */\n      0x5468652070726f64756374207175616e74697479206973206c65737320746861\n        /* \"#utility.yul\":27786:27787   */\n      0x00\n        /* \"#utility.yul\":27778:27784   */\n      dup3\n        /* \"#utility.yul\":27774:27788   */\n      add\n        /* \"#utility.yul\":27767:27825   */\n      mstore\n        /* \"#utility.yul\":27859:27874   */\n      0x6e20796f752077616e7465642100000000000000000000000000000000000000\n        /* \"#utility.yul\":27854:27856   */\n      0x20\n        /* \"#utility.yul\":27846:27852   */\n      dup3\n        /* \"#utility.yul\":27842:27857   */\n      add\n        /* \"#utility.yul\":27835:27875   */\n      mstore\n        /* \"#utility.yul\":27650:27882   */\n      pop\n      jump\t// out\n        /* \"#utility.yul\":27888:28066   */\n    tag_355:\n        /* \"#utility.yul\":28028:28058   */\n      0x54696d6520666f722072657475726e2068617320657870697265642100000000\n        /* \"#utility.yul\":28024:28025   */\n      0x00\n        /* \"#utility.yul\":28016:28022   */\n      dup3\n        /* \"#utility.yul\":28012:28026   */\n      add\n        /* \"#utility.yul\":28005:28059   */\n      mstore\n        /* \"#utility.yul\":27888:28066   */\n      pop\n      jump\t// out\n        /* \"#utility.yul\":28072:28375   */\n    tag_360:\n        /* \"#utility.yul\":28212:28246   */\n      0x506c656173652073656e6420746865206578616374207072696365206f662074\n        /* \"#utility.yul\":28208:28209   */\n      0x00\n        /* \"#utility.yul\":28200:28206   */\n      dup3\n        /* \"#utility.yul\":28196:28210   */\n      add\n        /* \"#utility.yul\":28189:28247   */\n      mstore\n        /* \"#utility.yul\":28281:28315   */\n      0x68652070726f64756374206d756c7469706c6965642062792074686520717561\n        /* \"#utility.yul\":28276:28278   */\n      0x20\n        /* \"#utility.yul\":28268:28274   */\n      dup3\n        /* \"#utility.yul\":28264:28279   */\n      add\n        /* \"#utility.yul\":28257:28316   */\n      mstore\n        /* \"#utility.yul\":28350:28367   */\n      0x6e7469747920796f752077616e74210000000000000000000000000000000000\n        /* \"#utility.yul\":28345:28347   */\n      0x40\n        /* \"#utility.yul\":28337:28343   */\n      dup3\n        /* \"#utility.yul\":28333:28348   */\n      add\n        /* \"#utility.yul\":28326:28368   */\n      mstore\n        /* \"#utility.yul\":28072:28375   */\n      pop\n      jump\t// out\n        /* \"#utility.yul\":28381:28601   */\n    tag_365:\n        /* \"#utility.yul\":28521:28555   */\n      0x596f752068617665206e6f7420626f7567687420746869732070726f64756374\n        /* \"#utility.yul\":28517:28518   */\n      0x00\n        /* \"#utility.yul\":28509:28515   */\n      dup3\n        /* \"#utility.yul\":28505:28519   */\n      add\n        /* \"#utility.yul\":28498:28556   */\n      mstore\n        /* \"#utility.yul\":28590:28593   */\n      0x2100000000000000000000000000000000000000000000000000000000000000\n        /* \"#utility.yul\":28585:28587   */\n      0x20\n        /* \"#utility.yul\":28577:28583   */\n      dup3\n        /* \"#utility.yul\":28573:28588   */\n      add\n        /* \"#utility.yul\":28566:28594   */\n      mstore\n        /* \"#utility.yul\":28381:28601   */\n      pop\n      jump\t// out\n        /* \"#utility.yul\":28607:28774   */\n    tag_370:\n        /* \"#utility.yul\":28747:28766   */\n      0x496e76616c6964207175616e7469747921000000000000000000000000000000\n        /* \"#utility.yul\":28743:28744   */\n      0x00\n        /* \"#utility.yul\":28735:28741   */\n      dup3\n        /* \"#utility.yul\":28731:28745   */\n      add\n        /* \"#utility.yul\":28724:28767   */\n      mstore\n        /* \"#utility.yul\":28607:28774   */\n      pop\n      jump\t// out\n        /* \"#utility.yul\":28780:29004   */\n    tag_375:\n        /* \"#utility.yul\":28920:28954   */\n      0x596f75206861766520616c726561647920626f7567687420746869732070726f\n        /* \"#utility.yul\":28916:28917   */\n      0x00\n        /* \"#utility.yul\":28908:28914   */\n      dup3\n        /* \"#utility.yul\":28904:28918   */\n      add\n        /* \"#utility.yul\":28897:28955   */\n      mstore\n        /* \"#utility.yul\":28989:28996   */\n      0x6475637421000000000000000000000000000000000000000000000000000000\n        /* \"#utility.yul\":28984:28986   */\n      0x20\n        /* \"#utility.yul\":28976:28982   */\n      dup3\n        /* \"#utility.yul\":28972:28987   */\n      add\n        /* \"#utility.yul\":28965:28997   */\n      mstore\n        /* \"#utility.yul\":28780:29004   */\n      pop\n      jump\t// out\n        /* \"#utility.yul\":29010:29188   */\n    tag_380:\n        /* \"#utility.yul\":29150:29180   */\n      0x5468652070726f64756374206973206e6f74206578697374696e672100000000\n        /* \"#utility.yul\":29146:29147   */\n      0x00\n        /* \"#utility.yul\":29138:29144   */\n      dup3\n        /* \"#utility.yul\":29134:29148   */\n      add\n        /* \"#utility.yul\":29127:29181   */\n      mstore\n        /* \"#utility.yul\":29010:29188   */\n      pop\n      jump\t// out\n        /* \"#utility.yul\":29194:29417   */\n    tag_385:\n        /* \"#utility.yul\":29334:29368   */\n      0x5468652070726f6475637420697320616c726561647920696e20746865207374\n        /* \"#utility.yul\":29330:29331   */\n      0x00\n        /* \"#utility.yul\":29322:29328   */\n      dup3\n        /* \"#utility.yul\":29318:29332   */\n      add\n        /* \"#utility.yul\":29311:29369   */\n      mstore\n        /* \"#utility.yul\":29403:29409   */\n      0x6f72652100000000000000000000000000000000000000000000000000000000\n        /* \"#utility.yul\":29398:29400   */\n      0x20\n        /* \"#utility.yul\":29390:29396   */\n      dup3\n        /* \"#utility.yul\":29386:29401   */\n      add\n        /* \"#utility.yul\":29379:29410   */\n      mstore\n        /* \"#utility.yul\":29194:29417   */\n      pop\n      jump\t// out\n        /* \"#utility.yul\":29423:29545   */\n    tag_217:\n        /* \"#utility.yul\":29496:29520   */\n      tag_531\n        /* \"#utility.yul\":29514:29519   */\n      dup2\n        /* \"#utility.yul\":29496:29520   */\n      tag_278\n      jump\t// in\n    tag_531:\n        /* \"#utility.yul\":29489:29494   */\n      dup2\n        /* \"#utility.yul\":29486:29521   */\n      eq\n        /* \"#utility.yul\":29476:29539   */\n      tag_532\n      jumpi\n        /* \"#utility.yul\":29535:29536   */\n      0x00\n        /* \"#utility.yul\":29532:29533   */\n      dup1\n        /* \"#utility.yul\":29525:29537   */\n      revert\n        /* \"#utility.yul\":29476:29539   */\n    tag_532:\n        /* \"#utility.yul\":29423:29545   */\n      pop\n      jump\t// out\n        /* \"#utility.yul\":29551:29673   */\n    tag_237:\n        /* \"#utility.yul\":29624:29648   */\n      tag_534\n        /* \"#utility.yul\":29642:29647   */\n      dup2\n        /* \"#utility.yul\":29624:29648   */\n      tag_394\n      jump\t// in\n    tag_534:\n        /* \"#utility.yul\":29617:29622   */\n      dup2\n        /* \"#utility.yul\":29614:29649   */\n      eq\n        /* \"#utility.yul\":29604:29667   */\n      tag_535\n      jumpi\n        /* \"#utility.yul\":29663:29664   */\n      0x00\n        /* \"#utility.yul\":29660:29661   */\n      dup1\n        /* \"#utility.yul\":29653:29665   */\n      revert\n        /* \"#utility.yul\":29604:29667   */\n    tag_535:\n        /* \"#utility.yul\":29551:29673   */\n      pop\n      jump\t// out\n\n    auxdata: 0xa2646970667358221220494bfd353635f96f7eaf027d82db697d8f1a4c158dcd736cb72c677fb012790a64736f6c63430008070033\n}\n",
				"bytecode": {
					"linkReferences": {},
					"object": "608060405234801561001057600080fd5b50336000806101000a81548173ffffffffffffffffffffffffffffffffffffffff021916908373ffffffffffffffffffffffffffffffffffffffff160217905550612178806100606000396000f3fe60806040526004361061009c5760003560e01c80638c75ae83116100645780638c75ae831461018c5780638da5cb5b146101c9578063c29b2f20146101f4578063ccc4174a1461021f578063fcc93b0b1461025d578063fe4b953d146102865761009c565b80630a5bd44b146100a1578063131e407d146100ca5780634c437514146100f357806353b62866146101305780637acc0b201461014c575b600080fd5b3480156100ad57600080fd5b506100c860048036038101906100c391906112ad565b6102c3565b005b3480156100d657600080fd5b506100f160048036038101906100ec919061136a565b610530565b005b3480156100ff57600080fd5b5061011a60048036038101906101159190611321565b6108cc565b604051610127919061189b565b60405180910390f35b61014a600480360381019061014591906113d7565b610902565b005b34801561015857600080fd5b50610173600480360381019061016e919061136a565b610cc1565b6040516101839493929190611a16565b60405180910390f35b34801561019857600080fd5b506101b360048036038101906101ae919061136a565b610d89565b6040516101c09190611857565b60405180910390f35b3480156101d557600080fd5b506101de610e2a565b6040516101eb91906117dc565b60405180910390f35b34801561020057600080fd5b50610209610e4e565b6040516102169190611879565b60405180910390f35b34801561022b57600080fd5b5061024660048036038101906102419190611397565b610f5d565b604051610254929190611a62565b60405180910390f35b34801561026957600080fd5b50610284600480360381019061027f91906113d7565b610f8e565b005b34801561029257600080fd5b506102ad60048036038101906102a891906113d7565b6110cc565b6040516102ba91906117dc565b60405180910390f35b60008054906101000a900473ffffffffffffffffffffffffffffffffffffffff1673ffffffffffffffffffffffffffffffffffffffff163373ffffffffffffffffffffffffffffffffffffffff1614610351576040517f08c379a0000000000000000000000000000000000000000000000000000000008152600401610348906118f6565b60405180910390fd5b600084849050141580156103655750600081115b61036e57600080fd5b600284846040516103809291906117c3565b908152602001604051809103902060009054906101000a900460ff16156103dc576040517f08c379a00000000000000000000000000000000000000000000000000000000081526004016103d3906119f6565b60405180910390fd5b600060018054905090506001600286866040516103fa9291906117c3565b908152602001604051809103902060006101000a81548160ff0219169083151502179055506001604051806080016040528083815260200187878080601f016020809104026020016040519081016040528093929190818152602001838380828437600081840152601f19601f8201169050808301925050505050505081526020018581526020018481525090806001815401808255809150506001900390600052602060002090600402016000909190919091506000820151816000015560208201518160010190805190602001906104d592919061111a565b50604082015181600201556060820151816003015550507faf15189af1861da85d7d959da20a528553cf2d64fc75f6fc7f6894097e9e9cf18585858560405161052194939291906118b6565b60405180910390a15050505050565b600033905060006003600084815260200190815260200160002060008373ffffffffffffffffffffffffffffffffffffffff1673ffffffffffffffffffffffffffffffffffffffff1681526020019081526020016000206040518060400160405290816000820154815260200160018201548152505090506000816000015114156105f0576040517f08c379a00000000000000000000000000000000000000000000000000000000081526004016105e790611976565b60405180910390fd5b600043905080606483602001516106079190611b8b565b1015610648576040517f08c379a000000000000000000000000000000000000000000000000000000000815260040161063f90611936565b60405180910390fd5b81600001516001858154811061066157610660611e32565b5b906000526020600020906004020160020160008282546106819190611b8b565b925050819055506003600085815260200190815260200160002060008473ffffffffffffffffffffffffffffffffffffffff1673ffffffffffffffffffffffffffffffffffffffff16815260200190815260200160002060008082016000905560018201600090555050600060046000868152602001908152602001600020905060008180549050905060005b8181101561088a578573ffffffffffffffffffffffffffffffffffffffff168382815481106107405761073f611e32565b5b9060005260206000200160009054906101000a900473ffffffffffffffffffffffffffffffffffffffff1673ffffffffffffffffffffffffffffffffffffffff16141561087757826001836107959190611c3b565b815481106107a6576107a5611e32565b5b9060005260206000200160009054906101000a900473ffffffffffffffffffffffffffffffffffffffff168382815481106107e4576107e3611e32565b5b9060005260206000200160006101000a81548173ffffffffffffffffffffffffffffffffffffffff021916908373ffffffffffffffffffffffffffffffffffffffff1602179055508280548061083d5761083c611e03565b5b6001900381819060005260206000200160006101000a81549073ffffffffffffffffffffffffffffffffffffffff0219169055905561088a565b808061088290611d5c565b91505061070e565b507f8ca1aa6579d40102b86ea2cb41e387842eeca2bc27384cd954407822d79f237585876040516108bc9291906117f7565b60405180910390a1505050505050565b6002818051602081018201805184825260208301602085012081835280955050505050506000915054906101000a900460ff1681565b81600180549050811061094a576040517f08c379a0000000000000000000000000000000000000000000000000000000008152600401610941906119d6565b60405180910390fd5b6000821161098d576040517f08c379a000000000000000000000000000000000000000000000000000000000815260040161098490611996565b60405180910390fd5b600033905060006003600086815260200190815260200160002060008373ffffffffffffffffffffffffffffffffffffffff1673ffffffffffffffffffffffffffffffffffffffff1681526020019081526020016000206000015414610a28576040517f08c379a0000000000000000000000000000000000000000000000000000000008152600401610a1f906119b6565b60405180910390fd5b600060018581548110610a3e57610a3d611e32565b5b906000526020600020906004020190508381600201541015610a95576040517f08c379a0000000000000000000000000000000000000000000000000000000008152600401610a8c90611916565b60405180910390fd5b60008460018781548110610aac57610aab611e32565b5b906000526020600020906004020160030154610ac89190611be1565b9050803414610b0c576040517f08c379a0000000000000000000000000000000000000000000000000000000008152600401610b0390611956565b60405180910390fd5b60008054906101000a900473ffffffffffffffffffffffffffffffffffffffff1673ffffffffffffffffffffffffffffffffffffffff166108fc829081150290604051600060405180830381858888f19350505050158015610b72573d6000803e3d6000fd5b506040518060400160405280868152602001438152506003600088815260200190815260200160002060008573ffffffffffffffffffffffffffffffffffffffff1673ffffffffffffffffffffffffffffffffffffffff168152602001908152602001600020600082015181600001556020820151816001015590505060046000878152602001908152602001600020839080600181540180825580915050600190039060005260206000200160009091909190916101000a81548173ffffffffffffffffffffffffffffffffffffffff021916908373ffffffffffffffffffffffffffffffffffffffff16021790555084826002016000828254610c779190611c3b565b925050819055507fc032f62758cac23a902e648ab54b6825665b9bc19e7cd0a8ab915cbf3eea4fa0838787604051610cb193929190611820565b60405180910390a1505050505050565b60018181548110610cd157600080fd5b9060005260206000209060040201600091509050806000015490806001018054610cfa90611cf9565b80601f0160208091040260200160405190810160405280929190818152602001828054610d2690611cf9565b8015610d735780601f10610d4857610100808354040283529160200191610d73565b820191906000526020600020905b815481529060010190602001808311610d5657829003601f168201915b5050505050908060020154908060030154905084565b606060046000838152602001908152602001600020805480602002602001604051908101604052809291908181526020018280548015610e1e57602002820191906000526020600020905b8160009054906101000a900473ffffffffffffffffffffffffffffffffffffffff1673ffffffffffffffffffffffffffffffffffffffff1681526020019060010190808311610dd4575b50505050509050919050565b60008054906101000a900473ffffffffffffffffffffffffffffffffffffffff1681565b60606001805480602002602001604051908101604052809291908181526020016000905b82821015610f54578382906000526020600020906004020160405180608001604052908160008201548152602001600182018054610eaf90611cf9565b80601f0160208091040260200160405190810160405280929190818152602001828054610edb90611cf9565b8015610f285780601f10610efd57610100808354040283529160200191610f28565b820191906000526020600020905b815481529060010190602001808311610f0b57829003601f168201915b505050505081526020016002820154815260200160038201548152505081526020019060010190610e72565b50505050905090565b6003602052816000526040600020602052806000526040600020600091509150508060000154908060010154905082565b60008054906101000a900473ffffffffffffffffffffffffffffffffffffffff1673ffffffffffffffffffffffffffffffffffffffff163373ffffffffffffffffffffffffffffffffffffffff161461101c576040517f08c379a0000000000000000000000000000000000000000000000000000000008152600401611013906118f6565b60405180910390fd5b816001805490508110611064576040517f08c379a000000000000000000000000000000000000000000000000000000000815260040161105b906119d6565b60405180910390fd5b816001848154811061107957611078611e32565b5b9060005260206000209060040201600201819055507f1a58b4c176a67828ebe2456bc637af85e69b115be11597e049b0669d13bea99983836040516110bf929190611a62565b60405180910390a1505050565b600460205281600052604060002081815481106110e857600080fd5b906000526020600020016000915091509054906101000a900473ffffffffffffffffffffffffffffffffffffffff1681565b82805461112690611cf9565b90600052602060002090601f016020900481019282611148576000855561118f565b82601f1061116157805160ff191683800117855561118f565b8280016001018555821561118f579182015b8281111561118e578251825591602001919060010190611173565b5b50905061119c91906111a0565b5090565b5b808211156111b95760008160009055506001016111a1565b5090565b60006111d06111cb84611ab0565b611a8b565b9050828152602081018484840111156111ec576111eb611e9f565b5b6111f7848285611cb7565b509392505050565b60008135905061120e81612114565b92915050565b60008083601f84011261122a57611229611e95565b5b8235905067ffffffffffffffff81111561124757611246611e90565b5b60208301915083600182028301111561126357611262611e9a565b5b9250929050565b600082601f83011261127f5761127e611e95565b5b813561128f8482602086016111bd565b91505092915050565b6000813590506112a78161212b565b92915050565b600080600080606085870312156112c7576112c6611ea9565b5b600085013567ffffffffffffffff8111156112e5576112e4611ea4565b5b6112f187828801611214565b9450945050602061130487828801611298565b925050604061131587828801611298565b91505092959194509250565b60006020828403121561133757611336611ea9565b5b600082013567ffffffffffffffff81111561135557611354611ea4565b5b6113618482850161126a565b91505092915050565b6000602082840312156113805761137f611ea9565b5b600061138e84828501611298565b91505092915050565b600080604083850312156113ae576113ad611ea9565b5b60006113bc85828601611298565b92505060206113cd858286016111ff565b9150509250929050565b600080604083850312156113ee576113ed611ea9565b5b60006113fc85828601611298565b925050602061140d85828601611298565b9150509250929050565b60006114238383611443565b60208301905092915050565b600061143b8383611742565b905092915050565b61144c81611c6f565b82525050565b61145b81611c6f565b82525050565b600061146c82611b01565b6114768185611b3c565b935061148183611ae1565b8060005b838110156114b25781516114998882611417565b97506114a483611b22565b925050600181019050611485565b5085935050505092915050565b60006114ca82611b0c565b6114d48185611b4d565b9350836020820285016114e685611af1565b8060005b858110156115225784840389528151611503858261142f565b945061150e83611b2f565b925060208a019950506001810190506114ea565b50829750879550505050505092915050565b61153d81611c81565b82525050565b600061154f8385611b6f565b935061155c838584611cb7565b61156583611eae565b840190509392505050565b600061157c8385611b80565b9350611589838584611cb7565b82840190509392505050565b60006115a082611b17565b6115aa8185611b5e565b93506115ba818560208601611cc6565b6115c381611eae565b840191505092915050565b60006115d982611b17565b6115e38185611b6f565b93506115f3818560208601611cc6565b6115fc81611eae565b840191505092915050565b6000611614601683611b6f565b915061161f82611ebf565b602082019050919050565b6000611637602d83611b6f565b915061164282611ee8565b604082019050919050565b600061165a601c83611b6f565b915061166582611f37565b602082019050919050565b600061167d604f83611b6f565b915061168882611f60565b606082019050919050565b60006116a0602183611b6f565b91506116ab82611fd5565b604082019050919050565b60006116c3601183611b6f565b91506116ce82612024565b602082019050919050565b60006116e6602583611b6f565b91506116f18261204d565b604082019050919050565b6000611709601c83611b6f565b91506117148261209c565b602082019050919050565b600061172c602483611b6f565b9150611737826120c5565b604082019050919050565b600060808301600083015161175a60008601826117a5565b50602083015184820360208601526117728282611595565b915050604083015161178760408601826117a5565b50606083015161179a60608601826117a5565b508091505092915050565b6117ae81611cad565b82525050565b6117bd81611cad565b82525050565b60006117d0828486611570565b91508190509392505050565b60006020820190506117f16000830184611452565b92915050565b600060408201905061180c6000830185611452565b61181960208301846117b4565b9392505050565b60006060820190506118356000830186611452565b61184260208301856117b4565b61184f60408301846117b4565b949350505050565b600060208201905081810360008301526118718184611461565b905092915050565b6000602082019050818103600083015261189381846114bf565b905092915050565b60006020820190506118b06000830184611534565b92915050565b600060608201905081810360008301526118d1818688611543565b90506118e060208301856117b4565b6118ed60408301846117b4565b95945050505050565b6000602082019050818103600083015261190f81611607565b9050919050565b6000602082019050818103600083015261192f8161162a565b9050919050565b6000602082019050818103600083015261194f8161164d565b9050919050565b6000602082019050818103600083015261196f81611670565b9050919050565b6000602082019050818103600083015261198f81611693565b9050919050565b600060208201905081810360008301526119af816116b6565b9050919050565b600060208201905081810360008301526119cf816116d9565b9050919050565b600060208201905081810360008301526119ef816116fc565b9050919050565b60006020820190508181036000830152611a0f8161171f565b9050919050565b6000608082019050611a2b60008301876117b4565b8181036020830152611a3d81866115ce565b9050611a4c60408301856117b4565b611a5960608301846117b4565b95945050505050565b6000604082019050611a7760008301856117b4565b611a8460208301846117b4565b9392505050565b6000611a95611aa6565b9050611aa18282611d2b565b919050565b6000604051905090565b600067ffffffffffffffff821115611acb57611aca611e61565b5b611ad482611eae565b9050602081019050919050565b6000819050602082019050919050565b6000819050602082019050919050565b600081519050919050565b600081519050919050565b600081519050919050565b6000602082019050919050565b6000602082019050919050565b600082825260208201905092915050565b600082825260208201905092915050565b600082825260208201905092915050565b600082825260208201905092915050565b600081905092915050565b6000611b9682611cad565b9150611ba183611cad565b9250827fffffffffffffffffffffffffffffffffffffffffffffffffffffffffffffffff03821115611bd657611bd5611da5565b5b828201905092915050565b6000611bec82611cad565b9150611bf783611cad565b9250817fffffffffffffffffffffffffffffffffffffffffffffffffffffffffffffffff0483118215151615611c3057611c2f611da5565b5b828202905092915050565b6000611c4682611cad565b9150611c5183611cad565b925082821015611c6457611c63611da5565b5b828203905092915050565b6000611c7a82611c8d565b9050919050565b60008115159050919050565b600073ffffffffffffffffffffffffffffffffffffffff82169050919050565b6000819050919050565b82818337600083830152505050565b60005b83811015611ce4578082015181840152602081019050611cc9565b83811115611cf3576000848401525b50505050565b60006002820490506001821680611d1157607f821691505b60208210811415611d2557611d24611dd4565b5b50919050565b611d3482611eae565b810181811067ffffffffffffffff82111715611d5357611d52611e61565b5b80604052505050565b6000611d6782611cad565b91507fffffffffffffffffffffffffffffffffffffffffffffffffffffffffffffffff821415611d9a57611d99611da5565b5b600182019050919050565b7f4e487b7100000000000000000000000000000000000000000000000000000000600052601160045260246000fd5b7f4e487b7100000000000000000000000000000000000000000000000000000000600052602260045260246000fd5b7f4e487b7100000000000000000000000000000000000000000000000000000000600052603160045260246000fd5b7f4e487b7100000000000000000000000000000000000000000000000000000000600052603260045260246000fd5b7f4e487b7100000000000000000000000000000000000000000000000000000000600052604160045260246000fd5b600080fd5b600080fd5b600080fd5b600080fd5b600080fd5b600080fd5b6000601f19601f8301169050919050565b7f596f7520617265206e6f7420746865206f776e65722100000000000000000000600082015250565b7f5468652070726f64756374207175616e74697479206973206c6573732074686160008201527f6e20796f752077616e7465642100000000000000000000000000000000000000602082015250565b7f54696d6520666f722072657475726e2068617320657870697265642100000000600082015250565b7f506c656173652073656e6420746865206578616374207072696365206f66207460008201527f68652070726f64756374206d756c7469706c696564206279207468652071756160208201527f6e7469747920796f752077616e74210000000000000000000000000000000000604082015250565b7f596f752068617665206e6f7420626f7567687420746869732070726f6475637460008201527f2100000000000000000000000000000000000000000000000000000000000000602082015250565b7f496e76616c6964207175616e7469747921000000000000000000000000000000600082015250565b7f596f75206861766520616c726561647920626f7567687420746869732070726f60008201527f6475637421000000000000000000000000000000000000000000000000000000602082015250565b7f5468652070726f64756374206973206e6f74206578697374696e672100000000600082015250565b7f5468652070726f6475637420697320616c726561647920696e2074686520737460008201527f6f72652100000000000000000000000000000000000000000000000000000000602082015250565b61211d81611c6f565b811461212857600080fd5b50565b61213481611cad565b811461213f57600080fd5b5056fea2646970667358221220494bfd353635f96f7eaf027d82db697d8f1a4c158dcd736cb72c677fb012790a64736f6c63430008070033",
					"opcodes": "PUSH1 0x80 PUSH1 0x40 MSTORE CALLVALUE DUP1 ISZERO PUSH2 0x10 JUMPI PUSH1 0x0 DUP1 REVERT JUMPDEST POP CALLER PUSH1 0x0 DUP1 PUSH2 0x100 EXP DUP2 SLOAD DUP2 PUSH20 0xFFFFFFFFFFFFFFFFFFFFFFFFFFFFFFFFFFFFFFFF MUL NOT AND SWAP1 DUP4 PUSH20 0xFFFFFFFFFFFFFFFFFFFFFFFFFFFFFFFFFFFFFFFF AND MUL OR SWAP1 SSTORE POP PUSH2 0x2178 DUP1 PUSH2 0x60 PUSH1 0x0 CODECOPY PUSH1 0x0 RETURN INVALID PUSH1 0x80 PUSH1 0x40 MSTORE PUSH1 0x4 CALLDATASIZE LT PUSH2 0x9C JUMPI PUSH1 0x0 CALLDATALOAD PUSH1 0xE0 SHR DUP1 PUSH4 0x8C75AE83 GT PUSH2 0x64 JUMPI DUP1 PUSH4 0x8C75AE83 EQ PUSH2 0x18C JUMPI DUP1 PUSH4 0x8DA5CB5B EQ PUSH2 0x1C9 JUMPI DUP1 PUSH4 0xC29B2F20 EQ PUSH2 0x1F4 JUMPI DUP1 PUSH4 0xCCC4174A EQ PUSH2 0x21F JUMPI DUP1 PUSH4 0xFCC93B0B EQ PUSH2 0x25D JUMPI DUP1 PUSH4 0xFE4B953D EQ PUSH2 0x286 JUMPI PUSH2 0x9C JUMP JUMPDEST DUP1 PUSH4 0xA5BD44B EQ PUSH2 0xA1 JUMPI DUP1 PUSH4 0x131E407D EQ PUSH2 0xCA JUMPI DUP1 PUSH4 0x4C437514 EQ PUSH2 0xF3 JUMPI DUP1 PUSH4 0x53B62866 EQ PUSH2 0x130 JUMPI DUP1 PUSH4 0x7ACC0B20 EQ PUSH2 0x14C JUMPI JUMPDEST PUSH1 0x0 DUP1 REVERT JUMPDEST CALLVALUE DUP1 ISZERO PUSH2 0xAD JUMPI PUSH1 0x0 DUP1 REVERT JUMPDEST POP PUSH2 0xC8 PUSH1 0x4 DUP1 CALLDATASIZE SUB DUP2 ADD SWAP1 PUSH2 0xC3 SWAP2 SWAP1 PUSH2 0x12AD JUMP JUMPDEST PUSH2 0x2C3 JUMP JUMPDEST STOP JUMPDEST CALLVALUE DUP1 ISZERO PUSH2 0xD6 JUMPI PUSH1 0x0 DUP1 REVERT JUMPDEST POP PUSH2 0xF1 PUSH1 0x4 DUP1 CALLDATASIZE SUB DUP2 ADD SWAP1 PUSH2 0xEC SWAP2 SWAP1 PUSH2 0x136A JUMP JUMPDEST PUSH2 0x530 JUMP JUMPDEST STOP JUMPDEST CALLVALUE DUP1 ISZERO PUSH2 0xFF JUMPI PUSH1 0x0 DUP1 REVERT JUMPDEST POP PUSH2 0x11A PUSH1 0x4 DUP1 CALLDATASIZE SUB DUP2 ADD SWAP1 PUSH2 0x115 SWAP2 SWAP1 PUSH2 0x1321 JUMP JUMPDEST PUSH2 0x8CC JUMP JUMPDEST PUSH1 0x40 MLOAD PUSH2 0x127 SWAP2 SWAP1 PUSH2 0x189B JUMP JUMPDEST PUSH1 0x40 MLOAD DUP1 SWAP2 SUB SWAP1 RETURN JUMPDEST PUSH2 0x14A PUSH1 0x4 DUP1 CALLDATASIZE SUB DUP2 ADD SWAP1 PUSH2 0x145 SWAP2 SWAP1 PUSH2 0x13D7 JUMP JUMPDEST PUSH2 0x902 JUMP JUMPDEST STOP JUMPDEST CALLVALUE DUP1 ISZERO PUSH2 0x158 JUMPI PUSH1 0x0 DUP1 REVERT JUMPDEST POP PUSH2 0x173 PUSH1 0x4 DUP1 CALLDATASIZE SUB DUP2 ADD SWAP1 PUSH2 0x16E SWAP2 SWAP1 PUSH2 0x136A JUMP JUMPDEST PUSH2 0xCC1 JUMP JUMPDEST PUSH1 0x40 MLOAD PUSH2 0x183 SWAP5 SWAP4 SWAP3 SWAP2 SWAP1 PUSH2 0x1A16 JUMP JUMPDEST PUSH1 0x40 MLOAD DUP1 SWAP2 SUB SWAP1 RETURN JUMPDEST CALLVALUE DUP1 ISZERO PUSH2 0x198 JUMPI PUSH1 0x0 DUP1 REVERT JUMPDEST POP PUSH2 0x1B3 PUSH1 0x4 DUP1 CALLDATASIZE SUB DUP2 ADD SWAP1 PUSH2 0x1AE SWAP2 SWAP1 PUSH2 0x136A JUMP JUMPDEST PUSH2 0xD89 JUMP JUMPDEST PUSH1 0x40 MLOAD PUSH2 0x1C0 SWAP2 SWAP1 PUSH2 0x1857 JUMP JUMPDEST PUSH1 0x40 MLOAD DUP1 SWAP2 SUB SWAP1 RETURN JUMPDEST CALLVALUE DUP1 ISZERO PUSH2 0x1D5 JUMPI PUSH1 0x0 DUP1 REVERT JUMPDEST POP PUSH2 0x1DE PUSH2 0xE2A JUMP JUMPDEST PUSH1 0x40 MLOAD PUSH2 0x1EB SWAP2 SWAP1 PUSH2 0x17DC JUMP JUMPDEST PUSH1 0x40 MLOAD DUP1 SWAP2 SUB SWAP1 RETURN JUMPDEST CALLVALUE DUP1 ISZERO PUSH2 0x200 JUMPI PUSH1 0x0 DUP1 REVERT JUMPDEST POP PUSH2 0x209 PUSH2 0xE4E JUMP JUMPDEST PUSH1 0x40 MLOAD PUSH2 0x216 SWAP2 SWAP1 PUSH2 0x1879 JUMP JUMPDEST PUSH1 0x40 MLOAD DUP1 SWAP2 SUB SWAP1 RETURN JUMPDEST CALLVALUE DUP1 ISZERO PUSH2 0x22B JUMPI PUSH1 0x0 DUP1 REVERT JUMPDEST POP PUSH2 0x246 PUSH1 0x4 DUP1 CALLDATASIZE SUB DUP2 ADD SWAP1 PUSH2 0x241 SWAP2 SWAP1 PUSH2 0x1397 JUMP JUMPDEST PUSH2 0xF5D JUMP JUMPDEST PUSH1 0x40 MLOAD PUSH2 0x254 SWAP3 SWAP2 SWAP1 PUSH2 0x1A62 JUMP JUMPDEST PUSH1 0x40 MLOAD DUP1 SWAP2 SUB SWAP1 RETURN JUMPDEST CALLVALUE DUP1 ISZERO PUSH2 0x269 JUMPI PUSH1 0x0 DUP1 REVERT JUMPDEST POP PUSH2 0x284 PUSH1 0x4 DUP1 CALLDATASIZE SUB DUP2 ADD SWAP1 PUSH2 0x27F SWAP2 SWAP1 PUSH2 0x13D7 JUMP JUMPDEST PUSH2 0xF8E JUMP JUMPDEST STOP JUMPDEST CALLVALUE DUP1 ISZERO PUSH2 0x292 JUMPI PUSH1 0x0 DUP1 REVERT JUMPDEST POP PUSH2 0x2AD PUSH1 0x4 DUP1 CALLDATASIZE SUB DUP2 ADD SWAP1 PUSH2 0x2A8 SWAP2 SWAP1 PUSH2 0x13D7 JUMP JUMPDEST PUSH2 0x10CC JUMP JUMPDEST PUSH1 0x40 MLOAD PUSH2 0x2BA SWAP2 SWAP1 PUSH2 0x17DC JUMP JUMPDEST PUSH1 0x40 MLOAD DUP1 SWAP2 SUB SWAP1 RETURN JUMPDEST PUSH1 0x0 DUP1 SLOAD SWAP1 PUSH2 0x100 EXP SWAP1 DIV PUSH20 0xFFFFFFFFFFFFFFFFFFFFFFFFFFFFFFFFFFFFFFFF AND PUSH20 0xFFFFFFFFFFFFFFFFFFFFFFFFFFFFFFFFFFFFFFFF AND CALLER PUSH20 0xFFFFFFFFFFFFFFFFFFFFFFFFFFFFFFFFFFFFFFFF AND EQ PUSH2 0x351 JUMPI PUSH1 0x40 MLOAD PUSH32 0x8C379A000000000000000000000000000000000000000000000000000000000 DUP2 MSTORE PUSH1 0x4 ADD PUSH2 0x348 SWAP1 PUSH2 0x18F6 JUMP JUMPDEST PUSH1 0x40 MLOAD DUP1 SWAP2 SUB SWAP1 REVERT JUMPDEST PUSH1 0x0 DUP5 DUP5 SWAP1 POP EQ ISZERO DUP1 ISZERO PUSH2 0x365 JUMPI POP PUSH1 0x0 DUP2 GT JUMPDEST PUSH2 0x36E JUMPI PUSH1 0x0 DUP1 REVERT JUMPDEST PUSH1 0x2 DUP5 DUP5 PUSH1 0x40 MLOAD PUSH2 0x380 SWAP3 SWAP2 SWAP1 PUSH2 0x17C3 JUMP JUMPDEST SWAP1 DUP2 MSTORE PUSH1 0x20 ADD PUSH1 0x40 MLOAD DUP1 SWAP2 SUB SWAP1 KECCAK256 PUSH1 0x0 SWAP1 SLOAD SWAP1 PUSH2 0x100 EXP SWAP1 DIV PUSH1 0xFF AND ISZERO PUSH2 0x3DC JUMPI PUSH1 0x40 MLOAD PUSH32 0x8C379A000000000000000000000000000000000000000000000000000000000 DUP2 MSTORE PUSH1 0x4 ADD PUSH2 0x3D3 SWAP1 PUSH2 0x19F6 JUMP JUMPDEST PUSH1 0x40 MLOAD DUP1 SWAP2 SUB SWAP1 REVERT JUMPDEST PUSH1 0x0 PUSH1 0x1 DUP1 SLOAD SWAP1 POP SWAP1 POP PUSH1 0x1 PUSH1 0x2 DUP7 DUP7 PUSH1 0x40 MLOAD PUSH2 0x3FA SWAP3 SWAP2 SWAP1 PUSH2 0x17C3 JUMP JUMPDEST SWAP1 DUP2 MSTORE PUSH1 0x20 ADD PUSH1 0x40 MLOAD DUP1 SWAP2 SUB SWAP1 KECCAK256 PUSH1 0x0 PUSH2 0x100 EXP DUP2 SLOAD DUP2 PUSH1 0xFF MUL NOT AND SWAP1 DUP4 ISZERO ISZERO MUL OR SWAP1 SSTORE POP PUSH1 0x1 PUSH1 0x40 MLOAD DUP1 PUSH1 0x80 ADD PUSH1 0x40 MSTORE DUP1 DUP4 DUP2 MSTORE PUSH1 0x20 ADD DUP8 DUP8 DUP1 DUP1 PUSH1 0x1F ADD PUSH1 0x20 DUP1 SWAP2 DIV MUL PUSH1 0x20 ADD PUSH1 0x40 MLOAD SWAP1 DUP2 ADD PUSH1 0x40 MSTORE DUP1 SWAP4 SWAP3 SWAP2 SWAP1 DUP2 DUP2 MSTORE PUSH1 0x20 ADD DUP4 DUP4 DUP1 DUP3 DUP5 CALLDATACOPY PUSH1 0x0 DUP2 DUP5 ADD MSTORE PUSH1 0x1F NOT PUSH1 0x1F DUP3 ADD AND SWAP1 POP DUP1 DUP4 ADD SWAP3 POP POP POP POP POP POP POP DUP2 MSTORE PUSH1 0x20 ADD DUP6 DUP2 MSTORE PUSH1 0x20 ADD DUP5 DUP2 MSTORE POP SWAP1 DUP1 PUSH1 0x1 DUP2 SLOAD ADD DUP1 DUP3 SSTORE DUP1 SWAP2 POP POP PUSH1 0x1 SWAP1 SUB SWAP1 PUSH1 0x0 MSTORE PUSH1 0x20 PUSH1 0x0 KECCAK256 SWAP1 PUSH1 0x4 MUL ADD PUSH1 0x0 SWAP1 SWAP2 SWAP1 SWAP2 SWAP1 SWAP2 POP PUSH1 0x0 DUP3 ADD MLOAD DUP2 PUSH1 0x0 ADD SSTORE PUSH1 0x20 DUP3 ADD MLOAD DUP2 PUSH1 0x1 ADD SWAP1 DUP1 MLOAD SWAP1 PUSH1 0x20 ADD SWAP1 PUSH2 0x4D5 SWAP3 SWAP2 SWAP1 PUSH2 0x111A JUMP JUMPDEST POP PUSH1 0x40 DUP3 ADD MLOAD DUP2 PUSH1 0x2 ADD SSTORE PUSH1 0x60 DUP3 ADD MLOAD DUP2 PUSH1 0x3 ADD SSTORE POP POP PUSH32 0xAF15189AF1861DA85D7D959DA20A528553CF2D64FC75F6FC7F6894097E9E9CF1 DUP6 DUP6 DUP6 DUP6 PUSH1 0x40 MLOAD PUSH2 0x521 SWAP5 SWAP4 SWAP3 SWAP2 SWAP1 PUSH2 0x18B6 JUMP JUMPDEST PUSH1 0x40 MLOAD DUP1 SWAP2 SUB SWAP1 LOG1 POP POP POP POP POP JUMP JUMPDEST PUSH1 0x0 CALLER SWAP1 POP PUSH1 0x0 PUSH1 0x3 PUSH1 0x0 DUP5 DUP2 MSTORE PUSH1 0x20 ADD SWAP1 DUP2 MSTORE PUSH1 0x20 ADD PUSH1 0x0 KECCAK256 PUSH1 0x0 DUP4 PUSH20 0xFFFFFFFFFFFFFFFFFFFFFFFFFFFFFFFFFFFFFFFF AND PUSH20 0xFFFFFFFFFFFFFFFFFFFFFFFFFFFFFFFFFFFFFFFF AND DUP2 MSTORE PUSH1 0x20 ADD SWAP1 DUP2 MSTORE PUSH1 0x20 ADD PUSH1 0x0 KECCAK256 PUSH1 0x40 MLOAD DUP1 PUSH1 0x40 ADD PUSH1 0x40 MSTORE SWAP1 DUP2 PUSH1 0x0 DUP3 ADD SLOAD DUP2 MSTORE PUSH1 0x20 ADD PUSH1 0x1 DUP3 ADD SLOAD DUP2 MSTORE POP POP SWAP1 POP PUSH1 0x0 DUP2 PUSH1 0x0 ADD MLOAD EQ ISZERO PUSH2 0x5F0 JUMPI PUSH1 0x40 MLOAD PUSH32 0x8C379A000000000000000000000000000000000000000000000000000000000 DUP2 MSTORE PUSH1 0x4 ADD PUSH2 0x5E7 SWAP1 PUSH2 0x1976 JUMP JUMPDEST PUSH1 0x40 MLOAD DUP1 SWAP2 SUB SWAP1 REVERT JUMPDEST PUSH1 0x0 NUMBER SWAP1 POP DUP1 PUSH1 0x64 DUP4 PUSH1 0x20 ADD MLOAD PUSH2 0x607 SWAP2 SWAP1 PUSH2 0x1B8B JUMP JUMPDEST LT ISZERO PUSH2 0x648 JUMPI PUSH1 0x40 MLOAD PUSH32 0x8C379A000000000000000000000000000000000000000000000000000000000 DUP2 MSTORE PUSH1 0x4 ADD PUSH2 0x63F SWAP1 PUSH2 0x1936 JUMP JUMPDEST PUSH1 0x40 MLOAD DUP1 SWAP2 SUB SWAP1 REVERT JUMPDEST DUP2 PUSH1 0x0 ADD MLOAD PUSH1 0x1 DUP6 DUP2 SLOAD DUP2 LT PUSH2 0x661 JUMPI PUSH2 0x660 PUSH2 0x1E32 JUMP JUMPDEST JUMPDEST SWAP1 PUSH1 0x0 MSTORE PUSH1 0x20 PUSH1 0x0 KECCAK256 SWAP1 PUSH1 0x4 MUL ADD PUSH1 0x2 ADD PUSH1 0x0 DUP3 DUP3 SLOAD PUSH2 0x681 SWAP2 SWAP1 PUSH2 0x1B8B JUMP JUMPDEST SWAP3 POP POP DUP2 SWAP1 SSTORE POP PUSH1 0x3 PUSH1 0x0 DUP6 DUP2 MSTORE PUSH1 0x20 ADD SWAP1 DUP2 MSTORE PUSH1 0x20 ADD PUSH1 0x0 KECCAK256 PUSH1 0x0 DUP5 PUSH20 0xFFFFFFFFFFFFFFFFFFFFFFFFFFFFFFFFFFFFFFFF AND PUSH20 0xFFFFFFFFFFFFFFFFFFFFFFFFFFFFFFFFFFFFFFFF AND DUP2 MSTORE PUSH1 0x20 ADD SWAP1 DUP2 MSTORE PUSH1 0x20 ADD PUSH1 0x0 KECCAK256 PUSH1 0x0 DUP1 DUP3 ADD PUSH1 0x0 SWAP1 SSTORE PUSH1 0x1 DUP3 ADD PUSH1 0x0 SWAP1 SSTORE POP POP PUSH1 0x0 PUSH1 0x4 PUSH1 0x0 DUP7 DUP2 MSTORE PUSH1 0x20 ADD SWAP1 DUP2 MSTORE PUSH1 0x20 ADD PUSH1 0x0 KECCAK256 SWAP1 POP PUSH1 0x0 DUP2 DUP1 SLOAD SWAP1 POP SWAP1 POP PUSH1 0x0 JUMPDEST DUP2 DUP2 LT ISZERO PUSH2 0x88A JUMPI DUP6 PUSH20 0xFFFFFFFFFFFFFFFFFFFFFFFFFFFFFFFFFFFFFFFF AND DUP4 DUP3 DUP2 SLOAD DUP2 LT PUSH2 0x740 JUMPI PUSH2 0x73F PUSH2 0x1E32 JUMP JUMPDEST JUMPDEST SWAP1 PUSH1 0x0 MSTORE PUSH1 0x20 PUSH1 0x0 KECCAK256 ADD PUSH1 0x0 SWAP1 SLOAD SWAP1 PUSH2 0x100 EXP SWAP1 DIV PUSH20 0xFFFFFFFFFFFFFFFFFFFFFFFFFFFFFFFFFFFFFFFF AND PUSH20 0xFFFFFFFFFFFFFFFFFFFFFFFFFFFFFFFFFFFFFFFF AND EQ ISZERO PUSH2 0x877 JUMPI DUP3 PUSH1 0x1 DUP4 PUSH2 0x795 SWAP2 SWAP1 PUSH2 0x1C3B JUMP JUMPDEST DUP2 SLOAD DUP2 LT PUSH2 0x7A6 JUMPI PUSH2 0x7A5 PUSH2 0x1E32 JUMP JUMPDEST JUMPDEST SWAP1 PUSH1 0x0 MSTORE PUSH1 0x20 PUSH1 0x0 KECCAK256 ADD PUSH1 0x0 SWAP1 SLOAD SWAP1 PUSH2 0x100 EXP SWAP1 DIV PUSH20 0xFFFFFFFFFFFFFFFFFFFFFFFFFFFFFFFFFFFFFFFF AND DUP4 DUP3 DUP2 SLOAD DUP2 LT PUSH2 0x7E4 JUMPI PUSH2 0x7E3 PUSH2 0x1E32 JUMP JUMPDEST JUMPDEST SWAP1 PUSH1 0x0 MSTORE PUSH1 0x20 PUSH1 0x0 KECCAK256 ADD PUSH1 0x0 PUSH2 0x100 EXP DUP2 SLOAD DUP2 PUSH20 0xFFFFFFFFFFFFFFFFFFFFFFFFFFFFFFFFFFFFFFFF MUL NOT AND SWAP1 DUP4 PUSH20 0xFFFFFFFFFFFFFFFFFFFFFFFFFFFFFFFFFFFFFFFF AND MUL OR SWAP1 SSTORE POP DUP3 DUP1 SLOAD DUP1 PUSH2 0x83D JUMPI PUSH2 0x83C PUSH2 0x1E03 JUMP JUMPDEST JUMPDEST PUSH1 0x1 SWAP1 SUB DUP2 DUP2 SWAP1 PUSH1 0x0 MSTORE PUSH1 0x20 PUSH1 0x0 KECCAK256 ADD PUSH1 0x0 PUSH2 0x100 EXP DUP2 SLOAD SWAP1 PUSH20 0xFFFFFFFFFFFFFFFFFFFFFFFFFFFFFFFFFFFFFFFF MUL NOT AND SWAP1 SSTORE SWAP1 SSTORE PUSH2 0x88A JUMP JUMPDEST DUP1 DUP1 PUSH2 0x882 SWAP1 PUSH2 0x1D5C JUMP JUMPDEST SWAP2 POP POP PUSH2 0x70E JUMP JUMPDEST POP PUSH32 0x8CA1AA6579D40102B86EA2CB41E387842EECA2BC27384CD954407822D79F2375 DUP6 DUP8 PUSH1 0x40 MLOAD PUSH2 0x8BC SWAP3 SWAP2 SWAP1 PUSH2 0x17F7 JUMP JUMPDEST PUSH1 0x40 MLOAD DUP1 SWAP2 SUB SWAP1 LOG1 POP POP POP POP POP POP JUMP JUMPDEST PUSH1 0x2 DUP2 DUP1 MLOAD PUSH1 0x20 DUP2 ADD DUP3 ADD DUP1 MLOAD DUP5 DUP3 MSTORE PUSH1 0x20 DUP4 ADD PUSH1 0x20 DUP6 ADD KECCAK256 DUP2 DUP4 MSTORE DUP1 SWAP6 POP POP POP POP POP POP PUSH1 0x0 SWAP2 POP SLOAD SWAP1 PUSH2 0x100 EXP SWAP1 DIV PUSH1 0xFF AND DUP2 JUMP JUMPDEST DUP2 PUSH1 0x1 DUP1 SLOAD SWAP1 POP DUP2 LT PUSH2 0x94A JUMPI PUSH1 0x40 MLOAD PUSH32 0x8C379A000000000000000000000000000000000000000000000000000000000 DUP2 MSTORE PUSH1 0x4 ADD PUSH2 0x941 SWAP1 PUSH2 0x19D6 JUMP JUMPDEST PUSH1 0x40 MLOAD DUP1 SWAP2 SUB SWAP1 REVERT JUMPDEST PUSH1 0x0 DUP3 GT PUSH2 0x98D JUMPI PUSH1 0x40 MLOAD PUSH32 0x8C379A000000000000000000000000000000000000000000000000000000000 DUP2 MSTORE PUSH1 0x4 ADD PUSH2 0x984 SWAP1 PUSH2 0x1996 JUMP JUMPDEST PUSH1 0x40 MLOAD DUP1 SWAP2 SUB SWAP1 REVERT JUMPDEST PUSH1 0x0 CALLER SWAP1 POP PUSH1 0x0 PUSH1 0x3 PUSH1 0x0 DUP7 DUP2 MSTORE PUSH1 0x20 ADD SWAP1 DUP2 MSTORE PUSH1 0x20 ADD PUSH1 0x0 KECCAK256 PUSH1 0x0 DUP4 PUSH20 0xFFFFFFFFFFFFFFFFFFFFFFFFFFFFFFFFFFFFFFFF AND PUSH20 0xFFFFFFFFFFFFFFFFFFFFFFFFFFFFFFFFFFFFFFFF AND DUP2 MSTORE PUSH1 0x20 ADD SWAP1 DUP2 MSTORE PUSH1 0x20 ADD PUSH1 0x0 KECCAK256 PUSH1 0x0 ADD SLOAD EQ PUSH2 0xA28 JUMPI PUSH1 0x40 MLOAD PUSH32 0x8C379A000000000000000000000000000000000000000000000000000000000 DUP2 MSTORE PUSH1 0x4 ADD PUSH2 0xA1F SWAP1 PUSH2 0x19B6 JUMP JUMPDEST PUSH1 0x40 MLOAD DUP1 SWAP2 SUB SWAP1 REVERT JUMPDEST PUSH1 0x0 PUSH1 0x1 DUP6 DUP2 SLOAD DUP2 LT PUSH2 0xA3E JUMPI PUSH2 0xA3D PUSH2 0x1E32 JUMP JUMPDEST JUMPDEST SWAP1 PUSH1 0x0 MSTORE PUSH1 0x20 PUSH1 0x0 KECCAK256 SWAP1 PUSH1 0x4 MUL ADD SWAP1 POP DUP4 DUP2 PUSH1 0x2 ADD SLOAD LT ISZERO PUSH2 0xA95 JUMPI PUSH1 0x40 MLOAD PUSH32 0x8C379A000000000000000000000000000000000000000000000000000000000 DUP2 MSTORE PUSH1 0x4 ADD PUSH2 0xA8C SWAP1 PUSH2 0x1916 JUMP JUMPDEST PUSH1 0x40 MLOAD DUP1 SWAP2 SUB SWAP1 REVERT JUMPDEST PUSH1 0x0 DUP5 PUSH1 0x1 DUP8 DUP2 SLOAD DUP2 LT PUSH2 0xAAC JUMPI PUSH2 0xAAB PUSH2 0x1E32 JUMP JUMPDEST JUMPDEST SWAP1 PUSH1 0x0 MSTORE PUSH1 0x20 PUSH1 0x0 KECCAK256 SWAP1 PUSH1 0x4 MUL ADD PUSH1 0x3 ADD SLOAD PUSH2 0xAC8 SWAP2 SWAP1 PUSH2 0x1BE1 JUMP JUMPDEST SWAP1 POP DUP1 CALLVALUE EQ PUSH2 0xB0C JUMPI PUSH1 0x40 MLOAD PUSH32 0x8C379A000000000000000000000000000000000000000000000000000000000 DUP2 MSTORE PUSH1 0x4 ADD PUSH2 0xB03 SWAP1 PUSH2 0x1956 JUMP JUMPDEST PUSH1 0x40 MLOAD DUP1 SWAP2 SUB SWAP1 REVERT JUMPDEST PUSH1 0x0 DUP1 SLOAD SWAP1 PUSH2 0x100 EXP SWAP1 DIV PUSH20 0xFFFFFFFFFFFFFFFFFFFFFFFFFFFFFFFFFFFFFFFF AND PUSH20 0xFFFFFFFFFFFFFFFFFFFFFFFFFFFFFFFFFFFFFFFF AND PUSH2 0x8FC DUP3 SWAP1 DUP2 ISZERO MUL SWAP1 PUSH1 0x40 MLOAD PUSH1 0x0 PUSH1 0x40 MLOAD DUP1 DUP4 SUB DUP2 DUP6 DUP9 DUP9 CALL SWAP4 POP POP POP POP ISZERO DUP1 ISZERO PUSH2 0xB72 JUMPI RETURNDATASIZE PUSH1 0x0 DUP1 RETURNDATACOPY RETURNDATASIZE PUSH1 0x0 REVERT JUMPDEST POP PUSH1 0x40 MLOAD DUP1 PUSH1 0x40 ADD PUSH1 0x40 MSTORE DUP1 DUP7 DUP2 MSTORE PUSH1 0x20 ADD NUMBER DUP2 MSTORE POP PUSH1 0x3 PUSH1 0x0 DUP9 DUP2 MSTORE PUSH1 0x20 ADD SWAP1 DUP2 MSTORE PUSH1 0x20 ADD PUSH1 0x0 KECCAK256 PUSH1 0x0 DUP6 PUSH20 0xFFFFFFFFFFFFFFFFFFFFFFFFFFFFFFFFFFFFFFFF AND PUSH20 0xFFFFFFFFFFFFFFFFFFFFFFFFFFFFFFFFFFFFFFFF AND DUP2 MSTORE PUSH1 0x20 ADD SWAP1 DUP2 MSTORE PUSH1 0x20 ADD PUSH1 0x0 KECCAK256 PUSH1 0x0 DUP3 ADD MLOAD DUP2 PUSH1 0x0 ADD SSTORE PUSH1 0x20 DUP3 ADD MLOAD DUP2 PUSH1 0x1 ADD SSTORE SWAP1 POP POP PUSH1 0x4 PUSH1 0x0 DUP8 DUP2 MSTORE PUSH1 0x20 ADD SWAP1 DUP2 MSTORE PUSH1 0x20 ADD PUSH1 0x0 KECCAK256 DUP4 SWAP1 DUP1 PUSH1 0x1 DUP2 SLOAD ADD DUP1 DUP3 SSTORE DUP1 SWAP2 POP POP PUSH1 0x1 SWAP1 SUB SWAP1 PUSH1 0x0 MSTORE PUSH1 0x20 PUSH1 0x0 KECCAK256 ADD PUSH1 0x0 SWAP1 SWAP2 SWAP1 SWAP2 SWAP1 SWAP2 PUSH2 0x100 EXP DUP2 SLOAD DUP2 PUSH20 0xFFFFFFFFFFFFFFFFFFFFFFFFFFFFFFFFFFFFFFFF MUL NOT AND SWAP1 DUP4 PUSH20 0xFFFFFFFFFFFFFFFFFFFFFFFFFFFFFFFFFFFFFFFF AND MUL OR SWAP1 SSTORE POP DUP5 DUP3 PUSH1 0x2 ADD PUSH1 0x0 DUP3 DUP3 SLOAD PUSH2 0xC77 SWAP2 SWAP1 PUSH2 0x1C3B JUMP JUMPDEST SWAP3 POP POP DUP2 SWAP1 SSTORE POP PUSH32 0xC032F62758CAC23A902E648AB54B6825665B9BC19E7CD0A8AB915CBF3EEA4FA0 DUP4 DUP8 DUP8 PUSH1 0x40 MLOAD PUSH2 0xCB1 SWAP4 SWAP3 SWAP2 SWAP1 PUSH2 0x1820 JUMP JUMPDEST PUSH1 0x40 MLOAD DUP1 SWAP2 SUB SWAP1 LOG1 POP POP POP POP POP POP JUMP JUMPDEST PUSH1 0x1 DUP2 DUP2 SLOAD DUP2 LT PUSH2 0xCD1 JUMPI PUSH1 0x0 DUP1 REVERT JUMPDEST SWAP1 PUSH1 0x0 MSTORE PUSH1 0x20 PUSH1 0x0 KECCAK256 SWAP1 PUSH1 0x4 MUL ADD PUSH1 0x0 SWAP2 POP SWAP1 POP DUP1 PUSH1 0x0 ADD SLOAD SWAP1 DUP1 PUSH1 0x1 ADD DUP1 SLOAD PUSH2 0xCFA SWAP1 PUSH2 0x1CF9 JUMP JUMPDEST DUP1 PUSH1 0x1F ADD PUSH1 0x20 DUP1 SWAP2 DIV MUL PUSH1 0x20 ADD PUSH1 0x40 MLOAD SWAP1 DUP2 ADD PUSH1 0x40 MSTORE DUP1 SWAP3 SWAP2 SWAP1 DUP2 DUP2 MSTORE PUSH1 0x20 ADD DUP3 DUP1 SLOAD PUSH2 0xD26 SWAP1 PUSH2 0x1CF9 JUMP JUMPDEST DUP1 ISZERO PUSH2 0xD73 JUMPI DUP1 PUSH1 0x1F LT PUSH2 0xD48 JUMPI PUSH2 0x100 DUP1 DUP4 SLOAD DIV MUL DUP4 MSTORE SWAP2 PUSH1 0x20 ADD SWAP2 PUSH2 0xD73 JUMP JUMPDEST DUP3 ADD SWAP2 SWAP1 PUSH1 0x0 MSTORE PUSH1 0x20 PUSH1 0x0 KECCAK256 SWAP1 JUMPDEST DUP2 SLOAD DUP2 MSTORE SWAP1 PUSH1 0x1 ADD SWAP1 PUSH1 0x20 ADD DUP1 DUP4 GT PUSH2 0xD56 JUMPI DUP3 SWAP1 SUB PUSH1 0x1F AND DUP3 ADD SWAP2 JUMPDEST POP POP POP POP POP SWAP1 DUP1 PUSH1 0x2 ADD SLOAD SWAP1 DUP1 PUSH1 0x3 ADD SLOAD SWAP1 POP DUP5 JUMP JUMPDEST PUSH1 0x60 PUSH1 0x4 PUSH1 0x0 DUP4 DUP2 MSTORE PUSH1 0x20 ADD SWAP1 DUP2 MSTORE PUSH1 0x20 ADD PUSH1 0x0 KECCAK256 DUP1 SLOAD DUP1 PUSH1 0x20 MUL PUSH1 0x20 ADD PUSH1 0x40 MLOAD SWAP1 DUP2 ADD PUSH1 0x40 MSTORE DUP1 SWAP3 SWAP2 SWAP1 DUP2 DUP2 MSTORE PUSH1 0x20 ADD DUP3 DUP1 SLOAD DUP1 ISZERO PUSH2 0xE1E JUMPI PUSH1 0x20 MUL DUP3 ADD SWAP2 SWAP1 PUSH1 0x0 MSTORE PUSH1 0x20 PUSH1 0x0 KECCAK256 SWAP1 JUMPDEST DUP2 PUSH1 0x0 SWAP1 SLOAD SWAP1 PUSH2 0x100 EXP SWAP1 DIV PUSH20 0xFFFFFFFFFFFFFFFFFFFFFFFFFFFFFFFFFFFFFFFF AND PUSH20 0xFFFFFFFFFFFFFFFFFFFFFFFFFFFFFFFFFFFFFFFF AND DUP2 MSTORE PUSH1 0x20 ADD SWAP1 PUSH1 0x1 ADD SWAP1 DUP1 DUP4 GT PUSH2 0xDD4 JUMPI JUMPDEST POP POP POP POP POP SWAP1 POP SWAP2 SWAP1 POP JUMP JUMPDEST PUSH1 0x0 DUP1 SLOAD SWAP1 PUSH2 0x100 EXP SWAP1 DIV PUSH20 0xFFFFFFFFFFFFFFFFFFFFFFFFFFFFFFFFFFFFFFFF AND DUP2 JUMP JUMPDEST PUSH1 0x60 PUSH1 0x1 DUP1 SLOAD DUP1 PUSH1 0x20 MUL PUSH1 0x20 ADD PUSH1 0x40 MLOAD SWAP1 DUP2 ADD PUSH1 0x40 MSTORE DUP1 SWAP3 SWAP2 SWAP1 DUP2 DUP2 MSTORE PUSH1 0x20 ADD PUSH1 0x0 SWAP1 JUMPDEST DUP3 DUP3 LT ISZERO PUSH2 0xF54 JUMPI DUP4 DUP3 SWAP1 PUSH1 0x0 MSTORE PUSH1 0x20 PUSH1 0x0 KECCAK256 SWAP1 PUSH1 0x4 MUL ADD PUSH1 0x40 MLOAD DUP1 PUSH1 0x80 ADD PUSH1 0x40 MSTORE SWAP1 DUP2 PUSH1 0x0 DUP3 ADD SLOAD DUP2 MSTORE PUSH1 0x20 ADD PUSH1 0x1 DUP3 ADD DUP1 SLOAD PUSH2 0xEAF SWAP1 PUSH2 0x1CF9 JUMP JUMPDEST DUP1 PUSH1 0x1F ADD PUSH1 0x20 DUP1 SWAP2 DIV MUL PUSH1 0x20 ADD PUSH1 0x40 MLOAD SWAP1 DUP2 ADD PUSH1 0x40 MSTORE DUP1 SWAP3 SWAP2 SWAP1 DUP2 DUP2 MSTORE PUSH1 0x20 ADD DUP3 DUP1 SLOAD PUSH2 0xEDB SWAP1 PUSH2 0x1CF9 JUMP JUMPDEST DUP1 ISZERO PUSH2 0xF28 JUMPI DUP1 PUSH1 0x1F LT PUSH2 0xEFD JUMPI PUSH2 0x100 DUP1 DUP4 SLOAD DIV MUL DUP4 MSTORE SWAP2 PUSH1 0x20 ADD SWAP2 PUSH2 0xF28 JUMP JUMPDEST DUP3 ADD SWAP2 SWAP1 PUSH1 0x0 MSTORE PUSH1 0x20 PUSH1 0x0 KECCAK256 SWAP1 JUMPDEST DUP2 SLOAD DUP2 MSTORE SWAP1 PUSH1 0x1 ADD SWAP1 PUSH1 0x20 ADD DUP1 DUP4 GT PUSH2 0xF0B JUMPI DUP3 SWAP1 SUB PUSH1 0x1F AND DUP3 ADD SWAP2 JUMPDEST POP POP POP POP POP DUP2 MSTORE PUSH1 0x20 ADD PUSH1 0x2 DUP3 ADD SLOAD DUP2 MSTORE PUSH1 0x20 ADD PUSH1 0x3 DUP3 ADD SLOAD DUP2 MSTORE POP POP DUP2 MSTORE PUSH1 0x20 ADD SWAP1 PUSH1 0x1 ADD SWAP1 PUSH2 0xE72 JUMP JUMPDEST POP POP POP POP SWAP1 POP SWAP1 JUMP JUMPDEST PUSH1 0x3 PUSH1 0x20 MSTORE DUP2 PUSH1 0x0 MSTORE PUSH1 0x40 PUSH1 0x0 KECCAK256 PUSH1 0x20 MSTORE DUP1 PUSH1 0x0 MSTORE PUSH1 0x40 PUSH1 0x0 KECCAK256 PUSH1 0x0 SWAP2 POP SWAP2 POP POP DUP1 PUSH1 0x0 ADD SLOAD SWAP1 DUP1 PUSH1 0x1 ADD SLOAD SWAP1 POP DUP3 JUMP JUMPDEST PUSH1 0x0 DUP1 SLOAD SWAP1 PUSH2 0x100 EXP SWAP1 DIV PUSH20 0xFFFFFFFFFFFFFFFFFFFFFFFFFFFFFFFFFFFFFFFF AND PUSH20 0xFFFFFFFFFFFFFFFFFFFFFFFFFFFFFFFFFFFFFFFF AND CALLER PUSH20 0xFFFFFFFFFFFFFFFFFFFFFFFFFFFFFFFFFFFFFFFF AND EQ PUSH2 0x101C JUMPI PUSH1 0x40 MLOAD PUSH32 0x8C379A000000000000000000000000000000000000000000000000000000000 DUP2 MSTORE PUSH1 0x4 ADD PUSH2 0x1013 SWAP1 PUSH2 0x18F6 JUMP JUMPDEST PUSH1 0x40 MLOAD DUP1 SWAP2 SUB SWAP1 REVERT JUMPDEST DUP2 PUSH1 0x1 DUP1 SLOAD SWAP1 POP DUP2 LT PUSH2 0x1064 JUMPI PUSH1 0x40 MLOAD PUSH32 0x8C379A000000000000000000000000000000000000000000000000000000000 DUP2 MSTORE PUSH1 0x4 ADD PUSH2 0x105B SWAP1 PUSH2 0x19D6 JUMP JUMPDEST PUSH1 0x40 MLOAD DUP1 SWAP2 SUB SWAP1 REVERT JUMPDEST DUP2 PUSH1 0x1 DUP5 DUP2 SLOAD DUP2 LT PUSH2 0x1079 JUMPI PUSH2 0x1078 PUSH2 0x1E32 JUMP JUMPDEST JUMPDEST SWAP1 PUSH1 0x0 MSTORE PUSH1 0x20 PUSH1 0x0 KECCAK256 SWAP1 PUSH1 0x4 MUL ADD PUSH1 0x2 ADD DUP2 SWAP1 SSTORE POP PUSH32 0x1A58B4C176A67828EBE2456BC637AF85E69B115BE11597E049B0669D13BEA999 DUP4 DUP4 PUSH1 0x40 MLOAD PUSH2 0x10BF SWAP3 SWAP2 SWAP1 PUSH2 0x1A62 JUMP JUMPDEST PUSH1 0x40 MLOAD DUP1 SWAP2 SUB SWAP1 LOG1 POP POP POP JUMP JUMPDEST PUSH1 0x4 PUSH1 0x20 MSTORE DUP2 PUSH1 0x0 MSTORE PUSH1 0x40 PUSH1 0x0 KECCAK256 DUP2 DUP2 SLOAD DUP2 LT PUSH2 0x10E8 JUMPI PUSH1 0x0 DUP1 REVERT JUMPDEST SWAP1 PUSH1 0x0 MSTORE PUSH1 0x20 PUSH1 0x0 KECCAK256 ADD PUSH1 0x0 SWAP2 POP SWAP2 POP SWAP1 SLOAD SWAP1 PUSH2 0x100 EXP SWAP1 DIV PUSH20 0xFFFFFFFFFFFFFFFFFFFFFFFFFFFFFFFFFFFFFFFF AND DUP2 JUMP JUMPDEST DUP3 DUP1 SLOAD PUSH2 0x1126 SWAP1 PUSH2 0x1CF9 JUMP JUMPDEST SWAP1 PUSH1 0x0 MSTORE PUSH1 0x20 PUSH1 0x0 KECCAK256 SWAP1 PUSH1 0x1F ADD PUSH1 0x20 SWAP1 DIV DUP2 ADD SWAP3 DUP3 PUSH2 0x1148 JUMPI PUSH1 0x0 DUP6 SSTORE PUSH2 0x118F JUMP JUMPDEST DUP3 PUSH1 0x1F LT PUSH2 0x1161 JUMPI DUP1 MLOAD PUSH1 0xFF NOT AND DUP4 DUP1 ADD OR DUP6 SSTORE PUSH2 0x118F JUMP JUMPDEST DUP3 DUP1 ADD PUSH1 0x1 ADD DUP6 SSTORE DUP3 ISZERO PUSH2 0x118F JUMPI SWAP2 DUP3 ADD JUMPDEST DUP3 DUP2 GT ISZERO PUSH2 0x118E JUMPI DUP3 MLOAD DUP3 SSTORE SWAP2 PUSH1 0x20 ADD SWAP2 SWAP1 PUSH1 0x1 ADD SWAP1 PUSH2 0x1173 JUMP JUMPDEST JUMPDEST POP SWAP1 POP PUSH2 0x119C SWAP2 SWAP1 PUSH2 0x11A0 JUMP JUMPDEST POP SWAP1 JUMP JUMPDEST JUMPDEST DUP1 DUP3 GT ISZERO PUSH2 0x11B9 JUMPI PUSH1 0x0 DUP2 PUSH1 0x0 SWAP1 SSTORE POP PUSH1 0x1 ADD PUSH2 0x11A1 JUMP JUMPDEST POP SWAP1 JUMP JUMPDEST PUSH1 0x0 PUSH2 0x11D0 PUSH2 0x11CB DUP5 PUSH2 0x1AB0 JUMP JUMPDEST PUSH2 0x1A8B JUMP JUMPDEST SWAP1 POP DUP3 DUP2 MSTORE PUSH1 0x20 DUP2 ADD DUP5 DUP5 DUP5 ADD GT ISZERO PUSH2 0x11EC JUMPI PUSH2 0x11EB PUSH2 0x1E9F JUMP JUMPDEST JUMPDEST PUSH2 0x11F7 DUP5 DUP3 DUP6 PUSH2 0x1CB7 JUMP JUMPDEST POP SWAP4 SWAP3 POP POP POP JUMP JUMPDEST PUSH1 0x0 DUP2 CALLDATALOAD SWAP1 POP PUSH2 0x120E DUP2 PUSH2 0x2114 JUMP JUMPDEST SWAP3 SWAP2 POP POP JUMP JUMPDEST PUSH1 0x0 DUP1 DUP4 PUSH1 0x1F DUP5 ADD SLT PUSH2 0x122A JUMPI PUSH2 0x1229 PUSH2 0x1E95 JUMP JUMPDEST JUMPDEST DUP3 CALLDATALOAD SWAP1 POP PUSH8 0xFFFFFFFFFFFFFFFF DUP2 GT ISZERO PUSH2 0x1247 JUMPI PUSH2 0x1246 PUSH2 0x1E90 JUMP JUMPDEST JUMPDEST PUSH1 0x20 DUP4 ADD SWAP2 POP DUP4 PUSH1 0x1 DUP3 MUL DUP4 ADD GT ISZERO PUSH2 0x1263 JUMPI PUSH2 0x1262 PUSH2 0x1E9A JUMP JUMPDEST JUMPDEST SWAP3 POP SWAP3 SWAP1 POP JUMP JUMPDEST PUSH1 0x0 DUP3 PUSH1 0x1F DUP4 ADD SLT PUSH2 0x127F JUMPI PUSH2 0x127E PUSH2 0x1E95 JUMP JUMPDEST JUMPDEST DUP2 CALLDATALOAD PUSH2 0x128F DUP5 DUP3 PUSH1 0x20 DUP7 ADD PUSH2 0x11BD JUMP JUMPDEST SWAP2 POP POP SWAP3 SWAP2 POP POP JUMP JUMPDEST PUSH1 0x0 DUP2 CALLDATALOAD SWAP1 POP PUSH2 0x12A7 DUP2 PUSH2 0x212B JUMP JUMPDEST SWAP3 SWAP2 POP POP JUMP JUMPDEST PUSH1 0x0 DUP1 PUSH1 0x0 DUP1 PUSH1 0x60 DUP6 DUP8 SUB SLT ISZERO PUSH2 0x12C7 JUMPI PUSH2 0x12C6 PUSH2 0x1EA9 JUMP JUMPDEST JUMPDEST PUSH1 0x0 DUP6 ADD CALLDATALOAD PUSH8 0xFFFFFFFFFFFFFFFF DUP2 GT ISZERO PUSH2 0x12E5 JUMPI PUSH2 0x12E4 PUSH2 0x1EA4 JUMP JUMPDEST JUMPDEST PUSH2 0x12F1 DUP8 DUP3 DUP9 ADD PUSH2 0x1214 JUMP JUMPDEST SWAP5 POP SWAP5 POP POP PUSH1 0x20 PUSH2 0x1304 DUP8 DUP3 DUP9 ADD PUSH2 0x1298 JUMP JUMPDEST SWAP3 POP POP PUSH1 0x40 PUSH2 0x1315 DUP8 DUP3 DUP9 ADD PUSH2 0x1298 JUMP JUMPDEST SWAP2 POP POP SWAP3 SWAP6 SWAP2 SWAP5 POP SWAP3 POP JUMP JUMPDEST PUSH1 0x0 PUSH1 0x20 DUP3 DUP5 SUB SLT ISZERO PUSH2 0x1337 JUMPI PUSH2 0x1336 PUSH2 0x1EA9 JUMP JUMPDEST JUMPDEST PUSH1 0x0 DUP3 ADD CALLDATALOAD PUSH8 0xFFFFFFFFFFFFFFFF DUP2 GT ISZERO PUSH2 0x1355 JUMPI PUSH2 0x1354 PUSH2 0x1EA4 JUMP JUMPDEST JUMPDEST PUSH2 0x1361 DUP5 DUP3 DUP6 ADD PUSH2 0x126A JUMP JUMPDEST SWAP2 POP POP SWAP3 SWAP2 POP POP JUMP JUMPDEST PUSH1 0x0 PUSH1 0x20 DUP3 DUP5 SUB SLT ISZERO PUSH2 0x1380 JUMPI PUSH2 0x137F PUSH2 0x1EA9 JUMP JUMPDEST JUMPDEST PUSH1 0x0 PUSH2 0x138E DUP5 DUP3 DUP6 ADD PUSH2 0x1298 JUMP JUMPDEST SWAP2 POP POP SWAP3 SWAP2 POP POP JUMP JUMPDEST PUSH1 0x0 DUP1 PUSH1 0x40 DUP4 DUP6 SUB SLT ISZERO PUSH2 0x13AE JUMPI PUSH2 0x13AD PUSH2 0x1EA9 JUMP JUMPDEST JUMPDEST PUSH1 0x0 PUSH2 0x13BC DUP6 DUP3 DUP7 ADD PUSH2 0x1298 JUMP JUMPDEST SWAP3 POP POP PUSH1 0x20 PUSH2 0x13CD DUP6 DUP3 DUP7 ADD PUSH2 0x11FF JUMP JUMPDEST SWAP2 POP POP SWAP3 POP SWAP3 SWAP1 POP JUMP JUMPDEST PUSH1 0x0 DUP1 PUSH1 0x40 DUP4 DUP6 SUB SLT ISZERO PUSH2 0x13EE JUMPI PUSH2 0x13ED PUSH2 0x1EA9 JUMP JUMPDEST JUMPDEST PUSH1 0x0 PUSH2 0x13FC DUP6 DUP3 DUP7 ADD PUSH2 0x1298 JUMP JUMPDEST SWAP3 POP POP PUSH1 0x20 PUSH2 0x140D DUP6 DUP3 DUP7 ADD PUSH2 0x1298 JUMP JUMPDEST SWAP2 POP POP SWAP3 POP SWAP3 SWAP1 POP JUMP JUMPDEST PUSH1 0x0 PUSH2 0x1423 DUP4 DUP4 PUSH2 0x1443 JUMP JUMPDEST PUSH1 0x20 DUP4 ADD SWAP1 POP SWAP3 SWAP2 POP POP JUMP JUMPDEST PUSH1 0x0 PUSH2 0x143B DUP4 DUP4 PUSH2 0x1742 JUMP JUMPDEST SWAP1 POP SWAP3 SWAP2 POP POP JUMP JUMPDEST PUSH2 0x144C DUP2 PUSH2 0x1C6F JUMP JUMPDEST DUP3 MSTORE POP POP JUMP JUMPDEST PUSH2 0x145B DUP2 PUSH2 0x1C6F JUMP JUMPDEST DUP3 MSTORE POP POP JUMP JUMPDEST PUSH1 0x0 PUSH2 0x146C DUP3 PUSH2 0x1B01 JUMP JUMPDEST PUSH2 0x1476 DUP2 DUP6 PUSH2 0x1B3C JUMP JUMPDEST SWAP4 POP PUSH2 0x1481 DUP4 PUSH2 0x1AE1 JUMP JUMPDEST DUP1 PUSH1 0x0 JUMPDEST DUP4 DUP2 LT ISZERO PUSH2 0x14B2 JUMPI DUP2 MLOAD PUSH2 0x1499 DUP9 DUP3 PUSH2 0x1417 JUMP JUMPDEST SWAP8 POP PUSH2 0x14A4 DUP4 PUSH2 0x1B22 JUMP JUMPDEST SWAP3 POP POP PUSH1 0x1 DUP2 ADD SWAP1 POP PUSH2 0x1485 JUMP JUMPDEST POP DUP6 SWAP4 POP POP POP POP SWAP3 SWAP2 POP POP JUMP JUMPDEST PUSH1 0x0 PUSH2 0x14CA DUP3 PUSH2 0x1B0C JUMP JUMPDEST PUSH2 0x14D4 DUP2 DUP6 PUSH2 0x1B4D JUMP JUMPDEST SWAP4 POP DUP4 PUSH1 0x20 DUP3 MUL DUP6 ADD PUSH2 0x14E6 DUP6 PUSH2 0x1AF1 JUMP JUMPDEST DUP1 PUSH1 0x0 JUMPDEST DUP6 DUP2 LT ISZERO PUSH2 0x1522 JUMPI DUP5 DUP5 SUB DUP10 MSTORE DUP2 MLOAD PUSH2 0x1503 DUP6 DUP3 PUSH2 0x142F JUMP JUMPDEST SWAP5 POP PUSH2 0x150E DUP4 PUSH2 0x1B2F JUMP JUMPDEST SWAP3 POP PUSH1 0x20 DUP11 ADD SWAP10 POP POP PUSH1 0x1 DUP2 ADD SWAP1 POP PUSH2 0x14EA JUMP JUMPDEST POP DUP3 SWAP8 POP DUP8 SWAP6 POP POP POP POP POP POP SWAP3 SWAP2 POP POP JUMP JUMPDEST PUSH2 0x153D DUP2 PUSH2 0x1C81 JUMP JUMPDEST DUP3 MSTORE POP POP JUMP JUMPDEST PUSH1 0x0 PUSH2 0x154F DUP4 DUP6 PUSH2 0x1B6F JUMP JUMPDEST SWAP4 POP PUSH2 0x155C DUP4 DUP6 DUP5 PUSH2 0x1CB7 JUMP JUMPDEST PUSH2 0x1565 DUP4 PUSH2 0x1EAE JUMP JUMPDEST DUP5 ADD SWAP1 POP SWAP4 SWAP3 POP POP POP JUMP JUMPDEST PUSH1 0x0 PUSH2 0x157C DUP4 DUP6 PUSH2 0x1B80 JUMP JUMPDEST SWAP4 POP PUSH2 0x1589 DUP4 DUP6 DUP5 PUSH2 0x1CB7 JUMP JUMPDEST DUP3 DUP5 ADD SWAP1 POP SWAP4 SWAP3 POP POP POP JUMP JUMPDEST PUSH1 0x0 PUSH2 0x15A0 DUP3 PUSH2 0x1B17 JUMP JUMPDEST PUSH2 0x15AA DUP2 DUP6 PUSH2 0x1B5E JUMP JUMPDEST SWAP4 POP PUSH2 0x15BA DUP2 DUP6 PUSH1 0x20 DUP7 ADD PUSH2 0x1CC6 JUMP JUMPDEST PUSH2 0x15C3 DUP2 PUSH2 0x1EAE JUMP JUMPDEST DUP5 ADD SWAP2 POP POP SWAP3 SWAP2 POP POP JUMP JUMPDEST PUSH1 0x0 PUSH2 0x15D9 DUP3 PUSH2 0x1B17 JUMP JUMPDEST PUSH2 0x15E3 DUP2 DUP6 PUSH2 0x1B6F JUMP JUMPDEST SWAP4 POP PUSH2 0x15F3 DUP2 DUP6 PUSH1 0x20 DUP7 ADD PUSH2 0x1CC6 JUMP JUMPDEST PUSH2 0x15FC DUP2 PUSH2 0x1EAE JUMP JUMPDEST DUP5 ADD SWAP2 POP POP SWAP3 SWAP2 POP POP JUMP JUMPDEST PUSH1 0x0 PUSH2 0x1614 PUSH1 0x16 DUP4 PUSH2 0x1B6F JUMP JUMPDEST SWAP2 POP PUSH2 0x161F DUP3 PUSH2 0x1EBF JUMP JUMPDEST PUSH1 0x20 DUP3 ADD SWAP1 POP SWAP2 SWAP1 POP JUMP JUMPDEST PUSH1 0x0 PUSH2 0x1637 PUSH1 0x2D DUP4 PUSH2 0x1B6F JUMP JUMPDEST SWAP2 POP PUSH2 0x1642 DUP3 PUSH2 0x1EE8 JUMP JUMPDEST PUSH1 0x40 DUP3 ADD SWAP1 POP SWAP2 SWAP1 POP JUMP JUMPDEST PUSH1 0x0 PUSH2 0x165A PUSH1 0x1C DUP4 PUSH2 0x1B6F JUMP JUMPDEST SWAP2 POP PUSH2 0x1665 DUP3 PUSH2 0x1F37 JUMP JUMPDEST PUSH1 0x20 DUP3 ADD SWAP1 POP SWAP2 SWAP1 POP JUMP JUMPDEST PUSH1 0x0 PUSH2 0x167D PUSH1 0x4F DUP4 PUSH2 0x1B6F JUMP JUMPDEST SWAP2 POP PUSH2 0x1688 DUP3 PUSH2 0x1F60 JUMP JUMPDEST PUSH1 0x60 DUP3 ADD SWAP1 POP SWAP2 SWAP1 POP JUMP JUMPDEST PUSH1 0x0 PUSH2 0x16A0 PUSH1 0x21 DUP4 PUSH2 0x1B6F JUMP JUMPDEST SWAP2 POP PUSH2 0x16AB DUP3 PUSH2 0x1FD5 JUMP JUMPDEST PUSH1 0x40 DUP3 ADD SWAP1 POP SWAP2 SWAP1 POP JUMP JUMPDEST PUSH1 0x0 PUSH2 0x16C3 PUSH1 0x11 DUP4 PUSH2 0x1B6F JUMP JUMPDEST SWAP2 POP PUSH2 0x16CE DUP3 PUSH2 0x2024 JUMP JUMPDEST PUSH1 0x20 DUP3 ADD SWAP1 POP SWAP2 SWAP1 POP JUMP JUMPDEST PUSH1 0x0 PUSH2 0x16E6 PUSH1 0x25 DUP4 PUSH2 0x1B6F JUMP JUMPDEST SWAP2 POP PUSH2 0x16F1 DUP3 PUSH2 0x204D JUMP JUMPDEST PUSH1 0x40 DUP3 ADD SWAP1 POP SWAP2 SWAP1 POP JUMP JUMPDEST PUSH1 0x0 PUSH2 0x1709 PUSH1 0x1C DUP4 PUSH2 0x1B6F JUMP JUMPDEST SWAP2 POP PUSH2 0x1714 DUP3 PUSH2 0x209C JUMP JUMPDEST PUSH1 0x20 DUP3 ADD SWAP1 POP SWAP2 SWAP1 POP JUMP JUMPDEST PUSH1 0x0 PUSH2 0x172C PUSH1 0x24 DUP4 PUSH2 0x1B6F JUMP JUMPDEST SWAP2 POP PUSH2 0x1737 DUP3 PUSH2 0x20C5 JUMP JUMPDEST PUSH1 0x40 DUP3 ADD SWAP1 POP SWAP2 SWAP1 POP JUMP JUMPDEST PUSH1 0x0 PUSH1 0x80 DUP4 ADD PUSH1 0x0 DUP4 ADD MLOAD PUSH2 0x175A PUSH1 0x0 DUP7 ADD DUP3 PUSH2 0x17A5 JUMP JUMPDEST POP PUSH1 0x20 DUP4 ADD MLOAD DUP5 DUP3 SUB PUSH1 0x20 DUP7 ADD MSTORE PUSH2 0x1772 DUP3 DUP3 PUSH2 0x1595 JUMP JUMPDEST SWAP2 POP POP PUSH1 0x40 DUP4 ADD MLOAD PUSH2 0x1787 PUSH1 0x40 DUP7 ADD DUP3 PUSH2 0x17A5 JUMP JUMPDEST POP PUSH1 0x60 DUP4 ADD MLOAD PUSH2 0x179A PUSH1 0x60 DUP7 ADD DUP3 PUSH2 0x17A5 JUMP JUMPDEST POP DUP1 SWAP2 POP POP SWAP3 SWAP2 POP POP JUMP JUMPDEST PUSH2 0x17AE DUP2 PUSH2 0x1CAD JUMP JUMPDEST DUP3 MSTORE POP POP JUMP JUMPDEST PUSH2 0x17BD DUP2 PUSH2 0x1CAD JUMP JUMPDEST DUP3 MSTORE POP POP JUMP JUMPDEST PUSH1 0x0 PUSH2 0x17D0 DUP3 DUP5 DUP7 PUSH2 0x1570 JUMP JUMPDEST SWAP2 POP DUP2 SWAP1 POP SWAP4 SWAP3 POP POP POP JUMP JUMPDEST PUSH1 0x0 PUSH1 0x20 DUP3 ADD SWAP1 POP PUSH2 0x17F1 PUSH1 0x0 DUP4 ADD DUP5 PUSH2 0x1452 JUMP JUMPDEST SWAP3 SWAP2 POP POP JUMP JUMPDEST PUSH1 0x0 PUSH1 0x40 DUP3 ADD SWAP1 POP PUSH2 0x180C PUSH1 0x0 DUP4 ADD DUP6 PUSH2 0x1452 JUMP JUMPDEST PUSH2 0x1819 PUSH1 0x20 DUP4 ADD DUP5 PUSH2 0x17B4 JUMP JUMPDEST SWAP4 SWAP3 POP POP POP JUMP JUMPDEST PUSH1 0x0 PUSH1 0x60 DUP3 ADD SWAP1 POP PUSH2 0x1835 PUSH1 0x0 DUP4 ADD DUP7 PUSH2 0x1452 JUMP JUMPDEST PUSH2 0x1842 PUSH1 0x20 DUP4 ADD DUP6 PUSH2 0x17B4 JUMP JUMPDEST PUSH2 0x184F PUSH1 0x40 DUP4 ADD DUP5 PUSH2 0x17B4 JUMP JUMPDEST SWAP5 SWAP4 POP POP POP POP JUMP JUMPDEST PUSH1 0x0 PUSH1 0x20 DUP3 ADD SWAP1 POP DUP2 DUP2 SUB PUSH1 0x0 DUP4 ADD MSTORE PUSH2 0x1871 DUP2 DUP5 PUSH2 0x1461 JUMP JUMPDEST SWAP1 POP SWAP3 SWAP2 POP POP JUMP JUMPDEST PUSH1 0x0 PUSH1 0x20 DUP3 ADD SWAP1 POP DUP2 DUP2 SUB PUSH1 0x0 DUP4 ADD MSTORE PUSH2 0x1893 DUP2 DUP5 PUSH2 0x14BF JUMP JUMPDEST SWAP1 POP SWAP3 SWAP2 POP POP JUMP JUMPDEST PUSH1 0x0 PUSH1 0x20 DUP3 ADD SWAP1 POP PUSH2 0x18B0 PUSH1 0x0 DUP4 ADD DUP5 PUSH2 0x1534 JUMP JUMPDEST SWAP3 SWAP2 POP POP JUMP JUMPDEST PUSH1 0x0 PUSH1 0x60 DUP3 ADD SWAP1 POP DUP2 DUP2 SUB PUSH1 0x0 DUP4 ADD MSTORE PUSH2 0x18D1 DUP2 DUP7 DUP9 PUSH2 0x1543 JUMP JUMPDEST SWAP1 POP PUSH2 0x18E0 PUSH1 0x20 DUP4 ADD DUP6 PUSH2 0x17B4 JUMP JUMPDEST PUSH2 0x18ED PUSH1 0x40 DUP4 ADD DUP5 PUSH2 0x17B4 JUMP JUMPDEST SWAP6 SWAP5 POP POP POP POP POP JUMP JUMPDEST PUSH1 0x0 PUSH1 0x20 DUP3 ADD SWAP1 POP DUP2 DUP2 SUB PUSH1 0x0 DUP4 ADD MSTORE PUSH2 0x190F DUP2 PUSH2 0x1607 JUMP JUMPDEST SWAP1 POP SWAP2 SWAP1 POP JUMP JUMPDEST PUSH1 0x0 PUSH1 0x20 DUP3 ADD SWAP1 POP DUP2 DUP2 SUB PUSH1 0x0 DUP4 ADD MSTORE PUSH2 0x192F DUP2 PUSH2 0x162A JUMP JUMPDEST SWAP1 POP SWAP2 SWAP1 POP JUMP JUMPDEST PUSH1 0x0 PUSH1 0x20 DUP3 ADD SWAP1 POP DUP2 DUP2 SUB PUSH1 0x0 DUP4 ADD MSTORE PUSH2 0x194F DUP2 PUSH2 0x164D JUMP JUMPDEST SWAP1 POP SWAP2 SWAP1 POP JUMP JUMPDEST PUSH1 0x0 PUSH1 0x20 DUP3 ADD SWAP1 POP DUP2 DUP2 SUB PUSH1 0x0 DUP4 ADD MSTORE PUSH2 0x196F DUP2 PUSH2 0x1670 JUMP JUMPDEST SWAP1 POP SWAP2 SWAP1 POP JUMP JUMPDEST PUSH1 0x0 PUSH1 0x20 DUP3 ADD SWAP1 POP DUP2 DUP2 SUB PUSH1 0x0 DUP4 ADD MSTORE PUSH2 0x198F DUP2 PUSH2 0x1693 JUMP JUMPDEST SWAP1 POP SWAP2 SWAP1 POP JUMP JUMPDEST PUSH1 0x0 PUSH1 0x20 DUP3 ADD SWAP1 POP DUP2 DUP2 SUB PUSH1 0x0 DUP4 ADD MSTORE PUSH2 0x19AF DUP2 PUSH2 0x16B6 JUMP JUMPDEST SWAP1 POP SWAP2 SWAP1 POP JUMP JUMPDEST PUSH1 0x0 PUSH1 0x20 DUP3 ADD SWAP1 POP DUP2 DUP2 SUB PUSH1 0x0 DUP4 ADD MSTORE PUSH2 0x19CF DUP2 PUSH2 0x16D9 JUMP JUMPDEST SWAP1 POP SWAP2 SWAP1 POP JUMP JUMPDEST PUSH1 0x0 PUSH1 0x20 DUP3 ADD SWAP1 POP DUP2 DUP2 SUB PUSH1 0x0 DUP4 ADD MSTORE PUSH2 0x19EF DUP2 PUSH2 0x16FC JUMP JUMPDEST SWAP1 POP SWAP2 SWAP1 POP JUMP JUMPDEST PUSH1 0x0 PUSH1 0x20 DUP3 ADD SWAP1 POP DUP2 DUP2 SUB PUSH1 0x0 DUP4 ADD MSTORE PUSH2 0x1A0F DUP2 PUSH2 0x171F JUMP JUMPDEST SWAP1 POP SWAP2 SWAP1 POP JUMP JUMPDEST PUSH1 0x0 PUSH1 0x80 DUP3 ADD SWAP1 POP PUSH2 0x1A2B PUSH1 0x0 DUP4 ADD DUP8 PUSH2 0x17B4 JUMP JUMPDEST DUP2 DUP2 SUB PUSH1 0x20 DUP4 ADD MSTORE PUSH2 0x1A3D DUP2 DUP7 PUSH2 0x15CE JUMP JUMPDEST SWAP1 POP PUSH2 0x1A4C PUSH1 0x40 DUP4 ADD DUP6 PUSH2 0x17B4 JUMP JUMPDEST PUSH2 0x1A59 PUSH1 0x60 DUP4 ADD DUP5 PUSH2 0x17B4 JUMP JUMPDEST SWAP6 SWAP5 POP POP POP POP POP JUMP JUMPDEST PUSH1 0x0 PUSH1 0x40 DUP3 ADD SWAP1 POP PUSH2 0x1A77 PUSH1 0x0 DUP4 ADD DUP6 PUSH2 0x17B4 JUMP JUMPDEST PUSH2 0x1A84 PUSH1 0x20 DUP4 ADD DUP5 PUSH2 0x17B4 JUMP JUMPDEST SWAP4 SWAP3 POP POP POP JUMP JUMPDEST PUSH1 0x0 PUSH2 0x1A95 PUSH2 0x1AA6 JUMP JUMPDEST SWAP1 POP PUSH2 0x1AA1 DUP3 DUP3 PUSH2 0x1D2B JUMP JUMPDEST SWAP2 SWAP1 POP JUMP JUMPDEST PUSH1 0x0 PUSH1 0x40 MLOAD SWAP1 POP SWAP1 JUMP JUMPDEST PUSH1 0x0 PUSH8 0xFFFFFFFFFFFFFFFF DUP3 GT ISZERO PUSH2 0x1ACB JUMPI PUSH2 0x1ACA PUSH2 0x1E61 JUMP JUMPDEST JUMPDEST PUSH2 0x1AD4 DUP3 PUSH2 0x1EAE JUMP JUMPDEST SWAP1 POP PUSH1 0x20 DUP2 ADD SWAP1 POP SWAP2 SWAP1 POP JUMP JUMPDEST PUSH1 0x0 DUP2 SWAP1 POP PUSH1 0x20 DUP3 ADD SWAP1 POP SWAP2 SWAP1 POP JUMP JUMPDEST PUSH1 0x0 DUP2 SWAP1 POP PUSH1 0x20 DUP3 ADD SWAP1 POP SWAP2 SWAP1 POP JUMP JUMPDEST PUSH1 0x0 DUP2 MLOAD SWAP1 POP SWAP2 SWAP1 POP JUMP JUMPDEST PUSH1 0x0 DUP2 MLOAD SWAP1 POP SWAP2 SWAP1 POP JUMP JUMPDEST PUSH1 0x0 DUP2 MLOAD SWAP1 POP SWAP2 SWAP1 POP JUMP JUMPDEST PUSH1 0x0 PUSH1 0x20 DUP3 ADD SWAP1 POP SWAP2 SWAP1 POP JUMP JUMPDEST PUSH1 0x0 PUSH1 0x20 DUP3 ADD SWAP1 POP SWAP2 SWAP1 POP JUMP JUMPDEST PUSH1 0x0 DUP3 DUP3 MSTORE PUSH1 0x20 DUP3 ADD SWAP1 POP SWAP3 SWAP2 POP POP JUMP JUMPDEST PUSH1 0x0 DUP3 DUP3 MSTORE PUSH1 0x20 DUP3 ADD SWAP1 POP SWAP3 SWAP2 POP POP JUMP JUMPDEST PUSH1 0x0 DUP3 DUP3 MSTORE PUSH1 0x20 DUP3 ADD SWAP1 POP SWAP3 SWAP2 POP POP JUMP JUMPDEST PUSH1 0x0 DUP3 DUP3 MSTORE PUSH1 0x20 DUP3 ADD SWAP1 POP SWAP3 SWAP2 POP POP JUMP JUMPDEST PUSH1 0x0 DUP2 SWAP1 POP SWAP3 SWAP2 POP POP JUMP JUMPDEST PUSH1 0x0 PUSH2 0x1B96 DUP3 PUSH2 0x1CAD JUMP JUMPDEST SWAP2 POP PUSH2 0x1BA1 DUP4 PUSH2 0x1CAD JUMP JUMPDEST SWAP3 POP DUP3 PUSH32 0xFFFFFFFFFFFFFFFFFFFFFFFFFFFFFFFFFFFFFFFFFFFFFFFFFFFFFFFFFFFFFFFF SUB DUP3 GT ISZERO PUSH2 0x1BD6 JUMPI PUSH2 0x1BD5 PUSH2 0x1DA5 JUMP JUMPDEST JUMPDEST DUP3 DUP3 ADD SWAP1 POP SWAP3 SWAP2 POP POP JUMP JUMPDEST PUSH1 0x0 PUSH2 0x1BEC DUP3 PUSH2 0x1CAD JUMP JUMPDEST SWAP2 POP PUSH2 0x1BF7 DUP4 PUSH2 0x1CAD JUMP JUMPDEST SWAP3 POP DUP2 PUSH32 0xFFFFFFFFFFFFFFFFFFFFFFFFFFFFFFFFFFFFFFFFFFFFFFFFFFFFFFFFFFFFFFFF DIV DUP4 GT DUP3 ISZERO ISZERO AND ISZERO PUSH2 0x1C30 JUMPI PUSH2 0x1C2F PUSH2 0x1DA5 JUMP JUMPDEST JUMPDEST DUP3 DUP3 MUL SWAP1 POP SWAP3 SWAP2 POP POP JUMP JUMPDEST PUSH1 0x0 PUSH2 0x1C46 DUP3 PUSH2 0x1CAD JUMP JUMPDEST SWAP2 POP PUSH2 0x1C51 DUP4 PUSH2 0x1CAD JUMP JUMPDEST SWAP3 POP DUP3 DUP3 LT ISZERO PUSH2 0x1C64 JUMPI PUSH2 0x1C63 PUSH2 0x1DA5 JUMP JUMPDEST JUMPDEST DUP3 DUP3 SUB SWAP1 POP SWAP3 SWAP2 POP POP JUMP JUMPDEST PUSH1 0x0 PUSH2 0x1C7A DUP3 PUSH2 0x1C8D JUMP JUMPDEST SWAP1 POP SWAP2 SWAP1 POP JUMP JUMPDEST PUSH1 0x0 DUP2 ISZERO ISZERO SWAP1 POP SWAP2 SWAP1 POP JUMP JUMPDEST PUSH1 0x0 PUSH20 0xFFFFFFFFFFFFFFFFFFFFFFFFFFFFFFFFFFFFFFFF DUP3 AND SWAP1 POP SWAP2 SWAP1 POP JUMP JUMPDEST PUSH1 0x0 DUP2 SWAP1 POP SWAP2 SWAP1 POP JUMP JUMPDEST DUP3 DUP2 DUP4 CALLDATACOPY PUSH1 0x0 DUP4 DUP4 ADD MSTORE POP POP POP JUMP JUMPDEST PUSH1 0x0 JUMPDEST DUP4 DUP2 LT ISZERO PUSH2 0x1CE4 JUMPI DUP1 DUP3 ADD MLOAD DUP2 DUP5 ADD MSTORE PUSH1 0x20 DUP2 ADD SWAP1 POP PUSH2 0x1CC9 JUMP JUMPDEST DUP4 DUP2 GT ISZERO PUSH2 0x1CF3 JUMPI PUSH1 0x0 DUP5 DUP5 ADD MSTORE JUMPDEST POP POP POP POP JUMP JUMPDEST PUSH1 0x0 PUSH1 0x2 DUP3 DIV SWAP1 POP PUSH1 0x1 DUP3 AND DUP1 PUSH2 0x1D11 JUMPI PUSH1 0x7F DUP3 AND SWAP2 POP JUMPDEST PUSH1 0x20 DUP3 LT DUP2 EQ ISZERO PUSH2 0x1D25 JUMPI PUSH2 0x1D24 PUSH2 0x1DD4 JUMP JUMPDEST JUMPDEST POP SWAP2 SWAP1 POP JUMP JUMPDEST PUSH2 0x1D34 DUP3 PUSH2 0x1EAE JUMP JUMPDEST DUP2 ADD DUP2 DUP2 LT PUSH8 0xFFFFFFFFFFFFFFFF DUP3 GT OR ISZERO PUSH2 0x1D53 JUMPI PUSH2 0x1D52 PUSH2 0x1E61 JUMP JUMPDEST JUMPDEST DUP1 PUSH1 0x40 MSTORE POP POP POP JUMP JUMPDEST PUSH1 0x0 PUSH2 0x1D67 DUP3 PUSH2 0x1CAD JUMP JUMPDEST SWAP2 POP PUSH32 0xFFFFFFFFFFFFFFFFFFFFFFFFFFFFFFFFFFFFFFFFFFFFFFFFFFFFFFFFFFFFFFFF DUP3 EQ ISZERO PUSH2 0x1D9A JUMPI PUSH2 0x1D99 PUSH2 0x1DA5 JUMP JUMPDEST JUMPDEST PUSH1 0x1 DUP3 ADD SWAP1 POP SWAP2 SWAP1 POP JUMP JUMPDEST PUSH32 0x4E487B7100000000000000000000000000000000000000000000000000000000 PUSH1 0x0 MSTORE PUSH1 0x11 PUSH1 0x4 MSTORE PUSH1 0x24 PUSH1 0x0 REVERT JUMPDEST PUSH32 0x4E487B7100000000000000000000000000000000000000000000000000000000 PUSH1 0x0 MSTORE PUSH1 0x22 PUSH1 0x4 MSTORE PUSH1 0x24 PUSH1 0x0 REVERT JUMPDEST PUSH32 0x4E487B7100000000000000000000000000000000000000000000000000000000 PUSH1 0x0 MSTORE PUSH1 0x31 PUSH1 0x4 MSTORE PUSH1 0x24 PUSH1 0x0 REVERT JUMPDEST PUSH32 0x4E487B7100000000000000000000000000000000000000000000000000000000 PUSH1 0x0 MSTORE PUSH1 0x32 PUSH1 0x4 MSTORE PUSH1 0x24 PUSH1 0x0 REVERT JUMPDEST PUSH32 0x4E487B7100000000000000000000000000000000000000000000000000000000 PUSH1 0x0 MSTORE PUSH1 0x41 PUSH1 0x4 MSTORE PUSH1 0x24 PUSH1 0x0 REVERT JUMPDEST PUSH1 0x0 DUP1 REVERT JUMPDEST PUSH1 0x0 DUP1 REVERT JUMPDEST PUSH1 0x0 DUP1 REVERT JUMPDEST PUSH1 0x0 DUP1 REVERT JUMPDEST PUSH1 0x0 DUP1 REVERT JUMPDEST PUSH1 0x0 DUP1 REVERT JUMPDEST PUSH1 0x0 PUSH1 0x1F NOT PUSH1 0x1F DUP4 ADD AND SWAP1 POP SWAP2 SWAP1 POP JUMP JUMPDEST PUSH32 0x596F7520617265206E6F7420746865206F776E65722100000000000000000000 PUSH1 0x0 DUP3 ADD MSTORE POP JUMP JUMPDEST PUSH32 0x5468652070726F64756374207175616E74697479206973206C65737320746861 PUSH1 0x0 DUP3 ADD MSTORE PUSH32 0x6E20796F752077616E7465642100000000000000000000000000000000000000 PUSH1 0x20 DUP3 ADD MSTORE POP JUMP JUMPDEST PUSH32 0x54696D6520666F722072657475726E2068617320657870697265642100000000 PUSH1 0x0 DUP3 ADD MSTORE POP JUMP JUMPDEST PUSH32 0x506C656173652073656E6420746865206578616374207072696365206F662074 PUSH1 0x0 DUP3 ADD MSTORE PUSH32 0x68652070726F64756374206D756C7469706C6965642062792074686520717561 PUSH1 0x20 DUP3 ADD MSTORE PUSH32 0x6E7469747920796F752077616E74210000000000000000000000000000000000 PUSH1 0x40 DUP3 ADD MSTORE POP JUMP JUMPDEST PUSH32 0x596F752068617665206E6F7420626F7567687420746869732070726F64756374 PUSH1 0x0 DUP3 ADD MSTORE PUSH32 0x2100000000000000000000000000000000000000000000000000000000000000 PUSH1 0x20 DUP3 ADD MSTORE POP JUMP JUMPDEST PUSH32 0x496E76616C6964207175616E7469747921000000000000000000000000000000 PUSH1 0x0 DUP3 ADD MSTORE POP JUMP JUMPDEST PUSH32 0x596F75206861766520616C726561647920626F7567687420746869732070726F PUSH1 0x0 DUP3 ADD MSTORE PUSH32 0x6475637421000000000000000000000000000000000000000000000000000000 PUSH1 0x20 DUP3 ADD MSTORE POP JUMP JUMPDEST PUSH32 0x5468652070726F64756374206973206E6F74206578697374696E672100000000 PUSH1 0x0 DUP3 ADD MSTORE POP JUMP JUMPDEST PUSH32 0x5468652070726F6475637420697320616C726561647920696E20746865207374 PUSH1 0x0 DUP3 ADD MSTORE PUSH32 0x6F72652100000000000000000000000000000000000000000000000000000000 PUSH1 0x20 DUP3 ADD MSTORE POP JUMP JUMPDEST PUSH2 0x211D DUP2 PUSH2 0x1C6F JUMP JUMPDEST DUP2 EQ PUSH2 0x2128 JUMPI PUSH1 0x0 DUP1 REVERT JUMPDEST POP JUMP JUMPDEST PUSH2 0x2134 DUP2 PUSH2 0x1CAD JUMP JUMPDEST DUP2 EQ PUSH2 0x213F JUMPI PUSH1 0x0 DUP1 REVERT JUMPDEST POP JUMP INVALID LOG2 PUSH5 0x6970667358 0x22 SLT KECCAK256 0x49 0x4B REVERT CALLDATALOAD CALLDATASIZE CALLDATALOAD 0xF9 PUSH16 0x7EAF027D82DB697D8F1A4C158DCD736C 0xB7 0x2C PUSH8 0x7FB012790A64736F PUSH13 0x63430008070033000000000000 "
				},
				"gasEstimates": {
					"creation": {
						"codeDepositCost": "1713600",
						"executionCost": "26065",
						"totalCost": "1739665"
					},
					"external": {
						"addNewProduct(string,uint256,uint256)": "infinite",
						"availableProductsNames(string)": "infinite",
						"buyProduct(uint256,uint256)": "infinite",
						"clientAddressesByProduct(uint256,uint256)": "infinite",
						"getClientsAdressesByBoughtProductId(uint256)": "infinite",
						"getProducts()": "infinite",
						"owner()": "2533",
						"products(uint256)": "infinite",
						"productsPurchases(uint256,address)": "infinite",
						"returnProduct(uint256)": "infinite",
						"updateProductQuantity(uint256,uint256)": "infinite"
					}
				},
				"methodIdentifiers": {
					"addNewProduct(string,uint256,uint256)": "0a5bd44b",
					"availableProductsNames(string)": "4c437514",
					"buyProduct(uint256,uint256)": "53b62866",
					"clientAddressesByProduct(uint256,uint256)": "fe4b953d",
					"getClientsAdressesByBoughtProductId(uint256)": "8c75ae83",
					"getProducts()": "c29b2f20",
					"owner()": "8da5cb5b",
					"products(uint256)": "7acc0b20",
					"productsPurchases(uint256,address)": "ccc4174a",
					"returnProduct(uint256)": "131e407d",
					"updateProductQuantity(uint256,uint256)": "fcc93b0b"
				}
			},
			"storageLayout": {
				"storage": [
					{
						"astId": 3,
						"contract": "contracts/Store.sol:Store",
						"label": "owner",
						"offset": 0,
						"slot": "0",
						"type": "t_address"
					},
					{
						"astId": 43,
						"contract": "contracts/Store.sol:Store",
						"label": "products",
						"offset": 0,
						"slot": "1",
						"type": "t_array(t_struct(Product)39_storage)dyn_storage"
					},
					{
						"astId": 47,
						"contract": "contracts/Store.sol:Store",
						"label": "availableProductsNames",
						"offset": 0,
						"slot": "2",
						"type": "t_mapping(t_string_memory_ptr,t_bool)"
					},
					{
						"astId": 59,
						"contract": "contracts/Store.sol:Store",
						"label": "productsPurchases",
						"offset": 0,
						"slot": "3",
						"type": "t_mapping(t_uint256,t_mapping(t_address,t_struct(Purchase)52_storage))"
					},
					{
						"astId": 64,
						"contract": "contracts/Store.sol:Store",
						"label": "clientAddressesByProduct",
						"offset": 0,
						"slot": "4",
						"type": "t_mapping(t_uint256,t_array(t_address)dyn_storage)"
					}
				],
				"types": {
					"t_address": {
						"encoding": "inplace",
						"label": "address",
						"numberOfBytes": "20"
					},
					"t_array(t_address)dyn_storage": {
						"base": "t_address",
						"encoding": "dynamic_array",
						"label": "address[]",
						"numberOfBytes": "32"
					},
					"t_array(t_struct(Product)39_storage)dyn_storage": {
						"base": "t_struct(Product)39_storage",
						"encoding": "dynamic_array",
						"label": "struct Store.Product[]",
						"numberOfBytes": "32"
					},
					"t_bool": {
						"encoding": "inplace",
						"label": "bool",
						"numberOfBytes": "1"
					},
					"t_mapping(t_address,t_struct(Purchase)52_storage)": {
						"encoding": "mapping",
						"key": "t_address",
						"label": "mapping(address => struct Store.Purchase)",
						"numberOfBytes": "32",
						"value": "t_struct(Purchase)52_storage"
					},
					"t_mapping(t_string_memory_ptr,t_bool)": {
						"encoding": "mapping",
						"key": "t_string_memory_ptr",
						"label": "mapping(string => bool)",
						"numberOfBytes": "32",
						"value": "t_bool"
					},
					"t_mapping(t_uint256,t_array(t_address)dyn_storage)": {
						"encoding": "mapping",
						"key": "t_uint256",
						"label": "mapping(uint256 => address[])",
						"numberOfBytes": "32",
						"value": "t_array(t_address)dyn_storage"
					},
					"t_mapping(t_uint256,t_mapping(t_address,t_struct(Purchase)52_storage))": {
						"encoding": "mapping",
						"key": "t_uint256",
						"label": "mapping(uint256 => mapping(address => struct Store.Purchase))",
						"numberOfBytes": "32",
						"value": "t_mapping(t_address,t_struct(Purchase)52_storage)"
					},
					"t_string_memory_ptr": {
						"encoding": "bytes",
						"label": "string",
						"numberOfBytes": "32"
					},
					"t_string_storage": {
						"encoding": "bytes",
						"label": "string",
						"numberOfBytes": "32"
					},
					"t_struct(Product)39_storage": {
						"encoding": "inplace",
						"label": "struct Store.Product",
						"members": [
							{
								"astId": 32,
								"contract": "contracts/Store.sol:Store",
								"label": "id",
								"offset": 0,
								"slot": "0",
								"type": "t_uint256"
							},
							{
								"astId": 34,
								"contract": "contracts/Store.sol:Store",
								"label": "name",
								"offset": 0,
								"slot": "1",
								"type": "t_string_storage"
							},
							{
								"astId": 36,
								"contract": "contracts/Store.sol:Store",
								"label": "quantity",
								"offset": 0,
								"slot": "2",
								"type": "t_uint256"
							},
							{
								"astId": 38,
								"contract": "contracts/Store.sol:Store",
								"label": "price",
								"offset": 0,
								"slot": "3",
								"type": "t_uint256"
							}
						],
						"numberOfBytes": "128"
					},
					"t_struct(Purchase)52_storage": {
						"encoding": "inplace",
						"label": "struct Store.Purchase",
						"members": [
							{
								"astId": 49,
								"contract": "contracts/Store.sol:Store",
								"label": "quantity",
								"offset": 0,
								"slot": "0",
								"type": "t_uint256"
							},
							{
								"astId": 51,
								"contract": "contracts/Store.sol:Store",
								"label": "time",
								"offset": 0,
								"slot": "1",
								"type": "t_uint256"
							}
						],
						"numberOfBytes": "64"
					},
					"t_uint256": {
						"encoding": "inplace",
						"label": "uint256",
						"numberOfBytes": "32"
					}
				}
			},
			"userdoc": {
				"kind": "user",
				"methods": {},
				"version": 1
			}
		}
	}
}