{
	"contracts/Store.sol": {
		"Store": {
			"abi": [
				{
					"anonymous": false,
					"inputs": [
						{
							"indexed": false,
							"internalType": "string",
							"name": "",
							"type": "string"
						},
						{
							"indexed": false,
							"internalType": "uint256",
							"name": "",
							"type": "uint256"
						},
						{
							"indexed": false,
							"internalType": "uint256",
							"name": "",
							"type": "uint256"
						}
					],
					"name": "ProductAdded",
					"type": "event"
				},
				{
					"inputs": [
						{
							"internalType": "string",
							"name": "name",
							"type": "string"
						},
						{
							"internalType": "uint256",
							"name": "quantity",
							"type": "uint256"
						},
						{
							"internalType": "uint256",
							"name": "price",
							"type": "uint256"
						}
					],
					"name": "addNewProduct",
					"outputs": [],
					"stateMutability": "nonpayable",
					"type": "function"
				},
				{
					"inputs": [
						{
							"internalType": "string",
							"name": "",
							"type": "string"
						}
					],
					"name": "availableProductsNames",
					"outputs": [
						{
							"internalType": "bool",
							"name": "",
							"type": "bool"
						}
					],
					"stateMutability": "view",
					"type": "function"
				},
				{
					"inputs": [
						{
							"internalType": "uint256",
							"name": "id",
							"type": "uint256"
						},
						{
							"internalType": "uint256",
							"name": "quantity",
							"type": "uint256"
						}
					],
					"name": "buyProduct",
					"outputs": [],
					"stateMutability": "payable",
					"type": "function"
				},
				{
					"inputs": [],
					"name": "getProducts",
					"outputs": [
						{
							"components": [
								{
									"internalType": "uint256",
									"name": "id",
									"type": "uint256"
								},
								{
									"internalType": "string",
									"name": "name",
									"type": "string"
								},
								{
									"internalType": "uint256",
									"name": "quantity",
									"type": "uint256"
								},
								{
									"internalType": "uint256",
									"name": "price",
									"type": "uint256"
								}
							],
							"internalType": "struct Store.Product[]",
							"name": "",
							"type": "tuple[]"
						}
					],
					"stateMutability": "view",
					"type": "function"
				},
				{
					"inputs": [],
					"name": "owner",
					"outputs": [
						{
							"internalType": "address",
							"name": "",
							"type": "address"
						}
					],
					"stateMutability": "view",
					"type": "function"
				},
				{
					"inputs": [
						{
							"internalType": "uint256",
							"name": "",
							"type": "uint256"
						}
					],
					"name": "products",
					"outputs": [
						{
							"internalType": "uint256",
							"name": "id",
							"type": "uint256"
						},
						{
							"internalType": "string",
							"name": "name",
							"type": "string"
						},
						{
							"internalType": "uint256",
							"name": "quantity",
							"type": "uint256"
						},
						{
							"internalType": "uint256",
							"name": "price",
							"type": "uint256"
						}
					],
					"stateMutability": "view",
					"type": "function"
				},
				{
					"inputs": [
						{
							"internalType": "uint256",
							"name": "",
							"type": "uint256"
						},
						{
							"internalType": "address",
							"name": "",
							"type": "address"
						}
					],
					"name": "productsPurchases",
					"outputs": [
						{
							"internalType": "uint256",
							"name": "",
							"type": "uint256"
						}
					],
					"stateMutability": "view",
					"type": "function"
				},
				{
					"inputs": [
						{
							"internalType": "uint256",
							"name": "id",
							"type": "uint256"
						},
						{
							"internalType": "uint256",
							"name": "quantity",
							"type": "uint256"
						}
					],
					"name": "updateProductQuantity",
					"outputs": [],
					"stateMutability": "nonpayable",
					"type": "function"
				}
			],
			"devdoc": {
				"kind": "dev",
				"methods": {},
				"version": 1
			},
			"evm": {
				"assembly": "    /* \"contracts/Store.sol\":93:2490  contract Store is Ownable {\r... */\n  mstore(0x40, 0x80)\n  callvalue\n  dup1\n  iszero\n  tag_1\n  jumpi\n  0x00\n  dup1\n  revert\ntag_1:\n  pop\n    /* \"contracts/Ownable.sol\":156:166  msg.sender */\n  caller\n    /* \"contracts/Ownable.sol\":148:153  owner */\n  0x00\n  dup1\n    /* \"contracts/Ownable.sol\":148:166  owner = msg.sender */\n  0x0100\n  exp\n  dup2\n  sload\n  dup2\n  0xffffffffffffffffffffffffffffffffffffffff\n  mul\n  not\n  and\n  swap1\n  dup4\n  0xffffffffffffffffffffffffffffffffffffffff\n  and\n  mul\n  or\n  swap1\n  sstore\n  pop\n    /* \"contracts/Store.sol\":93:2490  contract Store is Ownable {\r... */\n  dataSize(sub_0)\n  dup1\n  dataOffset(sub_0)\n  0x00\n  codecopy\n  0x00\n  return\nstop\n\nsub_0: assembly {\n        /* \"contracts/Store.sol\":93:2490  contract Store is Ownable {\r... */\n      mstore(0x40, 0x80)\n      jumpi(tag_1, lt(calldatasize, 0x04))\n      shr(0xe0, calldataload(0x00))\n      dup1\n      0x8da5cb5b\n      gt\n      tag_10\n      jumpi\n      dup1\n      0x8da5cb5b\n      eq\n      tag_6\n      jumpi\n      dup1\n      0xc29b2f20\n      eq\n      tag_7\n      jumpi\n      dup1\n      0xccc4174a\n      eq\n      tag_8\n      jumpi\n      dup1\n      0xfcc93b0b\n      eq\n      tag_9\n      jumpi\n      jump(tag_1)\n    tag_10:\n      dup1\n      0x0a5bd44b\n      eq\n      tag_2\n      jumpi\n      dup1\n      0x4c437514\n      eq\n      tag_3\n      jumpi\n      dup1\n      0x53b62866\n      eq\n      tag_4\n      jumpi\n      dup1\n      0x7acc0b20\n      eq\n      tag_5\n      jumpi\n    tag_1:\n      0x00\n      dup1\n      revert\n        /* \"contracts/Store.sol\":517:980  function addNewProduct(string calldata name, uint quantity, uint price) public onlyOwner {\r... */\n    tag_2:\n      callvalue\n      dup1\n      iszero\n      tag_11\n      jumpi\n      0x00\n      dup1\n      revert\n    tag_11:\n      pop\n      tag_12\n      0x04\n      dup1\n      calldatasize\n      sub\n      dup2\n      add\n      swap1\n      tag_13\n      swap2\n      swap1\n      tag_14\n      jump\t// in\n    tag_13:\n      tag_15\n      jump\t// in\n    tag_12:\n      stop\n        /* \"contracts/Store.sol\":274:327  mapping(string => bool) public availableProductsNames */\n    tag_3:\n      callvalue\n      dup1\n      iszero\n      tag_16\n      jumpi\n      0x00\n      dup1\n      revert\n    tag_16:\n      pop\n      tag_17\n      0x04\n      dup1\n      calldatasize\n      sub\n      dup2\n      add\n      swap1\n      tag_18\n      swap2\n      swap1\n      tag_19\n      jump\t// in\n    tag_18:\n      tag_20\n      jump\t// in\n    tag_17:\n      mload(0x40)\n      tag_21\n      swap2\n      swap1\n      tag_22\n      jump\t// in\n    tag_21:\n      mload(0x40)\n      dup1\n      swap2\n      sub\n      swap1\n      return\n        /* \"contracts/Store.sol\":1384:2487  function buyProduct(uint id, uint quantity) payable public onlyExistingProduct(id) {\r... */\n    tag_4:\n      tag_23\n      0x04\n      dup1\n      calldatasize\n      sub\n      dup2\n      add\n      swap1\n      tag_24\n      swap2\n      swap1\n      tag_25\n      jump\t// in\n    tag_24:\n      tag_26\n      jump\t// in\n    tag_23:\n      stop\n        /* \"contracts/Store.sol\":242:267  Product[] public products */\n    tag_5:\n      callvalue\n      dup1\n      iszero\n      tag_27\n      jumpi\n      0x00\n      dup1\n      revert\n    tag_27:\n      pop\n      tag_28\n      0x04\n      dup1\n      calldatasize\n      sub\n      dup2\n      add\n      swap1\n      tag_29\n      swap2\n      swap1\n      tag_30\n      jump\t// in\n    tag_29:\n      tag_31\n      jump\t// in\n    tag_28:\n      mload(0x40)\n      tag_32\n      swap5\n      swap4\n      swap3\n      swap2\n      swap1\n      tag_33\n      jump\t// in\n    tag_32:\n      mload(0x40)\n      dup1\n      swap2\n      sub\n      swap1\n      return\n        /* \"contracts/Ownable.sol\":90:110  address public owner */\n    tag_6:\n      callvalue\n      dup1\n      iszero\n      tag_34\n      jumpi\n      0x00\n      dup1\n      revert\n    tag_34:\n      pop\n      tag_35\n      tag_36\n      jump\t// in\n    tag_35:\n      mload(0x40)\n      tag_37\n      swap2\n      swap1\n      tag_38\n      jump\t// in\n    tag_37:\n      mload(0x40)\n      dup1\n      swap2\n      sub\n      swap1\n      return\n        /* \"contracts/Store.sol\":1281:1376  function getProducts() public view returns(Product[] memory) {\r... */\n    tag_7:\n      callvalue\n      dup1\n      iszero\n      tag_39\n      jumpi\n      0x00\n      dup1\n      revert\n    tag_39:\n      pop\n      tag_40\n      tag_41\n      jump\t// in\n    tag_40:\n      mload(0x40)\n      tag_42\n      swap2\n      swap1\n      tag_43\n      jump\t// in\n    tag_42:\n      mload(0x40)\n      dup1\n      swap2\n      sub\n      swap1\n      return\n        /* \"contracts/Store.sol\":395:461  mapping(uint => mapping(address => uint)) public productsPurchases */\n    tag_8:\n      callvalue\n      dup1\n      iszero\n      tag_44\n      jumpi\n      0x00\n      dup1\n      revert\n    tag_44:\n      pop\n      tag_45\n      0x04\n      dup1\n      calldatasize\n      sub\n      dup2\n      add\n      swap1\n      tag_46\n      swap2\n      swap1\n      tag_47\n      jump\t// in\n    tag_46:\n      tag_48\n      jump\t// in\n    tag_45:\n      mload(0x40)\n      tag_49\n      swap2\n      swap1\n      tag_50\n      jump\t// in\n    tag_49:\n      mload(0x40)\n      dup1\n      swap2\n      sub\n      swap1\n      return\n        /* \"contracts/Store.sol\":1126:1273  function updateProductQuantity(uint id, uint quantity) public onlyOwner onlyExistingProduct(id) {\r... */\n    tag_9:\n      callvalue\n      dup1\n      iszero\n      tag_51\n      jumpi\n      0x00\n      dup1\n      revert\n    tag_51:\n      pop\n      tag_52\n      0x04\n      dup1\n      calldatasize\n      sub\n      dup2\n      add\n      swap1\n      tag_53\n      swap2\n      swap1\n      tag_25\n      jump\t// in\n    tag_53:\n      tag_54\n      jump\t// in\n    tag_52:\n      stop\n        /* \"contracts/Store.sol\":517:980  function addNewProduct(string calldata name, uint quantity, uint price) public onlyOwner {\r... */\n    tag_15:\n        /* \"contracts/Ownable.sol\":236:241  owner */\n      0x00\n      dup1\n      sload\n      swap1\n      0x0100\n      exp\n      swap1\n      div\n      0xffffffffffffffffffffffffffffffffffffffff\n      and\n        /* \"contracts/Ownable.sol\":222:241  msg.sender == owner */\n      0xffffffffffffffffffffffffffffffffffffffff\n      and\n        /* \"contracts/Ownable.sol\":222:232  msg.sender */\n      caller\n        /* \"contracts/Ownable.sol\":222:241  msg.sender == owner */\n      0xffffffffffffffffffffffffffffffffffffffff\n      and\n      eq\n        /* \"contracts/Ownable.sol\":214:268  require(msg.sender == owner, \"You are not the owner!\") */\n      tag_56\n      jumpi\n      mload(0x40)\n      0x08c379a000000000000000000000000000000000000000000000000000000000\n      dup2\n      mstore\n      0x04\n      add\n      tag_57\n      swap1\n      tag_58\n      jump\t// in\n    tag_57:\n      mload(0x40)\n      dup1\n      swap2\n      sub\n      swap1\n      revert\n    tag_56:\n        /* \"contracts/Store.sol\":647:648  0 */\n      0x00\n        /* \"contracts/Store.sol\":631:635  name */\n      dup5\n      dup5\n        /* \"contracts/Store.sol\":625:643  bytes(name).length */\n      swap1\n      pop\n        /* \"contracts/Store.sol\":625:648  bytes(name).length != 0 */\n      eq\n      iszero\n        /* \"contracts/Store.sol\":625:661  bytes(name).length != 0 && price > 0 */\n      dup1\n      iszero\n      tag_60\n      jumpi\n      pop\n        /* \"contracts/Store.sol\":660:661  0 */\n      0x00\n        /* \"contracts/Store.sol\":652:657  price */\n      dup2\n        /* \"contracts/Store.sol\":652:661  price > 0 */\n      gt\n        /* \"contracts/Store.sol\":625:661  bytes(name).length != 0 && price > 0 */\n    tag_60:\n        /* \"contracts/Store.sol\":617:662  require(bytes(name).length != 0 && price > 0) */\n      tag_61\n      jumpi\n      0x00\n      dup1\n      revert\n    tag_61:\n        /* \"contracts/Store.sol\":682:704  availableProductsNames */\n      0x02\n        /* \"contracts/Store.sol\":705:709  name */\n      dup5\n      dup5\n        /* \"contracts/Store.sol\":682:710  availableProductsNames[name] */\n      mload(0x40)\n      tag_62\n      swap3\n      swap2\n      swap1\n      tag_63\n      jump\t// in\n    tag_62:\n      swap1\n      dup2\n      mstore\n      0x20\n      add\n      mload(0x40)\n      dup1\n      swap2\n      sub\n      swap1\n      keccak256\n      0x00\n      swap1\n      sload\n      swap1\n      0x0100\n      exp\n      swap1\n      div\n      0xff\n      and\n        /* \"contracts/Store.sol\":681:710  !availableProductsNames[name] */\n      iszero\n        /* \"contracts/Store.sol\":673:751  require(!availableProductsNames[name], \"The product is already in the store!\") */\n      tag_64\n      jumpi\n      mload(0x40)\n      0x08c379a000000000000000000000000000000000000000000000000000000000\n      dup2\n      mstore\n      0x04\n      add\n      tag_65\n      swap1\n      tag_66\n      jump\t// in\n    tag_65:\n      mload(0x40)\n      dup1\n      swap2\n      sub\n      swap1\n      revert\n    tag_64:\n        /* \"contracts/Store.sol\":772:786  uint productId */\n      0x00\n        /* \"contracts/Store.sol\":789:797  products */\n      0x01\n        /* \"contracts/Store.sol\":789:804  products.length */\n      dup1\n      sload\n      swap1\n      pop\n        /* \"contracts/Store.sol\":772:804  uint productId = products.length */\n      swap1\n      pop\n        /* \"contracts/Store.sol\":848:852  true */\n      0x01\n        /* \"contracts/Store.sol\":817:839  availableProductsNames */\n      0x02\n        /* \"contracts/Store.sol\":840:844  name */\n      dup7\n      dup7\n        /* \"contracts/Store.sol\":817:845  availableProductsNames[name] */\n      mload(0x40)\n      tag_67\n      swap3\n      swap2\n      swap1\n      tag_63\n      jump\t// in\n    tag_67:\n      swap1\n      dup2\n      mstore\n      0x20\n      add\n      mload(0x40)\n      dup1\n      swap2\n      sub\n      swap1\n      keccak256\n      0x00\n        /* \"contracts/Store.sol\":817:852  availableProductsNames[name] = true */\n      0x0100\n      exp\n      dup2\n      sload\n      dup2\n      0xff\n      mul\n      not\n      and\n      swap1\n      dup4\n      iszero\n      iszero\n      mul\n      or\n      swap1\n      sstore\n      pop\n        /* \"contracts/Store.sol\":863:871  products */\n      0x01\n        /* \"contracts/Store.sol\":877:918  Product(productId, name, quantity, price) */\n      mload(0x40)\n      dup1\n      0x80\n      add\n      0x40\n      mstore\n      dup1\n        /* \"contracts/Store.sol\":885:894  productId */\n      dup4\n        /* \"contracts/Store.sol\":877:918  Product(productId, name, quantity, price) */\n      dup2\n      mstore\n      0x20\n      add\n        /* \"contracts/Store.sol\":896:900  name */\n      dup8\n      dup8\n        /* \"contracts/Store.sol\":877:918  Product(productId, name, quantity, price) */\n      dup1\n      dup1\n      0x1f\n      add\n      0x20\n      dup1\n      swap2\n      div\n      mul\n      0x20\n      add\n      mload(0x40)\n      swap1\n      dup2\n      add\n      0x40\n      mstore\n      dup1\n      swap4\n      swap3\n      swap2\n      swap1\n      dup2\n      dup2\n      mstore\n      0x20\n      add\n      dup4\n      dup4\n      dup1\n      dup3\n      dup5\n      calldatacopy\n      0x00\n      dup2\n      dup5\n      add\n      mstore\n      not(0x1f)\n      0x1f\n      dup3\n      add\n      and\n      swap1\n      pop\n      dup1\n      dup4\n      add\n      swap3\n      pop\n      pop\n      pop\n      pop\n      pop\n      pop\n      pop\n      dup2\n      mstore\n      0x20\n      add\n        /* \"contracts/Store.sol\":902:910  quantity */\n      dup6\n        /* \"contracts/Store.sol\":877:918  Product(productId, name, quantity, price) */\n      dup2\n      mstore\n      0x20\n      add\n        /* \"contracts/Store.sol\":912:917  price */\n      dup5\n        /* \"contracts/Store.sol\":877:918  Product(productId, name, quantity, price) */\n      dup2\n      mstore\n      pop\n        /* \"contracts/Store.sol\":863:919  products.push(Product(productId, name, quantity, price)) */\n      swap1\n      dup1\n      0x01\n      dup2\n      sload\n      add\n      dup1\n      dup3\n      sstore\n      dup1\n      swap2\n      pop\n      pop\n      0x01\n      swap1\n      sub\n      swap1\n      0x00\n      mstore\n      keccak256(0x00, 0x20)\n      swap1\n      0x04\n      mul\n      add\n      0x00\n      swap1\n      swap2\n      swap1\n      swap2\n      swap1\n      swap2\n      pop\n      0x00\n      dup3\n      add\n      mload\n      dup2\n      0x00\n      add\n      sstore\n      0x20\n      dup3\n      add\n      mload\n      dup2\n      0x01\n      add\n      swap1\n      dup1\n      mload\n      swap1\n      0x20\n      add\n      swap1\n      tag_69\n      swap3\n      swap2\n      swap1\n      tag_70\n      jump\t// in\n    tag_69:\n      pop\n      0x40\n      dup3\n      add\n      mload\n      dup2\n      0x02\n      add\n      sstore\n      0x60\n      dup3\n      add\n      mload\n      dup2\n      0x03\n      add\n      sstore\n      pop\n      pop\n        /* \"contracts/Store.sol\":937:972  ProductAdded(name, quantity, price) */\n      0xaf15189af1861da85d7d959da20a528553cf2d64fc75f6fc7f6894097e9e9cf1\n        /* \"contracts/Store.sol\":950:954  name */\n      dup6\n      dup6\n        /* \"contracts/Store.sol\":956:964  quantity */\n      dup6\n        /* \"contracts/Store.sol\":966:971  price */\n      dup6\n        /* \"contracts/Store.sol\":937:972  ProductAdded(name, quantity, price) */\n      mload(0x40)\n      tag_71\n      swap5\n      swap4\n      swap3\n      swap2\n      swap1\n      tag_72\n      jump\t// in\n    tag_71:\n      mload(0x40)\n      dup1\n      swap2\n      sub\n      swap1\n      log1\n        /* \"contracts/Store.sol\":606:980  {\r... */\n      pop\n        /* \"contracts/Store.sol\":517:980  function addNewProduct(string calldata name, uint quantity, uint price) public onlyOwner {\r... */\n      pop\n      pop\n      pop\n      pop\n      jump\t// out\n        /* \"contracts/Store.sol\":274:327  mapping(string => bool) public availableProductsNames */\n    tag_20:\n      0x02\n      dup2\n      dup1\n      mload\n      0x20\n      dup2\n      add\n      dup3\n      add\n      dup1\n      mload\n      dup5\n      dup3\n      mstore\n      0x20\n      dup4\n      add\n      0x20\n      dup6\n      add\n      keccak256\n      dup2\n      dup4\n      mstore\n      dup1\n      swap6\n      pop\n      pop\n      pop\n      pop\n      pop\n      pop\n      0x00\n      swap2\n      pop\n      sload\n      swap1\n      0x0100\n      exp\n      swap1\n      div\n      0xff\n      and\n      dup2\n      jump\t// out\n        /* \"contracts/Store.sol\":1384:2487  function buyProduct(uint id, uint quantity) payable public onlyExistingProduct(id) {\r... */\n    tag_26:\n        /* \"contracts/Store.sol\":1463:1465  id */\n      dup2\n        /* \"contracts/Store.sol\":1050:1058  products */\n      0x01\n        /* \"contracts/Store.sol\":1050:1065  products.length */\n      dup1\n      sload\n      swap1\n      pop\n        /* \"contracts/Store.sol\":1045:1047  id */\n      dup2\n        /* \"contracts/Store.sol\":1045:1065  id < products.length */\n      lt\n        /* \"contracts/Store.sol\":1037:1098  require(id < products.length, \"The product is not existing!\") */\n      tag_74\n      jumpi\n      mload(0x40)\n      0x08c379a000000000000000000000000000000000000000000000000000000000\n      dup2\n      mstore\n      0x04\n      add\n      tag_75\n      swap1\n      tag_76\n      jump\t// in\n    tag_75:\n      mload(0x40)\n      dup1\n      swap2\n      sub\n      swap1\n      revert\n    tag_74:\n        /* \"contracts/Store.sol\":1497:1498  0 */\n      0x00\n        /* \"contracts/Store.sol\":1486:1494  quantity */\n      dup3\n        /* \"contracts/Store.sol\":1486:1498  quantity > 0 */\n      gt\n        /* \"contracts/Store.sol\":1478:1520  require(quantity > 0, \"Invalid quantity!\") */\n      tag_78\n      jumpi\n      mload(0x40)\n      0x08c379a000000000000000000000000000000000000000000000000000000000\n      dup2\n      mstore\n      0x04\n      add\n      tag_79\n      swap1\n      tag_80\n      jump\t// in\n    tag_79:\n      mload(0x40)\n      dup1\n      swap2\n      sub\n      swap1\n      revert\n    tag_78:\n        /* \"contracts/Store.sol\":1533:1554  address clientAddress */\n      0x00\n        /* \"contracts/Store.sol\":1557:1567  msg.sender */\n      caller\n        /* \"contracts/Store.sol\":1533:1567  address clientAddress = msg.sender */\n      swap1\n      pop\n        /* \"contracts/Store.sol\":1697:1698  0 */\n      0x00\n        /* \"contracts/Store.sol\":1657:1674  productsPurchases */\n      0x03\n        /* \"contracts/Store.sol\":1657:1678  productsPurchases[id] */\n      0x00\n        /* \"contracts/Store.sol\":1675:1677  id */\n      dup7\n        /* \"contracts/Store.sol\":1657:1678  productsPurchases[id] */\n      dup2\n      mstore\n      0x20\n      add\n      swap1\n      dup2\n      mstore\n      0x20\n      add\n      0x00\n      keccak256\n        /* \"contracts/Store.sol\":1657:1693  productsPurchases[id][clientAddress] */\n      0x00\n        /* \"contracts/Store.sol\":1679:1692  clientAddress */\n      dup4\n        /* \"contracts/Store.sol\":1657:1693  productsPurchases[id][clientAddress] */\n      0xffffffffffffffffffffffffffffffffffffffff\n      and\n      0xffffffffffffffffffffffffffffffffffffffff\n      and\n      dup2\n      mstore\n      0x20\n      add\n      swap1\n      dup2\n      mstore\n      0x20\n      add\n      0x00\n      keccak256\n      sload\n        /* \"contracts/Store.sol\":1657:1698  productsPurchases[id][clientAddress] == 0 */\n      eq\n        /* \"contracts/Store.sol\":1649:1740  require(productsPurchases[id][clientAddress] == 0, \"You have already bought this product!\") */\n      tag_81\n      jumpi\n      mload(0x40)\n      0x08c379a000000000000000000000000000000000000000000000000000000000\n      dup2\n      mstore\n      0x04\n      add\n      tag_82\n      swap1\n      tag_83\n      jump\t// in\n    tag_82:\n      mload(0x40)\n      dup1\n      swap2\n      sub\n      swap1\n      revert\n    tag_81:\n        /* \"contracts/Store.sol\":1753:1783  Product storage currentProduct */\n      0x00\n        /* \"contracts/Store.sol\":1786:1794  products */\n      0x01\n        /* \"contracts/Store.sol\":1795:1797  id */\n      dup6\n        /* \"contracts/Store.sol\":1786:1798  products[id] */\n      dup2\n      sload\n      dup2\n      lt\n      tag_84\n      jumpi\n      tag_85\n      tag_86\n      jump\t// in\n    tag_85:\n    tag_84:\n      swap1\n      0x00\n      mstore\n      keccak256(0x00, 0x20)\n      swap1\n      0x04\n      mul\n      add\n        /* \"contracts/Store.sol\":1753:1798  Product storage currentProduct = products[id] */\n      swap1\n      pop\n        /* \"contracts/Store.sol\":1908:1916  quantity */\n      dup4\n        /* \"contracts/Store.sol\":1881:1895  currentProduct */\n      dup2\n        /* \"contracts/Store.sol\":1881:1904  currentProduct.quantity */\n      0x02\n      add\n      sload\n        /* \"contracts/Store.sol\":1881:1916  currentProduct.quantity >= quantity */\n      lt\n      iszero\n        /* \"contracts/Store.sol\":1873:1966  require(currentProduct.quantity >= quantity, \"The product quantity is less than you wanted!\") */\n      tag_88\n      jumpi\n      mload(0x40)\n      0x08c379a000000000000000000000000000000000000000000000000000000000\n      dup2\n      mstore\n      0x04\n      add\n      tag_89\n      swap1\n      tag_90\n      jump\t// in\n    tag_89:\n      mload(0x40)\n      dup1\n      swap2\n      sub\n      swap1\n      revert\n    tag_88:\n        /* \"contracts/Store.sol\":1979:1997  uint256 totalPrice */\n      0x00\n        /* \"contracts/Store.sol\":2029:2037  quantity */\n      dup5\n        /* \"contracts/Store.sol\":2008:2016  products */\n      0x01\n        /* \"contracts/Store.sol\":2017:2019  id */\n      dup8\n        /* \"contracts/Store.sol\":2008:2020  products[id] */\n      dup2\n      sload\n      dup2\n      lt\n      tag_91\n      jumpi\n      tag_92\n      tag_86\n      jump\t// in\n    tag_92:\n    tag_91:\n      swap1\n      0x00\n      mstore\n      keccak256(0x00, 0x20)\n      swap1\n      0x04\n      mul\n      add\n        /* \"contracts/Store.sol\":2008:2026  products[id].price */\n      0x03\n      add\n      sload\n        /* \"contracts/Store.sol\":2008:2037  products[id].price * quantity */\n      tag_94\n      swap2\n      swap1\n      tag_95\n      jump\t// in\n    tag_94:\n        /* \"contracts/Store.sol\":1979:2038  uint256 totalPrice = uint256(products[id].price * quantity) */\n      swap1\n      pop\n        /* \"contracts/Store.sol\":2070:2080  totalPrice */\n      dup1\n        /* \"contracts/Store.sol\":2057:2066  msg.value */\n      callvalue\n        /* \"contracts/Store.sol\":2057:2080  msg.value == totalPrice */\n      eq\n        /* \"contracts/Store.sol\":2049:2164  require(msg.value == totalPrice, \"Please send the exact price of the product multiplied by the quantity you want!\") */\n      tag_96\n      jumpi\n      mload(0x40)\n      0x08c379a000000000000000000000000000000000000000000000000000000000\n      dup2\n      mstore\n      0x04\n      add\n      tag_97\n      swap1\n      tag_98\n      jump\t// in\n    tag_97:\n      mload(0x40)\n      dup1\n      swap2\n      sub\n      swap1\n      revert\n    tag_96:\n        /* \"contracts/Store.sol\":2242:2247  owner */\n      0x00\n      dup1\n      sload\n      swap1\n      0x0100\n      exp\n      swap1\n      div\n      0xffffffffffffffffffffffffffffffffffffffff\n      and\n        /* \"contracts/Store.sol\":2234:2257  payable(owner).transfer */\n      0xffffffffffffffffffffffffffffffffffffffff\n      and\n        /* \"contracts/Store.sol\":2234:2269  payable(owner).transfer(totalPrice) */\n      0x08fc\n        /* \"contracts/Store.sol\":2258:2268  totalPrice */\n      dup3\n        /* \"contracts/Store.sol\":2234:2269  payable(owner).transfer(totalPrice) */\n      swap1\n      dup2\n      iszero\n      mul\n      swap1\n      mload(0x40)\n      0x00\n      mload(0x40)\n      dup1\n      dup4\n      sub\n      dup2\n      dup6\n      dup9\n      dup9\n      call\n      swap4\n      pop\n      pop\n      pop\n      pop\n      iszero\n      dup1\n      iszero\n      tag_100\n      jumpi\n      returndatasize\n      0x00\n      dup1\n      returndatacopy\n      revert(0x00, returndatasize)\n    tag_100:\n      pop\n        /* \"contracts/Store.sol\":2367:2375  quantity */\n      dup5\n        /* \"contracts/Store.sol\":2328:2345  productsPurchases */\n      0x03\n        /* \"contracts/Store.sol\":2328:2349  productsPurchases[id] */\n      0x00\n        /* \"contracts/Store.sol\":2346:2348  id */\n      dup9\n        /* \"contracts/Store.sol\":2328:2349  productsPurchases[id] */\n      dup2\n      mstore\n      0x20\n      add\n      swap1\n      dup2\n      mstore\n      0x20\n      add\n      0x00\n      keccak256\n        /* \"contracts/Store.sol\":2328:2364  productsPurchases[id][clientAddress] */\n      0x00\n        /* \"contracts/Store.sol\":2350:2363  clientAddress */\n      dup6\n        /* \"contracts/Store.sol\":2328:2364  productsPurchases[id][clientAddress] */\n      0xffffffffffffffffffffffffffffffffffffffff\n      and\n      0xffffffffffffffffffffffffffffffffffffffff\n      and\n      dup2\n      mstore\n      0x20\n      add\n      swap1\n      dup2\n      mstore\n      0x20\n      add\n      0x00\n      keccak256\n        /* \"contracts/Store.sol\":2328:2375  productsPurchases[id][clientAddress] = quantity */\n      dup2\n      swap1\n      sstore\n      pop\n        /* \"contracts/Store.sol\":2471:2479  quantity */\n      dup5\n        /* \"contracts/Store.sol\":2444:2458  currentProduct */\n      dup3\n        /* \"contracts/Store.sol\":2444:2467  currentProduct.quantity */\n      0x02\n      add\n      0x00\n        /* \"contracts/Store.sol\":2444:2479  currentProduct.quantity -= quantity */\n      dup3\n      dup3\n      sload\n      tag_101\n      swap2\n      swap1\n      tag_102\n      jump\t// in\n    tag_101:\n      swap3\n      pop\n      pop\n      dup2\n      swap1\n      sstore\n      pop\n        /* \"contracts/Store.sol\":1467:2487  {\r... */\n      pop\n      pop\n      pop\n        /* \"contracts/Store.sol\":1384:2487  function buyProduct(uint id, uint quantity) payable public onlyExistingProduct(id) {\r... */\n      pop\n      pop\n      pop\n      jump\t// out\n        /* \"contracts/Store.sol\":242:267  Product[] public products */\n    tag_31:\n      0x01\n      dup2\n      dup2\n      sload\n      dup2\n      lt\n      tag_103\n      jumpi\n      0x00\n      dup1\n      revert\n    tag_103:\n      swap1\n      0x00\n      mstore\n      keccak256(0x00, 0x20)\n      swap1\n      0x04\n      mul\n      add\n      0x00\n      swap2\n      pop\n      swap1\n      pop\n      dup1\n      0x00\n      add\n      sload\n      swap1\n      dup1\n      0x01\n      add\n      dup1\n      sload\n      tag_105\n      swap1\n      tag_106\n      jump\t// in\n    tag_105:\n      dup1\n      0x1f\n      add\n      0x20\n      dup1\n      swap2\n      div\n      mul\n      0x20\n      add\n      mload(0x40)\n      swap1\n      dup2\n      add\n      0x40\n      mstore\n      dup1\n      swap3\n      swap2\n      swap1\n      dup2\n      dup2\n      mstore\n      0x20\n      add\n      dup3\n      dup1\n      sload\n      tag_107\n      swap1\n      tag_106\n      jump\t// in\n    tag_107:\n      dup1\n      iszero\n      tag_108\n      jumpi\n      dup1\n      0x1f\n      lt\n      tag_109\n      jumpi\n      0x0100\n      dup1\n      dup4\n      sload\n      div\n      mul\n      dup4\n      mstore\n      swap2\n      0x20\n      add\n      swap2\n      jump(tag_108)\n    tag_109:\n      dup3\n      add\n      swap2\n      swap1\n      0x00\n      mstore\n      keccak256(0x00, 0x20)\n      swap1\n    tag_110:\n      dup2\n      sload\n      dup2\n      mstore\n      swap1\n      0x01\n      add\n      swap1\n      0x20\n      add\n      dup1\n      dup4\n      gt\n      tag_110\n      jumpi\n      dup3\n      swap1\n      sub\n      0x1f\n      and\n      dup3\n      add\n      swap2\n    tag_108:\n      pop\n      pop\n      pop\n      pop\n      pop\n      swap1\n      dup1\n      0x02\n      add\n      sload\n      swap1\n      dup1\n      0x03\n      add\n      sload\n      swap1\n      pop\n      dup5\n      jump\t// out\n        /* \"contracts/Ownable.sol\":90:110  address public owner */\n    tag_36:\n      0x00\n      dup1\n      sload\n      swap1\n      0x0100\n      exp\n      swap1\n      div\n      0xffffffffffffffffffffffffffffffffffffffff\n      and\n      dup2\n      jump\t// out\n        /* \"contracts/Store.sol\":1281:1376  function getProducts() public view returns(Product[] memory) {\r... */\n    tag_41:\n        /* \"contracts/Store.sol\":1324:1340  Product[] memory */\n      0x60\n        /* \"contracts/Store.sol\":1360:1368  products */\n      0x01\n        /* \"contracts/Store.sol\":1353:1368  return products */\n      dup1\n      sload\n      dup1\n      0x20\n      mul\n      0x20\n      add\n      mload(0x40)\n      swap1\n      dup2\n      add\n      0x40\n      mstore\n      dup1\n      swap3\n      swap2\n      swap1\n      dup2\n      dup2\n      mstore\n      0x20\n      add\n      0x00\n      swap1\n    tag_112:\n      dup3\n      dup3\n      lt\n      iszero\n      tag_113\n      jumpi\n      dup4\n      dup3\n      swap1\n      0x00\n      mstore\n      keccak256(0x00, 0x20)\n      swap1\n      0x04\n      mul\n      add\n      mload(0x40)\n      dup1\n      0x80\n      add\n      0x40\n      mstore\n      swap1\n      dup2\n      0x00\n      dup3\n      add\n      sload\n      dup2\n      mstore\n      0x20\n      add\n      0x01\n      dup3\n      add\n      dup1\n      sload\n      tag_115\n      swap1\n      tag_106\n      jump\t// in\n    tag_115:\n      dup1\n      0x1f\n      add\n      0x20\n      dup1\n      swap2\n      div\n      mul\n      0x20\n      add\n      mload(0x40)\n      swap1\n      dup2\n      add\n      0x40\n      mstore\n      dup1\n      swap3\n      swap2\n      swap1\n      dup2\n      dup2\n      mstore\n      0x20\n      add\n      dup3\n      dup1\n      sload\n      tag_116\n      swap1\n      tag_106\n      jump\t// in\n    tag_116:\n      dup1\n      iszero\n      tag_117\n      jumpi\n      dup1\n      0x1f\n      lt\n      tag_118\n      jumpi\n      0x0100\n      dup1\n      dup4\n      sload\n      div\n      mul\n      dup4\n      mstore\n      swap2\n      0x20\n      add\n      swap2\n      jump(tag_117)\n    tag_118:\n      dup3\n      add\n      swap2\n      swap1\n      0x00\n      mstore\n      keccak256(0x00, 0x20)\n      swap1\n    tag_119:\n      dup2\n      sload\n      dup2\n      mstore\n      swap1\n      0x01\n      add\n      swap1\n      0x20\n      add\n      dup1\n      dup4\n      gt\n      tag_119\n      jumpi\n      dup3\n      swap1\n      sub\n      0x1f\n      and\n      dup3\n      add\n      swap2\n    tag_117:\n      pop\n      pop\n      pop\n      pop\n      pop\n      dup2\n      mstore\n      0x20\n      add\n      0x02\n      dup3\n      add\n      sload\n      dup2\n      mstore\n      0x20\n      add\n      0x03\n      dup3\n      add\n      sload\n      dup2\n      mstore\n      pop\n      pop\n      dup2\n      mstore\n      0x20\n      add\n      swap1\n      0x01\n      add\n      swap1\n      jump(tag_112)\n    tag_113:\n      pop\n      pop\n      pop\n      pop\n      swap1\n      pop\n        /* \"contracts/Store.sol\":1281:1376  function getProducts() public view returns(Product[] memory) {\r... */\n      swap1\n      jump\t// out\n        /* \"contracts/Store.sol\":395:461  mapping(uint => mapping(address => uint)) public productsPurchases */\n    tag_48:\n      mstore(0x20, 0x03)\n      dup2\n      0x00\n      mstore\n      mstore(0x20, keccak256(0x00, 0x40))\n      dup1\n      0x00\n      mstore\n      keccak256(0x00, 0x40)\n      0x00\n      swap2\n      pop\n      swap2\n      pop\n      pop\n      sload\n      dup2\n      jump\t// out\n        /* \"contracts/Store.sol\":1126:1273  function updateProductQuantity(uint id, uint quantity) public onlyOwner onlyExistingProduct(id) {\r... */\n    tag_54:\n        /* \"contracts/Ownable.sol\":236:241  owner */\n      0x00\n      dup1\n      sload\n      swap1\n      0x0100\n      exp\n      swap1\n      div\n      0xffffffffffffffffffffffffffffffffffffffff\n      and\n        /* \"contracts/Ownable.sol\":222:241  msg.sender == owner */\n      0xffffffffffffffffffffffffffffffffffffffff\n      and\n        /* \"contracts/Ownable.sol\":222:232  msg.sender */\n      caller\n        /* \"contracts/Ownable.sol\":222:241  msg.sender == owner */\n      0xffffffffffffffffffffffffffffffffffffffff\n      and\n      eq\n        /* \"contracts/Ownable.sol\":214:268  require(msg.sender == owner, \"You are not the owner!\") */\n      tag_121\n      jumpi\n      mload(0x40)\n      0x08c379a000000000000000000000000000000000000000000000000000000000\n      dup2\n      mstore\n      0x04\n      add\n      tag_122\n      swap1\n      tag_58\n      jump\t// in\n    tag_122:\n      mload(0x40)\n      dup1\n      swap2\n      sub\n      swap1\n      revert\n    tag_121:\n        /* \"contracts/Store.sol\":1218:1220  id */\n      dup2\n        /* \"contracts/Store.sol\":1050:1058  products */\n      0x01\n        /* \"contracts/Store.sol\":1050:1065  products.length */\n      dup1\n      sload\n      swap1\n      pop\n        /* \"contracts/Store.sol\":1045:1047  id */\n      dup2\n        /* \"contracts/Store.sol\":1045:1065  id < products.length */\n      lt\n        /* \"contracts/Store.sol\":1037:1098  require(id < products.length, \"The product is not existing!\") */\n      tag_124\n      jumpi\n      mload(0x40)\n      0x08c379a000000000000000000000000000000000000000000000000000000000\n      dup2\n      mstore\n      0x04\n      add\n      tag_125\n      swap1\n      tag_76\n      jump\t// in\n    tag_125:\n      mload(0x40)\n      dup1\n      swap2\n      sub\n      swap1\n      revert\n    tag_124:\n        /* \"contracts/Store.sol\":1257:1265  quantity */\n      dup2\n        /* \"contracts/Store.sol\":1233:1241  products */\n      0x01\n        /* \"contracts/Store.sol\":1242:1244  id */\n      dup5\n        /* \"contracts/Store.sol\":1233:1245  products[id] */\n      dup2\n      sload\n      dup2\n      lt\n      tag_127\n      jumpi\n      tag_128\n      tag_86\n      jump\t// in\n    tag_128:\n    tag_127:\n      swap1\n      0x00\n      mstore\n      keccak256(0x00, 0x20)\n      swap1\n      0x04\n      mul\n      add\n        /* \"contracts/Store.sol\":1233:1254  products[id].quantity */\n      0x02\n      add\n        /* \"contracts/Store.sol\":1233:1265  products[id].quantity = quantity */\n      dup2\n      swap1\n      sstore\n      pop\n        /* \"contracts/Ownable.sol\":279:280  _ */\n      pop\n        /* \"contracts/Store.sol\":1126:1273  function updateProductQuantity(uint id, uint quantity) public onlyOwner onlyExistingProduct(id) {\r... */\n      pop\n      pop\n      jump\t// out\n    tag_70:\n      dup3\n      dup1\n      sload\n      tag_130\n      swap1\n      tag_106\n      jump\t// in\n    tag_130:\n      swap1\n      0x00\n      mstore\n      keccak256(0x00, 0x20)\n      swap1\n      0x1f\n      add\n      0x20\n      swap1\n      div\n      dup2\n      add\n      swap3\n      dup3\n      tag_132\n      jumpi\n      0x00\n      dup6\n      sstore\n      jump(tag_131)\n    tag_132:\n      dup3\n      0x1f\n      lt\n      tag_133\n      jumpi\n      dup1\n      mload\n      not(0xff)\n      and\n      dup4\n      dup1\n      add\n      or\n      dup6\n      sstore\n      jump(tag_131)\n    tag_133:\n      dup3\n      dup1\n      add\n      0x01\n      add\n      dup6\n      sstore\n      dup3\n      iszero\n      tag_131\n      jumpi\n      swap2\n      dup3\n      add\n    tag_134:\n      dup3\n      dup2\n      gt\n      iszero\n      tag_135\n      jumpi\n      dup3\n      mload\n      dup3\n      sstore\n      swap2\n      0x20\n      add\n      swap2\n      swap1\n      0x01\n      add\n      swap1\n      jump(tag_134)\n    tag_135:\n    tag_131:\n      pop\n      swap1\n      pop\n      tag_136\n      swap2\n      swap1\n      tag_137\n      jump\t// in\n    tag_136:\n      pop\n      swap1\n      jump\t// out\n    tag_137:\n    tag_138:\n      dup1\n      dup3\n      gt\n      iszero\n      tag_139\n      jumpi\n      0x00\n      dup2\n      0x00\n      swap1\n      sstore\n      pop\n      0x01\n      add\n      jump(tag_138)\n    tag_139:\n      pop\n      swap1\n      jump\t// out\n        /* \"#utility.yul\":7:419   */\n    tag_141:\n        /* \"#utility.yul\":85:90   */\n      0x00\n        /* \"#utility.yul\":110:176   */\n      tag_143\n        /* \"#utility.yul\":126:175   */\n      tag_144\n        /* \"#utility.yul\":168:174   */\n      dup5\n        /* \"#utility.yul\":126:175   */\n      tag_145\n      jump\t// in\n    tag_144:\n        /* \"#utility.yul\":110:176   */\n      tag_146\n      jump\t// in\n    tag_143:\n        /* \"#utility.yul\":101:176   */\n      swap1\n      pop\n        /* \"#utility.yul\":199:205   */\n      dup3\n        /* \"#utility.yul\":192:197   */\n      dup2\n        /* \"#utility.yul\":185:206   */\n      mstore\n        /* \"#utility.yul\":237:241   */\n      0x20\n        /* \"#utility.yul\":230:235   */\n      dup2\n        /* \"#utility.yul\":226:242   */\n      add\n        /* \"#utility.yul\":275:278   */\n      dup5\n        /* \"#utility.yul\":266:272   */\n      dup5\n        /* \"#utility.yul\":261:264   */\n      dup5\n        /* \"#utility.yul\":257:273   */\n      add\n        /* \"#utility.yul\":254:279   */\n      gt\n        /* \"#utility.yul\":251:363   */\n      iszero\n      tag_147\n      jumpi\n        /* \"#utility.yul\":282:361   */\n      tag_148\n      tag_149\n      jump\t// in\n    tag_148:\n        /* \"#utility.yul\":251:363   */\n    tag_147:\n        /* \"#utility.yul\":372:413   */\n      tag_150\n        /* \"#utility.yul\":406:412   */\n      dup5\n        /* \"#utility.yul\":401:404   */\n      dup3\n        /* \"#utility.yul\":396:399   */\n      dup6\n        /* \"#utility.yul\":372:413   */\n      tag_151\n      jump\t// in\n    tag_150:\n        /* \"#utility.yul\":91:419   */\n      pop\n        /* \"#utility.yul\":7:419   */\n      swap4\n      swap3\n      pop\n      pop\n      pop\n      jump\t// out\n        /* \"#utility.yul\":425:564   */\n    tag_152:\n        /* \"#utility.yul\":471:476   */\n      0x00\n        /* \"#utility.yul\":509:515   */\n      dup2\n        /* \"#utility.yul\":496:516   */\n      calldataload\n        /* \"#utility.yul\":487:516   */\n      swap1\n      pop\n        /* \"#utility.yul\":525:558   */\n      tag_154\n        /* \"#utility.yul\":552:557   */\n      dup2\n        /* \"#utility.yul\":525:558   */\n      tag_155\n      jump\t// in\n    tag_154:\n        /* \"#utility.yul\":425:564   */\n      swap3\n      swap2\n      pop\n      pop\n      jump\t// out\n        /* \"#utility.yul\":584:1137   */\n    tag_156:\n        /* \"#utility.yul\":642:650   */\n      0x00\n        /* \"#utility.yul\":652:658   */\n      dup1\n        /* \"#utility.yul\":702:705   */\n      dup4\n        /* \"#utility.yul\":695:699   */\n      0x1f\n        /* \"#utility.yul\":687:693   */\n      dup5\n        /* \"#utility.yul\":683:700   */\n      add\n        /* \"#utility.yul\":679:706   */\n      slt\n        /* \"#utility.yul\":669:791   */\n      tag_158\n      jumpi\n        /* \"#utility.yul\":710:789   */\n      tag_159\n      tag_160\n      jump\t// in\n    tag_159:\n        /* \"#utility.yul\":669:791   */\n    tag_158:\n        /* \"#utility.yul\":823:829   */\n      dup3\n        /* \"#utility.yul\":810:830   */\n      calldataload\n        /* \"#utility.yul\":800:830   */\n      swap1\n      pop\n        /* \"#utility.yul\":853:871   */\n      0xffffffffffffffff\n        /* \"#utility.yul\":845:851   */\n      dup2\n        /* \"#utility.yul\":842:872   */\n      gt\n        /* \"#utility.yul\":839:956   */\n      iszero\n      tag_161\n      jumpi\n        /* \"#utility.yul\":875:954   */\n      tag_162\n      tag_163\n      jump\t// in\n    tag_162:\n        /* \"#utility.yul\":839:956   */\n    tag_161:\n        /* \"#utility.yul\":989:993   */\n      0x20\n        /* \"#utility.yul\":981:987   */\n      dup4\n        /* \"#utility.yul\":977:994   */\n      add\n        /* \"#utility.yul\":965:994   */\n      swap2\n      pop\n        /* \"#utility.yul\":1043:1046   */\n      dup4\n        /* \"#utility.yul\":1035:1039   */\n      0x01\n        /* \"#utility.yul\":1027:1033   */\n      dup3\n        /* \"#utility.yul\":1023:1040   */\n      mul\n        /* \"#utility.yul\":1013:1021   */\n      dup4\n        /* \"#utility.yul\":1009:1041   */\n      add\n        /* \"#utility.yul\":1006:1047   */\n      gt\n        /* \"#utility.yul\":1003:1131   */\n      iszero\n      tag_164\n      jumpi\n        /* \"#utility.yul\":1050:1129   */\n      tag_165\n      tag_166\n      jump\t// in\n    tag_165:\n        /* \"#utility.yul\":1003:1131   */\n    tag_164:\n        /* \"#utility.yul\":584:1137   */\n      swap3\n      pop\n      swap3\n      swap1\n      pop\n      jump\t// out\n        /* \"#utility.yul\":1157:1497   */\n    tag_167:\n        /* \"#utility.yul\":1213:1218   */\n      0x00\n        /* \"#utility.yul\":1262:1265   */\n      dup3\n        /* \"#utility.yul\":1255:1259   */\n      0x1f\n        /* \"#utility.yul\":1247:1253   */\n      dup4\n        /* \"#utility.yul\":1243:1260   */\n      add\n        /* \"#utility.yul\":1239:1266   */\n      slt\n        /* \"#utility.yul\":1229:1351   */\n      tag_169\n      jumpi\n        /* \"#utility.yul\":1270:1349   */\n      tag_170\n      tag_160\n      jump\t// in\n    tag_170:\n        /* \"#utility.yul\":1229:1351   */\n    tag_169:\n        /* \"#utility.yul\":1387:1393   */\n      dup2\n        /* \"#utility.yul\":1374:1394   */\n      calldataload\n        /* \"#utility.yul\":1412:1491   */\n      tag_171\n        /* \"#utility.yul\":1487:1490   */\n      dup5\n        /* \"#utility.yul\":1479:1485   */\n      dup3\n        /* \"#utility.yul\":1472:1476   */\n      0x20\n        /* \"#utility.yul\":1464:1470   */\n      dup7\n        /* \"#utility.yul\":1460:1477   */\n      add\n        /* \"#utility.yul\":1412:1491   */\n      tag_141\n      jump\t// in\n    tag_171:\n        /* \"#utility.yul\":1403:1491   */\n      swap2\n      pop\n        /* \"#utility.yul\":1219:1497   */\n      pop\n        /* \"#utility.yul\":1157:1497   */\n      swap3\n      swap2\n      pop\n      pop\n      jump\t// out\n        /* \"#utility.yul\":1503:1642   */\n    tag_172:\n        /* \"#utility.yul\":1549:1554   */\n      0x00\n        /* \"#utility.yul\":1587:1593   */\n      dup2\n        /* \"#utility.yul\":1574:1594   */\n      calldataload\n        /* \"#utility.yul\":1565:1594   */\n      swap1\n      pop\n        /* \"#utility.yul\":1603:1636   */\n      tag_174\n        /* \"#utility.yul\":1630:1635   */\n      dup2\n        /* \"#utility.yul\":1603:1636   */\n      tag_175\n      jump\t// in\n    tag_174:\n        /* \"#utility.yul\":1503:1642   */\n      swap3\n      swap2\n      pop\n      pop\n      jump\t// out\n        /* \"#utility.yul\":1648:2467   */\n    tag_14:\n        /* \"#utility.yul\":1737:1743   */\n      0x00\n        /* \"#utility.yul\":1745:1751   */\n      dup1\n        /* \"#utility.yul\":1753:1759   */\n      0x00\n        /* \"#utility.yul\":1761:1767   */\n      dup1\n        /* \"#utility.yul\":1810:1812   */\n      0x60\n        /* \"#utility.yul\":1798:1807   */\n      dup6\n        /* \"#utility.yul\":1789:1796   */\n      dup8\n        /* \"#utility.yul\":1785:1808   */\n      sub\n        /* \"#utility.yul\":1781:1813   */\n      slt\n        /* \"#utility.yul\":1778:1897   */\n      iszero\n      tag_177\n      jumpi\n        /* \"#utility.yul\":1816:1895   */\n      tag_178\n      tag_179\n      jump\t// in\n    tag_178:\n        /* \"#utility.yul\":1778:1897   */\n    tag_177:\n        /* \"#utility.yul\":1964:1965   */\n      0x00\n        /* \"#utility.yul\":1953:1962   */\n      dup6\n        /* \"#utility.yul\":1949:1966   */\n      add\n        /* \"#utility.yul\":1936:1967   */\n      calldataload\n        /* \"#utility.yul\":1994:2012   */\n      0xffffffffffffffff\n        /* \"#utility.yul\":1986:1992   */\n      dup2\n        /* \"#utility.yul\":1983:2013   */\n      gt\n        /* \"#utility.yul\":1980:2097   */\n      iszero\n      tag_180\n      jumpi\n        /* \"#utility.yul\":2016:2095   */\n      tag_181\n      tag_182\n      jump\t// in\n    tag_181:\n        /* \"#utility.yul\":1980:2097   */\n    tag_180:\n        /* \"#utility.yul\":2129:2194   */\n      tag_183\n        /* \"#utility.yul\":2186:2193   */\n      dup8\n        /* \"#utility.yul\":2177:2183   */\n      dup3\n        /* \"#utility.yul\":2166:2175   */\n      dup9\n        /* \"#utility.yul\":2162:2184   */\n      add\n        /* \"#utility.yul\":2129:2194   */\n      tag_156\n      jump\t// in\n    tag_183:\n        /* \"#utility.yul\":2111:2194   */\n      swap5\n      pop\n      swap5\n      pop\n        /* \"#utility.yul\":1907:2204   */\n      pop\n        /* \"#utility.yul\":2243:2245   */\n      0x20\n        /* \"#utility.yul\":2269:2322   */\n      tag_184\n        /* \"#utility.yul\":2314:2321   */\n      dup8\n        /* \"#utility.yul\":2305:2311   */\n      dup3\n        /* \"#utility.yul\":2294:2303   */\n      dup9\n        /* \"#utility.yul\":2290:2312   */\n      add\n        /* \"#utility.yul\":2269:2322   */\n      tag_172\n      jump\t// in\n    tag_184:\n        /* \"#utility.yul\":2259:2322   */\n      swap3\n      pop\n        /* \"#utility.yul\":2214:2332   */\n      pop\n        /* \"#utility.yul\":2371:2373   */\n      0x40\n        /* \"#utility.yul\":2397:2450   */\n      tag_185\n        /* \"#utility.yul\":2442:2449   */\n      dup8\n        /* \"#utility.yul\":2433:2439   */\n      dup3\n        /* \"#utility.yul\":2422:2431   */\n      dup9\n        /* \"#utility.yul\":2418:2440   */\n      add\n        /* \"#utility.yul\":2397:2450   */\n      tag_172\n      jump\t// in\n    tag_185:\n        /* \"#utility.yul\":2387:2450   */\n      swap2\n      pop\n        /* \"#utility.yul\":2342:2460   */\n      pop\n        /* \"#utility.yul\":1648:2467   */\n      swap3\n      swap6\n      swap2\n      swap5\n      pop\n      swap3\n      pop\n      jump\t// out\n        /* \"#utility.yul\":2473:2982   */\n    tag_19:\n        /* \"#utility.yul\":2542:2548   */\n      0x00\n        /* \"#utility.yul\":2591:2593   */\n      0x20\n        /* \"#utility.yul\":2579:2588   */\n      dup3\n        /* \"#utility.yul\":2570:2577   */\n      dup5\n        /* \"#utility.yul\":2566:2589   */\n      sub\n        /* \"#utility.yul\":2562:2594   */\n      slt\n        /* \"#utility.yul\":2559:2678   */\n      iszero\n      tag_187\n      jumpi\n        /* \"#utility.yul\":2597:2676   */\n      tag_188\n      tag_179\n      jump\t// in\n    tag_188:\n        /* \"#utility.yul\":2559:2678   */\n    tag_187:\n        /* \"#utility.yul\":2745:2746   */\n      0x00\n        /* \"#utility.yul\":2734:2743   */\n      dup3\n        /* \"#utility.yul\":2730:2747   */\n      add\n        /* \"#utility.yul\":2717:2748   */\n      calldataload\n        /* \"#utility.yul\":2775:2793   */\n      0xffffffffffffffff\n        /* \"#utility.yul\":2767:2773   */\n      dup2\n        /* \"#utility.yul\":2764:2794   */\n      gt\n        /* \"#utility.yul\":2761:2878   */\n      iszero\n      tag_189\n      jumpi\n        /* \"#utility.yul\":2797:2876   */\n      tag_190\n      tag_182\n      jump\t// in\n    tag_190:\n        /* \"#utility.yul\":2761:2878   */\n    tag_189:\n        /* \"#utility.yul\":2902:2965   */\n      tag_191\n        /* \"#utility.yul\":2957:2964   */\n      dup5\n        /* \"#utility.yul\":2948:2954   */\n      dup3\n        /* \"#utility.yul\":2937:2946   */\n      dup6\n        /* \"#utility.yul\":2933:2955   */\n      add\n        /* \"#utility.yul\":2902:2965   */\n      tag_167\n      jump\t// in\n    tag_191:\n        /* \"#utility.yul\":2892:2965   */\n      swap2\n      pop\n        /* \"#utility.yul\":2688:2975   */\n      pop\n        /* \"#utility.yul\":2473:2982   */\n      swap3\n      swap2\n      pop\n      pop\n      jump\t// out\n        /* \"#utility.yul\":2988:3317   */\n    tag_30:\n        /* \"#utility.yul\":3047:3053   */\n      0x00\n        /* \"#utility.yul\":3096:3098   */\n      0x20\n        /* \"#utility.yul\":3084:3093   */\n      dup3\n        /* \"#utility.yul\":3075:3082   */\n      dup5\n        /* \"#utility.yul\":3071:3094   */\n      sub\n        /* \"#utility.yul\":3067:3099   */\n      slt\n        /* \"#utility.yul\":3064:3183   */\n      iszero\n      tag_193\n      jumpi\n        /* \"#utility.yul\":3102:3181   */\n      tag_194\n      tag_179\n      jump\t// in\n    tag_194:\n        /* \"#utility.yul\":3064:3183   */\n    tag_193:\n        /* \"#utility.yul\":3222:3223   */\n      0x00\n        /* \"#utility.yul\":3247:3300   */\n      tag_195\n        /* \"#utility.yul\":3292:3299   */\n      dup5\n        /* \"#utility.yul\":3283:3289   */\n      dup3\n        /* \"#utility.yul\":3272:3281   */\n      dup6\n        /* \"#utility.yul\":3268:3290   */\n      add\n        /* \"#utility.yul\":3247:3300   */\n      tag_172\n      jump\t// in\n    tag_195:\n        /* \"#utility.yul\":3237:3300   */\n      swap2\n      pop\n        /* \"#utility.yul\":3193:3310   */\n      pop\n        /* \"#utility.yul\":2988:3317   */\n      swap3\n      swap2\n      pop\n      pop\n      jump\t// out\n        /* \"#utility.yul\":3323:3797   */\n    tag_47:\n        /* \"#utility.yul\":3391:3397   */\n      0x00\n        /* \"#utility.yul\":3399:3405   */\n      dup1\n        /* \"#utility.yul\":3448:3450   */\n      0x40\n        /* \"#utility.yul\":3436:3445   */\n      dup4\n        /* \"#utility.yul\":3427:3434   */\n      dup6\n        /* \"#utility.yul\":3423:3446   */\n      sub\n        /* \"#utility.yul\":3419:3451   */\n      slt\n        /* \"#utility.yul\":3416:3535   */\n      iszero\n      tag_197\n      jumpi\n        /* \"#utility.yul\":3454:3533   */\n      tag_198\n      tag_179\n      jump\t// in\n    tag_198:\n        /* \"#utility.yul\":3416:3535   */\n    tag_197:\n        /* \"#utility.yul\":3574:3575   */\n      0x00\n        /* \"#utility.yul\":3599:3652   */\n      tag_199\n        /* \"#utility.yul\":3644:3651   */\n      dup6\n        /* \"#utility.yul\":3635:3641   */\n      dup3\n        /* \"#utility.yul\":3624:3633   */\n      dup7\n        /* \"#utility.yul\":3620:3642   */\n      add\n        /* \"#utility.yul\":3599:3652   */\n      tag_172\n      jump\t// in\n    tag_199:\n        /* \"#utility.yul\":3589:3652   */\n      swap3\n      pop\n        /* \"#utility.yul\":3545:3662   */\n      pop\n        /* \"#utility.yul\":3701:3703   */\n      0x20\n        /* \"#utility.yul\":3727:3780   */\n      tag_200\n        /* \"#utility.yul\":3772:3779   */\n      dup6\n        /* \"#utility.yul\":3763:3769   */\n      dup3\n        /* \"#utility.yul\":3752:3761   */\n      dup7\n        /* \"#utility.yul\":3748:3770   */\n      add\n        /* \"#utility.yul\":3727:3780   */\n      tag_152\n      jump\t// in\n    tag_200:\n        /* \"#utility.yul\":3717:3780   */\n      swap2\n      pop\n        /* \"#utility.yul\":3672:3790   */\n      pop\n        /* \"#utility.yul\":3323:3797   */\n      swap3\n      pop\n      swap3\n      swap1\n      pop\n      jump\t// out\n        /* \"#utility.yul\":3803:4277   */\n    tag_25:\n        /* \"#utility.yul\":3871:3877   */\n      0x00\n        /* \"#utility.yul\":3879:3885   */\n      dup1\n        /* \"#utility.yul\":3928:3930   */\n      0x40\n        /* \"#utility.yul\":3916:3925   */\n      dup4\n        /* \"#utility.yul\":3907:3914   */\n      dup6\n        /* \"#utility.yul\":3903:3926   */\n      sub\n        /* \"#utility.yul\":3899:3931   */\n      slt\n        /* \"#utility.yul\":3896:4015   */\n      iszero\n      tag_202\n      jumpi\n        /* \"#utility.yul\":3934:4013   */\n      tag_203\n      tag_179\n      jump\t// in\n    tag_203:\n        /* \"#utility.yul\":3896:4015   */\n    tag_202:\n        /* \"#utility.yul\":4054:4055   */\n      0x00\n        /* \"#utility.yul\":4079:4132   */\n      tag_204\n        /* \"#utility.yul\":4124:4131   */\n      dup6\n        /* \"#utility.yul\":4115:4121   */\n      dup3\n        /* \"#utility.yul\":4104:4113   */\n      dup7\n        /* \"#utility.yul\":4100:4122   */\n      add\n        /* \"#utility.yul\":4079:4132   */\n      tag_172\n      jump\t// in\n    tag_204:\n        /* \"#utility.yul\":4069:4132   */\n      swap3\n      pop\n        /* \"#utility.yul\":4025:4142   */\n      pop\n        /* \"#utility.yul\":4181:4183   */\n      0x20\n        /* \"#utility.yul\":4207:4260   */\n      tag_205\n        /* \"#utility.yul\":4252:4259   */\n      dup6\n        /* \"#utility.yul\":4243:4249   */\n      dup3\n        /* \"#utility.yul\":4232:4241   */\n      dup7\n        /* \"#utility.yul\":4228:4250   */\n      add\n        /* \"#utility.yul\":4207:4260   */\n      tag_172\n      jump\t// in\n    tag_205:\n        /* \"#utility.yul\":4197:4260   */\n      swap2\n      pop\n        /* \"#utility.yul\":4152:4270   */\n      pop\n        /* \"#utility.yul\":3803:4277   */\n      swap3\n      pop\n      swap3\n      swap1\n      pop\n      jump\t// out\n        /* \"#utility.yul\":4283:4531   */\n    tag_206:\n        /* \"#utility.yul\":4398:4408   */\n      0x00\n        /* \"#utility.yul\":4433:4525   */\n      tag_208\n        /* \"#utility.yul\":4521:4524   */\n      dup4\n        /* \"#utility.yul\":4513:4519   */\n      dup4\n        /* \"#utility.yul\":4433:4525   */\n      tag_209\n      jump\t// in\n    tag_208:\n        /* \"#utility.yul\":4419:4525   */\n      swap1\n      pop\n        /* \"#utility.yul\":4283:4531   */\n      swap3\n      swap2\n      pop\n      pop\n      jump\t// out\n        /* \"#utility.yul\":4537:4655   */\n    tag_210:\n        /* \"#utility.yul\":4624:4648   */\n      tag_212\n        /* \"#utility.yul\":4642:4647   */\n      dup2\n        /* \"#utility.yul\":4624:4648   */\n      tag_213\n      jump\t// in\n    tag_212:\n        /* \"#utility.yul\":4619:4622   */\n      dup3\n        /* \"#utility.yul\":4612:4649   */\n      mstore\n        /* \"#utility.yul\":4537:4655   */\n      pop\n      pop\n      jump\t// out\n        /* \"#utility.yul\":4717:5812   */\n    tag_214:\n        /* \"#utility.yul\":4882:4885   */\n      0x00\n        /* \"#utility.yul\":4911:4988   */\n      tag_216\n        /* \"#utility.yul\":4982:4987   */\n      dup3\n        /* \"#utility.yul\":4911:4988   */\n      tag_217\n      jump\t// in\n    tag_216:\n        /* \"#utility.yul\":5004:5113   */\n      tag_218\n        /* \"#utility.yul\":5106:5112   */\n      dup2\n        /* \"#utility.yul\":5101:5104   */\n      dup6\n        /* \"#utility.yul\":5004:5113   */\n      tag_219\n      jump\t// in\n    tag_218:\n        /* \"#utility.yul\":4997:5113   */\n      swap4\n      pop\n        /* \"#utility.yul\":5139:5142   */\n      dup4\n        /* \"#utility.yul\":5184:5188   */\n      0x20\n        /* \"#utility.yul\":5176:5182   */\n      dup3\n        /* \"#utility.yul\":5172:5189   */\n      mul\n        /* \"#utility.yul\":5167:5170   */\n      dup6\n        /* \"#utility.yul\":5163:5190   */\n      add\n        /* \"#utility.yul\":5214:5293   */\n      tag_220\n        /* \"#utility.yul\":5287:5292   */\n      dup6\n        /* \"#utility.yul\":5214:5293   */\n      tag_221\n      jump\t// in\n    tag_220:\n        /* \"#utility.yul\":5316:5323   */\n      dup1\n        /* \"#utility.yul\":5347:5348   */\n      0x00\n        /* \"#utility.yul\":5332:5767   */\n    tag_222:\n        /* \"#utility.yul\":5357:5363   */\n      dup6\n        /* \"#utility.yul\":5354:5355   */\n      dup2\n        /* \"#utility.yul\":5351:5364   */\n      lt\n        /* \"#utility.yul\":5332:5767   */\n      iszero\n      tag_224\n      jumpi\n        /* \"#utility.yul\":5428:5437   */\n      dup5\n        /* \"#utility.yul\":5422:5426   */\n      dup5\n        /* \"#utility.yul\":5418:5438   */\n      sub\n        /* \"#utility.yul\":5413:5416   */\n      dup10\n        /* \"#utility.yul\":5406:5439   */\n      mstore\n        /* \"#utility.yul\":5479:5485   */\n      dup2\n        /* \"#utility.yul\":5473:5486   */\n      mload\n        /* \"#utility.yul\":5507:5617   */\n      tag_225\n        /* \"#utility.yul\":5612:5616   */\n      dup6\n        /* \"#utility.yul\":5597:5610   */\n      dup3\n        /* \"#utility.yul\":5507:5617   */\n      tag_206\n      jump\t// in\n    tag_225:\n        /* \"#utility.yul\":5499:5617   */\n      swap5\n      pop\n        /* \"#utility.yul\":5640:5723   */\n      tag_226\n        /* \"#utility.yul\":5716:5722   */\n      dup4\n        /* \"#utility.yul\":5640:5723   */\n      tag_227\n      jump\t// in\n    tag_226:\n        /* \"#utility.yul\":5630:5723   */\n      swap3\n      pop\n        /* \"#utility.yul\":5752:5756   */\n      0x20\n        /* \"#utility.yul\":5747:5750   */\n      dup11\n        /* \"#utility.yul\":5743:5757   */\n      add\n        /* \"#utility.yul\":5736:5757   */\n      swap10\n      pop\n        /* \"#utility.yul\":5392:5767   */\n      pop\n        /* \"#utility.yul\":5379:5380   */\n      0x01\n        /* \"#utility.yul\":5376:5377   */\n      dup2\n        /* \"#utility.yul\":5372:5381   */\n      add\n        /* \"#utility.yul\":5367:5381   */\n      swap1\n      pop\n        /* \"#utility.yul\":5332:5767   */\n      jump(tag_222)\n    tag_224:\n        /* \"#utility.yul\":5336:5350   */\n      pop\n        /* \"#utility.yul\":5783:5787   */\n      dup3\n        /* \"#utility.yul\":5776:5787   */\n      swap8\n      pop\n        /* \"#utility.yul\":5803:5806   */\n      dup8\n        /* \"#utility.yul\":5796:5806   */\n      swap6\n      pop\n        /* \"#utility.yul\":4887:5812   */\n      pop\n      pop\n      pop\n      pop\n      pop\n        /* \"#utility.yul\":4717:5812   */\n      swap3\n      swap2\n      pop\n      pop\n      jump\t// out\n        /* \"#utility.yul\":5818:5927   */\n    tag_228:\n        /* \"#utility.yul\":5899:5920   */\n      tag_230\n        /* \"#utility.yul\":5914:5919   */\n      dup2\n        /* \"#utility.yul\":5899:5920   */\n      tag_231\n      jump\t// in\n    tag_230:\n        /* \"#utility.yul\":5894:5897   */\n      dup3\n        /* \"#utility.yul\":5887:5921   */\n      mstore\n        /* \"#utility.yul\":5818:5927   */\n      pop\n      pop\n      jump\t// out\n        /* \"#utility.yul\":5957:6261   */\n    tag_232:\n        /* \"#utility.yul\":6055:6058   */\n      0x00\n        /* \"#utility.yul\":6076:6147   */\n      tag_234\n        /* \"#utility.yul\":6140:6146   */\n      dup4\n        /* \"#utility.yul\":6135:6138   */\n      dup6\n        /* \"#utility.yul\":6076:6147   */\n      tag_235\n      jump\t// in\n    tag_234:\n        /* \"#utility.yul\":6069:6147   */\n      swap4\n      pop\n        /* \"#utility.yul\":6157:6200   */\n      tag_236\n        /* \"#utility.yul\":6193:6199   */\n      dup4\n        /* \"#utility.yul\":6188:6191   */\n      dup6\n        /* \"#utility.yul\":6181:6186   */\n      dup5\n        /* \"#utility.yul\":6157:6200   */\n      tag_151\n      jump\t// in\n    tag_236:\n        /* \"#utility.yul\":6225:6254   */\n      tag_237\n        /* \"#utility.yul\":6247:6253   */\n      dup4\n        /* \"#utility.yul\":6225:6254   */\n      tag_238\n      jump\t// in\n    tag_237:\n        /* \"#utility.yul\":6220:6223   */\n      dup5\n        /* \"#utility.yul\":6216:6255   */\n      add\n        /* \"#utility.yul\":6209:6255   */\n      swap1\n      pop\n        /* \"#utility.yul\":5957:6261   */\n      swap4\n      swap3\n      pop\n      pop\n      pop\n      jump\t// out\n        /* \"#utility.yul\":6291:6608   */\n    tag_239:\n        /* \"#utility.yul\":6407:6410   */\n      0x00\n        /* \"#utility.yul\":6428:6517   */\n      tag_241\n        /* \"#utility.yul\":6510:6516   */\n      dup4\n        /* \"#utility.yul\":6505:6508   */\n      dup6\n        /* \"#utility.yul\":6428:6517   */\n      tag_242\n      jump\t// in\n    tag_241:\n        /* \"#utility.yul\":6421:6517   */\n      swap4\n      pop\n        /* \"#utility.yul\":6527:6570   */\n      tag_243\n        /* \"#utility.yul\":6563:6569   */\n      dup4\n        /* \"#utility.yul\":6558:6561   */\n      dup6\n        /* \"#utility.yul\":6551:6556   */\n      dup5\n        /* \"#utility.yul\":6527:6570   */\n      tag_151\n      jump\t// in\n    tag_243:\n        /* \"#utility.yul\":6595:6601   */\n      dup3\n        /* \"#utility.yul\":6590:6593   */\n      dup5\n        /* \"#utility.yul\":6586:6602   */\n      add\n        /* \"#utility.yul\":6579:6602   */\n      swap1\n      pop\n        /* \"#utility.yul\":6291:6608   */\n      swap4\n      swap3\n      pop\n      pop\n      pop\n      jump\t// out\n        /* \"#utility.yul\":6614:6958   */\n    tag_244:\n        /* \"#utility.yul\":6692:6695   */\n      0x00\n        /* \"#utility.yul\":6720:6759   */\n      tag_246\n        /* \"#utility.yul\":6753:6758   */\n      dup3\n        /* \"#utility.yul\":6720:6759   */\n      tag_247\n      jump\t// in\n    tag_246:\n        /* \"#utility.yul\":6775:6836   */\n      tag_248\n        /* \"#utility.yul\":6829:6835   */\n      dup2\n        /* \"#utility.yul\":6824:6827   */\n      dup6\n        /* \"#utility.yul\":6775:6836   */\n      tag_249\n      jump\t// in\n    tag_248:\n        /* \"#utility.yul\":6768:6836   */\n      swap4\n      pop\n        /* \"#utility.yul\":6845:6897   */\n      tag_250\n        /* \"#utility.yul\":6890:6896   */\n      dup2\n        /* \"#utility.yul\":6885:6888   */\n      dup6\n        /* \"#utility.yul\":6878:6882   */\n      0x20\n        /* \"#utility.yul\":6871:6876   */\n      dup7\n        /* \"#utility.yul\":6867:6883   */\n      add\n        /* \"#utility.yul\":6845:6897   */\n      tag_251\n      jump\t// in\n    tag_250:\n        /* \"#utility.yul\":6922:6951   */\n      tag_252\n        /* \"#utility.yul\":6944:6950   */\n      dup2\n        /* \"#utility.yul\":6922:6951   */\n      tag_238\n      jump\t// in\n    tag_252:\n        /* \"#utility.yul\":6917:6920   */\n      dup5\n        /* \"#utility.yul\":6913:6952   */\n      add\n        /* \"#utility.yul\":6906:6952   */\n      swap2\n      pop\n        /* \"#utility.yul\":6696:6958   */\n      pop\n        /* \"#utility.yul\":6614:6958   */\n      swap3\n      swap2\n      pop\n      pop\n      jump\t// out\n        /* \"#utility.yul\":6964:7328   */\n    tag_253:\n        /* \"#utility.yul\":7052:7055   */\n      0x00\n        /* \"#utility.yul\":7080:7119   */\n      tag_255\n        /* \"#utility.yul\":7113:7118   */\n      dup3\n        /* \"#utility.yul\":7080:7119   */\n      tag_247\n      jump\t// in\n    tag_255:\n        /* \"#utility.yul\":7135:7206   */\n      tag_256\n        /* \"#utility.yul\":7199:7205   */\n      dup2\n        /* \"#utility.yul\":7194:7197   */\n      dup6\n        /* \"#utility.yul\":7135:7206   */\n      tag_235\n      jump\t// in\n    tag_256:\n        /* \"#utility.yul\":7128:7206   */\n      swap4\n      pop\n        /* \"#utility.yul\":7215:7267   */\n      tag_257\n        /* \"#utility.yul\":7260:7266   */\n      dup2\n        /* \"#utility.yul\":7255:7258   */\n      dup6\n        /* \"#utility.yul\":7248:7252   */\n      0x20\n        /* \"#utility.yul\":7241:7246   */\n      dup7\n        /* \"#utility.yul\":7237:7253   */\n      add\n        /* \"#utility.yul\":7215:7267   */\n      tag_251\n      jump\t// in\n    tag_257:\n        /* \"#utility.yul\":7292:7321   */\n      tag_258\n        /* \"#utility.yul\":7314:7320   */\n      dup2\n        /* \"#utility.yul\":7292:7321   */\n      tag_238\n      jump\t// in\n    tag_258:\n        /* \"#utility.yul\":7287:7290   */\n      dup5\n        /* \"#utility.yul\":7283:7322   */\n      add\n        /* \"#utility.yul\":7276:7322   */\n      swap2\n      pop\n        /* \"#utility.yul\":7056:7328   */\n      pop\n        /* \"#utility.yul\":6964:7328   */\n      swap3\n      swap2\n      pop\n      pop\n      jump\t// out\n        /* \"#utility.yul\":7334:7700   */\n    tag_259:\n        /* \"#utility.yul\":7476:7479   */\n      0x00\n        /* \"#utility.yul\":7497:7564   */\n      tag_261\n        /* \"#utility.yul\":7561:7563   */\n      0x16\n        /* \"#utility.yul\":7556:7559   */\n      dup4\n        /* \"#utility.yul\":7497:7564   */\n      tag_235\n      jump\t// in\n    tag_261:\n        /* \"#utility.yul\":7490:7564   */\n      swap2\n      pop\n        /* \"#utility.yul\":7573:7666   */\n      tag_262\n        /* \"#utility.yul\":7662:7665   */\n      dup3\n        /* \"#utility.yul\":7573:7666   */\n      tag_263\n      jump\t// in\n    tag_262:\n        /* \"#utility.yul\":7691:7693   */\n      0x20\n        /* \"#utility.yul\":7686:7689   */\n      dup3\n        /* \"#utility.yul\":7682:7694   */\n      add\n        /* \"#utility.yul\":7675:7694   */\n      swap1\n      pop\n        /* \"#utility.yul\":7334:7700   */\n      swap2\n      swap1\n      pop\n      jump\t// out\n        /* \"#utility.yul\":7706:8072   */\n    tag_264:\n        /* \"#utility.yul\":7848:7851   */\n      0x00\n        /* \"#utility.yul\":7869:7936   */\n      tag_266\n        /* \"#utility.yul\":7933:7935   */\n      0x2d\n        /* \"#utility.yul\":7928:7931   */\n      dup4\n        /* \"#utility.yul\":7869:7936   */\n      tag_235\n      jump\t// in\n    tag_266:\n        /* \"#utility.yul\":7862:7936   */\n      swap2\n      pop\n        /* \"#utility.yul\":7945:8038   */\n      tag_267\n        /* \"#utility.yul\":8034:8037   */\n      dup3\n        /* \"#utility.yul\":7945:8038   */\n      tag_268\n      jump\t// in\n    tag_267:\n        /* \"#utility.yul\":8063:8065   */\n      0x40\n        /* \"#utility.yul\":8058:8061   */\n      dup3\n        /* \"#utility.yul\":8054:8066   */\n      add\n        /* \"#utility.yul\":8047:8066   */\n      swap1\n      pop\n        /* \"#utility.yul\":7706:8072   */\n      swap2\n      swap1\n      pop\n      jump\t// out\n        /* \"#utility.yul\":8078:8444   */\n    tag_269:\n        /* \"#utility.yul\":8220:8223   */\n      0x00\n        /* \"#utility.yul\":8241:8308   */\n      tag_271\n        /* \"#utility.yul\":8305:8307   */\n      0x4f\n        /* \"#utility.yul\":8300:8303   */\n      dup4\n        /* \"#utility.yul\":8241:8308   */\n      tag_235\n      jump\t// in\n    tag_271:\n        /* \"#utility.yul\":8234:8308   */\n      swap2\n      pop\n        /* \"#utility.yul\":8317:8410   */\n      tag_272\n        /* \"#utility.yul\":8406:8409   */\n      dup3\n        /* \"#utility.yul\":8317:8410   */\n      tag_273\n      jump\t// in\n    tag_272:\n        /* \"#utility.yul\":8435:8437   */\n      0x60\n        /* \"#utility.yul\":8430:8433   */\n      dup3\n        /* \"#utility.yul\":8426:8438   */\n      add\n        /* \"#utility.yul\":8419:8438   */\n      swap1\n      pop\n        /* \"#utility.yul\":8078:8444   */\n      swap2\n      swap1\n      pop\n      jump\t// out\n        /* \"#utility.yul\":8450:8816   */\n    tag_274:\n        /* \"#utility.yul\":8592:8595   */\n      0x00\n        /* \"#utility.yul\":8613:8680   */\n      tag_276\n        /* \"#utility.yul\":8677:8679   */\n      0x11\n        /* \"#utility.yul\":8672:8675   */\n      dup4\n        /* \"#utility.yul\":8613:8680   */\n      tag_235\n      jump\t// in\n    tag_276:\n        /* \"#utility.yul\":8606:8680   */\n      swap2\n      pop\n        /* \"#utility.yul\":8689:8782   */\n      tag_277\n        /* \"#utility.yul\":8778:8781   */\n      dup3\n        /* \"#utility.yul\":8689:8782   */\n      tag_278\n      jump\t// in\n    tag_277:\n        /* \"#utility.yul\":8807:8809   */\n      0x20\n        /* \"#utility.yul\":8802:8805   */\n      dup3\n        /* \"#utility.yul\":8798:8810   */\n      add\n        /* \"#utility.yul\":8791:8810   */\n      swap1\n      pop\n        /* \"#utility.yul\":8450:8816   */\n      swap2\n      swap1\n      pop\n      jump\t// out\n        /* \"#utility.yul\":8822:9188   */\n    tag_279:\n        /* \"#utility.yul\":8964:8967   */\n      0x00\n        /* \"#utility.yul\":8985:9052   */\n      tag_281\n        /* \"#utility.yul\":9049:9051   */\n      0x25\n        /* \"#utility.yul\":9044:9047   */\n      dup4\n        /* \"#utility.yul\":8985:9052   */\n      tag_235\n      jump\t// in\n    tag_281:\n        /* \"#utility.yul\":8978:9052   */\n      swap2\n      pop\n        /* \"#utility.yul\":9061:9154   */\n      tag_282\n        /* \"#utility.yul\":9150:9153   */\n      dup3\n        /* \"#utility.yul\":9061:9154   */\n      tag_283\n      jump\t// in\n    tag_282:\n        /* \"#utility.yul\":9179:9181   */\n      0x40\n        /* \"#utility.yul\":9174:9177   */\n      dup3\n        /* \"#utility.yul\":9170:9182   */\n      add\n        /* \"#utility.yul\":9163:9182   */\n      swap1\n      pop\n        /* \"#utility.yul\":8822:9188   */\n      swap2\n      swap1\n      pop\n      jump\t// out\n        /* \"#utility.yul\":9194:9560   */\n    tag_284:\n        /* \"#utility.yul\":9336:9339   */\n      0x00\n        /* \"#utility.yul\":9357:9424   */\n      tag_286\n        /* \"#utility.yul\":9421:9423   */\n      0x1c\n        /* \"#utility.yul\":9416:9419   */\n      dup4\n        /* \"#utility.yul\":9357:9424   */\n      tag_235\n      jump\t// in\n    tag_286:\n        /* \"#utility.yul\":9350:9424   */\n      swap2\n      pop\n        /* \"#utility.yul\":9433:9526   */\n      tag_287\n        /* \"#utility.yul\":9522:9525   */\n      dup3\n        /* \"#utility.yul\":9433:9526   */\n      tag_288\n      jump\t// in\n    tag_287:\n        /* \"#utility.yul\":9551:9553   */\n      0x20\n        /* \"#utility.yul\":9546:9549   */\n      dup3\n        /* \"#utility.yul\":9542:9554   */\n      add\n        /* \"#utility.yul\":9535:9554   */\n      swap1\n      pop\n        /* \"#utility.yul\":9194:9560   */\n      swap2\n      swap1\n      pop\n      jump\t// out\n        /* \"#utility.yul\":9566:9932   */\n    tag_289:\n        /* \"#utility.yul\":9708:9711   */\n      0x00\n        /* \"#utility.yul\":9729:9796   */\n      tag_291\n        /* \"#utility.yul\":9793:9795   */\n      0x24\n        /* \"#utility.yul\":9788:9791   */\n      dup4\n        /* \"#utility.yul\":9729:9796   */\n      tag_235\n      jump\t// in\n    tag_291:\n        /* \"#utility.yul\":9722:9796   */\n      swap2\n      pop\n        /* \"#utility.yul\":9805:9898   */\n      tag_292\n        /* \"#utility.yul\":9894:9897   */\n      dup3\n        /* \"#utility.yul\":9805:9898   */\n      tag_293\n      jump\t// in\n    tag_292:\n        /* \"#utility.yul\":9923:9925   */\n      0x40\n        /* \"#utility.yul\":9918:9921   */\n      dup3\n        /* \"#utility.yul\":9914:9926   */\n      add\n        /* \"#utility.yul\":9907:9926   */\n      swap1\n      pop\n        /* \"#utility.yul\":9566:9932   */\n      swap2\n      swap1\n      pop\n      jump\t// out\n        /* \"#utility.yul\":9990:10933   */\n    tag_209:\n        /* \"#utility.yul\":10095:10098   */\n      0x00\n        /* \"#utility.yul\":10131:10135   */\n      0x80\n        /* \"#utility.yul\":10126:10129   */\n      dup4\n        /* \"#utility.yul\":10122:10136   */\n      add\n        /* \"#utility.yul\":10216:10220   */\n      0x00\n        /* \"#utility.yul\":10209:10214   */\n      dup4\n        /* \"#utility.yul\":10205:10221   */\n      add\n        /* \"#utility.yul\":10199:10222   */\n      mload\n        /* \"#utility.yul\":10235:10298   */\n      tag_295\n        /* \"#utility.yul\":10292:10296   */\n      0x00\n        /* \"#utility.yul\":10287:10290   */\n      dup7\n        /* \"#utility.yul\":10283:10297   */\n      add\n        /* \"#utility.yul\":10269:10281   */\n      dup3\n        /* \"#utility.yul\":10235:10298   */\n      tag_296\n      jump\t// in\n    tag_295:\n        /* \"#utility.yul\":10146:10308   */\n      pop\n        /* \"#utility.yul\":10390:10394   */\n      0x20\n        /* \"#utility.yul\":10383:10388   */\n      dup4\n        /* \"#utility.yul\":10379:10395   */\n      add\n        /* \"#utility.yul\":10373:10396   */\n      mload\n        /* \"#utility.yul\":10443:10446   */\n      dup5\n        /* \"#utility.yul\":10437:10441   */\n      dup3\n        /* \"#utility.yul\":10433:10447   */\n      sub\n        /* \"#utility.yul\":10426:10430   */\n      0x20\n        /* \"#utility.yul\":10421:10424   */\n      dup7\n        /* \"#utility.yul\":10417:10431   */\n      add\n        /* \"#utility.yul\":10410:10448   */\n      mstore\n        /* \"#utility.yul\":10469:10542   */\n      tag_297\n        /* \"#utility.yul\":10537:10541   */\n      dup3\n        /* \"#utility.yul\":10523:10535   */\n      dup3\n        /* \"#utility.yul\":10469:10542   */\n      tag_244\n      jump\t// in\n    tag_297:\n        /* \"#utility.yul\":10461:10542   */\n      swap2\n      pop\n        /* \"#utility.yul\":10318:10553   */\n      pop\n        /* \"#utility.yul\":10639:10643   */\n      0x40\n        /* \"#utility.yul\":10632:10637   */\n      dup4\n        /* \"#utility.yul\":10628:10644   */\n      add\n        /* \"#utility.yul\":10622:10645   */\n      mload\n        /* \"#utility.yul\":10658:10721   */\n      tag_298\n        /* \"#utility.yul\":10715:10719   */\n      0x40\n        /* \"#utility.yul\":10710:10713   */\n      dup7\n        /* \"#utility.yul\":10706:10720   */\n      add\n        /* \"#utility.yul\":10692:10704   */\n      dup3\n        /* \"#utility.yul\":10658:10721   */\n      tag_296\n      jump\t// in\n    tag_298:\n        /* \"#utility.yul\":10563:10731   */\n      pop\n        /* \"#utility.yul\":10814:10818   */\n      0x60\n        /* \"#utility.yul\":10807:10812   */\n      dup4\n        /* \"#utility.yul\":10803:10819   */\n      add\n        /* \"#utility.yul\":10797:10820   */\n      mload\n        /* \"#utility.yul\":10833:10896   */\n      tag_299\n        /* \"#utility.yul\":10890:10894   */\n      0x60\n        /* \"#utility.yul\":10885:10888   */\n      dup7\n        /* \"#utility.yul\":10881:10895   */\n      add\n        /* \"#utility.yul\":10867:10879   */\n      dup3\n        /* \"#utility.yul\":10833:10896   */\n      tag_296\n      jump\t// in\n    tag_299:\n        /* \"#utility.yul\":10741:10906   */\n      pop\n        /* \"#utility.yul\":10923:10927   */\n      dup1\n        /* \"#utility.yul\":10916:10927   */\n      swap2\n      pop\n        /* \"#utility.yul\":10100:10933   */\n      pop\n        /* \"#utility.yul\":9990:10933   */\n      swap3\n      swap2\n      pop\n      pop\n      jump\t// out\n        /* \"#utility.yul\":10939:11047   */\n    tag_296:\n        /* \"#utility.yul\":11016:11040   */\n      tag_301\n        /* \"#utility.yul\":11034:11039   */\n      dup2\n        /* \"#utility.yul\":11016:11040   */\n      tag_302\n      jump\t// in\n    tag_301:\n        /* \"#utility.yul\":11011:11014   */\n      dup3\n        /* \"#utility.yul\":11004:11041   */\n      mstore\n        /* \"#utility.yul\":10939:11047   */\n      pop\n      pop\n      jump\t// out\n        /* \"#utility.yul\":11053:11171   */\n    tag_303:\n        /* \"#utility.yul\":11140:11164   */\n      tag_305\n        /* \"#utility.yul\":11158:11163   */\n      dup2\n        /* \"#utility.yul\":11140:11164   */\n      tag_302\n      jump\t// in\n    tag_305:\n        /* \"#utility.yul\":11135:11138   */\n      dup3\n        /* \"#utility.yul\":11128:11165   */\n      mstore\n        /* \"#utility.yul\":11053:11171   */\n      pop\n      pop\n      jump\t// out\n        /* \"#utility.yul\":11177:11472   */\n    tag_63:\n        /* \"#utility.yul\":11319:11322   */\n      0x00\n        /* \"#utility.yul\":11341:11446   */\n      tag_307\n        /* \"#utility.yul\":11442:11445   */\n      dup3\n        /* \"#utility.yul\":11433:11439   */\n      dup5\n        /* \"#utility.yul\":11425:11431   */\n      dup7\n        /* \"#utility.yul\":11341:11446   */\n      tag_239\n      jump\t// in\n    tag_307:\n        /* \"#utility.yul\":11334:11446   */\n      swap2\n      pop\n        /* \"#utility.yul\":11463:11466   */\n      dup2\n        /* \"#utility.yul\":11456:11466   */\n      swap1\n      pop\n        /* \"#utility.yul\":11177:11472   */\n      swap4\n      swap3\n      pop\n      pop\n      pop\n      jump\t// out\n        /* \"#utility.yul\":11478:11700   */\n    tag_38:\n        /* \"#utility.yul\":11571:11575   */\n      0x00\n        /* \"#utility.yul\":11609:11611   */\n      0x20\n        /* \"#utility.yul\":11598:11607   */\n      dup3\n        /* \"#utility.yul\":11594:11612   */\n      add\n        /* \"#utility.yul\":11586:11612   */\n      swap1\n      pop\n        /* \"#utility.yul\":11622:11693   */\n      tag_309\n        /* \"#utility.yul\":11690:11691   */\n      0x00\n        /* \"#utility.yul\":11679:11688   */\n      dup4\n        /* \"#utility.yul\":11675:11692   */\n      add\n        /* \"#utility.yul\":11666:11672   */\n      dup5\n        /* \"#utility.yul\":11622:11693   */\n      tag_210\n      jump\t// in\n    tag_309:\n        /* \"#utility.yul\":11478:11700   */\n      swap3\n      swap2\n      pop\n      pop\n      jump\t// out\n        /* \"#utility.yul\":11706:12171   */\n    tag_43:\n        /* \"#utility.yul\":11895:11899   */\n      0x00\n        /* \"#utility.yul\":11933:11935   */\n      0x20\n        /* \"#utility.yul\":11922:11931   */\n      dup3\n        /* \"#utility.yul\":11918:11936   */\n      add\n        /* \"#utility.yul\":11910:11936   */\n      swap1\n      pop\n        /* \"#utility.yul\":11982:11991   */\n      dup2\n        /* \"#utility.yul\":11976:11980   */\n      dup2\n        /* \"#utility.yul\":11972:11992   */\n      sub\n        /* \"#utility.yul\":11968:11969   */\n      0x00\n        /* \"#utility.yul\":11957:11966   */\n      dup4\n        /* \"#utility.yul\":11953:11970   */\n      add\n        /* \"#utility.yul\":11946:11993   */\n      mstore\n        /* \"#utility.yul\":12010:12164   */\n      tag_311\n        /* \"#utility.yul\":12159:12163   */\n      dup2\n        /* \"#utility.yul\":12150:12156   */\n      dup5\n        /* \"#utility.yul\":12010:12164   */\n      tag_214\n      jump\t// in\n    tag_311:\n        /* \"#utility.yul\":12002:12164   */\n      swap1\n      pop\n        /* \"#utility.yul\":11706:12171   */\n      swap3\n      swap2\n      pop\n      pop\n      jump\t// out\n        /* \"#utility.yul\":12177:12387   */\n    tag_22:\n        /* \"#utility.yul\":12264:12268   */\n      0x00\n        /* \"#utility.yul\":12302:12304   */\n      0x20\n        /* \"#utility.yul\":12291:12300   */\n      dup3\n        /* \"#utility.yul\":12287:12305   */\n      add\n        /* \"#utility.yul\":12279:12305   */\n      swap1\n      pop\n        /* \"#utility.yul\":12315:12380   */\n      tag_313\n        /* \"#utility.yul\":12377:12378   */\n      0x00\n        /* \"#utility.yul\":12366:12375   */\n      dup4\n        /* \"#utility.yul\":12362:12379   */\n      add\n        /* \"#utility.yul\":12353:12359   */\n      dup5\n        /* \"#utility.yul\":12315:12380   */\n      tag_228\n      jump\t// in\n    tag_313:\n        /* \"#utility.yul\":12177:12387   */\n      swap3\n      swap2\n      pop\n      pop\n      jump\t// out\n        /* \"#utility.yul\":12393:12946   */\n    tag_72:\n        /* \"#utility.yul\":12572:12576   */\n      0x00\n        /* \"#utility.yul\":12610:12612   */\n      0x60\n        /* \"#utility.yul\":12599:12608   */\n      dup3\n        /* \"#utility.yul\":12595:12613   */\n      add\n        /* \"#utility.yul\":12587:12613   */\n      swap1\n      pop\n        /* \"#utility.yul\":12659:12668   */\n      dup2\n        /* \"#utility.yul\":12653:12657   */\n      dup2\n        /* \"#utility.yul\":12649:12669   */\n      sub\n        /* \"#utility.yul\":12645:12646   */\n      0x00\n        /* \"#utility.yul\":12634:12643   */\n      dup4\n        /* \"#utility.yul\":12630:12647   */\n      add\n        /* \"#utility.yul\":12623:12670   */\n      mstore\n        /* \"#utility.yul\":12687:12775   */\n      tag_315\n        /* \"#utility.yul\":12770:12774   */\n      dup2\n        /* \"#utility.yul\":12761:12767   */\n      dup7\n        /* \"#utility.yul\":12753:12759   */\n      dup9\n        /* \"#utility.yul\":12687:12775   */\n      tag_232\n      jump\t// in\n    tag_315:\n        /* \"#utility.yul\":12679:12775   */\n      swap1\n      pop\n        /* \"#utility.yul\":12785:12857   */\n      tag_316\n        /* \"#utility.yul\":12853:12855   */\n      0x20\n        /* \"#utility.yul\":12842:12851   */\n      dup4\n        /* \"#utility.yul\":12838:12856   */\n      add\n        /* \"#utility.yul\":12829:12835   */\n      dup6\n        /* \"#utility.yul\":12785:12857   */\n      tag_303\n      jump\t// in\n    tag_316:\n        /* \"#utility.yul\":12867:12939   */\n      tag_317\n        /* \"#utility.yul\":12935:12937   */\n      0x40\n        /* \"#utility.yul\":12924:12933   */\n      dup4\n        /* \"#utility.yul\":12920:12938   */\n      add\n        /* \"#utility.yul\":12911:12917   */\n      dup5\n        /* \"#utility.yul\":12867:12939   */\n      tag_303\n      jump\t// in\n    tag_317:\n        /* \"#utility.yul\":12393:12946   */\n      swap6\n      swap5\n      pop\n      pop\n      pop\n      pop\n      pop\n      jump\t// out\n        /* \"#utility.yul\":12952:13371   */\n    tag_58:\n        /* \"#utility.yul\":13118:13122   */\n      0x00\n        /* \"#utility.yul\":13156:13158   */\n      0x20\n        /* \"#utility.yul\":13145:13154   */\n      dup3\n        /* \"#utility.yul\":13141:13159   */\n      add\n        /* \"#utility.yul\":13133:13159   */\n      swap1\n      pop\n        /* \"#utility.yul\":13205:13214   */\n      dup2\n        /* \"#utility.yul\":13199:13203   */\n      dup2\n        /* \"#utility.yul\":13195:13215   */\n      sub\n        /* \"#utility.yul\":13191:13192   */\n      0x00\n        /* \"#utility.yul\":13180:13189   */\n      dup4\n        /* \"#utility.yul\":13176:13193   */\n      add\n        /* \"#utility.yul\":13169:13216   */\n      mstore\n        /* \"#utility.yul\":13233:13364   */\n      tag_319\n        /* \"#utility.yul\":13359:13363   */\n      dup2\n        /* \"#utility.yul\":13233:13364   */\n      tag_259\n      jump\t// in\n    tag_319:\n        /* \"#utility.yul\":13225:13364   */\n      swap1\n      pop\n        /* \"#utility.yul\":12952:13371   */\n      swap2\n      swap1\n      pop\n      jump\t// out\n        /* \"#utility.yul\":13377:13796   */\n    tag_90:\n        /* \"#utility.yul\":13543:13547   */\n      0x00\n        /* \"#utility.yul\":13581:13583   */\n      0x20\n        /* \"#utility.yul\":13570:13579   */\n      dup3\n        /* \"#utility.yul\":13566:13584   */\n      add\n        /* \"#utility.yul\":13558:13584   */\n      swap1\n      pop\n        /* \"#utility.yul\":13630:13639   */\n      dup2\n        /* \"#utility.yul\":13624:13628   */\n      dup2\n        /* \"#utility.yul\":13620:13640   */\n      sub\n        /* \"#utility.yul\":13616:13617   */\n      0x00\n        /* \"#utility.yul\":13605:13614   */\n      dup4\n        /* \"#utility.yul\":13601:13618   */\n      add\n        /* \"#utility.yul\":13594:13641   */\n      mstore\n        /* \"#utility.yul\":13658:13789   */\n      tag_321\n        /* \"#utility.yul\":13784:13788   */\n      dup2\n        /* \"#utility.yul\":13658:13789   */\n      tag_264\n      jump\t// in\n    tag_321:\n        /* \"#utility.yul\":13650:13789   */\n      swap1\n      pop\n        /* \"#utility.yul\":13377:13796   */\n      swap2\n      swap1\n      pop\n      jump\t// out\n        /* \"#utility.yul\":13802:14221   */\n    tag_98:\n        /* \"#utility.yul\":13968:13972   */\n      0x00\n        /* \"#utility.yul\":14006:14008   */\n      0x20\n        /* \"#utility.yul\":13995:14004   */\n      dup3\n        /* \"#utility.yul\":13991:14009   */\n      add\n        /* \"#utility.yul\":13983:14009   */\n      swap1\n      pop\n        /* \"#utility.yul\":14055:14064   */\n      dup2\n        /* \"#utility.yul\":14049:14053   */\n      dup2\n        /* \"#utility.yul\":14045:14065   */\n      sub\n        /* \"#utility.yul\":14041:14042   */\n      0x00\n        /* \"#utility.yul\":14030:14039   */\n      dup4\n        /* \"#utility.yul\":14026:14043   */\n      add\n        /* \"#utility.yul\":14019:14066   */\n      mstore\n        /* \"#utility.yul\":14083:14214   */\n      tag_323\n        /* \"#utility.yul\":14209:14213   */\n      dup2\n        /* \"#utility.yul\":14083:14214   */\n      tag_269\n      jump\t// in\n    tag_323:\n        /* \"#utility.yul\":14075:14214   */\n      swap1\n      pop\n        /* \"#utility.yul\":13802:14221   */\n      swap2\n      swap1\n      pop\n      jump\t// out\n        /* \"#utility.yul\":14227:14646   */\n    tag_80:\n        /* \"#utility.yul\":14393:14397   */\n      0x00\n        /* \"#utility.yul\":14431:14433   */\n      0x20\n        /* \"#utility.yul\":14420:14429   */\n      dup3\n        /* \"#utility.yul\":14416:14434   */\n      add\n        /* \"#utility.yul\":14408:14434   */\n      swap1\n      pop\n        /* \"#utility.yul\":14480:14489   */\n      dup2\n        /* \"#utility.yul\":14474:14478   */\n      dup2\n        /* \"#utility.yul\":14470:14490   */\n      sub\n        /* \"#utility.yul\":14466:14467   */\n      0x00\n        /* \"#utility.yul\":14455:14464   */\n      dup4\n        /* \"#utility.yul\":14451:14468   */\n      add\n        /* \"#utility.yul\":14444:14491   */\n      mstore\n        /* \"#utility.yul\":14508:14639   */\n      tag_325\n        /* \"#utility.yul\":14634:14638   */\n      dup2\n        /* \"#utility.yul\":14508:14639   */\n      tag_274\n      jump\t// in\n    tag_325:\n        /* \"#utility.yul\":14500:14639   */\n      swap1\n      pop\n        /* \"#utility.yul\":14227:14646   */\n      swap2\n      swap1\n      pop\n      jump\t// out\n        /* \"#utility.yul\":14652:15071   */\n    tag_83:\n        /* \"#utility.yul\":14818:14822   */\n      0x00\n        /* \"#utility.yul\":14856:14858   */\n      0x20\n        /* \"#utility.yul\":14845:14854   */\n      dup3\n        /* \"#utility.yul\":14841:14859   */\n      add\n        /* \"#utility.yul\":14833:14859   */\n      swap1\n      pop\n        /* \"#utility.yul\":14905:14914   */\n      dup2\n        /* \"#utility.yul\":14899:14903   */\n      dup2\n        /* \"#utility.yul\":14895:14915   */\n      sub\n        /* \"#utility.yul\":14891:14892   */\n      0x00\n        /* \"#utility.yul\":14880:14889   */\n      dup4\n        /* \"#utility.yul\":14876:14893   */\n      add\n        /* \"#utility.yul\":14869:14916   */\n      mstore\n        /* \"#utility.yul\":14933:15064   */\n      tag_327\n        /* \"#utility.yul\":15059:15063   */\n      dup2\n        /* \"#utility.yul\":14933:15064   */\n      tag_279\n      jump\t// in\n    tag_327:\n        /* \"#utility.yul\":14925:15064   */\n      swap1\n      pop\n        /* \"#utility.yul\":14652:15071   */\n      swap2\n      swap1\n      pop\n      jump\t// out\n        /* \"#utility.yul\":15077:15496   */\n    tag_76:\n        /* \"#utility.yul\":15243:15247   */\n      0x00\n        /* \"#utility.yul\":15281:15283   */\n      0x20\n        /* \"#utility.yul\":15270:15279   */\n      dup3\n        /* \"#utility.yul\":15266:15284   */\n      add\n        /* \"#utility.yul\":15258:15284   */\n      swap1\n      pop\n        /* \"#utility.yul\":15330:15339   */\n      dup2\n        /* \"#utility.yul\":15324:15328   */\n      dup2\n        /* \"#utility.yul\":15320:15340   */\n      sub\n        /* \"#utility.yul\":15316:15317   */\n      0x00\n        /* \"#utility.yul\":15305:15314   */\n      dup4\n        /* \"#utility.yul\":15301:15318   */\n      add\n        /* \"#utility.yul\":15294:15341   */\n      mstore\n        /* \"#utility.yul\":15358:15489   */\n      tag_329\n        /* \"#utility.yul\":15484:15488   */\n      dup2\n        /* \"#utility.yul\":15358:15489   */\n      tag_284\n      jump\t// in\n    tag_329:\n        /* \"#utility.yul\":15350:15489   */\n      swap1\n      pop\n        /* \"#utility.yul\":15077:15496   */\n      swap2\n      swap1\n      pop\n      jump\t// out\n        /* \"#utility.yul\":15502:15921   */\n    tag_66:\n        /* \"#utility.yul\":15668:15672   */\n      0x00\n        /* \"#utility.yul\":15706:15708   */\n      0x20\n        /* \"#utility.yul\":15695:15704   */\n      dup3\n        /* \"#utility.yul\":15691:15709   */\n      add\n        /* \"#utility.yul\":15683:15709   */\n      swap1\n      pop\n        /* \"#utility.yul\":15755:15764   */\n      dup2\n        /* \"#utility.yul\":15749:15753   */\n      dup2\n        /* \"#utility.yul\":15745:15765   */\n      sub\n        /* \"#utility.yul\":15741:15742   */\n      0x00\n        /* \"#utility.yul\":15730:15739   */\n      dup4\n        /* \"#utility.yul\":15726:15743   */\n      add\n        /* \"#utility.yul\":15719:15766   */\n      mstore\n        /* \"#utility.yul\":15783:15914   */\n      tag_331\n        /* \"#utility.yul\":15909:15913   */\n      dup2\n        /* \"#utility.yul\":15783:15914   */\n      tag_289\n      jump\t// in\n    tag_331:\n        /* \"#utility.yul\":15775:15914   */\n      swap1\n      pop\n        /* \"#utility.yul\":15502:15921   */\n      swap2\n      swap1\n      pop\n      jump\t// out\n        /* \"#utility.yul\":15927:16149   */\n    tag_50:\n        /* \"#utility.yul\":16020:16024   */\n      0x00\n        /* \"#utility.yul\":16058:16060   */\n      0x20\n        /* \"#utility.yul\":16047:16056   */\n      dup3\n        /* \"#utility.yul\":16043:16061   */\n      add\n        /* \"#utility.yul\":16035:16061   */\n      swap1\n      pop\n        /* \"#utility.yul\":16071:16142   */\n      tag_333\n        /* \"#utility.yul\":16139:16140   */\n      0x00\n        /* \"#utility.yul\":16128:16137   */\n      dup4\n        /* \"#utility.yul\":16124:16141   */\n      add\n        /* \"#utility.yul\":16115:16121   */\n      dup5\n        /* \"#utility.yul\":16071:16142   */\n      tag_303\n      jump\t// in\n    tag_333:\n        /* \"#utility.yul\":15927:16149   */\n      swap3\n      swap2\n      pop\n      pop\n      jump\t// out\n        /* \"#utility.yul\":16155:16799   */\n    tag_33:\n        /* \"#utility.yul\":16352:16356   */\n      0x00\n        /* \"#utility.yul\":16390:16393   */\n      0x80\n        /* \"#utility.yul\":16379:16388   */\n      dup3\n        /* \"#utility.yul\":16375:16394   */\n      add\n        /* \"#utility.yul\":16367:16394   */\n      swap1\n      pop\n        /* \"#utility.yul\":16404:16475   */\n      tag_335\n        /* \"#utility.yul\":16472:16473   */\n      0x00\n        /* \"#utility.yul\":16461:16470   */\n      dup4\n        /* \"#utility.yul\":16457:16474   */\n      add\n        /* \"#utility.yul\":16448:16454   */\n      dup8\n        /* \"#utility.yul\":16404:16475   */\n      tag_303\n      jump\t// in\n    tag_335:\n        /* \"#utility.yul\":16522:16531   */\n      dup2\n        /* \"#utility.yul\":16516:16520   */\n      dup2\n        /* \"#utility.yul\":16512:16532   */\n      sub\n        /* \"#utility.yul\":16507:16509   */\n      0x20\n        /* \"#utility.yul\":16496:16505   */\n      dup4\n        /* \"#utility.yul\":16492:16510   */\n      add\n        /* \"#utility.yul\":16485:16533   */\n      mstore\n        /* \"#utility.yul\":16550:16628   */\n      tag_336\n        /* \"#utility.yul\":16623:16627   */\n      dup2\n        /* \"#utility.yul\":16614:16620   */\n      dup7\n        /* \"#utility.yul\":16550:16628   */\n      tag_253\n      jump\t// in\n    tag_336:\n        /* \"#utility.yul\":16542:16628   */\n      swap1\n      pop\n        /* \"#utility.yul\":16638:16710   */\n      tag_337\n        /* \"#utility.yul\":16706:16708   */\n      0x40\n        /* \"#utility.yul\":16695:16704   */\n      dup4\n        /* \"#utility.yul\":16691:16709   */\n      add\n        /* \"#utility.yul\":16682:16688   */\n      dup6\n        /* \"#utility.yul\":16638:16710   */\n      tag_303\n      jump\t// in\n    tag_337:\n        /* \"#utility.yul\":16720:16792   */\n      tag_338\n        /* \"#utility.yul\":16788:16790   */\n      0x60\n        /* \"#utility.yul\":16777:16786   */\n      dup4\n        /* \"#utility.yul\":16773:16791   */\n      add\n        /* \"#utility.yul\":16764:16770   */\n      dup5\n        /* \"#utility.yul\":16720:16792   */\n      tag_303\n      jump\t// in\n    tag_338:\n        /* \"#utility.yul\":16155:16799   */\n      swap6\n      swap5\n      pop\n      pop\n      pop\n      pop\n      pop\n      jump\t// out\n        /* \"#utility.yul\":16805:16934   */\n    tag_146:\n        /* \"#utility.yul\":16839:16845   */\n      0x00\n        /* \"#utility.yul\":16866:16886   */\n      tag_340\n      tag_341\n      jump\t// in\n    tag_340:\n        /* \"#utility.yul\":16856:16886   */\n      swap1\n      pop\n        /* \"#utility.yul\":16895:16928   */\n      tag_342\n        /* \"#utility.yul\":16923:16927   */\n      dup3\n        /* \"#utility.yul\":16915:16921   */\n      dup3\n        /* \"#utility.yul\":16895:16928   */\n      tag_343\n      jump\t// in\n    tag_342:\n        /* \"#utility.yul\":16805:16934   */\n      swap2\n      swap1\n      pop\n      jump\t// out\n        /* \"#utility.yul\":16940:17015   */\n    tag_341:\n        /* \"#utility.yul\":16973:16979   */\n      0x00\n        /* \"#utility.yul\":17006:17008   */\n      0x40\n        /* \"#utility.yul\":17000:17009   */\n      mload\n        /* \"#utility.yul\":16990:17009   */\n      swap1\n      pop\n        /* \"#utility.yul\":16940:17015   */\n      swap1\n      jump\t// out\n        /* \"#utility.yul\":17021:17329   */\n    tag_145:\n        /* \"#utility.yul\":17083:17087   */\n      0x00\n        /* \"#utility.yul\":17173:17191   */\n      0xffffffffffffffff\n        /* \"#utility.yul\":17165:17171   */\n      dup3\n        /* \"#utility.yul\":17162:17192   */\n      gt\n        /* \"#utility.yul\":17159:17215   */\n      iszero\n      tag_346\n      jumpi\n        /* \"#utility.yul\":17195:17213   */\n      tag_347\n      tag_348\n      jump\t// in\n    tag_347:\n        /* \"#utility.yul\":17159:17215   */\n    tag_346:\n        /* \"#utility.yul\":17233:17262   */\n      tag_349\n        /* \"#utility.yul\":17255:17261   */\n      dup3\n        /* \"#utility.yul\":17233:17262   */\n      tag_238\n      jump\t// in\n    tag_349:\n        /* \"#utility.yul\":17225:17262   */\n      swap1\n      pop\n        /* \"#utility.yul\":17317:17321   */\n      0x20\n        /* \"#utility.yul\":17311:17315   */\n      dup2\n        /* \"#utility.yul\":17307:17322   */\n      add\n        /* \"#utility.yul\":17299:17322   */\n      swap1\n      pop\n        /* \"#utility.yul\":17021:17329   */\n      swap2\n      swap1\n      pop\n      jump\t// out\n        /* \"#utility.yul\":17335:17490   */\n    tag_221:\n        /* \"#utility.yul\":17425:17429   */\n      0x00\n        /* \"#utility.yul\":17448:17451   */\n      dup2\n        /* \"#utility.yul\":17440:17451   */\n      swap1\n      pop\n        /* \"#utility.yul\":17478:17482   */\n      0x20\n        /* \"#utility.yul\":17473:17476   */\n      dup3\n        /* \"#utility.yul\":17469:17483   */\n      add\n        /* \"#utility.yul\":17461:17483   */\n      swap1\n      pop\n        /* \"#utility.yul\":17335:17490   */\n      swap2\n      swap1\n      pop\n      jump\t// out\n        /* \"#utility.yul\":17496:17633   */\n    tag_217:\n        /* \"#utility.yul\":17586:17592   */\n      0x00\n        /* \"#utility.yul\":17620:17625   */\n      dup2\n        /* \"#utility.yul\":17614:17626   */\n      mload\n        /* \"#utility.yul\":17604:17626   */\n      swap1\n      pop\n        /* \"#utility.yul\":17496:17633   */\n      swap2\n      swap1\n      pop\n      jump\t// out\n        /* \"#utility.yul\":17639:17738   */\n    tag_247:\n        /* \"#utility.yul\":17691:17697   */\n      0x00\n        /* \"#utility.yul\":17725:17730   */\n      dup2\n        /* \"#utility.yul\":17719:17731   */\n      mload\n        /* \"#utility.yul\":17709:17731   */\n      swap1\n      pop\n        /* \"#utility.yul\":17639:17738   */\n      swap2\n      swap1\n      pop\n      jump\t// out\n        /* \"#utility.yul\":17744:17880   */\n    tag_227:\n        /* \"#utility.yul\":17837:17841   */\n      0x00\n        /* \"#utility.yul\":17869:17873   */\n      0x20\n        /* \"#utility.yul\":17864:17867   */\n      dup3\n        /* \"#utility.yul\":17860:17874   */\n      add\n        /* \"#utility.yul\":17852:17874   */\n      swap1\n      pop\n        /* \"#utility.yul\":17744:17880   */\n      swap2\n      swap1\n      pop\n      jump\t// out\n        /* \"#utility.yul\":17886:18093   */\n    tag_219:\n        /* \"#utility.yul\":18008:18019   */\n      0x00\n        /* \"#utility.yul\":18042:18048   */\n      dup3\n        /* \"#utility.yul\":18037:18040   */\n      dup3\n        /* \"#utility.yul\":18030:18049   */\n      mstore\n        /* \"#utility.yul\":18082:18086   */\n      0x20\n        /* \"#utility.yul\":18077:18080   */\n      dup3\n        /* \"#utility.yul\":18073:18087   */\n      add\n        /* \"#utility.yul\":18058:18087   */\n      swap1\n      pop\n        /* \"#utility.yul\":17886:18093   */\n      swap3\n      swap2\n      pop\n      pop\n      jump\t// out\n        /* \"#utility.yul\":18099:18258   */\n    tag_249:\n        /* \"#utility.yul\":18173:18184   */\n      0x00\n        /* \"#utility.yul\":18207:18213   */\n      dup3\n        /* \"#utility.yul\":18202:18205   */\n      dup3\n        /* \"#utility.yul\":18195:18214   */\n      mstore\n        /* \"#utility.yul\":18247:18251   */\n      0x20\n        /* \"#utility.yul\":18242:18245   */\n      dup3\n        /* \"#utility.yul\":18238:18252   */\n      add\n        /* \"#utility.yul\":18223:18252   */\n      swap1\n      pop\n        /* \"#utility.yul\":18099:18258   */\n      swap3\n      swap2\n      pop\n      pop\n      jump\t// out\n        /* \"#utility.yul\":18264:18433   */\n    tag_235:\n        /* \"#utility.yul\":18348:18359   */\n      0x00\n        /* \"#utility.yul\":18382:18388   */\n      dup3\n        /* \"#utility.yul\":18377:18380   */\n      dup3\n        /* \"#utility.yul\":18370:18389   */\n      mstore\n        /* \"#utility.yul\":18422:18426   */\n      0x20\n        /* \"#utility.yul\":18417:18420   */\n      dup3\n        /* \"#utility.yul\":18413:18427   */\n      add\n        /* \"#utility.yul\":18398:18427   */\n      swap1\n      pop\n        /* \"#utility.yul\":18264:18433   */\n      swap3\n      swap2\n      pop\n      pop\n      jump\t// out\n        /* \"#utility.yul\":18439:18587   */\n    tag_242:\n        /* \"#utility.yul\":18541:18552   */\n      0x00\n        /* \"#utility.yul\":18578:18581   */\n      dup2\n        /* \"#utility.yul\":18563:18581   */\n      swap1\n      pop\n        /* \"#utility.yul\":18439:18587   */\n      swap3\n      swap2\n      pop\n      pop\n      jump\t// out\n        /* \"#utility.yul\":18593:18941   */\n    tag_95:\n        /* \"#utility.yul\":18633:18640   */\n      0x00\n        /* \"#utility.yul\":18656:18676   */\n      tag_359\n        /* \"#utility.yul\":18674:18675   */\n      dup3\n        /* \"#utility.yul\":18656:18676   */\n      tag_302\n      jump\t// in\n    tag_359:\n        /* \"#utility.yul\":18651:18676   */\n      swap2\n      pop\n        /* \"#utility.yul\":18690:18710   */\n      tag_360\n        /* \"#utility.yul\":18708:18709   */\n      dup4\n        /* \"#utility.yul\":18690:18710   */\n      tag_302\n      jump\t// in\n    tag_360:\n        /* \"#utility.yul\":18685:18710   */\n      swap3\n      pop\n        /* \"#utility.yul\":18878:18879   */\n      dup2\n        /* \"#utility.yul\":18810:18876   */\n      0xffffffffffffffffffffffffffffffffffffffffffffffffffffffffffffffff\n        /* \"#utility.yul\":18806:18880   */\n      div\n        /* \"#utility.yul\":18803:18804   */\n      dup4\n        /* \"#utility.yul\":18800:18881   */\n      gt\n        /* \"#utility.yul\":18795:18796   */\n      dup3\n        /* \"#utility.yul\":18788:18797   */\n      iszero\n        /* \"#utility.yul\":18781:18798   */\n      iszero\n        /* \"#utility.yul\":18777:18882   */\n      and\n        /* \"#utility.yul\":18774:18905   */\n      iszero\n      tag_361\n      jumpi\n        /* \"#utility.yul\":18885:18903   */\n      tag_362\n      tag_363\n      jump\t// in\n    tag_362:\n        /* \"#utility.yul\":18774:18905   */\n    tag_361:\n        /* \"#utility.yul\":18933:18934   */\n      dup3\n        /* \"#utility.yul\":18930:18931   */\n      dup3\n        /* \"#utility.yul\":18926:18935   */\n      mul\n        /* \"#utility.yul\":18915:18935   */\n      swap1\n      pop\n        /* \"#utility.yul\":18593:18941   */\n      swap3\n      swap2\n      pop\n      pop\n      jump\t// out\n        /* \"#utility.yul\":18947:19138   */\n    tag_102:\n        /* \"#utility.yul\":18987:18991   */\n      0x00\n        /* \"#utility.yul\":19007:19027   */\n      tag_365\n        /* \"#utility.yul\":19025:19026   */\n      dup3\n        /* \"#utility.yul\":19007:19027   */\n      tag_302\n      jump\t// in\n    tag_365:\n        /* \"#utility.yul\":19002:19027   */\n      swap2\n      pop\n        /* \"#utility.yul\":19041:19061   */\n      tag_366\n        /* \"#utility.yul\":19059:19060   */\n      dup4\n        /* \"#utility.yul\":19041:19061   */\n      tag_302\n      jump\t// in\n    tag_366:\n        /* \"#utility.yul\":19036:19061   */\n      swap3\n      pop\n        /* \"#utility.yul\":19080:19081   */\n      dup3\n        /* \"#utility.yul\":19077:19078   */\n      dup3\n        /* \"#utility.yul\":19074:19082   */\n      lt\n        /* \"#utility.yul\":19071:19105   */\n      iszero\n      tag_367\n      jumpi\n        /* \"#utility.yul\":19085:19103   */\n      tag_368\n      tag_363\n      jump\t// in\n    tag_368:\n        /* \"#utility.yul\":19071:19105   */\n    tag_367:\n        /* \"#utility.yul\":19130:19131   */\n      dup3\n        /* \"#utility.yul\":19127:19128   */\n      dup3\n        /* \"#utility.yul\":19123:19132   */\n      sub\n        /* \"#utility.yul\":19115:19132   */\n      swap1\n      pop\n        /* \"#utility.yul\":18947:19138   */\n      swap3\n      swap2\n      pop\n      pop\n      jump\t// out\n        /* \"#utility.yul\":19144:19240   */\n    tag_213:\n        /* \"#utility.yul\":19181:19188   */\n      0x00\n        /* \"#utility.yul\":19210:19234   */\n      tag_370\n        /* \"#utility.yul\":19228:19233   */\n      dup3\n        /* \"#utility.yul\":19210:19234   */\n      tag_371\n      jump\t// in\n    tag_370:\n        /* \"#utility.yul\":19199:19234   */\n      swap1\n      pop\n        /* \"#utility.yul\":19144:19240   */\n      swap2\n      swap1\n      pop\n      jump\t// out\n        /* \"#utility.yul\":19246:19336   */\n    tag_231:\n        /* \"#utility.yul\":19280:19287   */\n      0x00\n        /* \"#utility.yul\":19323:19328   */\n      dup2\n        /* \"#utility.yul\":19316:19329   */\n      iszero\n        /* \"#utility.yul\":19309:19330   */\n      iszero\n        /* \"#utility.yul\":19298:19330   */\n      swap1\n      pop\n        /* \"#utility.yul\":19246:19336   */\n      swap2\n      swap1\n      pop\n      jump\t// out\n        /* \"#utility.yul\":19342:19468   */\n    tag_371:\n        /* \"#utility.yul\":19379:19386   */\n      0x00\n        /* \"#utility.yul\":19419:19461   */\n      0xffffffffffffffffffffffffffffffffffffffff\n        /* \"#utility.yul\":19412:19417   */\n      dup3\n        /* \"#utility.yul\":19408:19462   */\n      and\n        /* \"#utility.yul\":19397:19462   */\n      swap1\n      pop\n        /* \"#utility.yul\":19342:19468   */\n      swap2\n      swap1\n      pop\n      jump\t// out\n        /* \"#utility.yul\":19474:19551   */\n    tag_302:\n        /* \"#utility.yul\":19511:19518   */\n      0x00\n        /* \"#utility.yul\":19540:19545   */\n      dup2\n        /* \"#utility.yul\":19529:19545   */\n      swap1\n      pop\n        /* \"#utility.yul\":19474:19551   */\n      swap2\n      swap1\n      pop\n      jump\t// out\n        /* \"#utility.yul\":19557:19711   */\n    tag_151:\n        /* \"#utility.yul\":19641:19647   */\n      dup3\n        /* \"#utility.yul\":19636:19639   */\n      dup2\n        /* \"#utility.yul\":19631:19634   */\n      dup4\n        /* \"#utility.yul\":19618:19648   */\n      calldatacopy\n        /* \"#utility.yul\":19703:19704   */\n      0x00\n        /* \"#utility.yul\":19694:19700   */\n      dup4\n        /* \"#utility.yul\":19689:19692   */\n      dup4\n        /* \"#utility.yul\":19685:19701   */\n      add\n        /* \"#utility.yul\":19678:19705   */\n      mstore\n        /* \"#utility.yul\":19557:19711   */\n      pop\n      pop\n      pop\n      jump\t// out\n        /* \"#utility.yul\":19717:20024   */\n    tag_251:\n        /* \"#utility.yul\":19785:19786   */\n      0x00\n        /* \"#utility.yul\":19795:19908   */\n    tag_377:\n        /* \"#utility.yul\":19809:19815   */\n      dup4\n        /* \"#utility.yul\":19806:19807   */\n      dup2\n        /* \"#utility.yul\":19803:19816   */\n      lt\n        /* \"#utility.yul\":19795:19908   */\n      iszero\n      tag_379\n      jumpi\n        /* \"#utility.yul\":19894:19895   */\n      dup1\n        /* \"#utility.yul\":19889:19892   */\n      dup3\n        /* \"#utility.yul\":19885:19896   */\n      add\n        /* \"#utility.yul\":19879:19897   */\n      mload\n        /* \"#utility.yul\":19875:19876   */\n      dup2\n        /* \"#utility.yul\":19870:19873   */\n      dup5\n        /* \"#utility.yul\":19866:19877   */\n      add\n        /* \"#utility.yul\":19859:19898   */\n      mstore\n        /* \"#utility.yul\":19831:19833   */\n      0x20\n        /* \"#utility.yul\":19828:19829   */\n      dup2\n        /* \"#utility.yul\":19824:19834   */\n      add\n        /* \"#utility.yul\":19819:19834   */\n      swap1\n      pop\n        /* \"#utility.yul\":19795:19908   */\n      jump(tag_377)\n    tag_379:\n        /* \"#utility.yul\":19926:19932   */\n      dup4\n        /* \"#utility.yul\":19923:19924   */\n      dup2\n        /* \"#utility.yul\":19920:19933   */\n      gt\n        /* \"#utility.yul\":19917:20018   */\n      iszero\n      tag_380\n      jumpi\n        /* \"#utility.yul\":20006:20007   */\n      0x00\n        /* \"#utility.yul\":19997:20003   */\n      dup5\n        /* \"#utility.yul\":19992:19995   */\n      dup5\n        /* \"#utility.yul\":19988:20004   */\n      add\n        /* \"#utility.yul\":19981:20008   */\n      mstore\n        /* \"#utility.yul\":19917:20018   */\n    tag_380:\n        /* \"#utility.yul\":19766:20024   */\n      pop\n        /* \"#utility.yul\":19717:20024   */\n      pop\n      pop\n      pop\n      jump\t// out\n        /* \"#utility.yul\":20030:20350   */\n    tag_106:\n        /* \"#utility.yul\":20074:20080   */\n      0x00\n        /* \"#utility.yul\":20111:20112   */\n      0x02\n        /* \"#utility.yul\":20105:20109   */\n      dup3\n        /* \"#utility.yul\":20101:20113   */\n      div\n        /* \"#utility.yul\":20091:20113   */\n      swap1\n      pop\n        /* \"#utility.yul\":20158:20159   */\n      0x01\n        /* \"#utility.yul\":20152:20156   */\n      dup3\n        /* \"#utility.yul\":20148:20160   */\n      and\n        /* \"#utility.yul\":20179:20197   */\n      dup1\n        /* \"#utility.yul\":20169:20250   */\n      tag_382\n      jumpi\n        /* \"#utility.yul\":20235:20239   */\n      0x7f\n        /* \"#utility.yul\":20227:20233   */\n      dup3\n        /* \"#utility.yul\":20223:20240   */\n      and\n        /* \"#utility.yul\":20213:20240   */\n      swap2\n      pop\n        /* \"#utility.yul\":20169:20250   */\n    tag_382:\n        /* \"#utility.yul\":20297:20299   */\n      0x20\n        /* \"#utility.yul\":20289:20295   */\n      dup3\n        /* \"#utility.yul\":20286:20300   */\n      lt\n        /* \"#utility.yul\":20266:20284   */\n      dup2\n        /* \"#utility.yul\":20263:20301   */\n      eq\n        /* \"#utility.yul\":20260:20344   */\n      iszero\n      tag_383\n      jumpi\n        /* \"#utility.yul\":20316:20334   */\n      tag_384\n      tag_385\n      jump\t// in\n    tag_384:\n        /* \"#utility.yul\":20260:20344   */\n    tag_383:\n        /* \"#utility.yul\":20081:20350   */\n      pop\n        /* \"#utility.yul\":20030:20350   */\n      swap2\n      swap1\n      pop\n      jump\t// out\n        /* \"#utility.yul\":20356:20637   */\n    tag_343:\n        /* \"#utility.yul\":20439:20466   */\n      tag_387\n        /* \"#utility.yul\":20461:20465   */\n      dup3\n        /* \"#utility.yul\":20439:20466   */\n      tag_238\n      jump\t// in\n    tag_387:\n        /* \"#utility.yul\":20431:20437   */\n      dup2\n        /* \"#utility.yul\":20427:20467   */\n      add\n        /* \"#utility.yul\":20569:20575   */\n      dup2\n        /* \"#utility.yul\":20557:20567   */\n      dup2\n        /* \"#utility.yul\":20554:20576   */\n      lt\n        /* \"#utility.yul\":20533:20551   */\n      0xffffffffffffffff\n        /* \"#utility.yul\":20521:20531   */\n      dup3\n        /* \"#utility.yul\":20518:20552   */\n      gt\n        /* \"#utility.yul\":20515:20577   */\n      or\n        /* \"#utility.yul\":20512:20600   */\n      iszero\n      tag_388\n      jumpi\n        /* \"#utility.yul\":20580:20598   */\n      tag_389\n      tag_348\n      jump\t// in\n    tag_389:\n        /* \"#utility.yul\":20512:20600   */\n    tag_388:\n        /* \"#utility.yul\":20620:20630   */\n      dup1\n        /* \"#utility.yul\":20616:20618   */\n      0x40\n        /* \"#utility.yul\":20609:20631   */\n      mstore\n        /* \"#utility.yul\":20399:20637   */\n      pop\n        /* \"#utility.yul\":20356:20637   */\n      pop\n      pop\n      jump\t// out\n        /* \"#utility.yul\":20643:20823   */\n    tag_363:\n        /* \"#utility.yul\":20691:20768   */\n      0x4e487b7100000000000000000000000000000000000000000000000000000000\n        /* \"#utility.yul\":20688:20689   */\n      0x00\n        /* \"#utility.yul\":20681:20769   */\n      mstore\n        /* \"#utility.yul\":20788:20792   */\n      0x11\n        /* \"#utility.yul\":20785:20786   */\n      0x04\n        /* \"#utility.yul\":20778:20793   */\n      mstore\n        /* \"#utility.yul\":20812:20816   */\n      0x24\n        /* \"#utility.yul\":20809:20810   */\n      0x00\n        /* \"#utility.yul\":20802:20817   */\n      revert\n        /* \"#utility.yul\":20829:21009   */\n    tag_385:\n        /* \"#utility.yul\":20877:20954   */\n      0x4e487b7100000000000000000000000000000000000000000000000000000000\n        /* \"#utility.yul\":20874:20875   */\n      0x00\n        /* \"#utility.yul\":20867:20955   */\n      mstore\n        /* \"#utility.yul\":20974:20978   */\n      0x22\n        /* \"#utility.yul\":20971:20972   */\n      0x04\n        /* \"#utility.yul\":20964:20979   */\n      mstore\n        /* \"#utility.yul\":20998:21002   */\n      0x24\n        /* \"#utility.yul\":20995:20996   */\n      0x00\n        /* \"#utility.yul\":20988:21003   */\n      revert\n        /* \"#utility.yul\":21015:21195   */\n    tag_86:\n        /* \"#utility.yul\":21063:21140   */\n      0x4e487b7100000000000000000000000000000000000000000000000000000000\n        /* \"#utility.yul\":21060:21061   */\n      0x00\n        /* \"#utility.yul\":21053:21141   */\n      mstore\n        /* \"#utility.yul\":21160:21164   */\n      0x32\n        /* \"#utility.yul\":21157:21158   */\n      0x04\n        /* \"#utility.yul\":21150:21165   */\n      mstore\n        /* \"#utility.yul\":21184:21188   */\n      0x24\n        /* \"#utility.yul\":21181:21182   */\n      0x00\n        /* \"#utility.yul\":21174:21189   */\n      revert\n        /* \"#utility.yul\":21201:21381   */\n    tag_348:\n        /* \"#utility.yul\":21249:21326   */\n      0x4e487b7100000000000000000000000000000000000000000000000000000000\n        /* \"#utility.yul\":21246:21247   */\n      0x00\n        /* \"#utility.yul\":21239:21327   */\n      mstore\n        /* \"#utility.yul\":21346:21350   */\n      0x41\n        /* \"#utility.yul\":21343:21344   */\n      0x04\n        /* \"#utility.yul\":21336:21351   */\n      mstore\n        /* \"#utility.yul\":21370:21374   */\n      0x24\n        /* \"#utility.yul\":21367:21368   */\n      0x00\n        /* \"#utility.yul\":21360:21375   */\n      revert\n        /* \"#utility.yul\":21387:21504   */\n    tag_163:\n        /* \"#utility.yul\":21496:21497   */\n      0x00\n        /* \"#utility.yul\":21493:21494   */\n      dup1\n        /* \"#utility.yul\":21486:21498   */\n      revert\n        /* \"#utility.yul\":21510:21627   */\n    tag_160:\n        /* \"#utility.yul\":21619:21620   */\n      0x00\n        /* \"#utility.yul\":21616:21617   */\n      dup1\n        /* \"#utility.yul\":21609:21621   */\n      revert\n        /* \"#utility.yul\":21633:21750   */\n    tag_166:\n        /* \"#utility.yul\":21742:21743   */\n      0x00\n        /* \"#utility.yul\":21739:21740   */\n      dup1\n        /* \"#utility.yul\":21732:21744   */\n      revert\n        /* \"#utility.yul\":21756:21873   */\n    tag_149:\n        /* \"#utility.yul\":21865:21866   */\n      0x00\n        /* \"#utility.yul\":21862:21863   */\n      dup1\n        /* \"#utility.yul\":21855:21867   */\n      revert\n        /* \"#utility.yul\":21879:21996   */\n    tag_182:\n        /* \"#utility.yul\":21988:21989   */\n      0x00\n        /* \"#utility.yul\":21985:21986   */\n      dup1\n        /* \"#utility.yul\":21978:21990   */\n      revert\n        /* \"#utility.yul\":22002:22119   */\n    tag_179:\n        /* \"#utility.yul\":22111:22112   */\n      0x00\n        /* \"#utility.yul\":22108:22109   */\n      dup1\n        /* \"#utility.yul\":22101:22113   */\n      revert\n        /* \"#utility.yul\":22125:22227   */\n    tag_238:\n        /* \"#utility.yul\":22166:22172   */\n      0x00\n        /* \"#utility.yul\":22217:22219   */\n      0x1f\n        /* \"#utility.yul\":22213:22220   */\n      not\n        /* \"#utility.yul\":22208:22210   */\n      0x1f\n        /* \"#utility.yul\":22201:22206   */\n      dup4\n        /* \"#utility.yul\":22197:22211   */\n      add\n        /* \"#utility.yul\":22193:22221   */\n      and\n        /* \"#utility.yul\":22183:22221   */\n      swap1\n      pop\n        /* \"#utility.yul\":22125:22227   */\n      swap2\n      swap1\n      pop\n      jump\t// out\n        /* \"#utility.yul\":22233:22405   */\n    tag_263:\n        /* \"#utility.yul\":22373:22397   */\n      0x596f7520617265206e6f7420746865206f776e65722100000000000000000000\n        /* \"#utility.yul\":22369:22370   */\n      0x00\n        /* \"#utility.yul\":22361:22367   */\n      dup3\n        /* \"#utility.yul\":22357:22371   */\n      add\n        /* \"#utility.yul\":22350:22398   */\n      mstore\n        /* \"#utility.yul\":22233:22405   */\n      pop\n      jump\t// out\n        /* \"#utility.yul\":22411:22643   */\n    tag_268:\n        /* \"#utility.yul\":22551:22585   */\n      0x5468652070726f64756374207175616e74697479206973206c65737320746861\n        /* \"#utility.yul\":22547:22548   */\n      0x00\n        /* \"#utility.yul\":22539:22545   */\n      dup3\n        /* \"#utility.yul\":22535:22549   */\n      add\n        /* \"#utility.yul\":22528:22586   */\n      mstore\n        /* \"#utility.yul\":22620:22635   */\n      0x6e20796f752077616e7465642100000000000000000000000000000000000000\n        /* \"#utility.yul\":22615:22617   */\n      0x20\n        /* \"#utility.yul\":22607:22613   */\n      dup3\n        /* \"#utility.yul\":22603:22618   */\n      add\n        /* \"#utility.yul\":22596:22636   */\n      mstore\n        /* \"#utility.yul\":22411:22643   */\n      pop\n      jump\t// out\n        /* \"#utility.yul\":22649:22952   */\n    tag_273:\n        /* \"#utility.yul\":22789:22823   */\n      0x506c656173652073656e6420746865206578616374207072696365206f662074\n        /* \"#utility.yul\":22785:22786   */\n      0x00\n        /* \"#utility.yul\":22777:22783   */\n      dup3\n        /* \"#utility.yul\":22773:22787   */\n      add\n        /* \"#utility.yul\":22766:22824   */\n      mstore\n        /* \"#utility.yul\":22858:22892   */\n      0x68652070726f64756374206d756c7469706c6965642062792074686520717561\n        /* \"#utility.yul\":22853:22855   */\n      0x20\n        /* \"#utility.yul\":22845:22851   */\n      dup3\n        /* \"#utility.yul\":22841:22856   */\n      add\n        /* \"#utility.yul\":22834:22893   */\n      mstore\n        /* \"#utility.yul\":22927:22944   */\n      0x6e7469747920796f752077616e74210000000000000000000000000000000000\n        /* \"#utility.yul\":22922:22924   */\n      0x40\n        /* \"#utility.yul\":22914:22920   */\n      dup3\n        /* \"#utility.yul\":22910:22925   */\n      add\n        /* \"#utility.yul\":22903:22945   */\n      mstore\n        /* \"#utility.yul\":22649:22952   */\n      pop\n      jump\t// out\n        /* \"#utility.yul\":22958:23125   */\n    tag_278:\n        /* \"#utility.yul\":23098:23117   */\n      0x496e76616c6964207175616e7469747921000000000000000000000000000000\n        /* \"#utility.yul\":23094:23095   */\n      0x00\n        /* \"#utility.yul\":23086:23092   */\n      dup3\n        /* \"#utility.yul\":23082:23096   */\n      add\n        /* \"#utility.yul\":23075:23118   */\n      mstore\n        /* \"#utility.yul\":22958:23125   */\n      pop\n      jump\t// out\n        /* \"#utility.yul\":23131:23355   */\n    tag_283:\n        /* \"#utility.yul\":23271:23305   */\n      0x596f75206861766520616c726561647920626f7567687420746869732070726f\n        /* \"#utility.yul\":23267:23268   */\n      0x00\n        /* \"#utility.yul\":23259:23265   */\n      dup3\n        /* \"#utility.yul\":23255:23269   */\n      add\n        /* \"#utility.yul\":23248:23306   */\n      mstore\n        /* \"#utility.yul\":23340:23347   */\n      0x6475637421000000000000000000000000000000000000000000000000000000\n        /* \"#utility.yul\":23335:23337   */\n      0x20\n        /* \"#utility.yul\":23327:23333   */\n      dup3\n        /* \"#utility.yul\":23323:23338   */\n      add\n        /* \"#utility.yul\":23316:23348   */\n      mstore\n        /* \"#utility.yul\":23131:23355   */\n      pop\n      jump\t// out\n        /* \"#utility.yul\":23361:23539   */\n    tag_288:\n        /* \"#utility.yul\":23501:23531   */\n      0x5468652070726f64756374206973206e6f74206578697374696e672100000000\n        /* \"#utility.yul\":23497:23498   */\n      0x00\n        /* \"#utility.yul\":23489:23495   */\n      dup3\n        /* \"#utility.yul\":23485:23499   */\n      add\n        /* \"#utility.yul\":23478:23532   */\n      mstore\n        /* \"#utility.yul\":23361:23539   */\n      pop\n      jump\t// out\n        /* \"#utility.yul\":23545:23768   */\n    tag_293:\n        /* \"#utility.yul\":23685:23719   */\n      0x5468652070726f6475637420697320616c726561647920696e20746865207374\n        /* \"#utility.yul\":23681:23682   */\n      0x00\n        /* \"#utility.yul\":23673:23679   */\n      dup3\n        /* \"#utility.yul\":23669:23683   */\n      add\n        /* \"#utility.yul\":23662:23720   */\n      mstore\n        /* \"#utility.yul\":23754:23760   */\n      0x6f72652100000000000000000000000000000000000000000000000000000000\n        /* \"#utility.yul\":23749:23751   */\n      0x20\n        /* \"#utility.yul\":23741:23747   */\n      dup3\n        /* \"#utility.yul\":23737:23752   */\n      add\n        /* \"#utility.yul\":23730:23761   */\n      mstore\n        /* \"#utility.yul\":23545:23768   */\n      pop\n      jump\t// out\n        /* \"#utility.yul\":23774:23896   */\n    tag_155:\n        /* \"#utility.yul\":23847:23871   */\n      tag_409\n        /* \"#utility.yul\":23865:23870   */\n      dup2\n        /* \"#utility.yul\":23847:23871   */\n      tag_213\n      jump\t// in\n    tag_409:\n        /* \"#utility.yul\":23840:23845   */\n      dup2\n        /* \"#utility.yul\":23837:23872   */\n      eq\n        /* \"#utility.yul\":23827:23890   */\n      tag_410\n      jumpi\n        /* \"#utility.yul\":23886:23887   */\n      0x00\n        /* \"#utility.yul\":23883:23884   */\n      dup1\n        /* \"#utility.yul\":23876:23888   */\n      revert\n        /* \"#utility.yul\":23827:23890   */\n    tag_410:\n        /* \"#utility.yul\":23774:23896   */\n      pop\n      jump\t// out\n        /* \"#utility.yul\":23902:24024   */\n    tag_175:\n        /* \"#utility.yul\":23975:23999   */\n      tag_412\n        /* \"#utility.yul\":23993:23998   */\n      dup2\n        /* \"#utility.yul\":23975:23999   */\n      tag_302\n      jump\t// in\n    tag_412:\n        /* \"#utility.yul\":23968:23973   */\n      dup2\n        /* \"#utility.yul\":23965:24000   */\n      eq\n        /* \"#utility.yul\":23955:24018   */\n      tag_413\n      jumpi\n        /* \"#utility.yul\":24014:24015   */\n      0x00\n        /* \"#utility.yul\":24011:24012   */\n      dup1\n        /* \"#utility.yul\":24004:24016   */\n      revert\n        /* \"#utility.yul\":23955:24018   */\n    tag_413:\n        /* \"#utility.yul\":23902:24024   */\n      pop\n      jump\t// out\n\n    auxdata: 0xa26469706673582212208ef42261cadbb32925678431dc13fe2272fd93c2765695b2b13e686799ac2b6d64736f6c63430008070033\n}\n",
				"bytecode": {
					"linkReferences": {},
					"object": "608060405234801561001057600080fd5b50336000806101000a81548173ffffffffffffffffffffffffffffffffffffffff021916908373ffffffffffffffffffffffffffffffffffffffff1602179055506117f0806100606000396000f3fe60806040526004361061007b5760003560e01c80638da5cb5b1161004e5780638da5cb5b14610142578063c29b2f201461016d578063ccc4174a14610198578063fcc93b0b146101d55761007b565b80630a5bd44b146100805780634c437514146100a957806353b62866146100e65780637acc0b2014610102575b600080fd5b34801561008c57600080fd5b506100a760048036038101906100a29190610c3f565b6101fe565b005b3480156100b557600080fd5b506100d060048036038101906100cb9190610cb3565b61046b565b6040516100dd91906110e0565b60405180910390f35b61010060048036038101906100fb9190610d69565b6104a1565b005b34801561010e57600080fd5b5061012960048036038101906101249190610cfc565b610787565b6040516101399493929190611236565b60405180910390f35b34801561014e57600080fd5b5061015761084f565b60405161016491906110a3565b60405180910390f35b34801561017957600080fd5b50610182610873565b60405161018f91906110be565b60405180910390f35b3480156101a457600080fd5b506101bf60048036038101906101ba9190610d29565b610982565b6040516101cc919061121b565b60405180910390f35b3480156101e157600080fd5b506101fc60048036038101906101f79190610d69565b6109a7565b005b60008054906101000a900473ffffffffffffffffffffffffffffffffffffffff1673ffffffffffffffffffffffffffffffffffffffff163373ffffffffffffffffffffffffffffffffffffffff161461028c576040517f08c379a00000000000000000000000000000000000000000000000000000000081526004016102839061113b565b60405180910390fd5b600084849050141580156102a05750600081115b6102a957600080fd5b600284846040516102bb92919061108a565b908152602001604051809103902060009054906101000a900460ff1615610317576040517f08c379a000000000000000000000000000000000000000000000000000000000815260040161030e906111fb565b60405180910390fd5b6000600180549050905060016002868660405161033592919061108a565b908152602001604051809103902060006101000a81548160ff0219169083151502179055506001604051806080016040528083815260200187878080601f016020809104026020016040519081016040528093929190818152602001838380828437600081840152601f19601f820116905080830192505050505050508152602001858152602001848152509080600181540180825580915050600190039060005260206000209060040201600090919091909150600082015181600001556020820151816001019080519060200190610410929190610aac565b50604082015181600201556060820151816003015550507faf15189af1861da85d7d959da20a528553cf2d64fc75f6fc7f6894097e9e9cf18585858560405161045c94939291906110fb565b60405180910390a15050505050565b6002818051602081018201805184825260208301602085012081835280955050505050506000915054906101000a900460ff1681565b8160018054905081106104e9576040517f08c379a00000000000000000000000000000000000000000000000000000000081526004016104e0906111db565b60405180910390fd5b6000821161052c576040517f08c379a00000000000000000000000000000000000000000000000000000000081526004016105239061119b565b60405180910390fd5b600033905060006003600086815260200190815260200160002060008373ffffffffffffffffffffffffffffffffffffffff1673ffffffffffffffffffffffffffffffffffffffff16815260200190815260200160002054146105c4576040517f08c379a00000000000000000000000000000000000000000000000000000000081526004016105bb906111bb565b60405180910390fd5b6000600185815481106105da576105d9611522565b5b906000526020600020906004020190508381600201541015610631576040517f08c379a00000000000000000000000000000000000000000000000000000000081526004016106289061115b565b60405180910390fd5b6000846001878154811061064857610647611522565b5b9060005260206000209060040201600301546106649190611349565b90508034146106a8576040517f08c379a000000000000000000000000000000000000000000000000000000000815260040161069f9061117b565b60405180910390fd5b60008054906101000a900473ffffffffffffffffffffffffffffffffffffffff1673ffffffffffffffffffffffffffffffffffffffff166108fc829081150290604051600060405180830381858888f1935050505015801561070e573d6000803e3d6000fd5b50846003600088815260200190815260200160002060008573ffffffffffffffffffffffffffffffffffffffff1673ffffffffffffffffffffffffffffffffffffffff168152602001908152602001600020819055508482600201600082825461077891906113a3565b92505081905550505050505050565b6001818154811061079757600080fd5b90600052602060002090600402016000915090508060000154908060010180546107c090611461565b80601f01602080910402602001604051908101604052809291908181526020018280546107ec90611461565b80156108395780601f1061080e57610100808354040283529160200191610839565b820191906000526020600020905b81548152906001019060200180831161081c57829003601f168201915b5050505050908060020154908060030154905084565b60008054906101000a900473ffffffffffffffffffffffffffffffffffffffff1681565b60606001805480602002602001604051908101604052809291908181526020016000905b828210156109795783829060005260206000209060040201604051806080016040529081600082015481526020016001820180546108d490611461565b80601f016020809104026020016040519081016040528092919081815260200182805461090090611461565b801561094d5780601f106109225761010080835404028352916020019161094d565b820191906000526020600020905b81548152906001019060200180831161093057829003601f168201915b505050505081526020016002820154815260200160038201548152505081526020019060010190610897565b50505050905090565b6003602052816000526040600020602052806000526040600020600091509150505481565b60008054906101000a900473ffffffffffffffffffffffffffffffffffffffff1673ffffffffffffffffffffffffffffffffffffffff163373ffffffffffffffffffffffffffffffffffffffff1614610a35576040517f08c379a0000000000000000000000000000000000000000000000000000000008152600401610a2c9061113b565b60405180910390fd5b816001805490508110610a7d576040517f08c379a0000000000000000000000000000000000000000000000000000000008152600401610a74906111db565b60405180910390fd5b8160018481548110610a9257610a91611522565b5b906000526020600020906004020160020181905550505050565b828054610ab890611461565b90600052602060002090601f016020900481019282610ada5760008555610b21565b82601f10610af357805160ff1916838001178555610b21565b82800160010185558215610b21579182015b82811115610b20578251825591602001919060010190610b05565b5b509050610b2e9190610b32565b5090565b5b80821115610b4b576000816000905550600101610b33565b5090565b6000610b62610b5d846112a7565b611282565b905082815260208101848484011115610b7e57610b7d61158f565b5b610b8984828561141f565b509392505050565b600081359050610ba08161178c565b92915050565b60008083601f840112610bbc57610bbb611585565b5b8235905067ffffffffffffffff811115610bd957610bd8611580565b5b602083019150836001820283011115610bf557610bf461158a565b5b9250929050565b600082601f830112610c1157610c10611585565b5b8135610c21848260208601610b4f565b91505092915050565b600081359050610c39816117a3565b92915050565b60008060008060608587031215610c5957610c58611599565b5b600085013567ffffffffffffffff811115610c7757610c76611594565b5b610c8387828801610ba6565b94509450506020610c9687828801610c2a565b9250506040610ca787828801610c2a565b91505092959194509250565b600060208284031215610cc957610cc8611599565b5b600082013567ffffffffffffffff811115610ce757610ce6611594565b5b610cf384828501610bfc565b91505092915050565b600060208284031215610d1257610d11611599565b5b6000610d2084828501610c2a565b91505092915050565b60008060408385031215610d4057610d3f611599565b5b6000610d4e85828601610c2a565b9250506020610d5f85828601610b91565b9150509250929050565b60008060408385031215610d8057610d7f611599565b5b6000610d8e85828601610c2a565b9250506020610d9f85828601610c2a565b9150509250929050565b6000610db58383611009565b905092915050565b610dc6816113d7565b82525050565b6000610dd7826112e8565b610de1818561130b565b935083602082028501610df3856112d8565b8060005b85811015610e2f5784840389528151610e108582610da9565b9450610e1b836112fe565b925060208a01995050600181019050610df7565b50829750879550505050505092915050565b610e4a816113e9565b82525050565b6000610e5c838561132d565b9350610e6983858461141f565b610e728361159e565b840190509392505050565b6000610e89838561133e565b9350610e9683858461141f565b82840190509392505050565b6000610ead826112f3565b610eb7818561131c565b9350610ec781856020860161142e565b610ed08161159e565b840191505092915050565b6000610ee6826112f3565b610ef0818561132d565b9350610f0081856020860161142e565b610f098161159e565b840191505092915050565b6000610f2160168361132d565b9150610f2c826115af565b602082019050919050565b6000610f44602d8361132d565b9150610f4f826115d8565b604082019050919050565b6000610f67604f8361132d565b9150610f7282611627565b606082019050919050565b6000610f8a60118361132d565b9150610f958261169c565b602082019050919050565b6000610fad60258361132d565b9150610fb8826116c5565b604082019050919050565b6000610fd0601c8361132d565b9150610fdb82611714565b602082019050919050565b6000610ff360248361132d565b9150610ffe8261173d565b604082019050919050565b6000608083016000830151611021600086018261106c565b50602083015184820360208601526110398282610ea2565b915050604083015161104e604086018261106c565b506060830151611061606086018261106c565b508091505092915050565b61107581611415565b82525050565b61108481611415565b82525050565b6000611097828486610e7d565b91508190509392505050565b60006020820190506110b86000830184610dbd565b92915050565b600060208201905081810360008301526110d88184610dcc565b905092915050565b60006020820190506110f56000830184610e41565b92915050565b60006060820190508181036000830152611116818688610e50565b9050611125602083018561107b565b611132604083018461107b565b95945050505050565b6000602082019050818103600083015261115481610f14565b9050919050565b6000602082019050818103600083015261117481610f37565b9050919050565b6000602082019050818103600083015261119481610f5a565b9050919050565b600060208201905081810360008301526111b481610f7d565b9050919050565b600060208201905081810360008301526111d481610fa0565b9050919050565b600060208201905081810360008301526111f481610fc3565b9050919050565b6000602082019050818103600083015261121481610fe6565b9050919050565b6000602082019050611230600083018461107b565b92915050565b600060808201905061124b600083018761107b565b818103602083015261125d8186610edb565b905061126c604083018561107b565b611279606083018461107b565b95945050505050565b600061128c61129d565b90506112988282611493565b919050565b6000604051905090565b600067ffffffffffffffff8211156112c2576112c1611551565b5b6112cb8261159e565b9050602081019050919050565b6000819050602082019050919050565b600081519050919050565b600081519050919050565b6000602082019050919050565b600082825260208201905092915050565b600082825260208201905092915050565b600082825260208201905092915050565b600081905092915050565b600061135482611415565b915061135f83611415565b9250817fffffffffffffffffffffffffffffffffffffffffffffffffffffffffffffffff0483118215151615611398576113976114c4565b5b828202905092915050565b60006113ae82611415565b91506113b983611415565b9250828210156113cc576113cb6114c4565b5b828203905092915050565b60006113e2826113f5565b9050919050565b60008115159050919050565b600073ffffffffffffffffffffffffffffffffffffffff82169050919050565b6000819050919050565b82818337600083830152505050565b60005b8381101561144c578082015181840152602081019050611431565b8381111561145b576000848401525b50505050565b6000600282049050600182168061147957607f821691505b6020821081141561148d5761148c6114f3565b5b50919050565b61149c8261159e565b810181811067ffffffffffffffff821117156114bb576114ba611551565b5b80604052505050565b7f4e487b7100000000000000000000000000000000000000000000000000000000600052601160045260246000fd5b7f4e487b7100000000000000000000000000000000000000000000000000000000600052602260045260246000fd5b7f4e487b7100000000000000000000000000000000000000000000000000000000600052603260045260246000fd5b7f4e487b7100000000000000000000000000000000000000000000000000000000600052604160045260246000fd5b600080fd5b600080fd5b600080fd5b600080fd5b600080fd5b600080fd5b6000601f19601f8301169050919050565b7f596f7520617265206e6f7420746865206f776e65722100000000000000000000600082015250565b7f5468652070726f64756374207175616e74697479206973206c6573732074686160008201527f6e20796f752077616e7465642100000000000000000000000000000000000000602082015250565b7f506c656173652073656e6420746865206578616374207072696365206f66207460008201527f68652070726f64756374206d756c7469706c696564206279207468652071756160208201527f6e7469747920796f752077616e74210000000000000000000000000000000000604082015250565b7f496e76616c6964207175616e7469747921000000000000000000000000000000600082015250565b7f596f75206861766520616c726561647920626f7567687420746869732070726f60008201527f6475637421000000000000000000000000000000000000000000000000000000602082015250565b7f5468652070726f64756374206973206e6f74206578697374696e672100000000600082015250565b7f5468652070726f6475637420697320616c726561647920696e2074686520737460008201527f6f72652100000000000000000000000000000000000000000000000000000000602082015250565b611795816113d7565b81146117a057600080fd5b50565b6117ac81611415565b81146117b757600080fd5b5056fea26469706673582212208ef42261cadbb32925678431dc13fe2272fd93c2765695b2b13e686799ac2b6d64736f6c63430008070033",
					"opcodes": "PUSH1 0x80 PUSH1 0x40 MSTORE CALLVALUE DUP1 ISZERO PUSH2 0x10 JUMPI PUSH1 0x0 DUP1 REVERT JUMPDEST POP CALLER PUSH1 0x0 DUP1 PUSH2 0x100 EXP DUP2 SLOAD DUP2 PUSH20 0xFFFFFFFFFFFFFFFFFFFFFFFFFFFFFFFFFFFFFFFF MUL NOT AND SWAP1 DUP4 PUSH20 0xFFFFFFFFFFFFFFFFFFFFFFFFFFFFFFFFFFFFFFFF AND MUL OR SWAP1 SSTORE POP PUSH2 0x17F0 DUP1 PUSH2 0x60 PUSH1 0x0 CODECOPY PUSH1 0x0 RETURN INVALID PUSH1 0x80 PUSH1 0x40 MSTORE PUSH1 0x4 CALLDATASIZE LT PUSH2 0x7B JUMPI PUSH1 0x0 CALLDATALOAD PUSH1 0xE0 SHR DUP1 PUSH4 0x8DA5CB5B GT PUSH2 0x4E JUMPI DUP1 PUSH4 0x8DA5CB5B EQ PUSH2 0x142 JUMPI DUP1 PUSH4 0xC29B2F20 EQ PUSH2 0x16D JUMPI DUP1 PUSH4 0xCCC4174A EQ PUSH2 0x198 JUMPI DUP1 PUSH4 0xFCC93B0B EQ PUSH2 0x1D5 JUMPI PUSH2 0x7B JUMP JUMPDEST DUP1 PUSH4 0xA5BD44B EQ PUSH2 0x80 JUMPI DUP1 PUSH4 0x4C437514 EQ PUSH2 0xA9 JUMPI DUP1 PUSH4 0x53B62866 EQ PUSH2 0xE6 JUMPI DUP1 PUSH4 0x7ACC0B20 EQ PUSH2 0x102 JUMPI JUMPDEST PUSH1 0x0 DUP1 REVERT JUMPDEST CALLVALUE DUP1 ISZERO PUSH2 0x8C JUMPI PUSH1 0x0 DUP1 REVERT JUMPDEST POP PUSH2 0xA7 PUSH1 0x4 DUP1 CALLDATASIZE SUB DUP2 ADD SWAP1 PUSH2 0xA2 SWAP2 SWAP1 PUSH2 0xC3F JUMP JUMPDEST PUSH2 0x1FE JUMP JUMPDEST STOP JUMPDEST CALLVALUE DUP1 ISZERO PUSH2 0xB5 JUMPI PUSH1 0x0 DUP1 REVERT JUMPDEST POP PUSH2 0xD0 PUSH1 0x4 DUP1 CALLDATASIZE SUB DUP2 ADD SWAP1 PUSH2 0xCB SWAP2 SWAP1 PUSH2 0xCB3 JUMP JUMPDEST PUSH2 0x46B JUMP JUMPDEST PUSH1 0x40 MLOAD PUSH2 0xDD SWAP2 SWAP1 PUSH2 0x10E0 JUMP JUMPDEST PUSH1 0x40 MLOAD DUP1 SWAP2 SUB SWAP1 RETURN JUMPDEST PUSH2 0x100 PUSH1 0x4 DUP1 CALLDATASIZE SUB DUP2 ADD SWAP1 PUSH2 0xFB SWAP2 SWAP1 PUSH2 0xD69 JUMP JUMPDEST PUSH2 0x4A1 JUMP JUMPDEST STOP JUMPDEST CALLVALUE DUP1 ISZERO PUSH2 0x10E JUMPI PUSH1 0x0 DUP1 REVERT JUMPDEST POP PUSH2 0x129 PUSH1 0x4 DUP1 CALLDATASIZE SUB DUP2 ADD SWAP1 PUSH2 0x124 SWAP2 SWAP1 PUSH2 0xCFC JUMP JUMPDEST PUSH2 0x787 JUMP JUMPDEST PUSH1 0x40 MLOAD PUSH2 0x139 SWAP5 SWAP4 SWAP3 SWAP2 SWAP1 PUSH2 0x1236 JUMP JUMPDEST PUSH1 0x40 MLOAD DUP1 SWAP2 SUB SWAP1 RETURN JUMPDEST CALLVALUE DUP1 ISZERO PUSH2 0x14E JUMPI PUSH1 0x0 DUP1 REVERT JUMPDEST POP PUSH2 0x157 PUSH2 0x84F JUMP JUMPDEST PUSH1 0x40 MLOAD PUSH2 0x164 SWAP2 SWAP1 PUSH2 0x10A3 JUMP JUMPDEST PUSH1 0x40 MLOAD DUP1 SWAP2 SUB SWAP1 RETURN JUMPDEST CALLVALUE DUP1 ISZERO PUSH2 0x179 JUMPI PUSH1 0x0 DUP1 REVERT JUMPDEST POP PUSH2 0x182 PUSH2 0x873 JUMP JUMPDEST PUSH1 0x40 MLOAD PUSH2 0x18F SWAP2 SWAP1 PUSH2 0x10BE JUMP JUMPDEST PUSH1 0x40 MLOAD DUP1 SWAP2 SUB SWAP1 RETURN JUMPDEST CALLVALUE DUP1 ISZERO PUSH2 0x1A4 JUMPI PUSH1 0x0 DUP1 REVERT JUMPDEST POP PUSH2 0x1BF PUSH1 0x4 DUP1 CALLDATASIZE SUB DUP2 ADD SWAP1 PUSH2 0x1BA SWAP2 SWAP1 PUSH2 0xD29 JUMP JUMPDEST PUSH2 0x982 JUMP JUMPDEST PUSH1 0x40 MLOAD PUSH2 0x1CC SWAP2 SWAP1 PUSH2 0x121B JUMP JUMPDEST PUSH1 0x40 MLOAD DUP1 SWAP2 SUB SWAP1 RETURN JUMPDEST CALLVALUE DUP1 ISZERO PUSH2 0x1E1 JUMPI PUSH1 0x0 DUP1 REVERT JUMPDEST POP PUSH2 0x1FC PUSH1 0x4 DUP1 CALLDATASIZE SUB DUP2 ADD SWAP1 PUSH2 0x1F7 SWAP2 SWAP1 PUSH2 0xD69 JUMP JUMPDEST PUSH2 0x9A7 JUMP JUMPDEST STOP JUMPDEST PUSH1 0x0 DUP1 SLOAD SWAP1 PUSH2 0x100 EXP SWAP1 DIV PUSH20 0xFFFFFFFFFFFFFFFFFFFFFFFFFFFFFFFFFFFFFFFF AND PUSH20 0xFFFFFFFFFFFFFFFFFFFFFFFFFFFFFFFFFFFFFFFF AND CALLER PUSH20 0xFFFFFFFFFFFFFFFFFFFFFFFFFFFFFFFFFFFFFFFF AND EQ PUSH2 0x28C JUMPI PUSH1 0x40 MLOAD PUSH32 0x8C379A000000000000000000000000000000000000000000000000000000000 DUP2 MSTORE PUSH1 0x4 ADD PUSH2 0x283 SWAP1 PUSH2 0x113B JUMP JUMPDEST PUSH1 0x40 MLOAD DUP1 SWAP2 SUB SWAP1 REVERT JUMPDEST PUSH1 0x0 DUP5 DUP5 SWAP1 POP EQ ISZERO DUP1 ISZERO PUSH2 0x2A0 JUMPI POP PUSH1 0x0 DUP2 GT JUMPDEST PUSH2 0x2A9 JUMPI PUSH1 0x0 DUP1 REVERT JUMPDEST PUSH1 0x2 DUP5 DUP5 PUSH1 0x40 MLOAD PUSH2 0x2BB SWAP3 SWAP2 SWAP1 PUSH2 0x108A JUMP JUMPDEST SWAP1 DUP2 MSTORE PUSH1 0x20 ADD PUSH1 0x40 MLOAD DUP1 SWAP2 SUB SWAP1 KECCAK256 PUSH1 0x0 SWAP1 SLOAD SWAP1 PUSH2 0x100 EXP SWAP1 DIV PUSH1 0xFF AND ISZERO PUSH2 0x317 JUMPI PUSH1 0x40 MLOAD PUSH32 0x8C379A000000000000000000000000000000000000000000000000000000000 DUP2 MSTORE PUSH1 0x4 ADD PUSH2 0x30E SWAP1 PUSH2 0x11FB JUMP JUMPDEST PUSH1 0x40 MLOAD DUP1 SWAP2 SUB SWAP1 REVERT JUMPDEST PUSH1 0x0 PUSH1 0x1 DUP1 SLOAD SWAP1 POP SWAP1 POP PUSH1 0x1 PUSH1 0x2 DUP7 DUP7 PUSH1 0x40 MLOAD PUSH2 0x335 SWAP3 SWAP2 SWAP1 PUSH2 0x108A JUMP JUMPDEST SWAP1 DUP2 MSTORE PUSH1 0x20 ADD PUSH1 0x40 MLOAD DUP1 SWAP2 SUB SWAP1 KECCAK256 PUSH1 0x0 PUSH2 0x100 EXP DUP2 SLOAD DUP2 PUSH1 0xFF MUL NOT AND SWAP1 DUP4 ISZERO ISZERO MUL OR SWAP1 SSTORE POP PUSH1 0x1 PUSH1 0x40 MLOAD DUP1 PUSH1 0x80 ADD PUSH1 0x40 MSTORE DUP1 DUP4 DUP2 MSTORE PUSH1 0x20 ADD DUP8 DUP8 DUP1 DUP1 PUSH1 0x1F ADD PUSH1 0x20 DUP1 SWAP2 DIV MUL PUSH1 0x20 ADD PUSH1 0x40 MLOAD SWAP1 DUP2 ADD PUSH1 0x40 MSTORE DUP1 SWAP4 SWAP3 SWAP2 SWAP1 DUP2 DUP2 MSTORE PUSH1 0x20 ADD DUP4 DUP4 DUP1 DUP3 DUP5 CALLDATACOPY PUSH1 0x0 DUP2 DUP5 ADD MSTORE PUSH1 0x1F NOT PUSH1 0x1F DUP3 ADD AND SWAP1 POP DUP1 DUP4 ADD SWAP3 POP POP POP POP POP POP POP DUP2 MSTORE PUSH1 0x20 ADD DUP6 DUP2 MSTORE PUSH1 0x20 ADD DUP5 DUP2 MSTORE POP SWAP1 DUP1 PUSH1 0x1 DUP2 SLOAD ADD DUP1 DUP3 SSTORE DUP1 SWAP2 POP POP PUSH1 0x1 SWAP1 SUB SWAP1 PUSH1 0x0 MSTORE PUSH1 0x20 PUSH1 0x0 KECCAK256 SWAP1 PUSH1 0x4 MUL ADD PUSH1 0x0 SWAP1 SWAP2 SWAP1 SWAP2 SWAP1 SWAP2 POP PUSH1 0x0 DUP3 ADD MLOAD DUP2 PUSH1 0x0 ADD SSTORE PUSH1 0x20 DUP3 ADD MLOAD DUP2 PUSH1 0x1 ADD SWAP1 DUP1 MLOAD SWAP1 PUSH1 0x20 ADD SWAP1 PUSH2 0x410 SWAP3 SWAP2 SWAP1 PUSH2 0xAAC JUMP JUMPDEST POP PUSH1 0x40 DUP3 ADD MLOAD DUP2 PUSH1 0x2 ADD SSTORE PUSH1 0x60 DUP3 ADD MLOAD DUP2 PUSH1 0x3 ADD SSTORE POP POP PUSH32 0xAF15189AF1861DA85D7D959DA20A528553CF2D64FC75F6FC7F6894097E9E9CF1 DUP6 DUP6 DUP6 DUP6 PUSH1 0x40 MLOAD PUSH2 0x45C SWAP5 SWAP4 SWAP3 SWAP2 SWAP1 PUSH2 0x10FB JUMP JUMPDEST PUSH1 0x40 MLOAD DUP1 SWAP2 SUB SWAP1 LOG1 POP POP POP POP POP JUMP JUMPDEST PUSH1 0x2 DUP2 DUP1 MLOAD PUSH1 0x20 DUP2 ADD DUP3 ADD DUP1 MLOAD DUP5 DUP3 MSTORE PUSH1 0x20 DUP4 ADD PUSH1 0x20 DUP6 ADD KECCAK256 DUP2 DUP4 MSTORE DUP1 SWAP6 POP POP POP POP POP POP PUSH1 0x0 SWAP2 POP SLOAD SWAP1 PUSH2 0x100 EXP SWAP1 DIV PUSH1 0xFF AND DUP2 JUMP JUMPDEST DUP2 PUSH1 0x1 DUP1 SLOAD SWAP1 POP DUP2 LT PUSH2 0x4E9 JUMPI PUSH1 0x40 MLOAD PUSH32 0x8C379A000000000000000000000000000000000000000000000000000000000 DUP2 MSTORE PUSH1 0x4 ADD PUSH2 0x4E0 SWAP1 PUSH2 0x11DB JUMP JUMPDEST PUSH1 0x40 MLOAD DUP1 SWAP2 SUB SWAP1 REVERT JUMPDEST PUSH1 0x0 DUP3 GT PUSH2 0x52C JUMPI PUSH1 0x40 MLOAD PUSH32 0x8C379A000000000000000000000000000000000000000000000000000000000 DUP2 MSTORE PUSH1 0x4 ADD PUSH2 0x523 SWAP1 PUSH2 0x119B JUMP JUMPDEST PUSH1 0x40 MLOAD DUP1 SWAP2 SUB SWAP1 REVERT JUMPDEST PUSH1 0x0 CALLER SWAP1 POP PUSH1 0x0 PUSH1 0x3 PUSH1 0x0 DUP7 DUP2 MSTORE PUSH1 0x20 ADD SWAP1 DUP2 MSTORE PUSH1 0x20 ADD PUSH1 0x0 KECCAK256 PUSH1 0x0 DUP4 PUSH20 0xFFFFFFFFFFFFFFFFFFFFFFFFFFFFFFFFFFFFFFFF AND PUSH20 0xFFFFFFFFFFFFFFFFFFFFFFFFFFFFFFFFFFFFFFFF AND DUP2 MSTORE PUSH1 0x20 ADD SWAP1 DUP2 MSTORE PUSH1 0x20 ADD PUSH1 0x0 KECCAK256 SLOAD EQ PUSH2 0x5C4 JUMPI PUSH1 0x40 MLOAD PUSH32 0x8C379A000000000000000000000000000000000000000000000000000000000 DUP2 MSTORE PUSH1 0x4 ADD PUSH2 0x5BB SWAP1 PUSH2 0x11BB JUMP JUMPDEST PUSH1 0x40 MLOAD DUP1 SWAP2 SUB SWAP1 REVERT JUMPDEST PUSH1 0x0 PUSH1 0x1 DUP6 DUP2 SLOAD DUP2 LT PUSH2 0x5DA JUMPI PUSH2 0x5D9 PUSH2 0x1522 JUMP JUMPDEST JUMPDEST SWAP1 PUSH1 0x0 MSTORE PUSH1 0x20 PUSH1 0x0 KECCAK256 SWAP1 PUSH1 0x4 MUL ADD SWAP1 POP DUP4 DUP2 PUSH1 0x2 ADD SLOAD LT ISZERO PUSH2 0x631 JUMPI PUSH1 0x40 MLOAD PUSH32 0x8C379A000000000000000000000000000000000000000000000000000000000 DUP2 MSTORE PUSH1 0x4 ADD PUSH2 0x628 SWAP1 PUSH2 0x115B JUMP JUMPDEST PUSH1 0x40 MLOAD DUP1 SWAP2 SUB SWAP1 REVERT JUMPDEST PUSH1 0x0 DUP5 PUSH1 0x1 DUP8 DUP2 SLOAD DUP2 LT PUSH2 0x648 JUMPI PUSH2 0x647 PUSH2 0x1522 JUMP JUMPDEST JUMPDEST SWAP1 PUSH1 0x0 MSTORE PUSH1 0x20 PUSH1 0x0 KECCAK256 SWAP1 PUSH1 0x4 MUL ADD PUSH1 0x3 ADD SLOAD PUSH2 0x664 SWAP2 SWAP1 PUSH2 0x1349 JUMP JUMPDEST SWAP1 POP DUP1 CALLVALUE EQ PUSH2 0x6A8 JUMPI PUSH1 0x40 MLOAD PUSH32 0x8C379A000000000000000000000000000000000000000000000000000000000 DUP2 MSTORE PUSH1 0x4 ADD PUSH2 0x69F SWAP1 PUSH2 0x117B JUMP JUMPDEST PUSH1 0x40 MLOAD DUP1 SWAP2 SUB SWAP1 REVERT JUMPDEST PUSH1 0x0 DUP1 SLOAD SWAP1 PUSH2 0x100 EXP SWAP1 DIV PUSH20 0xFFFFFFFFFFFFFFFFFFFFFFFFFFFFFFFFFFFFFFFF AND PUSH20 0xFFFFFFFFFFFFFFFFFFFFFFFFFFFFFFFFFFFFFFFF AND PUSH2 0x8FC DUP3 SWAP1 DUP2 ISZERO MUL SWAP1 PUSH1 0x40 MLOAD PUSH1 0x0 PUSH1 0x40 MLOAD DUP1 DUP4 SUB DUP2 DUP6 DUP9 DUP9 CALL SWAP4 POP POP POP POP ISZERO DUP1 ISZERO PUSH2 0x70E JUMPI RETURNDATASIZE PUSH1 0x0 DUP1 RETURNDATACOPY RETURNDATASIZE PUSH1 0x0 REVERT JUMPDEST POP DUP5 PUSH1 0x3 PUSH1 0x0 DUP9 DUP2 MSTORE PUSH1 0x20 ADD SWAP1 DUP2 MSTORE PUSH1 0x20 ADD PUSH1 0x0 KECCAK256 PUSH1 0x0 DUP6 PUSH20 0xFFFFFFFFFFFFFFFFFFFFFFFFFFFFFFFFFFFFFFFF AND PUSH20 0xFFFFFFFFFFFFFFFFFFFFFFFFFFFFFFFFFFFFFFFF AND DUP2 MSTORE PUSH1 0x20 ADD SWAP1 DUP2 MSTORE PUSH1 0x20 ADD PUSH1 0x0 KECCAK256 DUP2 SWAP1 SSTORE POP DUP5 DUP3 PUSH1 0x2 ADD PUSH1 0x0 DUP3 DUP3 SLOAD PUSH2 0x778 SWAP2 SWAP1 PUSH2 0x13A3 JUMP JUMPDEST SWAP3 POP POP DUP2 SWAP1 SSTORE POP POP POP POP POP POP POP JUMP JUMPDEST PUSH1 0x1 DUP2 DUP2 SLOAD DUP2 LT PUSH2 0x797 JUMPI PUSH1 0x0 DUP1 REVERT JUMPDEST SWAP1 PUSH1 0x0 MSTORE PUSH1 0x20 PUSH1 0x0 KECCAK256 SWAP1 PUSH1 0x4 MUL ADD PUSH1 0x0 SWAP2 POP SWAP1 POP DUP1 PUSH1 0x0 ADD SLOAD SWAP1 DUP1 PUSH1 0x1 ADD DUP1 SLOAD PUSH2 0x7C0 SWAP1 PUSH2 0x1461 JUMP JUMPDEST DUP1 PUSH1 0x1F ADD PUSH1 0x20 DUP1 SWAP2 DIV MUL PUSH1 0x20 ADD PUSH1 0x40 MLOAD SWAP1 DUP2 ADD PUSH1 0x40 MSTORE DUP1 SWAP3 SWAP2 SWAP1 DUP2 DUP2 MSTORE PUSH1 0x20 ADD DUP3 DUP1 SLOAD PUSH2 0x7EC SWAP1 PUSH2 0x1461 JUMP JUMPDEST DUP1 ISZERO PUSH2 0x839 JUMPI DUP1 PUSH1 0x1F LT PUSH2 0x80E JUMPI PUSH2 0x100 DUP1 DUP4 SLOAD DIV MUL DUP4 MSTORE SWAP2 PUSH1 0x20 ADD SWAP2 PUSH2 0x839 JUMP JUMPDEST DUP3 ADD SWAP2 SWAP1 PUSH1 0x0 MSTORE PUSH1 0x20 PUSH1 0x0 KECCAK256 SWAP1 JUMPDEST DUP2 SLOAD DUP2 MSTORE SWAP1 PUSH1 0x1 ADD SWAP1 PUSH1 0x20 ADD DUP1 DUP4 GT PUSH2 0x81C JUMPI DUP3 SWAP1 SUB PUSH1 0x1F AND DUP3 ADD SWAP2 JUMPDEST POP POP POP POP POP SWAP1 DUP1 PUSH1 0x2 ADD SLOAD SWAP1 DUP1 PUSH1 0x3 ADD SLOAD SWAP1 POP DUP5 JUMP JUMPDEST PUSH1 0x0 DUP1 SLOAD SWAP1 PUSH2 0x100 EXP SWAP1 DIV PUSH20 0xFFFFFFFFFFFFFFFFFFFFFFFFFFFFFFFFFFFFFFFF AND DUP2 JUMP JUMPDEST PUSH1 0x60 PUSH1 0x1 DUP1 SLOAD DUP1 PUSH1 0x20 MUL PUSH1 0x20 ADD PUSH1 0x40 MLOAD SWAP1 DUP2 ADD PUSH1 0x40 MSTORE DUP1 SWAP3 SWAP2 SWAP1 DUP2 DUP2 MSTORE PUSH1 0x20 ADD PUSH1 0x0 SWAP1 JUMPDEST DUP3 DUP3 LT ISZERO PUSH2 0x979 JUMPI DUP4 DUP3 SWAP1 PUSH1 0x0 MSTORE PUSH1 0x20 PUSH1 0x0 KECCAK256 SWAP1 PUSH1 0x4 MUL ADD PUSH1 0x40 MLOAD DUP1 PUSH1 0x80 ADD PUSH1 0x40 MSTORE SWAP1 DUP2 PUSH1 0x0 DUP3 ADD SLOAD DUP2 MSTORE PUSH1 0x20 ADD PUSH1 0x1 DUP3 ADD DUP1 SLOAD PUSH2 0x8D4 SWAP1 PUSH2 0x1461 JUMP JUMPDEST DUP1 PUSH1 0x1F ADD PUSH1 0x20 DUP1 SWAP2 DIV MUL PUSH1 0x20 ADD PUSH1 0x40 MLOAD SWAP1 DUP2 ADD PUSH1 0x40 MSTORE DUP1 SWAP3 SWAP2 SWAP1 DUP2 DUP2 MSTORE PUSH1 0x20 ADD DUP3 DUP1 SLOAD PUSH2 0x900 SWAP1 PUSH2 0x1461 JUMP JUMPDEST DUP1 ISZERO PUSH2 0x94D JUMPI DUP1 PUSH1 0x1F LT PUSH2 0x922 JUMPI PUSH2 0x100 DUP1 DUP4 SLOAD DIV MUL DUP4 MSTORE SWAP2 PUSH1 0x20 ADD SWAP2 PUSH2 0x94D JUMP JUMPDEST DUP3 ADD SWAP2 SWAP1 PUSH1 0x0 MSTORE PUSH1 0x20 PUSH1 0x0 KECCAK256 SWAP1 JUMPDEST DUP2 SLOAD DUP2 MSTORE SWAP1 PUSH1 0x1 ADD SWAP1 PUSH1 0x20 ADD DUP1 DUP4 GT PUSH2 0x930 JUMPI DUP3 SWAP1 SUB PUSH1 0x1F AND DUP3 ADD SWAP2 JUMPDEST POP POP POP POP POP DUP2 MSTORE PUSH1 0x20 ADD PUSH1 0x2 DUP3 ADD SLOAD DUP2 MSTORE PUSH1 0x20 ADD PUSH1 0x3 DUP3 ADD SLOAD DUP2 MSTORE POP POP DUP2 MSTORE PUSH1 0x20 ADD SWAP1 PUSH1 0x1 ADD SWAP1 PUSH2 0x897 JUMP JUMPDEST POP POP POP POP SWAP1 POP SWAP1 JUMP JUMPDEST PUSH1 0x3 PUSH1 0x20 MSTORE DUP2 PUSH1 0x0 MSTORE PUSH1 0x40 PUSH1 0x0 KECCAK256 PUSH1 0x20 MSTORE DUP1 PUSH1 0x0 MSTORE PUSH1 0x40 PUSH1 0x0 KECCAK256 PUSH1 0x0 SWAP2 POP SWAP2 POP POP SLOAD DUP2 JUMP JUMPDEST PUSH1 0x0 DUP1 SLOAD SWAP1 PUSH2 0x100 EXP SWAP1 DIV PUSH20 0xFFFFFFFFFFFFFFFFFFFFFFFFFFFFFFFFFFFFFFFF AND PUSH20 0xFFFFFFFFFFFFFFFFFFFFFFFFFFFFFFFFFFFFFFFF AND CALLER PUSH20 0xFFFFFFFFFFFFFFFFFFFFFFFFFFFFFFFFFFFFFFFF AND EQ PUSH2 0xA35 JUMPI PUSH1 0x40 MLOAD PUSH32 0x8C379A000000000000000000000000000000000000000000000000000000000 DUP2 MSTORE PUSH1 0x4 ADD PUSH2 0xA2C SWAP1 PUSH2 0x113B JUMP JUMPDEST PUSH1 0x40 MLOAD DUP1 SWAP2 SUB SWAP1 REVERT JUMPDEST DUP2 PUSH1 0x1 DUP1 SLOAD SWAP1 POP DUP2 LT PUSH2 0xA7D JUMPI PUSH1 0x40 MLOAD PUSH32 0x8C379A000000000000000000000000000000000000000000000000000000000 DUP2 MSTORE PUSH1 0x4 ADD PUSH2 0xA74 SWAP1 PUSH2 0x11DB JUMP JUMPDEST PUSH1 0x40 MLOAD DUP1 SWAP2 SUB SWAP1 REVERT JUMPDEST DUP2 PUSH1 0x1 DUP5 DUP2 SLOAD DUP2 LT PUSH2 0xA92 JUMPI PUSH2 0xA91 PUSH2 0x1522 JUMP JUMPDEST JUMPDEST SWAP1 PUSH1 0x0 MSTORE PUSH1 0x20 PUSH1 0x0 KECCAK256 SWAP1 PUSH1 0x4 MUL ADD PUSH1 0x2 ADD DUP2 SWAP1 SSTORE POP POP POP POP JUMP JUMPDEST DUP3 DUP1 SLOAD PUSH2 0xAB8 SWAP1 PUSH2 0x1461 JUMP JUMPDEST SWAP1 PUSH1 0x0 MSTORE PUSH1 0x20 PUSH1 0x0 KECCAK256 SWAP1 PUSH1 0x1F ADD PUSH1 0x20 SWAP1 DIV DUP2 ADD SWAP3 DUP3 PUSH2 0xADA JUMPI PUSH1 0x0 DUP6 SSTORE PUSH2 0xB21 JUMP JUMPDEST DUP3 PUSH1 0x1F LT PUSH2 0xAF3 JUMPI DUP1 MLOAD PUSH1 0xFF NOT AND DUP4 DUP1 ADD OR DUP6 SSTORE PUSH2 0xB21 JUMP JUMPDEST DUP3 DUP1 ADD PUSH1 0x1 ADD DUP6 SSTORE DUP3 ISZERO PUSH2 0xB21 JUMPI SWAP2 DUP3 ADD JUMPDEST DUP3 DUP2 GT ISZERO PUSH2 0xB20 JUMPI DUP3 MLOAD DUP3 SSTORE SWAP2 PUSH1 0x20 ADD SWAP2 SWAP1 PUSH1 0x1 ADD SWAP1 PUSH2 0xB05 JUMP JUMPDEST JUMPDEST POP SWAP1 POP PUSH2 0xB2E SWAP2 SWAP1 PUSH2 0xB32 JUMP JUMPDEST POP SWAP1 JUMP JUMPDEST JUMPDEST DUP1 DUP3 GT ISZERO PUSH2 0xB4B JUMPI PUSH1 0x0 DUP2 PUSH1 0x0 SWAP1 SSTORE POP PUSH1 0x1 ADD PUSH2 0xB33 JUMP JUMPDEST POP SWAP1 JUMP JUMPDEST PUSH1 0x0 PUSH2 0xB62 PUSH2 0xB5D DUP5 PUSH2 0x12A7 JUMP JUMPDEST PUSH2 0x1282 JUMP JUMPDEST SWAP1 POP DUP3 DUP2 MSTORE PUSH1 0x20 DUP2 ADD DUP5 DUP5 DUP5 ADD GT ISZERO PUSH2 0xB7E JUMPI PUSH2 0xB7D PUSH2 0x158F JUMP JUMPDEST JUMPDEST PUSH2 0xB89 DUP5 DUP3 DUP6 PUSH2 0x141F JUMP JUMPDEST POP SWAP4 SWAP3 POP POP POP JUMP JUMPDEST PUSH1 0x0 DUP2 CALLDATALOAD SWAP1 POP PUSH2 0xBA0 DUP2 PUSH2 0x178C JUMP JUMPDEST SWAP3 SWAP2 POP POP JUMP JUMPDEST PUSH1 0x0 DUP1 DUP4 PUSH1 0x1F DUP5 ADD SLT PUSH2 0xBBC JUMPI PUSH2 0xBBB PUSH2 0x1585 JUMP JUMPDEST JUMPDEST DUP3 CALLDATALOAD SWAP1 POP PUSH8 0xFFFFFFFFFFFFFFFF DUP2 GT ISZERO PUSH2 0xBD9 JUMPI PUSH2 0xBD8 PUSH2 0x1580 JUMP JUMPDEST JUMPDEST PUSH1 0x20 DUP4 ADD SWAP2 POP DUP4 PUSH1 0x1 DUP3 MUL DUP4 ADD GT ISZERO PUSH2 0xBF5 JUMPI PUSH2 0xBF4 PUSH2 0x158A JUMP JUMPDEST JUMPDEST SWAP3 POP SWAP3 SWAP1 POP JUMP JUMPDEST PUSH1 0x0 DUP3 PUSH1 0x1F DUP4 ADD SLT PUSH2 0xC11 JUMPI PUSH2 0xC10 PUSH2 0x1585 JUMP JUMPDEST JUMPDEST DUP2 CALLDATALOAD PUSH2 0xC21 DUP5 DUP3 PUSH1 0x20 DUP7 ADD PUSH2 0xB4F JUMP JUMPDEST SWAP2 POP POP SWAP3 SWAP2 POP POP JUMP JUMPDEST PUSH1 0x0 DUP2 CALLDATALOAD SWAP1 POP PUSH2 0xC39 DUP2 PUSH2 0x17A3 JUMP JUMPDEST SWAP3 SWAP2 POP POP JUMP JUMPDEST PUSH1 0x0 DUP1 PUSH1 0x0 DUP1 PUSH1 0x60 DUP6 DUP8 SUB SLT ISZERO PUSH2 0xC59 JUMPI PUSH2 0xC58 PUSH2 0x1599 JUMP JUMPDEST JUMPDEST PUSH1 0x0 DUP6 ADD CALLDATALOAD PUSH8 0xFFFFFFFFFFFFFFFF DUP2 GT ISZERO PUSH2 0xC77 JUMPI PUSH2 0xC76 PUSH2 0x1594 JUMP JUMPDEST JUMPDEST PUSH2 0xC83 DUP8 DUP3 DUP9 ADD PUSH2 0xBA6 JUMP JUMPDEST SWAP5 POP SWAP5 POP POP PUSH1 0x20 PUSH2 0xC96 DUP8 DUP3 DUP9 ADD PUSH2 0xC2A JUMP JUMPDEST SWAP3 POP POP PUSH1 0x40 PUSH2 0xCA7 DUP8 DUP3 DUP9 ADD PUSH2 0xC2A JUMP JUMPDEST SWAP2 POP POP SWAP3 SWAP6 SWAP2 SWAP5 POP SWAP3 POP JUMP JUMPDEST PUSH1 0x0 PUSH1 0x20 DUP3 DUP5 SUB SLT ISZERO PUSH2 0xCC9 JUMPI PUSH2 0xCC8 PUSH2 0x1599 JUMP JUMPDEST JUMPDEST PUSH1 0x0 DUP3 ADD CALLDATALOAD PUSH8 0xFFFFFFFFFFFFFFFF DUP2 GT ISZERO PUSH2 0xCE7 JUMPI PUSH2 0xCE6 PUSH2 0x1594 JUMP JUMPDEST JUMPDEST PUSH2 0xCF3 DUP5 DUP3 DUP6 ADD PUSH2 0xBFC JUMP JUMPDEST SWAP2 POP POP SWAP3 SWAP2 POP POP JUMP JUMPDEST PUSH1 0x0 PUSH1 0x20 DUP3 DUP5 SUB SLT ISZERO PUSH2 0xD12 JUMPI PUSH2 0xD11 PUSH2 0x1599 JUMP JUMPDEST JUMPDEST PUSH1 0x0 PUSH2 0xD20 DUP5 DUP3 DUP6 ADD PUSH2 0xC2A JUMP JUMPDEST SWAP2 POP POP SWAP3 SWAP2 POP POP JUMP JUMPDEST PUSH1 0x0 DUP1 PUSH1 0x40 DUP4 DUP6 SUB SLT ISZERO PUSH2 0xD40 JUMPI PUSH2 0xD3F PUSH2 0x1599 JUMP JUMPDEST JUMPDEST PUSH1 0x0 PUSH2 0xD4E DUP6 DUP3 DUP7 ADD PUSH2 0xC2A JUMP JUMPDEST SWAP3 POP POP PUSH1 0x20 PUSH2 0xD5F DUP6 DUP3 DUP7 ADD PUSH2 0xB91 JUMP JUMPDEST SWAP2 POP POP SWAP3 POP SWAP3 SWAP1 POP JUMP JUMPDEST PUSH1 0x0 DUP1 PUSH1 0x40 DUP4 DUP6 SUB SLT ISZERO PUSH2 0xD80 JUMPI PUSH2 0xD7F PUSH2 0x1599 JUMP JUMPDEST JUMPDEST PUSH1 0x0 PUSH2 0xD8E DUP6 DUP3 DUP7 ADD PUSH2 0xC2A JUMP JUMPDEST SWAP3 POP POP PUSH1 0x20 PUSH2 0xD9F DUP6 DUP3 DUP7 ADD PUSH2 0xC2A JUMP JUMPDEST SWAP2 POP POP SWAP3 POP SWAP3 SWAP1 POP JUMP JUMPDEST PUSH1 0x0 PUSH2 0xDB5 DUP4 DUP4 PUSH2 0x1009 JUMP JUMPDEST SWAP1 POP SWAP3 SWAP2 POP POP JUMP JUMPDEST PUSH2 0xDC6 DUP2 PUSH2 0x13D7 JUMP JUMPDEST DUP3 MSTORE POP POP JUMP JUMPDEST PUSH1 0x0 PUSH2 0xDD7 DUP3 PUSH2 0x12E8 JUMP JUMPDEST PUSH2 0xDE1 DUP2 DUP6 PUSH2 0x130B JUMP JUMPDEST SWAP4 POP DUP4 PUSH1 0x20 DUP3 MUL DUP6 ADD PUSH2 0xDF3 DUP6 PUSH2 0x12D8 JUMP JUMPDEST DUP1 PUSH1 0x0 JUMPDEST DUP6 DUP2 LT ISZERO PUSH2 0xE2F JUMPI DUP5 DUP5 SUB DUP10 MSTORE DUP2 MLOAD PUSH2 0xE10 DUP6 DUP3 PUSH2 0xDA9 JUMP JUMPDEST SWAP5 POP PUSH2 0xE1B DUP4 PUSH2 0x12FE JUMP JUMPDEST SWAP3 POP PUSH1 0x20 DUP11 ADD SWAP10 POP POP PUSH1 0x1 DUP2 ADD SWAP1 POP PUSH2 0xDF7 JUMP JUMPDEST POP DUP3 SWAP8 POP DUP8 SWAP6 POP POP POP POP POP POP SWAP3 SWAP2 POP POP JUMP JUMPDEST PUSH2 0xE4A DUP2 PUSH2 0x13E9 JUMP JUMPDEST DUP3 MSTORE POP POP JUMP JUMPDEST PUSH1 0x0 PUSH2 0xE5C DUP4 DUP6 PUSH2 0x132D JUMP JUMPDEST SWAP4 POP PUSH2 0xE69 DUP4 DUP6 DUP5 PUSH2 0x141F JUMP JUMPDEST PUSH2 0xE72 DUP4 PUSH2 0x159E JUMP JUMPDEST DUP5 ADD SWAP1 POP SWAP4 SWAP3 POP POP POP JUMP JUMPDEST PUSH1 0x0 PUSH2 0xE89 DUP4 DUP6 PUSH2 0x133E JUMP JUMPDEST SWAP4 POP PUSH2 0xE96 DUP4 DUP6 DUP5 PUSH2 0x141F JUMP JUMPDEST DUP3 DUP5 ADD SWAP1 POP SWAP4 SWAP3 POP POP POP JUMP JUMPDEST PUSH1 0x0 PUSH2 0xEAD DUP3 PUSH2 0x12F3 JUMP JUMPDEST PUSH2 0xEB7 DUP2 DUP6 PUSH2 0x131C JUMP JUMPDEST SWAP4 POP PUSH2 0xEC7 DUP2 DUP6 PUSH1 0x20 DUP7 ADD PUSH2 0x142E JUMP JUMPDEST PUSH2 0xED0 DUP2 PUSH2 0x159E JUMP JUMPDEST DUP5 ADD SWAP2 POP POP SWAP3 SWAP2 POP POP JUMP JUMPDEST PUSH1 0x0 PUSH2 0xEE6 DUP3 PUSH2 0x12F3 JUMP JUMPDEST PUSH2 0xEF0 DUP2 DUP6 PUSH2 0x132D JUMP JUMPDEST SWAP4 POP PUSH2 0xF00 DUP2 DUP6 PUSH1 0x20 DUP7 ADD PUSH2 0x142E JUMP JUMPDEST PUSH2 0xF09 DUP2 PUSH2 0x159E JUMP JUMPDEST DUP5 ADD SWAP2 POP POP SWAP3 SWAP2 POP POP JUMP JUMPDEST PUSH1 0x0 PUSH2 0xF21 PUSH1 0x16 DUP4 PUSH2 0x132D JUMP JUMPDEST SWAP2 POP PUSH2 0xF2C DUP3 PUSH2 0x15AF JUMP JUMPDEST PUSH1 0x20 DUP3 ADD SWAP1 POP SWAP2 SWAP1 POP JUMP JUMPDEST PUSH1 0x0 PUSH2 0xF44 PUSH1 0x2D DUP4 PUSH2 0x132D JUMP JUMPDEST SWAP2 POP PUSH2 0xF4F DUP3 PUSH2 0x15D8 JUMP JUMPDEST PUSH1 0x40 DUP3 ADD SWAP1 POP SWAP2 SWAP1 POP JUMP JUMPDEST PUSH1 0x0 PUSH2 0xF67 PUSH1 0x4F DUP4 PUSH2 0x132D JUMP JUMPDEST SWAP2 POP PUSH2 0xF72 DUP3 PUSH2 0x1627 JUMP JUMPDEST PUSH1 0x60 DUP3 ADD SWAP1 POP SWAP2 SWAP1 POP JUMP JUMPDEST PUSH1 0x0 PUSH2 0xF8A PUSH1 0x11 DUP4 PUSH2 0x132D JUMP JUMPDEST SWAP2 POP PUSH2 0xF95 DUP3 PUSH2 0x169C JUMP JUMPDEST PUSH1 0x20 DUP3 ADD SWAP1 POP SWAP2 SWAP1 POP JUMP JUMPDEST PUSH1 0x0 PUSH2 0xFAD PUSH1 0x25 DUP4 PUSH2 0x132D JUMP JUMPDEST SWAP2 POP PUSH2 0xFB8 DUP3 PUSH2 0x16C5 JUMP JUMPDEST PUSH1 0x40 DUP3 ADD SWAP1 POP SWAP2 SWAP1 POP JUMP JUMPDEST PUSH1 0x0 PUSH2 0xFD0 PUSH1 0x1C DUP4 PUSH2 0x132D JUMP JUMPDEST SWAP2 POP PUSH2 0xFDB DUP3 PUSH2 0x1714 JUMP JUMPDEST PUSH1 0x20 DUP3 ADD SWAP1 POP SWAP2 SWAP1 POP JUMP JUMPDEST PUSH1 0x0 PUSH2 0xFF3 PUSH1 0x24 DUP4 PUSH2 0x132D JUMP JUMPDEST SWAP2 POP PUSH2 0xFFE DUP3 PUSH2 0x173D JUMP JUMPDEST PUSH1 0x40 DUP3 ADD SWAP1 POP SWAP2 SWAP1 POP JUMP JUMPDEST PUSH1 0x0 PUSH1 0x80 DUP4 ADD PUSH1 0x0 DUP4 ADD MLOAD PUSH2 0x1021 PUSH1 0x0 DUP7 ADD DUP3 PUSH2 0x106C JUMP JUMPDEST POP PUSH1 0x20 DUP4 ADD MLOAD DUP5 DUP3 SUB PUSH1 0x20 DUP7 ADD MSTORE PUSH2 0x1039 DUP3 DUP3 PUSH2 0xEA2 JUMP JUMPDEST SWAP2 POP POP PUSH1 0x40 DUP4 ADD MLOAD PUSH2 0x104E PUSH1 0x40 DUP7 ADD DUP3 PUSH2 0x106C JUMP JUMPDEST POP PUSH1 0x60 DUP4 ADD MLOAD PUSH2 0x1061 PUSH1 0x60 DUP7 ADD DUP3 PUSH2 0x106C JUMP JUMPDEST POP DUP1 SWAP2 POP POP SWAP3 SWAP2 POP POP JUMP JUMPDEST PUSH2 0x1075 DUP2 PUSH2 0x1415 JUMP JUMPDEST DUP3 MSTORE POP POP JUMP JUMPDEST PUSH2 0x1084 DUP2 PUSH2 0x1415 JUMP JUMPDEST DUP3 MSTORE POP POP JUMP JUMPDEST PUSH1 0x0 PUSH2 0x1097 DUP3 DUP5 DUP7 PUSH2 0xE7D JUMP JUMPDEST SWAP2 POP DUP2 SWAP1 POP SWAP4 SWAP3 POP POP POP JUMP JUMPDEST PUSH1 0x0 PUSH1 0x20 DUP3 ADD SWAP1 POP PUSH2 0x10B8 PUSH1 0x0 DUP4 ADD DUP5 PUSH2 0xDBD JUMP JUMPDEST SWAP3 SWAP2 POP POP JUMP JUMPDEST PUSH1 0x0 PUSH1 0x20 DUP3 ADD SWAP1 POP DUP2 DUP2 SUB PUSH1 0x0 DUP4 ADD MSTORE PUSH2 0x10D8 DUP2 DUP5 PUSH2 0xDCC JUMP JUMPDEST SWAP1 POP SWAP3 SWAP2 POP POP JUMP JUMPDEST PUSH1 0x0 PUSH1 0x20 DUP3 ADD SWAP1 POP PUSH2 0x10F5 PUSH1 0x0 DUP4 ADD DUP5 PUSH2 0xE41 JUMP JUMPDEST SWAP3 SWAP2 POP POP JUMP JUMPDEST PUSH1 0x0 PUSH1 0x60 DUP3 ADD SWAP1 POP DUP2 DUP2 SUB PUSH1 0x0 DUP4 ADD MSTORE PUSH2 0x1116 DUP2 DUP7 DUP9 PUSH2 0xE50 JUMP JUMPDEST SWAP1 POP PUSH2 0x1125 PUSH1 0x20 DUP4 ADD DUP6 PUSH2 0x107B JUMP JUMPDEST PUSH2 0x1132 PUSH1 0x40 DUP4 ADD DUP5 PUSH2 0x107B JUMP JUMPDEST SWAP6 SWAP5 POP POP POP POP POP JUMP JUMPDEST PUSH1 0x0 PUSH1 0x20 DUP3 ADD SWAP1 POP DUP2 DUP2 SUB PUSH1 0x0 DUP4 ADD MSTORE PUSH2 0x1154 DUP2 PUSH2 0xF14 JUMP JUMPDEST SWAP1 POP SWAP2 SWAP1 POP JUMP JUMPDEST PUSH1 0x0 PUSH1 0x20 DUP3 ADD SWAP1 POP DUP2 DUP2 SUB PUSH1 0x0 DUP4 ADD MSTORE PUSH2 0x1174 DUP2 PUSH2 0xF37 JUMP JUMPDEST SWAP1 POP SWAP2 SWAP1 POP JUMP JUMPDEST PUSH1 0x0 PUSH1 0x20 DUP3 ADD SWAP1 POP DUP2 DUP2 SUB PUSH1 0x0 DUP4 ADD MSTORE PUSH2 0x1194 DUP2 PUSH2 0xF5A JUMP JUMPDEST SWAP1 POP SWAP2 SWAP1 POP JUMP JUMPDEST PUSH1 0x0 PUSH1 0x20 DUP3 ADD SWAP1 POP DUP2 DUP2 SUB PUSH1 0x0 DUP4 ADD MSTORE PUSH2 0x11B4 DUP2 PUSH2 0xF7D JUMP JUMPDEST SWAP1 POP SWAP2 SWAP1 POP JUMP JUMPDEST PUSH1 0x0 PUSH1 0x20 DUP3 ADD SWAP1 POP DUP2 DUP2 SUB PUSH1 0x0 DUP4 ADD MSTORE PUSH2 0x11D4 DUP2 PUSH2 0xFA0 JUMP JUMPDEST SWAP1 POP SWAP2 SWAP1 POP JUMP JUMPDEST PUSH1 0x0 PUSH1 0x20 DUP3 ADD SWAP1 POP DUP2 DUP2 SUB PUSH1 0x0 DUP4 ADD MSTORE PUSH2 0x11F4 DUP2 PUSH2 0xFC3 JUMP JUMPDEST SWAP1 POP SWAP2 SWAP1 POP JUMP JUMPDEST PUSH1 0x0 PUSH1 0x20 DUP3 ADD SWAP1 POP DUP2 DUP2 SUB PUSH1 0x0 DUP4 ADD MSTORE PUSH2 0x1214 DUP2 PUSH2 0xFE6 JUMP JUMPDEST SWAP1 POP SWAP2 SWAP1 POP JUMP JUMPDEST PUSH1 0x0 PUSH1 0x20 DUP3 ADD SWAP1 POP PUSH2 0x1230 PUSH1 0x0 DUP4 ADD DUP5 PUSH2 0x107B JUMP JUMPDEST SWAP3 SWAP2 POP POP JUMP JUMPDEST PUSH1 0x0 PUSH1 0x80 DUP3 ADD SWAP1 POP PUSH2 0x124B PUSH1 0x0 DUP4 ADD DUP8 PUSH2 0x107B JUMP JUMPDEST DUP2 DUP2 SUB PUSH1 0x20 DUP4 ADD MSTORE PUSH2 0x125D DUP2 DUP7 PUSH2 0xEDB JUMP JUMPDEST SWAP1 POP PUSH2 0x126C PUSH1 0x40 DUP4 ADD DUP6 PUSH2 0x107B JUMP JUMPDEST PUSH2 0x1279 PUSH1 0x60 DUP4 ADD DUP5 PUSH2 0x107B JUMP JUMPDEST SWAP6 SWAP5 POP POP POP POP POP JUMP JUMPDEST PUSH1 0x0 PUSH2 0x128C PUSH2 0x129D JUMP JUMPDEST SWAP1 POP PUSH2 0x1298 DUP3 DUP3 PUSH2 0x1493 JUMP JUMPDEST SWAP2 SWAP1 POP JUMP JUMPDEST PUSH1 0x0 PUSH1 0x40 MLOAD SWAP1 POP SWAP1 JUMP JUMPDEST PUSH1 0x0 PUSH8 0xFFFFFFFFFFFFFFFF DUP3 GT ISZERO PUSH2 0x12C2 JUMPI PUSH2 0x12C1 PUSH2 0x1551 JUMP JUMPDEST JUMPDEST PUSH2 0x12CB DUP3 PUSH2 0x159E JUMP JUMPDEST SWAP1 POP PUSH1 0x20 DUP2 ADD SWAP1 POP SWAP2 SWAP1 POP JUMP JUMPDEST PUSH1 0x0 DUP2 SWAP1 POP PUSH1 0x20 DUP3 ADD SWAP1 POP SWAP2 SWAP1 POP JUMP JUMPDEST PUSH1 0x0 DUP2 MLOAD SWAP1 POP SWAP2 SWAP1 POP JUMP JUMPDEST PUSH1 0x0 DUP2 MLOAD SWAP1 POP SWAP2 SWAP1 POP JUMP JUMPDEST PUSH1 0x0 PUSH1 0x20 DUP3 ADD SWAP1 POP SWAP2 SWAP1 POP JUMP JUMPDEST PUSH1 0x0 DUP3 DUP3 MSTORE PUSH1 0x20 DUP3 ADD SWAP1 POP SWAP3 SWAP2 POP POP JUMP JUMPDEST PUSH1 0x0 DUP3 DUP3 MSTORE PUSH1 0x20 DUP3 ADD SWAP1 POP SWAP3 SWAP2 POP POP JUMP JUMPDEST PUSH1 0x0 DUP3 DUP3 MSTORE PUSH1 0x20 DUP3 ADD SWAP1 POP SWAP3 SWAP2 POP POP JUMP JUMPDEST PUSH1 0x0 DUP2 SWAP1 POP SWAP3 SWAP2 POP POP JUMP JUMPDEST PUSH1 0x0 PUSH2 0x1354 DUP3 PUSH2 0x1415 JUMP JUMPDEST SWAP2 POP PUSH2 0x135F DUP4 PUSH2 0x1415 JUMP JUMPDEST SWAP3 POP DUP2 PUSH32 0xFFFFFFFFFFFFFFFFFFFFFFFFFFFFFFFFFFFFFFFFFFFFFFFFFFFFFFFFFFFFFFFF DIV DUP4 GT DUP3 ISZERO ISZERO AND ISZERO PUSH2 0x1398 JUMPI PUSH2 0x1397 PUSH2 0x14C4 JUMP JUMPDEST JUMPDEST DUP3 DUP3 MUL SWAP1 POP SWAP3 SWAP2 POP POP JUMP JUMPDEST PUSH1 0x0 PUSH2 0x13AE DUP3 PUSH2 0x1415 JUMP JUMPDEST SWAP2 POP PUSH2 0x13B9 DUP4 PUSH2 0x1415 JUMP JUMPDEST SWAP3 POP DUP3 DUP3 LT ISZERO PUSH2 0x13CC JUMPI PUSH2 0x13CB PUSH2 0x14C4 JUMP JUMPDEST JUMPDEST DUP3 DUP3 SUB SWAP1 POP SWAP3 SWAP2 POP POP JUMP JUMPDEST PUSH1 0x0 PUSH2 0x13E2 DUP3 PUSH2 0x13F5 JUMP JUMPDEST SWAP1 POP SWAP2 SWAP1 POP JUMP JUMPDEST PUSH1 0x0 DUP2 ISZERO ISZERO SWAP1 POP SWAP2 SWAP1 POP JUMP JUMPDEST PUSH1 0x0 PUSH20 0xFFFFFFFFFFFFFFFFFFFFFFFFFFFFFFFFFFFFFFFF DUP3 AND SWAP1 POP SWAP2 SWAP1 POP JUMP JUMPDEST PUSH1 0x0 DUP2 SWAP1 POP SWAP2 SWAP1 POP JUMP JUMPDEST DUP3 DUP2 DUP4 CALLDATACOPY PUSH1 0x0 DUP4 DUP4 ADD MSTORE POP POP POP JUMP JUMPDEST PUSH1 0x0 JUMPDEST DUP4 DUP2 LT ISZERO PUSH2 0x144C JUMPI DUP1 DUP3 ADD MLOAD DUP2 DUP5 ADD MSTORE PUSH1 0x20 DUP2 ADD SWAP1 POP PUSH2 0x1431 JUMP JUMPDEST DUP4 DUP2 GT ISZERO PUSH2 0x145B JUMPI PUSH1 0x0 DUP5 DUP5 ADD MSTORE JUMPDEST POP POP POP POP JUMP JUMPDEST PUSH1 0x0 PUSH1 0x2 DUP3 DIV SWAP1 POP PUSH1 0x1 DUP3 AND DUP1 PUSH2 0x1479 JUMPI PUSH1 0x7F DUP3 AND SWAP2 POP JUMPDEST PUSH1 0x20 DUP3 LT DUP2 EQ ISZERO PUSH2 0x148D JUMPI PUSH2 0x148C PUSH2 0x14F3 JUMP JUMPDEST JUMPDEST POP SWAP2 SWAP1 POP JUMP JUMPDEST PUSH2 0x149C DUP3 PUSH2 0x159E JUMP JUMPDEST DUP2 ADD DUP2 DUP2 LT PUSH8 0xFFFFFFFFFFFFFFFF DUP3 GT OR ISZERO PUSH2 0x14BB JUMPI PUSH2 0x14BA PUSH2 0x1551 JUMP JUMPDEST JUMPDEST DUP1 PUSH1 0x40 MSTORE POP POP POP JUMP JUMPDEST PUSH32 0x4E487B7100000000000000000000000000000000000000000000000000000000 PUSH1 0x0 MSTORE PUSH1 0x11 PUSH1 0x4 MSTORE PUSH1 0x24 PUSH1 0x0 REVERT JUMPDEST PUSH32 0x4E487B7100000000000000000000000000000000000000000000000000000000 PUSH1 0x0 MSTORE PUSH1 0x22 PUSH1 0x4 MSTORE PUSH1 0x24 PUSH1 0x0 REVERT JUMPDEST PUSH32 0x4E487B7100000000000000000000000000000000000000000000000000000000 PUSH1 0x0 MSTORE PUSH1 0x32 PUSH1 0x4 MSTORE PUSH1 0x24 PUSH1 0x0 REVERT JUMPDEST PUSH32 0x4E487B7100000000000000000000000000000000000000000000000000000000 PUSH1 0x0 MSTORE PUSH1 0x41 PUSH1 0x4 MSTORE PUSH1 0x24 PUSH1 0x0 REVERT JUMPDEST PUSH1 0x0 DUP1 REVERT JUMPDEST PUSH1 0x0 DUP1 REVERT JUMPDEST PUSH1 0x0 DUP1 REVERT JUMPDEST PUSH1 0x0 DUP1 REVERT JUMPDEST PUSH1 0x0 DUP1 REVERT JUMPDEST PUSH1 0x0 DUP1 REVERT JUMPDEST PUSH1 0x0 PUSH1 0x1F NOT PUSH1 0x1F DUP4 ADD AND SWAP1 POP SWAP2 SWAP1 POP JUMP JUMPDEST PUSH32 0x596F7520617265206E6F7420746865206F776E65722100000000000000000000 PUSH1 0x0 DUP3 ADD MSTORE POP JUMP JUMPDEST PUSH32 0x5468652070726F64756374207175616E74697479206973206C65737320746861 PUSH1 0x0 DUP3 ADD MSTORE PUSH32 0x6E20796F752077616E7465642100000000000000000000000000000000000000 PUSH1 0x20 DUP3 ADD MSTORE POP JUMP JUMPDEST PUSH32 0x506C656173652073656E6420746865206578616374207072696365206F662074 PUSH1 0x0 DUP3 ADD MSTORE PUSH32 0x68652070726F64756374206D756C7469706C6965642062792074686520717561 PUSH1 0x20 DUP3 ADD MSTORE PUSH32 0x6E7469747920796F752077616E74210000000000000000000000000000000000 PUSH1 0x40 DUP3 ADD MSTORE POP JUMP JUMPDEST PUSH32 0x496E76616C6964207175616E7469747921000000000000000000000000000000 PUSH1 0x0 DUP3 ADD MSTORE POP JUMP JUMPDEST PUSH32 0x596F75206861766520616C726561647920626F7567687420746869732070726F PUSH1 0x0 DUP3 ADD MSTORE PUSH32 0x6475637421000000000000000000000000000000000000000000000000000000 PUSH1 0x20 DUP3 ADD MSTORE POP JUMP JUMPDEST PUSH32 0x5468652070726F64756374206973206E6F74206578697374696E672100000000 PUSH1 0x0 DUP3 ADD MSTORE POP JUMP JUMPDEST PUSH32 0x5468652070726F6475637420697320616C726561647920696E20746865207374 PUSH1 0x0 DUP3 ADD MSTORE PUSH32 0x6F72652100000000000000000000000000000000000000000000000000000000 PUSH1 0x20 DUP3 ADD MSTORE POP JUMP JUMPDEST PUSH2 0x1795 DUP2 PUSH2 0x13D7 JUMP JUMPDEST DUP2 EQ PUSH2 0x17A0 JUMPI PUSH1 0x0 DUP1 REVERT JUMPDEST POP JUMP JUMPDEST PUSH2 0x17AC DUP2 PUSH2 0x1415 JUMP JUMPDEST DUP2 EQ PUSH2 0x17B7 JUMPI PUSH1 0x0 DUP1 REVERT JUMPDEST POP JUMP INVALID LOG2 PUSH5 0x6970667358 0x22 SLT KECCAK256 DUP15 DELEGATECALL 0x22 PUSH2 0xCADB 0xB3 0x29 0x25 PUSH8 0x8431DC13FE2272FD SWAP4 0xC2 PUSH23 0x5695B2B13E686799AC2B6D64736F6C6343000807003300 "
				},
				"gasEstimates": {
					"creation": {
						"codeDepositCost": "1225600",
						"executionCost": "25541",
						"totalCost": "1251141"
					},
					"external": {
						"addNewProduct(string,uint256,uint256)": "infinite",
						"availableProductsNames(string)": "infinite",
						"buyProduct(uint256,uint256)": "infinite",
						"getProducts()": "infinite",
						"owner()": "2511",
						"products(uint256)": "infinite",
						"productsPurchases(uint256,address)": "infinite",
						"updateProductQuantity(uint256,uint256)": "infinite"
					}
				},
				"methodIdentifiers": {
					"addNewProduct(string,uint256,uint256)": "0a5bd44b",
					"availableProductsNames(string)": "4c437514",
					"buyProduct(uint256,uint256)": "53b62866",
					"getProducts()": "c29b2f20",
					"owner()": "8da5cb5b",
					"products(uint256)": "7acc0b20",
					"productsPurchases(uint256,address)": "ccc4174a",
					"updateProductQuantity(uint256,uint256)": "fcc93b0b"
				}
			},
			"storageLayout": {
				"storage": [
					{
						"astId": 3,
						"contract": "contracts/Store.sol:Store",
						"label": "owner",
						"offset": 0,
						"slot": "0",
						"type": "t_address"
					},
					{
						"astId": 43,
						"contract": "contracts/Store.sol:Store",
						"label": "products",
						"offset": 0,
						"slot": "1",
						"type": "t_array(t_struct(Product)39_storage)dyn_storage"
					},
					{
						"astId": 47,
						"contract": "contracts/Store.sol:Store",
						"label": "availableProductsNames",
						"offset": 0,
						"slot": "2",
						"type": "t_mapping(t_string_memory_ptr,t_bool)"
					},
					{
						"astId": 53,
						"contract": "contracts/Store.sol:Store",
						"label": "productsPurchases",
						"offset": 0,
						"slot": "3",
						"type": "t_mapping(t_uint256,t_mapping(t_address,t_uint256))"
					}
				],
				"types": {
					"t_address": {
						"encoding": "inplace",
						"label": "address",
						"numberOfBytes": "20"
					},
					"t_array(t_struct(Product)39_storage)dyn_storage": {
						"base": "t_struct(Product)39_storage",
						"encoding": "dynamic_array",
						"label": "struct Store.Product[]",
						"numberOfBytes": "32"
					},
					"t_bool": {
						"encoding": "inplace",
						"label": "bool",
						"numberOfBytes": "1"
					},
					"t_mapping(t_address,t_uint256)": {
						"encoding": "mapping",
						"key": "t_address",
						"label": "mapping(address => uint256)",
						"numberOfBytes": "32",
						"value": "t_uint256"
					},
					"t_mapping(t_string_memory_ptr,t_bool)": {
						"encoding": "mapping",
						"key": "t_string_memory_ptr",
						"label": "mapping(string => bool)",
						"numberOfBytes": "32",
						"value": "t_bool"
					},
					"t_mapping(t_uint256,t_mapping(t_address,t_uint256))": {
						"encoding": "mapping",
						"key": "t_uint256",
						"label": "mapping(uint256 => mapping(address => uint256))",
						"numberOfBytes": "32",
						"value": "t_mapping(t_address,t_uint256)"
					},
					"t_string_memory_ptr": {
						"encoding": "bytes",
						"label": "string",
						"numberOfBytes": "32"
					},
					"t_string_storage": {
						"encoding": "bytes",
						"label": "string",
						"numberOfBytes": "32"
					},
					"t_struct(Product)39_storage": {
						"encoding": "inplace",
						"label": "struct Store.Product",
						"members": [
							{
								"astId": 32,
								"contract": "contracts/Store.sol:Store",
								"label": "id",
								"offset": 0,
								"slot": "0",
								"type": "t_uint256"
							},
							{
								"astId": 34,
								"contract": "contracts/Store.sol:Store",
								"label": "name",
								"offset": 0,
								"slot": "1",
								"type": "t_string_storage"
							},
							{
								"astId": 36,
								"contract": "contracts/Store.sol:Store",
								"label": "quantity",
								"offset": 0,
								"slot": "2",
								"type": "t_uint256"
							},
							{
								"astId": 38,
								"contract": "contracts/Store.sol:Store",
								"label": "price",
								"offset": 0,
								"slot": "3",
								"type": "t_uint256"
							}
						],
						"numberOfBytes": "128"
					},
					"t_uint256": {
						"encoding": "inplace",
						"label": "uint256",
						"numberOfBytes": "32"
					}
				}
			},
			"userdoc": {
				"kind": "user",
				"methods": {},
				"version": 1
			}
		}
	}
}