{
	"contracts/Store.sol": {
		"Store": {
			"abi": [
				{
					"inputs": [
						{
							"internalType": "string",
							"name": "name",
							"type": "string"
						},
						{
							"internalType": "uint256",
							"name": "quantity",
							"type": "uint256"
						},
						{
							"internalType": "uint256",
							"name": "price",
							"type": "uint256"
						}
					],
					"name": "addNewProduct",
					"outputs": [],
					"stateMutability": "nonpayable",
					"type": "function"
				},
				{
					"inputs": [
						{
							"internalType": "uint256",
							"name": "",
							"type": "uint256"
						}
					],
					"name": "availableProductsIds",
					"outputs": [
						{
							"internalType": "bool",
							"name": "",
							"type": "bool"
						}
					],
					"stateMutability": "view",
					"type": "function"
				},
				{
					"inputs": [
						{
							"internalType": "string",
							"name": "",
							"type": "string"
						}
					],
					"name": "availableProductsNames",
					"outputs": [
						{
							"internalType": "bool",
							"name": "",
							"type": "bool"
						}
					],
					"stateMutability": "view",
					"type": "function"
				},
				{
					"inputs": [
						{
							"internalType": "uint256",
							"name": "id",
							"type": "uint256"
						},
						{
							"internalType": "uint256",
							"name": "quantity",
							"type": "uint256"
						}
					],
					"name": "buyProduct",
					"outputs": [],
					"stateMutability": "nonpayable",
					"type": "function"
				},
				{
					"inputs": [],
					"name": "getProducts",
					"outputs": [
						{
							"components": [
								{
									"internalType": "uint256",
									"name": "id",
									"type": "uint256"
								},
								{
									"internalType": "string",
									"name": "name",
									"type": "string"
								},
								{
									"internalType": "uint256",
									"name": "quantity",
									"type": "uint256"
								},
								{
									"internalType": "uint256",
									"name": "price",
									"type": "uint256"
								}
							],
							"internalType": "struct Store.Product[]",
							"name": "",
							"type": "tuple[]"
						}
					],
					"stateMutability": "view",
					"type": "function"
				},
				{
					"inputs": [],
					"name": "owner",
					"outputs": [
						{
							"internalType": "address",
							"name": "",
							"type": "address"
						}
					],
					"stateMutability": "view",
					"type": "function"
				},
				{
					"inputs": [
						{
							"internalType": "uint256",
							"name": "",
							"type": "uint256"
						}
					],
					"name": "products",
					"outputs": [
						{
							"internalType": "uint256",
							"name": "id",
							"type": "uint256"
						},
						{
							"internalType": "string",
							"name": "name",
							"type": "string"
						},
						{
							"internalType": "uint256",
							"name": "quantity",
							"type": "uint256"
						},
						{
							"internalType": "uint256",
							"name": "price",
							"type": "uint256"
						}
					],
					"stateMutability": "view",
					"type": "function"
				},
				{
					"inputs": [
						{
							"internalType": "uint256",
							"name": "",
							"type": "uint256"
						},
						{
							"internalType": "address",
							"name": "",
							"type": "address"
						}
					],
					"name": "productsPurchases",
					"outputs": [
						{
							"internalType": "uint256",
							"name": "",
							"type": "uint256"
						}
					],
					"stateMutability": "view",
					"type": "function"
				},
				{
					"inputs": [
						{
							"internalType": "uint256",
							"name": "id",
							"type": "uint256"
						},
						{
							"internalType": "uint256",
							"name": "quantity",
							"type": "uint256"
						}
					],
					"name": "updateProductQuantity",
					"outputs": [],
					"stateMutability": "nonpayable",
					"type": "function"
				}
			],
			"devdoc": {
				"kind": "dev",
				"methods": {},
				"version": 1
			},
			"evm": {
				"assembly": "    /* \"contracts/Store.sol\":93:1913  contract Store is Ownable {\r... */\n  mstore(0x40, 0x80)\n  callvalue\n  dup1\n  iszero\n  tag_1\n  jumpi\n  0x00\n  dup1\n  revert\ntag_1:\n  pop\n    /* \"contracts/Ownable.sol\":156:166  msg.sender */\n  caller\n    /* \"contracts/Ownable.sol\":148:153  owner */\n  0x00\n  dup1\n    /* \"contracts/Ownable.sol\":148:166  owner = msg.sender */\n  0x0100\n  exp\n  dup2\n  sload\n  dup2\n  0xffffffffffffffffffffffffffffffffffffffff\n  mul\n  not\n  and\n  swap1\n  dup4\n  0xffffffffffffffffffffffffffffffffffffffff\n  and\n  mul\n  or\n  swap1\n  sstore\n  pop\n    /* \"contracts/Store.sol\":93:1913  contract Store is Ownable {\r... */\n  dataSize(sub_0)\n  dup1\n  dataOffset(sub_0)\n  0x00\n  codecopy\n  0x00\n  return\nstop\n\nsub_0: assembly {\n        /* \"contracts/Store.sol\":93:1913  contract Store is Ownable {\r... */\n      mstore(0x40, 0x80)\n      callvalue\n      dup1\n      iszero\n      tag_1\n      jumpi\n      0x00\n      dup1\n      revert\n    tag_1:\n      pop\n      jumpi(tag_2, lt(calldatasize, 0x04))\n      shr(0xe0, calldataload(0x00))\n      dup1\n      0x7acc0b20\n      gt\n      tag_12\n      jumpi\n      dup1\n      0x7acc0b20\n      eq\n      tag_7\n      jumpi\n      dup1\n      0x8da5cb5b\n      eq\n      tag_8\n      jumpi\n      dup1\n      0xc29b2f20\n      eq\n      tag_9\n      jumpi\n      dup1\n      0xccc4174a\n      eq\n      tag_10\n      jumpi\n      dup1\n      0xfcc93b0b\n      eq\n      tag_11\n      jumpi\n      jump(tag_2)\n    tag_12:\n      dup1\n      0x0a5bd44b\n      eq\n      tag_3\n      jumpi\n      dup1\n      0x4c437514\n      eq\n      tag_4\n      jumpi\n      dup1\n      0x53b62866\n      eq\n      tag_5\n      jumpi\n      dup1\n      0x5f7fad9c\n      eq\n      tag_6\n      jumpi\n    tag_2:\n      0x00\n      dup1\n      revert\n        /* \"contracts/Store.sol\":526:985  function addNewProduct(string calldata name, uint quantity, uint price) public onlyOwner {\r... */\n    tag_3:\n      tag_13\n      0x04\n      dup1\n      calldatasize\n      sub\n      dup2\n      add\n      swap1\n      tag_14\n      swap2\n      swap1\n      tag_15\n      jump\t// in\n    tag_14:\n      tag_16\n      jump\t// in\n    tag_13:\n      stop\n        /* \"contracts/Store.sol\":330:383  mapping(string => bool) public availableProductsNames */\n    tag_4:\n      tag_17\n      0x04\n      dup1\n      calldatasize\n      sub\n      dup2\n      add\n      swap1\n      tag_18\n      swap2\n      swap1\n      tag_19\n      jump\t// in\n    tag_18:\n      tag_20\n      jump\t// in\n    tag_17:\n      mload(0x40)\n      tag_21\n      swap2\n      swap1\n      tag_22\n      jump\t// in\n    tag_21:\n      mload(0x40)\n      dup1\n      swap2\n      sub\n      swap1\n      return\n        /* \"contracts/Store.sol\":1301:1910  function buyProduct(uint id, uint quantity) public {\r... */\n    tag_5:\n      tag_23\n      0x04\n      dup1\n      calldatasize\n      sub\n      dup2\n      add\n      swap1\n      tag_24\n      swap2\n      swap1\n      tag_25\n      jump\t// in\n    tag_24:\n      tag_26\n      jump\t// in\n    tag_23:\n      stop\n        /* \"contracts/Store.sol\":274:323  mapping(uint => bool) public availableProductsIds */\n    tag_6:\n      tag_27\n      0x04\n      dup1\n      calldatasize\n      sub\n      dup2\n      add\n      swap1\n      tag_28\n      swap2\n      swap1\n      tag_29\n      jump\t// in\n    tag_28:\n      tag_30\n      jump\t// in\n    tag_27:\n      mload(0x40)\n      tag_31\n      swap2\n      swap1\n      tag_22\n      jump\t// in\n    tag_31:\n      mload(0x40)\n      dup1\n      swap2\n      sub\n      swap1\n      return\n        /* \"contracts/Store.sol\":242:267  Product[] public products */\n    tag_7:\n      tag_32\n      0x04\n      dup1\n      calldatasize\n      sub\n      dup2\n      add\n      swap1\n      tag_33\n      swap2\n      swap1\n      tag_29\n      jump\t// in\n    tag_33:\n      tag_34\n      jump\t// in\n    tag_32:\n      mload(0x40)\n      tag_35\n      swap5\n      swap4\n      swap3\n      swap2\n      swap1\n      tag_36\n      jump\t// in\n    tag_35:\n      mload(0x40)\n      dup1\n      swap2\n      sub\n      swap1\n      return\n        /* \"contracts/Ownable.sol\":90:110  address public owner */\n    tag_8:\n      tag_37\n      tag_38\n      jump\t// in\n    tag_37:\n      mload(0x40)\n      tag_39\n      swap2\n      swap1\n      tag_40\n      jump\t// in\n    tag_39:\n      mload(0x40)\n      dup1\n      swap2\n      sub\n      swap1\n      return\n        /* \"contracts/Store.sol\":1198:1293  function getProducts() public view returns(Product[] memory) {\r... */\n    tag_9:\n      tag_41\n      tag_42\n      jump\t// in\n    tag_41:\n      mload(0x40)\n      tag_43\n      swap2\n      swap1\n      tag_44\n      jump\t// in\n    tag_43:\n      mload(0x40)\n      dup1\n      swap2\n      sub\n      swap1\n      return\n        /* \"contracts/Store.sol\":451:517  mapping(uint => mapping(address => uint)) public productsPurchases */\n    tag_10:\n      tag_45\n      0x04\n      dup1\n      calldatasize\n      sub\n      dup2\n      add\n      swap1\n      tag_46\n      swap2\n      swap1\n      tag_47\n      jump\t// in\n    tag_46:\n      tag_48\n      jump\t// in\n    tag_45:\n      mload(0x40)\n      tag_49\n      swap2\n      swap1\n      tag_50\n      jump\t// in\n    tag_49:\n      mload(0x40)\n      dup1\n      swap2\n      sub\n      swap1\n      return\n        /* \"contracts/Store.sol\":993:1190  function updateProductQuantity(uint id, uint quantity) public onlyOwner {\r... */\n    tag_11:\n      tag_51\n      0x04\n      dup1\n      calldatasize\n      sub\n      dup2\n      add\n      swap1\n      tag_52\n      swap2\n      swap1\n      tag_25\n      jump\t// in\n    tag_52:\n      tag_53\n      jump\t// in\n    tag_51:\n      stop\n        /* \"contracts/Store.sol\":526:985  function addNewProduct(string calldata name, uint quantity, uint price) public onlyOwner {\r... */\n    tag_16:\n        /* \"contracts/Ownable.sol\":236:241  owner */\n      0x00\n      dup1\n      sload\n      swap1\n      0x0100\n      exp\n      swap1\n      div\n      0xffffffffffffffffffffffffffffffffffffffff\n      and\n        /* \"contracts/Ownable.sol\":222:241  msg.sender == owner */\n      0xffffffffffffffffffffffffffffffffffffffff\n      and\n        /* \"contracts/Ownable.sol\":222:232  msg.sender */\n      caller\n        /* \"contracts/Ownable.sol\":222:241  msg.sender == owner */\n      0xffffffffffffffffffffffffffffffffffffffff\n      and\n      eq\n        /* \"contracts/Ownable.sol\":214:268  require(msg.sender == owner, \"You are not the owner!\") */\n      tag_55\n      jumpi\n      mload(0x40)\n      0x08c379a000000000000000000000000000000000000000000000000000000000\n      dup2\n      mstore\n      0x04\n      add\n      tag_56\n      swap1\n      tag_57\n      jump\t// in\n    tag_56:\n      mload(0x40)\n      dup1\n      swap2\n      sub\n      swap1\n      revert\n    tag_55:\n        /* \"contracts/Store.sol\":656:657  0 */\n      0x00\n        /* \"contracts/Store.sol\":640:644  name */\n      dup5\n      dup5\n        /* \"contracts/Store.sol\":634:652  bytes(name).length */\n      swap1\n      pop\n        /* \"contracts/Store.sol\":634:657  bytes(name).length != 0 */\n      eq\n      iszero\n        /* \"contracts/Store.sol\":634:670  bytes(name).length != 0 && price > 0 */\n      dup1\n      iszero\n      tag_59\n      jumpi\n      pop\n        /* \"contracts/Store.sol\":669:670  0 */\n      0x00\n        /* \"contracts/Store.sol\":661:666  price */\n      dup2\n        /* \"contracts/Store.sol\":661:670  price > 0 */\n      gt\n        /* \"contracts/Store.sol\":634:670  bytes(name).length != 0 && price > 0 */\n    tag_59:\n        /* \"contracts/Store.sol\":626:671  require(bytes(name).length != 0 && price > 0) */\n      tag_60\n      jumpi\n      0x00\n      dup1\n      revert\n    tag_60:\n        /* \"contracts/Store.sol\":691:713  availableProductsNames */\n      0x03\n        /* \"contracts/Store.sol\":714:718  name */\n      dup5\n      dup5\n        /* \"contracts/Store.sol\":691:719  availableProductsNames[name] */\n      mload(0x40)\n      tag_61\n      swap3\n      swap2\n      swap1\n      tag_62\n      jump\t// in\n    tag_61:\n      swap1\n      dup2\n      mstore\n      0x20\n      add\n      mload(0x40)\n      dup1\n      swap2\n      sub\n      swap1\n      keccak256\n      0x00\n      swap1\n      sload\n      swap1\n      0x0100\n      exp\n      swap1\n      div\n      0xff\n      and\n        /* \"contracts/Store.sol\":690:719  !availableProductsNames[name] */\n      iszero\n        /* \"contracts/Store.sol\":682:760  require(!availableProductsNames[name], \"The product is already in the store!\") */\n      tag_63\n      jumpi\n      mload(0x40)\n      0x08c379a000000000000000000000000000000000000000000000000000000000\n      dup2\n      mstore\n      0x04\n      add\n      tag_64\n      swap1\n      tag_65\n      jump\t// in\n    tag_64:\n      mload(0x40)\n      dup1\n      swap2\n      sub\n      swap1\n      revert\n    tag_63:\n        /* \"contracts/Store.sol\":781:795  uint productId */\n      0x00\n        /* \"contracts/Store.sol\":798:806  products */\n      0x01\n        /* \"contracts/Store.sol\":798:813  products.length */\n      dup1\n      sload\n      swap1\n      pop\n        /* \"contracts/Store.sol\":781:813  uint productId = products.length */\n      swap1\n      pop\n        /* \"contracts/Store.sol\":857:861  true */\n      0x01\n        /* \"contracts/Store.sol\":826:848  availableProductsNames */\n      0x03\n        /* \"contracts/Store.sol\":849:853  name */\n      dup7\n      dup7\n        /* \"contracts/Store.sol\":826:854  availableProductsNames[name] */\n      mload(0x40)\n      tag_66\n      swap3\n      swap2\n      swap1\n      tag_62\n      jump\t// in\n    tag_66:\n      swap1\n      dup2\n      mstore\n      0x20\n      add\n      mload(0x40)\n      dup1\n      swap2\n      sub\n      swap1\n      keccak256\n      0x00\n        /* \"contracts/Store.sol\":826:861  availableProductsNames[name] = true */\n      0x0100\n      exp\n      dup2\n      sload\n      dup2\n      0xff\n      mul\n      not\n      and\n      swap1\n      dup4\n      iszero\n      iszero\n      mul\n      or\n      swap1\n      sstore\n      pop\n        /* \"contracts/Store.sol\":906:910  true */\n      0x01\n        /* \"contracts/Store.sol\":872:892  availableProductsIds */\n      0x02\n        /* \"contracts/Store.sol\":872:903  availableProductsIds[productId] */\n      0x00\n        /* \"contracts/Store.sol\":893:902  productId */\n      dup4\n        /* \"contracts/Store.sol\":872:903  availableProductsIds[productId] */\n      dup2\n      mstore\n      0x20\n      add\n      swap1\n      dup2\n      mstore\n      0x20\n      add\n      0x00\n      keccak256\n      0x00\n        /* \"contracts/Store.sol\":872:910  availableProductsIds[productId] = true */\n      0x0100\n      exp\n      dup2\n      sload\n      dup2\n      0xff\n      mul\n      not\n      and\n      swap1\n      dup4\n      iszero\n      iszero\n      mul\n      or\n      swap1\n      sstore\n      pop\n        /* \"contracts/Store.sol\":921:929  products */\n      0x01\n        /* \"contracts/Store.sol\":935:976  Product(productId, name, quantity, price) */\n      mload(0x40)\n      dup1\n      0x80\n      add\n      0x40\n      mstore\n      dup1\n        /* \"contracts/Store.sol\":943:952  productId */\n      dup4\n        /* \"contracts/Store.sol\":935:976  Product(productId, name, quantity, price) */\n      dup2\n      mstore\n      0x20\n      add\n        /* \"contracts/Store.sol\":954:958  name */\n      dup8\n      dup8\n        /* \"contracts/Store.sol\":935:976  Product(productId, name, quantity, price) */\n      dup1\n      dup1\n      0x1f\n      add\n      0x20\n      dup1\n      swap2\n      div\n      mul\n      0x20\n      add\n      mload(0x40)\n      swap1\n      dup2\n      add\n      0x40\n      mstore\n      dup1\n      swap4\n      swap3\n      swap2\n      swap1\n      dup2\n      dup2\n      mstore\n      0x20\n      add\n      dup4\n      dup4\n      dup1\n      dup3\n      dup5\n      calldatacopy\n      0x00\n      dup2\n      dup5\n      add\n      mstore\n      not(0x1f)\n      0x1f\n      dup3\n      add\n      and\n      swap1\n      pop\n      dup1\n      dup4\n      add\n      swap3\n      pop\n      pop\n      pop\n      pop\n      pop\n      pop\n      pop\n      dup2\n      mstore\n      0x20\n      add\n        /* \"contracts/Store.sol\":960:968  quantity */\n      dup6\n        /* \"contracts/Store.sol\":935:976  Product(productId, name, quantity, price) */\n      dup2\n      mstore\n      0x20\n      add\n        /* \"contracts/Store.sol\":970:975  price */\n      dup5\n        /* \"contracts/Store.sol\":935:976  Product(productId, name, quantity, price) */\n      dup2\n      mstore\n      pop\n        /* \"contracts/Store.sol\":921:977  products.push(Product(productId, name, quantity, price)) */\n      swap1\n      dup1\n      0x01\n      dup2\n      sload\n      add\n      dup1\n      dup3\n      sstore\n      dup1\n      swap2\n      pop\n      pop\n      0x01\n      swap1\n      sub\n      swap1\n      0x00\n      mstore\n      keccak256(0x00, 0x20)\n      swap1\n      0x04\n      mul\n      add\n      0x00\n      swap1\n      swap2\n      swap1\n      swap2\n      swap1\n      swap2\n      pop\n      0x00\n      dup3\n      add\n      mload\n      dup2\n      0x00\n      add\n      sstore\n      0x20\n      dup3\n      add\n      mload\n      dup2\n      0x01\n      add\n      swap1\n      dup1\n      mload\n      swap1\n      0x20\n      add\n      swap1\n      tag_68\n      swap3\n      swap2\n      swap1\n      tag_69\n      jump\t// in\n    tag_68:\n      pop\n      0x40\n      dup3\n      add\n      mload\n      dup2\n      0x02\n      add\n      sstore\n      0x60\n      dup3\n      add\n      mload\n      dup2\n      0x03\n      add\n      sstore\n      pop\n      pop\n        /* \"contracts/Store.sol\":615:985  {\r... */\n      pop\n        /* \"contracts/Store.sol\":526:985  function addNewProduct(string calldata name, uint quantity, uint price) public onlyOwner {\r... */\n      pop\n      pop\n      pop\n      pop\n      jump\t// out\n        /* \"contracts/Store.sol\":330:383  mapping(string => bool) public availableProductsNames */\n    tag_20:\n      0x03\n      dup2\n      dup1\n      mload\n      0x20\n      dup2\n      add\n      dup3\n      add\n      dup1\n      mload\n      dup5\n      dup3\n      mstore\n      0x20\n      dup4\n      add\n      0x20\n      dup6\n      add\n      keccak256\n      dup2\n      dup4\n      mstore\n      dup1\n      swap6\n      pop\n      pop\n      pop\n      pop\n      pop\n      pop\n      0x00\n      swap2\n      pop\n      sload\n      swap1\n      0x0100\n      exp\n      swap1\n      div\n      0xff\n      and\n      dup2\n      jump\t// out\n        /* \"contracts/Store.sol\":1301:1910  function buyProduct(uint id, uint quantity) public {\r... */\n    tag_26:\n        /* \"contracts/Store.sol\":1371:1391  availableProductsIds */\n      0x02\n        /* \"contracts/Store.sol\":1371:1395  availableProductsIds[id] */\n      0x00\n        /* \"contracts/Store.sol\":1392:1394  id */\n      dup4\n        /* \"contracts/Store.sol\":1371:1395  availableProductsIds[id] */\n      dup2\n      mstore\n      0x20\n      add\n      swap1\n      dup2\n      mstore\n      0x20\n      add\n      0x00\n      keccak256\n      0x00\n      swap1\n      sload\n      swap1\n      0x0100\n      exp\n      swap1\n      div\n      0xff\n      and\n        /* \"contracts/Store.sol\":1363:1424  require(availableProductsIds[id], \"Product does not exists!\") */\n      tag_71\n      jumpi\n      mload(0x40)\n      0x08c379a000000000000000000000000000000000000000000000000000000000\n      dup2\n      mstore\n      0x04\n      add\n      tag_72\n      swap1\n      tag_73\n      jump\t// in\n    tag_72:\n      mload(0x40)\n      dup1\n      swap2\n      sub\n      swap1\n      revert\n    tag_71:\n        /* \"contracts/Store.sol\":1488:1489  0 */\n      0x00\n        /* \"contracts/Store.sol\":1451:1468  productsPurchases */\n      0x04\n        /* \"contracts/Store.sol\":1451:1472  productsPurchases[id] */\n      0x00\n        /* \"contracts/Store.sol\":1469:1471  id */\n      dup5\n        /* \"contracts/Store.sol\":1451:1472  productsPurchases[id] */\n      dup2\n      mstore\n      0x20\n      add\n      swap1\n      dup2\n      mstore\n      0x20\n      add\n      0x00\n      keccak256\n        /* \"contracts/Store.sol\":1451:1484  productsPurchases[id][msg.sender] */\n      0x00\n        /* \"contracts/Store.sol\":1473:1483  msg.sender */\n      caller\n        /* \"contracts/Store.sol\":1451:1484  productsPurchases[id][msg.sender] */\n      0xffffffffffffffffffffffffffffffffffffffff\n      and\n      0xffffffffffffffffffffffffffffffffffffffff\n      and\n      dup2\n      mstore\n      0x20\n      add\n      swap1\n      dup2\n      mstore\n      0x20\n      add\n      0x00\n      keccak256\n      sload\n        /* \"contracts/Store.sol\":1451:1489  productsPurchases[id][msg.sender] == 0 */\n      eq\n        /* \"contracts/Store.sol\":1443:1531  require(productsPurchases[id][msg.sender] == 0, \"You have already bought this product!\") */\n      tag_74\n      jumpi\n      mload(0x40)\n      0x08c379a000000000000000000000000000000000000000000000000000000000\n      dup2\n      mstore\n      0x04\n      add\n      tag_75\n      swap1\n      tag_76\n      jump\t// in\n    tag_75:\n      mload(0x40)\n      dup1\n      swap2\n      sub\n      swap1\n      revert\n    tag_74:\n        /* \"contracts/Store.sol\":1544:1574  Product storage currentProduct */\n      0x00\n        /* \"contracts/Store.sol\":1577:1585  products */\n      0x01\n        /* \"contracts/Store.sol\":1586:1588  id */\n      dup4\n        /* \"contracts/Store.sol\":1577:1589  products[id] */\n      dup2\n      sload\n      dup2\n      lt\n      tag_77\n      jumpi\n      tag_78\n      tag_79\n      jump\t// in\n    tag_78:\n    tag_77:\n      swap1\n      0x00\n      mstore\n      keccak256(0x00, 0x20)\n      swap1\n      0x04\n      mul\n      add\n        /* \"contracts/Store.sol\":1544:1589  Product storage currentProduct = products[id] */\n      swap1\n      pop\n        /* \"contracts/Store.sol\":1637:1645  quantity */\n      dup2\n        /* \"contracts/Store.sol\":1610:1624  currentProduct */\n      dup2\n        /* \"contracts/Store.sol\":1610:1633  currentProduct.quantity */\n      0x02\n      add\n      sload\n        /* \"contracts/Store.sol\":1610:1645  currentProduct.quantity >= quantity */\n      lt\n      iszero\n        /* \"contracts/Store.sol\":1602:1695  require(currentProduct.quantity >= quantity, \"The product quantity is less than you wanted!\") */\n      tag_81\n      jumpi\n      mload(0x40)\n      0x08c379a000000000000000000000000000000000000000000000000000000000\n      dup2\n      mstore\n      0x04\n      add\n      tag_82\n      swap1\n      tag_83\n      jump\t// in\n    tag_82:\n      mload(0x40)\n      dup1\n      swap2\n      sub\n      swap1\n      revert\n    tag_81:\n        /* \"contracts/Store.sol\":1790:1798  quantity */\n      dup2\n        /* \"contracts/Store.sol\":1754:1771  productsPurchases */\n      0x04\n        /* \"contracts/Store.sol\":1754:1775  productsPurchases[id] */\n      0x00\n        /* \"contracts/Store.sol\":1772:1774  id */\n      dup6\n        /* \"contracts/Store.sol\":1754:1775  productsPurchases[id] */\n      dup2\n      mstore\n      0x20\n      add\n      swap1\n      dup2\n      mstore\n      0x20\n      add\n      0x00\n      keccak256\n        /* \"contracts/Store.sol\":1754:1787  productsPurchases[id][msg.sender] */\n      0x00\n        /* \"contracts/Store.sol\":1776:1786  msg.sender */\n      caller\n        /* \"contracts/Store.sol\":1754:1787  productsPurchases[id][msg.sender] */\n      0xffffffffffffffffffffffffffffffffffffffff\n      and\n      0xffffffffffffffffffffffffffffffffffffffff\n      and\n      dup2\n      mstore\n      0x20\n      add\n      swap1\n      dup2\n      mstore\n      0x20\n      add\n      0x00\n      keccak256\n        /* \"contracts/Store.sol\":1754:1798  productsPurchases[id][msg.sender] = quantity */\n      dup2\n      swap1\n      sstore\n      pop\n        /* \"contracts/Store.sol\":1894:1902  quantity */\n      dup2\n        /* \"contracts/Store.sol\":1867:1881  currentProduct */\n      dup2\n        /* \"contracts/Store.sol\":1867:1890  currentProduct.quantity */\n      0x02\n      add\n      0x00\n        /* \"contracts/Store.sol\":1867:1902  currentProduct.quantity -= quantity */\n      dup3\n      dup3\n      sload\n      tag_84\n      swap2\n      swap1\n      tag_85\n      jump\t// in\n    tag_84:\n      swap3\n      pop\n      pop\n      dup2\n      swap1\n      sstore\n      pop\n        /* \"contracts/Store.sol\":1352:1910  {\r... */\n      pop\n        /* \"contracts/Store.sol\":1301:1910  function buyProduct(uint id, uint quantity) public {\r... */\n      pop\n      pop\n      jump\t// out\n        /* \"contracts/Store.sol\":274:323  mapping(uint => bool) public availableProductsIds */\n    tag_30:\n      mstore(0x20, 0x02)\n      dup1\n      0x00\n      mstore\n      keccak256(0x00, 0x40)\n      0x00\n      swap2\n      pop\n      sload\n      swap1\n      0x0100\n      exp\n      swap1\n      div\n      0xff\n      and\n      dup2\n      jump\t// out\n        /* \"contracts/Store.sol\":242:267  Product[] public products */\n    tag_34:\n      0x01\n      dup2\n      dup2\n      sload\n      dup2\n      lt\n      tag_86\n      jumpi\n      0x00\n      dup1\n      revert\n    tag_86:\n      swap1\n      0x00\n      mstore\n      keccak256(0x00, 0x20)\n      swap1\n      0x04\n      mul\n      add\n      0x00\n      swap2\n      pop\n      swap1\n      pop\n      dup1\n      0x00\n      add\n      sload\n      swap1\n      dup1\n      0x01\n      add\n      dup1\n      sload\n      tag_88\n      swap1\n      tag_89\n      jump\t// in\n    tag_88:\n      dup1\n      0x1f\n      add\n      0x20\n      dup1\n      swap2\n      div\n      mul\n      0x20\n      add\n      mload(0x40)\n      swap1\n      dup2\n      add\n      0x40\n      mstore\n      dup1\n      swap3\n      swap2\n      swap1\n      dup2\n      dup2\n      mstore\n      0x20\n      add\n      dup3\n      dup1\n      sload\n      tag_90\n      swap1\n      tag_89\n      jump\t// in\n    tag_90:\n      dup1\n      iszero\n      tag_91\n      jumpi\n      dup1\n      0x1f\n      lt\n      tag_92\n      jumpi\n      0x0100\n      dup1\n      dup4\n      sload\n      div\n      mul\n      dup4\n      mstore\n      swap2\n      0x20\n      add\n      swap2\n      jump(tag_91)\n    tag_92:\n      dup3\n      add\n      swap2\n      swap1\n      0x00\n      mstore\n      keccak256(0x00, 0x20)\n      swap1\n    tag_93:\n      dup2\n      sload\n      dup2\n      mstore\n      swap1\n      0x01\n      add\n      swap1\n      0x20\n      add\n      dup1\n      dup4\n      gt\n      tag_93\n      jumpi\n      dup3\n      swap1\n      sub\n      0x1f\n      and\n      dup3\n      add\n      swap2\n    tag_91:\n      pop\n      pop\n      pop\n      pop\n      pop\n      swap1\n      dup1\n      0x02\n      add\n      sload\n      swap1\n      dup1\n      0x03\n      add\n      sload\n      swap1\n      pop\n      dup5\n      jump\t// out\n        /* \"contracts/Ownable.sol\":90:110  address public owner */\n    tag_38:\n      0x00\n      dup1\n      sload\n      swap1\n      0x0100\n      exp\n      swap1\n      div\n      0xffffffffffffffffffffffffffffffffffffffff\n      and\n      dup2\n      jump\t// out\n        /* \"contracts/Store.sol\":1198:1293  function getProducts() public view returns(Product[] memory) {\r... */\n    tag_42:\n        /* \"contracts/Store.sol\":1241:1257  Product[] memory */\n      0x60\n        /* \"contracts/Store.sol\":1277:1285  products */\n      0x01\n        /* \"contracts/Store.sol\":1270:1285  return products */\n      dup1\n      sload\n      dup1\n      0x20\n      mul\n      0x20\n      add\n      mload(0x40)\n      swap1\n      dup2\n      add\n      0x40\n      mstore\n      dup1\n      swap3\n      swap2\n      swap1\n      dup2\n      dup2\n      mstore\n      0x20\n      add\n      0x00\n      swap1\n    tag_95:\n      dup3\n      dup3\n      lt\n      iszero\n      tag_96\n      jumpi\n      dup4\n      dup3\n      swap1\n      0x00\n      mstore\n      keccak256(0x00, 0x20)\n      swap1\n      0x04\n      mul\n      add\n      mload(0x40)\n      dup1\n      0x80\n      add\n      0x40\n      mstore\n      swap1\n      dup2\n      0x00\n      dup3\n      add\n      sload\n      dup2\n      mstore\n      0x20\n      add\n      0x01\n      dup3\n      add\n      dup1\n      sload\n      tag_98\n      swap1\n      tag_89\n      jump\t// in\n    tag_98:\n      dup1\n      0x1f\n      add\n      0x20\n      dup1\n      swap2\n      div\n      mul\n      0x20\n      add\n      mload(0x40)\n      swap1\n      dup2\n      add\n      0x40\n      mstore\n      dup1\n      swap3\n      swap2\n      swap1\n      dup2\n      dup2\n      mstore\n      0x20\n      add\n      dup3\n      dup1\n      sload\n      tag_99\n      swap1\n      tag_89\n      jump\t// in\n    tag_99:\n      dup1\n      iszero\n      tag_100\n      jumpi\n      dup1\n      0x1f\n      lt\n      tag_101\n      jumpi\n      0x0100\n      dup1\n      dup4\n      sload\n      div\n      mul\n      dup4\n      mstore\n      swap2\n      0x20\n      add\n      swap2\n      jump(tag_100)\n    tag_101:\n      dup3\n      add\n      swap2\n      swap1\n      0x00\n      mstore\n      keccak256(0x00, 0x20)\n      swap1\n    tag_102:\n      dup2\n      sload\n      dup2\n      mstore\n      swap1\n      0x01\n      add\n      swap1\n      0x20\n      add\n      dup1\n      dup4\n      gt\n      tag_102\n      jumpi\n      dup3\n      swap1\n      sub\n      0x1f\n      and\n      dup3\n      add\n      swap2\n    tag_100:\n      pop\n      pop\n      pop\n      pop\n      pop\n      dup2\n      mstore\n      0x20\n      add\n      0x02\n      dup3\n      add\n      sload\n      dup2\n      mstore\n      0x20\n      add\n      0x03\n      dup3\n      add\n      sload\n      dup2\n      mstore\n      pop\n      pop\n      dup2\n      mstore\n      0x20\n      add\n      swap1\n      0x01\n      add\n      swap1\n      jump(tag_95)\n    tag_96:\n      pop\n      pop\n      pop\n      pop\n      swap1\n      pop\n        /* \"contracts/Store.sol\":1198:1293  function getProducts() public view returns(Product[] memory) {\r... */\n      swap1\n      jump\t// out\n        /* \"contracts/Store.sol\":451:517  mapping(uint => mapping(address => uint)) public productsPurchases */\n    tag_48:\n      mstore(0x20, 0x04)\n      dup2\n      0x00\n      mstore\n      mstore(0x20, keccak256(0x00, 0x40))\n      dup1\n      0x00\n      mstore\n      keccak256(0x00, 0x40)\n      0x00\n      swap2\n      pop\n      swap2\n      pop\n      pop\n      sload\n      dup2\n      jump\t// out\n        /* \"contracts/Store.sol\":993:1190  function updateProductQuantity(uint id, uint quantity) public onlyOwner {\r... */\n    tag_53:\n        /* \"contracts/Ownable.sol\":236:241  owner */\n      0x00\n      dup1\n      sload\n      swap1\n      0x0100\n      exp\n      swap1\n      div\n      0xffffffffffffffffffffffffffffffffffffffff\n      and\n        /* \"contracts/Ownable.sol\":222:241  msg.sender == owner */\n      0xffffffffffffffffffffffffffffffffffffffff\n      and\n        /* \"contracts/Ownable.sol\":222:232  msg.sender */\n      caller\n        /* \"contracts/Ownable.sol\":222:241  msg.sender == owner */\n      0xffffffffffffffffffffffffffffffffffffffff\n      and\n      eq\n        /* \"contracts/Ownable.sol\":214:268  require(msg.sender == owner, \"You are not the owner!\") */\n      tag_104\n      jumpi\n      mload(0x40)\n      0x08c379a000000000000000000000000000000000000000000000000000000000\n      dup2\n      mstore\n      0x04\n      add\n      tag_105\n      swap1\n      tag_57\n      jump\t// in\n    tag_105:\n      mload(0x40)\n      dup1\n      swap2\n      sub\n      swap1\n      revert\n    tag_104:\n        /* \"contracts/Store.sol\":1089:1097  products */\n      0x01\n        /* \"contracts/Store.sol\":1089:1104  products.length */\n      dup1\n      sload\n      swap1\n      pop\n        /* \"contracts/Store.sol\":1084:1086  id */\n      dup3\n        /* \"contracts/Store.sol\":1084:1104  id < products.length */\n      lt\n        /* \"contracts/Store.sol\":1076:1137  require(id < products.length, \"The product is not existing!\") */\n      tag_107\n      jumpi\n      mload(0x40)\n      0x08c379a000000000000000000000000000000000000000000000000000000000\n      dup2\n      mstore\n      0x04\n      add\n      tag_108\n      swap1\n      tag_109\n      jump\t// in\n    tag_108:\n      mload(0x40)\n      dup1\n      swap2\n      sub\n      swap1\n      revert\n    tag_107:\n        /* \"contracts/Store.sol\":1174:1182  quantity */\n      dup1\n        /* \"contracts/Store.sol\":1150:1158  products */\n      0x01\n        /* \"contracts/Store.sol\":1159:1161  id */\n      dup4\n        /* \"contracts/Store.sol\":1150:1162  products[id] */\n      dup2\n      sload\n      dup2\n      lt\n      tag_110\n      jumpi\n      tag_111\n      tag_79\n      jump\t// in\n    tag_111:\n    tag_110:\n      swap1\n      0x00\n      mstore\n      keccak256(0x00, 0x20)\n      swap1\n      0x04\n      mul\n      add\n        /* \"contracts/Store.sol\":1150:1171  products[id].quantity */\n      0x02\n      add\n        /* \"contracts/Store.sol\":1150:1182  products[id].quantity = quantity */\n      dup2\n      swap1\n      sstore\n      pop\n        /* \"contracts/Store.sol\":993:1190  function updateProductQuantity(uint id, uint quantity) public onlyOwner {\r... */\n      pop\n      pop\n      jump\t// out\n    tag_69:\n      dup3\n      dup1\n      sload\n      tag_113\n      swap1\n      tag_89\n      jump\t// in\n    tag_113:\n      swap1\n      0x00\n      mstore\n      keccak256(0x00, 0x20)\n      swap1\n      0x1f\n      add\n      0x20\n      swap1\n      div\n      dup2\n      add\n      swap3\n      dup3\n      tag_115\n      jumpi\n      0x00\n      dup6\n      sstore\n      jump(tag_114)\n    tag_115:\n      dup3\n      0x1f\n      lt\n      tag_116\n      jumpi\n      dup1\n      mload\n      not(0xff)\n      and\n      dup4\n      dup1\n      add\n      or\n      dup6\n      sstore\n      jump(tag_114)\n    tag_116:\n      dup3\n      dup1\n      add\n      0x01\n      add\n      dup6\n      sstore\n      dup3\n      iszero\n      tag_114\n      jumpi\n      swap2\n      dup3\n      add\n    tag_117:\n      dup3\n      dup2\n      gt\n      iszero\n      tag_118\n      jumpi\n      dup3\n      mload\n      dup3\n      sstore\n      swap2\n      0x20\n      add\n      swap2\n      swap1\n      0x01\n      add\n      swap1\n      jump(tag_117)\n    tag_118:\n    tag_114:\n      pop\n      swap1\n      pop\n      tag_119\n      swap2\n      swap1\n      tag_120\n      jump\t// in\n    tag_119:\n      pop\n      swap1\n      jump\t// out\n    tag_120:\n    tag_121:\n      dup1\n      dup3\n      gt\n      iszero\n      tag_122\n      jumpi\n      0x00\n      dup2\n      0x00\n      swap1\n      sstore\n      pop\n      0x01\n      add\n      jump(tag_121)\n    tag_122:\n      pop\n      swap1\n      jump\t// out\n        /* \"#utility.yul\":7:419   */\n    tag_124:\n        /* \"#utility.yul\":85:90   */\n      0x00\n        /* \"#utility.yul\":110:176   */\n      tag_126\n        /* \"#utility.yul\":126:175   */\n      tag_127\n        /* \"#utility.yul\":168:174   */\n      dup5\n        /* \"#utility.yul\":126:175   */\n      tag_128\n      jump\t// in\n    tag_127:\n        /* \"#utility.yul\":110:176   */\n      tag_129\n      jump\t// in\n    tag_126:\n        /* \"#utility.yul\":101:176   */\n      swap1\n      pop\n        /* \"#utility.yul\":199:205   */\n      dup3\n        /* \"#utility.yul\":192:197   */\n      dup2\n        /* \"#utility.yul\":185:206   */\n      mstore\n        /* \"#utility.yul\":237:241   */\n      0x20\n        /* \"#utility.yul\":230:235   */\n      dup2\n        /* \"#utility.yul\":226:242   */\n      add\n        /* \"#utility.yul\":275:278   */\n      dup5\n        /* \"#utility.yul\":266:272   */\n      dup5\n        /* \"#utility.yul\":261:264   */\n      dup5\n        /* \"#utility.yul\":257:273   */\n      add\n        /* \"#utility.yul\":254:279   */\n      gt\n        /* \"#utility.yul\":251:363   */\n      iszero\n      tag_130\n      jumpi\n        /* \"#utility.yul\":282:361   */\n      tag_131\n      tag_132\n      jump\t// in\n    tag_131:\n        /* \"#utility.yul\":251:363   */\n    tag_130:\n        /* \"#utility.yul\":372:413   */\n      tag_133\n        /* \"#utility.yul\":406:412   */\n      dup5\n        /* \"#utility.yul\":401:404   */\n      dup3\n        /* \"#utility.yul\":396:399   */\n      dup6\n        /* \"#utility.yul\":372:413   */\n      tag_134\n      jump\t// in\n    tag_133:\n        /* \"#utility.yul\":91:419   */\n      pop\n        /* \"#utility.yul\":7:419   */\n      swap4\n      swap3\n      pop\n      pop\n      pop\n      jump\t// out\n        /* \"#utility.yul\":425:564   */\n    tag_135:\n        /* \"#utility.yul\":471:476   */\n      0x00\n        /* \"#utility.yul\":509:515   */\n      dup2\n        /* \"#utility.yul\":496:516   */\n      calldataload\n        /* \"#utility.yul\":487:516   */\n      swap1\n      pop\n        /* \"#utility.yul\":525:558   */\n      tag_137\n        /* \"#utility.yul\":552:557   */\n      dup2\n        /* \"#utility.yul\":525:558   */\n      tag_138\n      jump\t// in\n    tag_137:\n        /* \"#utility.yul\":425:564   */\n      swap3\n      swap2\n      pop\n      pop\n      jump\t// out\n        /* \"#utility.yul\":584:1137   */\n    tag_139:\n        /* \"#utility.yul\":642:650   */\n      0x00\n        /* \"#utility.yul\":652:658   */\n      dup1\n        /* \"#utility.yul\":702:705   */\n      dup4\n        /* \"#utility.yul\":695:699   */\n      0x1f\n        /* \"#utility.yul\":687:693   */\n      dup5\n        /* \"#utility.yul\":683:700   */\n      add\n        /* \"#utility.yul\":679:706   */\n      slt\n        /* \"#utility.yul\":669:791   */\n      tag_141\n      jumpi\n        /* \"#utility.yul\":710:789   */\n      tag_142\n      tag_143\n      jump\t// in\n    tag_142:\n        /* \"#utility.yul\":669:791   */\n    tag_141:\n        /* \"#utility.yul\":823:829   */\n      dup3\n        /* \"#utility.yul\":810:830   */\n      calldataload\n        /* \"#utility.yul\":800:830   */\n      swap1\n      pop\n        /* \"#utility.yul\":853:871   */\n      0xffffffffffffffff\n        /* \"#utility.yul\":845:851   */\n      dup2\n        /* \"#utility.yul\":842:872   */\n      gt\n        /* \"#utility.yul\":839:956   */\n      iszero\n      tag_144\n      jumpi\n        /* \"#utility.yul\":875:954   */\n      tag_145\n      tag_146\n      jump\t// in\n    tag_145:\n        /* \"#utility.yul\":839:956   */\n    tag_144:\n        /* \"#utility.yul\":989:993   */\n      0x20\n        /* \"#utility.yul\":981:987   */\n      dup4\n        /* \"#utility.yul\":977:994   */\n      add\n        /* \"#utility.yul\":965:994   */\n      swap2\n      pop\n        /* \"#utility.yul\":1043:1046   */\n      dup4\n        /* \"#utility.yul\":1035:1039   */\n      0x01\n        /* \"#utility.yul\":1027:1033   */\n      dup3\n        /* \"#utility.yul\":1023:1040   */\n      mul\n        /* \"#utility.yul\":1013:1021   */\n      dup4\n        /* \"#utility.yul\":1009:1041   */\n      add\n        /* \"#utility.yul\":1006:1047   */\n      gt\n        /* \"#utility.yul\":1003:1131   */\n      iszero\n      tag_147\n      jumpi\n        /* \"#utility.yul\":1050:1129   */\n      tag_148\n      tag_149\n      jump\t// in\n    tag_148:\n        /* \"#utility.yul\":1003:1131   */\n    tag_147:\n        /* \"#utility.yul\":584:1137   */\n      swap3\n      pop\n      swap3\n      swap1\n      pop\n      jump\t// out\n        /* \"#utility.yul\":1157:1497   */\n    tag_150:\n        /* \"#utility.yul\":1213:1218   */\n      0x00\n        /* \"#utility.yul\":1262:1265   */\n      dup3\n        /* \"#utility.yul\":1255:1259   */\n      0x1f\n        /* \"#utility.yul\":1247:1253   */\n      dup4\n        /* \"#utility.yul\":1243:1260   */\n      add\n        /* \"#utility.yul\":1239:1266   */\n      slt\n        /* \"#utility.yul\":1229:1351   */\n      tag_152\n      jumpi\n        /* \"#utility.yul\":1270:1349   */\n      tag_153\n      tag_143\n      jump\t// in\n    tag_153:\n        /* \"#utility.yul\":1229:1351   */\n    tag_152:\n        /* \"#utility.yul\":1387:1393   */\n      dup2\n        /* \"#utility.yul\":1374:1394   */\n      calldataload\n        /* \"#utility.yul\":1412:1491   */\n      tag_154\n        /* \"#utility.yul\":1487:1490   */\n      dup5\n        /* \"#utility.yul\":1479:1485   */\n      dup3\n        /* \"#utility.yul\":1472:1476   */\n      0x20\n        /* \"#utility.yul\":1464:1470   */\n      dup7\n        /* \"#utility.yul\":1460:1477   */\n      add\n        /* \"#utility.yul\":1412:1491   */\n      tag_124\n      jump\t// in\n    tag_154:\n        /* \"#utility.yul\":1403:1491   */\n      swap2\n      pop\n        /* \"#utility.yul\":1219:1497   */\n      pop\n        /* \"#utility.yul\":1157:1497   */\n      swap3\n      swap2\n      pop\n      pop\n      jump\t// out\n        /* \"#utility.yul\":1503:1642   */\n    tag_155:\n        /* \"#utility.yul\":1549:1554   */\n      0x00\n        /* \"#utility.yul\":1587:1593   */\n      dup2\n        /* \"#utility.yul\":1574:1594   */\n      calldataload\n        /* \"#utility.yul\":1565:1594   */\n      swap1\n      pop\n        /* \"#utility.yul\":1603:1636   */\n      tag_157\n        /* \"#utility.yul\":1630:1635   */\n      dup2\n        /* \"#utility.yul\":1603:1636   */\n      tag_158\n      jump\t// in\n    tag_157:\n        /* \"#utility.yul\":1503:1642   */\n      swap3\n      swap2\n      pop\n      pop\n      jump\t// out\n        /* \"#utility.yul\":1648:2467   */\n    tag_15:\n        /* \"#utility.yul\":1737:1743   */\n      0x00\n        /* \"#utility.yul\":1745:1751   */\n      dup1\n        /* \"#utility.yul\":1753:1759   */\n      0x00\n        /* \"#utility.yul\":1761:1767   */\n      dup1\n        /* \"#utility.yul\":1810:1812   */\n      0x60\n        /* \"#utility.yul\":1798:1807   */\n      dup6\n        /* \"#utility.yul\":1789:1796   */\n      dup8\n        /* \"#utility.yul\":1785:1808   */\n      sub\n        /* \"#utility.yul\":1781:1813   */\n      slt\n        /* \"#utility.yul\":1778:1897   */\n      iszero\n      tag_160\n      jumpi\n        /* \"#utility.yul\":1816:1895   */\n      tag_161\n      tag_162\n      jump\t// in\n    tag_161:\n        /* \"#utility.yul\":1778:1897   */\n    tag_160:\n        /* \"#utility.yul\":1964:1965   */\n      0x00\n        /* \"#utility.yul\":1953:1962   */\n      dup6\n        /* \"#utility.yul\":1949:1966   */\n      add\n        /* \"#utility.yul\":1936:1967   */\n      calldataload\n        /* \"#utility.yul\":1994:2012   */\n      0xffffffffffffffff\n        /* \"#utility.yul\":1986:1992   */\n      dup2\n        /* \"#utility.yul\":1983:2013   */\n      gt\n        /* \"#utility.yul\":1980:2097   */\n      iszero\n      tag_163\n      jumpi\n        /* \"#utility.yul\":2016:2095   */\n      tag_164\n      tag_165\n      jump\t// in\n    tag_164:\n        /* \"#utility.yul\":1980:2097   */\n    tag_163:\n        /* \"#utility.yul\":2129:2194   */\n      tag_166\n        /* \"#utility.yul\":2186:2193   */\n      dup8\n        /* \"#utility.yul\":2177:2183   */\n      dup3\n        /* \"#utility.yul\":2166:2175   */\n      dup9\n        /* \"#utility.yul\":2162:2184   */\n      add\n        /* \"#utility.yul\":2129:2194   */\n      tag_139\n      jump\t// in\n    tag_166:\n        /* \"#utility.yul\":2111:2194   */\n      swap5\n      pop\n      swap5\n      pop\n        /* \"#utility.yul\":1907:2204   */\n      pop\n        /* \"#utility.yul\":2243:2245   */\n      0x20\n        /* \"#utility.yul\":2269:2322   */\n      tag_167\n        /* \"#utility.yul\":2314:2321   */\n      dup8\n        /* \"#utility.yul\":2305:2311   */\n      dup3\n        /* \"#utility.yul\":2294:2303   */\n      dup9\n        /* \"#utility.yul\":2290:2312   */\n      add\n        /* \"#utility.yul\":2269:2322   */\n      tag_155\n      jump\t// in\n    tag_167:\n        /* \"#utility.yul\":2259:2322   */\n      swap3\n      pop\n        /* \"#utility.yul\":2214:2332   */\n      pop\n        /* \"#utility.yul\":2371:2373   */\n      0x40\n        /* \"#utility.yul\":2397:2450   */\n      tag_168\n        /* \"#utility.yul\":2442:2449   */\n      dup8\n        /* \"#utility.yul\":2433:2439   */\n      dup3\n        /* \"#utility.yul\":2422:2431   */\n      dup9\n        /* \"#utility.yul\":2418:2440   */\n      add\n        /* \"#utility.yul\":2397:2450   */\n      tag_155\n      jump\t// in\n    tag_168:\n        /* \"#utility.yul\":2387:2450   */\n      swap2\n      pop\n        /* \"#utility.yul\":2342:2460   */\n      pop\n        /* \"#utility.yul\":1648:2467   */\n      swap3\n      swap6\n      swap2\n      swap5\n      pop\n      swap3\n      pop\n      jump\t// out\n        /* \"#utility.yul\":2473:2982   */\n    tag_19:\n        /* \"#utility.yul\":2542:2548   */\n      0x00\n        /* \"#utility.yul\":2591:2593   */\n      0x20\n        /* \"#utility.yul\":2579:2588   */\n      dup3\n        /* \"#utility.yul\":2570:2577   */\n      dup5\n        /* \"#utility.yul\":2566:2589   */\n      sub\n        /* \"#utility.yul\":2562:2594   */\n      slt\n        /* \"#utility.yul\":2559:2678   */\n      iszero\n      tag_170\n      jumpi\n        /* \"#utility.yul\":2597:2676   */\n      tag_171\n      tag_162\n      jump\t// in\n    tag_171:\n        /* \"#utility.yul\":2559:2678   */\n    tag_170:\n        /* \"#utility.yul\":2745:2746   */\n      0x00\n        /* \"#utility.yul\":2734:2743   */\n      dup3\n        /* \"#utility.yul\":2730:2747   */\n      add\n        /* \"#utility.yul\":2717:2748   */\n      calldataload\n        /* \"#utility.yul\":2775:2793   */\n      0xffffffffffffffff\n        /* \"#utility.yul\":2767:2773   */\n      dup2\n        /* \"#utility.yul\":2764:2794   */\n      gt\n        /* \"#utility.yul\":2761:2878   */\n      iszero\n      tag_172\n      jumpi\n        /* \"#utility.yul\":2797:2876   */\n      tag_173\n      tag_165\n      jump\t// in\n    tag_173:\n        /* \"#utility.yul\":2761:2878   */\n    tag_172:\n        /* \"#utility.yul\":2902:2965   */\n      tag_174\n        /* \"#utility.yul\":2957:2964   */\n      dup5\n        /* \"#utility.yul\":2948:2954   */\n      dup3\n        /* \"#utility.yul\":2937:2946   */\n      dup6\n        /* \"#utility.yul\":2933:2955   */\n      add\n        /* \"#utility.yul\":2902:2965   */\n      tag_150\n      jump\t// in\n    tag_174:\n        /* \"#utility.yul\":2892:2965   */\n      swap2\n      pop\n        /* \"#utility.yul\":2688:2975   */\n      pop\n        /* \"#utility.yul\":2473:2982   */\n      swap3\n      swap2\n      pop\n      pop\n      jump\t// out\n        /* \"#utility.yul\":2988:3317   */\n    tag_29:\n        /* \"#utility.yul\":3047:3053   */\n      0x00\n        /* \"#utility.yul\":3096:3098   */\n      0x20\n        /* \"#utility.yul\":3084:3093   */\n      dup3\n        /* \"#utility.yul\":3075:3082   */\n      dup5\n        /* \"#utility.yul\":3071:3094   */\n      sub\n        /* \"#utility.yul\":3067:3099   */\n      slt\n        /* \"#utility.yul\":3064:3183   */\n      iszero\n      tag_176\n      jumpi\n        /* \"#utility.yul\":3102:3181   */\n      tag_177\n      tag_162\n      jump\t// in\n    tag_177:\n        /* \"#utility.yul\":3064:3183   */\n    tag_176:\n        /* \"#utility.yul\":3222:3223   */\n      0x00\n        /* \"#utility.yul\":3247:3300   */\n      tag_178\n        /* \"#utility.yul\":3292:3299   */\n      dup5\n        /* \"#utility.yul\":3283:3289   */\n      dup3\n        /* \"#utility.yul\":3272:3281   */\n      dup6\n        /* \"#utility.yul\":3268:3290   */\n      add\n        /* \"#utility.yul\":3247:3300   */\n      tag_155\n      jump\t// in\n    tag_178:\n        /* \"#utility.yul\":3237:3300   */\n      swap2\n      pop\n        /* \"#utility.yul\":3193:3310   */\n      pop\n        /* \"#utility.yul\":2988:3317   */\n      swap3\n      swap2\n      pop\n      pop\n      jump\t// out\n        /* \"#utility.yul\":3323:3797   */\n    tag_47:\n        /* \"#utility.yul\":3391:3397   */\n      0x00\n        /* \"#utility.yul\":3399:3405   */\n      dup1\n        /* \"#utility.yul\":3448:3450   */\n      0x40\n        /* \"#utility.yul\":3436:3445   */\n      dup4\n        /* \"#utility.yul\":3427:3434   */\n      dup6\n        /* \"#utility.yul\":3423:3446   */\n      sub\n        /* \"#utility.yul\":3419:3451   */\n      slt\n        /* \"#utility.yul\":3416:3535   */\n      iszero\n      tag_180\n      jumpi\n        /* \"#utility.yul\":3454:3533   */\n      tag_181\n      tag_162\n      jump\t// in\n    tag_181:\n        /* \"#utility.yul\":3416:3535   */\n    tag_180:\n        /* \"#utility.yul\":3574:3575   */\n      0x00\n        /* \"#utility.yul\":3599:3652   */\n      tag_182\n        /* \"#utility.yul\":3644:3651   */\n      dup6\n        /* \"#utility.yul\":3635:3641   */\n      dup3\n        /* \"#utility.yul\":3624:3633   */\n      dup7\n        /* \"#utility.yul\":3620:3642   */\n      add\n        /* \"#utility.yul\":3599:3652   */\n      tag_155\n      jump\t// in\n    tag_182:\n        /* \"#utility.yul\":3589:3652   */\n      swap3\n      pop\n        /* \"#utility.yul\":3545:3662   */\n      pop\n        /* \"#utility.yul\":3701:3703   */\n      0x20\n        /* \"#utility.yul\":3727:3780   */\n      tag_183\n        /* \"#utility.yul\":3772:3779   */\n      dup6\n        /* \"#utility.yul\":3763:3769   */\n      dup3\n        /* \"#utility.yul\":3752:3761   */\n      dup7\n        /* \"#utility.yul\":3748:3770   */\n      add\n        /* \"#utility.yul\":3727:3780   */\n      tag_135\n      jump\t// in\n    tag_183:\n        /* \"#utility.yul\":3717:3780   */\n      swap2\n      pop\n        /* \"#utility.yul\":3672:3790   */\n      pop\n        /* \"#utility.yul\":3323:3797   */\n      swap3\n      pop\n      swap3\n      swap1\n      pop\n      jump\t// out\n        /* \"#utility.yul\":3803:4277   */\n    tag_25:\n        /* \"#utility.yul\":3871:3877   */\n      0x00\n        /* \"#utility.yul\":3879:3885   */\n      dup1\n        /* \"#utility.yul\":3928:3930   */\n      0x40\n        /* \"#utility.yul\":3916:3925   */\n      dup4\n        /* \"#utility.yul\":3907:3914   */\n      dup6\n        /* \"#utility.yul\":3903:3926   */\n      sub\n        /* \"#utility.yul\":3899:3931   */\n      slt\n        /* \"#utility.yul\":3896:4015   */\n      iszero\n      tag_185\n      jumpi\n        /* \"#utility.yul\":3934:4013   */\n      tag_186\n      tag_162\n      jump\t// in\n    tag_186:\n        /* \"#utility.yul\":3896:4015   */\n    tag_185:\n        /* \"#utility.yul\":4054:4055   */\n      0x00\n        /* \"#utility.yul\":4079:4132   */\n      tag_187\n        /* \"#utility.yul\":4124:4131   */\n      dup6\n        /* \"#utility.yul\":4115:4121   */\n      dup3\n        /* \"#utility.yul\":4104:4113   */\n      dup7\n        /* \"#utility.yul\":4100:4122   */\n      add\n        /* \"#utility.yul\":4079:4132   */\n      tag_155\n      jump\t// in\n    tag_187:\n        /* \"#utility.yul\":4069:4132   */\n      swap3\n      pop\n        /* \"#utility.yul\":4025:4142   */\n      pop\n        /* \"#utility.yul\":4181:4183   */\n      0x20\n        /* \"#utility.yul\":4207:4260   */\n      tag_188\n        /* \"#utility.yul\":4252:4259   */\n      dup6\n        /* \"#utility.yul\":4243:4249   */\n      dup3\n        /* \"#utility.yul\":4232:4241   */\n      dup7\n        /* \"#utility.yul\":4228:4250   */\n      add\n        /* \"#utility.yul\":4207:4260   */\n      tag_155\n      jump\t// in\n    tag_188:\n        /* \"#utility.yul\":4197:4260   */\n      swap2\n      pop\n        /* \"#utility.yul\":4152:4270   */\n      pop\n        /* \"#utility.yul\":3803:4277   */\n      swap3\n      pop\n      swap3\n      swap1\n      pop\n      jump\t// out\n        /* \"#utility.yul\":4283:4531   */\n    tag_189:\n        /* \"#utility.yul\":4398:4408   */\n      0x00\n        /* \"#utility.yul\":4433:4525   */\n      tag_191\n        /* \"#utility.yul\":4521:4524   */\n      dup4\n        /* \"#utility.yul\":4513:4519   */\n      dup4\n        /* \"#utility.yul\":4433:4525   */\n      tag_192\n      jump\t// in\n    tag_191:\n        /* \"#utility.yul\":4419:4525   */\n      swap1\n      pop\n        /* \"#utility.yul\":4283:4531   */\n      swap3\n      swap2\n      pop\n      pop\n      jump\t// out\n        /* \"#utility.yul\":4537:4655   */\n    tag_193:\n        /* \"#utility.yul\":4624:4648   */\n      tag_195\n        /* \"#utility.yul\":4642:4647   */\n      dup2\n        /* \"#utility.yul\":4624:4648   */\n      tag_196\n      jump\t// in\n    tag_195:\n        /* \"#utility.yul\":4619:4622   */\n      dup3\n        /* \"#utility.yul\":4612:4649   */\n      mstore\n        /* \"#utility.yul\":4537:4655   */\n      pop\n      pop\n      jump\t// out\n        /* \"#utility.yul\":4717:5812   */\n    tag_197:\n        /* \"#utility.yul\":4882:4885   */\n      0x00\n        /* \"#utility.yul\":4911:4988   */\n      tag_199\n        /* \"#utility.yul\":4982:4987   */\n      dup3\n        /* \"#utility.yul\":4911:4988   */\n      tag_200\n      jump\t// in\n    tag_199:\n        /* \"#utility.yul\":5004:5113   */\n      tag_201\n        /* \"#utility.yul\":5106:5112   */\n      dup2\n        /* \"#utility.yul\":5101:5104   */\n      dup6\n        /* \"#utility.yul\":5004:5113   */\n      tag_202\n      jump\t// in\n    tag_201:\n        /* \"#utility.yul\":4997:5113   */\n      swap4\n      pop\n        /* \"#utility.yul\":5139:5142   */\n      dup4\n        /* \"#utility.yul\":5184:5188   */\n      0x20\n        /* \"#utility.yul\":5176:5182   */\n      dup3\n        /* \"#utility.yul\":5172:5189   */\n      mul\n        /* \"#utility.yul\":5167:5170   */\n      dup6\n        /* \"#utility.yul\":5163:5190   */\n      add\n        /* \"#utility.yul\":5214:5293   */\n      tag_203\n        /* \"#utility.yul\":5287:5292   */\n      dup6\n        /* \"#utility.yul\":5214:5293   */\n      tag_204\n      jump\t// in\n    tag_203:\n        /* \"#utility.yul\":5316:5323   */\n      dup1\n        /* \"#utility.yul\":5347:5348   */\n      0x00\n        /* \"#utility.yul\":5332:5767   */\n    tag_205:\n        /* \"#utility.yul\":5357:5363   */\n      dup6\n        /* \"#utility.yul\":5354:5355   */\n      dup2\n        /* \"#utility.yul\":5351:5364   */\n      lt\n        /* \"#utility.yul\":5332:5767   */\n      iszero\n      tag_207\n      jumpi\n        /* \"#utility.yul\":5428:5437   */\n      dup5\n        /* \"#utility.yul\":5422:5426   */\n      dup5\n        /* \"#utility.yul\":5418:5438   */\n      sub\n        /* \"#utility.yul\":5413:5416   */\n      dup10\n        /* \"#utility.yul\":5406:5439   */\n      mstore\n        /* \"#utility.yul\":5479:5485   */\n      dup2\n        /* \"#utility.yul\":5473:5486   */\n      mload\n        /* \"#utility.yul\":5507:5617   */\n      tag_208\n        /* \"#utility.yul\":5612:5616   */\n      dup6\n        /* \"#utility.yul\":5597:5610   */\n      dup3\n        /* \"#utility.yul\":5507:5617   */\n      tag_189\n      jump\t// in\n    tag_208:\n        /* \"#utility.yul\":5499:5617   */\n      swap5\n      pop\n        /* \"#utility.yul\":5640:5723   */\n      tag_209\n        /* \"#utility.yul\":5716:5722   */\n      dup4\n        /* \"#utility.yul\":5640:5723   */\n      tag_210\n      jump\t// in\n    tag_209:\n        /* \"#utility.yul\":5630:5723   */\n      swap3\n      pop\n        /* \"#utility.yul\":5752:5756   */\n      0x20\n        /* \"#utility.yul\":5747:5750   */\n      dup11\n        /* \"#utility.yul\":5743:5757   */\n      add\n        /* \"#utility.yul\":5736:5757   */\n      swap10\n      pop\n        /* \"#utility.yul\":5392:5767   */\n      pop\n        /* \"#utility.yul\":5379:5380   */\n      0x01\n        /* \"#utility.yul\":5376:5377   */\n      dup2\n        /* \"#utility.yul\":5372:5381   */\n      add\n        /* \"#utility.yul\":5367:5381   */\n      swap1\n      pop\n        /* \"#utility.yul\":5332:5767   */\n      jump(tag_205)\n    tag_207:\n        /* \"#utility.yul\":5336:5350   */\n      pop\n        /* \"#utility.yul\":5783:5787   */\n      dup3\n        /* \"#utility.yul\":5776:5787   */\n      swap8\n      pop\n        /* \"#utility.yul\":5803:5806   */\n      dup8\n        /* \"#utility.yul\":5796:5806   */\n      swap6\n      pop\n        /* \"#utility.yul\":4887:5812   */\n      pop\n      pop\n      pop\n      pop\n      pop\n        /* \"#utility.yul\":4717:5812   */\n      swap3\n      swap2\n      pop\n      pop\n      jump\t// out\n        /* \"#utility.yul\":5818:5927   */\n    tag_211:\n        /* \"#utility.yul\":5899:5920   */\n      tag_213\n        /* \"#utility.yul\":5914:5919   */\n      dup2\n        /* \"#utility.yul\":5899:5920   */\n      tag_214\n      jump\t// in\n    tag_213:\n        /* \"#utility.yul\":5894:5897   */\n      dup3\n        /* \"#utility.yul\":5887:5921   */\n      mstore\n        /* \"#utility.yul\":5818:5927   */\n      pop\n      pop\n      jump\t// out\n        /* \"#utility.yul\":5957:6274   */\n    tag_215:\n        /* \"#utility.yul\":6073:6076   */\n      0x00\n        /* \"#utility.yul\":6094:6183   */\n      tag_217\n        /* \"#utility.yul\":6176:6182   */\n      dup4\n        /* \"#utility.yul\":6171:6174   */\n      dup6\n        /* \"#utility.yul\":6094:6183   */\n      tag_218\n      jump\t// in\n    tag_217:\n        /* \"#utility.yul\":6087:6183   */\n      swap4\n      pop\n        /* \"#utility.yul\":6193:6236   */\n      tag_219\n        /* \"#utility.yul\":6229:6235   */\n      dup4\n        /* \"#utility.yul\":6224:6227   */\n      dup6\n        /* \"#utility.yul\":6217:6222   */\n      dup5\n        /* \"#utility.yul\":6193:6236   */\n      tag_134\n      jump\t// in\n    tag_219:\n        /* \"#utility.yul\":6261:6267   */\n      dup3\n        /* \"#utility.yul\":6256:6259   */\n      dup5\n        /* \"#utility.yul\":6252:6268   */\n      add\n        /* \"#utility.yul\":6245:6268   */\n      swap1\n      pop\n        /* \"#utility.yul\":5957:6274   */\n      swap4\n      swap3\n      pop\n      pop\n      pop\n      jump\t// out\n        /* \"#utility.yul\":6280:6624   */\n    tag_220:\n        /* \"#utility.yul\":6358:6361   */\n      0x00\n        /* \"#utility.yul\":6386:6425   */\n      tag_222\n        /* \"#utility.yul\":6419:6424   */\n      dup3\n        /* \"#utility.yul\":6386:6425   */\n      tag_223\n      jump\t// in\n    tag_222:\n        /* \"#utility.yul\":6441:6502   */\n      tag_224\n        /* \"#utility.yul\":6495:6501   */\n      dup2\n        /* \"#utility.yul\":6490:6493   */\n      dup6\n        /* \"#utility.yul\":6441:6502   */\n      tag_225\n      jump\t// in\n    tag_224:\n        /* \"#utility.yul\":6434:6502   */\n      swap4\n      pop\n        /* \"#utility.yul\":6511:6563   */\n      tag_226\n        /* \"#utility.yul\":6556:6562   */\n      dup2\n        /* \"#utility.yul\":6551:6554   */\n      dup6\n        /* \"#utility.yul\":6544:6548   */\n      0x20\n        /* \"#utility.yul\":6537:6542   */\n      dup7\n        /* \"#utility.yul\":6533:6549   */\n      add\n        /* \"#utility.yul\":6511:6563   */\n      tag_227\n      jump\t// in\n    tag_226:\n        /* \"#utility.yul\":6588:6617   */\n      tag_228\n        /* \"#utility.yul\":6610:6616   */\n      dup2\n        /* \"#utility.yul\":6588:6617   */\n      tag_229\n      jump\t// in\n    tag_228:\n        /* \"#utility.yul\":6583:6586   */\n      dup5\n        /* \"#utility.yul\":6579:6618   */\n      add\n        /* \"#utility.yul\":6572:6618   */\n      swap2\n      pop\n        /* \"#utility.yul\":6362:6624   */\n      pop\n        /* \"#utility.yul\":6280:6624   */\n      swap3\n      swap2\n      pop\n      pop\n      jump\t// out\n        /* \"#utility.yul\":6630:6994   */\n    tag_230:\n        /* \"#utility.yul\":6718:6721   */\n      0x00\n        /* \"#utility.yul\":6746:6785   */\n      tag_232\n        /* \"#utility.yul\":6779:6784   */\n      dup3\n        /* \"#utility.yul\":6746:6785   */\n      tag_223\n      jump\t// in\n    tag_232:\n        /* \"#utility.yul\":6801:6872   */\n      tag_233\n        /* \"#utility.yul\":6865:6871   */\n      dup2\n        /* \"#utility.yul\":6860:6863   */\n      dup6\n        /* \"#utility.yul\":6801:6872   */\n      tag_234\n      jump\t// in\n    tag_233:\n        /* \"#utility.yul\":6794:6872   */\n      swap4\n      pop\n        /* \"#utility.yul\":6881:6933   */\n      tag_235\n        /* \"#utility.yul\":6926:6932   */\n      dup2\n        /* \"#utility.yul\":6921:6924   */\n      dup6\n        /* \"#utility.yul\":6914:6918   */\n      0x20\n        /* \"#utility.yul\":6907:6912   */\n      dup7\n        /* \"#utility.yul\":6903:6919   */\n      add\n        /* \"#utility.yul\":6881:6933   */\n      tag_227\n      jump\t// in\n    tag_235:\n        /* \"#utility.yul\":6958:6987   */\n      tag_236\n        /* \"#utility.yul\":6980:6986   */\n      dup2\n        /* \"#utility.yul\":6958:6987   */\n      tag_229\n      jump\t// in\n    tag_236:\n        /* \"#utility.yul\":6953:6956   */\n      dup5\n        /* \"#utility.yul\":6949:6988   */\n      add\n        /* \"#utility.yul\":6942:6988   */\n      swap2\n      pop\n        /* \"#utility.yul\":6722:6994   */\n      pop\n        /* \"#utility.yul\":6630:6994   */\n      swap3\n      swap2\n      pop\n      pop\n      jump\t// out\n        /* \"#utility.yul\":7000:7366   */\n    tag_237:\n        /* \"#utility.yul\":7142:7145   */\n      0x00\n        /* \"#utility.yul\":7163:7230   */\n      tag_239\n        /* \"#utility.yul\":7227:7229   */\n      0x16\n        /* \"#utility.yul\":7222:7225   */\n      dup4\n        /* \"#utility.yul\":7163:7230   */\n      tag_234\n      jump\t// in\n    tag_239:\n        /* \"#utility.yul\":7156:7230   */\n      swap2\n      pop\n        /* \"#utility.yul\":7239:7332   */\n      tag_240\n        /* \"#utility.yul\":7328:7331   */\n      dup3\n        /* \"#utility.yul\":7239:7332   */\n      tag_241\n      jump\t// in\n    tag_240:\n        /* \"#utility.yul\":7357:7359   */\n      0x20\n        /* \"#utility.yul\":7352:7355   */\n      dup3\n        /* \"#utility.yul\":7348:7360   */\n      add\n        /* \"#utility.yul\":7341:7360   */\n      swap1\n      pop\n        /* \"#utility.yul\":7000:7366   */\n      swap2\n      swap1\n      pop\n      jump\t// out\n        /* \"#utility.yul\":7372:7738   */\n    tag_242:\n        /* \"#utility.yul\":7514:7517   */\n      0x00\n        /* \"#utility.yul\":7535:7602   */\n      tag_244\n        /* \"#utility.yul\":7599:7601   */\n      0x2d\n        /* \"#utility.yul\":7594:7597   */\n      dup4\n        /* \"#utility.yul\":7535:7602   */\n      tag_234\n      jump\t// in\n    tag_244:\n        /* \"#utility.yul\":7528:7602   */\n      swap2\n      pop\n        /* \"#utility.yul\":7611:7704   */\n      tag_245\n        /* \"#utility.yul\":7700:7703   */\n      dup3\n        /* \"#utility.yul\":7611:7704   */\n      tag_246\n      jump\t// in\n    tag_245:\n        /* \"#utility.yul\":7729:7731   */\n      0x40\n        /* \"#utility.yul\":7724:7727   */\n      dup3\n        /* \"#utility.yul\":7720:7732   */\n      add\n        /* \"#utility.yul\":7713:7732   */\n      swap1\n      pop\n        /* \"#utility.yul\":7372:7738   */\n      swap2\n      swap1\n      pop\n      jump\t// out\n        /* \"#utility.yul\":7744:8110   */\n    tag_247:\n        /* \"#utility.yul\":7886:7889   */\n      0x00\n        /* \"#utility.yul\":7907:7974   */\n      tag_249\n        /* \"#utility.yul\":7971:7973   */\n      0x18\n        /* \"#utility.yul\":7966:7969   */\n      dup4\n        /* \"#utility.yul\":7907:7974   */\n      tag_234\n      jump\t// in\n    tag_249:\n        /* \"#utility.yul\":7900:7974   */\n      swap2\n      pop\n        /* \"#utility.yul\":7983:8076   */\n      tag_250\n        /* \"#utility.yul\":8072:8075   */\n      dup3\n        /* \"#utility.yul\":7983:8076   */\n      tag_251\n      jump\t// in\n    tag_250:\n        /* \"#utility.yul\":8101:8103   */\n      0x20\n        /* \"#utility.yul\":8096:8099   */\n      dup3\n        /* \"#utility.yul\":8092:8104   */\n      add\n        /* \"#utility.yul\":8085:8104   */\n      swap1\n      pop\n        /* \"#utility.yul\":7744:8110   */\n      swap2\n      swap1\n      pop\n      jump\t// out\n        /* \"#utility.yul\":8116:8482   */\n    tag_252:\n        /* \"#utility.yul\":8258:8261   */\n      0x00\n        /* \"#utility.yul\":8279:8346   */\n      tag_254\n        /* \"#utility.yul\":8343:8345   */\n      0x25\n        /* \"#utility.yul\":8338:8341   */\n      dup4\n        /* \"#utility.yul\":8279:8346   */\n      tag_234\n      jump\t// in\n    tag_254:\n        /* \"#utility.yul\":8272:8346   */\n      swap2\n      pop\n        /* \"#utility.yul\":8355:8448   */\n      tag_255\n        /* \"#utility.yul\":8444:8447   */\n      dup3\n        /* \"#utility.yul\":8355:8448   */\n      tag_256\n      jump\t// in\n    tag_255:\n        /* \"#utility.yul\":8473:8475   */\n      0x40\n        /* \"#utility.yul\":8468:8471   */\n      dup3\n        /* \"#utility.yul\":8464:8476   */\n      add\n        /* \"#utility.yul\":8457:8476   */\n      swap1\n      pop\n        /* \"#utility.yul\":8116:8482   */\n      swap2\n      swap1\n      pop\n      jump\t// out\n        /* \"#utility.yul\":8488:8854   */\n    tag_257:\n        /* \"#utility.yul\":8630:8633   */\n      0x00\n        /* \"#utility.yul\":8651:8718   */\n      tag_259\n        /* \"#utility.yul\":8715:8717   */\n      0x1c\n        /* \"#utility.yul\":8710:8713   */\n      dup4\n        /* \"#utility.yul\":8651:8718   */\n      tag_234\n      jump\t// in\n    tag_259:\n        /* \"#utility.yul\":8644:8718   */\n      swap2\n      pop\n        /* \"#utility.yul\":8727:8820   */\n      tag_260\n        /* \"#utility.yul\":8816:8819   */\n      dup3\n        /* \"#utility.yul\":8727:8820   */\n      tag_261\n      jump\t// in\n    tag_260:\n        /* \"#utility.yul\":8845:8847   */\n      0x20\n        /* \"#utility.yul\":8840:8843   */\n      dup3\n        /* \"#utility.yul\":8836:8848   */\n      add\n        /* \"#utility.yul\":8829:8848   */\n      swap1\n      pop\n        /* \"#utility.yul\":8488:8854   */\n      swap2\n      swap1\n      pop\n      jump\t// out\n        /* \"#utility.yul\":8860:9226   */\n    tag_262:\n        /* \"#utility.yul\":9002:9005   */\n      0x00\n        /* \"#utility.yul\":9023:9090   */\n      tag_264\n        /* \"#utility.yul\":9087:9089   */\n      0x24\n        /* \"#utility.yul\":9082:9085   */\n      dup4\n        /* \"#utility.yul\":9023:9090   */\n      tag_234\n      jump\t// in\n    tag_264:\n        /* \"#utility.yul\":9016:9090   */\n      swap2\n      pop\n        /* \"#utility.yul\":9099:9192   */\n      tag_265\n        /* \"#utility.yul\":9188:9191   */\n      dup3\n        /* \"#utility.yul\":9099:9192   */\n      tag_266\n      jump\t// in\n    tag_265:\n        /* \"#utility.yul\":9217:9219   */\n      0x40\n        /* \"#utility.yul\":9212:9215   */\n      dup3\n        /* \"#utility.yul\":9208:9220   */\n      add\n        /* \"#utility.yul\":9201:9220   */\n      swap1\n      pop\n        /* \"#utility.yul\":8860:9226   */\n      swap2\n      swap1\n      pop\n      jump\t// out\n        /* \"#utility.yul\":9284:10227   */\n    tag_192:\n        /* \"#utility.yul\":9389:9392   */\n      0x00\n        /* \"#utility.yul\":9425:9429   */\n      0x80\n        /* \"#utility.yul\":9420:9423   */\n      dup4\n        /* \"#utility.yul\":9416:9430   */\n      add\n        /* \"#utility.yul\":9510:9514   */\n      0x00\n        /* \"#utility.yul\":9503:9508   */\n      dup4\n        /* \"#utility.yul\":9499:9515   */\n      add\n        /* \"#utility.yul\":9493:9516   */\n      mload\n        /* \"#utility.yul\":9529:9592   */\n      tag_268\n        /* \"#utility.yul\":9586:9590   */\n      0x00\n        /* \"#utility.yul\":9581:9584   */\n      dup7\n        /* \"#utility.yul\":9577:9591   */\n      add\n        /* \"#utility.yul\":9563:9575   */\n      dup3\n        /* \"#utility.yul\":9529:9592   */\n      tag_269\n      jump\t// in\n    tag_268:\n        /* \"#utility.yul\":9440:9602   */\n      pop\n        /* \"#utility.yul\":9684:9688   */\n      0x20\n        /* \"#utility.yul\":9677:9682   */\n      dup4\n        /* \"#utility.yul\":9673:9689   */\n      add\n        /* \"#utility.yul\":9667:9690   */\n      mload\n        /* \"#utility.yul\":9737:9740   */\n      dup5\n        /* \"#utility.yul\":9731:9735   */\n      dup3\n        /* \"#utility.yul\":9727:9741   */\n      sub\n        /* \"#utility.yul\":9720:9724   */\n      0x20\n        /* \"#utility.yul\":9715:9718   */\n      dup7\n        /* \"#utility.yul\":9711:9725   */\n      add\n        /* \"#utility.yul\":9704:9742   */\n      mstore\n        /* \"#utility.yul\":9763:9836   */\n      tag_270\n        /* \"#utility.yul\":9831:9835   */\n      dup3\n        /* \"#utility.yul\":9817:9829   */\n      dup3\n        /* \"#utility.yul\":9763:9836   */\n      tag_220\n      jump\t// in\n    tag_270:\n        /* \"#utility.yul\":9755:9836   */\n      swap2\n      pop\n        /* \"#utility.yul\":9612:9847   */\n      pop\n        /* \"#utility.yul\":9933:9937   */\n      0x40\n        /* \"#utility.yul\":9926:9931   */\n      dup4\n        /* \"#utility.yul\":9922:9938   */\n      add\n        /* \"#utility.yul\":9916:9939   */\n      mload\n        /* \"#utility.yul\":9952:10015   */\n      tag_271\n        /* \"#utility.yul\":10009:10013   */\n      0x40\n        /* \"#utility.yul\":10004:10007   */\n      dup7\n        /* \"#utility.yul\":10000:10014   */\n      add\n        /* \"#utility.yul\":9986:9998   */\n      dup3\n        /* \"#utility.yul\":9952:10015   */\n      tag_269\n      jump\t// in\n    tag_271:\n        /* \"#utility.yul\":9857:10025   */\n      pop\n        /* \"#utility.yul\":10108:10112   */\n      0x60\n        /* \"#utility.yul\":10101:10106   */\n      dup4\n        /* \"#utility.yul\":10097:10113   */\n      add\n        /* \"#utility.yul\":10091:10114   */\n      mload\n        /* \"#utility.yul\":10127:10190   */\n      tag_272\n        /* \"#utility.yul\":10184:10188   */\n      0x60\n        /* \"#utility.yul\":10179:10182   */\n      dup7\n        /* \"#utility.yul\":10175:10189   */\n      add\n        /* \"#utility.yul\":10161:10173   */\n      dup3\n        /* \"#utility.yul\":10127:10190   */\n      tag_269\n      jump\t// in\n    tag_272:\n        /* \"#utility.yul\":10035:10200   */\n      pop\n        /* \"#utility.yul\":10217:10221   */\n      dup1\n        /* \"#utility.yul\":10210:10221   */\n      swap2\n      pop\n        /* \"#utility.yul\":9394:10227   */\n      pop\n        /* \"#utility.yul\":9284:10227   */\n      swap3\n      swap2\n      pop\n      pop\n      jump\t// out\n        /* \"#utility.yul\":10233:10341   */\n    tag_269:\n        /* \"#utility.yul\":10310:10334   */\n      tag_274\n        /* \"#utility.yul\":10328:10333   */\n      dup2\n        /* \"#utility.yul\":10310:10334   */\n      tag_275\n      jump\t// in\n    tag_274:\n        /* \"#utility.yul\":10305:10308   */\n      dup3\n        /* \"#utility.yul\":10298:10335   */\n      mstore\n        /* \"#utility.yul\":10233:10341   */\n      pop\n      pop\n      jump\t// out\n        /* \"#utility.yul\":10347:10465   */\n    tag_276:\n        /* \"#utility.yul\":10434:10458   */\n      tag_278\n        /* \"#utility.yul\":10452:10457   */\n      dup2\n        /* \"#utility.yul\":10434:10458   */\n      tag_275\n      jump\t// in\n    tag_278:\n        /* \"#utility.yul\":10429:10432   */\n      dup3\n        /* \"#utility.yul\":10422:10459   */\n      mstore\n        /* \"#utility.yul\":10347:10465   */\n      pop\n      pop\n      jump\t// out\n        /* \"#utility.yul\":10471:10766   */\n    tag_62:\n        /* \"#utility.yul\":10613:10616   */\n      0x00\n        /* \"#utility.yul\":10635:10740   */\n      tag_280\n        /* \"#utility.yul\":10736:10739   */\n      dup3\n        /* \"#utility.yul\":10727:10733   */\n      dup5\n        /* \"#utility.yul\":10719:10725   */\n      dup7\n        /* \"#utility.yul\":10635:10740   */\n      tag_215\n      jump\t// in\n    tag_280:\n        /* \"#utility.yul\":10628:10740   */\n      swap2\n      pop\n        /* \"#utility.yul\":10757:10760   */\n      dup2\n        /* \"#utility.yul\":10750:10760   */\n      swap1\n      pop\n        /* \"#utility.yul\":10471:10766   */\n      swap4\n      swap3\n      pop\n      pop\n      pop\n      jump\t// out\n        /* \"#utility.yul\":10772:10994   */\n    tag_40:\n        /* \"#utility.yul\":10865:10869   */\n      0x00\n        /* \"#utility.yul\":10903:10905   */\n      0x20\n        /* \"#utility.yul\":10892:10901   */\n      dup3\n        /* \"#utility.yul\":10888:10906   */\n      add\n        /* \"#utility.yul\":10880:10906   */\n      swap1\n      pop\n        /* \"#utility.yul\":10916:10987   */\n      tag_282\n        /* \"#utility.yul\":10984:10985   */\n      0x00\n        /* \"#utility.yul\":10973:10982   */\n      dup4\n        /* \"#utility.yul\":10969:10986   */\n      add\n        /* \"#utility.yul\":10960:10966   */\n      dup5\n        /* \"#utility.yul\":10916:10987   */\n      tag_193\n      jump\t// in\n    tag_282:\n        /* \"#utility.yul\":10772:10994   */\n      swap3\n      swap2\n      pop\n      pop\n      jump\t// out\n        /* \"#utility.yul\":11000:11465   */\n    tag_44:\n        /* \"#utility.yul\":11189:11193   */\n      0x00\n        /* \"#utility.yul\":11227:11229   */\n      0x20\n        /* \"#utility.yul\":11216:11225   */\n      dup3\n        /* \"#utility.yul\":11212:11230   */\n      add\n        /* \"#utility.yul\":11204:11230   */\n      swap1\n      pop\n        /* \"#utility.yul\":11276:11285   */\n      dup2\n        /* \"#utility.yul\":11270:11274   */\n      dup2\n        /* \"#utility.yul\":11266:11286   */\n      sub\n        /* \"#utility.yul\":11262:11263   */\n      0x00\n        /* \"#utility.yul\":11251:11260   */\n      dup4\n        /* \"#utility.yul\":11247:11264   */\n      add\n        /* \"#utility.yul\":11240:11287   */\n      mstore\n        /* \"#utility.yul\":11304:11458   */\n      tag_284\n        /* \"#utility.yul\":11453:11457   */\n      dup2\n        /* \"#utility.yul\":11444:11450   */\n      dup5\n        /* \"#utility.yul\":11304:11458   */\n      tag_197\n      jump\t// in\n    tag_284:\n        /* \"#utility.yul\":11296:11458   */\n      swap1\n      pop\n        /* \"#utility.yul\":11000:11465   */\n      swap3\n      swap2\n      pop\n      pop\n      jump\t// out\n        /* \"#utility.yul\":11471:11681   */\n    tag_22:\n        /* \"#utility.yul\":11558:11562   */\n      0x00\n        /* \"#utility.yul\":11596:11598   */\n      0x20\n        /* \"#utility.yul\":11585:11594   */\n      dup3\n        /* \"#utility.yul\":11581:11599   */\n      add\n        /* \"#utility.yul\":11573:11599   */\n      swap1\n      pop\n        /* \"#utility.yul\":11609:11674   */\n      tag_286\n        /* \"#utility.yul\":11671:11672   */\n      0x00\n        /* \"#utility.yul\":11660:11669   */\n      dup4\n        /* \"#utility.yul\":11656:11673   */\n      add\n        /* \"#utility.yul\":11647:11653   */\n      dup5\n        /* \"#utility.yul\":11609:11674   */\n      tag_211\n      jump\t// in\n    tag_286:\n        /* \"#utility.yul\":11471:11681   */\n      swap3\n      swap2\n      pop\n      pop\n      jump\t// out\n        /* \"#utility.yul\":11687:12106   */\n    tag_57:\n        /* \"#utility.yul\":11853:11857   */\n      0x00\n        /* \"#utility.yul\":11891:11893   */\n      0x20\n        /* \"#utility.yul\":11880:11889   */\n      dup3\n        /* \"#utility.yul\":11876:11894   */\n      add\n        /* \"#utility.yul\":11868:11894   */\n      swap1\n      pop\n        /* \"#utility.yul\":11940:11949   */\n      dup2\n        /* \"#utility.yul\":11934:11938   */\n      dup2\n        /* \"#utility.yul\":11930:11950   */\n      sub\n        /* \"#utility.yul\":11926:11927   */\n      0x00\n        /* \"#utility.yul\":11915:11924   */\n      dup4\n        /* \"#utility.yul\":11911:11928   */\n      add\n        /* \"#utility.yul\":11904:11951   */\n      mstore\n        /* \"#utility.yul\":11968:12099   */\n      tag_288\n        /* \"#utility.yul\":12094:12098   */\n      dup2\n        /* \"#utility.yul\":11968:12099   */\n      tag_237\n      jump\t// in\n    tag_288:\n        /* \"#utility.yul\":11960:12099   */\n      swap1\n      pop\n        /* \"#utility.yul\":11687:12106   */\n      swap2\n      swap1\n      pop\n      jump\t// out\n        /* \"#utility.yul\":12112:12531   */\n    tag_83:\n        /* \"#utility.yul\":12278:12282   */\n      0x00\n        /* \"#utility.yul\":12316:12318   */\n      0x20\n        /* \"#utility.yul\":12305:12314   */\n      dup3\n        /* \"#utility.yul\":12301:12319   */\n      add\n        /* \"#utility.yul\":12293:12319   */\n      swap1\n      pop\n        /* \"#utility.yul\":12365:12374   */\n      dup2\n        /* \"#utility.yul\":12359:12363   */\n      dup2\n        /* \"#utility.yul\":12355:12375   */\n      sub\n        /* \"#utility.yul\":12351:12352   */\n      0x00\n        /* \"#utility.yul\":12340:12349   */\n      dup4\n        /* \"#utility.yul\":12336:12353   */\n      add\n        /* \"#utility.yul\":12329:12376   */\n      mstore\n        /* \"#utility.yul\":12393:12524   */\n      tag_290\n        /* \"#utility.yul\":12519:12523   */\n      dup2\n        /* \"#utility.yul\":12393:12524   */\n      tag_242\n      jump\t// in\n    tag_290:\n        /* \"#utility.yul\":12385:12524   */\n      swap1\n      pop\n        /* \"#utility.yul\":12112:12531   */\n      swap2\n      swap1\n      pop\n      jump\t// out\n        /* \"#utility.yul\":12537:12956   */\n    tag_73:\n        /* \"#utility.yul\":12703:12707   */\n      0x00\n        /* \"#utility.yul\":12741:12743   */\n      0x20\n        /* \"#utility.yul\":12730:12739   */\n      dup3\n        /* \"#utility.yul\":12726:12744   */\n      add\n        /* \"#utility.yul\":12718:12744   */\n      swap1\n      pop\n        /* \"#utility.yul\":12790:12799   */\n      dup2\n        /* \"#utility.yul\":12784:12788   */\n      dup2\n        /* \"#utility.yul\":12780:12800   */\n      sub\n        /* \"#utility.yul\":12776:12777   */\n      0x00\n        /* \"#utility.yul\":12765:12774   */\n      dup4\n        /* \"#utility.yul\":12761:12778   */\n      add\n        /* \"#utility.yul\":12754:12801   */\n      mstore\n        /* \"#utility.yul\":12818:12949   */\n      tag_292\n        /* \"#utility.yul\":12944:12948   */\n      dup2\n        /* \"#utility.yul\":12818:12949   */\n      tag_247\n      jump\t// in\n    tag_292:\n        /* \"#utility.yul\":12810:12949   */\n      swap1\n      pop\n        /* \"#utility.yul\":12537:12956   */\n      swap2\n      swap1\n      pop\n      jump\t// out\n        /* \"#utility.yul\":12962:13381   */\n    tag_76:\n        /* \"#utility.yul\":13128:13132   */\n      0x00\n        /* \"#utility.yul\":13166:13168   */\n      0x20\n        /* \"#utility.yul\":13155:13164   */\n      dup3\n        /* \"#utility.yul\":13151:13169   */\n      add\n        /* \"#utility.yul\":13143:13169   */\n      swap1\n      pop\n        /* \"#utility.yul\":13215:13224   */\n      dup2\n        /* \"#utility.yul\":13209:13213   */\n      dup2\n        /* \"#utility.yul\":13205:13225   */\n      sub\n        /* \"#utility.yul\":13201:13202   */\n      0x00\n        /* \"#utility.yul\":13190:13199   */\n      dup4\n        /* \"#utility.yul\":13186:13203   */\n      add\n        /* \"#utility.yul\":13179:13226   */\n      mstore\n        /* \"#utility.yul\":13243:13374   */\n      tag_294\n        /* \"#utility.yul\":13369:13373   */\n      dup2\n        /* \"#utility.yul\":13243:13374   */\n      tag_252\n      jump\t// in\n    tag_294:\n        /* \"#utility.yul\":13235:13374   */\n      swap1\n      pop\n        /* \"#utility.yul\":12962:13381   */\n      swap2\n      swap1\n      pop\n      jump\t// out\n        /* \"#utility.yul\":13387:13806   */\n    tag_109:\n        /* \"#utility.yul\":13553:13557   */\n      0x00\n        /* \"#utility.yul\":13591:13593   */\n      0x20\n        /* \"#utility.yul\":13580:13589   */\n      dup3\n        /* \"#utility.yul\":13576:13594   */\n      add\n        /* \"#utility.yul\":13568:13594   */\n      swap1\n      pop\n        /* \"#utility.yul\":13640:13649   */\n      dup2\n        /* \"#utility.yul\":13634:13638   */\n      dup2\n        /* \"#utility.yul\":13630:13650   */\n      sub\n        /* \"#utility.yul\":13626:13627   */\n      0x00\n        /* \"#utility.yul\":13615:13624   */\n      dup4\n        /* \"#utility.yul\":13611:13628   */\n      add\n        /* \"#utility.yul\":13604:13651   */\n      mstore\n        /* \"#utility.yul\":13668:13799   */\n      tag_296\n        /* \"#utility.yul\":13794:13798   */\n      dup2\n        /* \"#utility.yul\":13668:13799   */\n      tag_257\n      jump\t// in\n    tag_296:\n        /* \"#utility.yul\":13660:13799   */\n      swap1\n      pop\n        /* \"#utility.yul\":13387:13806   */\n      swap2\n      swap1\n      pop\n      jump\t// out\n        /* \"#utility.yul\":13812:14231   */\n    tag_65:\n        /* \"#utility.yul\":13978:13982   */\n      0x00\n        /* \"#utility.yul\":14016:14018   */\n      0x20\n        /* \"#utility.yul\":14005:14014   */\n      dup3\n        /* \"#utility.yul\":14001:14019   */\n      add\n        /* \"#utility.yul\":13993:14019   */\n      swap1\n      pop\n        /* \"#utility.yul\":14065:14074   */\n      dup2\n        /* \"#utility.yul\":14059:14063   */\n      dup2\n        /* \"#utility.yul\":14055:14075   */\n      sub\n        /* \"#utility.yul\":14051:14052   */\n      0x00\n        /* \"#utility.yul\":14040:14049   */\n      dup4\n        /* \"#utility.yul\":14036:14053   */\n      add\n        /* \"#utility.yul\":14029:14076   */\n      mstore\n        /* \"#utility.yul\":14093:14224   */\n      tag_298\n        /* \"#utility.yul\":14219:14223   */\n      dup2\n        /* \"#utility.yul\":14093:14224   */\n      tag_262\n      jump\t// in\n    tag_298:\n        /* \"#utility.yul\":14085:14224   */\n      swap1\n      pop\n        /* \"#utility.yul\":13812:14231   */\n      swap2\n      swap1\n      pop\n      jump\t// out\n        /* \"#utility.yul\":14237:14459   */\n    tag_50:\n        /* \"#utility.yul\":14330:14334   */\n      0x00\n        /* \"#utility.yul\":14368:14370   */\n      0x20\n        /* \"#utility.yul\":14357:14366   */\n      dup3\n        /* \"#utility.yul\":14353:14371   */\n      add\n        /* \"#utility.yul\":14345:14371   */\n      swap1\n      pop\n        /* \"#utility.yul\":14381:14452   */\n      tag_300\n        /* \"#utility.yul\":14449:14450   */\n      0x00\n        /* \"#utility.yul\":14438:14447   */\n      dup4\n        /* \"#utility.yul\":14434:14451   */\n      add\n        /* \"#utility.yul\":14425:14431   */\n      dup5\n        /* \"#utility.yul\":14381:14452   */\n      tag_276\n      jump\t// in\n    tag_300:\n        /* \"#utility.yul\":14237:14459   */\n      swap3\n      swap2\n      pop\n      pop\n      jump\t// out\n        /* \"#utility.yul\":14465:15109   */\n    tag_36:\n        /* \"#utility.yul\":14662:14666   */\n      0x00\n        /* \"#utility.yul\":14700:14703   */\n      0x80\n        /* \"#utility.yul\":14689:14698   */\n      dup3\n        /* \"#utility.yul\":14685:14704   */\n      add\n        /* \"#utility.yul\":14677:14704   */\n      swap1\n      pop\n        /* \"#utility.yul\":14714:14785   */\n      tag_302\n        /* \"#utility.yul\":14782:14783   */\n      0x00\n        /* \"#utility.yul\":14771:14780   */\n      dup4\n        /* \"#utility.yul\":14767:14784   */\n      add\n        /* \"#utility.yul\":14758:14764   */\n      dup8\n        /* \"#utility.yul\":14714:14785   */\n      tag_276\n      jump\t// in\n    tag_302:\n        /* \"#utility.yul\":14832:14841   */\n      dup2\n        /* \"#utility.yul\":14826:14830   */\n      dup2\n        /* \"#utility.yul\":14822:14842   */\n      sub\n        /* \"#utility.yul\":14817:14819   */\n      0x20\n        /* \"#utility.yul\":14806:14815   */\n      dup4\n        /* \"#utility.yul\":14802:14820   */\n      add\n        /* \"#utility.yul\":14795:14843   */\n      mstore\n        /* \"#utility.yul\":14860:14938   */\n      tag_303\n        /* \"#utility.yul\":14933:14937   */\n      dup2\n        /* \"#utility.yul\":14924:14930   */\n      dup7\n        /* \"#utility.yul\":14860:14938   */\n      tag_230\n      jump\t// in\n    tag_303:\n        /* \"#utility.yul\":14852:14938   */\n      swap1\n      pop\n        /* \"#utility.yul\":14948:15020   */\n      tag_304\n        /* \"#utility.yul\":15016:15018   */\n      0x40\n        /* \"#utility.yul\":15005:15014   */\n      dup4\n        /* \"#utility.yul\":15001:15019   */\n      add\n        /* \"#utility.yul\":14992:14998   */\n      dup6\n        /* \"#utility.yul\":14948:15020   */\n      tag_276\n      jump\t// in\n    tag_304:\n        /* \"#utility.yul\":15030:15102   */\n      tag_305\n        /* \"#utility.yul\":15098:15100   */\n      0x60\n        /* \"#utility.yul\":15087:15096   */\n      dup4\n        /* \"#utility.yul\":15083:15101   */\n      add\n        /* \"#utility.yul\":15074:15080   */\n      dup5\n        /* \"#utility.yul\":15030:15102   */\n      tag_276\n      jump\t// in\n    tag_305:\n        /* \"#utility.yul\":14465:15109   */\n      swap6\n      swap5\n      pop\n      pop\n      pop\n      pop\n      pop\n      jump\t// out\n        /* \"#utility.yul\":15115:15244   */\n    tag_129:\n        /* \"#utility.yul\":15149:15155   */\n      0x00\n        /* \"#utility.yul\":15176:15196   */\n      tag_307\n      tag_308\n      jump\t// in\n    tag_307:\n        /* \"#utility.yul\":15166:15196   */\n      swap1\n      pop\n        /* \"#utility.yul\":15205:15238   */\n      tag_309\n        /* \"#utility.yul\":15233:15237   */\n      dup3\n        /* \"#utility.yul\":15225:15231   */\n      dup3\n        /* \"#utility.yul\":15205:15238   */\n      tag_310\n      jump\t// in\n    tag_309:\n        /* \"#utility.yul\":15115:15244   */\n      swap2\n      swap1\n      pop\n      jump\t// out\n        /* \"#utility.yul\":15250:15325   */\n    tag_308:\n        /* \"#utility.yul\":15283:15289   */\n      0x00\n        /* \"#utility.yul\":15316:15318   */\n      0x40\n        /* \"#utility.yul\":15310:15319   */\n      mload\n        /* \"#utility.yul\":15300:15319   */\n      swap1\n      pop\n        /* \"#utility.yul\":15250:15325   */\n      swap1\n      jump\t// out\n        /* \"#utility.yul\":15331:15639   */\n    tag_128:\n        /* \"#utility.yul\":15393:15397   */\n      0x00\n        /* \"#utility.yul\":15483:15501   */\n      0xffffffffffffffff\n        /* \"#utility.yul\":15475:15481   */\n      dup3\n        /* \"#utility.yul\":15472:15502   */\n      gt\n        /* \"#utility.yul\":15469:15525   */\n      iszero\n      tag_313\n      jumpi\n        /* \"#utility.yul\":15505:15523   */\n      tag_314\n      tag_315\n      jump\t// in\n    tag_314:\n        /* \"#utility.yul\":15469:15525   */\n    tag_313:\n        /* \"#utility.yul\":15543:15572   */\n      tag_316\n        /* \"#utility.yul\":15565:15571   */\n      dup3\n        /* \"#utility.yul\":15543:15572   */\n      tag_229\n      jump\t// in\n    tag_316:\n        /* \"#utility.yul\":15535:15572   */\n      swap1\n      pop\n        /* \"#utility.yul\":15627:15631   */\n      0x20\n        /* \"#utility.yul\":15621:15625   */\n      dup2\n        /* \"#utility.yul\":15617:15632   */\n      add\n        /* \"#utility.yul\":15609:15632   */\n      swap1\n      pop\n        /* \"#utility.yul\":15331:15639   */\n      swap2\n      swap1\n      pop\n      jump\t// out\n        /* \"#utility.yul\":15645:15800   */\n    tag_204:\n        /* \"#utility.yul\":15735:15739   */\n      0x00\n        /* \"#utility.yul\":15758:15761   */\n      dup2\n        /* \"#utility.yul\":15750:15761   */\n      swap1\n      pop\n        /* \"#utility.yul\":15788:15792   */\n      0x20\n        /* \"#utility.yul\":15783:15786   */\n      dup3\n        /* \"#utility.yul\":15779:15793   */\n      add\n        /* \"#utility.yul\":15771:15793   */\n      swap1\n      pop\n        /* \"#utility.yul\":15645:15800   */\n      swap2\n      swap1\n      pop\n      jump\t// out\n        /* \"#utility.yul\":15806:15943   */\n    tag_200:\n        /* \"#utility.yul\":15896:15902   */\n      0x00\n        /* \"#utility.yul\":15930:15935   */\n      dup2\n        /* \"#utility.yul\":15924:15936   */\n      mload\n        /* \"#utility.yul\":15914:15936   */\n      swap1\n      pop\n        /* \"#utility.yul\":15806:15943   */\n      swap2\n      swap1\n      pop\n      jump\t// out\n        /* \"#utility.yul\":15949:16048   */\n    tag_223:\n        /* \"#utility.yul\":16001:16007   */\n      0x00\n        /* \"#utility.yul\":16035:16040   */\n      dup2\n        /* \"#utility.yul\":16029:16041   */\n      mload\n        /* \"#utility.yul\":16019:16041   */\n      swap1\n      pop\n        /* \"#utility.yul\":15949:16048   */\n      swap2\n      swap1\n      pop\n      jump\t// out\n        /* \"#utility.yul\":16054:16190   */\n    tag_210:\n        /* \"#utility.yul\":16147:16151   */\n      0x00\n        /* \"#utility.yul\":16179:16183   */\n      0x20\n        /* \"#utility.yul\":16174:16177   */\n      dup3\n        /* \"#utility.yul\":16170:16184   */\n      add\n        /* \"#utility.yul\":16162:16184   */\n      swap1\n      pop\n        /* \"#utility.yul\":16054:16190   */\n      swap2\n      swap1\n      pop\n      jump\t// out\n        /* \"#utility.yul\":16196:16403   */\n    tag_202:\n        /* \"#utility.yul\":16318:16329   */\n      0x00\n        /* \"#utility.yul\":16352:16358   */\n      dup3\n        /* \"#utility.yul\":16347:16350   */\n      dup3\n        /* \"#utility.yul\":16340:16359   */\n      mstore\n        /* \"#utility.yul\":16392:16396   */\n      0x20\n        /* \"#utility.yul\":16387:16390   */\n      dup3\n        /* \"#utility.yul\":16383:16397   */\n      add\n        /* \"#utility.yul\":16368:16397   */\n      swap1\n      pop\n        /* \"#utility.yul\":16196:16403   */\n      swap3\n      swap2\n      pop\n      pop\n      jump\t// out\n        /* \"#utility.yul\":16409:16568   */\n    tag_225:\n        /* \"#utility.yul\":16483:16494   */\n      0x00\n        /* \"#utility.yul\":16517:16523   */\n      dup3\n        /* \"#utility.yul\":16512:16515   */\n      dup3\n        /* \"#utility.yul\":16505:16524   */\n      mstore\n        /* \"#utility.yul\":16557:16561   */\n      0x20\n        /* \"#utility.yul\":16552:16555   */\n      dup3\n        /* \"#utility.yul\":16548:16562   */\n      add\n        /* \"#utility.yul\":16533:16562   */\n      swap1\n      pop\n        /* \"#utility.yul\":16409:16568   */\n      swap3\n      swap2\n      pop\n      pop\n      jump\t// out\n        /* \"#utility.yul\":16574:16743   */\n    tag_234:\n        /* \"#utility.yul\":16658:16669   */\n      0x00\n        /* \"#utility.yul\":16692:16698   */\n      dup3\n        /* \"#utility.yul\":16687:16690   */\n      dup3\n        /* \"#utility.yul\":16680:16699   */\n      mstore\n        /* \"#utility.yul\":16732:16736   */\n      0x20\n        /* \"#utility.yul\":16727:16730   */\n      dup3\n        /* \"#utility.yul\":16723:16737   */\n      add\n        /* \"#utility.yul\":16708:16737   */\n      swap1\n      pop\n        /* \"#utility.yul\":16574:16743   */\n      swap3\n      swap2\n      pop\n      pop\n      jump\t// out\n        /* \"#utility.yul\":16749:16897   */\n    tag_218:\n        /* \"#utility.yul\":16851:16862   */\n      0x00\n        /* \"#utility.yul\":16888:16891   */\n      dup2\n        /* \"#utility.yul\":16873:16891   */\n      swap1\n      pop\n        /* \"#utility.yul\":16749:16897   */\n      swap3\n      swap2\n      pop\n      pop\n      jump\t// out\n        /* \"#utility.yul\":16903:17094   */\n    tag_85:\n        /* \"#utility.yul\":16943:16947   */\n      0x00\n        /* \"#utility.yul\":16963:16983   */\n      tag_326\n        /* \"#utility.yul\":16981:16982   */\n      dup3\n        /* \"#utility.yul\":16963:16983   */\n      tag_275\n      jump\t// in\n    tag_326:\n        /* \"#utility.yul\":16958:16983   */\n      swap2\n      pop\n        /* \"#utility.yul\":16997:17017   */\n      tag_327\n        /* \"#utility.yul\":17015:17016   */\n      dup4\n        /* \"#utility.yul\":16997:17017   */\n      tag_275\n      jump\t// in\n    tag_327:\n        /* \"#utility.yul\":16992:17017   */\n      swap3\n      pop\n        /* \"#utility.yul\":17036:17037   */\n      dup3\n        /* \"#utility.yul\":17033:17034   */\n      dup3\n        /* \"#utility.yul\":17030:17038   */\n      lt\n        /* \"#utility.yul\":17027:17061   */\n      iszero\n      tag_328\n      jumpi\n        /* \"#utility.yul\":17041:17059   */\n      tag_329\n      tag_330\n      jump\t// in\n    tag_329:\n        /* \"#utility.yul\":17027:17061   */\n    tag_328:\n        /* \"#utility.yul\":17086:17087   */\n      dup3\n        /* \"#utility.yul\":17083:17084   */\n      dup3\n        /* \"#utility.yul\":17079:17088   */\n      sub\n        /* \"#utility.yul\":17071:17088   */\n      swap1\n      pop\n        /* \"#utility.yul\":16903:17094   */\n      swap3\n      swap2\n      pop\n      pop\n      jump\t// out\n        /* \"#utility.yul\":17100:17196   */\n    tag_196:\n        /* \"#utility.yul\":17137:17144   */\n      0x00\n        /* \"#utility.yul\":17166:17190   */\n      tag_332\n        /* \"#utility.yul\":17184:17189   */\n      dup3\n        /* \"#utility.yul\":17166:17190   */\n      tag_333\n      jump\t// in\n    tag_332:\n        /* \"#utility.yul\":17155:17190   */\n      swap1\n      pop\n        /* \"#utility.yul\":17100:17196   */\n      swap2\n      swap1\n      pop\n      jump\t// out\n        /* \"#utility.yul\":17202:17292   */\n    tag_214:\n        /* \"#utility.yul\":17236:17243   */\n      0x00\n        /* \"#utility.yul\":17279:17284   */\n      dup2\n        /* \"#utility.yul\":17272:17285   */\n      iszero\n        /* \"#utility.yul\":17265:17286   */\n      iszero\n        /* \"#utility.yul\":17254:17286   */\n      swap1\n      pop\n        /* \"#utility.yul\":17202:17292   */\n      swap2\n      swap1\n      pop\n      jump\t// out\n        /* \"#utility.yul\":17298:17424   */\n    tag_333:\n        /* \"#utility.yul\":17335:17342   */\n      0x00\n        /* \"#utility.yul\":17375:17417   */\n      0xffffffffffffffffffffffffffffffffffffffff\n        /* \"#utility.yul\":17368:17373   */\n      dup3\n        /* \"#utility.yul\":17364:17418   */\n      and\n        /* \"#utility.yul\":17353:17418   */\n      swap1\n      pop\n        /* \"#utility.yul\":17298:17424   */\n      swap2\n      swap1\n      pop\n      jump\t// out\n        /* \"#utility.yul\":17430:17507   */\n    tag_275:\n        /* \"#utility.yul\":17467:17474   */\n      0x00\n        /* \"#utility.yul\":17496:17501   */\n      dup2\n        /* \"#utility.yul\":17485:17501   */\n      swap1\n      pop\n        /* \"#utility.yul\":17430:17507   */\n      swap2\n      swap1\n      pop\n      jump\t// out\n        /* \"#utility.yul\":17513:17667   */\n    tag_134:\n        /* \"#utility.yul\":17597:17603   */\n      dup3\n        /* \"#utility.yul\":17592:17595   */\n      dup2\n        /* \"#utility.yul\":17587:17590   */\n      dup4\n        /* \"#utility.yul\":17574:17604   */\n      calldatacopy\n        /* \"#utility.yul\":17659:17660   */\n      0x00\n        /* \"#utility.yul\":17650:17656   */\n      dup4\n        /* \"#utility.yul\":17645:17648   */\n      dup4\n        /* \"#utility.yul\":17641:17657   */\n      add\n        /* \"#utility.yul\":17634:17661   */\n      mstore\n        /* \"#utility.yul\":17513:17667   */\n      pop\n      pop\n      pop\n      jump\t// out\n        /* \"#utility.yul\":17673:17980   */\n    tag_227:\n        /* \"#utility.yul\":17741:17742   */\n      0x00\n        /* \"#utility.yul\":17751:17864   */\n    tag_339:\n        /* \"#utility.yul\":17765:17771   */\n      dup4\n        /* \"#utility.yul\":17762:17763   */\n      dup2\n        /* \"#utility.yul\":17759:17772   */\n      lt\n        /* \"#utility.yul\":17751:17864   */\n      iszero\n      tag_341\n      jumpi\n        /* \"#utility.yul\":17850:17851   */\n      dup1\n        /* \"#utility.yul\":17845:17848   */\n      dup3\n        /* \"#utility.yul\":17841:17852   */\n      add\n        /* \"#utility.yul\":17835:17853   */\n      mload\n        /* \"#utility.yul\":17831:17832   */\n      dup2\n        /* \"#utility.yul\":17826:17829   */\n      dup5\n        /* \"#utility.yul\":17822:17833   */\n      add\n        /* \"#utility.yul\":17815:17854   */\n      mstore\n        /* \"#utility.yul\":17787:17789   */\n      0x20\n        /* \"#utility.yul\":17784:17785   */\n      dup2\n        /* \"#utility.yul\":17780:17790   */\n      add\n        /* \"#utility.yul\":17775:17790   */\n      swap1\n      pop\n        /* \"#utility.yul\":17751:17864   */\n      jump(tag_339)\n    tag_341:\n        /* \"#utility.yul\":17882:17888   */\n      dup4\n        /* \"#utility.yul\":17879:17880   */\n      dup2\n        /* \"#utility.yul\":17876:17889   */\n      gt\n        /* \"#utility.yul\":17873:17974   */\n      iszero\n      tag_342\n      jumpi\n        /* \"#utility.yul\":17962:17963   */\n      0x00\n        /* \"#utility.yul\":17953:17959   */\n      dup5\n        /* \"#utility.yul\":17948:17951   */\n      dup5\n        /* \"#utility.yul\":17944:17960   */\n      add\n        /* \"#utility.yul\":17937:17964   */\n      mstore\n        /* \"#utility.yul\":17873:17974   */\n    tag_342:\n        /* \"#utility.yul\":17722:17980   */\n      pop\n        /* \"#utility.yul\":17673:17980   */\n      pop\n      pop\n      pop\n      jump\t// out\n        /* \"#utility.yul\":17986:18306   */\n    tag_89:\n        /* \"#utility.yul\":18030:18036   */\n      0x00\n        /* \"#utility.yul\":18067:18068   */\n      0x02\n        /* \"#utility.yul\":18061:18065   */\n      dup3\n        /* \"#utility.yul\":18057:18069   */\n      div\n        /* \"#utility.yul\":18047:18069   */\n      swap1\n      pop\n        /* \"#utility.yul\":18114:18115   */\n      0x01\n        /* \"#utility.yul\":18108:18112   */\n      dup3\n        /* \"#utility.yul\":18104:18116   */\n      and\n        /* \"#utility.yul\":18135:18153   */\n      dup1\n        /* \"#utility.yul\":18125:18206   */\n      tag_344\n      jumpi\n        /* \"#utility.yul\":18191:18195   */\n      0x7f\n        /* \"#utility.yul\":18183:18189   */\n      dup3\n        /* \"#utility.yul\":18179:18196   */\n      and\n        /* \"#utility.yul\":18169:18196   */\n      swap2\n      pop\n        /* \"#utility.yul\":18125:18206   */\n    tag_344:\n        /* \"#utility.yul\":18253:18255   */\n      0x20\n        /* \"#utility.yul\":18245:18251   */\n      dup3\n        /* \"#utility.yul\":18242:18256   */\n      lt\n        /* \"#utility.yul\":18222:18240   */\n      dup2\n        /* \"#utility.yul\":18219:18257   */\n      eq\n        /* \"#utility.yul\":18216:18300   */\n      iszero\n      tag_345\n      jumpi\n        /* \"#utility.yul\":18272:18290   */\n      tag_346\n      tag_347\n      jump\t// in\n    tag_346:\n        /* \"#utility.yul\":18216:18300   */\n    tag_345:\n        /* \"#utility.yul\":18037:18306   */\n      pop\n        /* \"#utility.yul\":17986:18306   */\n      swap2\n      swap1\n      pop\n      jump\t// out\n        /* \"#utility.yul\":18312:18593   */\n    tag_310:\n        /* \"#utility.yul\":18395:18422   */\n      tag_349\n        /* \"#utility.yul\":18417:18421   */\n      dup3\n        /* \"#utility.yul\":18395:18422   */\n      tag_229\n      jump\t// in\n    tag_349:\n        /* \"#utility.yul\":18387:18393   */\n      dup2\n        /* \"#utility.yul\":18383:18423   */\n      add\n        /* \"#utility.yul\":18525:18531   */\n      dup2\n        /* \"#utility.yul\":18513:18523   */\n      dup2\n        /* \"#utility.yul\":18510:18532   */\n      lt\n        /* \"#utility.yul\":18489:18507   */\n      0xffffffffffffffff\n        /* \"#utility.yul\":18477:18487   */\n      dup3\n        /* \"#utility.yul\":18474:18508   */\n      gt\n        /* \"#utility.yul\":18471:18533   */\n      or\n        /* \"#utility.yul\":18468:18556   */\n      iszero\n      tag_350\n      jumpi\n        /* \"#utility.yul\":18536:18554   */\n      tag_351\n      tag_315\n      jump\t// in\n    tag_351:\n        /* \"#utility.yul\":18468:18556   */\n    tag_350:\n        /* \"#utility.yul\":18576:18586   */\n      dup1\n        /* \"#utility.yul\":18572:18574   */\n      0x40\n        /* \"#utility.yul\":18565:18587   */\n      mstore\n        /* \"#utility.yul\":18355:18593   */\n      pop\n        /* \"#utility.yul\":18312:18593   */\n      pop\n      pop\n      jump\t// out\n        /* \"#utility.yul\":18599:18779   */\n    tag_330:\n        /* \"#utility.yul\":18647:18724   */\n      0x4e487b7100000000000000000000000000000000000000000000000000000000\n        /* \"#utility.yul\":18644:18645   */\n      0x00\n        /* \"#utility.yul\":18637:18725   */\n      mstore\n        /* \"#utility.yul\":18744:18748   */\n      0x11\n        /* \"#utility.yul\":18741:18742   */\n      0x04\n        /* \"#utility.yul\":18734:18749   */\n      mstore\n        /* \"#utility.yul\":18768:18772   */\n      0x24\n        /* \"#utility.yul\":18765:18766   */\n      0x00\n        /* \"#utility.yul\":18758:18773   */\n      revert\n        /* \"#utility.yul\":18785:18965   */\n    tag_347:\n        /* \"#utility.yul\":18833:18910   */\n      0x4e487b7100000000000000000000000000000000000000000000000000000000\n        /* \"#utility.yul\":18830:18831   */\n      0x00\n        /* \"#utility.yul\":18823:18911   */\n      mstore\n        /* \"#utility.yul\":18930:18934   */\n      0x22\n        /* \"#utility.yul\":18927:18928   */\n      0x04\n        /* \"#utility.yul\":18920:18935   */\n      mstore\n        /* \"#utility.yul\":18954:18958   */\n      0x24\n        /* \"#utility.yul\":18951:18952   */\n      0x00\n        /* \"#utility.yul\":18944:18959   */\n      revert\n        /* \"#utility.yul\":18971:19151   */\n    tag_79:\n        /* \"#utility.yul\":19019:19096   */\n      0x4e487b7100000000000000000000000000000000000000000000000000000000\n        /* \"#utility.yul\":19016:19017   */\n      0x00\n        /* \"#utility.yul\":19009:19097   */\n      mstore\n        /* \"#utility.yul\":19116:19120   */\n      0x32\n        /* \"#utility.yul\":19113:19114   */\n      0x04\n        /* \"#utility.yul\":19106:19121   */\n      mstore\n        /* \"#utility.yul\":19140:19144   */\n      0x24\n        /* \"#utility.yul\":19137:19138   */\n      0x00\n        /* \"#utility.yul\":19130:19145   */\n      revert\n        /* \"#utility.yul\":19157:19337   */\n    tag_315:\n        /* \"#utility.yul\":19205:19282   */\n      0x4e487b7100000000000000000000000000000000000000000000000000000000\n        /* \"#utility.yul\":19202:19203   */\n      0x00\n        /* \"#utility.yul\":19195:19283   */\n      mstore\n        /* \"#utility.yul\":19302:19306   */\n      0x41\n        /* \"#utility.yul\":19299:19300   */\n      0x04\n        /* \"#utility.yul\":19292:19307   */\n      mstore\n        /* \"#utility.yul\":19326:19330   */\n      0x24\n        /* \"#utility.yul\":19323:19324   */\n      0x00\n        /* \"#utility.yul\":19316:19331   */\n      revert\n        /* \"#utility.yul\":19343:19460   */\n    tag_146:\n        /* \"#utility.yul\":19452:19453   */\n      0x00\n        /* \"#utility.yul\":19449:19450   */\n      dup1\n        /* \"#utility.yul\":19442:19454   */\n      revert\n        /* \"#utility.yul\":19466:19583   */\n    tag_143:\n        /* \"#utility.yul\":19575:19576   */\n      0x00\n        /* \"#utility.yul\":19572:19573   */\n      dup1\n        /* \"#utility.yul\":19565:19577   */\n      revert\n        /* \"#utility.yul\":19589:19706   */\n    tag_149:\n        /* \"#utility.yul\":19698:19699   */\n      0x00\n        /* \"#utility.yul\":19695:19696   */\n      dup1\n        /* \"#utility.yul\":19688:19700   */\n      revert\n        /* \"#utility.yul\":19712:19829   */\n    tag_132:\n        /* \"#utility.yul\":19821:19822   */\n      0x00\n        /* \"#utility.yul\":19818:19819   */\n      dup1\n        /* \"#utility.yul\":19811:19823   */\n      revert\n        /* \"#utility.yul\":19835:19952   */\n    tag_165:\n        /* \"#utility.yul\":19944:19945   */\n      0x00\n        /* \"#utility.yul\":19941:19942   */\n      dup1\n        /* \"#utility.yul\":19934:19946   */\n      revert\n        /* \"#utility.yul\":19958:20075   */\n    tag_162:\n        /* \"#utility.yul\":20067:20068   */\n      0x00\n        /* \"#utility.yul\":20064:20065   */\n      dup1\n        /* \"#utility.yul\":20057:20069   */\n      revert\n        /* \"#utility.yul\":20081:20183   */\n    tag_229:\n        /* \"#utility.yul\":20122:20128   */\n      0x00\n        /* \"#utility.yul\":20173:20175   */\n      0x1f\n        /* \"#utility.yul\":20169:20176   */\n      not\n        /* \"#utility.yul\":20164:20166   */\n      0x1f\n        /* \"#utility.yul\":20157:20162   */\n      dup4\n        /* \"#utility.yul\":20153:20167   */\n      add\n        /* \"#utility.yul\":20149:20177   */\n      and\n        /* \"#utility.yul\":20139:20177   */\n      swap1\n      pop\n        /* \"#utility.yul\":20081:20183   */\n      swap2\n      swap1\n      pop\n      jump\t// out\n        /* \"#utility.yul\":20189:20361   */\n    tag_241:\n        /* \"#utility.yul\":20329:20353   */\n      0x596f7520617265206e6f7420746865206f776e65722100000000000000000000\n        /* \"#utility.yul\":20325:20326   */\n      0x00\n        /* \"#utility.yul\":20317:20323   */\n      dup3\n        /* \"#utility.yul\":20313:20327   */\n      add\n        /* \"#utility.yul\":20306:20354   */\n      mstore\n        /* \"#utility.yul\":20189:20361   */\n      pop\n      jump\t// out\n        /* \"#utility.yul\":20367:20599   */\n    tag_246:\n        /* \"#utility.yul\":20507:20541   */\n      0x5468652070726f64756374207175616e74697479206973206c65737320746861\n        /* \"#utility.yul\":20503:20504   */\n      0x00\n        /* \"#utility.yul\":20495:20501   */\n      dup3\n        /* \"#utility.yul\":20491:20505   */\n      add\n        /* \"#utility.yul\":20484:20542   */\n      mstore\n        /* \"#utility.yul\":20576:20591   */\n      0x6e20796f752077616e7465642100000000000000000000000000000000000000\n        /* \"#utility.yul\":20571:20573   */\n      0x20\n        /* \"#utility.yul\":20563:20569   */\n      dup3\n        /* \"#utility.yul\":20559:20574   */\n      add\n        /* \"#utility.yul\":20552:20592   */\n      mstore\n        /* \"#utility.yul\":20367:20599   */\n      pop\n      jump\t// out\n        /* \"#utility.yul\":20605:20779   */\n    tag_251:\n        /* \"#utility.yul\":20745:20771   */\n      0x50726f6475637420646f6573206e6f7420657869737473210000000000000000\n        /* \"#utility.yul\":20741:20742   */\n      0x00\n        /* \"#utility.yul\":20733:20739   */\n      dup3\n        /* \"#utility.yul\":20729:20743   */\n      add\n        /* \"#utility.yul\":20722:20772   */\n      mstore\n        /* \"#utility.yul\":20605:20779   */\n      pop\n      jump\t// out\n        /* \"#utility.yul\":20785:21009   */\n    tag_256:\n        /* \"#utility.yul\":20925:20959   */\n      0x596f75206861766520616c726561647920626f7567687420746869732070726f\n        /* \"#utility.yul\":20921:20922   */\n      0x00\n        /* \"#utility.yul\":20913:20919   */\n      dup3\n        /* \"#utility.yul\":20909:20923   */\n      add\n        /* \"#utility.yul\":20902:20960   */\n      mstore\n        /* \"#utility.yul\":20994:21001   */\n      0x6475637421000000000000000000000000000000000000000000000000000000\n        /* \"#utility.yul\":20989:20991   */\n      0x20\n        /* \"#utility.yul\":20981:20987   */\n      dup3\n        /* \"#utility.yul\":20977:20992   */\n      add\n        /* \"#utility.yul\":20970:21002   */\n      mstore\n        /* \"#utility.yul\":20785:21009   */\n      pop\n      jump\t// out\n        /* \"#utility.yul\":21015:21193   */\n    tag_261:\n        /* \"#utility.yul\":21155:21185   */\n      0x5468652070726f64756374206973206e6f74206578697374696e672100000000\n        /* \"#utility.yul\":21151:21152   */\n      0x00\n        /* \"#utility.yul\":21143:21149   */\n      dup3\n        /* \"#utility.yul\":21139:21153   */\n      add\n        /* \"#utility.yul\":21132:21186   */\n      mstore\n        /* \"#utility.yul\":21015:21193   */\n      pop\n      jump\t// out\n        /* \"#utility.yul\":21199:21422   */\n    tag_266:\n        /* \"#utility.yul\":21339:21373   */\n      0x5468652070726f6475637420697320616c726561647920696e20746865207374\n        /* \"#utility.yul\":21335:21336   */\n      0x00\n        /* \"#utility.yul\":21327:21333   */\n      dup3\n        /* \"#utility.yul\":21323:21337   */\n      add\n        /* \"#utility.yul\":21316:21374   */\n      mstore\n        /* \"#utility.yul\":21408:21414   */\n      0x6f72652100000000000000000000000000000000000000000000000000000000\n        /* \"#utility.yul\":21403:21405   */\n      0x20\n        /* \"#utility.yul\":21395:21401   */\n      dup3\n        /* \"#utility.yul\":21391:21406   */\n      add\n        /* \"#utility.yul\":21384:21415   */\n      mstore\n        /* \"#utility.yul\":21199:21422   */\n      pop\n      jump\t// out\n        /* \"#utility.yul\":21428:21550   */\n    tag_138:\n        /* \"#utility.yul\":21501:21525   */\n      tag_370\n        /* \"#utility.yul\":21519:21524   */\n      dup2\n        /* \"#utility.yul\":21501:21525   */\n      tag_196\n      jump\t// in\n    tag_370:\n        /* \"#utility.yul\":21494:21499   */\n      dup2\n        /* \"#utility.yul\":21491:21526   */\n      eq\n        /* \"#utility.yul\":21481:21544   */\n      tag_371\n      jumpi\n        /* \"#utility.yul\":21540:21541   */\n      0x00\n        /* \"#utility.yul\":21537:21538   */\n      dup1\n        /* \"#utility.yul\":21530:21542   */\n      revert\n        /* \"#utility.yul\":21481:21544   */\n    tag_371:\n        /* \"#utility.yul\":21428:21550   */\n      pop\n      jump\t// out\n        /* \"#utility.yul\":21556:21678   */\n    tag_158:\n        /* \"#utility.yul\":21629:21653   */\n      tag_373\n        /* \"#utility.yul\":21647:21652   */\n      dup2\n        /* \"#utility.yul\":21629:21653   */\n      tag_275\n      jump\t// in\n    tag_373:\n        /* \"#utility.yul\":21622:21627   */\n      dup2\n        /* \"#utility.yul\":21619:21654   */\n      eq\n        /* \"#utility.yul\":21609:21672   */\n      tag_374\n      jumpi\n        /* \"#utility.yul\":21668:21669   */\n      0x00\n        /* \"#utility.yul\":21665:21666   */\n      dup1\n        /* \"#utility.yul\":21658:21670   */\n      revert\n        /* \"#utility.yul\":21609:21672   */\n    tag_374:\n        /* \"#utility.yul\":21556:21678   */\n      pop\n      jump\t// out\n\n    auxdata: 0xa26469706673582212206080240c07c1fefc1492bb0c207880fa79998610e71fe47b14b069d55201beca64736f6c63430008070033\n}\n",
				"bytecode": {
					"linkReferences": {},
					"object": "608060405234801561001057600080fd5b50336000806101000a81548173ffffffffffffffffffffffffffffffffffffffff021916908373ffffffffffffffffffffffffffffffffffffffff16021790555061155a806100606000396000f3fe608060405234801561001057600080fd5b50600436106100935760003560e01c80637acc0b20116100665780637acc0b20146101305780638da5cb5b14610163578063c29b2f2014610181578063ccc4174a1461019f578063fcc93b0b146101cf57610093565b80630a5bd44b146100985780634c437514146100b457806353b62866146100e45780635f7fad9c14610100575b600080fd5b6100b260048036038101906100ad9190610b28565b6101eb565b005b6100ce60048036038101906100c99190610b9c565b610447565b6040516100db9190610f79565b60405180910390f35b6100fe60048036038101906100f99190610c52565b61047d565b005b61011a60048036038101906101159190610be5565b610652565b6040516101279190610f79565b60405180910390f35b61014a60048036038101906101459190610be5565b610672565b60405161015a949392919061106f565b60405180910390f35b61016b61073a565b6040516101789190610f3c565b60405180910390f35b61018961075e565b6040516101969190610f57565b60405180910390f35b6101b960048036038101906101b49190610c12565b61086d565b6040516101c69190611054565b60405180910390f35b6101e960048036038101906101e49190610c52565b610892565b005b60008054906101000a900473ffffffffffffffffffffffffffffffffffffffff1673ffffffffffffffffffffffffffffffffffffffff163373ffffffffffffffffffffffffffffffffffffffff1614610279576040517f08c379a000000000000000000000000000000000000000000000000000000000815260040161027090610f94565b60405180910390fd5b6000848490501415801561028d5750600081115b61029657600080fd5b600384846040516102a8929190610f23565b908152602001604051809103902060009054906101000a900460ff1615610304576040517f08c379a00000000000000000000000000000000000000000000000000000000081526004016102fb90611034565b60405180910390fd5b60006001805490509050600160038686604051610322929190610f23565b908152602001604051809103902060006101000a81548160ff02191690831515021790555060016002600083815260200190815260200160002060006101000a81548160ff0219169083151502179055506001604051806080016040528083815260200187878080601f016020809104026020016040519081016040528093929190818152602001838380828437600081840152601f19601f820116905080830192505050505050508152602001858152602001848152509080600181540180825580915050600190039060005260206000209060040201600090919091909150600082015181600001556020820151816001019080519060200190610429929190610995565b50604082015181600201556060820151816003015550505050505050565b6003818051602081018201805184825260208301602085012081835280955050505050506000915054906101000a900460ff1681565b6002600083815260200190815260200160002060009054906101000a900460ff166104dd576040517f08c379a00000000000000000000000000000000000000000000000000000000081526004016104d490610fd4565b60405180910390fd5b60006004600084815260200190815260200160002060003373ffffffffffffffffffffffffffffffffffffffff1673ffffffffffffffffffffffffffffffffffffffff1681526020019081526020016000205414610570576040517f08c379a000000000000000000000000000000000000000000000000000000000815260040161056790610ff4565b60405180910390fd5b60006001838154811061058657610585611301565b5b9060005260206000209060040201905081816002015410156105dd576040517f08c379a00000000000000000000000000000000000000000000000000000000081526004016105d490610fb4565b60405180910390fd5b816004600085815260200190815260200160002060003373ffffffffffffffffffffffffffffffffffffffff1673ffffffffffffffffffffffffffffffffffffffff16815260200190815260200160002081905550818160020160008282546106469190611182565b92505081905550505050565b60026020528060005260406000206000915054906101000a900460ff1681565b6001818154811061068257600080fd5b90600052602060002090600402016000915090508060000154908060010180546106ab90611240565b80601f01602080910402602001604051908101604052809291908181526020018280546106d790611240565b80156107245780601f106106f957610100808354040283529160200191610724565b820191906000526020600020905b81548152906001019060200180831161070757829003601f168201915b5050505050908060020154908060030154905084565b60008054906101000a900473ffffffffffffffffffffffffffffffffffffffff1681565b60606001805480602002602001604051908101604052809291908181526020016000905b828210156108645783829060005260206000209060040201604051806080016040529081600082015481526020016001820180546107bf90611240565b80601f01602080910402602001604051908101604052809291908181526020018280546107eb90611240565b80156108385780601f1061080d57610100808354040283529160200191610838565b820191906000526020600020905b81548152906001019060200180831161081b57829003601f168201915b505050505081526020016002820154815260200160038201548152505081526020019060010190610782565b50505050905090565b6004602052816000526040600020602052806000526040600020600091509150505481565b60008054906101000a900473ffffffffffffffffffffffffffffffffffffffff1673ffffffffffffffffffffffffffffffffffffffff163373ffffffffffffffffffffffffffffffffffffffff1614610920576040517f08c379a000000000000000000000000000000000000000000000000000000000815260040161091790610f94565b60405180910390fd5b6001805490508210610967576040517f08c379a000000000000000000000000000000000000000000000000000000000815260040161095e90611014565b60405180910390fd5b806001838154811061097c5761097b611301565b5b9060005260206000209060040201600201819055505050565b8280546109a190611240565b90600052602060002090601f0160209004810192826109c35760008555610a0a565b82601f106109dc57805160ff1916838001178555610a0a565b82800160010185558215610a0a579182015b82811115610a095782518255916020019190600101906109ee565b5b509050610a179190610a1b565b5090565b5b80821115610a34576000816000905550600101610a1c565b5090565b6000610a4b610a46846110e0565b6110bb565b905082815260208101848484011115610a6757610a6661136e565b5b610a728482856111fe565b509392505050565b600081359050610a89816114f6565b92915050565b60008083601f840112610aa557610aa4611364565b5b8235905067ffffffffffffffff811115610ac257610ac161135f565b5b602083019150836001820283011115610ade57610add611369565b5b9250929050565b600082601f830112610afa57610af9611364565b5b8135610b0a848260208601610a38565b91505092915050565b600081359050610b228161150d565b92915050565b60008060008060608587031215610b4257610b41611378565b5b600085013567ffffffffffffffff811115610b6057610b5f611373565b5b610b6c87828801610a8f565b94509450506020610b7f87828801610b13565b9250506040610b9087828801610b13565b91505092959194509250565b600060208284031215610bb257610bb1611378565b5b600082013567ffffffffffffffff811115610bd057610bcf611373565b5b610bdc84828501610ae5565b91505092915050565b600060208284031215610bfb57610bfa611378565b5b6000610c0984828501610b13565b91505092915050565b60008060408385031215610c2957610c28611378565b5b6000610c3785828601610b13565b9250506020610c4885828601610a7a565b9150509250929050565b60008060408385031215610c6957610c68611378565b5b6000610c7785828601610b13565b9250506020610c8885828601610b13565b9150509250929050565b6000610c9e8383610ea2565b905092915050565b610caf816111b6565b82525050565b6000610cc082611121565b610cca8185611144565b935083602082028501610cdc85611111565b8060005b85811015610d185784840389528151610cf98582610c92565b9450610d0483611137565b925060208a01995050600181019050610ce0565b50829750879550505050505092915050565b610d33816111c8565b82525050565b6000610d458385611177565b9350610d528385846111fe565b82840190509392505050565b6000610d698261112c565b610d738185611155565b9350610d8381856020860161120d565b610d8c8161137d565b840191505092915050565b6000610da28261112c565b610dac8185611166565b9350610dbc81856020860161120d565b610dc58161137d565b840191505092915050565b6000610ddd601683611166565b9150610de88261138e565b602082019050919050565b6000610e00602d83611166565b9150610e0b826113b7565b604082019050919050565b6000610e23601883611166565b9150610e2e82611406565b602082019050919050565b6000610e46602583611166565b9150610e518261142f565b604082019050919050565b6000610e69601c83611166565b9150610e748261147e565b602082019050919050565b6000610e8c602483611166565b9150610e97826114a7565b604082019050919050565b6000608083016000830151610eba6000860182610f05565b5060208301518482036020860152610ed28282610d5e565b9150506040830151610ee76040860182610f05565b506060830151610efa6060860182610f05565b508091505092915050565b610f0e816111f4565b82525050565b610f1d816111f4565b82525050565b6000610f30828486610d39565b91508190509392505050565b6000602082019050610f516000830184610ca6565b92915050565b60006020820190508181036000830152610f718184610cb5565b905092915050565b6000602082019050610f8e6000830184610d2a565b92915050565b60006020820190508181036000830152610fad81610dd0565b9050919050565b60006020820190508181036000830152610fcd81610df3565b9050919050565b60006020820190508181036000830152610fed81610e16565b9050919050565b6000602082019050818103600083015261100d81610e39565b9050919050565b6000602082019050818103600083015261102d81610e5c565b9050919050565b6000602082019050818103600083015261104d81610e7f565b9050919050565b60006020820190506110696000830184610f14565b92915050565b60006080820190506110846000830187610f14565b81810360208301526110968186610d97565b90506110a56040830185610f14565b6110b26060830184610f14565b95945050505050565b60006110c56110d6565b90506110d18282611272565b919050565b6000604051905090565b600067ffffffffffffffff8211156110fb576110fa611330565b5b6111048261137d565b9050602081019050919050565b6000819050602082019050919050565b600081519050919050565b600081519050919050565b6000602082019050919050565b600082825260208201905092915050565b600082825260208201905092915050565b600082825260208201905092915050565b600081905092915050565b600061118d826111f4565b9150611198836111f4565b9250828210156111ab576111aa6112a3565b5b828203905092915050565b60006111c1826111d4565b9050919050565b60008115159050919050565b600073ffffffffffffffffffffffffffffffffffffffff82169050919050565b6000819050919050565b82818337600083830152505050565b60005b8381101561122b578082015181840152602081019050611210565b8381111561123a576000848401525b50505050565b6000600282049050600182168061125857607f821691505b6020821081141561126c5761126b6112d2565b5b50919050565b61127b8261137d565b810181811067ffffffffffffffff8211171561129a57611299611330565b5b80604052505050565b7f4e487b7100000000000000000000000000000000000000000000000000000000600052601160045260246000fd5b7f4e487b7100000000000000000000000000000000000000000000000000000000600052602260045260246000fd5b7f4e487b7100000000000000000000000000000000000000000000000000000000600052603260045260246000fd5b7f4e487b7100000000000000000000000000000000000000000000000000000000600052604160045260246000fd5b600080fd5b600080fd5b600080fd5b600080fd5b600080fd5b600080fd5b6000601f19601f8301169050919050565b7f596f7520617265206e6f7420746865206f776e65722100000000000000000000600082015250565b7f5468652070726f64756374207175616e74697479206973206c6573732074686160008201527f6e20796f752077616e7465642100000000000000000000000000000000000000602082015250565b7f50726f6475637420646f6573206e6f7420657869737473210000000000000000600082015250565b7f596f75206861766520616c726561647920626f7567687420746869732070726f60008201527f6475637421000000000000000000000000000000000000000000000000000000602082015250565b7f5468652070726f64756374206973206e6f74206578697374696e672100000000600082015250565b7f5468652070726f6475637420697320616c726561647920696e2074686520737460008201527f6f72652100000000000000000000000000000000000000000000000000000000602082015250565b6114ff816111b6565b811461150a57600080fd5b50565b611516816111f4565b811461152157600080fd5b5056fea26469706673582212206080240c07c1fefc1492bb0c207880fa79998610e71fe47b14b069d55201beca64736f6c63430008070033",
					"opcodes": "PUSH1 0x80 PUSH1 0x40 MSTORE CALLVALUE DUP1 ISZERO PUSH2 0x10 JUMPI PUSH1 0x0 DUP1 REVERT JUMPDEST POP CALLER PUSH1 0x0 DUP1 PUSH2 0x100 EXP DUP2 SLOAD DUP2 PUSH20 0xFFFFFFFFFFFFFFFFFFFFFFFFFFFFFFFFFFFFFFFF MUL NOT AND SWAP1 DUP4 PUSH20 0xFFFFFFFFFFFFFFFFFFFFFFFFFFFFFFFFFFFFFFFF AND MUL OR SWAP1 SSTORE POP PUSH2 0x155A DUP1 PUSH2 0x60 PUSH1 0x0 CODECOPY PUSH1 0x0 RETURN INVALID PUSH1 0x80 PUSH1 0x40 MSTORE CALLVALUE DUP1 ISZERO PUSH2 0x10 JUMPI PUSH1 0x0 DUP1 REVERT JUMPDEST POP PUSH1 0x4 CALLDATASIZE LT PUSH2 0x93 JUMPI PUSH1 0x0 CALLDATALOAD PUSH1 0xE0 SHR DUP1 PUSH4 0x7ACC0B20 GT PUSH2 0x66 JUMPI DUP1 PUSH4 0x7ACC0B20 EQ PUSH2 0x130 JUMPI DUP1 PUSH4 0x8DA5CB5B EQ PUSH2 0x163 JUMPI DUP1 PUSH4 0xC29B2F20 EQ PUSH2 0x181 JUMPI DUP1 PUSH4 0xCCC4174A EQ PUSH2 0x19F JUMPI DUP1 PUSH4 0xFCC93B0B EQ PUSH2 0x1CF JUMPI PUSH2 0x93 JUMP JUMPDEST DUP1 PUSH4 0xA5BD44B EQ PUSH2 0x98 JUMPI DUP1 PUSH4 0x4C437514 EQ PUSH2 0xB4 JUMPI DUP1 PUSH4 0x53B62866 EQ PUSH2 0xE4 JUMPI DUP1 PUSH4 0x5F7FAD9C EQ PUSH2 0x100 JUMPI JUMPDEST PUSH1 0x0 DUP1 REVERT JUMPDEST PUSH2 0xB2 PUSH1 0x4 DUP1 CALLDATASIZE SUB DUP2 ADD SWAP1 PUSH2 0xAD SWAP2 SWAP1 PUSH2 0xB28 JUMP JUMPDEST PUSH2 0x1EB JUMP JUMPDEST STOP JUMPDEST PUSH2 0xCE PUSH1 0x4 DUP1 CALLDATASIZE SUB DUP2 ADD SWAP1 PUSH2 0xC9 SWAP2 SWAP1 PUSH2 0xB9C JUMP JUMPDEST PUSH2 0x447 JUMP JUMPDEST PUSH1 0x40 MLOAD PUSH2 0xDB SWAP2 SWAP1 PUSH2 0xF79 JUMP JUMPDEST PUSH1 0x40 MLOAD DUP1 SWAP2 SUB SWAP1 RETURN JUMPDEST PUSH2 0xFE PUSH1 0x4 DUP1 CALLDATASIZE SUB DUP2 ADD SWAP1 PUSH2 0xF9 SWAP2 SWAP1 PUSH2 0xC52 JUMP JUMPDEST PUSH2 0x47D JUMP JUMPDEST STOP JUMPDEST PUSH2 0x11A PUSH1 0x4 DUP1 CALLDATASIZE SUB DUP2 ADD SWAP1 PUSH2 0x115 SWAP2 SWAP1 PUSH2 0xBE5 JUMP JUMPDEST PUSH2 0x652 JUMP JUMPDEST PUSH1 0x40 MLOAD PUSH2 0x127 SWAP2 SWAP1 PUSH2 0xF79 JUMP JUMPDEST PUSH1 0x40 MLOAD DUP1 SWAP2 SUB SWAP1 RETURN JUMPDEST PUSH2 0x14A PUSH1 0x4 DUP1 CALLDATASIZE SUB DUP2 ADD SWAP1 PUSH2 0x145 SWAP2 SWAP1 PUSH2 0xBE5 JUMP JUMPDEST PUSH2 0x672 JUMP JUMPDEST PUSH1 0x40 MLOAD PUSH2 0x15A SWAP5 SWAP4 SWAP3 SWAP2 SWAP1 PUSH2 0x106F JUMP JUMPDEST PUSH1 0x40 MLOAD DUP1 SWAP2 SUB SWAP1 RETURN JUMPDEST PUSH2 0x16B PUSH2 0x73A JUMP JUMPDEST PUSH1 0x40 MLOAD PUSH2 0x178 SWAP2 SWAP1 PUSH2 0xF3C JUMP JUMPDEST PUSH1 0x40 MLOAD DUP1 SWAP2 SUB SWAP1 RETURN JUMPDEST PUSH2 0x189 PUSH2 0x75E JUMP JUMPDEST PUSH1 0x40 MLOAD PUSH2 0x196 SWAP2 SWAP1 PUSH2 0xF57 JUMP JUMPDEST PUSH1 0x40 MLOAD DUP1 SWAP2 SUB SWAP1 RETURN JUMPDEST PUSH2 0x1B9 PUSH1 0x4 DUP1 CALLDATASIZE SUB DUP2 ADD SWAP1 PUSH2 0x1B4 SWAP2 SWAP1 PUSH2 0xC12 JUMP JUMPDEST PUSH2 0x86D JUMP JUMPDEST PUSH1 0x40 MLOAD PUSH2 0x1C6 SWAP2 SWAP1 PUSH2 0x1054 JUMP JUMPDEST PUSH1 0x40 MLOAD DUP1 SWAP2 SUB SWAP1 RETURN JUMPDEST PUSH2 0x1E9 PUSH1 0x4 DUP1 CALLDATASIZE SUB DUP2 ADD SWAP1 PUSH2 0x1E4 SWAP2 SWAP1 PUSH2 0xC52 JUMP JUMPDEST PUSH2 0x892 JUMP JUMPDEST STOP JUMPDEST PUSH1 0x0 DUP1 SLOAD SWAP1 PUSH2 0x100 EXP SWAP1 DIV PUSH20 0xFFFFFFFFFFFFFFFFFFFFFFFFFFFFFFFFFFFFFFFF AND PUSH20 0xFFFFFFFFFFFFFFFFFFFFFFFFFFFFFFFFFFFFFFFF AND CALLER PUSH20 0xFFFFFFFFFFFFFFFFFFFFFFFFFFFFFFFFFFFFFFFF AND EQ PUSH2 0x279 JUMPI PUSH1 0x40 MLOAD PUSH32 0x8C379A000000000000000000000000000000000000000000000000000000000 DUP2 MSTORE PUSH1 0x4 ADD PUSH2 0x270 SWAP1 PUSH2 0xF94 JUMP JUMPDEST PUSH1 0x40 MLOAD DUP1 SWAP2 SUB SWAP1 REVERT JUMPDEST PUSH1 0x0 DUP5 DUP5 SWAP1 POP EQ ISZERO DUP1 ISZERO PUSH2 0x28D JUMPI POP PUSH1 0x0 DUP2 GT JUMPDEST PUSH2 0x296 JUMPI PUSH1 0x0 DUP1 REVERT JUMPDEST PUSH1 0x3 DUP5 DUP5 PUSH1 0x40 MLOAD PUSH2 0x2A8 SWAP3 SWAP2 SWAP1 PUSH2 0xF23 JUMP JUMPDEST SWAP1 DUP2 MSTORE PUSH1 0x20 ADD PUSH1 0x40 MLOAD DUP1 SWAP2 SUB SWAP1 KECCAK256 PUSH1 0x0 SWAP1 SLOAD SWAP1 PUSH2 0x100 EXP SWAP1 DIV PUSH1 0xFF AND ISZERO PUSH2 0x304 JUMPI PUSH1 0x40 MLOAD PUSH32 0x8C379A000000000000000000000000000000000000000000000000000000000 DUP2 MSTORE PUSH1 0x4 ADD PUSH2 0x2FB SWAP1 PUSH2 0x1034 JUMP JUMPDEST PUSH1 0x40 MLOAD DUP1 SWAP2 SUB SWAP1 REVERT JUMPDEST PUSH1 0x0 PUSH1 0x1 DUP1 SLOAD SWAP1 POP SWAP1 POP PUSH1 0x1 PUSH1 0x3 DUP7 DUP7 PUSH1 0x40 MLOAD PUSH2 0x322 SWAP3 SWAP2 SWAP1 PUSH2 0xF23 JUMP JUMPDEST SWAP1 DUP2 MSTORE PUSH1 0x20 ADD PUSH1 0x40 MLOAD DUP1 SWAP2 SUB SWAP1 KECCAK256 PUSH1 0x0 PUSH2 0x100 EXP DUP2 SLOAD DUP2 PUSH1 0xFF MUL NOT AND SWAP1 DUP4 ISZERO ISZERO MUL OR SWAP1 SSTORE POP PUSH1 0x1 PUSH1 0x2 PUSH1 0x0 DUP4 DUP2 MSTORE PUSH1 0x20 ADD SWAP1 DUP2 MSTORE PUSH1 0x20 ADD PUSH1 0x0 KECCAK256 PUSH1 0x0 PUSH2 0x100 EXP DUP2 SLOAD DUP2 PUSH1 0xFF MUL NOT AND SWAP1 DUP4 ISZERO ISZERO MUL OR SWAP1 SSTORE POP PUSH1 0x1 PUSH1 0x40 MLOAD DUP1 PUSH1 0x80 ADD PUSH1 0x40 MSTORE DUP1 DUP4 DUP2 MSTORE PUSH1 0x20 ADD DUP8 DUP8 DUP1 DUP1 PUSH1 0x1F ADD PUSH1 0x20 DUP1 SWAP2 DIV MUL PUSH1 0x20 ADD PUSH1 0x40 MLOAD SWAP1 DUP2 ADD PUSH1 0x40 MSTORE DUP1 SWAP4 SWAP3 SWAP2 SWAP1 DUP2 DUP2 MSTORE PUSH1 0x20 ADD DUP4 DUP4 DUP1 DUP3 DUP5 CALLDATACOPY PUSH1 0x0 DUP2 DUP5 ADD MSTORE PUSH1 0x1F NOT PUSH1 0x1F DUP3 ADD AND SWAP1 POP DUP1 DUP4 ADD SWAP3 POP POP POP POP POP POP POP DUP2 MSTORE PUSH1 0x20 ADD DUP6 DUP2 MSTORE PUSH1 0x20 ADD DUP5 DUP2 MSTORE POP SWAP1 DUP1 PUSH1 0x1 DUP2 SLOAD ADD DUP1 DUP3 SSTORE DUP1 SWAP2 POP POP PUSH1 0x1 SWAP1 SUB SWAP1 PUSH1 0x0 MSTORE PUSH1 0x20 PUSH1 0x0 KECCAK256 SWAP1 PUSH1 0x4 MUL ADD PUSH1 0x0 SWAP1 SWAP2 SWAP1 SWAP2 SWAP1 SWAP2 POP PUSH1 0x0 DUP3 ADD MLOAD DUP2 PUSH1 0x0 ADD SSTORE PUSH1 0x20 DUP3 ADD MLOAD DUP2 PUSH1 0x1 ADD SWAP1 DUP1 MLOAD SWAP1 PUSH1 0x20 ADD SWAP1 PUSH2 0x429 SWAP3 SWAP2 SWAP1 PUSH2 0x995 JUMP JUMPDEST POP PUSH1 0x40 DUP3 ADD MLOAD DUP2 PUSH1 0x2 ADD SSTORE PUSH1 0x60 DUP3 ADD MLOAD DUP2 PUSH1 0x3 ADD SSTORE POP POP POP POP POP POP POP JUMP JUMPDEST PUSH1 0x3 DUP2 DUP1 MLOAD PUSH1 0x20 DUP2 ADD DUP3 ADD DUP1 MLOAD DUP5 DUP3 MSTORE PUSH1 0x20 DUP4 ADD PUSH1 0x20 DUP6 ADD KECCAK256 DUP2 DUP4 MSTORE DUP1 SWAP6 POP POP POP POP POP POP PUSH1 0x0 SWAP2 POP SLOAD SWAP1 PUSH2 0x100 EXP SWAP1 DIV PUSH1 0xFF AND DUP2 JUMP JUMPDEST PUSH1 0x2 PUSH1 0x0 DUP4 DUP2 MSTORE PUSH1 0x20 ADD SWAP1 DUP2 MSTORE PUSH1 0x20 ADD PUSH1 0x0 KECCAK256 PUSH1 0x0 SWAP1 SLOAD SWAP1 PUSH2 0x100 EXP SWAP1 DIV PUSH1 0xFF AND PUSH2 0x4DD JUMPI PUSH1 0x40 MLOAD PUSH32 0x8C379A000000000000000000000000000000000000000000000000000000000 DUP2 MSTORE PUSH1 0x4 ADD PUSH2 0x4D4 SWAP1 PUSH2 0xFD4 JUMP JUMPDEST PUSH1 0x40 MLOAD DUP1 SWAP2 SUB SWAP1 REVERT JUMPDEST PUSH1 0x0 PUSH1 0x4 PUSH1 0x0 DUP5 DUP2 MSTORE PUSH1 0x20 ADD SWAP1 DUP2 MSTORE PUSH1 0x20 ADD PUSH1 0x0 KECCAK256 PUSH1 0x0 CALLER PUSH20 0xFFFFFFFFFFFFFFFFFFFFFFFFFFFFFFFFFFFFFFFF AND PUSH20 0xFFFFFFFFFFFFFFFFFFFFFFFFFFFFFFFFFFFFFFFF AND DUP2 MSTORE PUSH1 0x20 ADD SWAP1 DUP2 MSTORE PUSH1 0x20 ADD PUSH1 0x0 KECCAK256 SLOAD EQ PUSH2 0x570 JUMPI PUSH1 0x40 MLOAD PUSH32 0x8C379A000000000000000000000000000000000000000000000000000000000 DUP2 MSTORE PUSH1 0x4 ADD PUSH2 0x567 SWAP1 PUSH2 0xFF4 JUMP JUMPDEST PUSH1 0x40 MLOAD DUP1 SWAP2 SUB SWAP1 REVERT JUMPDEST PUSH1 0x0 PUSH1 0x1 DUP4 DUP2 SLOAD DUP2 LT PUSH2 0x586 JUMPI PUSH2 0x585 PUSH2 0x1301 JUMP JUMPDEST JUMPDEST SWAP1 PUSH1 0x0 MSTORE PUSH1 0x20 PUSH1 0x0 KECCAK256 SWAP1 PUSH1 0x4 MUL ADD SWAP1 POP DUP2 DUP2 PUSH1 0x2 ADD SLOAD LT ISZERO PUSH2 0x5DD JUMPI PUSH1 0x40 MLOAD PUSH32 0x8C379A000000000000000000000000000000000000000000000000000000000 DUP2 MSTORE PUSH1 0x4 ADD PUSH2 0x5D4 SWAP1 PUSH2 0xFB4 JUMP JUMPDEST PUSH1 0x40 MLOAD DUP1 SWAP2 SUB SWAP1 REVERT JUMPDEST DUP2 PUSH1 0x4 PUSH1 0x0 DUP6 DUP2 MSTORE PUSH1 0x20 ADD SWAP1 DUP2 MSTORE PUSH1 0x20 ADD PUSH1 0x0 KECCAK256 PUSH1 0x0 CALLER PUSH20 0xFFFFFFFFFFFFFFFFFFFFFFFFFFFFFFFFFFFFFFFF AND PUSH20 0xFFFFFFFFFFFFFFFFFFFFFFFFFFFFFFFFFFFFFFFF AND DUP2 MSTORE PUSH1 0x20 ADD SWAP1 DUP2 MSTORE PUSH1 0x20 ADD PUSH1 0x0 KECCAK256 DUP2 SWAP1 SSTORE POP DUP2 DUP2 PUSH1 0x2 ADD PUSH1 0x0 DUP3 DUP3 SLOAD PUSH2 0x646 SWAP2 SWAP1 PUSH2 0x1182 JUMP JUMPDEST SWAP3 POP POP DUP2 SWAP1 SSTORE POP POP POP POP JUMP JUMPDEST PUSH1 0x2 PUSH1 0x20 MSTORE DUP1 PUSH1 0x0 MSTORE PUSH1 0x40 PUSH1 0x0 KECCAK256 PUSH1 0x0 SWAP2 POP SLOAD SWAP1 PUSH2 0x100 EXP SWAP1 DIV PUSH1 0xFF AND DUP2 JUMP JUMPDEST PUSH1 0x1 DUP2 DUP2 SLOAD DUP2 LT PUSH2 0x682 JUMPI PUSH1 0x0 DUP1 REVERT JUMPDEST SWAP1 PUSH1 0x0 MSTORE PUSH1 0x20 PUSH1 0x0 KECCAK256 SWAP1 PUSH1 0x4 MUL ADD PUSH1 0x0 SWAP2 POP SWAP1 POP DUP1 PUSH1 0x0 ADD SLOAD SWAP1 DUP1 PUSH1 0x1 ADD DUP1 SLOAD PUSH2 0x6AB SWAP1 PUSH2 0x1240 JUMP JUMPDEST DUP1 PUSH1 0x1F ADD PUSH1 0x20 DUP1 SWAP2 DIV MUL PUSH1 0x20 ADD PUSH1 0x40 MLOAD SWAP1 DUP2 ADD PUSH1 0x40 MSTORE DUP1 SWAP3 SWAP2 SWAP1 DUP2 DUP2 MSTORE PUSH1 0x20 ADD DUP3 DUP1 SLOAD PUSH2 0x6D7 SWAP1 PUSH2 0x1240 JUMP JUMPDEST DUP1 ISZERO PUSH2 0x724 JUMPI DUP1 PUSH1 0x1F LT PUSH2 0x6F9 JUMPI PUSH2 0x100 DUP1 DUP4 SLOAD DIV MUL DUP4 MSTORE SWAP2 PUSH1 0x20 ADD SWAP2 PUSH2 0x724 JUMP JUMPDEST DUP3 ADD SWAP2 SWAP1 PUSH1 0x0 MSTORE PUSH1 0x20 PUSH1 0x0 KECCAK256 SWAP1 JUMPDEST DUP2 SLOAD DUP2 MSTORE SWAP1 PUSH1 0x1 ADD SWAP1 PUSH1 0x20 ADD DUP1 DUP4 GT PUSH2 0x707 JUMPI DUP3 SWAP1 SUB PUSH1 0x1F AND DUP3 ADD SWAP2 JUMPDEST POP POP POP POP POP SWAP1 DUP1 PUSH1 0x2 ADD SLOAD SWAP1 DUP1 PUSH1 0x3 ADD SLOAD SWAP1 POP DUP5 JUMP JUMPDEST PUSH1 0x0 DUP1 SLOAD SWAP1 PUSH2 0x100 EXP SWAP1 DIV PUSH20 0xFFFFFFFFFFFFFFFFFFFFFFFFFFFFFFFFFFFFFFFF AND DUP2 JUMP JUMPDEST PUSH1 0x60 PUSH1 0x1 DUP1 SLOAD DUP1 PUSH1 0x20 MUL PUSH1 0x20 ADD PUSH1 0x40 MLOAD SWAP1 DUP2 ADD PUSH1 0x40 MSTORE DUP1 SWAP3 SWAP2 SWAP1 DUP2 DUP2 MSTORE PUSH1 0x20 ADD PUSH1 0x0 SWAP1 JUMPDEST DUP3 DUP3 LT ISZERO PUSH2 0x864 JUMPI DUP4 DUP3 SWAP1 PUSH1 0x0 MSTORE PUSH1 0x20 PUSH1 0x0 KECCAK256 SWAP1 PUSH1 0x4 MUL ADD PUSH1 0x40 MLOAD DUP1 PUSH1 0x80 ADD PUSH1 0x40 MSTORE SWAP1 DUP2 PUSH1 0x0 DUP3 ADD SLOAD DUP2 MSTORE PUSH1 0x20 ADD PUSH1 0x1 DUP3 ADD DUP1 SLOAD PUSH2 0x7BF SWAP1 PUSH2 0x1240 JUMP JUMPDEST DUP1 PUSH1 0x1F ADD PUSH1 0x20 DUP1 SWAP2 DIV MUL PUSH1 0x20 ADD PUSH1 0x40 MLOAD SWAP1 DUP2 ADD PUSH1 0x40 MSTORE DUP1 SWAP3 SWAP2 SWAP1 DUP2 DUP2 MSTORE PUSH1 0x20 ADD DUP3 DUP1 SLOAD PUSH2 0x7EB SWAP1 PUSH2 0x1240 JUMP JUMPDEST DUP1 ISZERO PUSH2 0x838 JUMPI DUP1 PUSH1 0x1F LT PUSH2 0x80D JUMPI PUSH2 0x100 DUP1 DUP4 SLOAD DIV MUL DUP4 MSTORE SWAP2 PUSH1 0x20 ADD SWAP2 PUSH2 0x838 JUMP JUMPDEST DUP3 ADD SWAP2 SWAP1 PUSH1 0x0 MSTORE PUSH1 0x20 PUSH1 0x0 KECCAK256 SWAP1 JUMPDEST DUP2 SLOAD DUP2 MSTORE SWAP1 PUSH1 0x1 ADD SWAP1 PUSH1 0x20 ADD DUP1 DUP4 GT PUSH2 0x81B JUMPI DUP3 SWAP1 SUB PUSH1 0x1F AND DUP3 ADD SWAP2 JUMPDEST POP POP POP POP POP DUP2 MSTORE PUSH1 0x20 ADD PUSH1 0x2 DUP3 ADD SLOAD DUP2 MSTORE PUSH1 0x20 ADD PUSH1 0x3 DUP3 ADD SLOAD DUP2 MSTORE POP POP DUP2 MSTORE PUSH1 0x20 ADD SWAP1 PUSH1 0x1 ADD SWAP1 PUSH2 0x782 JUMP JUMPDEST POP POP POP POP SWAP1 POP SWAP1 JUMP JUMPDEST PUSH1 0x4 PUSH1 0x20 MSTORE DUP2 PUSH1 0x0 MSTORE PUSH1 0x40 PUSH1 0x0 KECCAK256 PUSH1 0x20 MSTORE DUP1 PUSH1 0x0 MSTORE PUSH1 0x40 PUSH1 0x0 KECCAK256 PUSH1 0x0 SWAP2 POP SWAP2 POP POP SLOAD DUP2 JUMP JUMPDEST PUSH1 0x0 DUP1 SLOAD SWAP1 PUSH2 0x100 EXP SWAP1 DIV PUSH20 0xFFFFFFFFFFFFFFFFFFFFFFFFFFFFFFFFFFFFFFFF AND PUSH20 0xFFFFFFFFFFFFFFFFFFFFFFFFFFFFFFFFFFFFFFFF AND CALLER PUSH20 0xFFFFFFFFFFFFFFFFFFFFFFFFFFFFFFFFFFFFFFFF AND EQ PUSH2 0x920 JUMPI PUSH1 0x40 MLOAD PUSH32 0x8C379A000000000000000000000000000000000000000000000000000000000 DUP2 MSTORE PUSH1 0x4 ADD PUSH2 0x917 SWAP1 PUSH2 0xF94 JUMP JUMPDEST PUSH1 0x40 MLOAD DUP1 SWAP2 SUB SWAP1 REVERT JUMPDEST PUSH1 0x1 DUP1 SLOAD SWAP1 POP DUP3 LT PUSH2 0x967 JUMPI PUSH1 0x40 MLOAD PUSH32 0x8C379A000000000000000000000000000000000000000000000000000000000 DUP2 MSTORE PUSH1 0x4 ADD PUSH2 0x95E SWAP1 PUSH2 0x1014 JUMP JUMPDEST PUSH1 0x40 MLOAD DUP1 SWAP2 SUB SWAP1 REVERT JUMPDEST DUP1 PUSH1 0x1 DUP4 DUP2 SLOAD DUP2 LT PUSH2 0x97C JUMPI PUSH2 0x97B PUSH2 0x1301 JUMP JUMPDEST JUMPDEST SWAP1 PUSH1 0x0 MSTORE PUSH1 0x20 PUSH1 0x0 KECCAK256 SWAP1 PUSH1 0x4 MUL ADD PUSH1 0x2 ADD DUP2 SWAP1 SSTORE POP POP POP JUMP JUMPDEST DUP3 DUP1 SLOAD PUSH2 0x9A1 SWAP1 PUSH2 0x1240 JUMP JUMPDEST SWAP1 PUSH1 0x0 MSTORE PUSH1 0x20 PUSH1 0x0 KECCAK256 SWAP1 PUSH1 0x1F ADD PUSH1 0x20 SWAP1 DIV DUP2 ADD SWAP3 DUP3 PUSH2 0x9C3 JUMPI PUSH1 0x0 DUP6 SSTORE PUSH2 0xA0A JUMP JUMPDEST DUP3 PUSH1 0x1F LT PUSH2 0x9DC JUMPI DUP1 MLOAD PUSH1 0xFF NOT AND DUP4 DUP1 ADD OR DUP6 SSTORE PUSH2 0xA0A JUMP JUMPDEST DUP3 DUP1 ADD PUSH1 0x1 ADD DUP6 SSTORE DUP3 ISZERO PUSH2 0xA0A JUMPI SWAP2 DUP3 ADD JUMPDEST DUP3 DUP2 GT ISZERO PUSH2 0xA09 JUMPI DUP3 MLOAD DUP3 SSTORE SWAP2 PUSH1 0x20 ADD SWAP2 SWAP1 PUSH1 0x1 ADD SWAP1 PUSH2 0x9EE JUMP JUMPDEST JUMPDEST POP SWAP1 POP PUSH2 0xA17 SWAP2 SWAP1 PUSH2 0xA1B JUMP JUMPDEST POP SWAP1 JUMP JUMPDEST JUMPDEST DUP1 DUP3 GT ISZERO PUSH2 0xA34 JUMPI PUSH1 0x0 DUP2 PUSH1 0x0 SWAP1 SSTORE POP PUSH1 0x1 ADD PUSH2 0xA1C JUMP JUMPDEST POP SWAP1 JUMP JUMPDEST PUSH1 0x0 PUSH2 0xA4B PUSH2 0xA46 DUP5 PUSH2 0x10E0 JUMP JUMPDEST PUSH2 0x10BB JUMP JUMPDEST SWAP1 POP DUP3 DUP2 MSTORE PUSH1 0x20 DUP2 ADD DUP5 DUP5 DUP5 ADD GT ISZERO PUSH2 0xA67 JUMPI PUSH2 0xA66 PUSH2 0x136E JUMP JUMPDEST JUMPDEST PUSH2 0xA72 DUP5 DUP3 DUP6 PUSH2 0x11FE JUMP JUMPDEST POP SWAP4 SWAP3 POP POP POP JUMP JUMPDEST PUSH1 0x0 DUP2 CALLDATALOAD SWAP1 POP PUSH2 0xA89 DUP2 PUSH2 0x14F6 JUMP JUMPDEST SWAP3 SWAP2 POP POP JUMP JUMPDEST PUSH1 0x0 DUP1 DUP4 PUSH1 0x1F DUP5 ADD SLT PUSH2 0xAA5 JUMPI PUSH2 0xAA4 PUSH2 0x1364 JUMP JUMPDEST JUMPDEST DUP3 CALLDATALOAD SWAP1 POP PUSH8 0xFFFFFFFFFFFFFFFF DUP2 GT ISZERO PUSH2 0xAC2 JUMPI PUSH2 0xAC1 PUSH2 0x135F JUMP JUMPDEST JUMPDEST PUSH1 0x20 DUP4 ADD SWAP2 POP DUP4 PUSH1 0x1 DUP3 MUL DUP4 ADD GT ISZERO PUSH2 0xADE JUMPI PUSH2 0xADD PUSH2 0x1369 JUMP JUMPDEST JUMPDEST SWAP3 POP SWAP3 SWAP1 POP JUMP JUMPDEST PUSH1 0x0 DUP3 PUSH1 0x1F DUP4 ADD SLT PUSH2 0xAFA JUMPI PUSH2 0xAF9 PUSH2 0x1364 JUMP JUMPDEST JUMPDEST DUP2 CALLDATALOAD PUSH2 0xB0A DUP5 DUP3 PUSH1 0x20 DUP7 ADD PUSH2 0xA38 JUMP JUMPDEST SWAP2 POP POP SWAP3 SWAP2 POP POP JUMP JUMPDEST PUSH1 0x0 DUP2 CALLDATALOAD SWAP1 POP PUSH2 0xB22 DUP2 PUSH2 0x150D JUMP JUMPDEST SWAP3 SWAP2 POP POP JUMP JUMPDEST PUSH1 0x0 DUP1 PUSH1 0x0 DUP1 PUSH1 0x60 DUP6 DUP8 SUB SLT ISZERO PUSH2 0xB42 JUMPI PUSH2 0xB41 PUSH2 0x1378 JUMP JUMPDEST JUMPDEST PUSH1 0x0 DUP6 ADD CALLDATALOAD PUSH8 0xFFFFFFFFFFFFFFFF DUP2 GT ISZERO PUSH2 0xB60 JUMPI PUSH2 0xB5F PUSH2 0x1373 JUMP JUMPDEST JUMPDEST PUSH2 0xB6C DUP8 DUP3 DUP9 ADD PUSH2 0xA8F JUMP JUMPDEST SWAP5 POP SWAP5 POP POP PUSH1 0x20 PUSH2 0xB7F DUP8 DUP3 DUP9 ADD PUSH2 0xB13 JUMP JUMPDEST SWAP3 POP POP PUSH1 0x40 PUSH2 0xB90 DUP8 DUP3 DUP9 ADD PUSH2 0xB13 JUMP JUMPDEST SWAP2 POP POP SWAP3 SWAP6 SWAP2 SWAP5 POP SWAP3 POP JUMP JUMPDEST PUSH1 0x0 PUSH1 0x20 DUP3 DUP5 SUB SLT ISZERO PUSH2 0xBB2 JUMPI PUSH2 0xBB1 PUSH2 0x1378 JUMP JUMPDEST JUMPDEST PUSH1 0x0 DUP3 ADD CALLDATALOAD PUSH8 0xFFFFFFFFFFFFFFFF DUP2 GT ISZERO PUSH2 0xBD0 JUMPI PUSH2 0xBCF PUSH2 0x1373 JUMP JUMPDEST JUMPDEST PUSH2 0xBDC DUP5 DUP3 DUP6 ADD PUSH2 0xAE5 JUMP JUMPDEST SWAP2 POP POP SWAP3 SWAP2 POP POP JUMP JUMPDEST PUSH1 0x0 PUSH1 0x20 DUP3 DUP5 SUB SLT ISZERO PUSH2 0xBFB JUMPI PUSH2 0xBFA PUSH2 0x1378 JUMP JUMPDEST JUMPDEST PUSH1 0x0 PUSH2 0xC09 DUP5 DUP3 DUP6 ADD PUSH2 0xB13 JUMP JUMPDEST SWAP2 POP POP SWAP3 SWAP2 POP POP JUMP JUMPDEST PUSH1 0x0 DUP1 PUSH1 0x40 DUP4 DUP6 SUB SLT ISZERO PUSH2 0xC29 JUMPI PUSH2 0xC28 PUSH2 0x1378 JUMP JUMPDEST JUMPDEST PUSH1 0x0 PUSH2 0xC37 DUP6 DUP3 DUP7 ADD PUSH2 0xB13 JUMP JUMPDEST SWAP3 POP POP PUSH1 0x20 PUSH2 0xC48 DUP6 DUP3 DUP7 ADD PUSH2 0xA7A JUMP JUMPDEST SWAP2 POP POP SWAP3 POP SWAP3 SWAP1 POP JUMP JUMPDEST PUSH1 0x0 DUP1 PUSH1 0x40 DUP4 DUP6 SUB SLT ISZERO PUSH2 0xC69 JUMPI PUSH2 0xC68 PUSH2 0x1378 JUMP JUMPDEST JUMPDEST PUSH1 0x0 PUSH2 0xC77 DUP6 DUP3 DUP7 ADD PUSH2 0xB13 JUMP JUMPDEST SWAP3 POP POP PUSH1 0x20 PUSH2 0xC88 DUP6 DUP3 DUP7 ADD PUSH2 0xB13 JUMP JUMPDEST SWAP2 POP POP SWAP3 POP SWAP3 SWAP1 POP JUMP JUMPDEST PUSH1 0x0 PUSH2 0xC9E DUP4 DUP4 PUSH2 0xEA2 JUMP JUMPDEST SWAP1 POP SWAP3 SWAP2 POP POP JUMP JUMPDEST PUSH2 0xCAF DUP2 PUSH2 0x11B6 JUMP JUMPDEST DUP3 MSTORE POP POP JUMP JUMPDEST PUSH1 0x0 PUSH2 0xCC0 DUP3 PUSH2 0x1121 JUMP JUMPDEST PUSH2 0xCCA DUP2 DUP6 PUSH2 0x1144 JUMP JUMPDEST SWAP4 POP DUP4 PUSH1 0x20 DUP3 MUL DUP6 ADD PUSH2 0xCDC DUP6 PUSH2 0x1111 JUMP JUMPDEST DUP1 PUSH1 0x0 JUMPDEST DUP6 DUP2 LT ISZERO PUSH2 0xD18 JUMPI DUP5 DUP5 SUB DUP10 MSTORE DUP2 MLOAD PUSH2 0xCF9 DUP6 DUP3 PUSH2 0xC92 JUMP JUMPDEST SWAP5 POP PUSH2 0xD04 DUP4 PUSH2 0x1137 JUMP JUMPDEST SWAP3 POP PUSH1 0x20 DUP11 ADD SWAP10 POP POP PUSH1 0x1 DUP2 ADD SWAP1 POP PUSH2 0xCE0 JUMP JUMPDEST POP DUP3 SWAP8 POP DUP8 SWAP6 POP POP POP POP POP POP SWAP3 SWAP2 POP POP JUMP JUMPDEST PUSH2 0xD33 DUP2 PUSH2 0x11C8 JUMP JUMPDEST DUP3 MSTORE POP POP JUMP JUMPDEST PUSH1 0x0 PUSH2 0xD45 DUP4 DUP6 PUSH2 0x1177 JUMP JUMPDEST SWAP4 POP PUSH2 0xD52 DUP4 DUP6 DUP5 PUSH2 0x11FE JUMP JUMPDEST DUP3 DUP5 ADD SWAP1 POP SWAP4 SWAP3 POP POP POP JUMP JUMPDEST PUSH1 0x0 PUSH2 0xD69 DUP3 PUSH2 0x112C JUMP JUMPDEST PUSH2 0xD73 DUP2 DUP6 PUSH2 0x1155 JUMP JUMPDEST SWAP4 POP PUSH2 0xD83 DUP2 DUP6 PUSH1 0x20 DUP7 ADD PUSH2 0x120D JUMP JUMPDEST PUSH2 0xD8C DUP2 PUSH2 0x137D JUMP JUMPDEST DUP5 ADD SWAP2 POP POP SWAP3 SWAP2 POP POP JUMP JUMPDEST PUSH1 0x0 PUSH2 0xDA2 DUP3 PUSH2 0x112C JUMP JUMPDEST PUSH2 0xDAC DUP2 DUP6 PUSH2 0x1166 JUMP JUMPDEST SWAP4 POP PUSH2 0xDBC DUP2 DUP6 PUSH1 0x20 DUP7 ADD PUSH2 0x120D JUMP JUMPDEST PUSH2 0xDC5 DUP2 PUSH2 0x137D JUMP JUMPDEST DUP5 ADD SWAP2 POP POP SWAP3 SWAP2 POP POP JUMP JUMPDEST PUSH1 0x0 PUSH2 0xDDD PUSH1 0x16 DUP4 PUSH2 0x1166 JUMP JUMPDEST SWAP2 POP PUSH2 0xDE8 DUP3 PUSH2 0x138E JUMP JUMPDEST PUSH1 0x20 DUP3 ADD SWAP1 POP SWAP2 SWAP1 POP JUMP JUMPDEST PUSH1 0x0 PUSH2 0xE00 PUSH1 0x2D DUP4 PUSH2 0x1166 JUMP JUMPDEST SWAP2 POP PUSH2 0xE0B DUP3 PUSH2 0x13B7 JUMP JUMPDEST PUSH1 0x40 DUP3 ADD SWAP1 POP SWAP2 SWAP1 POP JUMP JUMPDEST PUSH1 0x0 PUSH2 0xE23 PUSH1 0x18 DUP4 PUSH2 0x1166 JUMP JUMPDEST SWAP2 POP PUSH2 0xE2E DUP3 PUSH2 0x1406 JUMP JUMPDEST PUSH1 0x20 DUP3 ADD SWAP1 POP SWAP2 SWAP1 POP JUMP JUMPDEST PUSH1 0x0 PUSH2 0xE46 PUSH1 0x25 DUP4 PUSH2 0x1166 JUMP JUMPDEST SWAP2 POP PUSH2 0xE51 DUP3 PUSH2 0x142F JUMP JUMPDEST PUSH1 0x40 DUP3 ADD SWAP1 POP SWAP2 SWAP1 POP JUMP JUMPDEST PUSH1 0x0 PUSH2 0xE69 PUSH1 0x1C DUP4 PUSH2 0x1166 JUMP JUMPDEST SWAP2 POP PUSH2 0xE74 DUP3 PUSH2 0x147E JUMP JUMPDEST PUSH1 0x20 DUP3 ADD SWAP1 POP SWAP2 SWAP1 POP JUMP JUMPDEST PUSH1 0x0 PUSH2 0xE8C PUSH1 0x24 DUP4 PUSH2 0x1166 JUMP JUMPDEST SWAP2 POP PUSH2 0xE97 DUP3 PUSH2 0x14A7 JUMP JUMPDEST PUSH1 0x40 DUP3 ADD SWAP1 POP SWAP2 SWAP1 POP JUMP JUMPDEST PUSH1 0x0 PUSH1 0x80 DUP4 ADD PUSH1 0x0 DUP4 ADD MLOAD PUSH2 0xEBA PUSH1 0x0 DUP7 ADD DUP3 PUSH2 0xF05 JUMP JUMPDEST POP PUSH1 0x20 DUP4 ADD MLOAD DUP5 DUP3 SUB PUSH1 0x20 DUP7 ADD MSTORE PUSH2 0xED2 DUP3 DUP3 PUSH2 0xD5E JUMP JUMPDEST SWAP2 POP POP PUSH1 0x40 DUP4 ADD MLOAD PUSH2 0xEE7 PUSH1 0x40 DUP7 ADD DUP3 PUSH2 0xF05 JUMP JUMPDEST POP PUSH1 0x60 DUP4 ADD MLOAD PUSH2 0xEFA PUSH1 0x60 DUP7 ADD DUP3 PUSH2 0xF05 JUMP JUMPDEST POP DUP1 SWAP2 POP POP SWAP3 SWAP2 POP POP JUMP JUMPDEST PUSH2 0xF0E DUP2 PUSH2 0x11F4 JUMP JUMPDEST DUP3 MSTORE POP POP JUMP JUMPDEST PUSH2 0xF1D DUP2 PUSH2 0x11F4 JUMP JUMPDEST DUP3 MSTORE POP POP JUMP JUMPDEST PUSH1 0x0 PUSH2 0xF30 DUP3 DUP5 DUP7 PUSH2 0xD39 JUMP JUMPDEST SWAP2 POP DUP2 SWAP1 POP SWAP4 SWAP3 POP POP POP JUMP JUMPDEST PUSH1 0x0 PUSH1 0x20 DUP3 ADD SWAP1 POP PUSH2 0xF51 PUSH1 0x0 DUP4 ADD DUP5 PUSH2 0xCA6 JUMP JUMPDEST SWAP3 SWAP2 POP POP JUMP JUMPDEST PUSH1 0x0 PUSH1 0x20 DUP3 ADD SWAP1 POP DUP2 DUP2 SUB PUSH1 0x0 DUP4 ADD MSTORE PUSH2 0xF71 DUP2 DUP5 PUSH2 0xCB5 JUMP JUMPDEST SWAP1 POP SWAP3 SWAP2 POP POP JUMP JUMPDEST PUSH1 0x0 PUSH1 0x20 DUP3 ADD SWAP1 POP PUSH2 0xF8E PUSH1 0x0 DUP4 ADD DUP5 PUSH2 0xD2A JUMP JUMPDEST SWAP3 SWAP2 POP POP JUMP JUMPDEST PUSH1 0x0 PUSH1 0x20 DUP3 ADD SWAP1 POP DUP2 DUP2 SUB PUSH1 0x0 DUP4 ADD MSTORE PUSH2 0xFAD DUP2 PUSH2 0xDD0 JUMP JUMPDEST SWAP1 POP SWAP2 SWAP1 POP JUMP JUMPDEST PUSH1 0x0 PUSH1 0x20 DUP3 ADD SWAP1 POP DUP2 DUP2 SUB PUSH1 0x0 DUP4 ADD MSTORE PUSH2 0xFCD DUP2 PUSH2 0xDF3 JUMP JUMPDEST SWAP1 POP SWAP2 SWAP1 POP JUMP JUMPDEST PUSH1 0x0 PUSH1 0x20 DUP3 ADD SWAP1 POP DUP2 DUP2 SUB PUSH1 0x0 DUP4 ADD MSTORE PUSH2 0xFED DUP2 PUSH2 0xE16 JUMP JUMPDEST SWAP1 POP SWAP2 SWAP1 POP JUMP JUMPDEST PUSH1 0x0 PUSH1 0x20 DUP3 ADD SWAP1 POP DUP2 DUP2 SUB PUSH1 0x0 DUP4 ADD MSTORE PUSH2 0x100D DUP2 PUSH2 0xE39 JUMP JUMPDEST SWAP1 POP SWAP2 SWAP1 POP JUMP JUMPDEST PUSH1 0x0 PUSH1 0x20 DUP3 ADD SWAP1 POP DUP2 DUP2 SUB PUSH1 0x0 DUP4 ADD MSTORE PUSH2 0x102D DUP2 PUSH2 0xE5C JUMP JUMPDEST SWAP1 POP SWAP2 SWAP1 POP JUMP JUMPDEST PUSH1 0x0 PUSH1 0x20 DUP3 ADD SWAP1 POP DUP2 DUP2 SUB PUSH1 0x0 DUP4 ADD MSTORE PUSH2 0x104D DUP2 PUSH2 0xE7F JUMP JUMPDEST SWAP1 POP SWAP2 SWAP1 POP JUMP JUMPDEST PUSH1 0x0 PUSH1 0x20 DUP3 ADD SWAP1 POP PUSH2 0x1069 PUSH1 0x0 DUP4 ADD DUP5 PUSH2 0xF14 JUMP JUMPDEST SWAP3 SWAP2 POP POP JUMP JUMPDEST PUSH1 0x0 PUSH1 0x80 DUP3 ADD SWAP1 POP PUSH2 0x1084 PUSH1 0x0 DUP4 ADD DUP8 PUSH2 0xF14 JUMP JUMPDEST DUP2 DUP2 SUB PUSH1 0x20 DUP4 ADD MSTORE PUSH2 0x1096 DUP2 DUP7 PUSH2 0xD97 JUMP JUMPDEST SWAP1 POP PUSH2 0x10A5 PUSH1 0x40 DUP4 ADD DUP6 PUSH2 0xF14 JUMP JUMPDEST PUSH2 0x10B2 PUSH1 0x60 DUP4 ADD DUP5 PUSH2 0xF14 JUMP JUMPDEST SWAP6 SWAP5 POP POP POP POP POP JUMP JUMPDEST PUSH1 0x0 PUSH2 0x10C5 PUSH2 0x10D6 JUMP JUMPDEST SWAP1 POP PUSH2 0x10D1 DUP3 DUP3 PUSH2 0x1272 JUMP JUMPDEST SWAP2 SWAP1 POP JUMP JUMPDEST PUSH1 0x0 PUSH1 0x40 MLOAD SWAP1 POP SWAP1 JUMP JUMPDEST PUSH1 0x0 PUSH8 0xFFFFFFFFFFFFFFFF DUP3 GT ISZERO PUSH2 0x10FB JUMPI PUSH2 0x10FA PUSH2 0x1330 JUMP JUMPDEST JUMPDEST PUSH2 0x1104 DUP3 PUSH2 0x137D JUMP JUMPDEST SWAP1 POP PUSH1 0x20 DUP2 ADD SWAP1 POP SWAP2 SWAP1 POP JUMP JUMPDEST PUSH1 0x0 DUP2 SWAP1 POP PUSH1 0x20 DUP3 ADD SWAP1 POP SWAP2 SWAP1 POP JUMP JUMPDEST PUSH1 0x0 DUP2 MLOAD SWAP1 POP SWAP2 SWAP1 POP JUMP JUMPDEST PUSH1 0x0 DUP2 MLOAD SWAP1 POP SWAP2 SWAP1 POP JUMP JUMPDEST PUSH1 0x0 PUSH1 0x20 DUP3 ADD SWAP1 POP SWAP2 SWAP1 POP JUMP JUMPDEST PUSH1 0x0 DUP3 DUP3 MSTORE PUSH1 0x20 DUP3 ADD SWAP1 POP SWAP3 SWAP2 POP POP JUMP JUMPDEST PUSH1 0x0 DUP3 DUP3 MSTORE PUSH1 0x20 DUP3 ADD SWAP1 POP SWAP3 SWAP2 POP POP JUMP JUMPDEST PUSH1 0x0 DUP3 DUP3 MSTORE PUSH1 0x20 DUP3 ADD SWAP1 POP SWAP3 SWAP2 POP POP JUMP JUMPDEST PUSH1 0x0 DUP2 SWAP1 POP SWAP3 SWAP2 POP POP JUMP JUMPDEST PUSH1 0x0 PUSH2 0x118D DUP3 PUSH2 0x11F4 JUMP JUMPDEST SWAP2 POP PUSH2 0x1198 DUP4 PUSH2 0x11F4 JUMP JUMPDEST SWAP3 POP DUP3 DUP3 LT ISZERO PUSH2 0x11AB JUMPI PUSH2 0x11AA PUSH2 0x12A3 JUMP JUMPDEST JUMPDEST DUP3 DUP3 SUB SWAP1 POP SWAP3 SWAP2 POP POP JUMP JUMPDEST PUSH1 0x0 PUSH2 0x11C1 DUP3 PUSH2 0x11D4 JUMP JUMPDEST SWAP1 POP SWAP2 SWAP1 POP JUMP JUMPDEST PUSH1 0x0 DUP2 ISZERO ISZERO SWAP1 POP SWAP2 SWAP1 POP JUMP JUMPDEST PUSH1 0x0 PUSH20 0xFFFFFFFFFFFFFFFFFFFFFFFFFFFFFFFFFFFFFFFF DUP3 AND SWAP1 POP SWAP2 SWAP1 POP JUMP JUMPDEST PUSH1 0x0 DUP2 SWAP1 POP SWAP2 SWAP1 POP JUMP JUMPDEST DUP3 DUP2 DUP4 CALLDATACOPY PUSH1 0x0 DUP4 DUP4 ADD MSTORE POP POP POP JUMP JUMPDEST PUSH1 0x0 JUMPDEST DUP4 DUP2 LT ISZERO PUSH2 0x122B JUMPI DUP1 DUP3 ADD MLOAD DUP2 DUP5 ADD MSTORE PUSH1 0x20 DUP2 ADD SWAP1 POP PUSH2 0x1210 JUMP JUMPDEST DUP4 DUP2 GT ISZERO PUSH2 0x123A JUMPI PUSH1 0x0 DUP5 DUP5 ADD MSTORE JUMPDEST POP POP POP POP JUMP JUMPDEST PUSH1 0x0 PUSH1 0x2 DUP3 DIV SWAP1 POP PUSH1 0x1 DUP3 AND DUP1 PUSH2 0x1258 JUMPI PUSH1 0x7F DUP3 AND SWAP2 POP JUMPDEST PUSH1 0x20 DUP3 LT DUP2 EQ ISZERO PUSH2 0x126C JUMPI PUSH2 0x126B PUSH2 0x12D2 JUMP JUMPDEST JUMPDEST POP SWAP2 SWAP1 POP JUMP JUMPDEST PUSH2 0x127B DUP3 PUSH2 0x137D JUMP JUMPDEST DUP2 ADD DUP2 DUP2 LT PUSH8 0xFFFFFFFFFFFFFFFF DUP3 GT OR ISZERO PUSH2 0x129A JUMPI PUSH2 0x1299 PUSH2 0x1330 JUMP JUMPDEST JUMPDEST DUP1 PUSH1 0x40 MSTORE POP POP POP JUMP JUMPDEST PUSH32 0x4E487B7100000000000000000000000000000000000000000000000000000000 PUSH1 0x0 MSTORE PUSH1 0x11 PUSH1 0x4 MSTORE PUSH1 0x24 PUSH1 0x0 REVERT JUMPDEST PUSH32 0x4E487B7100000000000000000000000000000000000000000000000000000000 PUSH1 0x0 MSTORE PUSH1 0x22 PUSH1 0x4 MSTORE PUSH1 0x24 PUSH1 0x0 REVERT JUMPDEST PUSH32 0x4E487B7100000000000000000000000000000000000000000000000000000000 PUSH1 0x0 MSTORE PUSH1 0x32 PUSH1 0x4 MSTORE PUSH1 0x24 PUSH1 0x0 REVERT JUMPDEST PUSH32 0x4E487B7100000000000000000000000000000000000000000000000000000000 PUSH1 0x0 MSTORE PUSH1 0x41 PUSH1 0x4 MSTORE PUSH1 0x24 PUSH1 0x0 REVERT JUMPDEST PUSH1 0x0 DUP1 REVERT JUMPDEST PUSH1 0x0 DUP1 REVERT JUMPDEST PUSH1 0x0 DUP1 REVERT JUMPDEST PUSH1 0x0 DUP1 REVERT JUMPDEST PUSH1 0x0 DUP1 REVERT JUMPDEST PUSH1 0x0 DUP1 REVERT JUMPDEST PUSH1 0x0 PUSH1 0x1F NOT PUSH1 0x1F DUP4 ADD AND SWAP1 POP SWAP2 SWAP1 POP JUMP JUMPDEST PUSH32 0x596F7520617265206E6F7420746865206F776E65722100000000000000000000 PUSH1 0x0 DUP3 ADD MSTORE POP JUMP JUMPDEST PUSH32 0x5468652070726F64756374207175616E74697479206973206C65737320746861 PUSH1 0x0 DUP3 ADD MSTORE PUSH32 0x6E20796F752077616E7465642100000000000000000000000000000000000000 PUSH1 0x20 DUP3 ADD MSTORE POP JUMP JUMPDEST PUSH32 0x50726F6475637420646F6573206E6F7420657869737473210000000000000000 PUSH1 0x0 DUP3 ADD MSTORE POP JUMP JUMPDEST PUSH32 0x596F75206861766520616C726561647920626F7567687420746869732070726F PUSH1 0x0 DUP3 ADD MSTORE PUSH32 0x6475637421000000000000000000000000000000000000000000000000000000 PUSH1 0x20 DUP3 ADD MSTORE POP JUMP JUMPDEST PUSH32 0x5468652070726F64756374206973206E6F74206578697374696E672100000000 PUSH1 0x0 DUP3 ADD MSTORE POP JUMP JUMPDEST PUSH32 0x5468652070726F6475637420697320616C726561647920696E20746865207374 PUSH1 0x0 DUP3 ADD MSTORE PUSH32 0x6F72652100000000000000000000000000000000000000000000000000000000 PUSH1 0x20 DUP3 ADD MSTORE POP JUMP JUMPDEST PUSH2 0x14FF DUP2 PUSH2 0x11B6 JUMP JUMPDEST DUP2 EQ PUSH2 0x150A JUMPI PUSH1 0x0 DUP1 REVERT JUMPDEST POP JUMP JUMPDEST PUSH2 0x1516 DUP2 PUSH2 0x11F4 JUMP JUMPDEST DUP2 EQ PUSH2 0x1521 JUMPI PUSH1 0x0 DUP1 REVERT JUMPDEST POP JUMP INVALID LOG2 PUSH5 0x6970667358 0x22 SLT KECCAK256 PUSH1 0x80 0x24 0xC SMOD 0xC1 INVALID 0xFC EQ SWAP3 0xBB 0xC KECCAK256 PUSH25 0x80FA79998610E71FE47B14B069D55201BECA64736F6C634300 ADDMOD SMOD STOP CALLER "
				},
				"gasEstimates": {
					"creation": {
						"codeDepositCost": "1093200",
						"executionCost": "25400",
						"totalCost": "1118600"
					},
					"external": {
						"addNewProduct(string,uint256,uint256)": "infinite",
						"availableProductsIds(uint256)": "2863",
						"availableProductsNames(string)": "infinite",
						"buyProduct(uint256,uint256)": "infinite",
						"getProducts()": "infinite",
						"owner()": "2533",
						"products(uint256)": "infinite",
						"productsPurchases(uint256,address)": "infinite",
						"updateProductQuantity(uint256,uint256)": "infinite"
					}
				},
				"methodIdentifiers": {
					"addNewProduct(string,uint256,uint256)": "0a5bd44b",
					"availableProductsIds(uint256)": "5f7fad9c",
					"availableProductsNames(string)": "4c437514",
					"buyProduct(uint256,uint256)": "53b62866",
					"getProducts()": "c29b2f20",
					"owner()": "8da5cb5b",
					"products(uint256)": "7acc0b20",
					"productsPurchases(uint256,address)": "ccc4174a",
					"updateProductQuantity(uint256,uint256)": "fcc93b0b"
				}
			},
			"storageLayout": {
				"storage": [
					{
						"astId": 3,
						"contract": "contracts/Store.sol:Store",
						"label": "owner",
						"offset": 0,
						"slot": "0",
						"type": "t_address"
					},
					{
						"astId": 43,
						"contract": "contracts/Store.sol:Store",
						"label": "products",
						"offset": 0,
						"slot": "1",
						"type": "t_array(t_struct(Product)39_storage)dyn_storage"
					},
					{
						"astId": 47,
						"contract": "contracts/Store.sol:Store",
						"label": "availableProductsIds",
						"offset": 0,
						"slot": "2",
						"type": "t_mapping(t_uint256,t_bool)"
					},
					{
						"astId": 51,
						"contract": "contracts/Store.sol:Store",
						"label": "availableProductsNames",
						"offset": 0,
						"slot": "3",
						"type": "t_mapping(t_string_memory_ptr,t_bool)"
					},
					{
						"astId": 57,
						"contract": "contracts/Store.sol:Store",
						"label": "productsPurchases",
						"offset": 0,
						"slot": "4",
						"type": "t_mapping(t_uint256,t_mapping(t_address,t_uint256))"
					}
				],
				"types": {
					"t_address": {
						"encoding": "inplace",
						"label": "address",
						"numberOfBytes": "20"
					},
					"t_array(t_struct(Product)39_storage)dyn_storage": {
						"base": "t_struct(Product)39_storage",
						"encoding": "dynamic_array",
						"label": "struct Store.Product[]",
						"numberOfBytes": "32"
					},
					"t_bool": {
						"encoding": "inplace",
						"label": "bool",
						"numberOfBytes": "1"
					},
					"t_mapping(t_address,t_uint256)": {
						"encoding": "mapping",
						"key": "t_address",
						"label": "mapping(address => uint256)",
						"numberOfBytes": "32",
						"value": "t_uint256"
					},
					"t_mapping(t_string_memory_ptr,t_bool)": {
						"encoding": "mapping",
						"key": "t_string_memory_ptr",
						"label": "mapping(string => bool)",
						"numberOfBytes": "32",
						"value": "t_bool"
					},
					"t_mapping(t_uint256,t_bool)": {
						"encoding": "mapping",
						"key": "t_uint256",
						"label": "mapping(uint256 => bool)",
						"numberOfBytes": "32",
						"value": "t_bool"
					},
					"t_mapping(t_uint256,t_mapping(t_address,t_uint256))": {
						"encoding": "mapping",
						"key": "t_uint256",
						"label": "mapping(uint256 => mapping(address => uint256))",
						"numberOfBytes": "32",
						"value": "t_mapping(t_address,t_uint256)"
					},
					"t_string_memory_ptr": {
						"encoding": "bytes",
						"label": "string",
						"numberOfBytes": "32"
					},
					"t_string_storage": {
						"encoding": "bytes",
						"label": "string",
						"numberOfBytes": "32"
					},
					"t_struct(Product)39_storage": {
						"encoding": "inplace",
						"label": "struct Store.Product",
						"members": [
							{
								"astId": 32,
								"contract": "contracts/Store.sol:Store",
								"label": "id",
								"offset": 0,
								"slot": "0",
								"type": "t_uint256"
							},
							{
								"astId": 34,
								"contract": "contracts/Store.sol:Store",
								"label": "name",
								"offset": 0,
								"slot": "1",
								"type": "t_string_storage"
							},
							{
								"astId": 36,
								"contract": "contracts/Store.sol:Store",
								"label": "quantity",
								"offset": 0,
								"slot": "2",
								"type": "t_uint256"
							},
							{
								"astId": 38,
								"contract": "contracts/Store.sol:Store",
								"label": "price",
								"offset": 0,
								"slot": "3",
								"type": "t_uint256"
							}
						],
						"numberOfBytes": "128"
					},
					"t_uint256": {
						"encoding": "inplace",
						"label": "uint256",
						"numberOfBytes": "32"
					}
				}
			},
			"userdoc": {
				"kind": "user",
				"methods": {},
				"version": 1
			}
		}
	}
}