{
	"contracts/USElection.sol": {
		"USElection": {
			"abi": [
				{
					"inputs": [],
					"name": "BIDEN",
					"outputs": [
						{
							"internalType": "uint8",
							"name": "",
							"type": "uint8"
						}
					],
					"stateMutability": "view",
					"type": "function"
				},
				{
					"inputs": [],
					"name": "TRUMP",
					"outputs": [
						{
							"internalType": "uint8",
							"name": "",
							"type": "uint8"
						}
					],
					"stateMutability": "view",
					"type": "function"
				},
				{
					"inputs": [],
					"name": "currentLeader",
					"outputs": [
						{
							"internalType": "uint8",
							"name": "",
							"type": "uint8"
						}
					],
					"stateMutability": "view",
					"type": "function"
				},
				{
					"inputs": [],
					"name": "electionEnded",
					"outputs": [
						{
							"internalType": "bool",
							"name": "",
							"type": "bool"
						}
					],
					"stateMutability": "view",
					"type": "function"
				},
				{
					"inputs": [],
					"name": "endElection",
					"outputs": [],
					"stateMutability": "nonpayable",
					"type": "function"
				},
				{
					"inputs": [],
					"name": "owner",
					"outputs": [
						{
							"internalType": "address",
							"name": "",
							"type": "address"
						}
					],
					"stateMutability": "view",
					"type": "function"
				},
				{
					"inputs": [
						{
							"internalType": "uint8",
							"name": "",
							"type": "uint8"
						}
					],
					"name": "seats",
					"outputs": [
						{
							"internalType": "uint8",
							"name": "",
							"type": "uint8"
						}
					],
					"stateMutability": "view",
					"type": "function"
				},
				{
					"inputs": [
						{
							"components": [
								{
									"internalType": "string",
									"name": "name",
									"type": "string"
								},
								{
									"internalType": "uint256",
									"name": "votesBiden",
									"type": "uint256"
								},
								{
									"internalType": "uint256",
									"name": "votesTrump",
									"type": "uint256"
								},
								{
									"internalType": "uint8",
									"name": "stateSeats",
									"type": "uint8"
								}
							],
							"internalType": "struct USElection.StateResult",
							"name": "result",
							"type": "tuple"
						}
					],
					"name": "submitStateResult",
					"outputs": [],
					"stateMutability": "nonpayable",
					"type": "function"
				},
				{
					"inputs": [
						{
							"internalType": "string",
							"name": "",
							"type": "string"
						}
					],
					"name": "submitedStates",
					"outputs": [
						{
							"internalType": "bool",
							"name": "",
							"type": "bool"
						}
					],
					"stateMutability": "view",
					"type": "function"
				}
			],
			"devdoc": {
				"kind": "dev",
				"methods": {},
				"version": 1
			},
			"evm": {
				"assembly": "    /* \"contracts/USElection.sol\":114:1452  contract USElection is Ownable {\r... */\n  mstore(0x40, 0x80)\n  callvalue\n  dup1\n  iszero\n  tag_1\n  jumpi\n  0x00\n  dup1\n  revert\ntag_1:\n  pop\n    /* \"contracts/Ownable.sol\":156:166  msg.sender */\n  caller\n    /* \"contracts/Ownable.sol\":148:153  owner */\n  0x00\n  dup1\n    /* \"contracts/Ownable.sol\":148:166  owner = msg.sender */\n  0x0100\n  exp\n  dup2\n  sload\n  dup2\n  0xffffffffffffffffffffffffffffffffffffffff\n  mul\n  not\n  and\n  swap1\n  dup4\n  0xffffffffffffffffffffffffffffffffffffffff\n  and\n  mul\n  or\n  swap1\n  sstore\n  pop\n    /* \"contracts/USElection.sol\":114:1452  contract USElection is Ownable {\r... */\n  dataSize(sub_0)\n  dup1\n  dataOffset(sub_0)\n  0x00\n  codecopy\n  0x00\n  return\nstop\n\nsub_0: assembly {\n        /* \"contracts/USElection.sol\":114:1452  contract USElection is Ownable {\r... */\n      mstore(0x40, 0x80)\n      callvalue\n      dup1\n      iszero\n      tag_1\n      jumpi\n      0x00\n      dup1\n      revert\n    tag_1:\n      pop\n      jumpi(tag_2, lt(calldatasize, 0x04))\n      shr(0xe0, calldataload(0x00))\n      dup1\n      0x713d87c5\n      gt\n      tag_12\n      jumpi\n      dup1\n      0x713d87c5\n      eq\n      tag_7\n      jumpi\n      dup1\n      0x8da5cb5b\n      eq\n      tag_8\n      jumpi\n      dup1\n      0xac4bd53a\n      eq\n      tag_9\n      jumpi\n      dup1\n      0xc94ca9e3\n      eq\n      tag_10\n      jumpi\n      dup1\n      0xe494a883\n      eq\n      tag_11\n      jumpi\n      jump(tag_2)\n    tag_12:\n      dup1\n      0x2d674216\n      eq\n      tag_3\n      jumpi\n      dup1\n      0x2d78d8e5\n      eq\n      tag_4\n      jumpi\n      dup1\n      0x59f78468\n      eq\n      tag_5\n      jumpi\n      dup1\n      0x69b36bd4\n      eq\n      tag_6\n      jumpi\n    tag_2:\n      0x00\n      dup1\n      revert\n        /* \"contracts/USElection.sol\":315:360  mapping(string => bool) public submitedStates */\n    tag_3:\n      tag_13\n      0x04\n      dup1\n      calldatasize\n      sub\n      dup2\n      add\n      swap1\n      tag_14\n      swap2\n      swap1\n      tag_15\n      jump\t// in\n    tag_14:\n      tag_16\n      jump\t// in\n    tag_13:\n      mload(0x40)\n      tag_17\n      swap2\n      swap1\n      tag_18\n      jump\t// in\n    tag_17:\n      mload(0x40)\n      dup1\n      swap2\n      sub\n      swap1\n      return\n        /* \"contracts/USElection.sol\":190:221  uint8 public constant TRUMP = 2 */\n    tag_4:\n      tag_19\n      tag_20\n      jump\t// in\n    tag_19:\n      mload(0x40)\n      tag_21\n      swap2\n      swap1\n      tag_22\n      jump\t// in\n    tag_21:\n      mload(0x40)\n      dup1\n      swap2\n      sub\n      swap1\n      return\n        /* \"contracts/USElection.sol\":1361:1449  function endElection() public onlyActiveElection {\r... */\n    tag_5:\n      tag_23\n      tag_24\n      jump\t// in\n    tag_23:\n      stop\n        /* \"contracts/USElection.sol\":152:183  uint8 public constant BIDEN = 1 */\n    tag_6:\n      tag_25\n      tag_26\n      jump\t// in\n    tag_25:\n      mload(0x40)\n      tag_27\n      swap2\n      swap1\n      tag_22\n      jump\t// in\n    tag_27:\n      mload(0x40)\n      dup1\n      swap2\n      sub\n      swap1\n      return\n        /* \"contracts/USElection.sol\":272:308  mapping(uint8 => uint8) public seats */\n    tag_7:\n      tag_28\n      0x04\n      dup1\n      calldatasize\n      sub\n      dup2\n      add\n      swap1\n      tag_29\n      swap2\n      swap1\n      tag_30\n      jump\t// in\n    tag_29:\n      tag_31\n      jump\t// in\n    tag_28:\n      mload(0x40)\n      tag_32\n      swap2\n      swap1\n      tag_22\n      jump\t// in\n    tag_32:\n      mload(0x40)\n      dup1\n      swap2\n      sub\n      swap1\n      return\n        /* \"contracts/Ownable.sol\":90:110  address public owner */\n    tag_8:\n      tag_33\n      tag_34\n      jump\t// in\n    tag_33:\n      mload(0x40)\n      tag_35\n      swap2\n      swap1\n      tag_36\n      jump\t// in\n    tag_35:\n      mload(0x40)\n      dup1\n      swap2\n      sub\n      swap1\n      return\n        /* \"contracts/USElection.sol\":1148:1349  function currentLeader() public view returns(uint8) {\r... */\n    tag_9:\n      tag_37\n      tag_38\n      jump\t// in\n    tag_37:\n      mload(0x40)\n      tag_39\n      swap2\n      swap1\n      tag_22\n      jump\t// in\n    tag_39:\n      mload(0x40)\n      dup1\n      swap2\n      sub\n      swap1\n      return\n        /* \"contracts/USElection.sol\":234:259  bool public electionEnded */\n    tag_10:\n      tag_40\n      tag_41\n      jump\t// in\n    tag_40:\n      mload(0x40)\n      tag_42\n      swap2\n      swap1\n      tag_18\n      jump\t// in\n    tag_42:\n      mload(0x40)\n      dup1\n      swap2\n      sub\n      swap1\n      return\n        /* \"contracts/USElection.sol\":626:1136  function submitStateResult(StateResult calldata result) public onlyActiveElection {\r... */\n    tag_11:\n      tag_43\n      0x04\n      dup1\n      calldatasize\n      sub\n      dup2\n      add\n      swap1\n      tag_44\n      swap2\n      swap1\n      tag_45\n      jump\t// in\n    tag_44:\n      tag_46\n      jump\t// in\n    tag_43:\n      stop\n        /* \"contracts/USElection.sol\":315:360  mapping(string => bool) public submitedStates */\n    tag_16:\n      0x02\n      dup2\n      dup1\n      mload\n      0x20\n      dup2\n      add\n      dup3\n      add\n      dup1\n      mload\n      dup5\n      dup3\n      mstore\n      0x20\n      dup4\n      add\n      0x20\n      dup6\n      add\n      keccak256\n      dup2\n      dup4\n      mstore\n      dup1\n      swap6\n      pop\n      pop\n      pop\n      pop\n      pop\n      pop\n      0x00\n      swap2\n      pop\n      sload\n      swap1\n      0x0100\n      exp\n      swap1\n      div\n      0xff\n      and\n      dup2\n      jump\t// out\n        /* \"contracts/USElection.sol\":190:221  uint8 public constant TRUMP = 2 */\n    tag_20:\n        /* \"contracts/USElection.sol\":220:221  2 */\n      0x02\n        /* \"contracts/USElection.sol\":190:221  uint8 public constant TRUMP = 2 */\n      dup2\n      jump\t// out\n        /* \"contracts/USElection.sol\":1361:1449  function endElection() public onlyActiveElection {\r... */\n    tag_24:\n        /* \"contracts/USElection.sol\":561:574  electionEnded */\n      0x00\n      0x14\n      swap1\n      sload\n      swap1\n      0x0100\n      exp\n      swap1\n      div\n      0xff\n      and\n        /* \"contracts/USElection.sol\":560:574  !electionEnded */\n      iszero\n        /* \"contracts/USElection.sol\":552:598  require(!electionEnded, \"Election has ended!\") */\n      tag_48\n      jumpi\n      mload(0x40)\n      0x08c379a000000000000000000000000000000000000000000000000000000000\n      dup2\n      mstore\n      0x04\n      add\n      tag_49\n      swap1\n      tag_50\n      jump\t// in\n    tag_49:\n      mload(0x40)\n      dup1\n      swap2\n      sub\n      swap1\n      revert\n    tag_48:\n        /* \"contracts/USElection.sol\":1437:1441  true */\n      0x01\n        /* \"contracts/USElection.sol\":1421:1434  electionEnded */\n      0x00\n      0x14\n        /* \"contracts/USElection.sol\":1421:1441  electionEnded = true */\n      0x0100\n      exp\n      dup2\n      sload\n      dup2\n      0xff\n      mul\n      not\n      and\n      swap1\n      dup4\n      iszero\n      iszero\n      mul\n      or\n      swap1\n      sstore\n      pop\n        /* \"contracts/USElection.sol\":1361:1449  function endElection() public onlyActiveElection {\r... */\n      jump\t// out\n        /* \"contracts/USElection.sol\":152:183  uint8 public constant BIDEN = 1 */\n    tag_26:\n        /* \"contracts/USElection.sol\":182:183  1 */\n      0x01\n        /* \"contracts/USElection.sol\":152:183  uint8 public constant BIDEN = 1 */\n      dup2\n      jump\t// out\n        /* \"contracts/USElection.sol\":272:308  mapping(uint8 => uint8) public seats */\n    tag_31:\n      mstore(0x20, 0x01)\n      dup1\n      0x00\n      mstore\n      keccak256(0x00, 0x40)\n      0x00\n      swap2\n      pop\n      sload\n      swap1\n      0x0100\n      exp\n      swap1\n      div\n      0xff\n      and\n      dup2\n      jump\t// out\n        /* \"contracts/Ownable.sol\":90:110  address public owner */\n    tag_34:\n      0x00\n      dup1\n      sload\n      swap1\n      0x0100\n      exp\n      swap1\n      div\n      0xffffffffffffffffffffffffffffffffffffffff\n      and\n      dup2\n      jump\t// out\n        /* \"contracts/USElection.sol\":1148:1349  function currentLeader() public view returns(uint8) {\r... */\n    tag_38:\n        /* \"contracts/USElection.sol\":1193:1198  uint8 */\n      0x00\n        /* \"contracts/USElection.sol\":1211:1226  uint bidenSeats */\n      dup1\n        /* \"contracts/USElection.sol\":1229:1234  seats */\n      0x01\n        /* \"contracts/USElection.sol\":1229:1241  seats[BIDEN] */\n      0x00\n        /* \"contracts/USElection.sol\":182:183  1 */\n      0x01\n        /* \"contracts/USElection.sol\":1229:1241  seats[BIDEN] */\n      0xff\n      and\n      0xff\n      and\n      dup2\n      mstore\n      0x20\n      add\n      swap1\n      dup2\n      mstore\n      0x20\n      add\n      0x00\n      keccak256\n      0x00\n      swap1\n      sload\n      swap1\n      0x0100\n      exp\n      swap1\n      div\n      0xff\n      and\n        /* \"contracts/USElection.sol\":1211:1241  uint bidenSeats = seats[BIDEN] */\n      0xff\n      and\n      swap1\n      pop\n        /* \"contracts/USElection.sol\":1252:1267  uint trumpSeats */\n      0x00\n        /* \"contracts/USElection.sol\":1270:1275  seats */\n      0x01\n        /* \"contracts/USElection.sol\":1270:1282  seats[TRUMP] */\n      0x00\n        /* \"contracts/USElection.sol\":220:221  2 */\n      0x02\n        /* \"contracts/USElection.sol\":1270:1282  seats[TRUMP] */\n      0xff\n      and\n      0xff\n      and\n      dup2\n      mstore\n      0x20\n      add\n      swap1\n      dup2\n      mstore\n      0x20\n      add\n      0x00\n      keccak256\n      0x00\n      swap1\n      sload\n      swap1\n      0x0100\n      exp\n      swap1\n      div\n      0xff\n      and\n        /* \"contracts/USElection.sol\":1252:1282  uint trumpSeats = seats[TRUMP] */\n      0xff\n      and\n      swap1\n      pop\n        /* \"contracts/USElection.sol\":1315:1325  trumpSeats */\n      dup1\n        /* \"contracts/USElection.sol\":1302:1312  bidenSeats */\n      dup3\n        /* \"contracts/USElection.sol\":1302:1325  bidenSeats > trumpSeats */\n      gt\n        /* \"contracts/USElection.sol\":1302:1341  bidenSeats > trumpSeats ? BIDEN : TRUMP */\n      tag_53\n      jumpi\n        /* \"contracts/USElection.sol\":220:221  2 */\n      0x02\n        /* \"contracts/USElection.sol\":1302:1341  bidenSeats > trumpSeats ? BIDEN : TRUMP */\n      jump(tag_54)\n    tag_53:\n        /* \"contracts/USElection.sol\":182:183  1 */\n      0x01\n        /* \"contracts/USElection.sol\":1302:1341  bidenSeats > trumpSeats ? BIDEN : TRUMP */\n    tag_54:\n        /* \"contracts/USElection.sol\":1295:1341  return bidenSeats > trumpSeats ? BIDEN : TRUMP */\n      swap3\n      pop\n      pop\n      pop\n        /* \"contracts/USElection.sol\":1148:1349  function currentLeader() public view returns(uint8) {\r... */\n      swap1\n      jump\t// out\n        /* \"contracts/USElection.sol\":234:259  bool public electionEnded */\n    tag_41:\n      0x00\n      0x14\n      swap1\n      sload\n      swap1\n      0x0100\n      exp\n      swap1\n      div\n      0xff\n      and\n      dup2\n      jump\t// out\n        /* \"contracts/USElection.sol\":626:1136  function submitStateResult(StateResult calldata result) public onlyActiveElection {\r... */\n    tag_46:\n        /* \"contracts/USElection.sol\":561:574  electionEnded */\n      0x00\n      0x14\n      swap1\n      sload\n      swap1\n      0x0100\n      exp\n      swap1\n      div\n      0xff\n      and\n        /* \"contracts/USElection.sol\":560:574  !electionEnded */\n      iszero\n        /* \"contracts/USElection.sol\":552:598  require(!electionEnded, \"Election has ended!\") */\n      tag_56\n      jumpi\n      mload(0x40)\n      0x08c379a000000000000000000000000000000000000000000000000000000000\n      dup2\n      mstore\n      0x04\n      add\n      tag_57\n      swap1\n      tag_50\n      jump\t// in\n    tag_57:\n      mload(0x40)\n      dup1\n      swap2\n      sub\n      swap1\n      revert\n    tag_56:\n        /* \"contracts/USElection.sol\":747:748  0 */\n      0x00\n        /* \"contracts/USElection.sol\":727:733  result */\n      dup2\n        /* \"contracts/USElection.sol\":727:744  result.stateSeats */\n      0x60\n      add\n      0x20\n      dup2\n      add\n      swap1\n      tag_59\n      swap2\n      swap1\n      tag_30\n      jump\t// in\n    tag_59:\n        /* \"contracts/USElection.sol\":727:748  result.stateSeats > 0 */\n      0xff\n      and\n      gt\n        /* \"contracts/USElection.sol\":719:781  require(result.stateSeats > 0, \"State seets cannot be empty!\") */\n      tag_60\n      jumpi\n      mload(0x40)\n      0x08c379a000000000000000000000000000000000000000000000000000000000\n      dup2\n      mstore\n      0x04\n      add\n      tag_61\n      swap1\n      tag_62\n      jump\t// in\n    tag_61:\n      mload(0x40)\n      dup1\n      swap2\n      sub\n      swap1\n      revert\n    tag_60:\n        /* \"contracts/USElection.sol\":800:814  submitedStates */\n      0x02\n        /* \"contracts/USElection.sol\":815:821  result */\n      dup2\n        /* \"contracts/USElection.sol\":815:826  result.name */\n      dup1\n      0x00\n      add\n      swap1\n      tag_63\n      swap2\n      swap1\n      tag_64\n      jump\t// in\n    tag_63:\n        /* \"contracts/USElection.sol\":800:827  submitedStates[result.name] */\n      mload(0x40)\n      tag_65\n      swap3\n      swap2\n      swap1\n      tag_66\n      jump\t// in\n    tag_65:\n      swap1\n      dup2\n      mstore\n      0x20\n      add\n      mload(0x40)\n      dup1\n      swap2\n      sub\n      swap1\n      keccak256\n      0x00\n      swap1\n      sload\n      swap1\n      0x0100\n      exp\n      swap1\n      div\n      0xff\n      and\n        /* \"contracts/USElection.sol\":792:872  require(submitedStates[result.name], \"This state has already submited results!\") */\n      tag_67\n      jumpi\n      mload(0x40)\n      0x08c379a000000000000000000000000000000000000000000000000000000000\n      dup2\n      mstore\n      0x04\n      add\n      tag_68\n      swap1\n      tag_69\n      jump\t// in\n    tag_68:\n      mload(0x40)\n      dup1\n      swap2\n      sub\n      swap1\n      revert\n    tag_67:\n        /* \"contracts/USElection.sol\":912:918  result */\n      dup1\n        /* \"contracts/USElection.sol\":912:929  result.votesTrump */\n      0x40\n      add\n      calldataload\n        /* \"contracts/USElection.sol\":891:897  result */\n      dup2\n        /* \"contracts/USElection.sol\":891:908  result.votesBiden */\n      0x20\n      add\n      calldataload\n        /* \"contracts/USElection.sol\":891:929  result.votesBiden != result.votesTrump */\n      eq\n      iszero\n        /* \"contracts/USElection.sol\":883:955  require(result.votesBiden != result.votesTrump, \"There cannot be a tie\") */\n      tag_70\n      jumpi\n      mload(0x40)\n      0x08c379a000000000000000000000000000000000000000000000000000000000\n      dup2\n      mstore\n      0x04\n      add\n      tag_71\n      swap1\n      tag_72\n      jump\t// in\n    tag_71:\n      mload(0x40)\n      dup1\n      swap2\n      sub\n      swap1\n      revert\n    tag_70:\n        /* \"contracts/USElection.sol\":998:1002  true */\n      0x01\n        /* \"contracts/USElection.sol\":968:982  submitedStates */\n      0x02\n        /* \"contracts/USElection.sol\":983:989  result */\n      dup3\n        /* \"contracts/USElection.sol\":983:994  result.name */\n      dup1\n      0x00\n      add\n      swap1\n      tag_73\n      swap2\n      swap1\n      tag_64\n      jump\t// in\n    tag_73:\n        /* \"contracts/USElection.sol\":968:995  submitedStates[result.name] */\n      mload(0x40)\n      tag_74\n      swap3\n      swap2\n      swap1\n      tag_66\n      jump\t// in\n    tag_74:\n      swap1\n      dup2\n      mstore\n      0x20\n      add\n      mload(0x40)\n      dup1\n      swap2\n      sub\n      swap1\n      keccak256\n      0x00\n        /* \"contracts/USElection.sol\":968:1002  submitedStates[result.name] = true */\n      0x0100\n      exp\n      dup2\n      sload\n      dup2\n      0xff\n      mul\n      not\n      and\n      swap1\n      dup4\n      iszero\n      iszero\n      mul\n      or\n      swap1\n      sstore\n      pop\n        /* \"contracts/USElection.sol\":1015:1027  uint8 winner */\n      0x00\n        /* \"contracts/USElection.sol\":1050:1056  result */\n      dup2\n        /* \"contracts/USElection.sol\":1050:1067  result.votesBiden */\n      0x20\n      add\n      calldataload\n        /* \"contracts/USElection.sol\":1030:1036  result */\n      dup3\n        /* \"contracts/USElection.sol\":1030:1047  result.votesTrump */\n      0x40\n      add\n      calldataload\n        /* \"contracts/USElection.sol\":1030:1067  result.votesTrump > result.votesBiden */\n      gt\n        /* \"contracts/USElection.sol\":1030:1083  result.votesTrump > result.votesBiden ? TRUMP : BIDEN */\n      tag_75\n      jumpi\n        /* \"contracts/USElection.sol\":182:183  1 */\n      0x01\n        /* \"contracts/USElection.sol\":1030:1083  result.votesTrump > result.votesBiden ? TRUMP : BIDEN */\n      jump(tag_76)\n    tag_75:\n        /* \"contracts/USElection.sol\":220:221  2 */\n      0x02\n        /* \"contracts/USElection.sol\":1030:1083  result.votesTrump > result.votesBiden ? TRUMP : BIDEN */\n    tag_76:\n        /* \"contracts/USElection.sol\":1015:1083  uint8 winner = result.votesTrump > result.votesBiden ? TRUMP : BIDEN */\n      swap1\n      pop\n        /* \"contracts/USElection.sol\":1111:1117  result */\n      dup2\n        /* \"contracts/USElection.sol\":1111:1128  result.stateSeats */\n      0x60\n      add\n      0x20\n      dup2\n      add\n      swap1\n      tag_77\n      swap2\n      swap1\n      tag_30\n      jump\t// in\n    tag_77:\n        /* \"contracts/USElection.sol\":1094:1099  seats */\n      0x01\n        /* \"contracts/USElection.sol\":1094:1107  seats[winner] */\n      0x00\n        /* \"contracts/USElection.sol\":1100:1106  winner */\n      dup4\n        /* \"contracts/USElection.sol\":1094:1107  seats[winner] */\n      0xff\n      and\n      0xff\n      and\n      dup2\n      mstore\n      0x20\n      add\n      swap1\n      dup2\n      mstore\n      0x20\n      add\n      0x00\n      keccak256\n      0x00\n        /* \"contracts/USElection.sol\":1094:1128  seats[winner] += result.stateSeats */\n      dup3\n      dup3\n      dup3\n      swap1\n      sload\n      swap1\n      0x0100\n      exp\n      swap1\n      div\n      0xff\n      and\n      tag_78\n      swap2\n      swap1\n      tag_79\n      jump\t// in\n    tag_78:\n      swap3\n      pop\n      0x0100\n      exp\n      dup2\n      sload\n      dup2\n      0xff\n      mul\n      not\n      and\n      swap1\n      dup4\n      0xff\n      and\n      mul\n      or\n      swap1\n      sstore\n      pop\n        /* \"contracts/USElection.sol\":708:1136  {\r... */\n      pop\n        /* \"contracts/USElection.sol\":626:1136  function submitStateResult(StateResult calldata result) public onlyActiveElection {\r... */\n      pop\n      jump\t// out\n        /* \"#utility.yul\":7:419   */\n    tag_81:\n        /* \"#utility.yul\":85:90   */\n      0x00\n        /* \"#utility.yul\":110:176   */\n      tag_83\n        /* \"#utility.yul\":126:175   */\n      tag_84\n        /* \"#utility.yul\":168:174   */\n      dup5\n        /* \"#utility.yul\":126:175   */\n      tag_85\n      jump\t// in\n    tag_84:\n        /* \"#utility.yul\":110:176   */\n      tag_86\n      jump\t// in\n    tag_83:\n        /* \"#utility.yul\":101:176   */\n      swap1\n      pop\n        /* \"#utility.yul\":199:205   */\n      dup3\n        /* \"#utility.yul\":192:197   */\n      dup2\n        /* \"#utility.yul\":185:206   */\n      mstore\n        /* \"#utility.yul\":237:241   */\n      0x20\n        /* \"#utility.yul\":230:235   */\n      dup2\n        /* \"#utility.yul\":226:242   */\n      add\n        /* \"#utility.yul\":275:278   */\n      dup5\n        /* \"#utility.yul\":266:272   */\n      dup5\n        /* \"#utility.yul\":261:264   */\n      dup5\n        /* \"#utility.yul\":257:273   */\n      add\n        /* \"#utility.yul\":254:279   */\n      gt\n        /* \"#utility.yul\":251:363   */\n      iszero\n      tag_87\n      jumpi\n        /* \"#utility.yul\":282:361   */\n      tag_88\n      tag_89\n      jump\t// in\n    tag_88:\n        /* \"#utility.yul\":251:363   */\n    tag_87:\n        /* \"#utility.yul\":372:413   */\n      tag_90\n        /* \"#utility.yul\":406:412   */\n      dup5\n        /* \"#utility.yul\":401:404   */\n      dup3\n        /* \"#utility.yul\":396:399   */\n      dup6\n        /* \"#utility.yul\":372:413   */\n      tag_91\n      jump\t// in\n    tag_90:\n        /* \"#utility.yul\":91:419   */\n      pop\n        /* \"#utility.yul\":7:419   */\n      swap4\n      swap3\n      pop\n      pop\n      pop\n      jump\t// out\n        /* \"#utility.yul\":439:779   */\n    tag_92:\n        /* \"#utility.yul\":495:500   */\n      0x00\n        /* \"#utility.yul\":544:547   */\n      dup3\n        /* \"#utility.yul\":537:541   */\n      0x1f\n        /* \"#utility.yul\":529:535   */\n      dup4\n        /* \"#utility.yul\":525:542   */\n      add\n        /* \"#utility.yul\":521:548   */\n      slt\n        /* \"#utility.yul\":511:633   */\n      tag_94\n      jumpi\n        /* \"#utility.yul\":552:631   */\n      tag_95\n      tag_96\n      jump\t// in\n    tag_95:\n        /* \"#utility.yul\":511:633   */\n    tag_94:\n        /* \"#utility.yul\":669:675   */\n      dup2\n        /* \"#utility.yul\":656:676   */\n      calldataload\n        /* \"#utility.yul\":694:773   */\n      tag_97\n        /* \"#utility.yul\":769:772   */\n      dup5\n        /* \"#utility.yul\":761:767   */\n      dup3\n        /* \"#utility.yul\":754:758   */\n      0x20\n        /* \"#utility.yul\":746:752   */\n      dup7\n        /* \"#utility.yul\":742:759   */\n      add\n        /* \"#utility.yul\":694:773   */\n      tag_81\n      jump\t// in\n    tag_97:\n        /* \"#utility.yul\":685:773   */\n      swap2\n      pop\n        /* \"#utility.yul\":501:779   */\n      pop\n        /* \"#utility.yul\":439:779   */\n      swap3\n      swap2\n      pop\n      pop\n      jump\t// out\n        /* \"#utility.yul\":822:1056   */\n    tag_98:\n        /* \"#utility.yul\":897:902   */\n      0x00\n        /* \"#utility.yul\":938:941   */\n      0x80\n        /* \"#utility.yul\":929:935   */\n      dup3\n        /* \"#utility.yul\":924:927   */\n      dup5\n        /* \"#utility.yul\":920:936   */\n      sub\n        /* \"#utility.yul\":916:942   */\n      slt\n        /* \"#utility.yul\":913:1026   */\n      iszero\n      tag_100\n      jumpi\n        /* \"#utility.yul\":945:1024   */\n      tag_101\n      tag_102\n      jump\t// in\n    tag_101:\n        /* \"#utility.yul\":913:1026   */\n    tag_100:\n        /* \"#utility.yul\":1044:1050   */\n      dup2\n        /* \"#utility.yul\":1035:1050   */\n      swap1\n      pop\n        /* \"#utility.yul\":822:1056   */\n      swap3\n      swap2\n      pop\n      pop\n      jump\t// out\n        /* \"#utility.yul\":1062:1197   */\n    tag_103:\n        /* \"#utility.yul\":1106:1111   */\n      0x00\n        /* \"#utility.yul\":1144:1150   */\n      dup2\n        /* \"#utility.yul\":1131:1151   */\n      calldataload\n        /* \"#utility.yul\":1122:1151   */\n      swap1\n      pop\n        /* \"#utility.yul\":1160:1191   */\n      tag_105\n        /* \"#utility.yul\":1185:1190   */\n      dup2\n        /* \"#utility.yul\":1160:1191   */\n      tag_106\n      jump\t// in\n    tag_105:\n        /* \"#utility.yul\":1062:1197   */\n      swap3\n      swap2\n      pop\n      pop\n      jump\t// out\n        /* \"#utility.yul\":1203:1712   */\n    tag_15:\n        /* \"#utility.yul\":1272:1278   */\n      0x00\n        /* \"#utility.yul\":1321:1323   */\n      0x20\n        /* \"#utility.yul\":1309:1318   */\n      dup3\n        /* \"#utility.yul\":1300:1307   */\n      dup5\n        /* \"#utility.yul\":1296:1319   */\n      sub\n        /* \"#utility.yul\":1292:1324   */\n      slt\n        /* \"#utility.yul\":1289:1408   */\n      iszero\n      tag_108\n      jumpi\n        /* \"#utility.yul\":1327:1406   */\n      tag_109\n      tag_110\n      jump\t// in\n    tag_109:\n        /* \"#utility.yul\":1289:1408   */\n    tag_108:\n        /* \"#utility.yul\":1475:1476   */\n      0x00\n        /* \"#utility.yul\":1464:1473   */\n      dup3\n        /* \"#utility.yul\":1460:1477   */\n      add\n        /* \"#utility.yul\":1447:1478   */\n      calldataload\n        /* \"#utility.yul\":1505:1523   */\n      0xffffffffffffffff\n        /* \"#utility.yul\":1497:1503   */\n      dup2\n        /* \"#utility.yul\":1494:1524   */\n      gt\n        /* \"#utility.yul\":1491:1608   */\n      iszero\n      tag_111\n      jumpi\n        /* \"#utility.yul\":1527:1606   */\n      tag_112\n      tag_113\n      jump\t// in\n    tag_112:\n        /* \"#utility.yul\":1491:1608   */\n    tag_111:\n        /* \"#utility.yul\":1632:1695   */\n      tag_114\n        /* \"#utility.yul\":1687:1694   */\n      dup5\n        /* \"#utility.yul\":1678:1684   */\n      dup3\n        /* \"#utility.yul\":1667:1676   */\n      dup6\n        /* \"#utility.yul\":1663:1685   */\n      add\n        /* \"#utility.yul\":1632:1695   */\n      tag_92\n      jump\t// in\n    tag_114:\n        /* \"#utility.yul\":1622:1695   */\n      swap2\n      pop\n        /* \"#utility.yul\":1418:1705   */\n      pop\n        /* \"#utility.yul\":1203:1712   */\n      swap3\n      swap2\n      pop\n      pop\n      jump\t// out\n        /* \"#utility.yul\":1718:2265   */\n    tag_45:\n        /* \"#utility.yul\":1806:1812   */\n      0x00\n        /* \"#utility.yul\":1855:1857   */\n      0x20\n        /* \"#utility.yul\":1843:1852   */\n      dup3\n        /* \"#utility.yul\":1834:1841   */\n      dup5\n        /* \"#utility.yul\":1830:1853   */\n      sub\n        /* \"#utility.yul\":1826:1858   */\n      slt\n        /* \"#utility.yul\":1823:1942   */\n      iszero\n      tag_116\n      jumpi\n        /* \"#utility.yul\":1861:1940   */\n      tag_117\n      tag_110\n      jump\t// in\n    tag_117:\n        /* \"#utility.yul\":1823:1942   */\n    tag_116:\n        /* \"#utility.yul\":2009:2010   */\n      0x00\n        /* \"#utility.yul\":1998:2007   */\n      dup3\n        /* \"#utility.yul\":1994:2011   */\n      add\n        /* \"#utility.yul\":1981:2012   */\n      calldataload\n        /* \"#utility.yul\":2039:2057   */\n      0xffffffffffffffff\n        /* \"#utility.yul\":2031:2037   */\n      dup2\n        /* \"#utility.yul\":2028:2058   */\n      gt\n        /* \"#utility.yul\":2025:2142   */\n      iszero\n      tag_118\n      jumpi\n        /* \"#utility.yul\":2061:2140   */\n      tag_119\n      tag_113\n      jump\t// in\n    tag_119:\n        /* \"#utility.yul\":2025:2142   */\n    tag_118:\n        /* \"#utility.yul\":2166:2248   */\n      tag_120\n        /* \"#utility.yul\":2240:2247   */\n      dup5\n        /* \"#utility.yul\":2231:2237   */\n      dup3\n        /* \"#utility.yul\":2220:2229   */\n      dup6\n        /* \"#utility.yul\":2216:2238   */\n      add\n        /* \"#utility.yul\":2166:2248   */\n      tag_98\n      jump\t// in\n    tag_120:\n        /* \"#utility.yul\":2156:2248   */\n      swap2\n      pop\n        /* \"#utility.yul\":1952:2258   */\n      pop\n        /* \"#utility.yul\":1718:2265   */\n      swap3\n      swap2\n      pop\n      pop\n      jump\t// out\n        /* \"#utility.yul\":2271:2596   */\n    tag_30:\n        /* \"#utility.yul\":2328:2334   */\n      0x00\n        /* \"#utility.yul\":2377:2379   */\n      0x20\n        /* \"#utility.yul\":2365:2374   */\n      dup3\n        /* \"#utility.yul\":2356:2363   */\n      dup5\n        /* \"#utility.yul\":2352:2375   */\n      sub\n        /* \"#utility.yul\":2348:2380   */\n      slt\n        /* \"#utility.yul\":2345:2464   */\n      iszero\n      tag_122\n      jumpi\n        /* \"#utility.yul\":2383:2462   */\n      tag_123\n      tag_110\n      jump\t// in\n    tag_123:\n        /* \"#utility.yul\":2345:2464   */\n    tag_122:\n        /* \"#utility.yul\":2503:2504   */\n      0x00\n        /* \"#utility.yul\":2528:2579   */\n      tag_124\n        /* \"#utility.yul\":2571:2578   */\n      dup5\n        /* \"#utility.yul\":2562:2568   */\n      dup3\n        /* \"#utility.yul\":2551:2560   */\n      dup6\n        /* \"#utility.yul\":2547:2569   */\n      add\n        /* \"#utility.yul\":2528:2579   */\n      tag_103\n      jump\t// in\n    tag_124:\n        /* \"#utility.yul\":2518:2579   */\n      swap2\n      pop\n        /* \"#utility.yul\":2474:2589   */\n      pop\n        /* \"#utility.yul\":2271:2596   */\n      swap3\n      swap2\n      pop\n      pop\n      jump\t// out\n        /* \"#utility.yul\":2602:2720   */\n    tag_125:\n        /* \"#utility.yul\":2689:2713   */\n      tag_127\n        /* \"#utility.yul\":2707:2712   */\n      dup2\n        /* \"#utility.yul\":2689:2713   */\n      tag_128\n      jump\t// in\n    tag_127:\n        /* \"#utility.yul\":2684:2687   */\n      dup3\n        /* \"#utility.yul\":2677:2714   */\n      mstore\n        /* \"#utility.yul\":2602:2720   */\n      pop\n      pop\n      jump\t// out\n        /* \"#utility.yul\":2726:2835   */\n    tag_129:\n        /* \"#utility.yul\":2807:2828   */\n      tag_131\n        /* \"#utility.yul\":2822:2827   */\n      dup2\n        /* \"#utility.yul\":2807:2828   */\n      tag_132\n      jump\t// in\n    tag_131:\n        /* \"#utility.yul\":2802:2805   */\n      dup3\n        /* \"#utility.yul\":2795:2829   */\n      mstore\n        /* \"#utility.yul\":2726:2835   */\n      pop\n      pop\n      jump\t// out\n        /* \"#utility.yul\":2865:3182   */\n    tag_133:\n        /* \"#utility.yul\":2981:2984   */\n      0x00\n        /* \"#utility.yul\":3002:3091   */\n      tag_135\n        /* \"#utility.yul\":3084:3090   */\n      dup4\n        /* \"#utility.yul\":3079:3082   */\n      dup6\n        /* \"#utility.yul\":3002:3091   */\n      tag_136\n      jump\t// in\n    tag_135:\n        /* \"#utility.yul\":2995:3091   */\n      swap4\n      pop\n        /* \"#utility.yul\":3101:3144   */\n      tag_137\n        /* \"#utility.yul\":3137:3143   */\n      dup4\n        /* \"#utility.yul\":3132:3135   */\n      dup6\n        /* \"#utility.yul\":3125:3130   */\n      dup5\n        /* \"#utility.yul\":3101:3144   */\n      tag_91\n      jump\t// in\n    tag_137:\n        /* \"#utility.yul\":3169:3175   */\n      dup3\n        /* \"#utility.yul\":3164:3167   */\n      dup5\n        /* \"#utility.yul\":3160:3176   */\n      add\n        /* \"#utility.yul\":3153:3176   */\n      swap1\n      pop\n        /* \"#utility.yul\":2865:3182   */\n      swap4\n      swap3\n      pop\n      pop\n      pop\n      jump\t// out\n        /* \"#utility.yul\":3188:3554   */\n    tag_138:\n        /* \"#utility.yul\":3330:3333   */\n      0x00\n        /* \"#utility.yul\":3351:3418   */\n      tag_140\n        /* \"#utility.yul\":3415:3417   */\n      0x13\n        /* \"#utility.yul\":3410:3413   */\n      dup4\n        /* \"#utility.yul\":3351:3418   */\n      tag_141\n      jump\t// in\n    tag_140:\n        /* \"#utility.yul\":3344:3418   */\n      swap2\n      pop\n        /* \"#utility.yul\":3427:3520   */\n      tag_142\n        /* \"#utility.yul\":3516:3519   */\n      dup3\n        /* \"#utility.yul\":3427:3520   */\n      tag_143\n      jump\t// in\n    tag_142:\n        /* \"#utility.yul\":3545:3547   */\n      0x20\n        /* \"#utility.yul\":3540:3543   */\n      dup3\n        /* \"#utility.yul\":3536:3548   */\n      add\n        /* \"#utility.yul\":3529:3548   */\n      swap1\n      pop\n        /* \"#utility.yul\":3188:3554   */\n      swap2\n      swap1\n      pop\n      jump\t// out\n        /* \"#utility.yul\":3560:3926   */\n    tag_144:\n        /* \"#utility.yul\":3702:3705   */\n      0x00\n        /* \"#utility.yul\":3723:3790   */\n      tag_146\n        /* \"#utility.yul\":3787:3789   */\n      0x15\n        /* \"#utility.yul\":3782:3785   */\n      dup4\n        /* \"#utility.yul\":3723:3790   */\n      tag_141\n      jump\t// in\n    tag_146:\n        /* \"#utility.yul\":3716:3790   */\n      swap2\n      pop\n        /* \"#utility.yul\":3799:3892   */\n      tag_147\n        /* \"#utility.yul\":3888:3891   */\n      dup3\n        /* \"#utility.yul\":3799:3892   */\n      tag_148\n      jump\t// in\n    tag_147:\n        /* \"#utility.yul\":3917:3919   */\n      0x20\n        /* \"#utility.yul\":3912:3915   */\n      dup3\n        /* \"#utility.yul\":3908:3920   */\n      add\n        /* \"#utility.yul\":3901:3920   */\n      swap1\n      pop\n        /* \"#utility.yul\":3560:3926   */\n      swap2\n      swap1\n      pop\n      jump\t// out\n        /* \"#utility.yul\":3932:4298   */\n    tag_149:\n        /* \"#utility.yul\":4074:4077   */\n      0x00\n        /* \"#utility.yul\":4095:4162   */\n      tag_151\n        /* \"#utility.yul\":4159:4161   */\n      0x28\n        /* \"#utility.yul\":4154:4157   */\n      dup4\n        /* \"#utility.yul\":4095:4162   */\n      tag_141\n      jump\t// in\n    tag_151:\n        /* \"#utility.yul\":4088:4162   */\n      swap2\n      pop\n        /* \"#utility.yul\":4171:4264   */\n      tag_152\n        /* \"#utility.yul\":4260:4263   */\n      dup3\n        /* \"#utility.yul\":4171:4264   */\n      tag_153\n      jump\t// in\n    tag_152:\n        /* \"#utility.yul\":4289:4291   */\n      0x40\n        /* \"#utility.yul\":4284:4287   */\n      dup3\n        /* \"#utility.yul\":4280:4292   */\n      add\n        /* \"#utility.yul\":4273:4292   */\n      swap1\n      pop\n        /* \"#utility.yul\":3932:4298   */\n      swap2\n      swap1\n      pop\n      jump\t// out\n        /* \"#utility.yul\":4304:4670   */\n    tag_154:\n        /* \"#utility.yul\":4446:4449   */\n      0x00\n        /* \"#utility.yul\":4467:4534   */\n      tag_156\n        /* \"#utility.yul\":4531:4533   */\n      0x1c\n        /* \"#utility.yul\":4526:4529   */\n      dup4\n        /* \"#utility.yul\":4467:4534   */\n      tag_141\n      jump\t// in\n    tag_156:\n        /* \"#utility.yul\":4460:4534   */\n      swap2\n      pop\n        /* \"#utility.yul\":4543:4636   */\n      tag_157\n        /* \"#utility.yul\":4632:4635   */\n      dup3\n        /* \"#utility.yul\":4543:4636   */\n      tag_158\n      jump\t// in\n    tag_157:\n        /* \"#utility.yul\":4661:4663   */\n      0x20\n        /* \"#utility.yul\":4656:4659   */\n      dup3\n        /* \"#utility.yul\":4652:4664   */\n      add\n        /* \"#utility.yul\":4645:4664   */\n      swap1\n      pop\n        /* \"#utility.yul\":4304:4670   */\n      swap2\n      swap1\n      pop\n      jump\t// out\n        /* \"#utility.yul\":4676:4788   */\n    tag_159:\n        /* \"#utility.yul\":4759:4781   */\n      tag_161\n        /* \"#utility.yul\":4775:4780   */\n      dup2\n        /* \"#utility.yul\":4759:4781   */\n      tag_162\n      jump\t// in\n    tag_161:\n        /* \"#utility.yul\":4754:4757   */\n      dup3\n        /* \"#utility.yul\":4747:4782   */\n      mstore\n        /* \"#utility.yul\":4676:4788   */\n      pop\n      pop\n      jump\t// out\n        /* \"#utility.yul\":4794:5089   */\n    tag_66:\n        /* \"#utility.yul\":4936:4939   */\n      0x00\n        /* \"#utility.yul\":4958:5063   */\n      tag_164\n        /* \"#utility.yul\":5059:5062   */\n      dup3\n        /* \"#utility.yul\":5050:5056   */\n      dup5\n        /* \"#utility.yul\":5042:5048   */\n      dup7\n        /* \"#utility.yul\":4958:5063   */\n      tag_133\n      jump\t// in\n    tag_164:\n        /* \"#utility.yul\":4951:5063   */\n      swap2\n      pop\n        /* \"#utility.yul\":5080:5083   */\n      dup2\n        /* \"#utility.yul\":5073:5083   */\n      swap1\n      pop\n        /* \"#utility.yul\":4794:5089   */\n      swap4\n      swap3\n      pop\n      pop\n      pop\n      jump\t// out\n        /* \"#utility.yul\":5095:5317   */\n    tag_36:\n        /* \"#utility.yul\":5188:5192   */\n      0x00\n        /* \"#utility.yul\":5226:5228   */\n      0x20\n        /* \"#utility.yul\":5215:5224   */\n      dup3\n        /* \"#utility.yul\":5211:5229   */\n      add\n        /* \"#utility.yul\":5203:5229   */\n      swap1\n      pop\n        /* \"#utility.yul\":5239:5310   */\n      tag_166\n        /* \"#utility.yul\":5307:5308   */\n      0x00\n        /* \"#utility.yul\":5296:5305   */\n      dup4\n        /* \"#utility.yul\":5292:5309   */\n      add\n        /* \"#utility.yul\":5283:5289   */\n      dup5\n        /* \"#utility.yul\":5239:5310   */\n      tag_125\n      jump\t// in\n    tag_166:\n        /* \"#utility.yul\":5095:5317   */\n      swap3\n      swap2\n      pop\n      pop\n      jump\t// out\n        /* \"#utility.yul\":5323:5533   */\n    tag_18:\n        /* \"#utility.yul\":5410:5414   */\n      0x00\n        /* \"#utility.yul\":5448:5450   */\n      0x20\n        /* \"#utility.yul\":5437:5446   */\n      dup3\n        /* \"#utility.yul\":5433:5451   */\n      add\n        /* \"#utility.yul\":5425:5451   */\n      swap1\n      pop\n        /* \"#utility.yul\":5461:5526   */\n      tag_168\n        /* \"#utility.yul\":5523:5524   */\n      0x00\n        /* \"#utility.yul\":5512:5521   */\n      dup4\n        /* \"#utility.yul\":5508:5525   */\n      add\n        /* \"#utility.yul\":5499:5505   */\n      dup5\n        /* \"#utility.yul\":5461:5526   */\n      tag_129\n      jump\t// in\n    tag_168:\n        /* \"#utility.yul\":5323:5533   */\n      swap3\n      swap2\n      pop\n      pop\n      jump\t// out\n        /* \"#utility.yul\":5539:5958   */\n    tag_50:\n        /* \"#utility.yul\":5705:5709   */\n      0x00\n        /* \"#utility.yul\":5743:5745   */\n      0x20\n        /* \"#utility.yul\":5732:5741   */\n      dup3\n        /* \"#utility.yul\":5728:5746   */\n      add\n        /* \"#utility.yul\":5720:5746   */\n      swap1\n      pop\n        /* \"#utility.yul\":5792:5801   */\n      dup2\n        /* \"#utility.yul\":5786:5790   */\n      dup2\n        /* \"#utility.yul\":5782:5802   */\n      sub\n        /* \"#utility.yul\":5778:5779   */\n      0x00\n        /* \"#utility.yul\":5767:5776   */\n      dup4\n        /* \"#utility.yul\":5763:5780   */\n      add\n        /* \"#utility.yul\":5756:5803   */\n      mstore\n        /* \"#utility.yul\":5820:5951   */\n      tag_170\n        /* \"#utility.yul\":5946:5950   */\n      dup2\n        /* \"#utility.yul\":5820:5951   */\n      tag_138\n      jump\t// in\n    tag_170:\n        /* \"#utility.yul\":5812:5951   */\n      swap1\n      pop\n        /* \"#utility.yul\":5539:5958   */\n      swap2\n      swap1\n      pop\n      jump\t// out\n        /* \"#utility.yul\":5964:6383   */\n    tag_72:\n        /* \"#utility.yul\":6130:6134   */\n      0x00\n        /* \"#utility.yul\":6168:6170   */\n      0x20\n        /* \"#utility.yul\":6157:6166   */\n      dup3\n        /* \"#utility.yul\":6153:6171   */\n      add\n        /* \"#utility.yul\":6145:6171   */\n      swap1\n      pop\n        /* \"#utility.yul\":6217:6226   */\n      dup2\n        /* \"#utility.yul\":6211:6215   */\n      dup2\n        /* \"#utility.yul\":6207:6227   */\n      sub\n        /* \"#utility.yul\":6203:6204   */\n      0x00\n        /* \"#utility.yul\":6192:6201   */\n      dup4\n        /* \"#utility.yul\":6188:6205   */\n      add\n        /* \"#utility.yul\":6181:6228   */\n      mstore\n        /* \"#utility.yul\":6245:6376   */\n      tag_172\n        /* \"#utility.yul\":6371:6375   */\n      dup2\n        /* \"#utility.yul\":6245:6376   */\n      tag_144\n      jump\t// in\n    tag_172:\n        /* \"#utility.yul\":6237:6376   */\n      swap1\n      pop\n        /* \"#utility.yul\":5964:6383   */\n      swap2\n      swap1\n      pop\n      jump\t// out\n        /* \"#utility.yul\":6389:6808   */\n    tag_69:\n        /* \"#utility.yul\":6555:6559   */\n      0x00\n        /* \"#utility.yul\":6593:6595   */\n      0x20\n        /* \"#utility.yul\":6582:6591   */\n      dup3\n        /* \"#utility.yul\":6578:6596   */\n      add\n        /* \"#utility.yul\":6570:6596   */\n      swap1\n      pop\n        /* \"#utility.yul\":6642:6651   */\n      dup2\n        /* \"#utility.yul\":6636:6640   */\n      dup2\n        /* \"#utility.yul\":6632:6652   */\n      sub\n        /* \"#utility.yul\":6628:6629   */\n      0x00\n        /* \"#utility.yul\":6617:6626   */\n      dup4\n        /* \"#utility.yul\":6613:6630   */\n      add\n        /* \"#utility.yul\":6606:6653   */\n      mstore\n        /* \"#utility.yul\":6670:6801   */\n      tag_174\n        /* \"#utility.yul\":6796:6800   */\n      dup2\n        /* \"#utility.yul\":6670:6801   */\n      tag_149\n      jump\t// in\n    tag_174:\n        /* \"#utility.yul\":6662:6801   */\n      swap1\n      pop\n        /* \"#utility.yul\":6389:6808   */\n      swap2\n      swap1\n      pop\n      jump\t// out\n        /* \"#utility.yul\":6814:7233   */\n    tag_62:\n        /* \"#utility.yul\":6980:6984   */\n      0x00\n        /* \"#utility.yul\":7018:7020   */\n      0x20\n        /* \"#utility.yul\":7007:7016   */\n      dup3\n        /* \"#utility.yul\":7003:7021   */\n      add\n        /* \"#utility.yul\":6995:7021   */\n      swap1\n      pop\n        /* \"#utility.yul\":7067:7076   */\n      dup2\n        /* \"#utility.yul\":7061:7065   */\n      dup2\n        /* \"#utility.yul\":7057:7077   */\n      sub\n        /* \"#utility.yul\":7053:7054   */\n      0x00\n        /* \"#utility.yul\":7042:7051   */\n      dup4\n        /* \"#utility.yul\":7038:7055   */\n      add\n        /* \"#utility.yul\":7031:7078   */\n      mstore\n        /* \"#utility.yul\":7095:7226   */\n      tag_176\n        /* \"#utility.yul\":7221:7225   */\n      dup2\n        /* \"#utility.yul\":7095:7226   */\n      tag_154\n      jump\t// in\n    tag_176:\n        /* \"#utility.yul\":7087:7226   */\n      swap1\n      pop\n        /* \"#utility.yul\":6814:7233   */\n      swap2\n      swap1\n      pop\n      jump\t// out\n        /* \"#utility.yul\":7239:7453   */\n    tag_22:\n        /* \"#utility.yul\":7328:7332   */\n      0x00\n        /* \"#utility.yul\":7366:7368   */\n      0x20\n        /* \"#utility.yul\":7355:7364   */\n      dup3\n        /* \"#utility.yul\":7351:7369   */\n      add\n        /* \"#utility.yul\":7343:7369   */\n      swap1\n      pop\n        /* \"#utility.yul\":7379:7446   */\n      tag_178\n        /* \"#utility.yul\":7443:7444   */\n      0x00\n        /* \"#utility.yul\":7432:7441   */\n      dup4\n        /* \"#utility.yul\":7428:7445   */\n      add\n        /* \"#utility.yul\":7419:7425   */\n      dup5\n        /* \"#utility.yul\":7379:7446   */\n      tag_159\n      jump\t// in\n    tag_178:\n        /* \"#utility.yul\":7239:7453   */\n      swap3\n      swap2\n      pop\n      pop\n      jump\t// out\n        /* \"#utility.yul\":7459:8184   */\n    tag_64:\n        /* \"#utility.yul\":7537:7541   */\n      0x00\n        /* \"#utility.yul\":7543:7549   */\n      dup1\n        /* \"#utility.yul\":7599:7610   */\n      dup4\n        /* \"#utility.yul\":7586:7611   */\n      calldataload\n        /* \"#utility.yul\":7699:7700   */\n      0x01\n        /* \"#utility.yul\":7693:7697   */\n      0x20\n        /* \"#utility.yul\":7689:7701   */\n      sub\n        /* \"#utility.yul\":7678:7686   */\n      dup5\n        /* \"#utility.yul\":7662:7676   */\n      calldatasize\n        /* \"#utility.yul\":7658:7687   */\n      sub\n        /* \"#utility.yul\":7654:7702   */\n      sub\n        /* \"#utility.yul\":7634:7652   */\n      dup2\n        /* \"#utility.yul\":7630:7703   */\n      slt\n        /* \"#utility.yul\":7620:7788   */\n      tag_180\n      jumpi\n        /* \"#utility.yul\":7707:7786   */\n      tag_181\n      tag_182\n      jump\t// in\n    tag_181:\n        /* \"#utility.yul\":7620:7788   */\n    tag_180:\n        /* \"#utility.yul\":7819:7837   */\n      dup1\n        /* \"#utility.yul\":7809:7817   */\n      dup5\n        /* \"#utility.yul\":7805:7838   */\n      add\n        /* \"#utility.yul\":7797:7838   */\n      swap3\n      pop\n        /* \"#utility.yul\":7871:7875   */\n      dup3\n        /* \"#utility.yul\":7858:7876   */\n      calldataload\n        /* \"#utility.yul\":7848:7876   */\n      swap2\n      pop\n        /* \"#utility.yul\":7899:7917   */\n      0xffffffffffffffff\n        /* \"#utility.yul\":7891:7897   */\n      dup3\n        /* \"#utility.yul\":7888:7918   */\n      gt\n        /* \"#utility.yul\":7885:8002   */\n      iszero\n      tag_183\n      jumpi\n        /* \"#utility.yul\":7921:8000   */\n      tag_184\n      tag_185\n      jump\t// in\n    tag_184:\n        /* \"#utility.yul\":7885:8002   */\n    tag_183:\n        /* \"#utility.yul\":8029:8031   */\n      0x20\n        /* \"#utility.yul\":8023:8027   */\n      dup4\n        /* \"#utility.yul\":8019:8032   */\n      add\n        /* \"#utility.yul\":8011:8032   */\n      swap3\n      pop\n        /* \"#utility.yul\":8086:8090   */\n      0x01\n        /* \"#utility.yul\":8078:8084   */\n      dup3\n        /* \"#utility.yul\":8074:8091   */\n      mul\n        /* \"#utility.yul\":8058:8072   */\n      calldatasize\n        /* \"#utility.yul\":8054:8092   */\n      sub\n        /* \"#utility.yul\":8048:8052   */\n      dup4\n        /* \"#utility.yul\":8044:8093   */\n      sgt\n        /* \"#utility.yul\":8041:8177   */\n      iszero\n      tag_186\n      jumpi\n        /* \"#utility.yul\":8096:8175   */\n      tag_187\n      tag_188\n      jump\t// in\n    tag_187:\n        /* \"#utility.yul\":8041:8177   */\n    tag_186:\n        /* \"#utility.yul\":7550:8184   */\n      pop\n        /* \"#utility.yul\":7459:8184   */\n      swap3\n      pop\n      swap3\n      swap1\n      pop\n      jump\t// out\n        /* \"#utility.yul\":8190:8319   */\n    tag_86:\n        /* \"#utility.yul\":8224:8230   */\n      0x00\n        /* \"#utility.yul\":8251:8271   */\n      tag_190\n      tag_191\n      jump\t// in\n    tag_190:\n        /* \"#utility.yul\":8241:8271   */\n      swap1\n      pop\n        /* \"#utility.yul\":8280:8313   */\n      tag_192\n        /* \"#utility.yul\":8308:8312   */\n      dup3\n        /* \"#utility.yul\":8300:8306   */\n      dup3\n        /* \"#utility.yul\":8280:8313   */\n      tag_193\n      jump\t// in\n    tag_192:\n        /* \"#utility.yul\":8190:8319   */\n      swap2\n      swap1\n      pop\n      jump\t// out\n        /* \"#utility.yul\":8325:8400   */\n    tag_191:\n        /* \"#utility.yul\":8358:8364   */\n      0x00\n        /* \"#utility.yul\":8391:8393   */\n      0x40\n        /* \"#utility.yul\":8385:8394   */\n      mload\n        /* \"#utility.yul\":8375:8394   */\n      swap1\n      pop\n        /* \"#utility.yul\":8325:8400   */\n      swap1\n      jump\t// out\n        /* \"#utility.yul\":8406:8714   */\n    tag_85:\n        /* \"#utility.yul\":8468:8472   */\n      0x00\n        /* \"#utility.yul\":8558:8576   */\n      0xffffffffffffffff\n        /* \"#utility.yul\":8550:8556   */\n      dup3\n        /* \"#utility.yul\":8547:8577   */\n      gt\n        /* \"#utility.yul\":8544:8600   */\n      iszero\n      tag_196\n      jumpi\n        /* \"#utility.yul\":8580:8598   */\n      tag_197\n      tag_198\n      jump\t// in\n    tag_197:\n        /* \"#utility.yul\":8544:8600   */\n    tag_196:\n        /* \"#utility.yul\":8618:8647   */\n      tag_199\n        /* \"#utility.yul\":8640:8646   */\n      dup3\n        /* \"#utility.yul\":8618:8647   */\n      tag_200\n      jump\t// in\n    tag_199:\n        /* \"#utility.yul\":8610:8647   */\n      swap1\n      pop\n        /* \"#utility.yul\":8702:8706   */\n      0x20\n        /* \"#utility.yul\":8696:8700   */\n      dup2\n        /* \"#utility.yul\":8692:8707   */\n      add\n        /* \"#utility.yul\":8684:8707   */\n      swap1\n      pop\n        /* \"#utility.yul\":8406:8714   */\n      swap2\n      swap1\n      pop\n      jump\t// out\n        /* \"#utility.yul\":8720:8889   */\n    tag_141:\n        /* \"#utility.yul\":8804:8815   */\n      0x00\n        /* \"#utility.yul\":8838:8844   */\n      dup3\n        /* \"#utility.yul\":8833:8836   */\n      dup3\n        /* \"#utility.yul\":8826:8845   */\n      mstore\n        /* \"#utility.yul\":8878:8882   */\n      0x20\n        /* \"#utility.yul\":8873:8876   */\n      dup3\n        /* \"#utility.yul\":8869:8883   */\n      add\n        /* \"#utility.yul\":8854:8883   */\n      swap1\n      pop\n        /* \"#utility.yul\":8720:8889   */\n      swap3\n      swap2\n      pop\n      pop\n      jump\t// out\n        /* \"#utility.yul\":8895:9043   */\n    tag_136:\n        /* \"#utility.yul\":8997:9008   */\n      0x00\n        /* \"#utility.yul\":9034:9037   */\n      dup2\n        /* \"#utility.yul\":9019:9037   */\n      swap1\n      pop\n        /* \"#utility.yul\":8895:9043   */\n      swap3\n      swap2\n      pop\n      pop\n      jump\t// out\n        /* \"#utility.yul\":9049:9286   */\n    tag_79:\n        /* \"#utility.yul\":9087:9090   */\n      0x00\n        /* \"#utility.yul\":9106:9124   */\n      tag_204\n        /* \"#utility.yul\":9122:9123   */\n      dup3\n        /* \"#utility.yul\":9106:9124   */\n      tag_162\n      jump\t// in\n    tag_204:\n        /* \"#utility.yul\":9101:9124   */\n      swap2\n      pop\n        /* \"#utility.yul\":9138:9156   */\n      tag_205\n        /* \"#utility.yul\":9154:9155   */\n      dup4\n        /* \"#utility.yul\":9138:9156   */\n      tag_162\n      jump\t// in\n    tag_205:\n        /* \"#utility.yul\":9133:9156   */\n      swap3\n      pop\n        /* \"#utility.yul\":9228:9229   */\n      dup3\n        /* \"#utility.yul\":9222:9226   */\n      0xff\n        /* \"#utility.yul\":9218:9230   */\n      sub\n        /* \"#utility.yul\":9215:9216   */\n      dup3\n        /* \"#utility.yul\":9212:9231   */\n      gt\n        /* \"#utility.yul\":9209:9254   */\n      iszero\n      tag_206\n      jumpi\n        /* \"#utility.yul\":9234:9252   */\n      tag_207\n      tag_208\n      jump\t// in\n    tag_207:\n        /* \"#utility.yul\":9209:9254   */\n    tag_206:\n        /* \"#utility.yul\":9278:9279   */\n      dup3\n        /* \"#utility.yul\":9275:9276   */\n      dup3\n        /* \"#utility.yul\":9271:9280   */\n      add\n        /* \"#utility.yul\":9264:9280   */\n      swap1\n      pop\n        /* \"#utility.yul\":9049:9286   */\n      swap3\n      swap2\n      pop\n      pop\n      jump\t// out\n        /* \"#utility.yul\":9292:9388   */\n    tag_128:\n        /* \"#utility.yul\":9329:9336   */\n      0x00\n        /* \"#utility.yul\":9358:9382   */\n      tag_210\n        /* \"#utility.yul\":9376:9381   */\n      dup3\n        /* \"#utility.yul\":9358:9382   */\n      tag_211\n      jump\t// in\n    tag_210:\n        /* \"#utility.yul\":9347:9382   */\n      swap1\n      pop\n        /* \"#utility.yul\":9292:9388   */\n      swap2\n      swap1\n      pop\n      jump\t// out\n        /* \"#utility.yul\":9394:9484   */\n    tag_132:\n        /* \"#utility.yul\":9428:9435   */\n      0x00\n        /* \"#utility.yul\":9471:9476   */\n      dup2\n        /* \"#utility.yul\":9464:9477   */\n      iszero\n        /* \"#utility.yul\":9457:9478   */\n      iszero\n        /* \"#utility.yul\":9446:9478   */\n      swap1\n      pop\n        /* \"#utility.yul\":9394:9484   */\n      swap2\n      swap1\n      pop\n      jump\t// out\n        /* \"#utility.yul\":9490:9616   */\n    tag_211:\n        /* \"#utility.yul\":9527:9534   */\n      0x00\n        /* \"#utility.yul\":9567:9609   */\n      0xffffffffffffffffffffffffffffffffffffffff\n        /* \"#utility.yul\":9560:9565   */\n      dup3\n        /* \"#utility.yul\":9556:9610   */\n      and\n        /* \"#utility.yul\":9545:9610   */\n      swap1\n      pop\n        /* \"#utility.yul\":9490:9616   */\n      swap2\n      swap1\n      pop\n      jump\t// out\n        /* \"#utility.yul\":9622:9708   */\n    tag_162:\n        /* \"#utility.yul\":9657:9664   */\n      0x00\n        /* \"#utility.yul\":9697:9701   */\n      0xff\n        /* \"#utility.yul\":9690:9695   */\n      dup3\n        /* \"#utility.yul\":9686:9702   */\n      and\n        /* \"#utility.yul\":9675:9702   */\n      swap1\n      pop\n        /* \"#utility.yul\":9622:9708   */\n      swap2\n      swap1\n      pop\n      jump\t// out\n        /* \"#utility.yul\":9714:9868   */\n    tag_91:\n        /* \"#utility.yul\":9798:9804   */\n      dup3\n        /* \"#utility.yul\":9793:9796   */\n      dup2\n        /* \"#utility.yul\":9788:9791   */\n      dup4\n        /* \"#utility.yul\":9775:9805   */\n      calldatacopy\n        /* \"#utility.yul\":9860:9861   */\n      0x00\n        /* \"#utility.yul\":9851:9857   */\n      dup4\n        /* \"#utility.yul\":9846:9849   */\n      dup4\n        /* \"#utility.yul\":9842:9858   */\n      add\n        /* \"#utility.yul\":9835:9862   */\n      mstore\n        /* \"#utility.yul\":9714:9868   */\n      pop\n      pop\n      pop\n      jump\t// out\n        /* \"#utility.yul\":9874:10155   */\n    tag_193:\n        /* \"#utility.yul\":9957:9984   */\n      tag_217\n        /* \"#utility.yul\":9979:9983   */\n      dup3\n        /* \"#utility.yul\":9957:9984   */\n      tag_200\n      jump\t// in\n    tag_217:\n        /* \"#utility.yul\":9949:9955   */\n      dup2\n        /* \"#utility.yul\":9945:9985   */\n      add\n        /* \"#utility.yul\":10087:10093   */\n      dup2\n        /* \"#utility.yul\":10075:10085   */\n      dup2\n        /* \"#utility.yul\":10072:10094   */\n      lt\n        /* \"#utility.yul\":10051:10069   */\n      0xffffffffffffffff\n        /* \"#utility.yul\":10039:10049   */\n      dup3\n        /* \"#utility.yul\":10036:10070   */\n      gt\n        /* \"#utility.yul\":10033:10095   */\n      or\n        /* \"#utility.yul\":10030:10118   */\n      iszero\n      tag_218\n      jumpi\n        /* \"#utility.yul\":10098:10116   */\n      tag_219\n      tag_198\n      jump\t// in\n    tag_219:\n        /* \"#utility.yul\":10030:10118   */\n    tag_218:\n        /* \"#utility.yul\":10138:10148   */\n      dup1\n        /* \"#utility.yul\":10134:10136   */\n      0x40\n        /* \"#utility.yul\":10127:10149   */\n      mstore\n        /* \"#utility.yul\":9917:10155   */\n      pop\n        /* \"#utility.yul\":9874:10155   */\n      pop\n      pop\n      jump\t// out\n        /* \"#utility.yul\":10161:10341   */\n    tag_208:\n        /* \"#utility.yul\":10209:10286   */\n      0x4e487b7100000000000000000000000000000000000000000000000000000000\n        /* \"#utility.yul\":10206:10207   */\n      0x00\n        /* \"#utility.yul\":10199:10287   */\n      mstore\n        /* \"#utility.yul\":10306:10310   */\n      0x11\n        /* \"#utility.yul\":10303:10304   */\n      0x04\n        /* \"#utility.yul\":10296:10311   */\n      mstore\n        /* \"#utility.yul\":10330:10334   */\n      0x24\n        /* \"#utility.yul\":10327:10328   */\n      0x00\n        /* \"#utility.yul\":10320:10335   */\n      revert\n        /* \"#utility.yul\":10347:10527   */\n    tag_198:\n        /* \"#utility.yul\":10395:10472   */\n      0x4e487b7100000000000000000000000000000000000000000000000000000000\n        /* \"#utility.yul\":10392:10393   */\n      0x00\n        /* \"#utility.yul\":10385:10473   */\n      mstore\n        /* \"#utility.yul\":10492:10496   */\n      0x41\n        /* \"#utility.yul\":10489:10490   */\n      0x04\n        /* \"#utility.yul\":10482:10497   */\n      mstore\n        /* \"#utility.yul\":10516:10520   */\n      0x24\n        /* \"#utility.yul\":10513:10514   */\n      0x00\n        /* \"#utility.yul\":10506:10521   */\n      revert\n        /* \"#utility.yul\":10533:10650   */\n    tag_96:\n        /* \"#utility.yul\":10642:10643   */\n      0x00\n        /* \"#utility.yul\":10639:10640   */\n      dup1\n        /* \"#utility.yul\":10632:10644   */\n      revert\n        /* \"#utility.yul\":10656:10773   */\n    tag_185:\n        /* \"#utility.yul\":10765:10766   */\n      0x00\n        /* \"#utility.yul\":10762:10763   */\n      dup1\n        /* \"#utility.yul\":10755:10767   */\n      revert\n        /* \"#utility.yul\":10779:10896   */\n    tag_102:\n        /* \"#utility.yul\":10888:10889   */\n      0x00\n        /* \"#utility.yul\":10885:10886   */\n      dup1\n        /* \"#utility.yul\":10878:10890   */\n      revert\n        /* \"#utility.yul\":10902:11019   */\n    tag_182:\n        /* \"#utility.yul\":11011:11012   */\n      0x00\n        /* \"#utility.yul\":11008:11009   */\n      dup1\n        /* \"#utility.yul\":11001:11013   */\n      revert\n        /* \"#utility.yul\":11025:11142   */\n    tag_188:\n        /* \"#utility.yul\":11134:11135   */\n      0x00\n        /* \"#utility.yul\":11131:11132   */\n      dup1\n        /* \"#utility.yul\":11124:11136   */\n      revert\n        /* \"#utility.yul\":11148:11265   */\n    tag_89:\n        /* \"#utility.yul\":11257:11258   */\n      0x00\n        /* \"#utility.yul\":11254:11255   */\n      dup1\n        /* \"#utility.yul\":11247:11259   */\n      revert\n        /* \"#utility.yul\":11271:11388   */\n    tag_113:\n        /* \"#utility.yul\":11380:11381   */\n      0x00\n        /* \"#utility.yul\":11377:11378   */\n      dup1\n        /* \"#utility.yul\":11370:11382   */\n      revert\n        /* \"#utility.yul\":11394:11511   */\n    tag_110:\n        /* \"#utility.yul\":11503:11504   */\n      0x00\n        /* \"#utility.yul\":11500:11501   */\n      dup1\n        /* \"#utility.yul\":11493:11505   */\n      revert\n        /* \"#utility.yul\":11517:11619   */\n    tag_200:\n        /* \"#utility.yul\":11558:11564   */\n      0x00\n        /* \"#utility.yul\":11609:11611   */\n      0x1f\n        /* \"#utility.yul\":11605:11612   */\n      not\n        /* \"#utility.yul\":11600:11602   */\n      0x1f\n        /* \"#utility.yul\":11593:11598   */\n      dup4\n        /* \"#utility.yul\":11589:11603   */\n      add\n        /* \"#utility.yul\":11585:11613   */\n      and\n        /* \"#utility.yul\":11575:11613   */\n      swap1\n      pop\n        /* \"#utility.yul\":11517:11619   */\n      swap2\n      swap1\n      pop\n      jump\t// out\n        /* \"#utility.yul\":11625:11794   */\n    tag_143:\n        /* \"#utility.yul\":11765:11786   */\n      0x456c656374696f6e2068617320656e6465642100000000000000000000000000\n        /* \"#utility.yul\":11761:11762   */\n      0x00\n        /* \"#utility.yul\":11753:11759   */\n      dup3\n        /* \"#utility.yul\":11749:11763   */\n      add\n        /* \"#utility.yul\":11742:11787   */\n      mstore\n        /* \"#utility.yul\":11625:11794   */\n      pop\n      jump\t// out\n        /* \"#utility.yul\":11800:11971   */\n    tag_148:\n        /* \"#utility.yul\":11940:11963   */\n      0x54686572652063616e6e6f742062652061207469650000000000000000000000\n        /* \"#utility.yul\":11936:11937   */\n      0x00\n        /* \"#utility.yul\":11928:11934   */\n      dup3\n        /* \"#utility.yul\":11924:11938   */\n      add\n        /* \"#utility.yul\":11917:11964   */\n      mstore\n        /* \"#utility.yul\":11800:11971   */\n      pop\n      jump\t// out\n        /* \"#utility.yul\":11977:12204   */\n    tag_153:\n        /* \"#utility.yul\":12117:12151   */\n      0x546869732073746174652068617320616c7265616479207375626d6974656420\n        /* \"#utility.yul\":12113:12114   */\n      0x00\n        /* \"#utility.yul\":12105:12111   */\n      dup3\n        /* \"#utility.yul\":12101:12115   */\n      add\n        /* \"#utility.yul\":12094:12152   */\n      mstore\n        /* \"#utility.yul\":12186:12196   */\n      0x726573756c747321000000000000000000000000000000000000000000000000\n        /* \"#utility.yul\":12181:12183   */\n      0x20\n        /* \"#utility.yul\":12173:12179   */\n      dup3\n        /* \"#utility.yul\":12169:12184   */\n      add\n        /* \"#utility.yul\":12162:12197   */\n      mstore\n        /* \"#utility.yul\":11977:12204   */\n      pop\n      jump\t// out\n        /* \"#utility.yul\":12210:12388   */\n    tag_158:\n        /* \"#utility.yul\":12350:12380   */\n      0x53746174652073656574732063616e6e6f7420626520656d7074792100000000\n        /* \"#utility.yul\":12346:12347   */\n      0x00\n        /* \"#utility.yul\":12338:12344   */\n      dup3\n        /* \"#utility.yul\":12334:12348   */\n      add\n        /* \"#utility.yul\":12327:12381   */\n      mstore\n        /* \"#utility.yul\":12210:12388   */\n      pop\n      jump\t// out\n        /* \"#utility.yul\":12394:12512   */\n    tag_106:\n        /* \"#utility.yul\":12465:12487   */\n      tag_236\n        /* \"#utility.yul\":12481:12486   */\n      dup2\n        /* \"#utility.yul\":12465:12487   */\n      tag_162\n      jump\t// in\n    tag_236:\n        /* \"#utility.yul\":12458:12463   */\n      dup2\n        /* \"#utility.yul\":12455:12488   */\n      eq\n        /* \"#utility.yul\":12445:12506   */\n      tag_237\n      jumpi\n        /* \"#utility.yul\":12502:12503   */\n      0x00\n        /* \"#utility.yul\":12499:12500   */\n      dup1\n        /* \"#utility.yul\":12492:12504   */\n      revert\n        /* \"#utility.yul\":12445:12506   */\n    tag_237:\n        /* \"#utility.yul\":12394:12512   */\n      pop\n      jump\t// out\n\n    auxdata: 0xa26469706673582212206d0596dd86c88a9410dee04eaa5f8ac10041fd809987ef5b8acaa836cd6c736664736f6c63430008070033\n}\n",
				"bytecode": {
					"linkReferences": {},
					"object": "608060405234801561001057600080fd5b50336000806101000a81548173ffffffffffffffffffffffffffffffffffffffff021916908373ffffffffffffffffffffffffffffffffffffffff160217905550610bd4806100606000396000f3fe608060405234801561001057600080fd5b50600436106100935760003560e01c8063713d87c511610066578063713d87c51461010e5780638da5cb5b1461013e578063ac4bd53a1461015c578063c94ca9e31461017a578063e494a8831461019857610093565b80632d674216146100985780632d78d8e5146100c857806359f78468146100e657806369b36bd4146100f0575b600080fd5b6100b260048036038101906100ad9190610608565b6101b4565b6040516100bf91906107d9565b60405180910390f35b6100d06101ea565b6040516100dd9190610874565b60405180910390f35b6100ee6101ef565b005b6100f861025c565b6040516101059190610874565b60405180910390f35b6101286004803603810190610123919061069a565b610261565b6040516101359190610874565b60405180910390f35b610146610281565b60405161015391906107be565b60405180910390f35b6101646102a5565b6040516101719190610874565b60405180910390f35b61018261031c565b60405161018f91906107d9565b60405180910390f35b6101b260048036038101906101ad9190610651565b61032f565b005b6002818051602081018201805184825260208301602085012081835280955050505050506000915054906101000a900460ff1681565b600281565b600060149054906101000a900460ff161561023f576040517f08c379a0000000000000000000000000000000000000000000000000000000008152600401610236906107f4565b60405180910390fd5b6001600060146101000a81548160ff021916908315150217905550565b600181565b60016020528060005260406000206000915054906101000a900460ff1681565b60008054906101000a900473ffffffffffffffffffffffffffffffffffffffff1681565b60008060016000600160ff1660ff16815260200190815260200160002060009054906101000a900460ff1660ff169050600060016000600260ff1660ff16815260200190815260200160002060009054906101000a900460ff1660ff169050808211610312576002610315565b60015b9250505090565b600060149054906101000a900460ff1681565b600060149054906101000a900460ff161561037f576040517f08c379a0000000000000000000000000000000000000000000000000000000008152600401610376906107f4565b60405180910390fd5b6000816060016020810190610394919061069a565b60ff16116103d7576040517f08c379a00000000000000000000000000000000000000000000000000000000081526004016103ce90610854565b60405180910390fd5b60028180600001906103e9919061088f565b6040516103f79291906107a5565b908152602001604051809103902060009054906101000a900460ff16610452576040517f08c379a000000000000000000000000000000000000000000000000000000000815260040161044990610834565b60405180910390fd5b80604001358160200135141561049d576040517f08c379a000000000000000000000000000000000000000000000000000000000815260040161049490610814565b60405180910390fd5b600160028280600001906104b1919061088f565b6040516104bf9291906107a5565b908152602001604051809103902060006101000a81548160ff021916908315150217905550600081602001358260400135116104fc5760016104ff565b60025b9050816060016020810190610514919061069a565b600160008360ff1660ff16815260200190815260200160002060008282829054906101000a900460ff166105489190610964565b92506101000a81548160ff021916908360ff1602179055505050565b600061057761057284610917565b6108f2565b90508281526020810184848401111561059357610592610a9d565b5b61059e8482856109e6565b509392505050565b600082601f8301126105bb576105ba610a84565b5b81356105cb848260208601610564565b91505092915050565b6000608082840312156105ea576105e9610a8e565b5b81905092915050565b60008135905061060281610b87565b92915050565b60006020828403121561061e5761061d610aa7565b5b600082013567ffffffffffffffff81111561063c5761063b610aa2565b5b610648848285016105a6565b91505092915050565b60006020828403121561066757610666610aa7565b5b600082013567ffffffffffffffff81111561068557610684610aa2565b5b610691848285016105d4565b91505092915050565b6000602082840312156106b0576106af610aa7565b5b60006106be848285016105f3565b91505092915050565b6106d08161099b565b82525050565b6106df816109ad565b82525050565b60006106f18385610959565b93506106fe8385846109e6565b82840190509392505050565b6000610717601383610948565b915061072282610abd565b602082019050919050565b600061073a601583610948565b915061074582610ae6565b602082019050919050565b600061075d602883610948565b915061076882610b0f565b604082019050919050565b6000610780601c83610948565b915061078b82610b5e565b602082019050919050565b61079f816109d9565b82525050565b60006107b28284866106e5565b91508190509392505050565b60006020820190506107d360008301846106c7565b92915050565b60006020820190506107ee60008301846106d6565b92915050565b6000602082019050818103600083015261080d8161070a565b9050919050565b6000602082019050818103600083015261082d8161072d565b9050919050565b6000602082019050818103600083015261084d81610750565b9050919050565b6000602082019050818103600083015261086d81610773565b9050919050565b60006020820190506108896000830184610796565b92915050565b600080833560016020038436030381126108ac576108ab610a93565b5b80840192508235915067ffffffffffffffff8211156108ce576108cd610a89565b5b6020830192506001820236038313156108ea576108e9610a98565b5b509250929050565b60006108fc61090d565b905061090882826109f5565b919050565b6000604051905090565b600067ffffffffffffffff82111561093257610931610a55565b5b61093b82610aac565b9050602081019050919050565b600082825260208201905092915050565b600081905092915050565b600061096f826109d9565b915061097a836109d9565b92508260ff038211156109905761098f610a26565b5b828201905092915050565b60006109a6826109b9565b9050919050565b60008115159050919050565b600073ffffffffffffffffffffffffffffffffffffffff82169050919050565b600060ff82169050919050565b82818337600083830152505050565b6109fe82610aac565b810181811067ffffffffffffffff82111715610a1d57610a1c610a55565b5b80604052505050565b7f4e487b7100000000000000000000000000000000000000000000000000000000600052601160045260246000fd5b7f4e487b7100000000000000000000000000000000000000000000000000000000600052604160045260246000fd5b600080fd5b600080fd5b600080fd5b600080fd5b600080fd5b600080fd5b600080fd5b600080fd5b6000601f19601f8301169050919050565b7f456c656374696f6e2068617320656e6465642100000000000000000000000000600082015250565b7f54686572652063616e6e6f742062652061207469650000000000000000000000600082015250565b7f546869732073746174652068617320616c7265616479207375626d697465642060008201527f726573756c747321000000000000000000000000000000000000000000000000602082015250565b7f53746174652073656574732063616e6e6f7420626520656d7074792100000000600082015250565b610b90816109d9565b8114610b9b57600080fd5b5056fea26469706673582212206d0596dd86c88a9410dee04eaa5f8ac10041fd809987ef5b8acaa836cd6c736664736f6c63430008070033",
					"opcodes": "PUSH1 0x80 PUSH1 0x40 MSTORE CALLVALUE DUP1 ISZERO PUSH2 0x10 JUMPI PUSH1 0x0 DUP1 REVERT JUMPDEST POP CALLER PUSH1 0x0 DUP1 PUSH2 0x100 EXP DUP2 SLOAD DUP2 PUSH20 0xFFFFFFFFFFFFFFFFFFFFFFFFFFFFFFFFFFFFFFFF MUL NOT AND SWAP1 DUP4 PUSH20 0xFFFFFFFFFFFFFFFFFFFFFFFFFFFFFFFFFFFFFFFF AND MUL OR SWAP1 SSTORE POP PUSH2 0xBD4 DUP1 PUSH2 0x60 PUSH1 0x0 CODECOPY PUSH1 0x0 RETURN INVALID PUSH1 0x80 PUSH1 0x40 MSTORE CALLVALUE DUP1 ISZERO PUSH2 0x10 JUMPI PUSH1 0x0 DUP1 REVERT JUMPDEST POP PUSH1 0x4 CALLDATASIZE LT PUSH2 0x93 JUMPI PUSH1 0x0 CALLDATALOAD PUSH1 0xE0 SHR DUP1 PUSH4 0x713D87C5 GT PUSH2 0x66 JUMPI DUP1 PUSH4 0x713D87C5 EQ PUSH2 0x10E JUMPI DUP1 PUSH4 0x8DA5CB5B EQ PUSH2 0x13E JUMPI DUP1 PUSH4 0xAC4BD53A EQ PUSH2 0x15C JUMPI DUP1 PUSH4 0xC94CA9E3 EQ PUSH2 0x17A JUMPI DUP1 PUSH4 0xE494A883 EQ PUSH2 0x198 JUMPI PUSH2 0x93 JUMP JUMPDEST DUP1 PUSH4 0x2D674216 EQ PUSH2 0x98 JUMPI DUP1 PUSH4 0x2D78D8E5 EQ PUSH2 0xC8 JUMPI DUP1 PUSH4 0x59F78468 EQ PUSH2 0xE6 JUMPI DUP1 PUSH4 0x69B36BD4 EQ PUSH2 0xF0 JUMPI JUMPDEST PUSH1 0x0 DUP1 REVERT JUMPDEST PUSH2 0xB2 PUSH1 0x4 DUP1 CALLDATASIZE SUB DUP2 ADD SWAP1 PUSH2 0xAD SWAP2 SWAP1 PUSH2 0x608 JUMP JUMPDEST PUSH2 0x1B4 JUMP JUMPDEST PUSH1 0x40 MLOAD PUSH2 0xBF SWAP2 SWAP1 PUSH2 0x7D9 JUMP JUMPDEST PUSH1 0x40 MLOAD DUP1 SWAP2 SUB SWAP1 RETURN JUMPDEST PUSH2 0xD0 PUSH2 0x1EA JUMP JUMPDEST PUSH1 0x40 MLOAD PUSH2 0xDD SWAP2 SWAP1 PUSH2 0x874 JUMP JUMPDEST PUSH1 0x40 MLOAD DUP1 SWAP2 SUB SWAP1 RETURN JUMPDEST PUSH2 0xEE PUSH2 0x1EF JUMP JUMPDEST STOP JUMPDEST PUSH2 0xF8 PUSH2 0x25C JUMP JUMPDEST PUSH1 0x40 MLOAD PUSH2 0x105 SWAP2 SWAP1 PUSH2 0x874 JUMP JUMPDEST PUSH1 0x40 MLOAD DUP1 SWAP2 SUB SWAP1 RETURN JUMPDEST PUSH2 0x128 PUSH1 0x4 DUP1 CALLDATASIZE SUB DUP2 ADD SWAP1 PUSH2 0x123 SWAP2 SWAP1 PUSH2 0x69A JUMP JUMPDEST PUSH2 0x261 JUMP JUMPDEST PUSH1 0x40 MLOAD PUSH2 0x135 SWAP2 SWAP1 PUSH2 0x874 JUMP JUMPDEST PUSH1 0x40 MLOAD DUP1 SWAP2 SUB SWAP1 RETURN JUMPDEST PUSH2 0x146 PUSH2 0x281 JUMP JUMPDEST PUSH1 0x40 MLOAD PUSH2 0x153 SWAP2 SWAP1 PUSH2 0x7BE JUMP JUMPDEST PUSH1 0x40 MLOAD DUP1 SWAP2 SUB SWAP1 RETURN JUMPDEST PUSH2 0x164 PUSH2 0x2A5 JUMP JUMPDEST PUSH1 0x40 MLOAD PUSH2 0x171 SWAP2 SWAP1 PUSH2 0x874 JUMP JUMPDEST PUSH1 0x40 MLOAD DUP1 SWAP2 SUB SWAP1 RETURN JUMPDEST PUSH2 0x182 PUSH2 0x31C JUMP JUMPDEST PUSH1 0x40 MLOAD PUSH2 0x18F SWAP2 SWAP1 PUSH2 0x7D9 JUMP JUMPDEST PUSH1 0x40 MLOAD DUP1 SWAP2 SUB SWAP1 RETURN JUMPDEST PUSH2 0x1B2 PUSH1 0x4 DUP1 CALLDATASIZE SUB DUP2 ADD SWAP1 PUSH2 0x1AD SWAP2 SWAP1 PUSH2 0x651 JUMP JUMPDEST PUSH2 0x32F JUMP JUMPDEST STOP JUMPDEST PUSH1 0x2 DUP2 DUP1 MLOAD PUSH1 0x20 DUP2 ADD DUP3 ADD DUP1 MLOAD DUP5 DUP3 MSTORE PUSH1 0x20 DUP4 ADD PUSH1 0x20 DUP6 ADD KECCAK256 DUP2 DUP4 MSTORE DUP1 SWAP6 POP POP POP POP POP POP PUSH1 0x0 SWAP2 POP SLOAD SWAP1 PUSH2 0x100 EXP SWAP1 DIV PUSH1 0xFF AND DUP2 JUMP JUMPDEST PUSH1 0x2 DUP2 JUMP JUMPDEST PUSH1 0x0 PUSH1 0x14 SWAP1 SLOAD SWAP1 PUSH2 0x100 EXP SWAP1 DIV PUSH1 0xFF AND ISZERO PUSH2 0x23F JUMPI PUSH1 0x40 MLOAD PUSH32 0x8C379A000000000000000000000000000000000000000000000000000000000 DUP2 MSTORE PUSH1 0x4 ADD PUSH2 0x236 SWAP1 PUSH2 0x7F4 JUMP JUMPDEST PUSH1 0x40 MLOAD DUP1 SWAP2 SUB SWAP1 REVERT JUMPDEST PUSH1 0x1 PUSH1 0x0 PUSH1 0x14 PUSH2 0x100 EXP DUP2 SLOAD DUP2 PUSH1 0xFF MUL NOT AND SWAP1 DUP4 ISZERO ISZERO MUL OR SWAP1 SSTORE POP JUMP JUMPDEST PUSH1 0x1 DUP2 JUMP JUMPDEST PUSH1 0x1 PUSH1 0x20 MSTORE DUP1 PUSH1 0x0 MSTORE PUSH1 0x40 PUSH1 0x0 KECCAK256 PUSH1 0x0 SWAP2 POP SLOAD SWAP1 PUSH2 0x100 EXP SWAP1 DIV PUSH1 0xFF AND DUP2 JUMP JUMPDEST PUSH1 0x0 DUP1 SLOAD SWAP1 PUSH2 0x100 EXP SWAP1 DIV PUSH20 0xFFFFFFFFFFFFFFFFFFFFFFFFFFFFFFFFFFFFFFFF AND DUP2 JUMP JUMPDEST PUSH1 0x0 DUP1 PUSH1 0x1 PUSH1 0x0 PUSH1 0x1 PUSH1 0xFF AND PUSH1 0xFF AND DUP2 MSTORE PUSH1 0x20 ADD SWAP1 DUP2 MSTORE PUSH1 0x20 ADD PUSH1 0x0 KECCAK256 PUSH1 0x0 SWAP1 SLOAD SWAP1 PUSH2 0x100 EXP SWAP1 DIV PUSH1 0xFF AND PUSH1 0xFF AND SWAP1 POP PUSH1 0x0 PUSH1 0x1 PUSH1 0x0 PUSH1 0x2 PUSH1 0xFF AND PUSH1 0xFF AND DUP2 MSTORE PUSH1 0x20 ADD SWAP1 DUP2 MSTORE PUSH1 0x20 ADD PUSH1 0x0 KECCAK256 PUSH1 0x0 SWAP1 SLOAD SWAP1 PUSH2 0x100 EXP SWAP1 DIV PUSH1 0xFF AND PUSH1 0xFF AND SWAP1 POP DUP1 DUP3 GT PUSH2 0x312 JUMPI PUSH1 0x2 PUSH2 0x315 JUMP JUMPDEST PUSH1 0x1 JUMPDEST SWAP3 POP POP POP SWAP1 JUMP JUMPDEST PUSH1 0x0 PUSH1 0x14 SWAP1 SLOAD SWAP1 PUSH2 0x100 EXP SWAP1 DIV PUSH1 0xFF AND DUP2 JUMP JUMPDEST PUSH1 0x0 PUSH1 0x14 SWAP1 SLOAD SWAP1 PUSH2 0x100 EXP SWAP1 DIV PUSH1 0xFF AND ISZERO PUSH2 0x37F JUMPI PUSH1 0x40 MLOAD PUSH32 0x8C379A000000000000000000000000000000000000000000000000000000000 DUP2 MSTORE PUSH1 0x4 ADD PUSH2 0x376 SWAP1 PUSH2 0x7F4 JUMP JUMPDEST PUSH1 0x40 MLOAD DUP1 SWAP2 SUB SWAP1 REVERT JUMPDEST PUSH1 0x0 DUP2 PUSH1 0x60 ADD PUSH1 0x20 DUP2 ADD SWAP1 PUSH2 0x394 SWAP2 SWAP1 PUSH2 0x69A JUMP JUMPDEST PUSH1 0xFF AND GT PUSH2 0x3D7 JUMPI PUSH1 0x40 MLOAD PUSH32 0x8C379A000000000000000000000000000000000000000000000000000000000 DUP2 MSTORE PUSH1 0x4 ADD PUSH2 0x3CE SWAP1 PUSH2 0x854 JUMP JUMPDEST PUSH1 0x40 MLOAD DUP1 SWAP2 SUB SWAP1 REVERT JUMPDEST PUSH1 0x2 DUP2 DUP1 PUSH1 0x0 ADD SWAP1 PUSH2 0x3E9 SWAP2 SWAP1 PUSH2 0x88F JUMP JUMPDEST PUSH1 0x40 MLOAD PUSH2 0x3F7 SWAP3 SWAP2 SWAP1 PUSH2 0x7A5 JUMP JUMPDEST SWAP1 DUP2 MSTORE PUSH1 0x20 ADD PUSH1 0x40 MLOAD DUP1 SWAP2 SUB SWAP1 KECCAK256 PUSH1 0x0 SWAP1 SLOAD SWAP1 PUSH2 0x100 EXP SWAP1 DIV PUSH1 0xFF AND PUSH2 0x452 JUMPI PUSH1 0x40 MLOAD PUSH32 0x8C379A000000000000000000000000000000000000000000000000000000000 DUP2 MSTORE PUSH1 0x4 ADD PUSH2 0x449 SWAP1 PUSH2 0x834 JUMP JUMPDEST PUSH1 0x40 MLOAD DUP1 SWAP2 SUB SWAP1 REVERT JUMPDEST DUP1 PUSH1 0x40 ADD CALLDATALOAD DUP2 PUSH1 0x20 ADD CALLDATALOAD EQ ISZERO PUSH2 0x49D JUMPI PUSH1 0x40 MLOAD PUSH32 0x8C379A000000000000000000000000000000000000000000000000000000000 DUP2 MSTORE PUSH1 0x4 ADD PUSH2 0x494 SWAP1 PUSH2 0x814 JUMP JUMPDEST PUSH1 0x40 MLOAD DUP1 SWAP2 SUB SWAP1 REVERT JUMPDEST PUSH1 0x1 PUSH1 0x2 DUP3 DUP1 PUSH1 0x0 ADD SWAP1 PUSH2 0x4B1 SWAP2 SWAP1 PUSH2 0x88F JUMP JUMPDEST PUSH1 0x40 MLOAD PUSH2 0x4BF SWAP3 SWAP2 SWAP1 PUSH2 0x7A5 JUMP JUMPDEST SWAP1 DUP2 MSTORE PUSH1 0x20 ADD PUSH1 0x40 MLOAD DUP1 SWAP2 SUB SWAP1 KECCAK256 PUSH1 0x0 PUSH2 0x100 EXP DUP2 SLOAD DUP2 PUSH1 0xFF MUL NOT AND SWAP1 DUP4 ISZERO ISZERO MUL OR SWAP1 SSTORE POP PUSH1 0x0 DUP2 PUSH1 0x20 ADD CALLDATALOAD DUP3 PUSH1 0x40 ADD CALLDATALOAD GT PUSH2 0x4FC JUMPI PUSH1 0x1 PUSH2 0x4FF JUMP JUMPDEST PUSH1 0x2 JUMPDEST SWAP1 POP DUP2 PUSH1 0x60 ADD PUSH1 0x20 DUP2 ADD SWAP1 PUSH2 0x514 SWAP2 SWAP1 PUSH2 0x69A JUMP JUMPDEST PUSH1 0x1 PUSH1 0x0 DUP4 PUSH1 0xFF AND PUSH1 0xFF AND DUP2 MSTORE PUSH1 0x20 ADD SWAP1 DUP2 MSTORE PUSH1 0x20 ADD PUSH1 0x0 KECCAK256 PUSH1 0x0 DUP3 DUP3 DUP3 SWAP1 SLOAD SWAP1 PUSH2 0x100 EXP SWAP1 DIV PUSH1 0xFF AND PUSH2 0x548 SWAP2 SWAP1 PUSH2 0x964 JUMP JUMPDEST SWAP3 POP PUSH2 0x100 EXP DUP2 SLOAD DUP2 PUSH1 0xFF MUL NOT AND SWAP1 DUP4 PUSH1 0xFF AND MUL OR SWAP1 SSTORE POP POP POP JUMP JUMPDEST PUSH1 0x0 PUSH2 0x577 PUSH2 0x572 DUP5 PUSH2 0x917 JUMP JUMPDEST PUSH2 0x8F2 JUMP JUMPDEST SWAP1 POP DUP3 DUP2 MSTORE PUSH1 0x20 DUP2 ADD DUP5 DUP5 DUP5 ADD GT ISZERO PUSH2 0x593 JUMPI PUSH2 0x592 PUSH2 0xA9D JUMP JUMPDEST JUMPDEST PUSH2 0x59E DUP5 DUP3 DUP6 PUSH2 0x9E6 JUMP JUMPDEST POP SWAP4 SWAP3 POP POP POP JUMP JUMPDEST PUSH1 0x0 DUP3 PUSH1 0x1F DUP4 ADD SLT PUSH2 0x5BB JUMPI PUSH2 0x5BA PUSH2 0xA84 JUMP JUMPDEST JUMPDEST DUP2 CALLDATALOAD PUSH2 0x5CB DUP5 DUP3 PUSH1 0x20 DUP7 ADD PUSH2 0x564 JUMP JUMPDEST SWAP2 POP POP SWAP3 SWAP2 POP POP JUMP JUMPDEST PUSH1 0x0 PUSH1 0x80 DUP3 DUP5 SUB SLT ISZERO PUSH2 0x5EA JUMPI PUSH2 0x5E9 PUSH2 0xA8E JUMP JUMPDEST JUMPDEST DUP2 SWAP1 POP SWAP3 SWAP2 POP POP JUMP JUMPDEST PUSH1 0x0 DUP2 CALLDATALOAD SWAP1 POP PUSH2 0x602 DUP2 PUSH2 0xB87 JUMP JUMPDEST SWAP3 SWAP2 POP POP JUMP JUMPDEST PUSH1 0x0 PUSH1 0x20 DUP3 DUP5 SUB SLT ISZERO PUSH2 0x61E JUMPI PUSH2 0x61D PUSH2 0xAA7 JUMP JUMPDEST JUMPDEST PUSH1 0x0 DUP3 ADD CALLDATALOAD PUSH8 0xFFFFFFFFFFFFFFFF DUP2 GT ISZERO PUSH2 0x63C JUMPI PUSH2 0x63B PUSH2 0xAA2 JUMP JUMPDEST JUMPDEST PUSH2 0x648 DUP5 DUP3 DUP6 ADD PUSH2 0x5A6 JUMP JUMPDEST SWAP2 POP POP SWAP3 SWAP2 POP POP JUMP JUMPDEST PUSH1 0x0 PUSH1 0x20 DUP3 DUP5 SUB SLT ISZERO PUSH2 0x667 JUMPI PUSH2 0x666 PUSH2 0xAA7 JUMP JUMPDEST JUMPDEST PUSH1 0x0 DUP3 ADD CALLDATALOAD PUSH8 0xFFFFFFFFFFFFFFFF DUP2 GT ISZERO PUSH2 0x685 JUMPI PUSH2 0x684 PUSH2 0xAA2 JUMP JUMPDEST JUMPDEST PUSH2 0x691 DUP5 DUP3 DUP6 ADD PUSH2 0x5D4 JUMP JUMPDEST SWAP2 POP POP SWAP3 SWAP2 POP POP JUMP JUMPDEST PUSH1 0x0 PUSH1 0x20 DUP3 DUP5 SUB SLT ISZERO PUSH2 0x6B0 JUMPI PUSH2 0x6AF PUSH2 0xAA7 JUMP JUMPDEST JUMPDEST PUSH1 0x0 PUSH2 0x6BE DUP5 DUP3 DUP6 ADD PUSH2 0x5F3 JUMP JUMPDEST SWAP2 POP POP SWAP3 SWAP2 POP POP JUMP JUMPDEST PUSH2 0x6D0 DUP2 PUSH2 0x99B JUMP JUMPDEST DUP3 MSTORE POP POP JUMP JUMPDEST PUSH2 0x6DF DUP2 PUSH2 0x9AD JUMP JUMPDEST DUP3 MSTORE POP POP JUMP JUMPDEST PUSH1 0x0 PUSH2 0x6F1 DUP4 DUP6 PUSH2 0x959 JUMP JUMPDEST SWAP4 POP PUSH2 0x6FE DUP4 DUP6 DUP5 PUSH2 0x9E6 JUMP JUMPDEST DUP3 DUP5 ADD SWAP1 POP SWAP4 SWAP3 POP POP POP JUMP JUMPDEST PUSH1 0x0 PUSH2 0x717 PUSH1 0x13 DUP4 PUSH2 0x948 JUMP JUMPDEST SWAP2 POP PUSH2 0x722 DUP3 PUSH2 0xABD JUMP JUMPDEST PUSH1 0x20 DUP3 ADD SWAP1 POP SWAP2 SWAP1 POP JUMP JUMPDEST PUSH1 0x0 PUSH2 0x73A PUSH1 0x15 DUP4 PUSH2 0x948 JUMP JUMPDEST SWAP2 POP PUSH2 0x745 DUP3 PUSH2 0xAE6 JUMP JUMPDEST PUSH1 0x20 DUP3 ADD SWAP1 POP SWAP2 SWAP1 POP JUMP JUMPDEST PUSH1 0x0 PUSH2 0x75D PUSH1 0x28 DUP4 PUSH2 0x948 JUMP JUMPDEST SWAP2 POP PUSH2 0x768 DUP3 PUSH2 0xB0F JUMP JUMPDEST PUSH1 0x40 DUP3 ADD SWAP1 POP SWAP2 SWAP1 POP JUMP JUMPDEST PUSH1 0x0 PUSH2 0x780 PUSH1 0x1C DUP4 PUSH2 0x948 JUMP JUMPDEST SWAP2 POP PUSH2 0x78B DUP3 PUSH2 0xB5E JUMP JUMPDEST PUSH1 0x20 DUP3 ADD SWAP1 POP SWAP2 SWAP1 POP JUMP JUMPDEST PUSH2 0x79F DUP2 PUSH2 0x9D9 JUMP JUMPDEST DUP3 MSTORE POP POP JUMP JUMPDEST PUSH1 0x0 PUSH2 0x7B2 DUP3 DUP5 DUP7 PUSH2 0x6E5 JUMP JUMPDEST SWAP2 POP DUP2 SWAP1 POP SWAP4 SWAP3 POP POP POP JUMP JUMPDEST PUSH1 0x0 PUSH1 0x20 DUP3 ADD SWAP1 POP PUSH2 0x7D3 PUSH1 0x0 DUP4 ADD DUP5 PUSH2 0x6C7 JUMP JUMPDEST SWAP3 SWAP2 POP POP JUMP JUMPDEST PUSH1 0x0 PUSH1 0x20 DUP3 ADD SWAP1 POP PUSH2 0x7EE PUSH1 0x0 DUP4 ADD DUP5 PUSH2 0x6D6 JUMP JUMPDEST SWAP3 SWAP2 POP POP JUMP JUMPDEST PUSH1 0x0 PUSH1 0x20 DUP3 ADD SWAP1 POP DUP2 DUP2 SUB PUSH1 0x0 DUP4 ADD MSTORE PUSH2 0x80D DUP2 PUSH2 0x70A JUMP JUMPDEST SWAP1 POP SWAP2 SWAP1 POP JUMP JUMPDEST PUSH1 0x0 PUSH1 0x20 DUP3 ADD SWAP1 POP DUP2 DUP2 SUB PUSH1 0x0 DUP4 ADD MSTORE PUSH2 0x82D DUP2 PUSH2 0x72D JUMP JUMPDEST SWAP1 POP SWAP2 SWAP1 POP JUMP JUMPDEST PUSH1 0x0 PUSH1 0x20 DUP3 ADD SWAP1 POP DUP2 DUP2 SUB PUSH1 0x0 DUP4 ADD MSTORE PUSH2 0x84D DUP2 PUSH2 0x750 JUMP JUMPDEST SWAP1 POP SWAP2 SWAP1 POP JUMP JUMPDEST PUSH1 0x0 PUSH1 0x20 DUP3 ADD SWAP1 POP DUP2 DUP2 SUB PUSH1 0x0 DUP4 ADD MSTORE PUSH2 0x86D DUP2 PUSH2 0x773 JUMP JUMPDEST SWAP1 POP SWAP2 SWAP1 POP JUMP JUMPDEST PUSH1 0x0 PUSH1 0x20 DUP3 ADD SWAP1 POP PUSH2 0x889 PUSH1 0x0 DUP4 ADD DUP5 PUSH2 0x796 JUMP JUMPDEST SWAP3 SWAP2 POP POP JUMP JUMPDEST PUSH1 0x0 DUP1 DUP4 CALLDATALOAD PUSH1 0x1 PUSH1 0x20 SUB DUP5 CALLDATASIZE SUB SUB DUP2 SLT PUSH2 0x8AC JUMPI PUSH2 0x8AB PUSH2 0xA93 JUMP JUMPDEST JUMPDEST DUP1 DUP5 ADD SWAP3 POP DUP3 CALLDATALOAD SWAP2 POP PUSH8 0xFFFFFFFFFFFFFFFF DUP3 GT ISZERO PUSH2 0x8CE JUMPI PUSH2 0x8CD PUSH2 0xA89 JUMP JUMPDEST JUMPDEST PUSH1 0x20 DUP4 ADD SWAP3 POP PUSH1 0x1 DUP3 MUL CALLDATASIZE SUB DUP4 SGT ISZERO PUSH2 0x8EA JUMPI PUSH2 0x8E9 PUSH2 0xA98 JUMP JUMPDEST JUMPDEST POP SWAP3 POP SWAP3 SWAP1 POP JUMP JUMPDEST PUSH1 0x0 PUSH2 0x8FC PUSH2 0x90D JUMP JUMPDEST SWAP1 POP PUSH2 0x908 DUP3 DUP3 PUSH2 0x9F5 JUMP JUMPDEST SWAP2 SWAP1 POP JUMP JUMPDEST PUSH1 0x0 PUSH1 0x40 MLOAD SWAP1 POP SWAP1 JUMP JUMPDEST PUSH1 0x0 PUSH8 0xFFFFFFFFFFFFFFFF DUP3 GT ISZERO PUSH2 0x932 JUMPI PUSH2 0x931 PUSH2 0xA55 JUMP JUMPDEST JUMPDEST PUSH2 0x93B DUP3 PUSH2 0xAAC JUMP JUMPDEST SWAP1 POP PUSH1 0x20 DUP2 ADD SWAP1 POP SWAP2 SWAP1 POP JUMP JUMPDEST PUSH1 0x0 DUP3 DUP3 MSTORE PUSH1 0x20 DUP3 ADD SWAP1 POP SWAP3 SWAP2 POP POP JUMP JUMPDEST PUSH1 0x0 DUP2 SWAP1 POP SWAP3 SWAP2 POP POP JUMP JUMPDEST PUSH1 0x0 PUSH2 0x96F DUP3 PUSH2 0x9D9 JUMP JUMPDEST SWAP2 POP PUSH2 0x97A DUP4 PUSH2 0x9D9 JUMP JUMPDEST SWAP3 POP DUP3 PUSH1 0xFF SUB DUP3 GT ISZERO PUSH2 0x990 JUMPI PUSH2 0x98F PUSH2 0xA26 JUMP JUMPDEST JUMPDEST DUP3 DUP3 ADD SWAP1 POP SWAP3 SWAP2 POP POP JUMP JUMPDEST PUSH1 0x0 PUSH2 0x9A6 DUP3 PUSH2 0x9B9 JUMP JUMPDEST SWAP1 POP SWAP2 SWAP1 POP JUMP JUMPDEST PUSH1 0x0 DUP2 ISZERO ISZERO SWAP1 POP SWAP2 SWAP1 POP JUMP JUMPDEST PUSH1 0x0 PUSH20 0xFFFFFFFFFFFFFFFFFFFFFFFFFFFFFFFFFFFFFFFF DUP3 AND SWAP1 POP SWAP2 SWAP1 POP JUMP JUMPDEST PUSH1 0x0 PUSH1 0xFF DUP3 AND SWAP1 POP SWAP2 SWAP1 POP JUMP JUMPDEST DUP3 DUP2 DUP4 CALLDATACOPY PUSH1 0x0 DUP4 DUP4 ADD MSTORE POP POP POP JUMP JUMPDEST PUSH2 0x9FE DUP3 PUSH2 0xAAC JUMP JUMPDEST DUP2 ADD DUP2 DUP2 LT PUSH8 0xFFFFFFFFFFFFFFFF DUP3 GT OR ISZERO PUSH2 0xA1D JUMPI PUSH2 0xA1C PUSH2 0xA55 JUMP JUMPDEST JUMPDEST DUP1 PUSH1 0x40 MSTORE POP POP POP JUMP JUMPDEST PUSH32 0x4E487B7100000000000000000000000000000000000000000000000000000000 PUSH1 0x0 MSTORE PUSH1 0x11 PUSH1 0x4 MSTORE PUSH1 0x24 PUSH1 0x0 REVERT JUMPDEST PUSH32 0x4E487B7100000000000000000000000000000000000000000000000000000000 PUSH1 0x0 MSTORE PUSH1 0x41 PUSH1 0x4 MSTORE PUSH1 0x24 PUSH1 0x0 REVERT JUMPDEST PUSH1 0x0 DUP1 REVERT JUMPDEST PUSH1 0x0 DUP1 REVERT JUMPDEST PUSH1 0x0 DUP1 REVERT JUMPDEST PUSH1 0x0 DUP1 REVERT JUMPDEST PUSH1 0x0 DUP1 REVERT JUMPDEST PUSH1 0x0 DUP1 REVERT JUMPDEST PUSH1 0x0 DUP1 REVERT JUMPDEST PUSH1 0x0 DUP1 REVERT JUMPDEST PUSH1 0x0 PUSH1 0x1F NOT PUSH1 0x1F DUP4 ADD AND SWAP1 POP SWAP2 SWAP1 POP JUMP JUMPDEST PUSH32 0x456C656374696F6E2068617320656E6465642100000000000000000000000000 PUSH1 0x0 DUP3 ADD MSTORE POP JUMP JUMPDEST PUSH32 0x54686572652063616E6E6F742062652061207469650000000000000000000000 PUSH1 0x0 DUP3 ADD MSTORE POP JUMP JUMPDEST PUSH32 0x546869732073746174652068617320616C7265616479207375626D6974656420 PUSH1 0x0 DUP3 ADD MSTORE PUSH32 0x726573756C747321000000000000000000000000000000000000000000000000 PUSH1 0x20 DUP3 ADD MSTORE POP JUMP JUMPDEST PUSH32 0x53746174652073656574732063616E6E6F7420626520656D7074792100000000 PUSH1 0x0 DUP3 ADD MSTORE POP JUMP JUMPDEST PUSH2 0xB90 DUP2 PUSH2 0x9D9 JUMP JUMPDEST DUP2 EQ PUSH2 0xB9B JUMPI PUSH1 0x0 DUP1 REVERT JUMPDEST POP JUMP INVALID LOG2 PUSH5 0x6970667358 0x22 SLT KECCAK256 PUSH14 0x596DD86C88A9410DEE04EAA5F8A 0xC1 STOP COINBASE REVERT DUP1 SWAP10 DUP8 0xEF JUMPDEST DUP11 0xCA 0xA8 CALLDATASIZE 0xCD PUSH13 0x736664736F6C63430008070033 "
				},
				"gasEstimates": {
					"creation": {
						"codeDepositCost": "605600",
						"executionCost": "24904",
						"totalCost": "630504"
					},
					"external": {
						"BIDEN()": "402",
						"TRUMP()": "358",
						"currentLeader()": "4911",
						"electionEnded()": "2587",
						"endElection()": "26712",
						"owner()": "2533",
						"seats(uint8)": "infinite",
						"submitStateResult((string,uint256,uint256,uint8))": "infinite",
						"submitedStates(string)": "infinite"
					}
				},
				"methodIdentifiers": {
					"BIDEN()": "69b36bd4",
					"TRUMP()": "2d78d8e5",
					"currentLeader()": "ac4bd53a",
					"electionEnded()": "c94ca9e3",
					"endElection()": "59f78468",
					"owner()": "8da5cb5b",
					"seats(uint8)": "713d87c5",
					"submitStateResult((string,uint256,uint256,uint8))": "e494a883",
					"submitedStates(string)": "2d674216"
				}
			},
			"storageLayout": {
				"storage": [
					{
						"astId": 3,
						"contract": "contracts/USElection.sol:USElection",
						"label": "owner",
						"offset": 0,
						"slot": "0",
						"type": "t_address"
					},
					{
						"astId": 39,
						"contract": "contracts/USElection.sol:USElection",
						"label": "electionEnded",
						"offset": 20,
						"slot": "0",
						"type": "t_bool"
					},
					{
						"astId": 43,
						"contract": "contracts/USElection.sol:USElection",
						"label": "seats",
						"offset": 0,
						"slot": "1",
						"type": "t_mapping(t_uint8,t_uint8)"
					},
					{
						"astId": 47,
						"contract": "contracts/USElection.sol:USElection",
						"label": "submitedStates",
						"offset": 0,
						"slot": "2",
						"type": "t_mapping(t_string_memory_ptr,t_bool)"
					}
				],
				"types": {
					"t_address": {
						"encoding": "inplace",
						"label": "address",
						"numberOfBytes": "20"
					},
					"t_bool": {
						"encoding": "inplace",
						"label": "bool",
						"numberOfBytes": "1"
					},
					"t_mapping(t_string_memory_ptr,t_bool)": {
						"encoding": "mapping",
						"key": "t_string_memory_ptr",
						"label": "mapping(string => bool)",
						"numberOfBytes": "32",
						"value": "t_bool"
					},
					"t_mapping(t_uint8,t_uint8)": {
						"encoding": "mapping",
						"key": "t_uint8",
						"label": "mapping(uint8 => uint8)",
						"numberOfBytes": "32",
						"value": "t_uint8"
					},
					"t_string_memory_ptr": {
						"encoding": "bytes",
						"label": "string",
						"numberOfBytes": "32"
					},
					"t_uint8": {
						"encoding": "inplace",
						"label": "uint8",
						"numberOfBytes": "1"
					}
				}
			},
			"userdoc": {
				"kind": "user",
				"methods": {},
				"version": 1
			}
		}
	}
}