{
	"contracts/Store.sol": {
		"Store": {
			"abi": [
				{
					"inputs": [
						{
							"internalType": "string",
							"name": "name",
							"type": "string"
						},
						{
							"internalType": "uint256",
							"name": "quantity",
							"type": "uint256"
						},
						{
							"internalType": "uint256",
							"name": "price",
							"type": "uint256"
						}
					],
					"name": "addNewProduct",
					"outputs": [],
					"stateMutability": "nonpayable",
					"type": "function"
				},
				{
					"inputs": [
						{
							"internalType": "string",
							"name": "",
							"type": "string"
						}
					],
					"name": "availableProducts",
					"outputs": [
						{
							"internalType": "bool",
							"name": "",
							"type": "bool"
						}
					],
					"stateMutability": "view",
					"type": "function"
				},
				{
					"inputs": [],
					"name": "owner",
					"outputs": [
						{
							"internalType": "address",
							"name": "",
							"type": "address"
						}
					],
					"stateMutability": "view",
					"type": "function"
				},
				{
					"inputs": [
						{
							"internalType": "uint256",
							"name": "",
							"type": "uint256"
						}
					],
					"name": "products",
					"outputs": [
						{
							"internalType": "string",
							"name": "name",
							"type": "string"
						},
						{
							"internalType": "uint256",
							"name": "quantity",
							"type": "uint256"
						},
						{
							"internalType": "uint256",
							"name": "price",
							"type": "uint256"
						}
					],
					"stateMutability": "view",
					"type": "function"
				},
				{
					"inputs": [
						{
							"internalType": "uint256",
							"name": "index",
							"type": "uint256"
						},
						{
							"internalType": "uint256",
							"name": "quantity",
							"type": "uint256"
						}
					],
					"name": "updateProductQuantity",
					"outputs": [],
					"stateMutability": "nonpayable",
					"type": "function"
				}
			],
			"devdoc": {
				"kind": "dev",
				"methods": {},
				"version": 1
			},
			"evm": {
				"assembly": "    /* \"contracts/Store.sol\":93:818  contract Store is Ownable {\r... */\n  mstore(0x40, 0x80)\n  callvalue\n  dup1\n  iszero\n  tag_1\n  jumpi\n  0x00\n  dup1\n  revert\ntag_1:\n  pop\n    /* \"contracts/Ownable.sol\":156:166  msg.sender */\n  caller\n    /* \"contracts/Ownable.sol\":148:153  owner */\n  0x00\n  dup1\n    /* \"contracts/Ownable.sol\":148:166  owner = msg.sender */\n  0x0100\n  exp\n  dup2\n  sload\n  dup2\n  0xffffffffffffffffffffffffffffffffffffffff\n  mul\n  not\n  and\n  swap1\n  dup4\n  0xffffffffffffffffffffffffffffffffffffffff\n  and\n  mul\n  or\n  swap1\n  sstore\n  pop\n    /* \"contracts/Store.sol\":93:818  contract Store is Ownable {\r... */\n  dataSize(sub_0)\n  dup1\n  dataOffset(sub_0)\n  0x00\n  codecopy\n  0x00\n  return\nstop\n\nsub_0: assembly {\n        /* \"contracts/Store.sol\":93:818  contract Store is Ownable {\r... */\n      mstore(0x40, 0x80)\n      callvalue\n      dup1\n      iszero\n      tag_1\n      jumpi\n      0x00\n      dup1\n      revert\n    tag_1:\n      pop\n      jumpi(tag_2, lt(calldatasize, 0x04))\n      shr(0xe0, calldataload(0x00))\n      dup1\n      0x0a5bd44b\n      eq\n      tag_3\n      jumpi\n      dup1\n      0x38993c16\n      eq\n      tag_4\n      jumpi\n      dup1\n      0x7acc0b20\n      eq\n      tag_5\n      jumpi\n      dup1\n      0x8da5cb5b\n      eq\n      tag_6\n      jumpi\n      dup1\n      0xfcc93b0b\n      eq\n      tag_7\n      jumpi\n    tag_2:\n      0x00\n      dup1\n      revert\n        /* \"contracts/Store.sol\":313:601  function addNewProduct(string calldata name, uint quantity, uint price) public onlyOwner {\r... */\n    tag_3:\n      tag_8\n      0x04\n      dup1\n      calldatasize\n      sub\n      dup2\n      add\n      swap1\n      tag_9\n      swap2\n      swap1\n      tag_10\n      jump\t// in\n    tag_9:\n      tag_11\n      jump\t// in\n    tag_8:\n      stop\n        /* \"contracts/Store.sol\":256:304  mapping(string => bool) public availableProducts */\n    tag_4:\n      tag_12\n      0x04\n      dup1\n      calldatasize\n      sub\n      dup2\n      add\n      swap1\n      tag_13\n      swap2\n      swap1\n      tag_14\n      jump\t// in\n    tag_13:\n      tag_15\n      jump\t// in\n    tag_12:\n      mload(0x40)\n      tag_16\n      swap2\n      swap1\n      tag_17\n      jump\t// in\n    tag_16:\n      mload(0x40)\n      dup1\n      swap2\n      sub\n      swap1\n      return\n        /* \"contracts/Store.sol\":224:249  Product[] public products */\n    tag_5:\n      tag_18\n      0x04\n      dup1\n      calldatasize\n      sub\n      dup2\n      add\n      swap1\n      tag_19\n      swap2\n      swap1\n      tag_20\n      jump\t// in\n    tag_19:\n      tag_21\n      jump\t// in\n    tag_18:\n      mload(0x40)\n      tag_22\n      swap4\n      swap3\n      swap2\n      swap1\n      tag_23\n      jump\t// in\n    tag_22:\n      mload(0x40)\n      dup1\n      swap2\n      sub\n      swap1\n      return\n        /* \"contracts/Ownable.sol\":90:110  address public owner */\n    tag_6:\n      tag_24\n      tag_25\n      jump\t// in\n    tag_24:\n      mload(0x40)\n      tag_26\n      swap2\n      swap1\n      tag_27\n      jump\t// in\n    tag_26:\n      mload(0x40)\n      dup1\n      swap2\n      sub\n      swap1\n      return\n        /* \"contracts/Store.sol\":609:815  function updateProductQuantity(uint index, uint quantity) public onlyOwner {\r... */\n    tag_7:\n      tag_28\n      0x04\n      dup1\n      calldatasize\n      sub\n      dup2\n      add\n      swap1\n      tag_29\n      swap2\n      swap1\n      tag_30\n      jump\t// in\n    tag_29:\n      tag_31\n      jump\t// in\n    tag_28:\n      stop\n        /* \"contracts/Store.sol\":313:601  function addNewProduct(string calldata name, uint quantity, uint price) public onlyOwner {\r... */\n    tag_11:\n        /* \"contracts/Ownable.sol\":236:241  owner */\n      0x00\n      dup1\n      sload\n      swap1\n      0x0100\n      exp\n      swap1\n      div\n      0xffffffffffffffffffffffffffffffffffffffff\n      and\n        /* \"contracts/Ownable.sol\":222:241  msg.sender == owner */\n      0xffffffffffffffffffffffffffffffffffffffff\n      and\n        /* \"contracts/Ownable.sol\":222:232  msg.sender */\n      caller\n        /* \"contracts/Ownable.sol\":222:241  msg.sender == owner */\n      0xffffffffffffffffffffffffffffffffffffffff\n      and\n      eq\n        /* \"contracts/Ownable.sol\":214:268  require(msg.sender == owner, \"You are not the owner!\") */\n      tag_33\n      jumpi\n      mload(0x40)\n      0x08c379a000000000000000000000000000000000000000000000000000000000\n      dup2\n      mstore\n      0x04\n      add\n      tag_34\n      swap1\n      tag_35\n      jump\t// in\n    tag_34:\n      mload(0x40)\n      dup1\n      swap2\n      sub\n      swap1\n      revert\n    tag_33:\n        /* \"contracts/Store.sol\":422:439  availableProducts */\n      0x02\n        /* \"contracts/Store.sol\":440:444  name */\n      dup5\n      dup5\n        /* \"contracts/Store.sol\":422:445  availableProducts[name] */\n      mload(0x40)\n      tag_37\n      swap3\n      swap2\n      swap1\n      tag_38\n      jump\t// in\n    tag_37:\n      swap1\n      dup2\n      mstore\n      0x20\n      add\n      mload(0x40)\n      dup1\n      swap2\n      sub\n      swap1\n      keccak256\n      0x00\n      swap1\n      sload\n      swap1\n      0x0100\n      exp\n      swap1\n      div\n      0xff\n      and\n        /* \"contracts/Store.sol\":421:445  !availableProducts[name] */\n      iszero\n        /* \"contracts/Store.sol\":413:486  require(!availableProducts[name], \"The product is already in the store!\") */\n      tag_39\n      jumpi\n      mload(0x40)\n      0x08c379a000000000000000000000000000000000000000000000000000000000\n      dup2\n      mstore\n      0x04\n      add\n      tag_40\n      swap1\n      tag_41\n      jump\t// in\n    tag_40:\n      mload(0x40)\n      dup1\n      swap2\n      sub\n      swap1\n      revert\n    tag_39:\n        /* \"contracts/Store.sol\":533:537  true */\n      0x01\n        /* \"contracts/Store.sol\":507:524  availableProducts */\n      0x02\n        /* \"contracts/Store.sol\":525:529  name */\n      dup6\n      dup6\n        /* \"contracts/Store.sol\":507:530  availableProducts[name] */\n      mload(0x40)\n      tag_42\n      swap3\n      swap2\n      swap1\n      tag_38\n      jump\t// in\n    tag_42:\n      swap1\n      dup2\n      mstore\n      0x20\n      add\n      mload(0x40)\n      dup1\n      swap2\n      sub\n      swap1\n      keccak256\n      0x00\n        /* \"contracts/Store.sol\":507:537  availableProducts[name] = true */\n      0x0100\n      exp\n      dup2\n      sload\n      dup2\n      0xff\n      mul\n      not\n      and\n      swap1\n      dup4\n      iszero\n      iszero\n      mul\n      or\n      swap1\n      sstore\n      pop\n        /* \"contracts/Store.sol\":548:556  products */\n      0x01\n        /* \"contracts/Store.sol\":562:592  Product(name, quantity, price) */\n      mload(0x40)\n      dup1\n      0x60\n      add\n      0x40\n      mstore\n      dup1\n        /* \"contracts/Store.sol\":570:574  name */\n      dup7\n      dup7\n        /* \"contracts/Store.sol\":562:592  Product(name, quantity, price) */\n      dup1\n      dup1\n      0x1f\n      add\n      0x20\n      dup1\n      swap2\n      div\n      mul\n      0x20\n      add\n      mload(0x40)\n      swap1\n      dup2\n      add\n      0x40\n      mstore\n      dup1\n      swap4\n      swap3\n      swap2\n      swap1\n      dup2\n      dup2\n      mstore\n      0x20\n      add\n      dup4\n      dup4\n      dup1\n      dup3\n      dup5\n      calldatacopy\n      0x00\n      dup2\n      dup5\n      add\n      mstore\n      not(0x1f)\n      0x1f\n      dup3\n      add\n      and\n      swap1\n      pop\n      dup1\n      dup4\n      add\n      swap3\n      pop\n      pop\n      pop\n      pop\n      pop\n      pop\n      pop\n      dup2\n      mstore\n      0x20\n      add\n        /* \"contracts/Store.sol\":576:584  quantity */\n      dup5\n        /* \"contracts/Store.sol\":562:592  Product(name, quantity, price) */\n      dup2\n      mstore\n      0x20\n      add\n        /* \"contracts/Store.sol\":586:591  price */\n      dup4\n        /* \"contracts/Store.sol\":562:592  Product(name, quantity, price) */\n      dup2\n      mstore\n      pop\n        /* \"contracts/Store.sol\":548:593  products.push(Product(name, quantity, price)) */\n      swap1\n      dup1\n      0x01\n      dup2\n      sload\n      add\n      dup1\n      dup3\n      sstore\n      dup1\n      swap2\n      pop\n      pop\n      0x01\n      swap1\n      sub\n      swap1\n      0x00\n      mstore\n      keccak256(0x00, 0x20)\n      swap1\n      0x03\n      mul\n      add\n      0x00\n      swap1\n      swap2\n      swap1\n      swap2\n      swap1\n      swap2\n      pop\n      0x00\n      dup3\n      add\n      mload\n      dup2\n      0x00\n      add\n      swap1\n      dup1\n      mload\n      swap1\n      0x20\n      add\n      swap1\n      tag_44\n      swap3\n      swap2\n      swap1\n      tag_45\n      jump\t// in\n    tag_44:\n      pop\n      0x20\n      dup3\n      add\n      mload\n      dup2\n      0x01\n      add\n      sstore\n      0x40\n      dup3\n      add\n      mload\n      dup2\n      0x02\n      add\n      sstore\n      pop\n      pop\n        /* \"contracts/Store.sol\":313:601  function addNewProduct(string calldata name, uint quantity, uint price) public onlyOwner {\r... */\n      pop\n      pop\n      pop\n      pop\n      jump\t// out\n        /* \"contracts/Store.sol\":256:304  mapping(string => bool) public availableProducts */\n    tag_15:\n      0x02\n      dup2\n      dup1\n      mload\n      0x20\n      dup2\n      add\n      dup3\n      add\n      dup1\n      mload\n      dup5\n      dup3\n      mstore\n      0x20\n      dup4\n      add\n      0x20\n      dup6\n      add\n      keccak256\n      dup2\n      dup4\n      mstore\n      dup1\n      swap6\n      pop\n      pop\n      pop\n      pop\n      pop\n      pop\n      0x00\n      swap2\n      pop\n      sload\n      swap1\n      0x0100\n      exp\n      swap1\n      div\n      0xff\n      and\n      dup2\n      jump\t// out\n        /* \"contracts/Store.sol\":224:249  Product[] public products */\n    tag_21:\n      0x01\n      dup2\n      dup2\n      sload\n      dup2\n      lt\n      tag_46\n      jumpi\n      0x00\n      dup1\n      revert\n    tag_46:\n      swap1\n      0x00\n      mstore\n      keccak256(0x00, 0x20)\n      swap1\n      0x03\n      mul\n      add\n      0x00\n      swap2\n      pop\n      swap1\n      pop\n      dup1\n      0x00\n      add\n      dup1\n      sload\n      tag_48\n      swap1\n      tag_49\n      jump\t// in\n    tag_48:\n      dup1\n      0x1f\n      add\n      0x20\n      dup1\n      swap2\n      div\n      mul\n      0x20\n      add\n      mload(0x40)\n      swap1\n      dup2\n      add\n      0x40\n      mstore\n      dup1\n      swap3\n      swap2\n      swap1\n      dup2\n      dup2\n      mstore\n      0x20\n      add\n      dup3\n      dup1\n      sload\n      tag_50\n      swap1\n      tag_49\n      jump\t// in\n    tag_50:\n      dup1\n      iszero\n      tag_51\n      jumpi\n      dup1\n      0x1f\n      lt\n      tag_52\n      jumpi\n      0x0100\n      dup1\n      dup4\n      sload\n      div\n      mul\n      dup4\n      mstore\n      swap2\n      0x20\n      add\n      swap2\n      jump(tag_51)\n    tag_52:\n      dup3\n      add\n      swap2\n      swap1\n      0x00\n      mstore\n      keccak256(0x00, 0x20)\n      swap1\n    tag_53:\n      dup2\n      sload\n      dup2\n      mstore\n      swap1\n      0x01\n      add\n      swap1\n      0x20\n      add\n      dup1\n      dup4\n      gt\n      tag_53\n      jumpi\n      dup3\n      swap1\n      sub\n      0x1f\n      and\n      dup3\n      add\n      swap2\n    tag_51:\n      pop\n      pop\n      pop\n      pop\n      pop\n      swap1\n      dup1\n      0x01\n      add\n      sload\n      swap1\n      dup1\n      0x02\n      add\n      sload\n      swap1\n      pop\n      dup4\n      jump\t// out\n        /* \"contracts/Ownable.sol\":90:110  address public owner */\n    tag_25:\n      0x00\n      dup1\n      sload\n      swap1\n      0x0100\n      exp\n      swap1\n      div\n      0xffffffffffffffffffffffffffffffffffffffff\n      and\n      dup2\n      jump\t// out\n        /* \"contracts/Store.sol\":609:815  function updateProductQuantity(uint index, uint quantity) public onlyOwner {\r... */\n    tag_31:\n        /* \"contracts/Ownable.sol\":236:241  owner */\n      0x00\n      dup1\n      sload\n      swap1\n      0x0100\n      exp\n      swap1\n      div\n      0xffffffffffffffffffffffffffffffffffffffff\n      and\n        /* \"contracts/Ownable.sol\":222:241  msg.sender == owner */\n      0xffffffffffffffffffffffffffffffffffffffff\n      and\n        /* \"contracts/Ownable.sol\":222:232  msg.sender */\n      caller\n        /* \"contracts/Ownable.sol\":222:241  msg.sender == owner */\n      0xffffffffffffffffffffffffffffffffffffffff\n      and\n      eq\n        /* \"contracts/Ownable.sol\":214:268  require(msg.sender == owner, \"You are not the owner!\") */\n      tag_55\n      jumpi\n      mload(0x40)\n      0x08c379a000000000000000000000000000000000000000000000000000000000\n      dup2\n      mstore\n      0x04\n      add\n      tag_56\n      swap1\n      tag_35\n      jump\t// in\n    tag_56:\n      mload(0x40)\n      dup1\n      swap2\n      sub\n      swap1\n      revert\n    tag_55:\n        /* \"contracts/Store.sol\":711:719  products */\n      0x01\n        /* \"contracts/Store.sol\":711:726  products.length */\n      dup1\n      sload\n      swap1\n      pop\n        /* \"contracts/Store.sol\":703:708  index */\n      dup3\n        /* \"contracts/Store.sol\":703:726  index < products.length */\n      lt\n        /* \"contracts/Store.sol\":695:759  require(index < products.length, \"The product is not existing!\") */\n      tag_58\n      jumpi\n      mload(0x40)\n      0x08c379a000000000000000000000000000000000000000000000000000000000\n      dup2\n      mstore\n      0x04\n      add\n      tag_59\n      swap1\n      tag_60\n      jump\t// in\n    tag_59:\n      mload(0x40)\n      dup1\n      swap2\n      sub\n      swap1\n      revert\n    tag_58:\n        /* \"contracts/Store.sol\":799:807  quantity */\n      dup1\n        /* \"contracts/Store.sol\":772:780  products */\n      0x01\n        /* \"contracts/Store.sol\":781:786  index */\n      dup4\n        /* \"contracts/Store.sol\":772:787  products[index] */\n      dup2\n      sload\n      dup2\n      lt\n      tag_61\n      jumpi\n      tag_62\n      tag_63\n      jump\t// in\n    tag_62:\n    tag_61:\n      swap1\n      0x00\n      mstore\n      keccak256(0x00, 0x20)\n      swap1\n      0x03\n      mul\n      add\n        /* \"contracts/Store.sol\":772:796  products[index].quantity */\n      0x01\n      add\n        /* \"contracts/Store.sol\":772:807  products[index].quantity = quantity */\n      dup2\n      swap1\n      sstore\n      pop\n        /* \"contracts/Store.sol\":609:815  function updateProductQuantity(uint index, uint quantity) public onlyOwner {\r... */\n      pop\n      pop\n      jump\t// out\n    tag_45:\n      dup3\n      dup1\n      sload\n      tag_65\n      swap1\n      tag_49\n      jump\t// in\n    tag_65:\n      swap1\n      0x00\n      mstore\n      keccak256(0x00, 0x20)\n      swap1\n      0x1f\n      add\n      0x20\n      swap1\n      div\n      dup2\n      add\n      swap3\n      dup3\n      tag_67\n      jumpi\n      0x00\n      dup6\n      sstore\n      jump(tag_66)\n    tag_67:\n      dup3\n      0x1f\n      lt\n      tag_68\n      jumpi\n      dup1\n      mload\n      not(0xff)\n      and\n      dup4\n      dup1\n      add\n      or\n      dup6\n      sstore\n      jump(tag_66)\n    tag_68:\n      dup3\n      dup1\n      add\n      0x01\n      add\n      dup6\n      sstore\n      dup3\n      iszero\n      tag_66\n      jumpi\n      swap2\n      dup3\n      add\n    tag_69:\n      dup3\n      dup2\n      gt\n      iszero\n      tag_70\n      jumpi\n      dup3\n      mload\n      dup3\n      sstore\n      swap2\n      0x20\n      add\n      swap2\n      swap1\n      0x01\n      add\n      swap1\n      jump(tag_69)\n    tag_70:\n    tag_66:\n      pop\n      swap1\n      pop\n      tag_71\n      swap2\n      swap1\n      tag_72\n      jump\t// in\n    tag_71:\n      pop\n      swap1\n      jump\t// out\n    tag_72:\n    tag_73:\n      dup1\n      dup3\n      gt\n      iszero\n      tag_74\n      jumpi\n      0x00\n      dup2\n      0x00\n      swap1\n      sstore\n      pop\n      0x01\n      add\n      jump(tag_73)\n    tag_74:\n      pop\n      swap1\n      jump\t// out\n        /* \"#utility.yul\":7:419   */\n    tag_76:\n        /* \"#utility.yul\":85:90   */\n      0x00\n        /* \"#utility.yul\":110:176   */\n      tag_78\n        /* \"#utility.yul\":126:175   */\n      tag_79\n        /* \"#utility.yul\":168:174   */\n      dup5\n        /* \"#utility.yul\":126:175   */\n      tag_80\n      jump\t// in\n    tag_79:\n        /* \"#utility.yul\":110:176   */\n      tag_81\n      jump\t// in\n    tag_78:\n        /* \"#utility.yul\":101:176   */\n      swap1\n      pop\n        /* \"#utility.yul\":199:205   */\n      dup3\n        /* \"#utility.yul\":192:197   */\n      dup2\n        /* \"#utility.yul\":185:206   */\n      mstore\n        /* \"#utility.yul\":237:241   */\n      0x20\n        /* \"#utility.yul\":230:235   */\n      dup2\n        /* \"#utility.yul\":226:242   */\n      add\n        /* \"#utility.yul\":275:278   */\n      dup5\n        /* \"#utility.yul\":266:272   */\n      dup5\n        /* \"#utility.yul\":261:264   */\n      dup5\n        /* \"#utility.yul\":257:273   */\n      add\n        /* \"#utility.yul\":254:279   */\n      gt\n        /* \"#utility.yul\":251:363   */\n      iszero\n      tag_82\n      jumpi\n        /* \"#utility.yul\":282:361   */\n      tag_83\n      tag_84\n      jump\t// in\n    tag_83:\n        /* \"#utility.yul\":251:363   */\n    tag_82:\n        /* \"#utility.yul\":372:413   */\n      tag_85\n        /* \"#utility.yul\":406:412   */\n      dup5\n        /* \"#utility.yul\":401:404   */\n      dup3\n        /* \"#utility.yul\":396:399   */\n      dup6\n        /* \"#utility.yul\":372:413   */\n      tag_86\n      jump\t// in\n    tag_85:\n        /* \"#utility.yul\":91:419   */\n      pop\n        /* \"#utility.yul\":7:419   */\n      swap4\n      swap3\n      pop\n      pop\n      pop\n      jump\t// out\n        /* \"#utility.yul\":439:992   */\n    tag_87:\n        /* \"#utility.yul\":497:505   */\n      0x00\n        /* \"#utility.yul\":507:513   */\n      dup1\n        /* \"#utility.yul\":557:560   */\n      dup4\n        /* \"#utility.yul\":550:554   */\n      0x1f\n        /* \"#utility.yul\":542:548   */\n      dup5\n        /* \"#utility.yul\":538:555   */\n      add\n        /* \"#utility.yul\":534:561   */\n      slt\n        /* \"#utility.yul\":524:646   */\n      tag_89\n      jumpi\n        /* \"#utility.yul\":565:644   */\n      tag_90\n      tag_91\n      jump\t// in\n    tag_90:\n        /* \"#utility.yul\":524:646   */\n    tag_89:\n        /* \"#utility.yul\":678:684   */\n      dup3\n        /* \"#utility.yul\":665:685   */\n      calldataload\n        /* \"#utility.yul\":655:685   */\n      swap1\n      pop\n        /* \"#utility.yul\":708:726   */\n      0xffffffffffffffff\n        /* \"#utility.yul\":700:706   */\n      dup2\n        /* \"#utility.yul\":697:727   */\n      gt\n        /* \"#utility.yul\":694:811   */\n      iszero\n      tag_92\n      jumpi\n        /* \"#utility.yul\":730:809   */\n      tag_93\n      tag_94\n      jump\t// in\n    tag_93:\n        /* \"#utility.yul\":694:811   */\n    tag_92:\n        /* \"#utility.yul\":844:848   */\n      0x20\n        /* \"#utility.yul\":836:842   */\n      dup4\n        /* \"#utility.yul\":832:849   */\n      add\n        /* \"#utility.yul\":820:849   */\n      swap2\n      pop\n        /* \"#utility.yul\":898:901   */\n      dup4\n        /* \"#utility.yul\":890:894   */\n      0x01\n        /* \"#utility.yul\":882:888   */\n      dup3\n        /* \"#utility.yul\":878:895   */\n      mul\n        /* \"#utility.yul\":868:876   */\n      dup4\n        /* \"#utility.yul\":864:896   */\n      add\n        /* \"#utility.yul\":861:902   */\n      gt\n        /* \"#utility.yul\":858:986   */\n      iszero\n      tag_95\n      jumpi\n        /* \"#utility.yul\":905:984   */\n      tag_96\n      tag_97\n      jump\t// in\n    tag_96:\n        /* \"#utility.yul\":858:986   */\n    tag_95:\n        /* \"#utility.yul\":439:992   */\n      swap3\n      pop\n      swap3\n      swap1\n      pop\n      jump\t// out\n        /* \"#utility.yul\":1012:1352   */\n    tag_98:\n        /* \"#utility.yul\":1068:1073   */\n      0x00\n        /* \"#utility.yul\":1117:1120   */\n      dup3\n        /* \"#utility.yul\":1110:1114   */\n      0x1f\n        /* \"#utility.yul\":1102:1108   */\n      dup4\n        /* \"#utility.yul\":1098:1115   */\n      add\n        /* \"#utility.yul\":1094:1121   */\n      slt\n        /* \"#utility.yul\":1084:1206   */\n      tag_100\n      jumpi\n        /* \"#utility.yul\":1125:1204   */\n      tag_101\n      tag_91\n      jump\t// in\n    tag_101:\n        /* \"#utility.yul\":1084:1206   */\n    tag_100:\n        /* \"#utility.yul\":1242:1248   */\n      dup2\n        /* \"#utility.yul\":1229:1249   */\n      calldataload\n        /* \"#utility.yul\":1267:1346   */\n      tag_102\n        /* \"#utility.yul\":1342:1345   */\n      dup5\n        /* \"#utility.yul\":1334:1340   */\n      dup3\n        /* \"#utility.yul\":1327:1331   */\n      0x20\n        /* \"#utility.yul\":1319:1325   */\n      dup7\n        /* \"#utility.yul\":1315:1332   */\n      add\n        /* \"#utility.yul\":1267:1346   */\n      tag_76\n      jump\t// in\n    tag_102:\n        /* \"#utility.yul\":1258:1346   */\n      swap2\n      pop\n        /* \"#utility.yul\":1074:1352   */\n      pop\n        /* \"#utility.yul\":1012:1352   */\n      swap3\n      swap2\n      pop\n      pop\n      jump\t// out\n        /* \"#utility.yul\":1358:1497   */\n    tag_103:\n        /* \"#utility.yul\":1404:1409   */\n      0x00\n        /* \"#utility.yul\":1442:1448   */\n      dup2\n        /* \"#utility.yul\":1429:1449   */\n      calldataload\n        /* \"#utility.yul\":1420:1449   */\n      swap1\n      pop\n        /* \"#utility.yul\":1458:1491   */\n      tag_105\n        /* \"#utility.yul\":1485:1490   */\n      dup2\n        /* \"#utility.yul\":1458:1491   */\n      tag_106\n      jump\t// in\n    tag_105:\n        /* \"#utility.yul\":1358:1497   */\n      swap3\n      swap2\n      pop\n      pop\n      jump\t// out\n        /* \"#utility.yul\":1503:2322   */\n    tag_10:\n        /* \"#utility.yul\":1592:1598   */\n      0x00\n        /* \"#utility.yul\":1600:1606   */\n      dup1\n        /* \"#utility.yul\":1608:1614   */\n      0x00\n        /* \"#utility.yul\":1616:1622   */\n      dup1\n        /* \"#utility.yul\":1665:1667   */\n      0x60\n        /* \"#utility.yul\":1653:1662   */\n      dup6\n        /* \"#utility.yul\":1644:1651   */\n      dup8\n        /* \"#utility.yul\":1640:1663   */\n      sub\n        /* \"#utility.yul\":1636:1668   */\n      slt\n        /* \"#utility.yul\":1633:1752   */\n      iszero\n      tag_108\n      jumpi\n        /* \"#utility.yul\":1671:1750   */\n      tag_109\n      tag_110\n      jump\t// in\n    tag_109:\n        /* \"#utility.yul\":1633:1752   */\n    tag_108:\n        /* \"#utility.yul\":1819:1820   */\n      0x00\n        /* \"#utility.yul\":1808:1817   */\n      dup6\n        /* \"#utility.yul\":1804:1821   */\n      add\n        /* \"#utility.yul\":1791:1822   */\n      calldataload\n        /* \"#utility.yul\":1849:1867   */\n      0xffffffffffffffff\n        /* \"#utility.yul\":1841:1847   */\n      dup2\n        /* \"#utility.yul\":1838:1868   */\n      gt\n        /* \"#utility.yul\":1835:1952   */\n      iszero\n      tag_111\n      jumpi\n        /* \"#utility.yul\":1871:1950   */\n      tag_112\n      tag_113\n      jump\t// in\n    tag_112:\n        /* \"#utility.yul\":1835:1952   */\n    tag_111:\n        /* \"#utility.yul\":1984:2049   */\n      tag_114\n        /* \"#utility.yul\":2041:2048   */\n      dup8\n        /* \"#utility.yul\":2032:2038   */\n      dup3\n        /* \"#utility.yul\":2021:2030   */\n      dup9\n        /* \"#utility.yul\":2017:2039   */\n      add\n        /* \"#utility.yul\":1984:2049   */\n      tag_87\n      jump\t// in\n    tag_114:\n        /* \"#utility.yul\":1966:2049   */\n      swap5\n      pop\n      swap5\n      pop\n        /* \"#utility.yul\":1762:2059   */\n      pop\n        /* \"#utility.yul\":2098:2100   */\n      0x20\n        /* \"#utility.yul\":2124:2177   */\n      tag_115\n        /* \"#utility.yul\":2169:2176   */\n      dup8\n        /* \"#utility.yul\":2160:2166   */\n      dup3\n        /* \"#utility.yul\":2149:2158   */\n      dup9\n        /* \"#utility.yul\":2145:2167   */\n      add\n        /* \"#utility.yul\":2124:2177   */\n      tag_103\n      jump\t// in\n    tag_115:\n        /* \"#utility.yul\":2114:2177   */\n      swap3\n      pop\n        /* \"#utility.yul\":2069:2187   */\n      pop\n        /* \"#utility.yul\":2226:2228   */\n      0x40\n        /* \"#utility.yul\":2252:2305   */\n      tag_116\n        /* \"#utility.yul\":2297:2304   */\n      dup8\n        /* \"#utility.yul\":2288:2294   */\n      dup3\n        /* \"#utility.yul\":2277:2286   */\n      dup9\n        /* \"#utility.yul\":2273:2295   */\n      add\n        /* \"#utility.yul\":2252:2305   */\n      tag_103\n      jump\t// in\n    tag_116:\n        /* \"#utility.yul\":2242:2305   */\n      swap2\n      pop\n        /* \"#utility.yul\":2197:2315   */\n      pop\n        /* \"#utility.yul\":1503:2322   */\n      swap3\n      swap6\n      swap2\n      swap5\n      pop\n      swap3\n      pop\n      jump\t// out\n        /* \"#utility.yul\":2328:2837   */\n    tag_14:\n        /* \"#utility.yul\":2397:2403   */\n      0x00\n        /* \"#utility.yul\":2446:2448   */\n      0x20\n        /* \"#utility.yul\":2434:2443   */\n      dup3\n        /* \"#utility.yul\":2425:2432   */\n      dup5\n        /* \"#utility.yul\":2421:2444   */\n      sub\n        /* \"#utility.yul\":2417:2449   */\n      slt\n        /* \"#utility.yul\":2414:2533   */\n      iszero\n      tag_118\n      jumpi\n        /* \"#utility.yul\":2452:2531   */\n      tag_119\n      tag_110\n      jump\t// in\n    tag_119:\n        /* \"#utility.yul\":2414:2533   */\n    tag_118:\n        /* \"#utility.yul\":2600:2601   */\n      0x00\n        /* \"#utility.yul\":2589:2598   */\n      dup3\n        /* \"#utility.yul\":2585:2602   */\n      add\n        /* \"#utility.yul\":2572:2603   */\n      calldataload\n        /* \"#utility.yul\":2630:2648   */\n      0xffffffffffffffff\n        /* \"#utility.yul\":2622:2628   */\n      dup2\n        /* \"#utility.yul\":2619:2649   */\n      gt\n        /* \"#utility.yul\":2616:2733   */\n      iszero\n      tag_120\n      jumpi\n        /* \"#utility.yul\":2652:2731   */\n      tag_121\n      tag_113\n      jump\t// in\n    tag_121:\n        /* \"#utility.yul\":2616:2733   */\n    tag_120:\n        /* \"#utility.yul\":2757:2820   */\n      tag_122\n        /* \"#utility.yul\":2812:2819   */\n      dup5\n        /* \"#utility.yul\":2803:2809   */\n      dup3\n        /* \"#utility.yul\":2792:2801   */\n      dup6\n        /* \"#utility.yul\":2788:2810   */\n      add\n        /* \"#utility.yul\":2757:2820   */\n      tag_98\n      jump\t// in\n    tag_122:\n        /* \"#utility.yul\":2747:2820   */\n      swap2\n      pop\n        /* \"#utility.yul\":2543:2830   */\n      pop\n        /* \"#utility.yul\":2328:2837   */\n      swap3\n      swap2\n      pop\n      pop\n      jump\t// out\n        /* \"#utility.yul\":2843:3172   */\n    tag_20:\n        /* \"#utility.yul\":2902:2908   */\n      0x00\n        /* \"#utility.yul\":2951:2953   */\n      0x20\n        /* \"#utility.yul\":2939:2948   */\n      dup3\n        /* \"#utility.yul\":2930:2937   */\n      dup5\n        /* \"#utility.yul\":2926:2949   */\n      sub\n        /* \"#utility.yul\":2922:2954   */\n      slt\n        /* \"#utility.yul\":2919:3038   */\n      iszero\n      tag_124\n      jumpi\n        /* \"#utility.yul\":2957:3036   */\n      tag_125\n      tag_110\n      jump\t// in\n    tag_125:\n        /* \"#utility.yul\":2919:3038   */\n    tag_124:\n        /* \"#utility.yul\":3077:3078   */\n      0x00\n        /* \"#utility.yul\":3102:3155   */\n      tag_126\n        /* \"#utility.yul\":3147:3154   */\n      dup5\n        /* \"#utility.yul\":3138:3144   */\n      dup3\n        /* \"#utility.yul\":3127:3136   */\n      dup6\n        /* \"#utility.yul\":3123:3145   */\n      add\n        /* \"#utility.yul\":3102:3155   */\n      tag_103\n      jump\t// in\n    tag_126:\n        /* \"#utility.yul\":3092:3155   */\n      swap2\n      pop\n        /* \"#utility.yul\":3048:3165   */\n      pop\n        /* \"#utility.yul\":2843:3172   */\n      swap3\n      swap2\n      pop\n      pop\n      jump\t// out\n        /* \"#utility.yul\":3178:3652   */\n    tag_30:\n        /* \"#utility.yul\":3246:3252   */\n      0x00\n        /* \"#utility.yul\":3254:3260   */\n      dup1\n        /* \"#utility.yul\":3303:3305   */\n      0x40\n        /* \"#utility.yul\":3291:3300   */\n      dup4\n        /* \"#utility.yul\":3282:3289   */\n      dup6\n        /* \"#utility.yul\":3278:3301   */\n      sub\n        /* \"#utility.yul\":3274:3306   */\n      slt\n        /* \"#utility.yul\":3271:3390   */\n      iszero\n      tag_128\n      jumpi\n        /* \"#utility.yul\":3309:3388   */\n      tag_129\n      tag_110\n      jump\t// in\n    tag_129:\n        /* \"#utility.yul\":3271:3390   */\n    tag_128:\n        /* \"#utility.yul\":3429:3430   */\n      0x00\n        /* \"#utility.yul\":3454:3507   */\n      tag_130\n        /* \"#utility.yul\":3499:3506   */\n      dup6\n        /* \"#utility.yul\":3490:3496   */\n      dup3\n        /* \"#utility.yul\":3479:3488   */\n      dup7\n        /* \"#utility.yul\":3475:3497   */\n      add\n        /* \"#utility.yul\":3454:3507   */\n      tag_103\n      jump\t// in\n    tag_130:\n        /* \"#utility.yul\":3444:3507   */\n      swap3\n      pop\n        /* \"#utility.yul\":3400:3517   */\n      pop\n        /* \"#utility.yul\":3556:3558   */\n      0x20\n        /* \"#utility.yul\":3582:3635   */\n      tag_131\n        /* \"#utility.yul\":3627:3634   */\n      dup6\n        /* \"#utility.yul\":3618:3624   */\n      dup3\n        /* \"#utility.yul\":3607:3616   */\n      dup7\n        /* \"#utility.yul\":3603:3625   */\n      add\n        /* \"#utility.yul\":3582:3635   */\n      tag_103\n      jump\t// in\n    tag_131:\n        /* \"#utility.yul\":3572:3635   */\n      swap2\n      pop\n        /* \"#utility.yul\":3527:3645   */\n      pop\n        /* \"#utility.yul\":3178:3652   */\n      swap3\n      pop\n      swap3\n      swap1\n      pop\n      jump\t// out\n        /* \"#utility.yul\":3658:3776   */\n    tag_132:\n        /* \"#utility.yul\":3745:3769   */\n      tag_134\n        /* \"#utility.yul\":3763:3768   */\n      dup2\n        /* \"#utility.yul\":3745:3769   */\n      tag_135\n      jump\t// in\n    tag_134:\n        /* \"#utility.yul\":3740:3743   */\n      dup3\n        /* \"#utility.yul\":3733:3770   */\n      mstore\n        /* \"#utility.yul\":3658:3776   */\n      pop\n      pop\n      jump\t// out\n        /* \"#utility.yul\":3782:3891   */\n    tag_136:\n        /* \"#utility.yul\":3863:3884   */\n      tag_138\n        /* \"#utility.yul\":3878:3883   */\n      dup2\n        /* \"#utility.yul\":3863:3884   */\n      tag_139\n      jump\t// in\n    tag_138:\n        /* \"#utility.yul\":3858:3861   */\n      dup3\n        /* \"#utility.yul\":3851:3885   */\n      mstore\n        /* \"#utility.yul\":3782:3891   */\n      pop\n      pop\n      jump\t// out\n        /* \"#utility.yul\":3921:4238   */\n    tag_140:\n        /* \"#utility.yul\":4037:4040   */\n      0x00\n        /* \"#utility.yul\":4058:4147   */\n      tag_142\n        /* \"#utility.yul\":4140:4146   */\n      dup4\n        /* \"#utility.yul\":4135:4138   */\n      dup6\n        /* \"#utility.yul\":4058:4147   */\n      tag_143\n      jump\t// in\n    tag_142:\n        /* \"#utility.yul\":4051:4147   */\n      swap4\n      pop\n        /* \"#utility.yul\":4157:4200   */\n      tag_144\n        /* \"#utility.yul\":4193:4199   */\n      dup4\n        /* \"#utility.yul\":4188:4191   */\n      dup6\n        /* \"#utility.yul\":4181:4186   */\n      dup5\n        /* \"#utility.yul\":4157:4200   */\n      tag_86\n      jump\t// in\n    tag_144:\n        /* \"#utility.yul\":4225:4231   */\n      dup3\n        /* \"#utility.yul\":4220:4223   */\n      dup5\n        /* \"#utility.yul\":4216:4232   */\n      add\n        /* \"#utility.yul\":4209:4232   */\n      swap1\n      pop\n        /* \"#utility.yul\":3921:4238   */\n      swap4\n      swap3\n      pop\n      pop\n      pop\n      jump\t// out\n        /* \"#utility.yul\":4244:4608   */\n    tag_145:\n        /* \"#utility.yul\":4332:4335   */\n      0x00\n        /* \"#utility.yul\":4360:4399   */\n      tag_147\n        /* \"#utility.yul\":4393:4398   */\n      dup3\n        /* \"#utility.yul\":4360:4399   */\n      tag_148\n      jump\t// in\n    tag_147:\n        /* \"#utility.yul\":4415:4486   */\n      tag_149\n        /* \"#utility.yul\":4479:4485   */\n      dup2\n        /* \"#utility.yul\":4474:4477   */\n      dup6\n        /* \"#utility.yul\":4415:4486   */\n      tag_150\n      jump\t// in\n    tag_149:\n        /* \"#utility.yul\":4408:4486   */\n      swap4\n      pop\n        /* \"#utility.yul\":4495:4547   */\n      tag_151\n        /* \"#utility.yul\":4540:4546   */\n      dup2\n        /* \"#utility.yul\":4535:4538   */\n      dup6\n        /* \"#utility.yul\":4528:4532   */\n      0x20\n        /* \"#utility.yul\":4521:4526   */\n      dup7\n        /* \"#utility.yul\":4517:4533   */\n      add\n        /* \"#utility.yul\":4495:4547   */\n      tag_152\n      jump\t// in\n    tag_151:\n        /* \"#utility.yul\":4572:4601   */\n      tag_153\n        /* \"#utility.yul\":4594:4600   */\n      dup2\n        /* \"#utility.yul\":4572:4601   */\n      tag_154\n      jump\t// in\n    tag_153:\n        /* \"#utility.yul\":4567:4570   */\n      dup5\n        /* \"#utility.yul\":4563:4602   */\n      add\n        /* \"#utility.yul\":4556:4602   */\n      swap2\n      pop\n        /* \"#utility.yul\":4336:4608   */\n      pop\n        /* \"#utility.yul\":4244:4608   */\n      swap3\n      swap2\n      pop\n      pop\n      jump\t// out\n        /* \"#utility.yul\":4614:4980   */\n    tag_155:\n        /* \"#utility.yul\":4756:4759   */\n      0x00\n        /* \"#utility.yul\":4777:4844   */\n      tag_157\n        /* \"#utility.yul\":4841:4843   */\n      0x16\n        /* \"#utility.yul\":4836:4839   */\n      dup4\n        /* \"#utility.yul\":4777:4844   */\n      tag_150\n      jump\t// in\n    tag_157:\n        /* \"#utility.yul\":4770:4844   */\n      swap2\n      pop\n        /* \"#utility.yul\":4853:4946   */\n      tag_158\n        /* \"#utility.yul\":4942:4945   */\n      dup3\n        /* \"#utility.yul\":4853:4946   */\n      tag_159\n      jump\t// in\n    tag_158:\n        /* \"#utility.yul\":4971:4973   */\n      0x20\n        /* \"#utility.yul\":4966:4969   */\n      dup3\n        /* \"#utility.yul\":4962:4974   */\n      add\n        /* \"#utility.yul\":4955:4974   */\n      swap1\n      pop\n        /* \"#utility.yul\":4614:4980   */\n      swap2\n      swap1\n      pop\n      jump\t// out\n        /* \"#utility.yul\":4986:5352   */\n    tag_160:\n        /* \"#utility.yul\":5128:5131   */\n      0x00\n        /* \"#utility.yul\":5149:5216   */\n      tag_162\n        /* \"#utility.yul\":5213:5215   */\n      0x1c\n        /* \"#utility.yul\":5208:5211   */\n      dup4\n        /* \"#utility.yul\":5149:5216   */\n      tag_150\n      jump\t// in\n    tag_162:\n        /* \"#utility.yul\":5142:5216   */\n      swap2\n      pop\n        /* \"#utility.yul\":5225:5318   */\n      tag_163\n        /* \"#utility.yul\":5314:5317   */\n      dup3\n        /* \"#utility.yul\":5225:5318   */\n      tag_164\n      jump\t// in\n    tag_163:\n        /* \"#utility.yul\":5343:5345   */\n      0x20\n        /* \"#utility.yul\":5338:5341   */\n      dup3\n        /* \"#utility.yul\":5334:5346   */\n      add\n        /* \"#utility.yul\":5327:5346   */\n      swap1\n      pop\n        /* \"#utility.yul\":4986:5352   */\n      swap2\n      swap1\n      pop\n      jump\t// out\n        /* \"#utility.yul\":5358:5724   */\n    tag_165:\n        /* \"#utility.yul\":5500:5503   */\n      0x00\n        /* \"#utility.yul\":5521:5588   */\n      tag_167\n        /* \"#utility.yul\":5585:5587   */\n      0x24\n        /* \"#utility.yul\":5580:5583   */\n      dup4\n        /* \"#utility.yul\":5521:5588   */\n      tag_150\n      jump\t// in\n    tag_167:\n        /* \"#utility.yul\":5514:5588   */\n      swap2\n      pop\n        /* \"#utility.yul\":5597:5690   */\n      tag_168\n        /* \"#utility.yul\":5686:5689   */\n      dup3\n        /* \"#utility.yul\":5597:5690   */\n      tag_169\n      jump\t// in\n    tag_168:\n        /* \"#utility.yul\":5715:5717   */\n      0x40\n        /* \"#utility.yul\":5710:5713   */\n      dup3\n        /* \"#utility.yul\":5706:5718   */\n      add\n        /* \"#utility.yul\":5699:5718   */\n      swap1\n      pop\n        /* \"#utility.yul\":5358:5724   */\n      swap2\n      swap1\n      pop\n      jump\t// out\n        /* \"#utility.yul\":5730:5848   */\n    tag_170:\n        /* \"#utility.yul\":5817:5841   */\n      tag_172\n        /* \"#utility.yul\":5835:5840   */\n      dup2\n        /* \"#utility.yul\":5817:5841   */\n      tag_173\n      jump\t// in\n    tag_172:\n        /* \"#utility.yul\":5812:5815   */\n      dup3\n        /* \"#utility.yul\":5805:5842   */\n      mstore\n        /* \"#utility.yul\":5730:5848   */\n      pop\n      pop\n      jump\t// out\n        /* \"#utility.yul\":5854:6149   */\n    tag_38:\n        /* \"#utility.yul\":5996:5999   */\n      0x00\n        /* \"#utility.yul\":6018:6123   */\n      tag_175\n        /* \"#utility.yul\":6119:6122   */\n      dup3\n        /* \"#utility.yul\":6110:6116   */\n      dup5\n        /* \"#utility.yul\":6102:6108   */\n      dup7\n        /* \"#utility.yul\":6018:6123   */\n      tag_140\n      jump\t// in\n    tag_175:\n        /* \"#utility.yul\":6011:6123   */\n      swap2\n      pop\n        /* \"#utility.yul\":6140:6143   */\n      dup2\n        /* \"#utility.yul\":6133:6143   */\n      swap1\n      pop\n        /* \"#utility.yul\":5854:6149   */\n      swap4\n      swap3\n      pop\n      pop\n      pop\n      jump\t// out\n        /* \"#utility.yul\":6155:6377   */\n    tag_27:\n        /* \"#utility.yul\":6248:6252   */\n      0x00\n        /* \"#utility.yul\":6286:6288   */\n      0x20\n        /* \"#utility.yul\":6275:6284   */\n      dup3\n        /* \"#utility.yul\":6271:6289   */\n      add\n        /* \"#utility.yul\":6263:6289   */\n      swap1\n      pop\n        /* \"#utility.yul\":6299:6370   */\n      tag_177\n        /* \"#utility.yul\":6367:6368   */\n      0x00\n        /* \"#utility.yul\":6356:6365   */\n      dup4\n        /* \"#utility.yul\":6352:6369   */\n      add\n        /* \"#utility.yul\":6343:6349   */\n      dup5\n        /* \"#utility.yul\":6299:6370   */\n      tag_132\n      jump\t// in\n    tag_177:\n        /* \"#utility.yul\":6155:6377   */\n      swap3\n      swap2\n      pop\n      pop\n      jump\t// out\n        /* \"#utility.yul\":6383:6593   */\n    tag_17:\n        /* \"#utility.yul\":6470:6474   */\n      0x00\n        /* \"#utility.yul\":6508:6510   */\n      0x20\n        /* \"#utility.yul\":6497:6506   */\n      dup3\n        /* \"#utility.yul\":6493:6511   */\n      add\n        /* \"#utility.yul\":6485:6511   */\n      swap1\n      pop\n        /* \"#utility.yul\":6521:6586   */\n      tag_179\n        /* \"#utility.yul\":6583:6584   */\n      0x00\n        /* \"#utility.yul\":6572:6581   */\n      dup4\n        /* \"#utility.yul\":6568:6585   */\n      add\n        /* \"#utility.yul\":6559:6565   */\n      dup5\n        /* \"#utility.yul\":6521:6586   */\n      tag_136\n      jump\t// in\n    tag_179:\n        /* \"#utility.yul\":6383:6593   */\n      swap3\n      swap2\n      pop\n      pop\n      jump\t// out\n        /* \"#utility.yul\":6599:7132   */\n    tag_23:\n        /* \"#utility.yul\":6768:6772   */\n      0x00\n        /* \"#utility.yul\":6806:6808   */\n      0x60\n        /* \"#utility.yul\":6795:6804   */\n      dup3\n        /* \"#utility.yul\":6791:6809   */\n      add\n        /* \"#utility.yul\":6783:6809   */\n      swap1\n      pop\n        /* \"#utility.yul\":6855:6864   */\n      dup2\n        /* \"#utility.yul\":6849:6853   */\n      dup2\n        /* \"#utility.yul\":6845:6865   */\n      sub\n        /* \"#utility.yul\":6841:6842   */\n      0x00\n        /* \"#utility.yul\":6830:6839   */\n      dup4\n        /* \"#utility.yul\":6826:6843   */\n      add\n        /* \"#utility.yul\":6819:6866   */\n      mstore\n        /* \"#utility.yul\":6883:6961   */\n      tag_181\n        /* \"#utility.yul\":6956:6960   */\n      dup2\n        /* \"#utility.yul\":6947:6953   */\n      dup7\n        /* \"#utility.yul\":6883:6961   */\n      tag_145\n      jump\t// in\n    tag_181:\n        /* \"#utility.yul\":6875:6961   */\n      swap1\n      pop\n        /* \"#utility.yul\":6971:7043   */\n      tag_182\n        /* \"#utility.yul\":7039:7041   */\n      0x20\n        /* \"#utility.yul\":7028:7037   */\n      dup4\n        /* \"#utility.yul\":7024:7042   */\n      add\n        /* \"#utility.yul\":7015:7021   */\n      dup6\n        /* \"#utility.yul\":6971:7043   */\n      tag_170\n      jump\t// in\n    tag_182:\n        /* \"#utility.yul\":7053:7125   */\n      tag_183\n        /* \"#utility.yul\":7121:7123   */\n      0x40\n        /* \"#utility.yul\":7110:7119   */\n      dup4\n        /* \"#utility.yul\":7106:7124   */\n      add\n        /* \"#utility.yul\":7097:7103   */\n      dup5\n        /* \"#utility.yul\":7053:7125   */\n      tag_170\n      jump\t// in\n    tag_183:\n        /* \"#utility.yul\":6599:7132   */\n      swap5\n      swap4\n      pop\n      pop\n      pop\n      pop\n      jump\t// out\n        /* \"#utility.yul\":7138:7557   */\n    tag_35:\n        /* \"#utility.yul\":7304:7308   */\n      0x00\n        /* \"#utility.yul\":7342:7344   */\n      0x20\n        /* \"#utility.yul\":7331:7340   */\n      dup3\n        /* \"#utility.yul\":7327:7345   */\n      add\n        /* \"#utility.yul\":7319:7345   */\n      swap1\n      pop\n        /* \"#utility.yul\":7391:7400   */\n      dup2\n        /* \"#utility.yul\":7385:7389   */\n      dup2\n        /* \"#utility.yul\":7381:7401   */\n      sub\n        /* \"#utility.yul\":7377:7378   */\n      0x00\n        /* \"#utility.yul\":7366:7375   */\n      dup4\n        /* \"#utility.yul\":7362:7379   */\n      add\n        /* \"#utility.yul\":7355:7402   */\n      mstore\n        /* \"#utility.yul\":7419:7550   */\n      tag_185\n        /* \"#utility.yul\":7545:7549   */\n      dup2\n        /* \"#utility.yul\":7419:7550   */\n      tag_155\n      jump\t// in\n    tag_185:\n        /* \"#utility.yul\":7411:7550   */\n      swap1\n      pop\n        /* \"#utility.yul\":7138:7557   */\n      swap2\n      swap1\n      pop\n      jump\t// out\n        /* \"#utility.yul\":7563:7982   */\n    tag_60:\n        /* \"#utility.yul\":7729:7733   */\n      0x00\n        /* \"#utility.yul\":7767:7769   */\n      0x20\n        /* \"#utility.yul\":7756:7765   */\n      dup3\n        /* \"#utility.yul\":7752:7770   */\n      add\n        /* \"#utility.yul\":7744:7770   */\n      swap1\n      pop\n        /* \"#utility.yul\":7816:7825   */\n      dup2\n        /* \"#utility.yul\":7810:7814   */\n      dup2\n        /* \"#utility.yul\":7806:7826   */\n      sub\n        /* \"#utility.yul\":7802:7803   */\n      0x00\n        /* \"#utility.yul\":7791:7800   */\n      dup4\n        /* \"#utility.yul\":7787:7804   */\n      add\n        /* \"#utility.yul\":7780:7827   */\n      mstore\n        /* \"#utility.yul\":7844:7975   */\n      tag_187\n        /* \"#utility.yul\":7970:7974   */\n      dup2\n        /* \"#utility.yul\":7844:7975   */\n      tag_160\n      jump\t// in\n    tag_187:\n        /* \"#utility.yul\":7836:7975   */\n      swap1\n      pop\n        /* \"#utility.yul\":7563:7982   */\n      swap2\n      swap1\n      pop\n      jump\t// out\n        /* \"#utility.yul\":7988:8407   */\n    tag_41:\n        /* \"#utility.yul\":8154:8158   */\n      0x00\n        /* \"#utility.yul\":8192:8194   */\n      0x20\n        /* \"#utility.yul\":8181:8190   */\n      dup3\n        /* \"#utility.yul\":8177:8195   */\n      add\n        /* \"#utility.yul\":8169:8195   */\n      swap1\n      pop\n        /* \"#utility.yul\":8241:8250   */\n      dup2\n        /* \"#utility.yul\":8235:8239   */\n      dup2\n        /* \"#utility.yul\":8231:8251   */\n      sub\n        /* \"#utility.yul\":8227:8228   */\n      0x00\n        /* \"#utility.yul\":8216:8225   */\n      dup4\n        /* \"#utility.yul\":8212:8229   */\n      add\n        /* \"#utility.yul\":8205:8252   */\n      mstore\n        /* \"#utility.yul\":8269:8400   */\n      tag_189\n        /* \"#utility.yul\":8395:8399   */\n      dup2\n        /* \"#utility.yul\":8269:8400   */\n      tag_165\n      jump\t// in\n    tag_189:\n        /* \"#utility.yul\":8261:8400   */\n      swap1\n      pop\n        /* \"#utility.yul\":7988:8407   */\n      swap2\n      swap1\n      pop\n      jump\t// out\n        /* \"#utility.yul\":8413:8542   */\n    tag_81:\n        /* \"#utility.yul\":8447:8453   */\n      0x00\n        /* \"#utility.yul\":8474:8494   */\n      tag_191\n      tag_192\n      jump\t// in\n    tag_191:\n        /* \"#utility.yul\":8464:8494   */\n      swap1\n      pop\n        /* \"#utility.yul\":8503:8536   */\n      tag_193\n        /* \"#utility.yul\":8531:8535   */\n      dup3\n        /* \"#utility.yul\":8523:8529   */\n      dup3\n        /* \"#utility.yul\":8503:8536   */\n      tag_194\n      jump\t// in\n    tag_193:\n        /* \"#utility.yul\":8413:8542   */\n      swap2\n      swap1\n      pop\n      jump\t// out\n        /* \"#utility.yul\":8548:8623   */\n    tag_192:\n        /* \"#utility.yul\":8581:8587   */\n      0x00\n        /* \"#utility.yul\":8614:8616   */\n      0x40\n        /* \"#utility.yul\":8608:8617   */\n      mload\n        /* \"#utility.yul\":8598:8617   */\n      swap1\n      pop\n        /* \"#utility.yul\":8548:8623   */\n      swap1\n      jump\t// out\n        /* \"#utility.yul\":8629:8937   */\n    tag_80:\n        /* \"#utility.yul\":8691:8695   */\n      0x00\n        /* \"#utility.yul\":8781:8799   */\n      0xffffffffffffffff\n        /* \"#utility.yul\":8773:8779   */\n      dup3\n        /* \"#utility.yul\":8770:8800   */\n      gt\n        /* \"#utility.yul\":8767:8823   */\n      iszero\n      tag_197\n      jumpi\n        /* \"#utility.yul\":8803:8821   */\n      tag_198\n      tag_199\n      jump\t// in\n    tag_198:\n        /* \"#utility.yul\":8767:8823   */\n    tag_197:\n        /* \"#utility.yul\":8841:8870   */\n      tag_200\n        /* \"#utility.yul\":8863:8869   */\n      dup3\n        /* \"#utility.yul\":8841:8870   */\n      tag_154\n      jump\t// in\n    tag_200:\n        /* \"#utility.yul\":8833:8870   */\n      swap1\n      pop\n        /* \"#utility.yul\":8925:8929   */\n      0x20\n        /* \"#utility.yul\":8919:8923   */\n      dup2\n        /* \"#utility.yul\":8915:8930   */\n      add\n        /* \"#utility.yul\":8907:8930   */\n      swap1\n      pop\n        /* \"#utility.yul\":8629:8937   */\n      swap2\n      swap1\n      pop\n      jump\t// out\n        /* \"#utility.yul\":8943:9042   */\n    tag_148:\n        /* \"#utility.yul\":8995:9001   */\n      0x00\n        /* \"#utility.yul\":9029:9034   */\n      dup2\n        /* \"#utility.yul\":9023:9035   */\n      mload\n        /* \"#utility.yul\":9013:9035   */\n      swap1\n      pop\n        /* \"#utility.yul\":8943:9042   */\n      swap2\n      swap1\n      pop\n      jump\t// out\n        /* \"#utility.yul\":9048:9217   */\n    tag_150:\n        /* \"#utility.yul\":9132:9143   */\n      0x00\n        /* \"#utility.yul\":9166:9172   */\n      dup3\n        /* \"#utility.yul\":9161:9164   */\n      dup3\n        /* \"#utility.yul\":9154:9173   */\n      mstore\n        /* \"#utility.yul\":9206:9210   */\n      0x20\n        /* \"#utility.yul\":9201:9204   */\n      dup3\n        /* \"#utility.yul\":9197:9211   */\n      add\n        /* \"#utility.yul\":9182:9211   */\n      swap1\n      pop\n        /* \"#utility.yul\":9048:9217   */\n      swap3\n      swap2\n      pop\n      pop\n      jump\t// out\n        /* \"#utility.yul\":9223:9371   */\n    tag_143:\n        /* \"#utility.yul\":9325:9336   */\n      0x00\n        /* \"#utility.yul\":9362:9365   */\n      dup2\n        /* \"#utility.yul\":9347:9365   */\n      swap1\n      pop\n        /* \"#utility.yul\":9223:9371   */\n      swap3\n      swap2\n      pop\n      pop\n      jump\t// out\n        /* \"#utility.yul\":9377:9473   */\n    tag_135:\n        /* \"#utility.yul\":9414:9421   */\n      0x00\n        /* \"#utility.yul\":9443:9467   */\n      tag_205\n        /* \"#utility.yul\":9461:9466   */\n      dup3\n        /* \"#utility.yul\":9443:9467   */\n      tag_206\n      jump\t// in\n    tag_205:\n        /* \"#utility.yul\":9432:9467   */\n      swap1\n      pop\n        /* \"#utility.yul\":9377:9473   */\n      swap2\n      swap1\n      pop\n      jump\t// out\n        /* \"#utility.yul\":9479:9569   */\n    tag_139:\n        /* \"#utility.yul\":9513:9520   */\n      0x00\n        /* \"#utility.yul\":9556:9561   */\n      dup2\n        /* \"#utility.yul\":9549:9562   */\n      iszero\n        /* \"#utility.yul\":9542:9563   */\n      iszero\n        /* \"#utility.yul\":9531:9563   */\n      swap1\n      pop\n        /* \"#utility.yul\":9479:9569   */\n      swap2\n      swap1\n      pop\n      jump\t// out\n        /* \"#utility.yul\":9575:9701   */\n    tag_206:\n        /* \"#utility.yul\":9612:9619   */\n      0x00\n        /* \"#utility.yul\":9652:9694   */\n      0xffffffffffffffffffffffffffffffffffffffff\n        /* \"#utility.yul\":9645:9650   */\n      dup3\n        /* \"#utility.yul\":9641:9695   */\n      and\n        /* \"#utility.yul\":9630:9695   */\n      swap1\n      pop\n        /* \"#utility.yul\":9575:9701   */\n      swap2\n      swap1\n      pop\n      jump\t// out\n        /* \"#utility.yul\":9707:9784   */\n    tag_173:\n        /* \"#utility.yul\":9744:9751   */\n      0x00\n        /* \"#utility.yul\":9773:9778   */\n      dup2\n        /* \"#utility.yul\":9762:9778   */\n      swap1\n      pop\n        /* \"#utility.yul\":9707:9784   */\n      swap2\n      swap1\n      pop\n      jump\t// out\n        /* \"#utility.yul\":9790:9944   */\n    tag_86:\n        /* \"#utility.yul\":9874:9880   */\n      dup3\n        /* \"#utility.yul\":9869:9872   */\n      dup2\n        /* \"#utility.yul\":9864:9867   */\n      dup4\n        /* \"#utility.yul\":9851:9881   */\n      calldatacopy\n        /* \"#utility.yul\":9936:9937   */\n      0x00\n        /* \"#utility.yul\":9927:9933   */\n      dup4\n        /* \"#utility.yul\":9922:9925   */\n      dup4\n        /* \"#utility.yul\":9918:9934   */\n      add\n        /* \"#utility.yul\":9911:9938   */\n      mstore\n        /* \"#utility.yul\":9790:9944   */\n      pop\n      pop\n      pop\n      jump\t// out\n        /* \"#utility.yul\":9950:10257   */\n    tag_152:\n        /* \"#utility.yul\":10018:10019   */\n      0x00\n        /* \"#utility.yul\":10028:10141   */\n    tag_212:\n        /* \"#utility.yul\":10042:10048   */\n      dup4\n        /* \"#utility.yul\":10039:10040   */\n      dup2\n        /* \"#utility.yul\":10036:10049   */\n      lt\n        /* \"#utility.yul\":10028:10141   */\n      iszero\n      tag_214\n      jumpi\n        /* \"#utility.yul\":10127:10128   */\n      dup1\n        /* \"#utility.yul\":10122:10125   */\n      dup3\n        /* \"#utility.yul\":10118:10129   */\n      add\n        /* \"#utility.yul\":10112:10130   */\n      mload\n        /* \"#utility.yul\":10108:10109   */\n      dup2\n        /* \"#utility.yul\":10103:10106   */\n      dup5\n        /* \"#utility.yul\":10099:10110   */\n      add\n        /* \"#utility.yul\":10092:10131   */\n      mstore\n        /* \"#utility.yul\":10064:10066   */\n      0x20\n        /* \"#utility.yul\":10061:10062   */\n      dup2\n        /* \"#utility.yul\":10057:10067   */\n      add\n        /* \"#utility.yul\":10052:10067   */\n      swap1\n      pop\n        /* \"#utility.yul\":10028:10141   */\n      jump(tag_212)\n    tag_214:\n        /* \"#utility.yul\":10159:10165   */\n      dup4\n        /* \"#utility.yul\":10156:10157   */\n      dup2\n        /* \"#utility.yul\":10153:10166   */\n      gt\n        /* \"#utility.yul\":10150:10251   */\n      iszero\n      tag_215\n      jumpi\n        /* \"#utility.yul\":10239:10240   */\n      0x00\n        /* \"#utility.yul\":10230:10236   */\n      dup5\n        /* \"#utility.yul\":10225:10228   */\n      dup5\n        /* \"#utility.yul\":10221:10237   */\n      add\n        /* \"#utility.yul\":10214:10241   */\n      mstore\n        /* \"#utility.yul\":10150:10251   */\n    tag_215:\n        /* \"#utility.yul\":9999:10257   */\n      pop\n        /* \"#utility.yul\":9950:10257   */\n      pop\n      pop\n      pop\n      jump\t// out\n        /* \"#utility.yul\":10263:10583   */\n    tag_49:\n        /* \"#utility.yul\":10307:10313   */\n      0x00\n        /* \"#utility.yul\":10344:10345   */\n      0x02\n        /* \"#utility.yul\":10338:10342   */\n      dup3\n        /* \"#utility.yul\":10334:10346   */\n      div\n        /* \"#utility.yul\":10324:10346   */\n      swap1\n      pop\n        /* \"#utility.yul\":10391:10392   */\n      0x01\n        /* \"#utility.yul\":10385:10389   */\n      dup3\n        /* \"#utility.yul\":10381:10393   */\n      and\n        /* \"#utility.yul\":10412:10430   */\n      dup1\n        /* \"#utility.yul\":10402:10483   */\n      tag_217\n      jumpi\n        /* \"#utility.yul\":10468:10472   */\n      0x7f\n        /* \"#utility.yul\":10460:10466   */\n      dup3\n        /* \"#utility.yul\":10456:10473   */\n      and\n        /* \"#utility.yul\":10446:10473   */\n      swap2\n      pop\n        /* \"#utility.yul\":10402:10483   */\n    tag_217:\n        /* \"#utility.yul\":10530:10532   */\n      0x20\n        /* \"#utility.yul\":10522:10528   */\n      dup3\n        /* \"#utility.yul\":10519:10533   */\n      lt\n        /* \"#utility.yul\":10499:10517   */\n      dup2\n        /* \"#utility.yul\":10496:10534   */\n      eq\n        /* \"#utility.yul\":10493:10577   */\n      iszero\n      tag_218\n      jumpi\n        /* \"#utility.yul\":10549:10567   */\n      tag_219\n      tag_220\n      jump\t// in\n    tag_219:\n        /* \"#utility.yul\":10493:10577   */\n    tag_218:\n        /* \"#utility.yul\":10314:10583   */\n      pop\n        /* \"#utility.yul\":10263:10583   */\n      swap2\n      swap1\n      pop\n      jump\t// out\n        /* \"#utility.yul\":10589:10870   */\n    tag_194:\n        /* \"#utility.yul\":10672:10699   */\n      tag_222\n        /* \"#utility.yul\":10694:10698   */\n      dup3\n        /* \"#utility.yul\":10672:10699   */\n      tag_154\n      jump\t// in\n    tag_222:\n        /* \"#utility.yul\":10664:10670   */\n      dup2\n        /* \"#utility.yul\":10660:10700   */\n      add\n        /* \"#utility.yul\":10802:10808   */\n      dup2\n        /* \"#utility.yul\":10790:10800   */\n      dup2\n        /* \"#utility.yul\":10787:10809   */\n      lt\n        /* \"#utility.yul\":10766:10784   */\n      0xffffffffffffffff\n        /* \"#utility.yul\":10754:10764   */\n      dup3\n        /* \"#utility.yul\":10751:10785   */\n      gt\n        /* \"#utility.yul\":10748:10810   */\n      or\n        /* \"#utility.yul\":10745:10833   */\n      iszero\n      tag_223\n      jumpi\n        /* \"#utility.yul\":10813:10831   */\n      tag_224\n      tag_199\n      jump\t// in\n    tag_224:\n        /* \"#utility.yul\":10745:10833   */\n    tag_223:\n        /* \"#utility.yul\":10853:10863   */\n      dup1\n        /* \"#utility.yul\":10849:10851   */\n      0x40\n        /* \"#utility.yul\":10842:10864   */\n      mstore\n        /* \"#utility.yul\":10632:10870   */\n      pop\n        /* \"#utility.yul\":10589:10870   */\n      pop\n      pop\n      jump\t// out\n        /* \"#utility.yul\":10876:11056   */\n    tag_220:\n        /* \"#utility.yul\":10924:11001   */\n      0x4e487b7100000000000000000000000000000000000000000000000000000000\n        /* \"#utility.yul\":10921:10922   */\n      0x00\n        /* \"#utility.yul\":10914:11002   */\n      mstore\n        /* \"#utility.yul\":11021:11025   */\n      0x22\n        /* \"#utility.yul\":11018:11019   */\n      0x04\n        /* \"#utility.yul\":11011:11026   */\n      mstore\n        /* \"#utility.yul\":11045:11049   */\n      0x24\n        /* \"#utility.yul\":11042:11043   */\n      0x00\n        /* \"#utility.yul\":11035:11050   */\n      revert\n        /* \"#utility.yul\":11062:11242   */\n    tag_63:\n        /* \"#utility.yul\":11110:11187   */\n      0x4e487b7100000000000000000000000000000000000000000000000000000000\n        /* \"#utility.yul\":11107:11108   */\n      0x00\n        /* \"#utility.yul\":11100:11188   */\n      mstore\n        /* \"#utility.yul\":11207:11211   */\n      0x32\n        /* \"#utility.yul\":11204:11205   */\n      0x04\n        /* \"#utility.yul\":11197:11212   */\n      mstore\n        /* \"#utility.yul\":11231:11235   */\n      0x24\n        /* \"#utility.yul\":11228:11229   */\n      0x00\n        /* \"#utility.yul\":11221:11236   */\n      revert\n        /* \"#utility.yul\":11248:11428   */\n    tag_199:\n        /* \"#utility.yul\":11296:11373   */\n      0x4e487b7100000000000000000000000000000000000000000000000000000000\n        /* \"#utility.yul\":11293:11294   */\n      0x00\n        /* \"#utility.yul\":11286:11374   */\n      mstore\n        /* \"#utility.yul\":11393:11397   */\n      0x41\n        /* \"#utility.yul\":11390:11391   */\n      0x04\n        /* \"#utility.yul\":11383:11398   */\n      mstore\n        /* \"#utility.yul\":11417:11421   */\n      0x24\n        /* \"#utility.yul\":11414:11415   */\n      0x00\n        /* \"#utility.yul\":11407:11422   */\n      revert\n        /* \"#utility.yul\":11434:11551   */\n    tag_94:\n        /* \"#utility.yul\":11543:11544   */\n      0x00\n        /* \"#utility.yul\":11540:11541   */\n      dup1\n        /* \"#utility.yul\":11533:11545   */\n      revert\n        /* \"#utility.yul\":11557:11674   */\n    tag_91:\n        /* \"#utility.yul\":11666:11667   */\n      0x00\n        /* \"#utility.yul\":11663:11664   */\n      dup1\n        /* \"#utility.yul\":11656:11668   */\n      revert\n        /* \"#utility.yul\":11680:11797   */\n    tag_97:\n        /* \"#utility.yul\":11789:11790   */\n      0x00\n        /* \"#utility.yul\":11786:11787   */\n      dup1\n        /* \"#utility.yul\":11779:11791   */\n      revert\n        /* \"#utility.yul\":11803:11920   */\n    tag_84:\n        /* \"#utility.yul\":11912:11913   */\n      0x00\n        /* \"#utility.yul\":11909:11910   */\n      dup1\n        /* \"#utility.yul\":11902:11914   */\n      revert\n        /* \"#utility.yul\":11926:12043   */\n    tag_113:\n        /* \"#utility.yul\":12035:12036   */\n      0x00\n        /* \"#utility.yul\":12032:12033   */\n      dup1\n        /* \"#utility.yul\":12025:12037   */\n      revert\n        /* \"#utility.yul\":12049:12166   */\n    tag_110:\n        /* \"#utility.yul\":12158:12159   */\n      0x00\n        /* \"#utility.yul\":12155:12156   */\n      dup1\n        /* \"#utility.yul\":12148:12160   */\n      revert\n        /* \"#utility.yul\":12172:12274   */\n    tag_154:\n        /* \"#utility.yul\":12213:12219   */\n      0x00\n        /* \"#utility.yul\":12264:12266   */\n      0x1f\n        /* \"#utility.yul\":12260:12267   */\n      not\n        /* \"#utility.yul\":12255:12257   */\n      0x1f\n        /* \"#utility.yul\":12248:12253   */\n      dup4\n        /* \"#utility.yul\":12244:12258   */\n      add\n        /* \"#utility.yul\":12240:12268   */\n      and\n        /* \"#utility.yul\":12230:12268   */\n      swap1\n      pop\n        /* \"#utility.yul\":12172:12274   */\n      swap2\n      swap1\n      pop\n      jump\t// out\n        /* \"#utility.yul\":12280:12452   */\n    tag_159:\n        /* \"#utility.yul\":12420:12444   */\n      0x596f7520617265206e6f7420746865206f776e65722100000000000000000000\n        /* \"#utility.yul\":12416:12417   */\n      0x00\n        /* \"#utility.yul\":12408:12414   */\n      dup3\n        /* \"#utility.yul\":12404:12418   */\n      add\n        /* \"#utility.yul\":12397:12445   */\n      mstore\n        /* \"#utility.yul\":12280:12452   */\n      pop\n      jump\t// out\n        /* \"#utility.yul\":12458:12636   */\n    tag_164:\n        /* \"#utility.yul\":12598:12628   */\n      0x5468652070726f64756374206973206e6f74206578697374696e672100000000\n        /* \"#utility.yul\":12594:12595   */\n      0x00\n        /* \"#utility.yul\":12586:12592   */\n      dup3\n        /* \"#utility.yul\":12582:12596   */\n      add\n        /* \"#utility.yul\":12575:12629   */\n      mstore\n        /* \"#utility.yul\":12458:12636   */\n      pop\n      jump\t// out\n        /* \"#utility.yul\":12642:12865   */\n    tag_169:\n        /* \"#utility.yul\":12782:12816   */\n      0x5468652070726f6475637420697320616c726561647920696e20746865207374\n        /* \"#utility.yul\":12778:12779   */\n      0x00\n        /* \"#utility.yul\":12770:12776   */\n      dup3\n        /* \"#utility.yul\":12766:12780   */\n      add\n        /* \"#utility.yul\":12759:12817   */\n      mstore\n        /* \"#utility.yul\":12851:12857   */\n      0x6f72652100000000000000000000000000000000000000000000000000000000\n        /* \"#utility.yul\":12846:12848   */\n      0x20\n        /* \"#utility.yul\":12838:12844   */\n      dup3\n        /* \"#utility.yul\":12834:12849   */\n      add\n        /* \"#utility.yul\":12827:12858   */\n      mstore\n        /* \"#utility.yul\":12642:12865   */\n      pop\n      jump\t// out\n        /* \"#utility.yul\":12871:12993   */\n    tag_106:\n        /* \"#utility.yul\":12944:12968   */\n      tag_239\n        /* \"#utility.yul\":12962:12967   */\n      dup2\n        /* \"#utility.yul\":12944:12968   */\n      tag_173\n      jump\t// in\n    tag_239:\n        /* \"#utility.yul\":12937:12942   */\n      dup2\n        /* \"#utility.yul\":12934:12969   */\n      eq\n        /* \"#utility.yul\":12924:12987   */\n      tag_240\n      jumpi\n        /* \"#utility.yul\":12983:12984   */\n      0x00\n        /* \"#utility.yul\":12980:12981   */\n      dup1\n        /* \"#utility.yul\":12973:12985   */\n      revert\n        /* \"#utility.yul\":12924:12987   */\n    tag_240:\n        /* \"#utility.yul\":12871:12993   */\n      pop\n      jump\t// out\n\n    auxdata: 0xa2646970667358221220c3ef8eb25885c265679b6b3ae171d90d697ab6229c608d8518cd1623c46cc42264736f6c63430008070033\n}\n",
				"bytecode": {
					"linkReferences": {},
					"object": "608060405234801561001057600080fd5b50336000806101000a81548173ffffffffffffffffffffffffffffffffffffffff021916908373ffffffffffffffffffffffffffffffffffffffff160217905550610cc8806100606000396000f3fe608060405234801561001057600080fd5b50600436106100575760003560e01c80630a5bd44b1461005c57806338993c16146100785780637acc0b20146100a85780638da5cb5b146100da578063fcc93b0b146100f8575b600080fd5b610076600480360381019061007191906106a9565b610114565b005b610092600480360381019061008d919061071d565b61030c565b60405161009f91906108fb565b60405180910390f35b6100c260048036038101906100bd9190610766565b610342565b6040516100d193929190610916565b60405180910390f35b6100e2610404565b6040516100ef91906108e0565b60405180910390f35b610112600480360381019061010d9190610793565b610428565b005b60008054906101000a900473ffffffffffffffffffffffffffffffffffffffff1673ffffffffffffffffffffffffffffffffffffffff163373ffffffffffffffffffffffffffffffffffffffff16146101a2576040517f08c379a000000000000000000000000000000000000000000000000000000000815260040161019990610954565b60405180910390fd5b600284846040516101b49291906108c7565b908152602001604051809103902060009054906101000a900460ff1615610210576040517f08c379a000000000000000000000000000000000000000000000000000000000815260040161020790610994565b60405180910390fd5b6001600285856040516102249291906108c7565b908152602001604051809103902060006101000a81548160ff0219169083151502179055506001604051806060016040528086868080601f016020809104026020016040519081016040528093929190818152602001838380828437600081840152601f19601f82011690508083019250505050505050815260200184815260200183815250908060018154018082558091505060019003906000526020600020906003020160009091909190915060008201518160000190805190602001906102ef92919061052b565b506020820151816001015560408201518160020155505050505050565b6002818051602081018201805184825260208301602085012081835280955050505050506000915054906101000a900460ff1681565b6001818154811061035257600080fd5b906000526020600020906003020160009150905080600001805461037590610abb565b80601f01602080910402602001604051908101604052809291908181526020018280546103a190610abb565b80156103ee5780601f106103c3576101008083540402835291602001916103ee565b820191906000526020600020905b8154815290600101906020018083116103d157829003601f168201915b5050505050908060010154908060020154905083565b60008054906101000a900473ffffffffffffffffffffffffffffffffffffffff1681565b60008054906101000a900473ffffffffffffffffffffffffffffffffffffffff1673ffffffffffffffffffffffffffffffffffffffff163373ffffffffffffffffffffffffffffffffffffffff16146104b6576040517f08c379a00000000000000000000000000000000000000000000000000000000081526004016104ad90610954565b60405180910390fd5b60018054905082106104fd576040517f08c379a00000000000000000000000000000000000000000000000000000000081526004016104f490610974565b60405180910390fd5b806001838154811061051257610511610b4d565b5b9060005260206000209060030201600101819055505050565b82805461053790610abb565b90600052602060002090601f01602090048101928261055957600085556105a0565b82601f1061057257805160ff19168380011785556105a0565b828001600101855582156105a0579182015b8281111561059f578251825591602001919060010190610584565b5b5090506105ad91906105b1565b5090565b5b808211156105ca5760008160009055506001016105b2565b5090565b60006105e16105dc846109d9565b6109b4565b9050828152602081018484840111156105fd576105fc610bba565b5b610608848285610a79565b509392505050565b60008083601f84011261062657610625610bb0565b5b8235905067ffffffffffffffff81111561064357610642610bab565b5b60208301915083600182028301111561065f5761065e610bb5565b5b9250929050565b600082601f83011261067b5761067a610bb0565b5b813561068b8482602086016105ce565b91505092915050565b6000813590506106a381610c7b565b92915050565b600080600080606085870312156106c3576106c2610bc4565b5b600085013567ffffffffffffffff8111156106e1576106e0610bbf565b5b6106ed87828801610610565b9450945050602061070087828801610694565b925050604061071187828801610694565b91505092959194509250565b60006020828403121561073357610732610bc4565b5b600082013567ffffffffffffffff81111561075157610750610bbf565b5b61075d84828501610666565b91505092915050565b60006020828403121561077c5761077b610bc4565b5b600061078a84828501610694565b91505092915050565b600080604083850312156107aa576107a9610bc4565b5b60006107b885828601610694565b92505060206107c985828601610694565b9150509250929050565b6107dc81610a31565b82525050565b6107eb81610a43565b82525050565b60006107fd8385610a26565b935061080a838584610a79565b82840190509392505050565b600061082182610a0a565b61082b8185610a15565b935061083b818560208601610a88565b61084481610bc9565b840191505092915050565b600061085c601683610a15565b915061086782610bda565b602082019050919050565b600061087f601c83610a15565b915061088a82610c03565b602082019050919050565b60006108a2602483610a15565b91506108ad82610c2c565b604082019050919050565b6108c181610a6f565b82525050565b60006108d48284866107f1565b91508190509392505050565b60006020820190506108f560008301846107d3565b92915050565b600060208201905061091060008301846107e2565b92915050565b600060608201905081810360008301526109308186610816565b905061093f60208301856108b8565b61094c60408301846108b8565b949350505050565b6000602082019050818103600083015261096d8161084f565b9050919050565b6000602082019050818103600083015261098d81610872565b9050919050565b600060208201905081810360008301526109ad81610895565b9050919050565b60006109be6109cf565b90506109ca8282610aed565b919050565b6000604051905090565b600067ffffffffffffffff8211156109f4576109f3610b7c565b5b6109fd82610bc9565b9050602081019050919050565b600081519050919050565b600082825260208201905092915050565b600081905092915050565b6000610a3c82610a4f565b9050919050565b60008115159050919050565b600073ffffffffffffffffffffffffffffffffffffffff82169050919050565b6000819050919050565b82818337600083830152505050565b60005b83811015610aa6578082015181840152602081019050610a8b565b83811115610ab5576000848401525b50505050565b60006002820490506001821680610ad357607f821691505b60208210811415610ae757610ae6610b1e565b5b50919050565b610af682610bc9565b810181811067ffffffffffffffff82111715610b1557610b14610b7c565b5b80604052505050565b7f4e487b7100000000000000000000000000000000000000000000000000000000600052602260045260246000fd5b7f4e487b7100000000000000000000000000000000000000000000000000000000600052603260045260246000fd5b7f4e487b7100000000000000000000000000000000000000000000000000000000600052604160045260246000fd5b600080fd5b600080fd5b600080fd5b600080fd5b600080fd5b600080fd5b6000601f19601f8301169050919050565b7f596f7520617265206e6f7420746865206f776e65722100000000000000000000600082015250565b7f5468652070726f64756374206973206e6f74206578697374696e672100000000600082015250565b7f5468652070726f6475637420697320616c726561647920696e2074686520737460008201527f6f72652100000000000000000000000000000000000000000000000000000000602082015250565b610c8481610a6f565b8114610c8f57600080fd5b5056fea2646970667358221220c3ef8eb25885c265679b6b3ae171d90d697ab6229c608d8518cd1623c46cc42264736f6c63430008070033",
					"opcodes": "PUSH1 0x80 PUSH1 0x40 MSTORE CALLVALUE DUP1 ISZERO PUSH2 0x10 JUMPI PUSH1 0x0 DUP1 REVERT JUMPDEST POP CALLER PUSH1 0x0 DUP1 PUSH2 0x100 EXP DUP2 SLOAD DUP2 PUSH20 0xFFFFFFFFFFFFFFFFFFFFFFFFFFFFFFFFFFFFFFFF MUL NOT AND SWAP1 DUP4 PUSH20 0xFFFFFFFFFFFFFFFFFFFFFFFFFFFFFFFFFFFFFFFF AND MUL OR SWAP1 SSTORE POP PUSH2 0xCC8 DUP1 PUSH2 0x60 PUSH1 0x0 CODECOPY PUSH1 0x0 RETURN INVALID PUSH1 0x80 PUSH1 0x40 MSTORE CALLVALUE DUP1 ISZERO PUSH2 0x10 JUMPI PUSH1 0x0 DUP1 REVERT JUMPDEST POP PUSH1 0x4 CALLDATASIZE LT PUSH2 0x57 JUMPI PUSH1 0x0 CALLDATALOAD PUSH1 0xE0 SHR DUP1 PUSH4 0xA5BD44B EQ PUSH2 0x5C JUMPI DUP1 PUSH4 0x38993C16 EQ PUSH2 0x78 JUMPI DUP1 PUSH4 0x7ACC0B20 EQ PUSH2 0xA8 JUMPI DUP1 PUSH4 0x8DA5CB5B EQ PUSH2 0xDA JUMPI DUP1 PUSH4 0xFCC93B0B EQ PUSH2 0xF8 JUMPI JUMPDEST PUSH1 0x0 DUP1 REVERT JUMPDEST PUSH2 0x76 PUSH1 0x4 DUP1 CALLDATASIZE SUB DUP2 ADD SWAP1 PUSH2 0x71 SWAP2 SWAP1 PUSH2 0x6A9 JUMP JUMPDEST PUSH2 0x114 JUMP JUMPDEST STOP JUMPDEST PUSH2 0x92 PUSH1 0x4 DUP1 CALLDATASIZE SUB DUP2 ADD SWAP1 PUSH2 0x8D SWAP2 SWAP1 PUSH2 0x71D JUMP JUMPDEST PUSH2 0x30C JUMP JUMPDEST PUSH1 0x40 MLOAD PUSH2 0x9F SWAP2 SWAP1 PUSH2 0x8FB JUMP JUMPDEST PUSH1 0x40 MLOAD DUP1 SWAP2 SUB SWAP1 RETURN JUMPDEST PUSH2 0xC2 PUSH1 0x4 DUP1 CALLDATASIZE SUB DUP2 ADD SWAP1 PUSH2 0xBD SWAP2 SWAP1 PUSH2 0x766 JUMP JUMPDEST PUSH2 0x342 JUMP JUMPDEST PUSH1 0x40 MLOAD PUSH2 0xD1 SWAP4 SWAP3 SWAP2 SWAP1 PUSH2 0x916 JUMP JUMPDEST PUSH1 0x40 MLOAD DUP1 SWAP2 SUB SWAP1 RETURN JUMPDEST PUSH2 0xE2 PUSH2 0x404 JUMP JUMPDEST PUSH1 0x40 MLOAD PUSH2 0xEF SWAP2 SWAP1 PUSH2 0x8E0 JUMP JUMPDEST PUSH1 0x40 MLOAD DUP1 SWAP2 SUB SWAP1 RETURN JUMPDEST PUSH2 0x112 PUSH1 0x4 DUP1 CALLDATASIZE SUB DUP2 ADD SWAP1 PUSH2 0x10D SWAP2 SWAP1 PUSH2 0x793 JUMP JUMPDEST PUSH2 0x428 JUMP JUMPDEST STOP JUMPDEST PUSH1 0x0 DUP1 SLOAD SWAP1 PUSH2 0x100 EXP SWAP1 DIV PUSH20 0xFFFFFFFFFFFFFFFFFFFFFFFFFFFFFFFFFFFFFFFF AND PUSH20 0xFFFFFFFFFFFFFFFFFFFFFFFFFFFFFFFFFFFFFFFF AND CALLER PUSH20 0xFFFFFFFFFFFFFFFFFFFFFFFFFFFFFFFFFFFFFFFF AND EQ PUSH2 0x1A2 JUMPI PUSH1 0x40 MLOAD PUSH32 0x8C379A000000000000000000000000000000000000000000000000000000000 DUP2 MSTORE PUSH1 0x4 ADD PUSH2 0x199 SWAP1 PUSH2 0x954 JUMP JUMPDEST PUSH1 0x40 MLOAD DUP1 SWAP2 SUB SWAP1 REVERT JUMPDEST PUSH1 0x2 DUP5 DUP5 PUSH1 0x40 MLOAD PUSH2 0x1B4 SWAP3 SWAP2 SWAP1 PUSH2 0x8C7 JUMP JUMPDEST SWAP1 DUP2 MSTORE PUSH1 0x20 ADD PUSH1 0x40 MLOAD DUP1 SWAP2 SUB SWAP1 KECCAK256 PUSH1 0x0 SWAP1 SLOAD SWAP1 PUSH2 0x100 EXP SWAP1 DIV PUSH1 0xFF AND ISZERO PUSH2 0x210 JUMPI PUSH1 0x40 MLOAD PUSH32 0x8C379A000000000000000000000000000000000000000000000000000000000 DUP2 MSTORE PUSH1 0x4 ADD PUSH2 0x207 SWAP1 PUSH2 0x994 JUMP JUMPDEST PUSH1 0x40 MLOAD DUP1 SWAP2 SUB SWAP1 REVERT JUMPDEST PUSH1 0x1 PUSH1 0x2 DUP6 DUP6 PUSH1 0x40 MLOAD PUSH2 0x224 SWAP3 SWAP2 SWAP1 PUSH2 0x8C7 JUMP JUMPDEST SWAP1 DUP2 MSTORE PUSH1 0x20 ADD PUSH1 0x40 MLOAD DUP1 SWAP2 SUB SWAP1 KECCAK256 PUSH1 0x0 PUSH2 0x100 EXP DUP2 SLOAD DUP2 PUSH1 0xFF MUL NOT AND SWAP1 DUP4 ISZERO ISZERO MUL OR SWAP1 SSTORE POP PUSH1 0x1 PUSH1 0x40 MLOAD DUP1 PUSH1 0x60 ADD PUSH1 0x40 MSTORE DUP1 DUP7 DUP7 DUP1 DUP1 PUSH1 0x1F ADD PUSH1 0x20 DUP1 SWAP2 DIV MUL PUSH1 0x20 ADD PUSH1 0x40 MLOAD SWAP1 DUP2 ADD PUSH1 0x40 MSTORE DUP1 SWAP4 SWAP3 SWAP2 SWAP1 DUP2 DUP2 MSTORE PUSH1 0x20 ADD DUP4 DUP4 DUP1 DUP3 DUP5 CALLDATACOPY PUSH1 0x0 DUP2 DUP5 ADD MSTORE PUSH1 0x1F NOT PUSH1 0x1F DUP3 ADD AND SWAP1 POP DUP1 DUP4 ADD SWAP3 POP POP POP POP POP POP POP DUP2 MSTORE PUSH1 0x20 ADD DUP5 DUP2 MSTORE PUSH1 0x20 ADD DUP4 DUP2 MSTORE POP SWAP1 DUP1 PUSH1 0x1 DUP2 SLOAD ADD DUP1 DUP3 SSTORE DUP1 SWAP2 POP POP PUSH1 0x1 SWAP1 SUB SWAP1 PUSH1 0x0 MSTORE PUSH1 0x20 PUSH1 0x0 KECCAK256 SWAP1 PUSH1 0x3 MUL ADD PUSH1 0x0 SWAP1 SWAP2 SWAP1 SWAP2 SWAP1 SWAP2 POP PUSH1 0x0 DUP3 ADD MLOAD DUP2 PUSH1 0x0 ADD SWAP1 DUP1 MLOAD SWAP1 PUSH1 0x20 ADD SWAP1 PUSH2 0x2EF SWAP3 SWAP2 SWAP1 PUSH2 0x52B JUMP JUMPDEST POP PUSH1 0x20 DUP3 ADD MLOAD DUP2 PUSH1 0x1 ADD SSTORE PUSH1 0x40 DUP3 ADD MLOAD DUP2 PUSH1 0x2 ADD SSTORE POP POP POP POP POP POP JUMP JUMPDEST PUSH1 0x2 DUP2 DUP1 MLOAD PUSH1 0x20 DUP2 ADD DUP3 ADD DUP1 MLOAD DUP5 DUP3 MSTORE PUSH1 0x20 DUP4 ADD PUSH1 0x20 DUP6 ADD KECCAK256 DUP2 DUP4 MSTORE DUP1 SWAP6 POP POP POP POP POP POP PUSH1 0x0 SWAP2 POP SLOAD SWAP1 PUSH2 0x100 EXP SWAP1 DIV PUSH1 0xFF AND DUP2 JUMP JUMPDEST PUSH1 0x1 DUP2 DUP2 SLOAD DUP2 LT PUSH2 0x352 JUMPI PUSH1 0x0 DUP1 REVERT JUMPDEST SWAP1 PUSH1 0x0 MSTORE PUSH1 0x20 PUSH1 0x0 KECCAK256 SWAP1 PUSH1 0x3 MUL ADD PUSH1 0x0 SWAP2 POP SWAP1 POP DUP1 PUSH1 0x0 ADD DUP1 SLOAD PUSH2 0x375 SWAP1 PUSH2 0xABB JUMP JUMPDEST DUP1 PUSH1 0x1F ADD PUSH1 0x20 DUP1 SWAP2 DIV MUL PUSH1 0x20 ADD PUSH1 0x40 MLOAD SWAP1 DUP2 ADD PUSH1 0x40 MSTORE DUP1 SWAP3 SWAP2 SWAP1 DUP2 DUP2 MSTORE PUSH1 0x20 ADD DUP3 DUP1 SLOAD PUSH2 0x3A1 SWAP1 PUSH2 0xABB JUMP JUMPDEST DUP1 ISZERO PUSH2 0x3EE JUMPI DUP1 PUSH1 0x1F LT PUSH2 0x3C3 JUMPI PUSH2 0x100 DUP1 DUP4 SLOAD DIV MUL DUP4 MSTORE SWAP2 PUSH1 0x20 ADD SWAP2 PUSH2 0x3EE JUMP JUMPDEST DUP3 ADD SWAP2 SWAP1 PUSH1 0x0 MSTORE PUSH1 0x20 PUSH1 0x0 KECCAK256 SWAP1 JUMPDEST DUP2 SLOAD DUP2 MSTORE SWAP1 PUSH1 0x1 ADD SWAP1 PUSH1 0x20 ADD DUP1 DUP4 GT PUSH2 0x3D1 JUMPI DUP3 SWAP1 SUB PUSH1 0x1F AND DUP3 ADD SWAP2 JUMPDEST POP POP POP POP POP SWAP1 DUP1 PUSH1 0x1 ADD SLOAD SWAP1 DUP1 PUSH1 0x2 ADD SLOAD SWAP1 POP DUP4 JUMP JUMPDEST PUSH1 0x0 DUP1 SLOAD SWAP1 PUSH2 0x100 EXP SWAP1 DIV PUSH20 0xFFFFFFFFFFFFFFFFFFFFFFFFFFFFFFFFFFFFFFFF AND DUP2 JUMP JUMPDEST PUSH1 0x0 DUP1 SLOAD SWAP1 PUSH2 0x100 EXP SWAP1 DIV PUSH20 0xFFFFFFFFFFFFFFFFFFFFFFFFFFFFFFFFFFFFFFFF AND PUSH20 0xFFFFFFFFFFFFFFFFFFFFFFFFFFFFFFFFFFFFFFFF AND CALLER PUSH20 0xFFFFFFFFFFFFFFFFFFFFFFFFFFFFFFFFFFFFFFFF AND EQ PUSH2 0x4B6 JUMPI PUSH1 0x40 MLOAD PUSH32 0x8C379A000000000000000000000000000000000000000000000000000000000 DUP2 MSTORE PUSH1 0x4 ADD PUSH2 0x4AD SWAP1 PUSH2 0x954 JUMP JUMPDEST PUSH1 0x40 MLOAD DUP1 SWAP2 SUB SWAP1 REVERT JUMPDEST PUSH1 0x1 DUP1 SLOAD SWAP1 POP DUP3 LT PUSH2 0x4FD JUMPI PUSH1 0x40 MLOAD PUSH32 0x8C379A000000000000000000000000000000000000000000000000000000000 DUP2 MSTORE PUSH1 0x4 ADD PUSH2 0x4F4 SWAP1 PUSH2 0x974 JUMP JUMPDEST PUSH1 0x40 MLOAD DUP1 SWAP2 SUB SWAP1 REVERT JUMPDEST DUP1 PUSH1 0x1 DUP4 DUP2 SLOAD DUP2 LT PUSH2 0x512 JUMPI PUSH2 0x511 PUSH2 0xB4D JUMP JUMPDEST JUMPDEST SWAP1 PUSH1 0x0 MSTORE PUSH1 0x20 PUSH1 0x0 KECCAK256 SWAP1 PUSH1 0x3 MUL ADD PUSH1 0x1 ADD DUP2 SWAP1 SSTORE POP POP POP JUMP JUMPDEST DUP3 DUP1 SLOAD PUSH2 0x537 SWAP1 PUSH2 0xABB JUMP JUMPDEST SWAP1 PUSH1 0x0 MSTORE PUSH1 0x20 PUSH1 0x0 KECCAK256 SWAP1 PUSH1 0x1F ADD PUSH1 0x20 SWAP1 DIV DUP2 ADD SWAP3 DUP3 PUSH2 0x559 JUMPI PUSH1 0x0 DUP6 SSTORE PUSH2 0x5A0 JUMP JUMPDEST DUP3 PUSH1 0x1F LT PUSH2 0x572 JUMPI DUP1 MLOAD PUSH1 0xFF NOT AND DUP4 DUP1 ADD OR DUP6 SSTORE PUSH2 0x5A0 JUMP JUMPDEST DUP3 DUP1 ADD PUSH1 0x1 ADD DUP6 SSTORE DUP3 ISZERO PUSH2 0x5A0 JUMPI SWAP2 DUP3 ADD JUMPDEST DUP3 DUP2 GT ISZERO PUSH2 0x59F JUMPI DUP3 MLOAD DUP3 SSTORE SWAP2 PUSH1 0x20 ADD SWAP2 SWAP1 PUSH1 0x1 ADD SWAP1 PUSH2 0x584 JUMP JUMPDEST JUMPDEST POP SWAP1 POP PUSH2 0x5AD SWAP2 SWAP1 PUSH2 0x5B1 JUMP JUMPDEST POP SWAP1 JUMP JUMPDEST JUMPDEST DUP1 DUP3 GT ISZERO PUSH2 0x5CA JUMPI PUSH1 0x0 DUP2 PUSH1 0x0 SWAP1 SSTORE POP PUSH1 0x1 ADD PUSH2 0x5B2 JUMP JUMPDEST POP SWAP1 JUMP JUMPDEST PUSH1 0x0 PUSH2 0x5E1 PUSH2 0x5DC DUP5 PUSH2 0x9D9 JUMP JUMPDEST PUSH2 0x9B4 JUMP JUMPDEST SWAP1 POP DUP3 DUP2 MSTORE PUSH1 0x20 DUP2 ADD DUP5 DUP5 DUP5 ADD GT ISZERO PUSH2 0x5FD JUMPI PUSH2 0x5FC PUSH2 0xBBA JUMP JUMPDEST JUMPDEST PUSH2 0x608 DUP5 DUP3 DUP6 PUSH2 0xA79 JUMP JUMPDEST POP SWAP4 SWAP3 POP POP POP JUMP JUMPDEST PUSH1 0x0 DUP1 DUP4 PUSH1 0x1F DUP5 ADD SLT PUSH2 0x626 JUMPI PUSH2 0x625 PUSH2 0xBB0 JUMP JUMPDEST JUMPDEST DUP3 CALLDATALOAD SWAP1 POP PUSH8 0xFFFFFFFFFFFFFFFF DUP2 GT ISZERO PUSH2 0x643 JUMPI PUSH2 0x642 PUSH2 0xBAB JUMP JUMPDEST JUMPDEST PUSH1 0x20 DUP4 ADD SWAP2 POP DUP4 PUSH1 0x1 DUP3 MUL DUP4 ADD GT ISZERO PUSH2 0x65F JUMPI PUSH2 0x65E PUSH2 0xBB5 JUMP JUMPDEST JUMPDEST SWAP3 POP SWAP3 SWAP1 POP JUMP JUMPDEST PUSH1 0x0 DUP3 PUSH1 0x1F DUP4 ADD SLT PUSH2 0x67B JUMPI PUSH2 0x67A PUSH2 0xBB0 JUMP JUMPDEST JUMPDEST DUP2 CALLDATALOAD PUSH2 0x68B DUP5 DUP3 PUSH1 0x20 DUP7 ADD PUSH2 0x5CE JUMP JUMPDEST SWAP2 POP POP SWAP3 SWAP2 POP POP JUMP JUMPDEST PUSH1 0x0 DUP2 CALLDATALOAD SWAP1 POP PUSH2 0x6A3 DUP2 PUSH2 0xC7B JUMP JUMPDEST SWAP3 SWAP2 POP POP JUMP JUMPDEST PUSH1 0x0 DUP1 PUSH1 0x0 DUP1 PUSH1 0x60 DUP6 DUP8 SUB SLT ISZERO PUSH2 0x6C3 JUMPI PUSH2 0x6C2 PUSH2 0xBC4 JUMP JUMPDEST JUMPDEST PUSH1 0x0 DUP6 ADD CALLDATALOAD PUSH8 0xFFFFFFFFFFFFFFFF DUP2 GT ISZERO PUSH2 0x6E1 JUMPI PUSH2 0x6E0 PUSH2 0xBBF JUMP JUMPDEST JUMPDEST PUSH2 0x6ED DUP8 DUP3 DUP9 ADD PUSH2 0x610 JUMP JUMPDEST SWAP5 POP SWAP5 POP POP PUSH1 0x20 PUSH2 0x700 DUP8 DUP3 DUP9 ADD PUSH2 0x694 JUMP JUMPDEST SWAP3 POP POP PUSH1 0x40 PUSH2 0x711 DUP8 DUP3 DUP9 ADD PUSH2 0x694 JUMP JUMPDEST SWAP2 POP POP SWAP3 SWAP6 SWAP2 SWAP5 POP SWAP3 POP JUMP JUMPDEST PUSH1 0x0 PUSH1 0x20 DUP3 DUP5 SUB SLT ISZERO PUSH2 0x733 JUMPI PUSH2 0x732 PUSH2 0xBC4 JUMP JUMPDEST JUMPDEST PUSH1 0x0 DUP3 ADD CALLDATALOAD PUSH8 0xFFFFFFFFFFFFFFFF DUP2 GT ISZERO PUSH2 0x751 JUMPI PUSH2 0x750 PUSH2 0xBBF JUMP JUMPDEST JUMPDEST PUSH2 0x75D DUP5 DUP3 DUP6 ADD PUSH2 0x666 JUMP JUMPDEST SWAP2 POP POP SWAP3 SWAP2 POP POP JUMP JUMPDEST PUSH1 0x0 PUSH1 0x20 DUP3 DUP5 SUB SLT ISZERO PUSH2 0x77C JUMPI PUSH2 0x77B PUSH2 0xBC4 JUMP JUMPDEST JUMPDEST PUSH1 0x0 PUSH2 0x78A DUP5 DUP3 DUP6 ADD PUSH2 0x694 JUMP JUMPDEST SWAP2 POP POP SWAP3 SWAP2 POP POP JUMP JUMPDEST PUSH1 0x0 DUP1 PUSH1 0x40 DUP4 DUP6 SUB SLT ISZERO PUSH2 0x7AA JUMPI PUSH2 0x7A9 PUSH2 0xBC4 JUMP JUMPDEST JUMPDEST PUSH1 0x0 PUSH2 0x7B8 DUP6 DUP3 DUP7 ADD PUSH2 0x694 JUMP JUMPDEST SWAP3 POP POP PUSH1 0x20 PUSH2 0x7C9 DUP6 DUP3 DUP7 ADD PUSH2 0x694 JUMP JUMPDEST SWAP2 POP POP SWAP3 POP SWAP3 SWAP1 POP JUMP JUMPDEST PUSH2 0x7DC DUP2 PUSH2 0xA31 JUMP JUMPDEST DUP3 MSTORE POP POP JUMP JUMPDEST PUSH2 0x7EB DUP2 PUSH2 0xA43 JUMP JUMPDEST DUP3 MSTORE POP POP JUMP JUMPDEST PUSH1 0x0 PUSH2 0x7FD DUP4 DUP6 PUSH2 0xA26 JUMP JUMPDEST SWAP4 POP PUSH2 0x80A DUP4 DUP6 DUP5 PUSH2 0xA79 JUMP JUMPDEST DUP3 DUP5 ADD SWAP1 POP SWAP4 SWAP3 POP POP POP JUMP JUMPDEST PUSH1 0x0 PUSH2 0x821 DUP3 PUSH2 0xA0A JUMP JUMPDEST PUSH2 0x82B DUP2 DUP6 PUSH2 0xA15 JUMP JUMPDEST SWAP4 POP PUSH2 0x83B DUP2 DUP6 PUSH1 0x20 DUP7 ADD PUSH2 0xA88 JUMP JUMPDEST PUSH2 0x844 DUP2 PUSH2 0xBC9 JUMP JUMPDEST DUP5 ADD SWAP2 POP POP SWAP3 SWAP2 POP POP JUMP JUMPDEST PUSH1 0x0 PUSH2 0x85C PUSH1 0x16 DUP4 PUSH2 0xA15 JUMP JUMPDEST SWAP2 POP PUSH2 0x867 DUP3 PUSH2 0xBDA JUMP JUMPDEST PUSH1 0x20 DUP3 ADD SWAP1 POP SWAP2 SWAP1 POP JUMP JUMPDEST PUSH1 0x0 PUSH2 0x87F PUSH1 0x1C DUP4 PUSH2 0xA15 JUMP JUMPDEST SWAP2 POP PUSH2 0x88A DUP3 PUSH2 0xC03 JUMP JUMPDEST PUSH1 0x20 DUP3 ADD SWAP1 POP SWAP2 SWAP1 POP JUMP JUMPDEST PUSH1 0x0 PUSH2 0x8A2 PUSH1 0x24 DUP4 PUSH2 0xA15 JUMP JUMPDEST SWAP2 POP PUSH2 0x8AD DUP3 PUSH2 0xC2C JUMP JUMPDEST PUSH1 0x40 DUP3 ADD SWAP1 POP SWAP2 SWAP1 POP JUMP JUMPDEST PUSH2 0x8C1 DUP2 PUSH2 0xA6F JUMP JUMPDEST DUP3 MSTORE POP POP JUMP JUMPDEST PUSH1 0x0 PUSH2 0x8D4 DUP3 DUP5 DUP7 PUSH2 0x7F1 JUMP JUMPDEST SWAP2 POP DUP2 SWAP1 POP SWAP4 SWAP3 POP POP POP JUMP JUMPDEST PUSH1 0x0 PUSH1 0x20 DUP3 ADD SWAP1 POP PUSH2 0x8F5 PUSH1 0x0 DUP4 ADD DUP5 PUSH2 0x7D3 JUMP JUMPDEST SWAP3 SWAP2 POP POP JUMP JUMPDEST PUSH1 0x0 PUSH1 0x20 DUP3 ADD SWAP1 POP PUSH2 0x910 PUSH1 0x0 DUP4 ADD DUP5 PUSH2 0x7E2 JUMP JUMPDEST SWAP3 SWAP2 POP POP JUMP JUMPDEST PUSH1 0x0 PUSH1 0x60 DUP3 ADD SWAP1 POP DUP2 DUP2 SUB PUSH1 0x0 DUP4 ADD MSTORE PUSH2 0x930 DUP2 DUP7 PUSH2 0x816 JUMP JUMPDEST SWAP1 POP PUSH2 0x93F PUSH1 0x20 DUP4 ADD DUP6 PUSH2 0x8B8 JUMP JUMPDEST PUSH2 0x94C PUSH1 0x40 DUP4 ADD DUP5 PUSH2 0x8B8 JUMP JUMPDEST SWAP5 SWAP4 POP POP POP POP JUMP JUMPDEST PUSH1 0x0 PUSH1 0x20 DUP3 ADD SWAP1 POP DUP2 DUP2 SUB PUSH1 0x0 DUP4 ADD MSTORE PUSH2 0x96D DUP2 PUSH2 0x84F JUMP JUMPDEST SWAP1 POP SWAP2 SWAP1 POP JUMP JUMPDEST PUSH1 0x0 PUSH1 0x20 DUP3 ADD SWAP1 POP DUP2 DUP2 SUB PUSH1 0x0 DUP4 ADD MSTORE PUSH2 0x98D DUP2 PUSH2 0x872 JUMP JUMPDEST SWAP1 POP SWAP2 SWAP1 POP JUMP JUMPDEST PUSH1 0x0 PUSH1 0x20 DUP3 ADD SWAP1 POP DUP2 DUP2 SUB PUSH1 0x0 DUP4 ADD MSTORE PUSH2 0x9AD DUP2 PUSH2 0x895 JUMP JUMPDEST SWAP1 POP SWAP2 SWAP1 POP JUMP JUMPDEST PUSH1 0x0 PUSH2 0x9BE PUSH2 0x9CF JUMP JUMPDEST SWAP1 POP PUSH2 0x9CA DUP3 DUP3 PUSH2 0xAED JUMP JUMPDEST SWAP2 SWAP1 POP JUMP JUMPDEST PUSH1 0x0 PUSH1 0x40 MLOAD SWAP1 POP SWAP1 JUMP JUMPDEST PUSH1 0x0 PUSH8 0xFFFFFFFFFFFFFFFF DUP3 GT ISZERO PUSH2 0x9F4 JUMPI PUSH2 0x9F3 PUSH2 0xB7C JUMP JUMPDEST JUMPDEST PUSH2 0x9FD DUP3 PUSH2 0xBC9 JUMP JUMPDEST SWAP1 POP PUSH1 0x20 DUP2 ADD SWAP1 POP SWAP2 SWAP1 POP JUMP JUMPDEST PUSH1 0x0 DUP2 MLOAD SWAP1 POP SWAP2 SWAP1 POP JUMP JUMPDEST PUSH1 0x0 DUP3 DUP3 MSTORE PUSH1 0x20 DUP3 ADD SWAP1 POP SWAP3 SWAP2 POP POP JUMP JUMPDEST PUSH1 0x0 DUP2 SWAP1 POP SWAP3 SWAP2 POP POP JUMP JUMPDEST PUSH1 0x0 PUSH2 0xA3C DUP3 PUSH2 0xA4F JUMP JUMPDEST SWAP1 POP SWAP2 SWAP1 POP JUMP JUMPDEST PUSH1 0x0 DUP2 ISZERO ISZERO SWAP1 POP SWAP2 SWAP1 POP JUMP JUMPDEST PUSH1 0x0 PUSH20 0xFFFFFFFFFFFFFFFFFFFFFFFFFFFFFFFFFFFFFFFF DUP3 AND SWAP1 POP SWAP2 SWAP1 POP JUMP JUMPDEST PUSH1 0x0 DUP2 SWAP1 POP SWAP2 SWAP1 POP JUMP JUMPDEST DUP3 DUP2 DUP4 CALLDATACOPY PUSH1 0x0 DUP4 DUP4 ADD MSTORE POP POP POP JUMP JUMPDEST PUSH1 0x0 JUMPDEST DUP4 DUP2 LT ISZERO PUSH2 0xAA6 JUMPI DUP1 DUP3 ADD MLOAD DUP2 DUP5 ADD MSTORE PUSH1 0x20 DUP2 ADD SWAP1 POP PUSH2 0xA8B JUMP JUMPDEST DUP4 DUP2 GT ISZERO PUSH2 0xAB5 JUMPI PUSH1 0x0 DUP5 DUP5 ADD MSTORE JUMPDEST POP POP POP POP JUMP JUMPDEST PUSH1 0x0 PUSH1 0x2 DUP3 DIV SWAP1 POP PUSH1 0x1 DUP3 AND DUP1 PUSH2 0xAD3 JUMPI PUSH1 0x7F DUP3 AND SWAP2 POP JUMPDEST PUSH1 0x20 DUP3 LT DUP2 EQ ISZERO PUSH2 0xAE7 JUMPI PUSH2 0xAE6 PUSH2 0xB1E JUMP JUMPDEST JUMPDEST POP SWAP2 SWAP1 POP JUMP JUMPDEST PUSH2 0xAF6 DUP3 PUSH2 0xBC9 JUMP JUMPDEST DUP2 ADD DUP2 DUP2 LT PUSH8 0xFFFFFFFFFFFFFFFF DUP3 GT OR ISZERO PUSH2 0xB15 JUMPI PUSH2 0xB14 PUSH2 0xB7C JUMP JUMPDEST JUMPDEST DUP1 PUSH1 0x40 MSTORE POP POP POP JUMP JUMPDEST PUSH32 0x4E487B7100000000000000000000000000000000000000000000000000000000 PUSH1 0x0 MSTORE PUSH1 0x22 PUSH1 0x4 MSTORE PUSH1 0x24 PUSH1 0x0 REVERT JUMPDEST PUSH32 0x4E487B7100000000000000000000000000000000000000000000000000000000 PUSH1 0x0 MSTORE PUSH1 0x32 PUSH1 0x4 MSTORE PUSH1 0x24 PUSH1 0x0 REVERT JUMPDEST PUSH32 0x4E487B7100000000000000000000000000000000000000000000000000000000 PUSH1 0x0 MSTORE PUSH1 0x41 PUSH1 0x4 MSTORE PUSH1 0x24 PUSH1 0x0 REVERT JUMPDEST PUSH1 0x0 DUP1 REVERT JUMPDEST PUSH1 0x0 DUP1 REVERT JUMPDEST PUSH1 0x0 DUP1 REVERT JUMPDEST PUSH1 0x0 DUP1 REVERT JUMPDEST PUSH1 0x0 DUP1 REVERT JUMPDEST PUSH1 0x0 DUP1 REVERT JUMPDEST PUSH1 0x0 PUSH1 0x1F NOT PUSH1 0x1F DUP4 ADD AND SWAP1 POP SWAP2 SWAP1 POP JUMP JUMPDEST PUSH32 0x596F7520617265206E6F7420746865206F776E65722100000000000000000000 PUSH1 0x0 DUP3 ADD MSTORE POP JUMP JUMPDEST PUSH32 0x5468652070726F64756374206973206E6F74206578697374696E672100000000 PUSH1 0x0 DUP3 ADD MSTORE POP JUMP JUMPDEST PUSH32 0x5468652070726F6475637420697320616C726561647920696E20746865207374 PUSH1 0x0 DUP3 ADD MSTORE PUSH32 0x6F72652100000000000000000000000000000000000000000000000000000000 PUSH1 0x20 DUP3 ADD MSTORE POP JUMP JUMPDEST PUSH2 0xC84 DUP2 PUSH2 0xA6F JUMP JUMPDEST DUP2 EQ PUSH2 0xC8F JUMPI PUSH1 0x0 DUP1 REVERT JUMPDEST POP JUMP INVALID LOG2 PUSH5 0x6970667358 0x22 SLT KECCAK256 0xC3 0xEF DUP15 0xB2 PC DUP6 0xC2 PUSH6 0x679B6B3AE171 0xD9 0xD PUSH10 0x7AB6229C608D8518CD16 0x23 0xC4 PUSH13 0xC42264736F6C63430008070033 "
				},
				"gasEstimates": {
					"creation": {
						"codeDepositCost": "654400",
						"executionCost": "24955",
						"totalCost": "679355"
					},
					"external": {
						"addNewProduct(string,uint256,uint256)": "infinite",
						"availableProducts(string)": "infinite",
						"owner()": "2555",
						"products(uint256)": "infinite",
						"updateProductQuantity(uint256,uint256)": "infinite"
					}
				},
				"methodIdentifiers": {
					"addNewProduct(string,uint256,uint256)": "0a5bd44b",
					"availableProducts(string)": "38993c16",
					"owner()": "8da5cb5b",
					"products(uint256)": "7acc0b20",
					"updateProductQuantity(uint256,uint256)": "fcc93b0b"
				}
			},
			"storageLayout": {
				"storage": [
					{
						"astId": 3,
						"contract": "contracts/Store.sol:Store",
						"label": "owner",
						"offset": 0,
						"slot": "0",
						"type": "t_address"
					},
					{
						"astId": 41,
						"contract": "contracts/Store.sol:Store",
						"label": "products",
						"offset": 0,
						"slot": "1",
						"type": "t_array(t_struct(Product)37_storage)dyn_storage"
					},
					{
						"astId": 45,
						"contract": "contracts/Store.sol:Store",
						"label": "availableProducts",
						"offset": 0,
						"slot": "2",
						"type": "t_mapping(t_string_memory_ptr,t_bool)"
					}
				],
				"types": {
					"t_address": {
						"encoding": "inplace",
						"label": "address",
						"numberOfBytes": "20"
					},
					"t_array(t_struct(Product)37_storage)dyn_storage": {
						"base": "t_struct(Product)37_storage",
						"encoding": "dynamic_array",
						"label": "struct Store.Product[]",
						"numberOfBytes": "32"
					},
					"t_bool": {
						"encoding": "inplace",
						"label": "bool",
						"numberOfBytes": "1"
					},
					"t_mapping(t_string_memory_ptr,t_bool)": {
						"encoding": "mapping",
						"key": "t_string_memory_ptr",
						"label": "mapping(string => bool)",
						"numberOfBytes": "32",
						"value": "t_bool"
					},
					"t_string_memory_ptr": {
						"encoding": "bytes",
						"label": "string",
						"numberOfBytes": "32"
					},
					"t_string_storage": {
						"encoding": "bytes",
						"label": "string",
						"numberOfBytes": "32"
					},
					"t_struct(Product)37_storage": {
						"encoding": "inplace",
						"label": "struct Store.Product",
						"members": [
							{
								"astId": 32,
								"contract": "contracts/Store.sol:Store",
								"label": "name",
								"offset": 0,
								"slot": "0",
								"type": "t_string_storage"
							},
							{
								"astId": 34,
								"contract": "contracts/Store.sol:Store",
								"label": "quantity",
								"offset": 0,
								"slot": "1",
								"type": "t_uint256"
							},
							{
								"astId": 36,
								"contract": "contracts/Store.sol:Store",
								"label": "price",
								"offset": 0,
								"slot": "2",
								"type": "t_uint256"
							}
						],
						"numberOfBytes": "96"
					},
					"t_uint256": {
						"encoding": "inplace",
						"label": "uint256",
						"numberOfBytes": "32"
					}
				}
			},
			"userdoc": {
				"kind": "user",
				"methods": {},
				"version": 1
			}
		}
	}
}