{
	"contracts/Store.sol": {
		"Store": {
			"abi": [
				{
					"inputs": [
						{
							"internalType": "string",
							"name": "name",
							"type": "string"
						},
						{
							"internalType": "uint256",
							"name": "quantity",
							"type": "uint256"
						},
						{
							"internalType": "uint256",
							"name": "price",
							"type": "uint256"
						}
					],
					"name": "addNewProduct",
					"outputs": [],
					"stateMutability": "nonpayable",
					"type": "function"
				},
				{
					"inputs": [
						{
							"internalType": "string",
							"name": "",
							"type": "string"
						}
					],
					"name": "availableProducts",
					"outputs": [
						{
							"internalType": "bool",
							"name": "",
							"type": "bool"
						}
					],
					"stateMutability": "view",
					"type": "function"
				},
				{
					"inputs": [],
					"name": "getProducts",
					"outputs": [
						{
							"components": [
								{
									"internalType": "string",
									"name": "name",
									"type": "string"
								},
								{
									"internalType": "uint256",
									"name": "quantity",
									"type": "uint256"
								},
								{
									"internalType": "uint256",
									"name": "price",
									"type": "uint256"
								}
							],
							"internalType": "struct Store.Product[]",
							"name": "",
							"type": "tuple[]"
						}
					],
					"stateMutability": "view",
					"type": "function"
				},
				{
					"inputs": [],
					"name": "owner",
					"outputs": [
						{
							"internalType": "address",
							"name": "",
							"type": "address"
						}
					],
					"stateMutability": "view",
					"type": "function"
				},
				{
					"inputs": [
						{
							"internalType": "uint256",
							"name": "",
							"type": "uint256"
						}
					],
					"name": "products",
					"outputs": [
						{
							"internalType": "string",
							"name": "name",
							"type": "string"
						},
						{
							"internalType": "uint256",
							"name": "quantity",
							"type": "uint256"
						},
						{
							"internalType": "uint256",
							"name": "price",
							"type": "uint256"
						}
					],
					"stateMutability": "view",
					"type": "function"
				},
				{
					"inputs": [
						{
							"internalType": "uint256",
							"name": "index",
							"type": "uint256"
						},
						{
							"internalType": "uint256",
							"name": "quantity",
							"type": "uint256"
						}
					],
					"name": "updateProductQuantity",
					"outputs": [],
					"stateMutability": "nonpayable",
					"type": "function"
				}
			],
			"devdoc": {
				"kind": "dev",
				"methods": {},
				"version": 1
			},
			"evm": {
				"assembly": "    /* \"contracts/Store.sol\":93:921  contract Store is Ownable {\r... */\n  mstore(0x40, 0x80)\n  callvalue\n  dup1\n  iszero\n  tag_1\n  jumpi\n  0x00\n  dup1\n  revert\ntag_1:\n  pop\n    /* \"contracts/Ownable.sol\":156:166  msg.sender */\n  caller\n    /* \"contracts/Ownable.sol\":148:153  owner */\n  0x00\n  dup1\n    /* \"contracts/Ownable.sol\":148:166  owner = msg.sender */\n  0x0100\n  exp\n  dup2\n  sload\n  dup2\n  0xffffffffffffffffffffffffffffffffffffffff\n  mul\n  not\n  and\n  swap1\n  dup4\n  0xffffffffffffffffffffffffffffffffffffffff\n  and\n  mul\n  or\n  swap1\n  sstore\n  pop\n    /* \"contracts/Store.sol\":93:921  contract Store is Ownable {\r... */\n  dataSize(sub_0)\n  dup1\n  dataOffset(sub_0)\n  0x00\n  codecopy\n  0x00\n  return\nstop\n\nsub_0: assembly {\n        /* \"contracts/Store.sol\":93:921  contract Store is Ownable {\r... */\n      mstore(0x40, 0x80)\n      callvalue\n      dup1\n      iszero\n      tag_1\n      jumpi\n      0x00\n      dup1\n      revert\n    tag_1:\n      pop\n      jumpi(tag_2, lt(calldatasize, 0x04))\n      shr(0xe0, calldataload(0x00))\n      dup1\n      0x0a5bd44b\n      eq\n      tag_3\n      jumpi\n      dup1\n      0x38993c16\n      eq\n      tag_4\n      jumpi\n      dup1\n      0x7acc0b20\n      eq\n      tag_5\n      jumpi\n      dup1\n      0x8da5cb5b\n      eq\n      tag_6\n      jumpi\n      dup1\n      0xc29b2f20\n      eq\n      tag_7\n      jumpi\n      dup1\n      0xfcc93b0b\n      eq\n      tag_8\n      jumpi\n    tag_2:\n      0x00\n      dup1\n      revert\n        /* \"contracts/Store.sol\":313:601  function addNewProduct(string calldata name, uint quantity, uint price) public onlyOwner {\r... */\n    tag_3:\n      tag_9\n      0x04\n      dup1\n      calldatasize\n      sub\n      dup2\n      add\n      swap1\n      tag_10\n      swap2\n      swap1\n      tag_11\n      jump\t// in\n    tag_10:\n      tag_12\n      jump\t// in\n    tag_9:\n      stop\n        /* \"contracts/Store.sol\":256:304  mapping(string => bool) public availableProducts */\n    tag_4:\n      tag_13\n      0x04\n      dup1\n      calldatasize\n      sub\n      dup2\n      add\n      swap1\n      tag_14\n      swap2\n      swap1\n      tag_15\n      jump\t// in\n    tag_14:\n      tag_16\n      jump\t// in\n    tag_13:\n      mload(0x40)\n      tag_17\n      swap2\n      swap1\n      tag_18\n      jump\t// in\n    tag_17:\n      mload(0x40)\n      dup1\n      swap2\n      sub\n      swap1\n      return\n        /* \"contracts/Store.sol\":224:249  Product[] public products */\n    tag_5:\n      tag_19\n      0x04\n      dup1\n      calldatasize\n      sub\n      dup2\n      add\n      swap1\n      tag_20\n      swap2\n      swap1\n      tag_21\n      jump\t// in\n    tag_20:\n      tag_22\n      jump\t// in\n    tag_19:\n      mload(0x40)\n      tag_23\n      swap4\n      swap3\n      swap2\n      swap1\n      tag_24\n      jump\t// in\n    tag_23:\n      mload(0x40)\n      dup1\n      swap2\n      sub\n      swap1\n      return\n        /* \"contracts/Ownable.sol\":90:110  address public owner */\n    tag_6:\n      tag_25\n      tag_26\n      jump\t// in\n    tag_25:\n      mload(0x40)\n      tag_27\n      swap2\n      swap1\n      tag_28\n      jump\t// in\n    tag_27:\n      mload(0x40)\n      dup1\n      swap2\n      sub\n      swap1\n      return\n        /* \"contracts/Store.sol\":823:918  function getProducts() public view returns(Product[] memory) {\r... */\n    tag_7:\n      tag_29\n      tag_30\n      jump\t// in\n    tag_29:\n      mload(0x40)\n      tag_31\n      swap2\n      swap1\n      tag_32\n      jump\t// in\n    tag_31:\n      mload(0x40)\n      dup1\n      swap2\n      sub\n      swap1\n      return\n        /* \"contracts/Store.sol\":609:815  function updateProductQuantity(uint index, uint quantity) public onlyOwner {\r... */\n    tag_8:\n      tag_33\n      0x04\n      dup1\n      calldatasize\n      sub\n      dup2\n      add\n      swap1\n      tag_34\n      swap2\n      swap1\n      tag_35\n      jump\t// in\n    tag_34:\n      tag_36\n      jump\t// in\n    tag_33:\n      stop\n        /* \"contracts/Store.sol\":313:601  function addNewProduct(string calldata name, uint quantity, uint price) public onlyOwner {\r... */\n    tag_12:\n        /* \"contracts/Ownable.sol\":236:241  owner */\n      0x00\n      dup1\n      sload\n      swap1\n      0x0100\n      exp\n      swap1\n      div\n      0xffffffffffffffffffffffffffffffffffffffff\n      and\n        /* \"contracts/Ownable.sol\":222:241  msg.sender == owner */\n      0xffffffffffffffffffffffffffffffffffffffff\n      and\n        /* \"contracts/Ownable.sol\":222:232  msg.sender */\n      caller\n        /* \"contracts/Ownable.sol\":222:241  msg.sender == owner */\n      0xffffffffffffffffffffffffffffffffffffffff\n      and\n      eq\n        /* \"contracts/Ownable.sol\":214:268  require(msg.sender == owner, \"You are not the owner!\") */\n      tag_38\n      jumpi\n      mload(0x40)\n      0x08c379a000000000000000000000000000000000000000000000000000000000\n      dup2\n      mstore\n      0x04\n      add\n      tag_39\n      swap1\n      tag_40\n      jump\t// in\n    tag_39:\n      mload(0x40)\n      dup1\n      swap2\n      sub\n      swap1\n      revert\n    tag_38:\n        /* \"contracts/Store.sol\":422:439  availableProducts */\n      0x02\n        /* \"contracts/Store.sol\":440:444  name */\n      dup5\n      dup5\n        /* \"contracts/Store.sol\":422:445  availableProducts[name] */\n      mload(0x40)\n      tag_42\n      swap3\n      swap2\n      swap1\n      tag_43\n      jump\t// in\n    tag_42:\n      swap1\n      dup2\n      mstore\n      0x20\n      add\n      mload(0x40)\n      dup1\n      swap2\n      sub\n      swap1\n      keccak256\n      0x00\n      swap1\n      sload\n      swap1\n      0x0100\n      exp\n      swap1\n      div\n      0xff\n      and\n        /* \"contracts/Store.sol\":421:445  !availableProducts[name] */\n      iszero\n        /* \"contracts/Store.sol\":413:486  require(!availableProducts[name], \"The product is already in the store!\") */\n      tag_44\n      jumpi\n      mload(0x40)\n      0x08c379a000000000000000000000000000000000000000000000000000000000\n      dup2\n      mstore\n      0x04\n      add\n      tag_45\n      swap1\n      tag_46\n      jump\t// in\n    tag_45:\n      mload(0x40)\n      dup1\n      swap2\n      sub\n      swap1\n      revert\n    tag_44:\n        /* \"contracts/Store.sol\":533:537  true */\n      0x01\n        /* \"contracts/Store.sol\":507:524  availableProducts */\n      0x02\n        /* \"contracts/Store.sol\":525:529  name */\n      dup6\n      dup6\n        /* \"contracts/Store.sol\":507:530  availableProducts[name] */\n      mload(0x40)\n      tag_47\n      swap3\n      swap2\n      swap1\n      tag_43\n      jump\t// in\n    tag_47:\n      swap1\n      dup2\n      mstore\n      0x20\n      add\n      mload(0x40)\n      dup1\n      swap2\n      sub\n      swap1\n      keccak256\n      0x00\n        /* \"contracts/Store.sol\":507:537  availableProducts[name] = true */\n      0x0100\n      exp\n      dup2\n      sload\n      dup2\n      0xff\n      mul\n      not\n      and\n      swap1\n      dup4\n      iszero\n      iszero\n      mul\n      or\n      swap1\n      sstore\n      pop\n        /* \"contracts/Store.sol\":548:556  products */\n      0x01\n        /* \"contracts/Store.sol\":562:592  Product(name, quantity, price) */\n      mload(0x40)\n      dup1\n      0x60\n      add\n      0x40\n      mstore\n      dup1\n        /* \"contracts/Store.sol\":570:574  name */\n      dup7\n      dup7\n        /* \"contracts/Store.sol\":562:592  Product(name, quantity, price) */\n      dup1\n      dup1\n      0x1f\n      add\n      0x20\n      dup1\n      swap2\n      div\n      mul\n      0x20\n      add\n      mload(0x40)\n      swap1\n      dup2\n      add\n      0x40\n      mstore\n      dup1\n      swap4\n      swap3\n      swap2\n      swap1\n      dup2\n      dup2\n      mstore\n      0x20\n      add\n      dup4\n      dup4\n      dup1\n      dup3\n      dup5\n      calldatacopy\n      0x00\n      dup2\n      dup5\n      add\n      mstore\n      not(0x1f)\n      0x1f\n      dup3\n      add\n      and\n      swap1\n      pop\n      dup1\n      dup4\n      add\n      swap3\n      pop\n      pop\n      pop\n      pop\n      pop\n      pop\n      pop\n      dup2\n      mstore\n      0x20\n      add\n        /* \"contracts/Store.sol\":576:584  quantity */\n      dup5\n        /* \"contracts/Store.sol\":562:592  Product(name, quantity, price) */\n      dup2\n      mstore\n      0x20\n      add\n        /* \"contracts/Store.sol\":586:591  price */\n      dup4\n        /* \"contracts/Store.sol\":562:592  Product(name, quantity, price) */\n      dup2\n      mstore\n      pop\n        /* \"contracts/Store.sol\":548:593  products.push(Product(name, quantity, price)) */\n      swap1\n      dup1\n      0x01\n      dup2\n      sload\n      add\n      dup1\n      dup3\n      sstore\n      dup1\n      swap2\n      pop\n      pop\n      0x01\n      swap1\n      sub\n      swap1\n      0x00\n      mstore\n      keccak256(0x00, 0x20)\n      swap1\n      0x03\n      mul\n      add\n      0x00\n      swap1\n      swap2\n      swap1\n      swap2\n      swap1\n      swap2\n      pop\n      0x00\n      dup3\n      add\n      mload\n      dup2\n      0x00\n      add\n      swap1\n      dup1\n      mload\n      swap1\n      0x20\n      add\n      swap1\n      tag_49\n      swap3\n      swap2\n      swap1\n      tag_50\n      jump\t// in\n    tag_49:\n      pop\n      0x20\n      dup3\n      add\n      mload\n      dup2\n      0x01\n      add\n      sstore\n      0x40\n      dup3\n      add\n      mload\n      dup2\n      0x02\n      add\n      sstore\n      pop\n      pop\n        /* \"contracts/Store.sol\":313:601  function addNewProduct(string calldata name, uint quantity, uint price) public onlyOwner {\r... */\n      pop\n      pop\n      pop\n      pop\n      jump\t// out\n        /* \"contracts/Store.sol\":256:304  mapping(string => bool) public availableProducts */\n    tag_16:\n      0x02\n      dup2\n      dup1\n      mload\n      0x20\n      dup2\n      add\n      dup3\n      add\n      dup1\n      mload\n      dup5\n      dup3\n      mstore\n      0x20\n      dup4\n      add\n      0x20\n      dup6\n      add\n      keccak256\n      dup2\n      dup4\n      mstore\n      dup1\n      swap6\n      pop\n      pop\n      pop\n      pop\n      pop\n      pop\n      0x00\n      swap2\n      pop\n      sload\n      swap1\n      0x0100\n      exp\n      swap1\n      div\n      0xff\n      and\n      dup2\n      jump\t// out\n        /* \"contracts/Store.sol\":224:249  Product[] public products */\n    tag_22:\n      0x01\n      dup2\n      dup2\n      sload\n      dup2\n      lt\n      tag_51\n      jumpi\n      0x00\n      dup1\n      revert\n    tag_51:\n      swap1\n      0x00\n      mstore\n      keccak256(0x00, 0x20)\n      swap1\n      0x03\n      mul\n      add\n      0x00\n      swap2\n      pop\n      swap1\n      pop\n      dup1\n      0x00\n      add\n      dup1\n      sload\n      tag_53\n      swap1\n      tag_54\n      jump\t// in\n    tag_53:\n      dup1\n      0x1f\n      add\n      0x20\n      dup1\n      swap2\n      div\n      mul\n      0x20\n      add\n      mload(0x40)\n      swap1\n      dup2\n      add\n      0x40\n      mstore\n      dup1\n      swap3\n      swap2\n      swap1\n      dup2\n      dup2\n      mstore\n      0x20\n      add\n      dup3\n      dup1\n      sload\n      tag_55\n      swap1\n      tag_54\n      jump\t// in\n    tag_55:\n      dup1\n      iszero\n      tag_56\n      jumpi\n      dup1\n      0x1f\n      lt\n      tag_57\n      jumpi\n      0x0100\n      dup1\n      dup4\n      sload\n      div\n      mul\n      dup4\n      mstore\n      swap2\n      0x20\n      add\n      swap2\n      jump(tag_56)\n    tag_57:\n      dup3\n      add\n      swap2\n      swap1\n      0x00\n      mstore\n      keccak256(0x00, 0x20)\n      swap1\n    tag_58:\n      dup2\n      sload\n      dup2\n      mstore\n      swap1\n      0x01\n      add\n      swap1\n      0x20\n      add\n      dup1\n      dup4\n      gt\n      tag_58\n      jumpi\n      dup3\n      swap1\n      sub\n      0x1f\n      and\n      dup3\n      add\n      swap2\n    tag_56:\n      pop\n      pop\n      pop\n      pop\n      pop\n      swap1\n      dup1\n      0x01\n      add\n      sload\n      swap1\n      dup1\n      0x02\n      add\n      sload\n      swap1\n      pop\n      dup4\n      jump\t// out\n        /* \"contracts/Ownable.sol\":90:110  address public owner */\n    tag_26:\n      0x00\n      dup1\n      sload\n      swap1\n      0x0100\n      exp\n      swap1\n      div\n      0xffffffffffffffffffffffffffffffffffffffff\n      and\n      dup2\n      jump\t// out\n        /* \"contracts/Store.sol\":823:918  function getProducts() public view returns(Product[] memory) {\r... */\n    tag_30:\n        /* \"contracts/Store.sol\":866:882  Product[] memory */\n      0x60\n        /* \"contracts/Store.sol\":902:910  products */\n      0x01\n        /* \"contracts/Store.sol\":895:910  return products */\n      dup1\n      sload\n      dup1\n      0x20\n      mul\n      0x20\n      add\n      mload(0x40)\n      swap1\n      dup2\n      add\n      0x40\n      mstore\n      dup1\n      swap3\n      swap2\n      swap1\n      dup2\n      dup2\n      mstore\n      0x20\n      add\n      0x00\n      swap1\n    tag_60:\n      dup3\n      dup3\n      lt\n      iszero\n      tag_61\n      jumpi\n      dup4\n      dup3\n      swap1\n      0x00\n      mstore\n      keccak256(0x00, 0x20)\n      swap1\n      0x03\n      mul\n      add\n      mload(0x40)\n      dup1\n      0x60\n      add\n      0x40\n      mstore\n      swap1\n      dup2\n      0x00\n      dup3\n      add\n      dup1\n      sload\n      tag_63\n      swap1\n      tag_54\n      jump\t// in\n    tag_63:\n      dup1\n      0x1f\n      add\n      0x20\n      dup1\n      swap2\n      div\n      mul\n      0x20\n      add\n      mload(0x40)\n      swap1\n      dup2\n      add\n      0x40\n      mstore\n      dup1\n      swap3\n      swap2\n      swap1\n      dup2\n      dup2\n      mstore\n      0x20\n      add\n      dup3\n      dup1\n      sload\n      tag_64\n      swap1\n      tag_54\n      jump\t// in\n    tag_64:\n      dup1\n      iszero\n      tag_65\n      jumpi\n      dup1\n      0x1f\n      lt\n      tag_66\n      jumpi\n      0x0100\n      dup1\n      dup4\n      sload\n      div\n      mul\n      dup4\n      mstore\n      swap2\n      0x20\n      add\n      swap2\n      jump(tag_65)\n    tag_66:\n      dup3\n      add\n      swap2\n      swap1\n      0x00\n      mstore\n      keccak256(0x00, 0x20)\n      swap1\n    tag_67:\n      dup2\n      sload\n      dup2\n      mstore\n      swap1\n      0x01\n      add\n      swap1\n      0x20\n      add\n      dup1\n      dup4\n      gt\n      tag_67\n      jumpi\n      dup3\n      swap1\n      sub\n      0x1f\n      and\n      dup3\n      add\n      swap2\n    tag_65:\n      pop\n      pop\n      pop\n      pop\n      pop\n      dup2\n      mstore\n      0x20\n      add\n      0x01\n      dup3\n      add\n      sload\n      dup2\n      mstore\n      0x20\n      add\n      0x02\n      dup3\n      add\n      sload\n      dup2\n      mstore\n      pop\n      pop\n      dup2\n      mstore\n      0x20\n      add\n      swap1\n      0x01\n      add\n      swap1\n      jump(tag_60)\n    tag_61:\n      pop\n      pop\n      pop\n      pop\n      swap1\n      pop\n        /* \"contracts/Store.sol\":823:918  function getProducts() public view returns(Product[] memory) {\r... */\n      swap1\n      jump\t// out\n        /* \"contracts/Store.sol\":609:815  function updateProductQuantity(uint index, uint quantity) public onlyOwner {\r... */\n    tag_36:\n        /* \"contracts/Ownable.sol\":236:241  owner */\n      0x00\n      dup1\n      sload\n      swap1\n      0x0100\n      exp\n      swap1\n      div\n      0xffffffffffffffffffffffffffffffffffffffff\n      and\n        /* \"contracts/Ownable.sol\":222:241  msg.sender == owner */\n      0xffffffffffffffffffffffffffffffffffffffff\n      and\n        /* \"contracts/Ownable.sol\":222:232  msg.sender */\n      caller\n        /* \"contracts/Ownable.sol\":222:241  msg.sender == owner */\n      0xffffffffffffffffffffffffffffffffffffffff\n      and\n      eq\n        /* \"contracts/Ownable.sol\":214:268  require(msg.sender == owner, \"You are not the owner!\") */\n      tag_69\n      jumpi\n      mload(0x40)\n      0x08c379a000000000000000000000000000000000000000000000000000000000\n      dup2\n      mstore\n      0x04\n      add\n      tag_70\n      swap1\n      tag_40\n      jump\t// in\n    tag_70:\n      mload(0x40)\n      dup1\n      swap2\n      sub\n      swap1\n      revert\n    tag_69:\n        /* \"contracts/Store.sol\":711:719  products */\n      0x01\n        /* \"contracts/Store.sol\":711:726  products.length */\n      dup1\n      sload\n      swap1\n      pop\n        /* \"contracts/Store.sol\":703:708  index */\n      dup3\n        /* \"contracts/Store.sol\":703:726  index < products.length */\n      lt\n        /* \"contracts/Store.sol\":695:759  require(index < products.length, \"The product is not existing!\") */\n      tag_72\n      jumpi\n      mload(0x40)\n      0x08c379a000000000000000000000000000000000000000000000000000000000\n      dup2\n      mstore\n      0x04\n      add\n      tag_73\n      swap1\n      tag_74\n      jump\t// in\n    tag_73:\n      mload(0x40)\n      dup1\n      swap2\n      sub\n      swap1\n      revert\n    tag_72:\n        /* \"contracts/Store.sol\":799:807  quantity */\n      dup1\n        /* \"contracts/Store.sol\":772:780  products */\n      0x01\n        /* \"contracts/Store.sol\":781:786  index */\n      dup4\n        /* \"contracts/Store.sol\":772:787  products[index] */\n      dup2\n      sload\n      dup2\n      lt\n      tag_75\n      jumpi\n      tag_76\n      tag_77\n      jump\t// in\n    tag_76:\n    tag_75:\n      swap1\n      0x00\n      mstore\n      keccak256(0x00, 0x20)\n      swap1\n      0x03\n      mul\n      add\n        /* \"contracts/Store.sol\":772:796  products[index].quantity */\n      0x01\n      add\n        /* \"contracts/Store.sol\":772:807  products[index].quantity = quantity */\n      dup2\n      swap1\n      sstore\n      pop\n        /* \"contracts/Store.sol\":609:815  function updateProductQuantity(uint index, uint quantity) public onlyOwner {\r... */\n      pop\n      pop\n      jump\t// out\n    tag_50:\n      dup3\n      dup1\n      sload\n      tag_79\n      swap1\n      tag_54\n      jump\t// in\n    tag_79:\n      swap1\n      0x00\n      mstore\n      keccak256(0x00, 0x20)\n      swap1\n      0x1f\n      add\n      0x20\n      swap1\n      div\n      dup2\n      add\n      swap3\n      dup3\n      tag_81\n      jumpi\n      0x00\n      dup6\n      sstore\n      jump(tag_80)\n    tag_81:\n      dup3\n      0x1f\n      lt\n      tag_82\n      jumpi\n      dup1\n      mload\n      not(0xff)\n      and\n      dup4\n      dup1\n      add\n      or\n      dup6\n      sstore\n      jump(tag_80)\n    tag_82:\n      dup3\n      dup1\n      add\n      0x01\n      add\n      dup6\n      sstore\n      dup3\n      iszero\n      tag_80\n      jumpi\n      swap2\n      dup3\n      add\n    tag_83:\n      dup3\n      dup2\n      gt\n      iszero\n      tag_84\n      jumpi\n      dup3\n      mload\n      dup3\n      sstore\n      swap2\n      0x20\n      add\n      swap2\n      swap1\n      0x01\n      add\n      swap1\n      jump(tag_83)\n    tag_84:\n    tag_80:\n      pop\n      swap1\n      pop\n      tag_85\n      swap2\n      swap1\n      tag_86\n      jump\t// in\n    tag_85:\n      pop\n      swap1\n      jump\t// out\n    tag_86:\n    tag_87:\n      dup1\n      dup3\n      gt\n      iszero\n      tag_88\n      jumpi\n      0x00\n      dup2\n      0x00\n      swap1\n      sstore\n      pop\n      0x01\n      add\n      jump(tag_87)\n    tag_88:\n      pop\n      swap1\n      jump\t// out\n        /* \"#utility.yul\":7:419   */\n    tag_90:\n        /* \"#utility.yul\":85:90   */\n      0x00\n        /* \"#utility.yul\":110:176   */\n      tag_92\n        /* \"#utility.yul\":126:175   */\n      tag_93\n        /* \"#utility.yul\":168:174   */\n      dup5\n        /* \"#utility.yul\":126:175   */\n      tag_94\n      jump\t// in\n    tag_93:\n        /* \"#utility.yul\":110:176   */\n      tag_95\n      jump\t// in\n    tag_92:\n        /* \"#utility.yul\":101:176   */\n      swap1\n      pop\n        /* \"#utility.yul\":199:205   */\n      dup3\n        /* \"#utility.yul\":192:197   */\n      dup2\n        /* \"#utility.yul\":185:206   */\n      mstore\n        /* \"#utility.yul\":237:241   */\n      0x20\n        /* \"#utility.yul\":230:235   */\n      dup2\n        /* \"#utility.yul\":226:242   */\n      add\n        /* \"#utility.yul\":275:278   */\n      dup5\n        /* \"#utility.yul\":266:272   */\n      dup5\n        /* \"#utility.yul\":261:264   */\n      dup5\n        /* \"#utility.yul\":257:273   */\n      add\n        /* \"#utility.yul\":254:279   */\n      gt\n        /* \"#utility.yul\":251:363   */\n      iszero\n      tag_96\n      jumpi\n        /* \"#utility.yul\":282:361   */\n      tag_97\n      tag_98\n      jump\t// in\n    tag_97:\n        /* \"#utility.yul\":251:363   */\n    tag_96:\n        /* \"#utility.yul\":372:413   */\n      tag_99\n        /* \"#utility.yul\":406:412   */\n      dup5\n        /* \"#utility.yul\":401:404   */\n      dup3\n        /* \"#utility.yul\":396:399   */\n      dup6\n        /* \"#utility.yul\":372:413   */\n      tag_100\n      jump\t// in\n    tag_99:\n        /* \"#utility.yul\":91:419   */\n      pop\n        /* \"#utility.yul\":7:419   */\n      swap4\n      swap3\n      pop\n      pop\n      pop\n      jump\t// out\n        /* \"#utility.yul\":439:992   */\n    tag_101:\n        /* \"#utility.yul\":497:505   */\n      0x00\n        /* \"#utility.yul\":507:513   */\n      dup1\n        /* \"#utility.yul\":557:560   */\n      dup4\n        /* \"#utility.yul\":550:554   */\n      0x1f\n        /* \"#utility.yul\":542:548   */\n      dup5\n        /* \"#utility.yul\":538:555   */\n      add\n        /* \"#utility.yul\":534:561   */\n      slt\n        /* \"#utility.yul\":524:646   */\n      tag_103\n      jumpi\n        /* \"#utility.yul\":565:644   */\n      tag_104\n      tag_105\n      jump\t// in\n    tag_104:\n        /* \"#utility.yul\":524:646   */\n    tag_103:\n        /* \"#utility.yul\":678:684   */\n      dup3\n        /* \"#utility.yul\":665:685   */\n      calldataload\n        /* \"#utility.yul\":655:685   */\n      swap1\n      pop\n        /* \"#utility.yul\":708:726   */\n      0xffffffffffffffff\n        /* \"#utility.yul\":700:706   */\n      dup2\n        /* \"#utility.yul\":697:727   */\n      gt\n        /* \"#utility.yul\":694:811   */\n      iszero\n      tag_106\n      jumpi\n        /* \"#utility.yul\":730:809   */\n      tag_107\n      tag_108\n      jump\t// in\n    tag_107:\n        /* \"#utility.yul\":694:811   */\n    tag_106:\n        /* \"#utility.yul\":844:848   */\n      0x20\n        /* \"#utility.yul\":836:842   */\n      dup4\n        /* \"#utility.yul\":832:849   */\n      add\n        /* \"#utility.yul\":820:849   */\n      swap2\n      pop\n        /* \"#utility.yul\":898:901   */\n      dup4\n        /* \"#utility.yul\":890:894   */\n      0x01\n        /* \"#utility.yul\":882:888   */\n      dup3\n        /* \"#utility.yul\":878:895   */\n      mul\n        /* \"#utility.yul\":868:876   */\n      dup4\n        /* \"#utility.yul\":864:896   */\n      add\n        /* \"#utility.yul\":861:902   */\n      gt\n        /* \"#utility.yul\":858:986   */\n      iszero\n      tag_109\n      jumpi\n        /* \"#utility.yul\":905:984   */\n      tag_110\n      tag_111\n      jump\t// in\n    tag_110:\n        /* \"#utility.yul\":858:986   */\n    tag_109:\n        /* \"#utility.yul\":439:992   */\n      swap3\n      pop\n      swap3\n      swap1\n      pop\n      jump\t// out\n        /* \"#utility.yul\":1012:1352   */\n    tag_112:\n        /* \"#utility.yul\":1068:1073   */\n      0x00\n        /* \"#utility.yul\":1117:1120   */\n      dup3\n        /* \"#utility.yul\":1110:1114   */\n      0x1f\n        /* \"#utility.yul\":1102:1108   */\n      dup4\n        /* \"#utility.yul\":1098:1115   */\n      add\n        /* \"#utility.yul\":1094:1121   */\n      slt\n        /* \"#utility.yul\":1084:1206   */\n      tag_114\n      jumpi\n        /* \"#utility.yul\":1125:1204   */\n      tag_115\n      tag_105\n      jump\t// in\n    tag_115:\n        /* \"#utility.yul\":1084:1206   */\n    tag_114:\n        /* \"#utility.yul\":1242:1248   */\n      dup2\n        /* \"#utility.yul\":1229:1249   */\n      calldataload\n        /* \"#utility.yul\":1267:1346   */\n      tag_116\n        /* \"#utility.yul\":1342:1345   */\n      dup5\n        /* \"#utility.yul\":1334:1340   */\n      dup3\n        /* \"#utility.yul\":1327:1331   */\n      0x20\n        /* \"#utility.yul\":1319:1325   */\n      dup7\n        /* \"#utility.yul\":1315:1332   */\n      add\n        /* \"#utility.yul\":1267:1346   */\n      tag_90\n      jump\t// in\n    tag_116:\n        /* \"#utility.yul\":1258:1346   */\n      swap2\n      pop\n        /* \"#utility.yul\":1074:1352   */\n      pop\n        /* \"#utility.yul\":1012:1352   */\n      swap3\n      swap2\n      pop\n      pop\n      jump\t// out\n        /* \"#utility.yul\":1358:1497   */\n    tag_117:\n        /* \"#utility.yul\":1404:1409   */\n      0x00\n        /* \"#utility.yul\":1442:1448   */\n      dup2\n        /* \"#utility.yul\":1429:1449   */\n      calldataload\n        /* \"#utility.yul\":1420:1449   */\n      swap1\n      pop\n        /* \"#utility.yul\":1458:1491   */\n      tag_119\n        /* \"#utility.yul\":1485:1490   */\n      dup2\n        /* \"#utility.yul\":1458:1491   */\n      tag_120\n      jump\t// in\n    tag_119:\n        /* \"#utility.yul\":1358:1497   */\n      swap3\n      swap2\n      pop\n      pop\n      jump\t// out\n        /* \"#utility.yul\":1503:2322   */\n    tag_11:\n        /* \"#utility.yul\":1592:1598   */\n      0x00\n        /* \"#utility.yul\":1600:1606   */\n      dup1\n        /* \"#utility.yul\":1608:1614   */\n      0x00\n        /* \"#utility.yul\":1616:1622   */\n      dup1\n        /* \"#utility.yul\":1665:1667   */\n      0x60\n        /* \"#utility.yul\":1653:1662   */\n      dup6\n        /* \"#utility.yul\":1644:1651   */\n      dup8\n        /* \"#utility.yul\":1640:1663   */\n      sub\n        /* \"#utility.yul\":1636:1668   */\n      slt\n        /* \"#utility.yul\":1633:1752   */\n      iszero\n      tag_122\n      jumpi\n        /* \"#utility.yul\":1671:1750   */\n      tag_123\n      tag_124\n      jump\t// in\n    tag_123:\n        /* \"#utility.yul\":1633:1752   */\n    tag_122:\n        /* \"#utility.yul\":1819:1820   */\n      0x00\n        /* \"#utility.yul\":1808:1817   */\n      dup6\n        /* \"#utility.yul\":1804:1821   */\n      add\n        /* \"#utility.yul\":1791:1822   */\n      calldataload\n        /* \"#utility.yul\":1849:1867   */\n      0xffffffffffffffff\n        /* \"#utility.yul\":1841:1847   */\n      dup2\n        /* \"#utility.yul\":1838:1868   */\n      gt\n        /* \"#utility.yul\":1835:1952   */\n      iszero\n      tag_125\n      jumpi\n        /* \"#utility.yul\":1871:1950   */\n      tag_126\n      tag_127\n      jump\t// in\n    tag_126:\n        /* \"#utility.yul\":1835:1952   */\n    tag_125:\n        /* \"#utility.yul\":1984:2049   */\n      tag_128\n        /* \"#utility.yul\":2041:2048   */\n      dup8\n        /* \"#utility.yul\":2032:2038   */\n      dup3\n        /* \"#utility.yul\":2021:2030   */\n      dup9\n        /* \"#utility.yul\":2017:2039   */\n      add\n        /* \"#utility.yul\":1984:2049   */\n      tag_101\n      jump\t// in\n    tag_128:\n        /* \"#utility.yul\":1966:2049   */\n      swap5\n      pop\n      swap5\n      pop\n        /* \"#utility.yul\":1762:2059   */\n      pop\n        /* \"#utility.yul\":2098:2100   */\n      0x20\n        /* \"#utility.yul\":2124:2177   */\n      tag_129\n        /* \"#utility.yul\":2169:2176   */\n      dup8\n        /* \"#utility.yul\":2160:2166   */\n      dup3\n        /* \"#utility.yul\":2149:2158   */\n      dup9\n        /* \"#utility.yul\":2145:2167   */\n      add\n        /* \"#utility.yul\":2124:2177   */\n      tag_117\n      jump\t// in\n    tag_129:\n        /* \"#utility.yul\":2114:2177   */\n      swap3\n      pop\n        /* \"#utility.yul\":2069:2187   */\n      pop\n        /* \"#utility.yul\":2226:2228   */\n      0x40\n        /* \"#utility.yul\":2252:2305   */\n      tag_130\n        /* \"#utility.yul\":2297:2304   */\n      dup8\n        /* \"#utility.yul\":2288:2294   */\n      dup3\n        /* \"#utility.yul\":2277:2286   */\n      dup9\n        /* \"#utility.yul\":2273:2295   */\n      add\n        /* \"#utility.yul\":2252:2305   */\n      tag_117\n      jump\t// in\n    tag_130:\n        /* \"#utility.yul\":2242:2305   */\n      swap2\n      pop\n        /* \"#utility.yul\":2197:2315   */\n      pop\n        /* \"#utility.yul\":1503:2322   */\n      swap3\n      swap6\n      swap2\n      swap5\n      pop\n      swap3\n      pop\n      jump\t// out\n        /* \"#utility.yul\":2328:2837   */\n    tag_15:\n        /* \"#utility.yul\":2397:2403   */\n      0x00\n        /* \"#utility.yul\":2446:2448   */\n      0x20\n        /* \"#utility.yul\":2434:2443   */\n      dup3\n        /* \"#utility.yul\":2425:2432   */\n      dup5\n        /* \"#utility.yul\":2421:2444   */\n      sub\n        /* \"#utility.yul\":2417:2449   */\n      slt\n        /* \"#utility.yul\":2414:2533   */\n      iszero\n      tag_132\n      jumpi\n        /* \"#utility.yul\":2452:2531   */\n      tag_133\n      tag_124\n      jump\t// in\n    tag_133:\n        /* \"#utility.yul\":2414:2533   */\n    tag_132:\n        /* \"#utility.yul\":2600:2601   */\n      0x00\n        /* \"#utility.yul\":2589:2598   */\n      dup3\n        /* \"#utility.yul\":2585:2602   */\n      add\n        /* \"#utility.yul\":2572:2603   */\n      calldataload\n        /* \"#utility.yul\":2630:2648   */\n      0xffffffffffffffff\n        /* \"#utility.yul\":2622:2628   */\n      dup2\n        /* \"#utility.yul\":2619:2649   */\n      gt\n        /* \"#utility.yul\":2616:2733   */\n      iszero\n      tag_134\n      jumpi\n        /* \"#utility.yul\":2652:2731   */\n      tag_135\n      tag_127\n      jump\t// in\n    tag_135:\n        /* \"#utility.yul\":2616:2733   */\n    tag_134:\n        /* \"#utility.yul\":2757:2820   */\n      tag_136\n        /* \"#utility.yul\":2812:2819   */\n      dup5\n        /* \"#utility.yul\":2803:2809   */\n      dup3\n        /* \"#utility.yul\":2792:2801   */\n      dup6\n        /* \"#utility.yul\":2788:2810   */\n      add\n        /* \"#utility.yul\":2757:2820   */\n      tag_112\n      jump\t// in\n    tag_136:\n        /* \"#utility.yul\":2747:2820   */\n      swap2\n      pop\n        /* \"#utility.yul\":2543:2830   */\n      pop\n        /* \"#utility.yul\":2328:2837   */\n      swap3\n      swap2\n      pop\n      pop\n      jump\t// out\n        /* \"#utility.yul\":2843:3172   */\n    tag_21:\n        /* \"#utility.yul\":2902:2908   */\n      0x00\n        /* \"#utility.yul\":2951:2953   */\n      0x20\n        /* \"#utility.yul\":2939:2948   */\n      dup3\n        /* \"#utility.yul\":2930:2937   */\n      dup5\n        /* \"#utility.yul\":2926:2949   */\n      sub\n        /* \"#utility.yul\":2922:2954   */\n      slt\n        /* \"#utility.yul\":2919:3038   */\n      iszero\n      tag_138\n      jumpi\n        /* \"#utility.yul\":2957:3036   */\n      tag_139\n      tag_124\n      jump\t// in\n    tag_139:\n        /* \"#utility.yul\":2919:3038   */\n    tag_138:\n        /* \"#utility.yul\":3077:3078   */\n      0x00\n        /* \"#utility.yul\":3102:3155   */\n      tag_140\n        /* \"#utility.yul\":3147:3154   */\n      dup5\n        /* \"#utility.yul\":3138:3144   */\n      dup3\n        /* \"#utility.yul\":3127:3136   */\n      dup6\n        /* \"#utility.yul\":3123:3145   */\n      add\n        /* \"#utility.yul\":3102:3155   */\n      tag_117\n      jump\t// in\n    tag_140:\n        /* \"#utility.yul\":3092:3155   */\n      swap2\n      pop\n        /* \"#utility.yul\":3048:3165   */\n      pop\n        /* \"#utility.yul\":2843:3172   */\n      swap3\n      swap2\n      pop\n      pop\n      jump\t// out\n        /* \"#utility.yul\":3178:3652   */\n    tag_35:\n        /* \"#utility.yul\":3246:3252   */\n      0x00\n        /* \"#utility.yul\":3254:3260   */\n      dup1\n        /* \"#utility.yul\":3303:3305   */\n      0x40\n        /* \"#utility.yul\":3291:3300   */\n      dup4\n        /* \"#utility.yul\":3282:3289   */\n      dup6\n        /* \"#utility.yul\":3278:3301   */\n      sub\n        /* \"#utility.yul\":3274:3306   */\n      slt\n        /* \"#utility.yul\":3271:3390   */\n      iszero\n      tag_142\n      jumpi\n        /* \"#utility.yul\":3309:3388   */\n      tag_143\n      tag_124\n      jump\t// in\n    tag_143:\n        /* \"#utility.yul\":3271:3390   */\n    tag_142:\n        /* \"#utility.yul\":3429:3430   */\n      0x00\n        /* \"#utility.yul\":3454:3507   */\n      tag_144\n        /* \"#utility.yul\":3499:3506   */\n      dup6\n        /* \"#utility.yul\":3490:3496   */\n      dup3\n        /* \"#utility.yul\":3479:3488   */\n      dup7\n        /* \"#utility.yul\":3475:3497   */\n      add\n        /* \"#utility.yul\":3454:3507   */\n      tag_117\n      jump\t// in\n    tag_144:\n        /* \"#utility.yul\":3444:3507   */\n      swap3\n      pop\n        /* \"#utility.yul\":3400:3517   */\n      pop\n        /* \"#utility.yul\":3556:3558   */\n      0x20\n        /* \"#utility.yul\":3582:3635   */\n      tag_145\n        /* \"#utility.yul\":3627:3634   */\n      dup6\n        /* \"#utility.yul\":3618:3624   */\n      dup3\n        /* \"#utility.yul\":3607:3616   */\n      dup7\n        /* \"#utility.yul\":3603:3625   */\n      add\n        /* \"#utility.yul\":3582:3635   */\n      tag_117\n      jump\t// in\n    tag_145:\n        /* \"#utility.yul\":3572:3635   */\n      swap2\n      pop\n        /* \"#utility.yul\":3527:3645   */\n      pop\n        /* \"#utility.yul\":3178:3652   */\n      swap3\n      pop\n      swap3\n      swap1\n      pop\n      jump\t// out\n        /* \"#utility.yul\":3658:3906   */\n    tag_146:\n        /* \"#utility.yul\":3773:3783   */\n      0x00\n        /* \"#utility.yul\":3808:3900   */\n      tag_148\n        /* \"#utility.yul\":3896:3899   */\n      dup4\n        /* \"#utility.yul\":3888:3894   */\n      dup4\n        /* \"#utility.yul\":3808:3900   */\n      tag_149\n      jump\t// in\n    tag_148:\n        /* \"#utility.yul\":3794:3900   */\n      swap1\n      pop\n        /* \"#utility.yul\":3658:3906   */\n      swap3\n      swap2\n      pop\n      pop\n      jump\t// out\n        /* \"#utility.yul\":3912:4030   */\n    tag_150:\n        /* \"#utility.yul\":3999:4023   */\n      tag_152\n        /* \"#utility.yul\":4017:4022   */\n      dup2\n        /* \"#utility.yul\":3999:4023   */\n      tag_153\n      jump\t// in\n    tag_152:\n        /* \"#utility.yul\":3994:3997   */\n      dup3\n        /* \"#utility.yul\":3987:4024   */\n      mstore\n        /* \"#utility.yul\":3912:4030   */\n      pop\n      pop\n      jump\t// out\n        /* \"#utility.yul\":4092:5187   */\n    tag_154:\n        /* \"#utility.yul\":4257:4260   */\n      0x00\n        /* \"#utility.yul\":4286:4363   */\n      tag_156\n        /* \"#utility.yul\":4357:4362   */\n      dup3\n        /* \"#utility.yul\":4286:4363   */\n      tag_157\n      jump\t// in\n    tag_156:\n        /* \"#utility.yul\":4379:4488   */\n      tag_158\n        /* \"#utility.yul\":4481:4487   */\n      dup2\n        /* \"#utility.yul\":4476:4479   */\n      dup6\n        /* \"#utility.yul\":4379:4488   */\n      tag_159\n      jump\t// in\n    tag_158:\n        /* \"#utility.yul\":4372:4488   */\n      swap4\n      pop\n        /* \"#utility.yul\":4514:4517   */\n      dup4\n        /* \"#utility.yul\":4559:4563   */\n      0x20\n        /* \"#utility.yul\":4551:4557   */\n      dup3\n        /* \"#utility.yul\":4547:4564   */\n      mul\n        /* \"#utility.yul\":4542:4545   */\n      dup6\n        /* \"#utility.yul\":4538:4565   */\n      add\n        /* \"#utility.yul\":4589:4668   */\n      tag_160\n        /* \"#utility.yul\":4662:4667   */\n      dup6\n        /* \"#utility.yul\":4589:4668   */\n      tag_161\n      jump\t// in\n    tag_160:\n        /* \"#utility.yul\":4691:4698   */\n      dup1\n        /* \"#utility.yul\":4722:4723   */\n      0x00\n        /* \"#utility.yul\":4707:5142   */\n    tag_162:\n        /* \"#utility.yul\":4732:4738   */\n      dup6\n        /* \"#utility.yul\":4729:4730   */\n      dup2\n        /* \"#utility.yul\":4726:4739   */\n      lt\n        /* \"#utility.yul\":4707:5142   */\n      iszero\n      tag_164\n      jumpi\n        /* \"#utility.yul\":4803:4812   */\n      dup5\n        /* \"#utility.yul\":4797:4801   */\n      dup5\n        /* \"#utility.yul\":4793:4813   */\n      sub\n        /* \"#utility.yul\":4788:4791   */\n      dup10\n        /* \"#utility.yul\":4781:4814   */\n      mstore\n        /* \"#utility.yul\":4854:4860   */\n      dup2\n        /* \"#utility.yul\":4848:4861   */\n      mload\n        /* \"#utility.yul\":4882:4992   */\n      tag_165\n        /* \"#utility.yul\":4987:4991   */\n      dup6\n        /* \"#utility.yul\":4972:4985   */\n      dup3\n        /* \"#utility.yul\":4882:4992   */\n      tag_146\n      jump\t// in\n    tag_165:\n        /* \"#utility.yul\":4874:4992   */\n      swap5\n      pop\n        /* \"#utility.yul\":5015:5098   */\n      tag_166\n        /* \"#utility.yul\":5091:5097   */\n      dup4\n        /* \"#utility.yul\":5015:5098   */\n      tag_167\n      jump\t// in\n    tag_166:\n        /* \"#utility.yul\":5005:5098   */\n      swap3\n      pop\n        /* \"#utility.yul\":5127:5131   */\n      0x20\n        /* \"#utility.yul\":5122:5125   */\n      dup11\n        /* \"#utility.yul\":5118:5132   */\n      add\n        /* \"#utility.yul\":5111:5132   */\n      swap10\n      pop\n        /* \"#utility.yul\":4767:5142   */\n      pop\n        /* \"#utility.yul\":4754:4755   */\n      0x01\n        /* \"#utility.yul\":4751:4752   */\n      dup2\n        /* \"#utility.yul\":4747:4756   */\n      add\n        /* \"#utility.yul\":4742:4756   */\n      swap1\n      pop\n        /* \"#utility.yul\":4707:5142   */\n      jump(tag_162)\n    tag_164:\n        /* \"#utility.yul\":4711:4725   */\n      pop\n        /* \"#utility.yul\":5158:5162   */\n      dup3\n        /* \"#utility.yul\":5151:5162   */\n      swap8\n      pop\n        /* \"#utility.yul\":5178:5181   */\n      dup8\n        /* \"#utility.yul\":5171:5181   */\n      swap6\n      pop\n        /* \"#utility.yul\":4262:5187   */\n      pop\n      pop\n      pop\n      pop\n      pop\n        /* \"#utility.yul\":4092:5187   */\n      swap3\n      swap2\n      pop\n      pop\n      jump\t// out\n        /* \"#utility.yul\":5193:5302   */\n    tag_168:\n        /* \"#utility.yul\":5274:5295   */\n      tag_170\n        /* \"#utility.yul\":5289:5294   */\n      dup2\n        /* \"#utility.yul\":5274:5295   */\n      tag_171\n      jump\t// in\n    tag_170:\n        /* \"#utility.yul\":5269:5272   */\n      dup3\n        /* \"#utility.yul\":5262:5296   */\n      mstore\n        /* \"#utility.yul\":5193:5302   */\n      pop\n      pop\n      jump\t// out\n        /* \"#utility.yul\":5332:5649   */\n    tag_172:\n        /* \"#utility.yul\":5448:5451   */\n      0x00\n        /* \"#utility.yul\":5469:5558   */\n      tag_174\n        /* \"#utility.yul\":5551:5557   */\n      dup4\n        /* \"#utility.yul\":5546:5549   */\n      dup6\n        /* \"#utility.yul\":5469:5558   */\n      tag_175\n      jump\t// in\n    tag_174:\n        /* \"#utility.yul\":5462:5558   */\n      swap4\n      pop\n        /* \"#utility.yul\":5568:5611   */\n      tag_176\n        /* \"#utility.yul\":5604:5610   */\n      dup4\n        /* \"#utility.yul\":5599:5602   */\n      dup6\n        /* \"#utility.yul\":5592:5597   */\n      dup5\n        /* \"#utility.yul\":5568:5611   */\n      tag_100\n      jump\t// in\n    tag_176:\n        /* \"#utility.yul\":5636:5642   */\n      dup3\n        /* \"#utility.yul\":5631:5634   */\n      dup5\n        /* \"#utility.yul\":5627:5643   */\n      add\n        /* \"#utility.yul\":5620:5643   */\n      swap1\n      pop\n        /* \"#utility.yul\":5332:5649   */\n      swap4\n      swap3\n      pop\n      pop\n      pop\n      jump\t// out\n        /* \"#utility.yul\":5655:5999   */\n    tag_177:\n        /* \"#utility.yul\":5733:5736   */\n      0x00\n        /* \"#utility.yul\":5761:5800   */\n      tag_179\n        /* \"#utility.yul\":5794:5799   */\n      dup3\n        /* \"#utility.yul\":5761:5800   */\n      tag_180\n      jump\t// in\n    tag_179:\n        /* \"#utility.yul\":5816:5877   */\n      tag_181\n        /* \"#utility.yul\":5870:5876   */\n      dup2\n        /* \"#utility.yul\":5865:5868   */\n      dup6\n        /* \"#utility.yul\":5816:5877   */\n      tag_182\n      jump\t// in\n    tag_181:\n        /* \"#utility.yul\":5809:5877   */\n      swap4\n      pop\n        /* \"#utility.yul\":5886:5938   */\n      tag_183\n        /* \"#utility.yul\":5931:5937   */\n      dup2\n        /* \"#utility.yul\":5926:5929   */\n      dup6\n        /* \"#utility.yul\":5919:5923   */\n      0x20\n        /* \"#utility.yul\":5912:5917   */\n      dup7\n        /* \"#utility.yul\":5908:5924   */\n      add\n        /* \"#utility.yul\":5886:5938   */\n      tag_184\n      jump\t// in\n    tag_183:\n        /* \"#utility.yul\":5963:5992   */\n      tag_185\n        /* \"#utility.yul\":5985:5991   */\n      dup2\n        /* \"#utility.yul\":5963:5992   */\n      tag_186\n      jump\t// in\n    tag_185:\n        /* \"#utility.yul\":5958:5961   */\n      dup5\n        /* \"#utility.yul\":5954:5993   */\n      add\n        /* \"#utility.yul\":5947:5993   */\n      swap2\n      pop\n        /* \"#utility.yul\":5737:5999   */\n      pop\n        /* \"#utility.yul\":5655:5999   */\n      swap3\n      swap2\n      pop\n      pop\n      jump\t// out\n        /* \"#utility.yul\":6005:6369   */\n    tag_187:\n        /* \"#utility.yul\":6093:6096   */\n      0x00\n        /* \"#utility.yul\":6121:6160   */\n      tag_189\n        /* \"#utility.yul\":6154:6159   */\n      dup3\n        /* \"#utility.yul\":6121:6160   */\n      tag_180\n      jump\t// in\n    tag_189:\n        /* \"#utility.yul\":6176:6247   */\n      tag_190\n        /* \"#utility.yul\":6240:6246   */\n      dup2\n        /* \"#utility.yul\":6235:6238   */\n      dup6\n        /* \"#utility.yul\":6176:6247   */\n      tag_191\n      jump\t// in\n    tag_190:\n        /* \"#utility.yul\":6169:6247   */\n      swap4\n      pop\n        /* \"#utility.yul\":6256:6308   */\n      tag_192\n        /* \"#utility.yul\":6301:6307   */\n      dup2\n        /* \"#utility.yul\":6296:6299   */\n      dup6\n        /* \"#utility.yul\":6289:6293   */\n      0x20\n        /* \"#utility.yul\":6282:6287   */\n      dup7\n        /* \"#utility.yul\":6278:6294   */\n      add\n        /* \"#utility.yul\":6256:6308   */\n      tag_184\n      jump\t// in\n    tag_192:\n        /* \"#utility.yul\":6333:6362   */\n      tag_193\n        /* \"#utility.yul\":6355:6361   */\n      dup2\n        /* \"#utility.yul\":6333:6362   */\n      tag_186\n      jump\t// in\n    tag_193:\n        /* \"#utility.yul\":6328:6331   */\n      dup5\n        /* \"#utility.yul\":6324:6363   */\n      add\n        /* \"#utility.yul\":6317:6363   */\n      swap2\n      pop\n        /* \"#utility.yul\":6097:6369   */\n      pop\n        /* \"#utility.yul\":6005:6369   */\n      swap3\n      swap2\n      pop\n      pop\n      jump\t// out\n        /* \"#utility.yul\":6375:6741   */\n    tag_194:\n        /* \"#utility.yul\":6517:6520   */\n      0x00\n        /* \"#utility.yul\":6538:6605   */\n      tag_196\n        /* \"#utility.yul\":6602:6604   */\n      0x16\n        /* \"#utility.yul\":6597:6600   */\n      dup4\n        /* \"#utility.yul\":6538:6605   */\n      tag_191\n      jump\t// in\n    tag_196:\n        /* \"#utility.yul\":6531:6605   */\n      swap2\n      pop\n        /* \"#utility.yul\":6614:6707   */\n      tag_197\n        /* \"#utility.yul\":6703:6706   */\n      dup3\n        /* \"#utility.yul\":6614:6707   */\n      tag_198\n      jump\t// in\n    tag_197:\n        /* \"#utility.yul\":6732:6734   */\n      0x20\n        /* \"#utility.yul\":6727:6730   */\n      dup3\n        /* \"#utility.yul\":6723:6735   */\n      add\n        /* \"#utility.yul\":6716:6735   */\n      swap1\n      pop\n        /* \"#utility.yul\":6375:6741   */\n      swap2\n      swap1\n      pop\n      jump\t// out\n        /* \"#utility.yul\":6747:7113   */\n    tag_199:\n        /* \"#utility.yul\":6889:6892   */\n      0x00\n        /* \"#utility.yul\":6910:6977   */\n      tag_201\n        /* \"#utility.yul\":6974:6976   */\n      0x1c\n        /* \"#utility.yul\":6969:6972   */\n      dup4\n        /* \"#utility.yul\":6910:6977   */\n      tag_191\n      jump\t// in\n    tag_201:\n        /* \"#utility.yul\":6903:6977   */\n      swap2\n      pop\n        /* \"#utility.yul\":6986:7079   */\n      tag_202\n        /* \"#utility.yul\":7075:7078   */\n      dup3\n        /* \"#utility.yul\":6986:7079   */\n      tag_203\n      jump\t// in\n    tag_202:\n        /* \"#utility.yul\":7104:7106   */\n      0x20\n        /* \"#utility.yul\":7099:7102   */\n      dup3\n        /* \"#utility.yul\":7095:7107   */\n      add\n        /* \"#utility.yul\":7088:7107   */\n      swap1\n      pop\n        /* \"#utility.yul\":6747:7113   */\n      swap2\n      swap1\n      pop\n      jump\t// out\n        /* \"#utility.yul\":7119:7485   */\n    tag_204:\n        /* \"#utility.yul\":7261:7264   */\n      0x00\n        /* \"#utility.yul\":7282:7349   */\n      tag_206\n        /* \"#utility.yul\":7346:7348   */\n      0x24\n        /* \"#utility.yul\":7341:7344   */\n      dup4\n        /* \"#utility.yul\":7282:7349   */\n      tag_191\n      jump\t// in\n    tag_206:\n        /* \"#utility.yul\":7275:7349   */\n      swap2\n      pop\n        /* \"#utility.yul\":7358:7451   */\n      tag_207\n        /* \"#utility.yul\":7447:7450   */\n      dup3\n        /* \"#utility.yul\":7358:7451   */\n      tag_208\n      jump\t// in\n    tag_207:\n        /* \"#utility.yul\":7476:7478   */\n      0x40\n        /* \"#utility.yul\":7471:7474   */\n      dup3\n        /* \"#utility.yul\":7467:7479   */\n      add\n        /* \"#utility.yul\":7460:7479   */\n      swap1\n      pop\n        /* \"#utility.yul\":7119:7485   */\n      swap2\n      swap1\n      pop\n      jump\t// out\n        /* \"#utility.yul\":7543:8314   */\n    tag_149:\n        /* \"#utility.yul\":7648:7651   */\n      0x00\n        /* \"#utility.yul\":7684:7688   */\n      0x60\n        /* \"#utility.yul\":7679:7682   */\n      dup4\n        /* \"#utility.yul\":7675:7689   */\n      add\n        /* \"#utility.yul\":7771:7775   */\n      0x00\n        /* \"#utility.yul\":7764:7769   */\n      dup4\n        /* \"#utility.yul\":7760:7776   */\n      add\n        /* \"#utility.yul\":7754:7777   */\n      mload\n        /* \"#utility.yul\":7824:7827   */\n      dup5\n        /* \"#utility.yul\":7818:7822   */\n      dup3\n        /* \"#utility.yul\":7814:7828   */\n      sub\n        /* \"#utility.yul\":7807:7811   */\n      0x00\n        /* \"#utility.yul\":7802:7805   */\n      dup7\n        /* \"#utility.yul\":7798:7812   */\n      add\n        /* \"#utility.yul\":7791:7829   */\n      mstore\n        /* \"#utility.yul\":7850:7923   */\n      tag_210\n        /* \"#utility.yul\":7918:7922   */\n      dup3\n        /* \"#utility.yul\":7904:7916   */\n      dup3\n        /* \"#utility.yul\":7850:7923   */\n      tag_177\n      jump\t// in\n    tag_210:\n        /* \"#utility.yul\":7842:7923   */\n      swap2\n      pop\n        /* \"#utility.yul\":7699:7934   */\n      pop\n        /* \"#utility.yul\":8020:8024   */\n      0x20\n        /* \"#utility.yul\":8013:8018   */\n      dup4\n        /* \"#utility.yul\":8009:8025   */\n      add\n        /* \"#utility.yul\":8003:8026   */\n      mload\n        /* \"#utility.yul\":8039:8102   */\n      tag_211\n        /* \"#utility.yul\":8096:8100   */\n      0x20\n        /* \"#utility.yul\":8091:8094   */\n      dup7\n        /* \"#utility.yul\":8087:8101   */\n      add\n        /* \"#utility.yul\":8073:8085   */\n      dup3\n        /* \"#utility.yul\":8039:8102   */\n      tag_212\n      jump\t// in\n    tag_211:\n        /* \"#utility.yul\":7944:8112   */\n      pop\n        /* \"#utility.yul\":8195:8199   */\n      0x40\n        /* \"#utility.yul\":8188:8193   */\n      dup4\n        /* \"#utility.yul\":8184:8200   */\n      add\n        /* \"#utility.yul\":8178:8201   */\n      mload\n        /* \"#utility.yul\":8214:8277   */\n      tag_213\n        /* \"#utility.yul\":8271:8275   */\n      0x40\n        /* \"#utility.yul\":8266:8269   */\n      dup7\n        /* \"#utility.yul\":8262:8276   */\n      add\n        /* \"#utility.yul\":8248:8260   */\n      dup3\n        /* \"#utility.yul\":8214:8277   */\n      tag_212\n      jump\t// in\n    tag_213:\n        /* \"#utility.yul\":8122:8287   */\n      pop\n        /* \"#utility.yul\":8304:8308   */\n      dup1\n        /* \"#utility.yul\":8297:8308   */\n      swap2\n      pop\n        /* \"#utility.yul\":7653:8314   */\n      pop\n        /* \"#utility.yul\":7543:8314   */\n      swap3\n      swap2\n      pop\n      pop\n      jump\t// out\n        /* \"#utility.yul\":8320:8428   */\n    tag_212:\n        /* \"#utility.yul\":8397:8421   */\n      tag_215\n        /* \"#utility.yul\":8415:8420   */\n      dup2\n        /* \"#utility.yul\":8397:8421   */\n      tag_216\n      jump\t// in\n    tag_215:\n        /* \"#utility.yul\":8392:8395   */\n      dup3\n        /* \"#utility.yul\":8385:8422   */\n      mstore\n        /* \"#utility.yul\":8320:8428   */\n      pop\n      pop\n      jump\t// out\n        /* \"#utility.yul\":8434:8552   */\n    tag_217:\n        /* \"#utility.yul\":8521:8545   */\n      tag_219\n        /* \"#utility.yul\":8539:8544   */\n      dup2\n        /* \"#utility.yul\":8521:8545   */\n      tag_216\n      jump\t// in\n    tag_219:\n        /* \"#utility.yul\":8516:8519   */\n      dup3\n        /* \"#utility.yul\":8509:8546   */\n      mstore\n        /* \"#utility.yul\":8434:8552   */\n      pop\n      pop\n      jump\t// out\n        /* \"#utility.yul\":8558:8853   */\n    tag_43:\n        /* \"#utility.yul\":8700:8703   */\n      0x00\n        /* \"#utility.yul\":8722:8827   */\n      tag_221\n        /* \"#utility.yul\":8823:8826   */\n      dup3\n        /* \"#utility.yul\":8814:8820   */\n      dup5\n        /* \"#utility.yul\":8806:8812   */\n      dup7\n        /* \"#utility.yul\":8722:8827   */\n      tag_172\n      jump\t// in\n    tag_221:\n        /* \"#utility.yul\":8715:8827   */\n      swap2\n      pop\n        /* \"#utility.yul\":8844:8847   */\n      dup2\n        /* \"#utility.yul\":8837:8847   */\n      swap1\n      pop\n        /* \"#utility.yul\":8558:8853   */\n      swap4\n      swap3\n      pop\n      pop\n      pop\n      jump\t// out\n        /* \"#utility.yul\":8859:9081   */\n    tag_28:\n        /* \"#utility.yul\":8952:8956   */\n      0x00\n        /* \"#utility.yul\":8990:8992   */\n      0x20\n        /* \"#utility.yul\":8979:8988   */\n      dup3\n        /* \"#utility.yul\":8975:8993   */\n      add\n        /* \"#utility.yul\":8967:8993   */\n      swap1\n      pop\n        /* \"#utility.yul\":9003:9074   */\n      tag_223\n        /* \"#utility.yul\":9071:9072   */\n      0x00\n        /* \"#utility.yul\":9060:9069   */\n      dup4\n        /* \"#utility.yul\":9056:9073   */\n      add\n        /* \"#utility.yul\":9047:9053   */\n      dup5\n        /* \"#utility.yul\":9003:9074   */\n      tag_150\n      jump\t// in\n    tag_223:\n        /* \"#utility.yul\":8859:9081   */\n      swap3\n      swap2\n      pop\n      pop\n      jump\t// out\n        /* \"#utility.yul\":9087:9552   */\n    tag_32:\n        /* \"#utility.yul\":9276:9280   */\n      0x00\n        /* \"#utility.yul\":9314:9316   */\n      0x20\n        /* \"#utility.yul\":9303:9312   */\n      dup3\n        /* \"#utility.yul\":9299:9317   */\n      add\n        /* \"#utility.yul\":9291:9317   */\n      swap1\n      pop\n        /* \"#utility.yul\":9363:9372   */\n      dup2\n        /* \"#utility.yul\":9357:9361   */\n      dup2\n        /* \"#utility.yul\":9353:9373   */\n      sub\n        /* \"#utility.yul\":9349:9350   */\n      0x00\n        /* \"#utility.yul\":9338:9347   */\n      dup4\n        /* \"#utility.yul\":9334:9351   */\n      add\n        /* \"#utility.yul\":9327:9374   */\n      mstore\n        /* \"#utility.yul\":9391:9545   */\n      tag_225\n        /* \"#utility.yul\":9540:9544   */\n      dup2\n        /* \"#utility.yul\":9531:9537   */\n      dup5\n        /* \"#utility.yul\":9391:9545   */\n      tag_154\n      jump\t// in\n    tag_225:\n        /* \"#utility.yul\":9383:9545   */\n      swap1\n      pop\n        /* \"#utility.yul\":9087:9552   */\n      swap3\n      swap2\n      pop\n      pop\n      jump\t// out\n        /* \"#utility.yul\":9558:9768   */\n    tag_18:\n        /* \"#utility.yul\":9645:9649   */\n      0x00\n        /* \"#utility.yul\":9683:9685   */\n      0x20\n        /* \"#utility.yul\":9672:9681   */\n      dup3\n        /* \"#utility.yul\":9668:9686   */\n      add\n        /* \"#utility.yul\":9660:9686   */\n      swap1\n      pop\n        /* \"#utility.yul\":9696:9761   */\n      tag_227\n        /* \"#utility.yul\":9758:9759   */\n      0x00\n        /* \"#utility.yul\":9747:9756   */\n      dup4\n        /* \"#utility.yul\":9743:9760   */\n      add\n        /* \"#utility.yul\":9734:9740   */\n      dup5\n        /* \"#utility.yul\":9696:9761   */\n      tag_168\n      jump\t// in\n    tag_227:\n        /* \"#utility.yul\":9558:9768   */\n      swap3\n      swap2\n      pop\n      pop\n      jump\t// out\n        /* \"#utility.yul\":9774:10307   */\n    tag_24:\n        /* \"#utility.yul\":9943:9947   */\n      0x00\n        /* \"#utility.yul\":9981:9983   */\n      0x60\n        /* \"#utility.yul\":9970:9979   */\n      dup3\n        /* \"#utility.yul\":9966:9984   */\n      add\n        /* \"#utility.yul\":9958:9984   */\n      swap1\n      pop\n        /* \"#utility.yul\":10030:10039   */\n      dup2\n        /* \"#utility.yul\":10024:10028   */\n      dup2\n        /* \"#utility.yul\":10020:10040   */\n      sub\n        /* \"#utility.yul\":10016:10017   */\n      0x00\n        /* \"#utility.yul\":10005:10014   */\n      dup4\n        /* \"#utility.yul\":10001:10018   */\n      add\n        /* \"#utility.yul\":9994:10041   */\n      mstore\n        /* \"#utility.yul\":10058:10136   */\n      tag_229\n        /* \"#utility.yul\":10131:10135   */\n      dup2\n        /* \"#utility.yul\":10122:10128   */\n      dup7\n        /* \"#utility.yul\":10058:10136   */\n      tag_187\n      jump\t// in\n    tag_229:\n        /* \"#utility.yul\":10050:10136   */\n      swap1\n      pop\n        /* \"#utility.yul\":10146:10218   */\n      tag_230\n        /* \"#utility.yul\":10214:10216   */\n      0x20\n        /* \"#utility.yul\":10203:10212   */\n      dup4\n        /* \"#utility.yul\":10199:10217   */\n      add\n        /* \"#utility.yul\":10190:10196   */\n      dup6\n        /* \"#utility.yul\":10146:10218   */\n      tag_217\n      jump\t// in\n    tag_230:\n        /* \"#utility.yul\":10228:10300   */\n      tag_231\n        /* \"#utility.yul\":10296:10298   */\n      0x40\n        /* \"#utility.yul\":10285:10294   */\n      dup4\n        /* \"#utility.yul\":10281:10299   */\n      add\n        /* \"#utility.yul\":10272:10278   */\n      dup5\n        /* \"#utility.yul\":10228:10300   */\n      tag_217\n      jump\t// in\n    tag_231:\n        /* \"#utility.yul\":9774:10307   */\n      swap5\n      swap4\n      pop\n      pop\n      pop\n      pop\n      jump\t// out\n        /* \"#utility.yul\":10313:10732   */\n    tag_40:\n        /* \"#utility.yul\":10479:10483   */\n      0x00\n        /* \"#utility.yul\":10517:10519   */\n      0x20\n        /* \"#utility.yul\":10506:10515   */\n      dup3\n        /* \"#utility.yul\":10502:10520   */\n      add\n        /* \"#utility.yul\":10494:10520   */\n      swap1\n      pop\n        /* \"#utility.yul\":10566:10575   */\n      dup2\n        /* \"#utility.yul\":10560:10564   */\n      dup2\n        /* \"#utility.yul\":10556:10576   */\n      sub\n        /* \"#utility.yul\":10552:10553   */\n      0x00\n        /* \"#utility.yul\":10541:10550   */\n      dup4\n        /* \"#utility.yul\":10537:10554   */\n      add\n        /* \"#utility.yul\":10530:10577   */\n      mstore\n        /* \"#utility.yul\":10594:10725   */\n      tag_233\n        /* \"#utility.yul\":10720:10724   */\n      dup2\n        /* \"#utility.yul\":10594:10725   */\n      tag_194\n      jump\t// in\n    tag_233:\n        /* \"#utility.yul\":10586:10725   */\n      swap1\n      pop\n        /* \"#utility.yul\":10313:10732   */\n      swap2\n      swap1\n      pop\n      jump\t// out\n        /* \"#utility.yul\":10738:11157   */\n    tag_74:\n        /* \"#utility.yul\":10904:10908   */\n      0x00\n        /* \"#utility.yul\":10942:10944   */\n      0x20\n        /* \"#utility.yul\":10931:10940   */\n      dup3\n        /* \"#utility.yul\":10927:10945   */\n      add\n        /* \"#utility.yul\":10919:10945   */\n      swap1\n      pop\n        /* \"#utility.yul\":10991:11000   */\n      dup2\n        /* \"#utility.yul\":10985:10989   */\n      dup2\n        /* \"#utility.yul\":10981:11001   */\n      sub\n        /* \"#utility.yul\":10977:10978   */\n      0x00\n        /* \"#utility.yul\":10966:10975   */\n      dup4\n        /* \"#utility.yul\":10962:10979   */\n      add\n        /* \"#utility.yul\":10955:11002   */\n      mstore\n        /* \"#utility.yul\":11019:11150   */\n      tag_235\n        /* \"#utility.yul\":11145:11149   */\n      dup2\n        /* \"#utility.yul\":11019:11150   */\n      tag_199\n      jump\t// in\n    tag_235:\n        /* \"#utility.yul\":11011:11150   */\n      swap1\n      pop\n        /* \"#utility.yul\":10738:11157   */\n      swap2\n      swap1\n      pop\n      jump\t// out\n        /* \"#utility.yul\":11163:11582   */\n    tag_46:\n        /* \"#utility.yul\":11329:11333   */\n      0x00\n        /* \"#utility.yul\":11367:11369   */\n      0x20\n        /* \"#utility.yul\":11356:11365   */\n      dup3\n        /* \"#utility.yul\":11352:11370   */\n      add\n        /* \"#utility.yul\":11344:11370   */\n      swap1\n      pop\n        /* \"#utility.yul\":11416:11425   */\n      dup2\n        /* \"#utility.yul\":11410:11414   */\n      dup2\n        /* \"#utility.yul\":11406:11426   */\n      sub\n        /* \"#utility.yul\":11402:11403   */\n      0x00\n        /* \"#utility.yul\":11391:11400   */\n      dup4\n        /* \"#utility.yul\":11387:11404   */\n      add\n        /* \"#utility.yul\":11380:11427   */\n      mstore\n        /* \"#utility.yul\":11444:11575   */\n      tag_237\n        /* \"#utility.yul\":11570:11574   */\n      dup2\n        /* \"#utility.yul\":11444:11575   */\n      tag_204\n      jump\t// in\n    tag_237:\n        /* \"#utility.yul\":11436:11575   */\n      swap1\n      pop\n        /* \"#utility.yul\":11163:11582   */\n      swap2\n      swap1\n      pop\n      jump\t// out\n        /* \"#utility.yul\":11588:11717   */\n    tag_95:\n        /* \"#utility.yul\":11622:11628   */\n      0x00\n        /* \"#utility.yul\":11649:11669   */\n      tag_239\n      tag_240\n      jump\t// in\n    tag_239:\n        /* \"#utility.yul\":11639:11669   */\n      swap1\n      pop\n        /* \"#utility.yul\":11678:11711   */\n      tag_241\n        /* \"#utility.yul\":11706:11710   */\n      dup3\n        /* \"#utility.yul\":11698:11704   */\n      dup3\n        /* \"#utility.yul\":11678:11711   */\n      tag_242\n      jump\t// in\n    tag_241:\n        /* \"#utility.yul\":11588:11717   */\n      swap2\n      swap1\n      pop\n      jump\t// out\n        /* \"#utility.yul\":11723:11798   */\n    tag_240:\n        /* \"#utility.yul\":11756:11762   */\n      0x00\n        /* \"#utility.yul\":11789:11791   */\n      0x40\n        /* \"#utility.yul\":11783:11792   */\n      mload\n        /* \"#utility.yul\":11773:11792   */\n      swap1\n      pop\n        /* \"#utility.yul\":11723:11798   */\n      swap1\n      jump\t// out\n        /* \"#utility.yul\":11804:12112   */\n    tag_94:\n        /* \"#utility.yul\":11866:11870   */\n      0x00\n        /* \"#utility.yul\":11956:11974   */\n      0xffffffffffffffff\n        /* \"#utility.yul\":11948:11954   */\n      dup3\n        /* \"#utility.yul\":11945:11975   */\n      gt\n        /* \"#utility.yul\":11942:11998   */\n      iszero\n      tag_245\n      jumpi\n        /* \"#utility.yul\":11978:11996   */\n      tag_246\n      tag_247\n      jump\t// in\n    tag_246:\n        /* \"#utility.yul\":11942:11998   */\n    tag_245:\n        /* \"#utility.yul\":12016:12045   */\n      tag_248\n        /* \"#utility.yul\":12038:12044   */\n      dup3\n        /* \"#utility.yul\":12016:12045   */\n      tag_186\n      jump\t// in\n    tag_248:\n        /* \"#utility.yul\":12008:12045   */\n      swap1\n      pop\n        /* \"#utility.yul\":12100:12104   */\n      0x20\n        /* \"#utility.yul\":12094:12098   */\n      dup2\n        /* \"#utility.yul\":12090:12105   */\n      add\n        /* \"#utility.yul\":12082:12105   */\n      swap1\n      pop\n        /* \"#utility.yul\":11804:12112   */\n      swap2\n      swap1\n      pop\n      jump\t// out\n        /* \"#utility.yul\":12118:12273   */\n    tag_161:\n        /* \"#utility.yul\":12208:12212   */\n      0x00\n        /* \"#utility.yul\":12231:12234   */\n      dup2\n        /* \"#utility.yul\":12223:12234   */\n      swap1\n      pop\n        /* \"#utility.yul\":12261:12265   */\n      0x20\n        /* \"#utility.yul\":12256:12259   */\n      dup3\n        /* \"#utility.yul\":12252:12266   */\n      add\n        /* \"#utility.yul\":12244:12266   */\n      swap1\n      pop\n        /* \"#utility.yul\":12118:12273   */\n      swap2\n      swap1\n      pop\n      jump\t// out\n        /* \"#utility.yul\":12279:12416   */\n    tag_157:\n        /* \"#utility.yul\":12369:12375   */\n      0x00\n        /* \"#utility.yul\":12403:12408   */\n      dup2\n        /* \"#utility.yul\":12397:12409   */\n      mload\n        /* \"#utility.yul\":12387:12409   */\n      swap1\n      pop\n        /* \"#utility.yul\":12279:12416   */\n      swap2\n      swap1\n      pop\n      jump\t// out\n        /* \"#utility.yul\":12422:12521   */\n    tag_180:\n        /* \"#utility.yul\":12474:12480   */\n      0x00\n        /* \"#utility.yul\":12508:12513   */\n      dup2\n        /* \"#utility.yul\":12502:12514   */\n      mload\n        /* \"#utility.yul\":12492:12514   */\n      swap1\n      pop\n        /* \"#utility.yul\":12422:12521   */\n      swap2\n      swap1\n      pop\n      jump\t// out\n        /* \"#utility.yul\":12527:12663   */\n    tag_167:\n        /* \"#utility.yul\":12620:12624   */\n      0x00\n        /* \"#utility.yul\":12652:12656   */\n      0x20\n        /* \"#utility.yul\":12647:12650   */\n      dup3\n        /* \"#utility.yul\":12643:12657   */\n      add\n        /* \"#utility.yul\":12635:12657   */\n      swap1\n      pop\n        /* \"#utility.yul\":12527:12663   */\n      swap2\n      swap1\n      pop\n      jump\t// out\n        /* \"#utility.yul\":12669:12876   */\n    tag_159:\n        /* \"#utility.yul\":12791:12802   */\n      0x00\n        /* \"#utility.yul\":12825:12831   */\n      dup3\n        /* \"#utility.yul\":12820:12823   */\n      dup3\n        /* \"#utility.yul\":12813:12832   */\n      mstore\n        /* \"#utility.yul\":12865:12869   */\n      0x20\n        /* \"#utility.yul\":12860:12863   */\n      dup3\n        /* \"#utility.yul\":12856:12870   */\n      add\n        /* \"#utility.yul\":12841:12870   */\n      swap1\n      pop\n        /* \"#utility.yul\":12669:12876   */\n      swap3\n      swap2\n      pop\n      pop\n      jump\t// out\n        /* \"#utility.yul\":12882:13041   */\n    tag_182:\n        /* \"#utility.yul\":12956:12967   */\n      0x00\n        /* \"#utility.yul\":12990:12996   */\n      dup3\n        /* \"#utility.yul\":12985:12988   */\n      dup3\n        /* \"#utility.yul\":12978:12997   */\n      mstore\n        /* \"#utility.yul\":13030:13034   */\n      0x20\n        /* \"#utility.yul\":13025:13028   */\n      dup3\n        /* \"#utility.yul\":13021:13035   */\n      add\n        /* \"#utility.yul\":13006:13035   */\n      swap1\n      pop\n        /* \"#utility.yul\":12882:13041   */\n      swap3\n      swap2\n      pop\n      pop\n      jump\t// out\n        /* \"#utility.yul\":13047:13216   */\n    tag_191:\n        /* \"#utility.yul\":13131:13142   */\n      0x00\n        /* \"#utility.yul\":13165:13171   */\n      dup3\n        /* \"#utility.yul\":13160:13163   */\n      dup3\n        /* \"#utility.yul\":13153:13172   */\n      mstore\n        /* \"#utility.yul\":13205:13209   */\n      0x20\n        /* \"#utility.yul\":13200:13203   */\n      dup3\n        /* \"#utility.yul\":13196:13210   */\n      add\n        /* \"#utility.yul\":13181:13210   */\n      swap1\n      pop\n        /* \"#utility.yul\":13047:13216   */\n      swap3\n      swap2\n      pop\n      pop\n      jump\t// out\n        /* \"#utility.yul\":13222:13370   */\n    tag_175:\n        /* \"#utility.yul\":13324:13335   */\n      0x00\n        /* \"#utility.yul\":13361:13364   */\n      dup2\n        /* \"#utility.yul\":13346:13364   */\n      swap1\n      pop\n        /* \"#utility.yul\":13222:13370   */\n      swap3\n      swap2\n      pop\n      pop\n      jump\t// out\n        /* \"#utility.yul\":13376:13472   */\n    tag_153:\n        /* \"#utility.yul\":13413:13420   */\n      0x00\n        /* \"#utility.yul\":13442:13466   */\n      tag_258\n        /* \"#utility.yul\":13460:13465   */\n      dup3\n        /* \"#utility.yul\":13442:13466   */\n      tag_259\n      jump\t// in\n    tag_258:\n        /* \"#utility.yul\":13431:13466   */\n      swap1\n      pop\n        /* \"#utility.yul\":13376:13472   */\n      swap2\n      swap1\n      pop\n      jump\t// out\n        /* \"#utility.yul\":13478:13568   */\n    tag_171:\n        /* \"#utility.yul\":13512:13519   */\n      0x00\n        /* \"#utility.yul\":13555:13560   */\n      dup2\n        /* \"#utility.yul\":13548:13561   */\n      iszero\n        /* \"#utility.yul\":13541:13562   */\n      iszero\n        /* \"#utility.yul\":13530:13562   */\n      swap1\n      pop\n        /* \"#utility.yul\":13478:13568   */\n      swap2\n      swap1\n      pop\n      jump\t// out\n        /* \"#utility.yul\":13574:13700   */\n    tag_259:\n        /* \"#utility.yul\":13611:13618   */\n      0x00\n        /* \"#utility.yul\":13651:13693   */\n      0xffffffffffffffffffffffffffffffffffffffff\n        /* \"#utility.yul\":13644:13649   */\n      dup3\n        /* \"#utility.yul\":13640:13694   */\n      and\n        /* \"#utility.yul\":13629:13694   */\n      swap1\n      pop\n        /* \"#utility.yul\":13574:13700   */\n      swap2\n      swap1\n      pop\n      jump\t// out\n        /* \"#utility.yul\":13706:13783   */\n    tag_216:\n        /* \"#utility.yul\":13743:13750   */\n      0x00\n        /* \"#utility.yul\":13772:13777   */\n      dup2\n        /* \"#utility.yul\":13761:13777   */\n      swap1\n      pop\n        /* \"#utility.yul\":13706:13783   */\n      swap2\n      swap1\n      pop\n      jump\t// out\n        /* \"#utility.yul\":13789:13943   */\n    tag_100:\n        /* \"#utility.yul\":13873:13879   */\n      dup3\n        /* \"#utility.yul\":13868:13871   */\n      dup2\n        /* \"#utility.yul\":13863:13866   */\n      dup4\n        /* \"#utility.yul\":13850:13880   */\n      calldatacopy\n        /* \"#utility.yul\":13935:13936   */\n      0x00\n        /* \"#utility.yul\":13926:13932   */\n      dup4\n        /* \"#utility.yul\":13921:13924   */\n      dup4\n        /* \"#utility.yul\":13917:13933   */\n      add\n        /* \"#utility.yul\":13910:13937   */\n      mstore\n        /* \"#utility.yul\":13789:13943   */\n      pop\n      pop\n      pop\n      jump\t// out\n        /* \"#utility.yul\":13949:14256   */\n    tag_184:\n        /* \"#utility.yul\":14017:14018   */\n      0x00\n        /* \"#utility.yul\":14027:14140   */\n    tag_265:\n        /* \"#utility.yul\":14041:14047   */\n      dup4\n        /* \"#utility.yul\":14038:14039   */\n      dup2\n        /* \"#utility.yul\":14035:14048   */\n      lt\n        /* \"#utility.yul\":14027:14140   */\n      iszero\n      tag_267\n      jumpi\n        /* \"#utility.yul\":14126:14127   */\n      dup1\n        /* \"#utility.yul\":14121:14124   */\n      dup3\n        /* \"#utility.yul\":14117:14128   */\n      add\n        /* \"#utility.yul\":14111:14129   */\n      mload\n        /* \"#utility.yul\":14107:14108   */\n      dup2\n        /* \"#utility.yul\":14102:14105   */\n      dup5\n        /* \"#utility.yul\":14098:14109   */\n      add\n        /* \"#utility.yul\":14091:14130   */\n      mstore\n        /* \"#utility.yul\":14063:14065   */\n      0x20\n        /* \"#utility.yul\":14060:14061   */\n      dup2\n        /* \"#utility.yul\":14056:14066   */\n      add\n        /* \"#utility.yul\":14051:14066   */\n      swap1\n      pop\n        /* \"#utility.yul\":14027:14140   */\n      jump(tag_265)\n    tag_267:\n        /* \"#utility.yul\":14158:14164   */\n      dup4\n        /* \"#utility.yul\":14155:14156   */\n      dup2\n        /* \"#utility.yul\":14152:14165   */\n      gt\n        /* \"#utility.yul\":14149:14250   */\n      iszero\n      tag_268\n      jumpi\n        /* \"#utility.yul\":14238:14239   */\n      0x00\n        /* \"#utility.yul\":14229:14235   */\n      dup5\n        /* \"#utility.yul\":14224:14227   */\n      dup5\n        /* \"#utility.yul\":14220:14236   */\n      add\n        /* \"#utility.yul\":14213:14240   */\n      mstore\n        /* \"#utility.yul\":14149:14250   */\n    tag_268:\n        /* \"#utility.yul\":13998:14256   */\n      pop\n        /* \"#utility.yul\":13949:14256   */\n      pop\n      pop\n      pop\n      jump\t// out\n        /* \"#utility.yul\":14262:14582   */\n    tag_54:\n        /* \"#utility.yul\":14306:14312   */\n      0x00\n        /* \"#utility.yul\":14343:14344   */\n      0x02\n        /* \"#utility.yul\":14337:14341   */\n      dup3\n        /* \"#utility.yul\":14333:14345   */\n      div\n        /* \"#utility.yul\":14323:14345   */\n      swap1\n      pop\n        /* \"#utility.yul\":14390:14391   */\n      0x01\n        /* \"#utility.yul\":14384:14388   */\n      dup3\n        /* \"#utility.yul\":14380:14392   */\n      and\n        /* \"#utility.yul\":14411:14429   */\n      dup1\n        /* \"#utility.yul\":14401:14482   */\n      tag_270\n      jumpi\n        /* \"#utility.yul\":14467:14471   */\n      0x7f\n        /* \"#utility.yul\":14459:14465   */\n      dup3\n        /* \"#utility.yul\":14455:14472   */\n      and\n        /* \"#utility.yul\":14445:14472   */\n      swap2\n      pop\n        /* \"#utility.yul\":14401:14482   */\n    tag_270:\n        /* \"#utility.yul\":14529:14531   */\n      0x20\n        /* \"#utility.yul\":14521:14527   */\n      dup3\n        /* \"#utility.yul\":14518:14532   */\n      lt\n        /* \"#utility.yul\":14498:14516   */\n      dup2\n        /* \"#utility.yul\":14495:14533   */\n      eq\n        /* \"#utility.yul\":14492:14576   */\n      iszero\n      tag_271\n      jumpi\n        /* \"#utility.yul\":14548:14566   */\n      tag_272\n      tag_273\n      jump\t// in\n    tag_272:\n        /* \"#utility.yul\":14492:14576   */\n    tag_271:\n        /* \"#utility.yul\":14313:14582   */\n      pop\n        /* \"#utility.yul\":14262:14582   */\n      swap2\n      swap1\n      pop\n      jump\t// out\n        /* \"#utility.yul\":14588:14869   */\n    tag_242:\n        /* \"#utility.yul\":14671:14698   */\n      tag_275\n        /* \"#utility.yul\":14693:14697   */\n      dup3\n        /* \"#utility.yul\":14671:14698   */\n      tag_186\n      jump\t// in\n    tag_275:\n        /* \"#utility.yul\":14663:14669   */\n      dup2\n        /* \"#utility.yul\":14659:14699   */\n      add\n        /* \"#utility.yul\":14801:14807   */\n      dup2\n        /* \"#utility.yul\":14789:14799   */\n      dup2\n        /* \"#utility.yul\":14786:14808   */\n      lt\n        /* \"#utility.yul\":14765:14783   */\n      0xffffffffffffffff\n        /* \"#utility.yul\":14753:14763   */\n      dup3\n        /* \"#utility.yul\":14750:14784   */\n      gt\n        /* \"#utility.yul\":14747:14809   */\n      or\n        /* \"#utility.yul\":14744:14832   */\n      iszero\n      tag_276\n      jumpi\n        /* \"#utility.yul\":14812:14830   */\n      tag_277\n      tag_247\n      jump\t// in\n    tag_277:\n        /* \"#utility.yul\":14744:14832   */\n    tag_276:\n        /* \"#utility.yul\":14852:14862   */\n      dup1\n        /* \"#utility.yul\":14848:14850   */\n      0x40\n        /* \"#utility.yul\":14841:14863   */\n      mstore\n        /* \"#utility.yul\":14631:14869   */\n      pop\n        /* \"#utility.yul\":14588:14869   */\n      pop\n      pop\n      jump\t// out\n        /* \"#utility.yul\":14875:15055   */\n    tag_273:\n        /* \"#utility.yul\":14923:15000   */\n      0x4e487b7100000000000000000000000000000000000000000000000000000000\n        /* \"#utility.yul\":14920:14921   */\n      0x00\n        /* \"#utility.yul\":14913:15001   */\n      mstore\n        /* \"#utility.yul\":15020:15024   */\n      0x22\n        /* \"#utility.yul\":15017:15018   */\n      0x04\n        /* \"#utility.yul\":15010:15025   */\n      mstore\n        /* \"#utility.yul\":15044:15048   */\n      0x24\n        /* \"#utility.yul\":15041:15042   */\n      0x00\n        /* \"#utility.yul\":15034:15049   */\n      revert\n        /* \"#utility.yul\":15061:15241   */\n    tag_77:\n        /* \"#utility.yul\":15109:15186   */\n      0x4e487b7100000000000000000000000000000000000000000000000000000000\n        /* \"#utility.yul\":15106:15107   */\n      0x00\n        /* \"#utility.yul\":15099:15187   */\n      mstore\n        /* \"#utility.yul\":15206:15210   */\n      0x32\n        /* \"#utility.yul\":15203:15204   */\n      0x04\n        /* \"#utility.yul\":15196:15211   */\n      mstore\n        /* \"#utility.yul\":15230:15234   */\n      0x24\n        /* \"#utility.yul\":15227:15228   */\n      0x00\n        /* \"#utility.yul\":15220:15235   */\n      revert\n        /* \"#utility.yul\":15247:15427   */\n    tag_247:\n        /* \"#utility.yul\":15295:15372   */\n      0x4e487b7100000000000000000000000000000000000000000000000000000000\n        /* \"#utility.yul\":15292:15293   */\n      0x00\n        /* \"#utility.yul\":15285:15373   */\n      mstore\n        /* \"#utility.yul\":15392:15396   */\n      0x41\n        /* \"#utility.yul\":15389:15390   */\n      0x04\n        /* \"#utility.yul\":15382:15397   */\n      mstore\n        /* \"#utility.yul\":15416:15420   */\n      0x24\n        /* \"#utility.yul\":15413:15414   */\n      0x00\n        /* \"#utility.yul\":15406:15421   */\n      revert\n        /* \"#utility.yul\":15433:15550   */\n    tag_108:\n        /* \"#utility.yul\":15542:15543   */\n      0x00\n        /* \"#utility.yul\":15539:15540   */\n      dup1\n        /* \"#utility.yul\":15532:15544   */\n      revert\n        /* \"#utility.yul\":15556:15673   */\n    tag_105:\n        /* \"#utility.yul\":15665:15666   */\n      0x00\n        /* \"#utility.yul\":15662:15663   */\n      dup1\n        /* \"#utility.yul\":15655:15667   */\n      revert\n        /* \"#utility.yul\":15679:15796   */\n    tag_111:\n        /* \"#utility.yul\":15788:15789   */\n      0x00\n        /* \"#utility.yul\":15785:15786   */\n      dup1\n        /* \"#utility.yul\":15778:15790   */\n      revert\n        /* \"#utility.yul\":15802:15919   */\n    tag_98:\n        /* \"#utility.yul\":15911:15912   */\n      0x00\n        /* \"#utility.yul\":15908:15909   */\n      dup1\n        /* \"#utility.yul\":15901:15913   */\n      revert\n        /* \"#utility.yul\":15925:16042   */\n    tag_127:\n        /* \"#utility.yul\":16034:16035   */\n      0x00\n        /* \"#utility.yul\":16031:16032   */\n      dup1\n        /* \"#utility.yul\":16024:16036   */\n      revert\n        /* \"#utility.yul\":16048:16165   */\n    tag_124:\n        /* \"#utility.yul\":16157:16158   */\n      0x00\n        /* \"#utility.yul\":16154:16155   */\n      dup1\n        /* \"#utility.yul\":16147:16159   */\n      revert\n        /* \"#utility.yul\":16171:16273   */\n    tag_186:\n        /* \"#utility.yul\":16212:16218   */\n      0x00\n        /* \"#utility.yul\":16263:16265   */\n      0x1f\n        /* \"#utility.yul\":16259:16266   */\n      not\n        /* \"#utility.yul\":16254:16256   */\n      0x1f\n        /* \"#utility.yul\":16247:16252   */\n      dup4\n        /* \"#utility.yul\":16243:16257   */\n      add\n        /* \"#utility.yul\":16239:16267   */\n      and\n        /* \"#utility.yul\":16229:16267   */\n      swap1\n      pop\n        /* \"#utility.yul\":16171:16273   */\n      swap2\n      swap1\n      pop\n      jump\t// out\n        /* \"#utility.yul\":16279:16451   */\n    tag_198:\n        /* \"#utility.yul\":16419:16443   */\n      0x596f7520617265206e6f7420746865206f776e65722100000000000000000000\n        /* \"#utility.yul\":16415:16416   */\n      0x00\n        /* \"#utility.yul\":16407:16413   */\n      dup3\n        /* \"#utility.yul\":16403:16417   */\n      add\n        /* \"#utility.yul\":16396:16444   */\n      mstore\n        /* \"#utility.yul\":16279:16451   */\n      pop\n      jump\t// out\n        /* \"#utility.yul\":16457:16635   */\n    tag_203:\n        /* \"#utility.yul\":16597:16627   */\n      0x5468652070726f64756374206973206e6f74206578697374696e672100000000\n        /* \"#utility.yul\":16593:16594   */\n      0x00\n        /* \"#utility.yul\":16585:16591   */\n      dup3\n        /* \"#utility.yul\":16581:16595   */\n      add\n        /* \"#utility.yul\":16574:16628   */\n      mstore\n        /* \"#utility.yul\":16457:16635   */\n      pop\n      jump\t// out\n        /* \"#utility.yul\":16641:16864   */\n    tag_208:\n        /* \"#utility.yul\":16781:16815   */\n      0x5468652070726f6475637420697320616c726561647920696e20746865207374\n        /* \"#utility.yul\":16777:16778   */\n      0x00\n        /* \"#utility.yul\":16769:16775   */\n      dup3\n        /* \"#utility.yul\":16765:16779   */\n      add\n        /* \"#utility.yul\":16758:16816   */\n      mstore\n        /* \"#utility.yul\":16850:16856   */\n      0x6f72652100000000000000000000000000000000000000000000000000000000\n        /* \"#utility.yul\":16845:16847   */\n      0x20\n        /* \"#utility.yul\":16837:16843   */\n      dup3\n        /* \"#utility.yul\":16833:16848   */\n      add\n        /* \"#utility.yul\":16826:16857   */\n      mstore\n        /* \"#utility.yul\":16641:16864   */\n      pop\n      jump\t// out\n        /* \"#utility.yul\":16870:16992   */\n    tag_120:\n        /* \"#utility.yul\":16943:16967   */\n      tag_292\n        /* \"#utility.yul\":16961:16966   */\n      dup2\n        /* \"#utility.yul\":16943:16967   */\n      tag_216\n      jump\t// in\n    tag_292:\n        /* \"#utility.yul\":16936:16941   */\n      dup2\n        /* \"#utility.yul\":16933:16968   */\n      eq\n        /* \"#utility.yul\":16923:16986   */\n      tag_293\n      jumpi\n        /* \"#utility.yul\":16982:16983   */\n      0x00\n        /* \"#utility.yul\":16979:16980   */\n      dup1\n        /* \"#utility.yul\":16972:16984   */\n      revert\n        /* \"#utility.yul\":16923:16986   */\n    tag_293:\n        /* \"#utility.yul\":16870:16992   */\n      pop\n      jump\t// out\n\n    auxdata: 0xa2646970667358221220f6f0551cc24f651fbb1060cf26776d8da7903874a8b52d86bc96a0aa2b91b2bb64736f6c63430008070033\n}\n",
				"bytecode": {
					"linkReferences": {},
					"object": "608060405234801561001057600080fd5b50336000806101000a81548173ffffffffffffffffffffffffffffffffffffffff021916908373ffffffffffffffffffffffffffffffffffffffff160217905550610f83806100606000396000f3fe608060405234801561001057600080fd5b50600436106100625760003560e01c80630a5bd44b1461006757806338993c16146100835780637acc0b20146100b35780638da5cb5b146100e5578063c29b2f2014610103578063fcc93b0b14610121575b600080fd5b610081600480360381019061007c91906107d7565b61013d565b005b61009d6004803603810190610098919061084b565b610335565b6040516100aa9190610b6c565b60405180910390f35b6100cd60048036038101906100c89190610894565b61036b565b6040516100dc93929190610b87565b60405180910390f35b6100ed61042d565b6040516100fa9190610b2f565b60405180910390f35b61010b610451565b6040516101189190610b4a565b60405180910390f35b61013b600480360381019061013691906108c1565b610556565b005b60008054906101000a900473ffffffffffffffffffffffffffffffffffffffff1673ffffffffffffffffffffffffffffffffffffffff163373ffffffffffffffffffffffffffffffffffffffff16146101cb576040517f08c379a00000000000000000000000000000000000000000000000000000000081526004016101c290610bc5565b60405180910390fd5b600284846040516101dd929190610b16565b908152602001604051809103902060009054906101000a900460ff1615610239576040517f08c379a000000000000000000000000000000000000000000000000000000000815260040161023090610c05565b60405180910390fd5b60016002858560405161024d929190610b16565b908152602001604051809103902060006101000a81548160ff0219169083151502179055506001604051806060016040528086868080601f016020809104026020016040519081016040528093929190818152602001838380828437600081840152601f19601f8201169050808301925050505050505081526020018481526020018381525090806001815401808255809150506001900390600052602060002090600302016000909190919091506000820151816000019080519060200190610318929190610659565b506020820151816001015560408201518160020155505050505050565b6002818051602081018201805184825260208301602085012081835280955050505050506000915054906101000a900460ff1681565b6001818154811061037b57600080fd5b906000526020600020906003020160009150905080600001805461039e90610d76565b80601f01602080910402602001604051908101604052809291908181526020018280546103ca90610d76565b80156104175780601f106103ec57610100808354040283529160200191610417565b820191906000526020600020905b8154815290600101906020018083116103fa57829003601f168201915b5050505050908060010154908060020154905083565b60008054906101000a900473ffffffffffffffffffffffffffffffffffffffff1681565b60606001805480602002602001604051908101604052809291908181526020016000905b8282101561054d57838290600052602060002090600302016040518060600160405290816000820180546104a890610d76565b80601f01602080910402602001604051908101604052809291908181526020018280546104d490610d76565b80156105215780601f106104f657610100808354040283529160200191610521565b820191906000526020600020905b81548152906001019060200180831161050457829003601f168201915b505050505081526020016001820154815260200160028201548152505081526020019060010190610475565b50505050905090565b60008054906101000a900473ffffffffffffffffffffffffffffffffffffffff1673ffffffffffffffffffffffffffffffffffffffff163373ffffffffffffffffffffffffffffffffffffffff16146105e4576040517f08c379a00000000000000000000000000000000000000000000000000000000081526004016105db90610bc5565b60405180910390fd5b600180549050821061062b576040517f08c379a000000000000000000000000000000000000000000000000000000000815260040161062290610be5565b60405180910390fd5b80600183815481106106405761063f610e08565b5b9060005260206000209060030201600101819055505050565b82805461066590610d76565b90600052602060002090601f01602090048101928261068757600085556106ce565b82601f106106a057805160ff19168380011785556106ce565b828001600101855582156106ce579182015b828111156106cd5782518255916020019190600101906106b2565b5b5090506106db91906106df565b5090565b5b808211156106f85760008160009055506001016106e0565b5090565b600061070f61070a84610c4a565b610c25565b90508281526020810184848401111561072b5761072a610e75565b5b610736848285610d34565b509392505050565b60008083601f84011261075457610753610e6b565b5b8235905067ffffffffffffffff81111561077157610770610e66565b5b60208301915083600182028301111561078d5761078c610e70565b5b9250929050565b600082601f8301126107a9576107a8610e6b565b5b81356107b98482602086016106fc565b91505092915050565b6000813590506107d181610f36565b92915050565b600080600080606085870312156107f1576107f0610e7f565b5b600085013567ffffffffffffffff81111561080f5761080e610e7a565b5b61081b8782880161073e565b9450945050602061082e878288016107c2565b925050604061083f878288016107c2565b91505092959194509250565b60006020828403121561086157610860610e7f565b5b600082013567ffffffffffffffff81111561087f5761087e610e7a565b5b61088b84828501610794565b91505092915050565b6000602082840312156108aa576108a9610e7f565b5b60006108b8848285016107c2565b91505092915050565b600080604083850312156108d8576108d7610e7f565b5b60006108e6858286016107c2565b92505060206108f7858286016107c2565b9150509250929050565b600061090d8383610aa8565b905092915050565b61091e81610cec565b82525050565b600061092f82610c8b565b6109398185610cae565b93508360208202850161094b85610c7b565b8060005b8581101561098757848403895281516109688582610901565b945061097383610ca1565b925060208a0199505060018101905061094f565b50829750879550505050505092915050565b6109a281610cfe565b82525050565b60006109b48385610ce1565b93506109c1838584610d34565b82840190509392505050565b60006109d882610c96565b6109e28185610cbf565b93506109f2818560208601610d43565b6109fb81610e84565b840191505092915050565b6000610a1182610c96565b610a1b8185610cd0565b9350610a2b818560208601610d43565b610a3481610e84565b840191505092915050565b6000610a4c601683610cd0565b9150610a5782610e95565b602082019050919050565b6000610a6f601c83610cd0565b9150610a7a82610ebe565b602082019050919050565b6000610a92602483610cd0565b9150610a9d82610ee7565b604082019050919050565b60006060830160008301518482036000860152610ac582826109cd565b9150506020830151610ada6020860182610af8565b506040830151610aed6040860182610af8565b508091505092915050565b610b0181610d2a565b82525050565b610b1081610d2a565b82525050565b6000610b238284866109a8565b91508190509392505050565b6000602082019050610b446000830184610915565b92915050565b60006020820190508181036000830152610b648184610924565b905092915050565b6000602082019050610b816000830184610999565b92915050565b60006060820190508181036000830152610ba18186610a06565b9050610bb06020830185610b07565b610bbd6040830184610b07565b949350505050565b60006020820190508181036000830152610bde81610a3f565b9050919050565b60006020820190508181036000830152610bfe81610a62565b9050919050565b60006020820190508181036000830152610c1e81610a85565b9050919050565b6000610c2f610c40565b9050610c3b8282610da8565b919050565b6000604051905090565b600067ffffffffffffffff821115610c6557610c64610e37565b5b610c6e82610e84565b9050602081019050919050565b6000819050602082019050919050565b600081519050919050565b600081519050919050565b6000602082019050919050565b600082825260208201905092915050565b600082825260208201905092915050565b600082825260208201905092915050565b600081905092915050565b6000610cf782610d0a565b9050919050565b60008115159050919050565b600073ffffffffffffffffffffffffffffffffffffffff82169050919050565b6000819050919050565b82818337600083830152505050565b60005b83811015610d61578082015181840152602081019050610d46565b83811115610d70576000848401525b50505050565b60006002820490506001821680610d8e57607f821691505b60208210811415610da257610da1610dd9565b5b50919050565b610db182610e84565b810181811067ffffffffffffffff82111715610dd057610dcf610e37565b5b80604052505050565b7f4e487b7100000000000000000000000000000000000000000000000000000000600052602260045260246000fd5b7f4e487b7100000000000000000000000000000000000000000000000000000000600052603260045260246000fd5b7f4e487b7100000000000000000000000000000000000000000000000000000000600052604160045260246000fd5b600080fd5b600080fd5b600080fd5b600080fd5b600080fd5b600080fd5b6000601f19601f8301169050919050565b7f596f7520617265206e6f7420746865206f776e65722100000000000000000000600082015250565b7f5468652070726f64756374206973206e6f74206578697374696e672100000000600082015250565b7f5468652070726f6475637420697320616c726561647920696e2074686520737460008201527f6f72652100000000000000000000000000000000000000000000000000000000602082015250565b610f3f81610d2a565b8114610f4a57600080fd5b5056fea2646970667358221220f6f0551cc24f651fbb1060cf26776d8da7903874a8b52d86bc96a0aa2b91b2bb64736f6c63430008070033",
					"opcodes": "PUSH1 0x80 PUSH1 0x40 MSTORE CALLVALUE DUP1 ISZERO PUSH2 0x10 JUMPI PUSH1 0x0 DUP1 REVERT JUMPDEST POP CALLER PUSH1 0x0 DUP1 PUSH2 0x100 EXP DUP2 SLOAD DUP2 PUSH20 0xFFFFFFFFFFFFFFFFFFFFFFFFFFFFFFFFFFFFFFFF MUL NOT AND SWAP1 DUP4 PUSH20 0xFFFFFFFFFFFFFFFFFFFFFFFFFFFFFFFFFFFFFFFF AND MUL OR SWAP1 SSTORE POP PUSH2 0xF83 DUP1 PUSH2 0x60 PUSH1 0x0 CODECOPY PUSH1 0x0 RETURN INVALID PUSH1 0x80 PUSH1 0x40 MSTORE CALLVALUE DUP1 ISZERO PUSH2 0x10 JUMPI PUSH1 0x0 DUP1 REVERT JUMPDEST POP PUSH1 0x4 CALLDATASIZE LT PUSH2 0x62 JUMPI PUSH1 0x0 CALLDATALOAD PUSH1 0xE0 SHR DUP1 PUSH4 0xA5BD44B EQ PUSH2 0x67 JUMPI DUP1 PUSH4 0x38993C16 EQ PUSH2 0x83 JUMPI DUP1 PUSH4 0x7ACC0B20 EQ PUSH2 0xB3 JUMPI DUP1 PUSH4 0x8DA5CB5B EQ PUSH2 0xE5 JUMPI DUP1 PUSH4 0xC29B2F20 EQ PUSH2 0x103 JUMPI DUP1 PUSH4 0xFCC93B0B EQ PUSH2 0x121 JUMPI JUMPDEST PUSH1 0x0 DUP1 REVERT JUMPDEST PUSH2 0x81 PUSH1 0x4 DUP1 CALLDATASIZE SUB DUP2 ADD SWAP1 PUSH2 0x7C SWAP2 SWAP1 PUSH2 0x7D7 JUMP JUMPDEST PUSH2 0x13D JUMP JUMPDEST STOP JUMPDEST PUSH2 0x9D PUSH1 0x4 DUP1 CALLDATASIZE SUB DUP2 ADD SWAP1 PUSH2 0x98 SWAP2 SWAP1 PUSH2 0x84B JUMP JUMPDEST PUSH2 0x335 JUMP JUMPDEST PUSH1 0x40 MLOAD PUSH2 0xAA SWAP2 SWAP1 PUSH2 0xB6C JUMP JUMPDEST PUSH1 0x40 MLOAD DUP1 SWAP2 SUB SWAP1 RETURN JUMPDEST PUSH2 0xCD PUSH1 0x4 DUP1 CALLDATASIZE SUB DUP2 ADD SWAP1 PUSH2 0xC8 SWAP2 SWAP1 PUSH2 0x894 JUMP JUMPDEST PUSH2 0x36B JUMP JUMPDEST PUSH1 0x40 MLOAD PUSH2 0xDC SWAP4 SWAP3 SWAP2 SWAP1 PUSH2 0xB87 JUMP JUMPDEST PUSH1 0x40 MLOAD DUP1 SWAP2 SUB SWAP1 RETURN JUMPDEST PUSH2 0xED PUSH2 0x42D JUMP JUMPDEST PUSH1 0x40 MLOAD PUSH2 0xFA SWAP2 SWAP1 PUSH2 0xB2F JUMP JUMPDEST PUSH1 0x40 MLOAD DUP1 SWAP2 SUB SWAP1 RETURN JUMPDEST PUSH2 0x10B PUSH2 0x451 JUMP JUMPDEST PUSH1 0x40 MLOAD PUSH2 0x118 SWAP2 SWAP1 PUSH2 0xB4A JUMP JUMPDEST PUSH1 0x40 MLOAD DUP1 SWAP2 SUB SWAP1 RETURN JUMPDEST PUSH2 0x13B PUSH1 0x4 DUP1 CALLDATASIZE SUB DUP2 ADD SWAP1 PUSH2 0x136 SWAP2 SWAP1 PUSH2 0x8C1 JUMP JUMPDEST PUSH2 0x556 JUMP JUMPDEST STOP JUMPDEST PUSH1 0x0 DUP1 SLOAD SWAP1 PUSH2 0x100 EXP SWAP1 DIV PUSH20 0xFFFFFFFFFFFFFFFFFFFFFFFFFFFFFFFFFFFFFFFF AND PUSH20 0xFFFFFFFFFFFFFFFFFFFFFFFFFFFFFFFFFFFFFFFF AND CALLER PUSH20 0xFFFFFFFFFFFFFFFFFFFFFFFFFFFFFFFFFFFFFFFF AND EQ PUSH2 0x1CB JUMPI PUSH1 0x40 MLOAD PUSH32 0x8C379A000000000000000000000000000000000000000000000000000000000 DUP2 MSTORE PUSH1 0x4 ADD PUSH2 0x1C2 SWAP1 PUSH2 0xBC5 JUMP JUMPDEST PUSH1 0x40 MLOAD DUP1 SWAP2 SUB SWAP1 REVERT JUMPDEST PUSH1 0x2 DUP5 DUP5 PUSH1 0x40 MLOAD PUSH2 0x1DD SWAP3 SWAP2 SWAP1 PUSH2 0xB16 JUMP JUMPDEST SWAP1 DUP2 MSTORE PUSH1 0x20 ADD PUSH1 0x40 MLOAD DUP1 SWAP2 SUB SWAP1 KECCAK256 PUSH1 0x0 SWAP1 SLOAD SWAP1 PUSH2 0x100 EXP SWAP1 DIV PUSH1 0xFF AND ISZERO PUSH2 0x239 JUMPI PUSH1 0x40 MLOAD PUSH32 0x8C379A000000000000000000000000000000000000000000000000000000000 DUP2 MSTORE PUSH1 0x4 ADD PUSH2 0x230 SWAP1 PUSH2 0xC05 JUMP JUMPDEST PUSH1 0x40 MLOAD DUP1 SWAP2 SUB SWAP1 REVERT JUMPDEST PUSH1 0x1 PUSH1 0x2 DUP6 DUP6 PUSH1 0x40 MLOAD PUSH2 0x24D SWAP3 SWAP2 SWAP1 PUSH2 0xB16 JUMP JUMPDEST SWAP1 DUP2 MSTORE PUSH1 0x20 ADD PUSH1 0x40 MLOAD DUP1 SWAP2 SUB SWAP1 KECCAK256 PUSH1 0x0 PUSH2 0x100 EXP DUP2 SLOAD DUP2 PUSH1 0xFF MUL NOT AND SWAP1 DUP4 ISZERO ISZERO MUL OR SWAP1 SSTORE POP PUSH1 0x1 PUSH1 0x40 MLOAD DUP1 PUSH1 0x60 ADD PUSH1 0x40 MSTORE DUP1 DUP7 DUP7 DUP1 DUP1 PUSH1 0x1F ADD PUSH1 0x20 DUP1 SWAP2 DIV MUL PUSH1 0x20 ADD PUSH1 0x40 MLOAD SWAP1 DUP2 ADD PUSH1 0x40 MSTORE DUP1 SWAP4 SWAP3 SWAP2 SWAP1 DUP2 DUP2 MSTORE PUSH1 0x20 ADD DUP4 DUP4 DUP1 DUP3 DUP5 CALLDATACOPY PUSH1 0x0 DUP2 DUP5 ADD MSTORE PUSH1 0x1F NOT PUSH1 0x1F DUP3 ADD AND SWAP1 POP DUP1 DUP4 ADD SWAP3 POP POP POP POP POP POP POP DUP2 MSTORE PUSH1 0x20 ADD DUP5 DUP2 MSTORE PUSH1 0x20 ADD DUP4 DUP2 MSTORE POP SWAP1 DUP1 PUSH1 0x1 DUP2 SLOAD ADD DUP1 DUP3 SSTORE DUP1 SWAP2 POP POP PUSH1 0x1 SWAP1 SUB SWAP1 PUSH1 0x0 MSTORE PUSH1 0x20 PUSH1 0x0 KECCAK256 SWAP1 PUSH1 0x3 MUL ADD PUSH1 0x0 SWAP1 SWAP2 SWAP1 SWAP2 SWAP1 SWAP2 POP PUSH1 0x0 DUP3 ADD MLOAD DUP2 PUSH1 0x0 ADD SWAP1 DUP1 MLOAD SWAP1 PUSH1 0x20 ADD SWAP1 PUSH2 0x318 SWAP3 SWAP2 SWAP1 PUSH2 0x659 JUMP JUMPDEST POP PUSH1 0x20 DUP3 ADD MLOAD DUP2 PUSH1 0x1 ADD SSTORE PUSH1 0x40 DUP3 ADD MLOAD DUP2 PUSH1 0x2 ADD SSTORE POP POP POP POP POP POP JUMP JUMPDEST PUSH1 0x2 DUP2 DUP1 MLOAD PUSH1 0x20 DUP2 ADD DUP3 ADD DUP1 MLOAD DUP5 DUP3 MSTORE PUSH1 0x20 DUP4 ADD PUSH1 0x20 DUP6 ADD KECCAK256 DUP2 DUP4 MSTORE DUP1 SWAP6 POP POP POP POP POP POP PUSH1 0x0 SWAP2 POP SLOAD SWAP1 PUSH2 0x100 EXP SWAP1 DIV PUSH1 0xFF AND DUP2 JUMP JUMPDEST PUSH1 0x1 DUP2 DUP2 SLOAD DUP2 LT PUSH2 0x37B JUMPI PUSH1 0x0 DUP1 REVERT JUMPDEST SWAP1 PUSH1 0x0 MSTORE PUSH1 0x20 PUSH1 0x0 KECCAK256 SWAP1 PUSH1 0x3 MUL ADD PUSH1 0x0 SWAP2 POP SWAP1 POP DUP1 PUSH1 0x0 ADD DUP1 SLOAD PUSH2 0x39E SWAP1 PUSH2 0xD76 JUMP JUMPDEST DUP1 PUSH1 0x1F ADD PUSH1 0x20 DUP1 SWAP2 DIV MUL PUSH1 0x20 ADD PUSH1 0x40 MLOAD SWAP1 DUP2 ADD PUSH1 0x40 MSTORE DUP1 SWAP3 SWAP2 SWAP1 DUP2 DUP2 MSTORE PUSH1 0x20 ADD DUP3 DUP1 SLOAD PUSH2 0x3CA SWAP1 PUSH2 0xD76 JUMP JUMPDEST DUP1 ISZERO PUSH2 0x417 JUMPI DUP1 PUSH1 0x1F LT PUSH2 0x3EC JUMPI PUSH2 0x100 DUP1 DUP4 SLOAD DIV MUL DUP4 MSTORE SWAP2 PUSH1 0x20 ADD SWAP2 PUSH2 0x417 JUMP JUMPDEST DUP3 ADD SWAP2 SWAP1 PUSH1 0x0 MSTORE PUSH1 0x20 PUSH1 0x0 KECCAK256 SWAP1 JUMPDEST DUP2 SLOAD DUP2 MSTORE SWAP1 PUSH1 0x1 ADD SWAP1 PUSH1 0x20 ADD DUP1 DUP4 GT PUSH2 0x3FA JUMPI DUP3 SWAP1 SUB PUSH1 0x1F AND DUP3 ADD SWAP2 JUMPDEST POP POP POP POP POP SWAP1 DUP1 PUSH1 0x1 ADD SLOAD SWAP1 DUP1 PUSH1 0x2 ADD SLOAD SWAP1 POP DUP4 JUMP JUMPDEST PUSH1 0x0 DUP1 SLOAD SWAP1 PUSH2 0x100 EXP SWAP1 DIV PUSH20 0xFFFFFFFFFFFFFFFFFFFFFFFFFFFFFFFFFFFFFFFF AND DUP2 JUMP JUMPDEST PUSH1 0x60 PUSH1 0x1 DUP1 SLOAD DUP1 PUSH1 0x20 MUL PUSH1 0x20 ADD PUSH1 0x40 MLOAD SWAP1 DUP2 ADD PUSH1 0x40 MSTORE DUP1 SWAP3 SWAP2 SWAP1 DUP2 DUP2 MSTORE PUSH1 0x20 ADD PUSH1 0x0 SWAP1 JUMPDEST DUP3 DUP3 LT ISZERO PUSH2 0x54D JUMPI DUP4 DUP3 SWAP1 PUSH1 0x0 MSTORE PUSH1 0x20 PUSH1 0x0 KECCAK256 SWAP1 PUSH1 0x3 MUL ADD PUSH1 0x40 MLOAD DUP1 PUSH1 0x60 ADD PUSH1 0x40 MSTORE SWAP1 DUP2 PUSH1 0x0 DUP3 ADD DUP1 SLOAD PUSH2 0x4A8 SWAP1 PUSH2 0xD76 JUMP JUMPDEST DUP1 PUSH1 0x1F ADD PUSH1 0x20 DUP1 SWAP2 DIV MUL PUSH1 0x20 ADD PUSH1 0x40 MLOAD SWAP1 DUP2 ADD PUSH1 0x40 MSTORE DUP1 SWAP3 SWAP2 SWAP1 DUP2 DUP2 MSTORE PUSH1 0x20 ADD DUP3 DUP1 SLOAD PUSH2 0x4D4 SWAP1 PUSH2 0xD76 JUMP JUMPDEST DUP1 ISZERO PUSH2 0x521 JUMPI DUP1 PUSH1 0x1F LT PUSH2 0x4F6 JUMPI PUSH2 0x100 DUP1 DUP4 SLOAD DIV MUL DUP4 MSTORE SWAP2 PUSH1 0x20 ADD SWAP2 PUSH2 0x521 JUMP JUMPDEST DUP3 ADD SWAP2 SWAP1 PUSH1 0x0 MSTORE PUSH1 0x20 PUSH1 0x0 KECCAK256 SWAP1 JUMPDEST DUP2 SLOAD DUP2 MSTORE SWAP1 PUSH1 0x1 ADD SWAP1 PUSH1 0x20 ADD DUP1 DUP4 GT PUSH2 0x504 JUMPI DUP3 SWAP1 SUB PUSH1 0x1F AND DUP3 ADD SWAP2 JUMPDEST POP POP POP POP POP DUP2 MSTORE PUSH1 0x20 ADD PUSH1 0x1 DUP3 ADD SLOAD DUP2 MSTORE PUSH1 0x20 ADD PUSH1 0x2 DUP3 ADD SLOAD DUP2 MSTORE POP POP DUP2 MSTORE PUSH1 0x20 ADD SWAP1 PUSH1 0x1 ADD SWAP1 PUSH2 0x475 JUMP JUMPDEST POP POP POP POP SWAP1 POP SWAP1 JUMP JUMPDEST PUSH1 0x0 DUP1 SLOAD SWAP1 PUSH2 0x100 EXP SWAP1 DIV PUSH20 0xFFFFFFFFFFFFFFFFFFFFFFFFFFFFFFFFFFFFFFFF AND PUSH20 0xFFFFFFFFFFFFFFFFFFFFFFFFFFFFFFFFFFFFFFFF AND CALLER PUSH20 0xFFFFFFFFFFFFFFFFFFFFFFFFFFFFFFFFFFFFFFFF AND EQ PUSH2 0x5E4 JUMPI PUSH1 0x40 MLOAD PUSH32 0x8C379A000000000000000000000000000000000000000000000000000000000 DUP2 MSTORE PUSH1 0x4 ADD PUSH2 0x5DB SWAP1 PUSH2 0xBC5 JUMP JUMPDEST PUSH1 0x40 MLOAD DUP1 SWAP2 SUB SWAP1 REVERT JUMPDEST PUSH1 0x1 DUP1 SLOAD SWAP1 POP DUP3 LT PUSH2 0x62B JUMPI PUSH1 0x40 MLOAD PUSH32 0x8C379A000000000000000000000000000000000000000000000000000000000 DUP2 MSTORE PUSH1 0x4 ADD PUSH2 0x622 SWAP1 PUSH2 0xBE5 JUMP JUMPDEST PUSH1 0x40 MLOAD DUP1 SWAP2 SUB SWAP1 REVERT JUMPDEST DUP1 PUSH1 0x1 DUP4 DUP2 SLOAD DUP2 LT PUSH2 0x640 JUMPI PUSH2 0x63F PUSH2 0xE08 JUMP JUMPDEST JUMPDEST SWAP1 PUSH1 0x0 MSTORE PUSH1 0x20 PUSH1 0x0 KECCAK256 SWAP1 PUSH1 0x3 MUL ADD PUSH1 0x1 ADD DUP2 SWAP1 SSTORE POP POP POP JUMP JUMPDEST DUP3 DUP1 SLOAD PUSH2 0x665 SWAP1 PUSH2 0xD76 JUMP JUMPDEST SWAP1 PUSH1 0x0 MSTORE PUSH1 0x20 PUSH1 0x0 KECCAK256 SWAP1 PUSH1 0x1F ADD PUSH1 0x20 SWAP1 DIV DUP2 ADD SWAP3 DUP3 PUSH2 0x687 JUMPI PUSH1 0x0 DUP6 SSTORE PUSH2 0x6CE JUMP JUMPDEST DUP3 PUSH1 0x1F LT PUSH2 0x6A0 JUMPI DUP1 MLOAD PUSH1 0xFF NOT AND DUP4 DUP1 ADD OR DUP6 SSTORE PUSH2 0x6CE JUMP JUMPDEST DUP3 DUP1 ADD PUSH1 0x1 ADD DUP6 SSTORE DUP3 ISZERO PUSH2 0x6CE JUMPI SWAP2 DUP3 ADD JUMPDEST DUP3 DUP2 GT ISZERO PUSH2 0x6CD JUMPI DUP3 MLOAD DUP3 SSTORE SWAP2 PUSH1 0x20 ADD SWAP2 SWAP1 PUSH1 0x1 ADD SWAP1 PUSH2 0x6B2 JUMP JUMPDEST JUMPDEST POP SWAP1 POP PUSH2 0x6DB SWAP2 SWAP1 PUSH2 0x6DF JUMP JUMPDEST POP SWAP1 JUMP JUMPDEST JUMPDEST DUP1 DUP3 GT ISZERO PUSH2 0x6F8 JUMPI PUSH1 0x0 DUP2 PUSH1 0x0 SWAP1 SSTORE POP PUSH1 0x1 ADD PUSH2 0x6E0 JUMP JUMPDEST POP SWAP1 JUMP JUMPDEST PUSH1 0x0 PUSH2 0x70F PUSH2 0x70A DUP5 PUSH2 0xC4A JUMP JUMPDEST PUSH2 0xC25 JUMP JUMPDEST SWAP1 POP DUP3 DUP2 MSTORE PUSH1 0x20 DUP2 ADD DUP5 DUP5 DUP5 ADD GT ISZERO PUSH2 0x72B JUMPI PUSH2 0x72A PUSH2 0xE75 JUMP JUMPDEST JUMPDEST PUSH2 0x736 DUP5 DUP3 DUP6 PUSH2 0xD34 JUMP JUMPDEST POP SWAP4 SWAP3 POP POP POP JUMP JUMPDEST PUSH1 0x0 DUP1 DUP4 PUSH1 0x1F DUP5 ADD SLT PUSH2 0x754 JUMPI PUSH2 0x753 PUSH2 0xE6B JUMP JUMPDEST JUMPDEST DUP3 CALLDATALOAD SWAP1 POP PUSH8 0xFFFFFFFFFFFFFFFF DUP2 GT ISZERO PUSH2 0x771 JUMPI PUSH2 0x770 PUSH2 0xE66 JUMP JUMPDEST JUMPDEST PUSH1 0x20 DUP4 ADD SWAP2 POP DUP4 PUSH1 0x1 DUP3 MUL DUP4 ADD GT ISZERO PUSH2 0x78D JUMPI PUSH2 0x78C PUSH2 0xE70 JUMP JUMPDEST JUMPDEST SWAP3 POP SWAP3 SWAP1 POP JUMP JUMPDEST PUSH1 0x0 DUP3 PUSH1 0x1F DUP4 ADD SLT PUSH2 0x7A9 JUMPI PUSH2 0x7A8 PUSH2 0xE6B JUMP JUMPDEST JUMPDEST DUP2 CALLDATALOAD PUSH2 0x7B9 DUP5 DUP3 PUSH1 0x20 DUP7 ADD PUSH2 0x6FC JUMP JUMPDEST SWAP2 POP POP SWAP3 SWAP2 POP POP JUMP JUMPDEST PUSH1 0x0 DUP2 CALLDATALOAD SWAP1 POP PUSH2 0x7D1 DUP2 PUSH2 0xF36 JUMP JUMPDEST SWAP3 SWAP2 POP POP JUMP JUMPDEST PUSH1 0x0 DUP1 PUSH1 0x0 DUP1 PUSH1 0x60 DUP6 DUP8 SUB SLT ISZERO PUSH2 0x7F1 JUMPI PUSH2 0x7F0 PUSH2 0xE7F JUMP JUMPDEST JUMPDEST PUSH1 0x0 DUP6 ADD CALLDATALOAD PUSH8 0xFFFFFFFFFFFFFFFF DUP2 GT ISZERO PUSH2 0x80F JUMPI PUSH2 0x80E PUSH2 0xE7A JUMP JUMPDEST JUMPDEST PUSH2 0x81B DUP8 DUP3 DUP9 ADD PUSH2 0x73E JUMP JUMPDEST SWAP5 POP SWAP5 POP POP PUSH1 0x20 PUSH2 0x82E DUP8 DUP3 DUP9 ADD PUSH2 0x7C2 JUMP JUMPDEST SWAP3 POP POP PUSH1 0x40 PUSH2 0x83F DUP8 DUP3 DUP9 ADD PUSH2 0x7C2 JUMP JUMPDEST SWAP2 POP POP SWAP3 SWAP6 SWAP2 SWAP5 POP SWAP3 POP JUMP JUMPDEST PUSH1 0x0 PUSH1 0x20 DUP3 DUP5 SUB SLT ISZERO PUSH2 0x861 JUMPI PUSH2 0x860 PUSH2 0xE7F JUMP JUMPDEST JUMPDEST PUSH1 0x0 DUP3 ADD CALLDATALOAD PUSH8 0xFFFFFFFFFFFFFFFF DUP2 GT ISZERO PUSH2 0x87F JUMPI PUSH2 0x87E PUSH2 0xE7A JUMP JUMPDEST JUMPDEST PUSH2 0x88B DUP5 DUP3 DUP6 ADD PUSH2 0x794 JUMP JUMPDEST SWAP2 POP POP SWAP3 SWAP2 POP POP JUMP JUMPDEST PUSH1 0x0 PUSH1 0x20 DUP3 DUP5 SUB SLT ISZERO PUSH2 0x8AA JUMPI PUSH2 0x8A9 PUSH2 0xE7F JUMP JUMPDEST JUMPDEST PUSH1 0x0 PUSH2 0x8B8 DUP5 DUP3 DUP6 ADD PUSH2 0x7C2 JUMP JUMPDEST SWAP2 POP POP SWAP3 SWAP2 POP POP JUMP JUMPDEST PUSH1 0x0 DUP1 PUSH1 0x40 DUP4 DUP6 SUB SLT ISZERO PUSH2 0x8D8 JUMPI PUSH2 0x8D7 PUSH2 0xE7F JUMP JUMPDEST JUMPDEST PUSH1 0x0 PUSH2 0x8E6 DUP6 DUP3 DUP7 ADD PUSH2 0x7C2 JUMP JUMPDEST SWAP3 POP POP PUSH1 0x20 PUSH2 0x8F7 DUP6 DUP3 DUP7 ADD PUSH2 0x7C2 JUMP JUMPDEST SWAP2 POP POP SWAP3 POP SWAP3 SWAP1 POP JUMP JUMPDEST PUSH1 0x0 PUSH2 0x90D DUP4 DUP4 PUSH2 0xAA8 JUMP JUMPDEST SWAP1 POP SWAP3 SWAP2 POP POP JUMP JUMPDEST PUSH2 0x91E DUP2 PUSH2 0xCEC JUMP JUMPDEST DUP3 MSTORE POP POP JUMP JUMPDEST PUSH1 0x0 PUSH2 0x92F DUP3 PUSH2 0xC8B JUMP JUMPDEST PUSH2 0x939 DUP2 DUP6 PUSH2 0xCAE JUMP JUMPDEST SWAP4 POP DUP4 PUSH1 0x20 DUP3 MUL DUP6 ADD PUSH2 0x94B DUP6 PUSH2 0xC7B JUMP JUMPDEST DUP1 PUSH1 0x0 JUMPDEST DUP6 DUP2 LT ISZERO PUSH2 0x987 JUMPI DUP5 DUP5 SUB DUP10 MSTORE DUP2 MLOAD PUSH2 0x968 DUP6 DUP3 PUSH2 0x901 JUMP JUMPDEST SWAP5 POP PUSH2 0x973 DUP4 PUSH2 0xCA1 JUMP JUMPDEST SWAP3 POP PUSH1 0x20 DUP11 ADD SWAP10 POP POP PUSH1 0x1 DUP2 ADD SWAP1 POP PUSH2 0x94F JUMP JUMPDEST POP DUP3 SWAP8 POP DUP8 SWAP6 POP POP POP POP POP POP SWAP3 SWAP2 POP POP JUMP JUMPDEST PUSH2 0x9A2 DUP2 PUSH2 0xCFE JUMP JUMPDEST DUP3 MSTORE POP POP JUMP JUMPDEST PUSH1 0x0 PUSH2 0x9B4 DUP4 DUP6 PUSH2 0xCE1 JUMP JUMPDEST SWAP4 POP PUSH2 0x9C1 DUP4 DUP6 DUP5 PUSH2 0xD34 JUMP JUMPDEST DUP3 DUP5 ADD SWAP1 POP SWAP4 SWAP3 POP POP POP JUMP JUMPDEST PUSH1 0x0 PUSH2 0x9D8 DUP3 PUSH2 0xC96 JUMP JUMPDEST PUSH2 0x9E2 DUP2 DUP6 PUSH2 0xCBF JUMP JUMPDEST SWAP4 POP PUSH2 0x9F2 DUP2 DUP6 PUSH1 0x20 DUP7 ADD PUSH2 0xD43 JUMP JUMPDEST PUSH2 0x9FB DUP2 PUSH2 0xE84 JUMP JUMPDEST DUP5 ADD SWAP2 POP POP SWAP3 SWAP2 POP POP JUMP JUMPDEST PUSH1 0x0 PUSH2 0xA11 DUP3 PUSH2 0xC96 JUMP JUMPDEST PUSH2 0xA1B DUP2 DUP6 PUSH2 0xCD0 JUMP JUMPDEST SWAP4 POP PUSH2 0xA2B DUP2 DUP6 PUSH1 0x20 DUP7 ADD PUSH2 0xD43 JUMP JUMPDEST PUSH2 0xA34 DUP2 PUSH2 0xE84 JUMP JUMPDEST DUP5 ADD SWAP2 POP POP SWAP3 SWAP2 POP POP JUMP JUMPDEST PUSH1 0x0 PUSH2 0xA4C PUSH1 0x16 DUP4 PUSH2 0xCD0 JUMP JUMPDEST SWAP2 POP PUSH2 0xA57 DUP3 PUSH2 0xE95 JUMP JUMPDEST PUSH1 0x20 DUP3 ADD SWAP1 POP SWAP2 SWAP1 POP JUMP JUMPDEST PUSH1 0x0 PUSH2 0xA6F PUSH1 0x1C DUP4 PUSH2 0xCD0 JUMP JUMPDEST SWAP2 POP PUSH2 0xA7A DUP3 PUSH2 0xEBE JUMP JUMPDEST PUSH1 0x20 DUP3 ADD SWAP1 POP SWAP2 SWAP1 POP JUMP JUMPDEST PUSH1 0x0 PUSH2 0xA92 PUSH1 0x24 DUP4 PUSH2 0xCD0 JUMP JUMPDEST SWAP2 POP PUSH2 0xA9D DUP3 PUSH2 0xEE7 JUMP JUMPDEST PUSH1 0x40 DUP3 ADD SWAP1 POP SWAP2 SWAP1 POP JUMP JUMPDEST PUSH1 0x0 PUSH1 0x60 DUP4 ADD PUSH1 0x0 DUP4 ADD MLOAD DUP5 DUP3 SUB PUSH1 0x0 DUP7 ADD MSTORE PUSH2 0xAC5 DUP3 DUP3 PUSH2 0x9CD JUMP JUMPDEST SWAP2 POP POP PUSH1 0x20 DUP4 ADD MLOAD PUSH2 0xADA PUSH1 0x20 DUP7 ADD DUP3 PUSH2 0xAF8 JUMP JUMPDEST POP PUSH1 0x40 DUP4 ADD MLOAD PUSH2 0xAED PUSH1 0x40 DUP7 ADD DUP3 PUSH2 0xAF8 JUMP JUMPDEST POP DUP1 SWAP2 POP POP SWAP3 SWAP2 POP POP JUMP JUMPDEST PUSH2 0xB01 DUP2 PUSH2 0xD2A JUMP JUMPDEST DUP3 MSTORE POP POP JUMP JUMPDEST PUSH2 0xB10 DUP2 PUSH2 0xD2A JUMP JUMPDEST DUP3 MSTORE POP POP JUMP JUMPDEST PUSH1 0x0 PUSH2 0xB23 DUP3 DUP5 DUP7 PUSH2 0x9A8 JUMP JUMPDEST SWAP2 POP DUP2 SWAP1 POP SWAP4 SWAP3 POP POP POP JUMP JUMPDEST PUSH1 0x0 PUSH1 0x20 DUP3 ADD SWAP1 POP PUSH2 0xB44 PUSH1 0x0 DUP4 ADD DUP5 PUSH2 0x915 JUMP JUMPDEST SWAP3 SWAP2 POP POP JUMP JUMPDEST PUSH1 0x0 PUSH1 0x20 DUP3 ADD SWAP1 POP DUP2 DUP2 SUB PUSH1 0x0 DUP4 ADD MSTORE PUSH2 0xB64 DUP2 DUP5 PUSH2 0x924 JUMP JUMPDEST SWAP1 POP SWAP3 SWAP2 POP POP JUMP JUMPDEST PUSH1 0x0 PUSH1 0x20 DUP3 ADD SWAP1 POP PUSH2 0xB81 PUSH1 0x0 DUP4 ADD DUP5 PUSH2 0x999 JUMP JUMPDEST SWAP3 SWAP2 POP POP JUMP JUMPDEST PUSH1 0x0 PUSH1 0x60 DUP3 ADD SWAP1 POP DUP2 DUP2 SUB PUSH1 0x0 DUP4 ADD MSTORE PUSH2 0xBA1 DUP2 DUP7 PUSH2 0xA06 JUMP JUMPDEST SWAP1 POP PUSH2 0xBB0 PUSH1 0x20 DUP4 ADD DUP6 PUSH2 0xB07 JUMP JUMPDEST PUSH2 0xBBD PUSH1 0x40 DUP4 ADD DUP5 PUSH2 0xB07 JUMP JUMPDEST SWAP5 SWAP4 POP POP POP POP JUMP JUMPDEST PUSH1 0x0 PUSH1 0x20 DUP3 ADD SWAP1 POP DUP2 DUP2 SUB PUSH1 0x0 DUP4 ADD MSTORE PUSH2 0xBDE DUP2 PUSH2 0xA3F JUMP JUMPDEST SWAP1 POP SWAP2 SWAP1 POP JUMP JUMPDEST PUSH1 0x0 PUSH1 0x20 DUP3 ADD SWAP1 POP DUP2 DUP2 SUB PUSH1 0x0 DUP4 ADD MSTORE PUSH2 0xBFE DUP2 PUSH2 0xA62 JUMP JUMPDEST SWAP1 POP SWAP2 SWAP1 POP JUMP JUMPDEST PUSH1 0x0 PUSH1 0x20 DUP3 ADD SWAP1 POP DUP2 DUP2 SUB PUSH1 0x0 DUP4 ADD MSTORE PUSH2 0xC1E DUP2 PUSH2 0xA85 JUMP JUMPDEST SWAP1 POP SWAP2 SWAP1 POP JUMP JUMPDEST PUSH1 0x0 PUSH2 0xC2F PUSH2 0xC40 JUMP JUMPDEST SWAP1 POP PUSH2 0xC3B DUP3 DUP3 PUSH2 0xDA8 JUMP JUMPDEST SWAP2 SWAP1 POP JUMP JUMPDEST PUSH1 0x0 PUSH1 0x40 MLOAD SWAP1 POP SWAP1 JUMP JUMPDEST PUSH1 0x0 PUSH8 0xFFFFFFFFFFFFFFFF DUP3 GT ISZERO PUSH2 0xC65 JUMPI PUSH2 0xC64 PUSH2 0xE37 JUMP JUMPDEST JUMPDEST PUSH2 0xC6E DUP3 PUSH2 0xE84 JUMP JUMPDEST SWAP1 POP PUSH1 0x20 DUP2 ADD SWAP1 POP SWAP2 SWAP1 POP JUMP JUMPDEST PUSH1 0x0 DUP2 SWAP1 POP PUSH1 0x20 DUP3 ADD SWAP1 POP SWAP2 SWAP1 POP JUMP JUMPDEST PUSH1 0x0 DUP2 MLOAD SWAP1 POP SWAP2 SWAP1 POP JUMP JUMPDEST PUSH1 0x0 DUP2 MLOAD SWAP1 POP SWAP2 SWAP1 POP JUMP JUMPDEST PUSH1 0x0 PUSH1 0x20 DUP3 ADD SWAP1 POP SWAP2 SWAP1 POP JUMP JUMPDEST PUSH1 0x0 DUP3 DUP3 MSTORE PUSH1 0x20 DUP3 ADD SWAP1 POP SWAP3 SWAP2 POP POP JUMP JUMPDEST PUSH1 0x0 DUP3 DUP3 MSTORE PUSH1 0x20 DUP3 ADD SWAP1 POP SWAP3 SWAP2 POP POP JUMP JUMPDEST PUSH1 0x0 DUP3 DUP3 MSTORE PUSH1 0x20 DUP3 ADD SWAP1 POP SWAP3 SWAP2 POP POP JUMP JUMPDEST PUSH1 0x0 DUP2 SWAP1 POP SWAP3 SWAP2 POP POP JUMP JUMPDEST PUSH1 0x0 PUSH2 0xCF7 DUP3 PUSH2 0xD0A JUMP JUMPDEST SWAP1 POP SWAP2 SWAP1 POP JUMP JUMPDEST PUSH1 0x0 DUP2 ISZERO ISZERO SWAP1 POP SWAP2 SWAP1 POP JUMP JUMPDEST PUSH1 0x0 PUSH20 0xFFFFFFFFFFFFFFFFFFFFFFFFFFFFFFFFFFFFFFFF DUP3 AND SWAP1 POP SWAP2 SWAP1 POP JUMP JUMPDEST PUSH1 0x0 DUP2 SWAP1 POP SWAP2 SWAP1 POP JUMP JUMPDEST DUP3 DUP2 DUP4 CALLDATACOPY PUSH1 0x0 DUP4 DUP4 ADD MSTORE POP POP POP JUMP JUMPDEST PUSH1 0x0 JUMPDEST DUP4 DUP2 LT ISZERO PUSH2 0xD61 JUMPI DUP1 DUP3 ADD MLOAD DUP2 DUP5 ADD MSTORE PUSH1 0x20 DUP2 ADD SWAP1 POP PUSH2 0xD46 JUMP JUMPDEST DUP4 DUP2 GT ISZERO PUSH2 0xD70 JUMPI PUSH1 0x0 DUP5 DUP5 ADD MSTORE JUMPDEST POP POP POP POP JUMP JUMPDEST PUSH1 0x0 PUSH1 0x2 DUP3 DIV SWAP1 POP PUSH1 0x1 DUP3 AND DUP1 PUSH2 0xD8E JUMPI PUSH1 0x7F DUP3 AND SWAP2 POP JUMPDEST PUSH1 0x20 DUP3 LT DUP2 EQ ISZERO PUSH2 0xDA2 JUMPI PUSH2 0xDA1 PUSH2 0xDD9 JUMP JUMPDEST JUMPDEST POP SWAP2 SWAP1 POP JUMP JUMPDEST PUSH2 0xDB1 DUP3 PUSH2 0xE84 JUMP JUMPDEST DUP2 ADD DUP2 DUP2 LT PUSH8 0xFFFFFFFFFFFFFFFF DUP3 GT OR ISZERO PUSH2 0xDD0 JUMPI PUSH2 0xDCF PUSH2 0xE37 JUMP JUMPDEST JUMPDEST DUP1 PUSH1 0x40 MSTORE POP POP POP JUMP JUMPDEST PUSH32 0x4E487B7100000000000000000000000000000000000000000000000000000000 PUSH1 0x0 MSTORE PUSH1 0x22 PUSH1 0x4 MSTORE PUSH1 0x24 PUSH1 0x0 REVERT JUMPDEST PUSH32 0x4E487B7100000000000000000000000000000000000000000000000000000000 PUSH1 0x0 MSTORE PUSH1 0x32 PUSH1 0x4 MSTORE PUSH1 0x24 PUSH1 0x0 REVERT JUMPDEST PUSH32 0x4E487B7100000000000000000000000000000000000000000000000000000000 PUSH1 0x0 MSTORE PUSH1 0x41 PUSH1 0x4 MSTORE PUSH1 0x24 PUSH1 0x0 REVERT JUMPDEST PUSH1 0x0 DUP1 REVERT JUMPDEST PUSH1 0x0 DUP1 REVERT JUMPDEST PUSH1 0x0 DUP1 REVERT JUMPDEST PUSH1 0x0 DUP1 REVERT JUMPDEST PUSH1 0x0 DUP1 REVERT JUMPDEST PUSH1 0x0 DUP1 REVERT JUMPDEST PUSH1 0x0 PUSH1 0x1F NOT PUSH1 0x1F DUP4 ADD AND SWAP1 POP SWAP2 SWAP1 POP JUMP JUMPDEST PUSH32 0x596F7520617265206E6F7420746865206F776E65722100000000000000000000 PUSH1 0x0 DUP3 ADD MSTORE POP JUMP JUMPDEST PUSH32 0x5468652070726F64756374206973206E6F74206578697374696E672100000000 PUSH1 0x0 DUP3 ADD MSTORE POP JUMP JUMPDEST PUSH32 0x5468652070726F6475637420697320616C726561647920696E20746865207374 PUSH1 0x0 DUP3 ADD MSTORE PUSH32 0x6F72652100000000000000000000000000000000000000000000000000000000 PUSH1 0x20 DUP3 ADD MSTORE POP JUMP JUMPDEST PUSH2 0xF3F DUP2 PUSH2 0xD2A JUMP JUMPDEST DUP2 EQ PUSH2 0xF4A JUMPI PUSH1 0x0 DUP1 REVERT JUMPDEST POP JUMP INVALID LOG2 PUSH5 0x6970667358 0x22 SLT KECCAK256 0xF6 CREATE SSTORE SHR 0xC2 0x4F PUSH6 0x1FBB1060CF26 PUSH24 0x6D8DA7903874A8B52D86BC96A0AA2B91B2BB64736F6C6343 STOP ADDMOD SMOD STOP CALLER "
				},
				"gasEstimates": {
					"creation": {
						"codeDepositCost": "794200",
						"executionCost": "25097",
						"totalCost": "819297"
					},
					"external": {
						"addNewProduct(string,uint256,uint256)": "infinite",
						"availableProducts(string)": "infinite",
						"getProducts()": "infinite",
						"owner()": "2555",
						"products(uint256)": "infinite",
						"updateProductQuantity(uint256,uint256)": "infinite"
					}
				},
				"methodIdentifiers": {
					"addNewProduct(string,uint256,uint256)": "0a5bd44b",
					"availableProducts(string)": "38993c16",
					"getProducts()": "c29b2f20",
					"owner()": "8da5cb5b",
					"products(uint256)": "7acc0b20",
					"updateProductQuantity(uint256,uint256)": "fcc93b0b"
				}
			},
			"storageLayout": {
				"storage": [
					{
						"astId": 3,
						"contract": "contracts/Store.sol:Store",
						"label": "owner",
						"offset": 0,
						"slot": "0",
						"type": "t_address"
					},
					{
						"astId": 41,
						"contract": "contracts/Store.sol:Store",
						"label": "products",
						"offset": 0,
						"slot": "1",
						"type": "t_array(t_struct(Product)37_storage)dyn_storage"
					},
					{
						"astId": 45,
						"contract": "contracts/Store.sol:Store",
						"label": "availableProducts",
						"offset": 0,
						"slot": "2",
						"type": "t_mapping(t_string_memory_ptr,t_bool)"
					}
				],
				"types": {
					"t_address": {
						"encoding": "inplace",
						"label": "address",
						"numberOfBytes": "20"
					},
					"t_array(t_struct(Product)37_storage)dyn_storage": {
						"base": "t_struct(Product)37_storage",
						"encoding": "dynamic_array",
						"label": "struct Store.Product[]",
						"numberOfBytes": "32"
					},
					"t_bool": {
						"encoding": "inplace",
						"label": "bool",
						"numberOfBytes": "1"
					},
					"t_mapping(t_string_memory_ptr,t_bool)": {
						"encoding": "mapping",
						"key": "t_string_memory_ptr",
						"label": "mapping(string => bool)",
						"numberOfBytes": "32",
						"value": "t_bool"
					},
					"t_string_memory_ptr": {
						"encoding": "bytes",
						"label": "string",
						"numberOfBytes": "32"
					},
					"t_string_storage": {
						"encoding": "bytes",
						"label": "string",
						"numberOfBytes": "32"
					},
					"t_struct(Product)37_storage": {
						"encoding": "inplace",
						"label": "struct Store.Product",
						"members": [
							{
								"astId": 32,
								"contract": "contracts/Store.sol:Store",
								"label": "name",
								"offset": 0,
								"slot": "0",
								"type": "t_string_storage"
							},
							{
								"astId": 34,
								"contract": "contracts/Store.sol:Store",
								"label": "quantity",
								"offset": 0,
								"slot": "1",
								"type": "t_uint256"
							},
							{
								"astId": 36,
								"contract": "contracts/Store.sol:Store",
								"label": "price",
								"offset": 0,
								"slot": "2",
								"type": "t_uint256"
							}
						],
						"numberOfBytes": "96"
					},
					"t_uint256": {
						"encoding": "inplace",
						"label": "uint256",
						"numberOfBytes": "32"
					}
				}
			},
			"userdoc": {
				"kind": "user",
				"methods": {},
				"version": 1
			}
		}
	}
}