{
	"contracts/Store.sol": {
		"Store": {
			"abi": [
				{
					"inputs": [
						{
							"internalType": "string",
							"name": "name",
							"type": "string"
						},
						{
							"internalType": "uint256",
							"name": "quantity",
							"type": "uint256"
						},
						{
							"internalType": "uint256",
							"name": "price",
							"type": "uint256"
						}
					],
					"name": "addNewProduct",
					"outputs": [],
					"stateMutability": "nonpayable",
					"type": "function"
				},
				{
					"inputs": [
						{
							"internalType": "string",
							"name": "",
							"type": "string"
						}
					],
					"name": "availableProductsNames",
					"outputs": [
						{
							"internalType": "bool",
							"name": "",
							"type": "bool"
						}
					],
					"stateMutability": "view",
					"type": "function"
				},
				{
					"inputs": [
						{
							"internalType": "uint256",
							"name": "id",
							"type": "uint256"
						},
						{
							"internalType": "uint256",
							"name": "quantity",
							"type": "uint256"
						}
					],
					"name": "buyProduct",
					"outputs": [],
					"stateMutability": "nonpayable",
					"type": "function"
				},
				{
					"inputs": [],
					"name": "getProducts",
					"outputs": [
						{
							"components": [
								{
									"internalType": "uint256",
									"name": "id",
									"type": "uint256"
								},
								{
									"internalType": "string",
									"name": "name",
									"type": "string"
								},
								{
									"internalType": "uint256",
									"name": "quantity",
									"type": "uint256"
								},
								{
									"internalType": "uint256",
									"name": "price",
									"type": "uint256"
								}
							],
							"internalType": "struct Store.Product[]",
							"name": "",
							"type": "tuple[]"
						}
					],
					"stateMutability": "view",
					"type": "function"
				},
				{
					"inputs": [],
					"name": "owner",
					"outputs": [
						{
							"internalType": "address",
							"name": "",
							"type": "address"
						}
					],
					"stateMutability": "view",
					"type": "function"
				},
				{
					"inputs": [
						{
							"internalType": "uint256",
							"name": "",
							"type": "uint256"
						}
					],
					"name": "products",
					"outputs": [
						{
							"internalType": "uint256",
							"name": "id",
							"type": "uint256"
						},
						{
							"internalType": "string",
							"name": "name",
							"type": "string"
						},
						{
							"internalType": "uint256",
							"name": "quantity",
							"type": "uint256"
						},
						{
							"internalType": "uint256",
							"name": "price",
							"type": "uint256"
						}
					],
					"stateMutability": "view",
					"type": "function"
				},
				{
					"inputs": [
						{
							"internalType": "uint256",
							"name": "",
							"type": "uint256"
						},
						{
							"internalType": "address",
							"name": "",
							"type": "address"
						}
					],
					"name": "productsPurchases",
					"outputs": [
						{
							"internalType": "uint256",
							"name": "",
							"type": "uint256"
						}
					],
					"stateMutability": "view",
					"type": "function"
				},
				{
					"inputs": [
						{
							"internalType": "uint256",
							"name": "id",
							"type": "uint256"
						}
					],
					"name": "returnProduct",
					"outputs": [],
					"stateMutability": "nonpayable",
					"type": "function"
				},
				{
					"inputs": [
						{
							"internalType": "uint256",
							"name": "id",
							"type": "uint256"
						},
						{
							"internalType": "uint256",
							"name": "quantity",
							"type": "uint256"
						}
					],
					"name": "updateProductQuantity",
					"outputs": [],
					"stateMutability": "nonpayable",
					"type": "function"
				}
			],
			"devdoc": {
				"kind": "dev",
				"methods": {},
				"version": 1
			},
			"evm": {
				"assembly": "    /* \"contracts/Store.sol\":93:1897  contract Store is Ownable {\r... */\n  mstore(0x40, 0x80)\n  callvalue\n  dup1\n  iszero\n  tag_1\n  jumpi\n  0x00\n  dup1\n  revert\ntag_1:\n  pop\n    /* \"contracts/Ownable.sol\":156:166  msg.sender */\n  caller\n    /* \"contracts/Ownable.sol\":148:153  owner */\n  0x00\n  dup1\n    /* \"contracts/Ownable.sol\":148:166  owner = msg.sender */\n  0x0100\n  exp\n  dup2\n  sload\n  dup2\n  0xffffffffffffffffffffffffffffffffffffffff\n  mul\n  not\n  and\n  swap1\n  dup4\n  0xffffffffffffffffffffffffffffffffffffffff\n  and\n  mul\n  or\n  swap1\n  sstore\n  pop\n    /* \"contracts/Store.sol\":93:1897  contract Store is Ownable {\r... */\n  dataSize(sub_0)\n  dup1\n  dataOffset(sub_0)\n  0x00\n  codecopy\n  0x00\n  return\nstop\n\nsub_0: assembly {\n        /* \"contracts/Store.sol\":93:1897  contract Store is Ownable {\r... */\n      mstore(0x40, 0x80)\n      callvalue\n      dup1\n      iszero\n      tag_1\n      jumpi\n      0x00\n      dup1\n      revert\n    tag_1:\n      pop\n      jumpi(tag_2, lt(calldatasize, 0x04))\n      shr(0xe0, calldataload(0x00))\n      dup1\n      0x7acc0b20\n      gt\n      tag_12\n      jumpi\n      dup1\n      0x7acc0b20\n      eq\n      tag_7\n      jumpi\n      dup1\n      0x8da5cb5b\n      eq\n      tag_8\n      jumpi\n      dup1\n      0xc29b2f20\n      eq\n      tag_9\n      jumpi\n      dup1\n      0xccc4174a\n      eq\n      tag_10\n      jumpi\n      dup1\n      0xfcc93b0b\n      eq\n      tag_11\n      jumpi\n      jump(tag_2)\n    tag_12:\n      dup1\n      0x0a5bd44b\n      eq\n      tag_3\n      jumpi\n      dup1\n      0x131e407d\n      eq\n      tag_4\n      jumpi\n      dup1\n      0x4c437514\n      eq\n      tag_5\n      jumpi\n      dup1\n      0x53b62866\n      eq\n      tag_6\n      jumpi\n    tag_2:\n      0x00\n      dup1\n      revert\n        /* \"contracts/Store.sol\":470:880  function addNewProduct(string calldata name, uint quantity, uint price) public onlyOwner {\r... */\n    tag_3:\n      tag_13\n      0x04\n      dup1\n      calldatasize\n      sub\n      dup2\n      add\n      swap1\n      tag_14\n      swap2\n      swap1\n      tag_15\n      jump\t// in\n    tag_14:\n      tag_16\n      jump\t// in\n    tag_13:\n      stop\n        /* \"contracts/Store.sol\":1845:1894  function returnProduct(uint id) public {\r... */\n    tag_4:\n      tag_17\n      0x04\n      dup1\n      calldatasize\n      sub\n      dup2\n      add\n      swap1\n      tag_18\n      swap2\n      swap1\n      tag_19\n      jump\t// in\n    tag_18:\n      tag_20\n      jump\t// in\n    tag_17:\n      stop\n        /* \"contracts/Store.sol\":274:327  mapping(string => bool) public availableProductsNames */\n    tag_5:\n      tag_21\n      0x04\n      dup1\n      calldatasize\n      sub\n      dup2\n      add\n      swap1\n      tag_22\n      swap2\n      swap1\n      tag_23\n      jump\t// in\n    tag_22:\n      tag_24\n      jump\t// in\n    tag_21:\n      mload(0x40)\n      tag_25\n      swap2\n      swap1\n      tag_26\n      jump\t// in\n    tag_25:\n      mload(0x40)\n      dup1\n      swap2\n      sub\n      swap1\n      return\n        /* \"contracts/Store.sol\":1284:1837  function buyProduct(uint id, uint quantity) public onlyExistingProduct(id) {\r... */\n    tag_6:\n      tag_27\n      0x04\n      dup1\n      calldatasize\n      sub\n      dup2\n      add\n      swap1\n      tag_28\n      swap2\n      swap1\n      tag_29\n      jump\t// in\n    tag_28:\n      tag_30\n      jump\t// in\n    tag_27:\n      stop\n        /* \"contracts/Store.sol\":242:267  Product[] public products */\n    tag_7:\n      tag_31\n      0x04\n      dup1\n      calldatasize\n      sub\n      dup2\n      add\n      swap1\n      tag_32\n      swap2\n      swap1\n      tag_19\n      jump\t// in\n    tag_32:\n      tag_33\n      jump\t// in\n    tag_31:\n      mload(0x40)\n      tag_34\n      swap5\n      swap4\n      swap3\n      swap2\n      swap1\n      tag_35\n      jump\t// in\n    tag_34:\n      mload(0x40)\n      dup1\n      swap2\n      sub\n      swap1\n      return\n        /* \"contracts/Ownable.sol\":90:110  address public owner */\n    tag_8:\n      tag_36\n      tag_37\n      jump\t// in\n    tag_36:\n      mload(0x40)\n      tag_38\n      swap2\n      swap1\n      tag_39\n      jump\t// in\n    tag_38:\n      mload(0x40)\n      dup1\n      swap2\n      sub\n      swap1\n      return\n        /* \"contracts/Store.sol\":1181:1276  function getProducts() public view returns(Product[] memory) {\r... */\n    tag_9:\n      tag_40\n      tag_41\n      jump\t// in\n    tag_40:\n      mload(0x40)\n      tag_42\n      swap2\n      swap1\n      tag_43\n      jump\t// in\n    tag_42:\n      mload(0x40)\n      dup1\n      swap2\n      sub\n      swap1\n      return\n        /* \"contracts/Store.sol\":395:461  mapping(uint => mapping(address => uint)) public productsPurchases */\n    tag_10:\n      tag_44\n      0x04\n      dup1\n      calldatasize\n      sub\n      dup2\n      add\n      swap1\n      tag_45\n      swap2\n      swap1\n      tag_46\n      jump\t// in\n    tag_45:\n      tag_47\n      jump\t// in\n    tag_44:\n      mload(0x40)\n      tag_48\n      swap2\n      swap1\n      tag_49\n      jump\t// in\n    tag_48:\n      mload(0x40)\n      dup1\n      swap2\n      sub\n      swap1\n      return\n        /* \"contracts/Store.sol\":1026:1173  function updateProductQuantity(uint id, uint quantity) public onlyOwner onlyExistingProduct(id) {\r... */\n    tag_11:\n      tag_50\n      0x04\n      dup1\n      calldatasize\n      sub\n      dup2\n      add\n      swap1\n      tag_51\n      swap2\n      swap1\n      tag_29\n      jump\t// in\n    tag_51:\n      tag_52\n      jump\t// in\n    tag_50:\n      stop\n        /* \"contracts/Store.sol\":470:880  function addNewProduct(string calldata name, uint quantity, uint price) public onlyOwner {\r... */\n    tag_16:\n        /* \"contracts/Ownable.sol\":236:241  owner */\n      0x00\n      dup1\n      sload\n      swap1\n      0x0100\n      exp\n      swap1\n      div\n      0xffffffffffffffffffffffffffffffffffffffff\n      and\n        /* \"contracts/Ownable.sol\":222:241  msg.sender == owner */\n      0xffffffffffffffffffffffffffffffffffffffff\n      and\n        /* \"contracts/Ownable.sol\":222:232  msg.sender */\n      caller\n        /* \"contracts/Ownable.sol\":222:241  msg.sender == owner */\n      0xffffffffffffffffffffffffffffffffffffffff\n      and\n      eq\n        /* \"contracts/Ownable.sol\":214:268  require(msg.sender == owner, \"You are not the owner!\") */\n      tag_54\n      jumpi\n      mload(0x40)\n      0x08c379a000000000000000000000000000000000000000000000000000000000\n      dup2\n      mstore\n      0x04\n      add\n      tag_55\n      swap1\n      tag_56\n      jump\t// in\n    tag_55:\n      mload(0x40)\n      dup1\n      swap2\n      sub\n      swap1\n      revert\n    tag_54:\n        /* \"contracts/Store.sol\":600:601  0 */\n      0x00\n        /* \"contracts/Store.sol\":584:588  name */\n      dup5\n      dup5\n        /* \"contracts/Store.sol\":578:596  bytes(name).length */\n      swap1\n      pop\n        /* \"contracts/Store.sol\":578:601  bytes(name).length != 0 */\n      eq\n      iszero\n        /* \"contracts/Store.sol\":578:614  bytes(name).length != 0 && price > 0 */\n      dup1\n      iszero\n      tag_58\n      jumpi\n      pop\n        /* \"contracts/Store.sol\":613:614  0 */\n      0x00\n        /* \"contracts/Store.sol\":605:610  price */\n      dup2\n        /* \"contracts/Store.sol\":605:614  price > 0 */\n      gt\n        /* \"contracts/Store.sol\":578:614  bytes(name).length != 0 && price > 0 */\n    tag_58:\n        /* \"contracts/Store.sol\":570:615  require(bytes(name).length != 0 && price > 0) */\n      tag_59\n      jumpi\n      0x00\n      dup1\n      revert\n    tag_59:\n        /* \"contracts/Store.sol\":635:657  availableProductsNames */\n      0x02\n        /* \"contracts/Store.sol\":658:662  name */\n      dup5\n      dup5\n        /* \"contracts/Store.sol\":635:663  availableProductsNames[name] */\n      mload(0x40)\n      tag_60\n      swap3\n      swap2\n      swap1\n      tag_61\n      jump\t// in\n    tag_60:\n      swap1\n      dup2\n      mstore\n      0x20\n      add\n      mload(0x40)\n      dup1\n      swap2\n      sub\n      swap1\n      keccak256\n      0x00\n      swap1\n      sload\n      swap1\n      0x0100\n      exp\n      swap1\n      div\n      0xff\n      and\n        /* \"contracts/Store.sol\":634:663  !availableProductsNames[name] */\n      iszero\n        /* \"contracts/Store.sol\":626:704  require(!availableProductsNames[name], \"The product is already in the store!\") */\n      tag_62\n      jumpi\n      mload(0x40)\n      0x08c379a000000000000000000000000000000000000000000000000000000000\n      dup2\n      mstore\n      0x04\n      add\n      tag_63\n      swap1\n      tag_64\n      jump\t// in\n    tag_63:\n      mload(0x40)\n      dup1\n      swap2\n      sub\n      swap1\n      revert\n    tag_62:\n        /* \"contracts/Store.sol\":725:739  uint productId */\n      0x00\n        /* \"contracts/Store.sol\":742:750  products */\n      0x01\n        /* \"contracts/Store.sol\":742:757  products.length */\n      dup1\n      sload\n      swap1\n      pop\n        /* \"contracts/Store.sol\":725:757  uint productId = products.length */\n      swap1\n      pop\n        /* \"contracts/Store.sol\":801:805  true */\n      0x01\n        /* \"contracts/Store.sol\":770:792  availableProductsNames */\n      0x02\n        /* \"contracts/Store.sol\":793:797  name */\n      dup7\n      dup7\n        /* \"contracts/Store.sol\":770:798  availableProductsNames[name] */\n      mload(0x40)\n      tag_65\n      swap3\n      swap2\n      swap1\n      tag_61\n      jump\t// in\n    tag_65:\n      swap1\n      dup2\n      mstore\n      0x20\n      add\n      mload(0x40)\n      dup1\n      swap2\n      sub\n      swap1\n      keccak256\n      0x00\n        /* \"contracts/Store.sol\":770:805  availableProductsNames[name] = true */\n      0x0100\n      exp\n      dup2\n      sload\n      dup2\n      0xff\n      mul\n      not\n      and\n      swap1\n      dup4\n      iszero\n      iszero\n      mul\n      or\n      swap1\n      sstore\n      pop\n        /* \"contracts/Store.sol\":816:824  products */\n      0x01\n        /* \"contracts/Store.sol\":830:871  Product(productId, name, quantity, price) */\n      mload(0x40)\n      dup1\n      0x80\n      add\n      0x40\n      mstore\n      dup1\n        /* \"contracts/Store.sol\":838:847  productId */\n      dup4\n        /* \"contracts/Store.sol\":830:871  Product(productId, name, quantity, price) */\n      dup2\n      mstore\n      0x20\n      add\n        /* \"contracts/Store.sol\":849:853  name */\n      dup8\n      dup8\n        /* \"contracts/Store.sol\":830:871  Product(productId, name, quantity, price) */\n      dup1\n      dup1\n      0x1f\n      add\n      0x20\n      dup1\n      swap2\n      div\n      mul\n      0x20\n      add\n      mload(0x40)\n      swap1\n      dup2\n      add\n      0x40\n      mstore\n      dup1\n      swap4\n      swap3\n      swap2\n      swap1\n      dup2\n      dup2\n      mstore\n      0x20\n      add\n      dup4\n      dup4\n      dup1\n      dup3\n      dup5\n      calldatacopy\n      0x00\n      dup2\n      dup5\n      add\n      mstore\n      not(0x1f)\n      0x1f\n      dup3\n      add\n      and\n      swap1\n      pop\n      dup1\n      dup4\n      add\n      swap3\n      pop\n      pop\n      pop\n      pop\n      pop\n      pop\n      pop\n      dup2\n      mstore\n      0x20\n      add\n        /* \"contracts/Store.sol\":855:863  quantity */\n      dup6\n        /* \"contracts/Store.sol\":830:871  Product(productId, name, quantity, price) */\n      dup2\n      mstore\n      0x20\n      add\n        /* \"contracts/Store.sol\":865:870  price */\n      dup5\n        /* \"contracts/Store.sol\":830:871  Product(productId, name, quantity, price) */\n      dup2\n      mstore\n      pop\n        /* \"contracts/Store.sol\":816:872  products.push(Product(productId, name, quantity, price)) */\n      swap1\n      dup1\n      0x01\n      dup2\n      sload\n      add\n      dup1\n      dup3\n      sstore\n      dup1\n      swap2\n      pop\n      pop\n      0x01\n      swap1\n      sub\n      swap1\n      0x00\n      mstore\n      keccak256(0x00, 0x20)\n      swap1\n      0x04\n      mul\n      add\n      0x00\n      swap1\n      swap2\n      swap1\n      swap2\n      swap1\n      swap2\n      pop\n      0x00\n      dup3\n      add\n      mload\n      dup2\n      0x00\n      add\n      sstore\n      0x20\n      dup3\n      add\n      mload\n      dup2\n      0x01\n      add\n      swap1\n      dup1\n      mload\n      swap1\n      0x20\n      add\n      swap1\n      tag_67\n      swap3\n      swap2\n      swap1\n      tag_68\n      jump\t// in\n    tag_67:\n      pop\n      0x40\n      dup3\n      add\n      mload\n      dup2\n      0x02\n      add\n      sstore\n      0x60\n      dup3\n      add\n      mload\n      dup2\n      0x03\n      add\n      sstore\n      pop\n      pop\n        /* \"contracts/Store.sol\":559:880  {\r... */\n      pop\n        /* \"contracts/Store.sol\":470:880  function addNewProduct(string calldata name, uint quantity, uint price) public onlyOwner {\r... */\n      pop\n      pop\n      pop\n      pop\n      jump\t// out\n        /* \"contracts/Store.sol\":1845:1894  function returnProduct(uint id) public {\r... */\n    tag_20:\n      pop\n      jump\t// out\n        /* \"contracts/Store.sol\":274:327  mapping(string => bool) public availableProductsNames */\n    tag_24:\n      0x02\n      dup2\n      dup1\n      mload\n      0x20\n      dup2\n      add\n      dup3\n      add\n      dup1\n      mload\n      dup5\n      dup3\n      mstore\n      0x20\n      dup4\n      add\n      0x20\n      dup6\n      add\n      keccak256\n      dup2\n      dup4\n      mstore\n      dup1\n      swap6\n      pop\n      pop\n      pop\n      pop\n      pop\n      pop\n      0x00\n      swap2\n      pop\n      sload\n      swap1\n      0x0100\n      exp\n      swap1\n      div\n      0xff\n      and\n      dup2\n      jump\t// out\n        /* \"contracts/Store.sol\":1284:1837  function buyProduct(uint id, uint quantity) public onlyExistingProduct(id) {\r... */\n    tag_30:\n        /* \"contracts/Store.sol\":1355:1357  id */\n      dup2\n        /* \"contracts/Store.sol\":950:958  products */\n      0x01\n        /* \"contracts/Store.sol\":950:965  products.length */\n      dup1\n      sload\n      swap1\n      pop\n        /* \"contracts/Store.sol\":945:947  id */\n      dup2\n        /* \"contracts/Store.sol\":945:965  id < products.length */\n      lt\n        /* \"contracts/Store.sol\":937:998  require(id < products.length, \"The product is not existing!\") */\n      tag_71\n      jumpi\n      mload(0x40)\n      0x08c379a000000000000000000000000000000000000000000000000000000000\n      dup2\n      mstore\n      0x04\n      add\n      tag_72\n      swap1\n      tag_73\n      jump\t// in\n    tag_72:\n      mload(0x40)\n      dup1\n      swap2\n      sub\n      swap1\n      revert\n    tag_71:\n        /* \"contracts/Store.sol\":1415:1416  0 */\n      0x00\n        /* \"contracts/Store.sol\":1378:1395  productsPurchases */\n      0x03\n        /* \"contracts/Store.sol\":1378:1399  productsPurchases[id] */\n      0x00\n        /* \"contracts/Store.sol\":1396:1398  id */\n      dup6\n        /* \"contracts/Store.sol\":1378:1399  productsPurchases[id] */\n      dup2\n      mstore\n      0x20\n      add\n      swap1\n      dup2\n      mstore\n      0x20\n      add\n      0x00\n      keccak256\n        /* \"contracts/Store.sol\":1378:1411  productsPurchases[id][msg.sender] */\n      0x00\n        /* \"contracts/Store.sol\":1400:1410  msg.sender */\n      caller\n        /* \"contracts/Store.sol\":1378:1411  productsPurchases[id][msg.sender] */\n      0xffffffffffffffffffffffffffffffffffffffff\n      and\n      0xffffffffffffffffffffffffffffffffffffffff\n      and\n      dup2\n      mstore\n      0x20\n      add\n      swap1\n      dup2\n      mstore\n      0x20\n      add\n      0x00\n      keccak256\n      sload\n        /* \"contracts/Store.sol\":1378:1416  productsPurchases[id][msg.sender] == 0 */\n      eq\n        /* \"contracts/Store.sol\":1370:1458  require(productsPurchases[id][msg.sender] == 0, \"You have already bought this product!\") */\n      tag_75\n      jumpi\n      mload(0x40)\n      0x08c379a000000000000000000000000000000000000000000000000000000000\n      dup2\n      mstore\n      0x04\n      add\n      tag_76\n      swap1\n      tag_77\n      jump\t// in\n    tag_76:\n      mload(0x40)\n      dup1\n      swap2\n      sub\n      swap1\n      revert\n    tag_75:\n        /* \"contracts/Store.sol\":1471:1501  Product storage currentProduct */\n      0x00\n        /* \"contracts/Store.sol\":1504:1512  products */\n      0x01\n        /* \"contracts/Store.sol\":1513:1515  id */\n      dup5\n        /* \"contracts/Store.sol\":1504:1516  products[id] */\n      dup2\n      sload\n      dup2\n      lt\n      tag_78\n      jumpi\n      tag_79\n      tag_80\n      jump\t// in\n    tag_79:\n    tag_78:\n      swap1\n      0x00\n      mstore\n      keccak256(0x00, 0x20)\n      swap1\n      0x04\n      mul\n      add\n        /* \"contracts/Store.sol\":1471:1516  Product storage currentProduct = products[id] */\n      swap1\n      pop\n        /* \"contracts/Store.sol\":1564:1572  quantity */\n      dup3\n        /* \"contracts/Store.sol\":1537:1551  currentProduct */\n      dup2\n        /* \"contracts/Store.sol\":1537:1560  currentProduct.quantity */\n      0x02\n      add\n      sload\n        /* \"contracts/Store.sol\":1537:1572  currentProduct.quantity >= quantity */\n      lt\n      iszero\n        /* \"contracts/Store.sol\":1529:1622  require(currentProduct.quantity >= quantity, \"The product quantity is less than you wanted!\") */\n      tag_82\n      jumpi\n      mload(0x40)\n      0x08c379a000000000000000000000000000000000000000000000000000000000\n      dup2\n      mstore\n      0x04\n      add\n      tag_83\n      swap1\n      tag_84\n      jump\t// in\n    tag_83:\n      mload(0x40)\n      dup1\n      swap2\n      sub\n      swap1\n      revert\n    tag_82:\n        /* \"contracts/Store.sol\":1717:1725  quantity */\n      dup3\n        /* \"contracts/Store.sol\":1681:1698  productsPurchases */\n      0x03\n        /* \"contracts/Store.sol\":1681:1702  productsPurchases[id] */\n      0x00\n        /* \"contracts/Store.sol\":1699:1701  id */\n      dup7\n        /* \"contracts/Store.sol\":1681:1702  productsPurchases[id] */\n      dup2\n      mstore\n      0x20\n      add\n      swap1\n      dup2\n      mstore\n      0x20\n      add\n      0x00\n      keccak256\n        /* \"contracts/Store.sol\":1681:1714  productsPurchases[id][msg.sender] */\n      0x00\n        /* \"contracts/Store.sol\":1703:1713  msg.sender */\n      caller\n        /* \"contracts/Store.sol\":1681:1714  productsPurchases[id][msg.sender] */\n      0xffffffffffffffffffffffffffffffffffffffff\n      and\n      0xffffffffffffffffffffffffffffffffffffffff\n      and\n      dup2\n      mstore\n      0x20\n      add\n      swap1\n      dup2\n      mstore\n      0x20\n      add\n      0x00\n      keccak256\n        /* \"contracts/Store.sol\":1681:1725  productsPurchases[id][msg.sender] = quantity */\n      dup2\n      swap1\n      sstore\n      pop\n        /* \"contracts/Store.sol\":1821:1829  quantity */\n      dup3\n        /* \"contracts/Store.sol\":1794:1808  currentProduct */\n      dup2\n        /* \"contracts/Store.sol\":1794:1817  currentProduct.quantity */\n      0x02\n      add\n      0x00\n        /* \"contracts/Store.sol\":1794:1829  currentProduct.quantity -= quantity */\n      dup3\n      dup3\n      sload\n      tag_85\n      swap2\n      swap1\n      tag_86\n      jump\t// in\n    tag_85:\n      swap3\n      pop\n      pop\n      dup2\n      swap1\n      sstore\n      pop\n        /* \"contracts/Store.sol\":1359:1837  {\r... */\n      pop\n        /* \"contracts/Store.sol\":1284:1837  function buyProduct(uint id, uint quantity) public onlyExistingProduct(id) {\r... */\n      pop\n      pop\n      pop\n      jump\t// out\n        /* \"contracts/Store.sol\":242:267  Product[] public products */\n    tag_33:\n      0x01\n      dup2\n      dup2\n      sload\n      dup2\n      lt\n      tag_87\n      jumpi\n      0x00\n      dup1\n      revert\n    tag_87:\n      swap1\n      0x00\n      mstore\n      keccak256(0x00, 0x20)\n      swap1\n      0x04\n      mul\n      add\n      0x00\n      swap2\n      pop\n      swap1\n      pop\n      dup1\n      0x00\n      add\n      sload\n      swap1\n      dup1\n      0x01\n      add\n      dup1\n      sload\n      tag_89\n      swap1\n      tag_90\n      jump\t// in\n    tag_89:\n      dup1\n      0x1f\n      add\n      0x20\n      dup1\n      swap2\n      div\n      mul\n      0x20\n      add\n      mload(0x40)\n      swap1\n      dup2\n      add\n      0x40\n      mstore\n      dup1\n      swap3\n      swap2\n      swap1\n      dup2\n      dup2\n      mstore\n      0x20\n      add\n      dup3\n      dup1\n      sload\n      tag_91\n      swap1\n      tag_90\n      jump\t// in\n    tag_91:\n      dup1\n      iszero\n      tag_92\n      jumpi\n      dup1\n      0x1f\n      lt\n      tag_93\n      jumpi\n      0x0100\n      dup1\n      dup4\n      sload\n      div\n      mul\n      dup4\n      mstore\n      swap2\n      0x20\n      add\n      swap2\n      jump(tag_92)\n    tag_93:\n      dup3\n      add\n      swap2\n      swap1\n      0x00\n      mstore\n      keccak256(0x00, 0x20)\n      swap1\n    tag_94:\n      dup2\n      sload\n      dup2\n      mstore\n      swap1\n      0x01\n      add\n      swap1\n      0x20\n      add\n      dup1\n      dup4\n      gt\n      tag_94\n      jumpi\n      dup3\n      swap1\n      sub\n      0x1f\n      and\n      dup3\n      add\n      swap2\n    tag_92:\n      pop\n      pop\n      pop\n      pop\n      pop\n      swap1\n      dup1\n      0x02\n      add\n      sload\n      swap1\n      dup1\n      0x03\n      add\n      sload\n      swap1\n      pop\n      dup5\n      jump\t// out\n        /* \"contracts/Ownable.sol\":90:110  address public owner */\n    tag_37:\n      0x00\n      dup1\n      sload\n      swap1\n      0x0100\n      exp\n      swap1\n      div\n      0xffffffffffffffffffffffffffffffffffffffff\n      and\n      dup2\n      jump\t// out\n        /* \"contracts/Store.sol\":1181:1276  function getProducts() public view returns(Product[] memory) {\r... */\n    tag_41:\n        /* \"contracts/Store.sol\":1224:1240  Product[] memory */\n      0x60\n        /* \"contracts/Store.sol\":1260:1268  products */\n      0x01\n        /* \"contracts/Store.sol\":1253:1268  return products */\n      dup1\n      sload\n      dup1\n      0x20\n      mul\n      0x20\n      add\n      mload(0x40)\n      swap1\n      dup2\n      add\n      0x40\n      mstore\n      dup1\n      swap3\n      swap2\n      swap1\n      dup2\n      dup2\n      mstore\n      0x20\n      add\n      0x00\n      swap1\n    tag_96:\n      dup3\n      dup3\n      lt\n      iszero\n      tag_97\n      jumpi\n      dup4\n      dup3\n      swap1\n      0x00\n      mstore\n      keccak256(0x00, 0x20)\n      swap1\n      0x04\n      mul\n      add\n      mload(0x40)\n      dup1\n      0x80\n      add\n      0x40\n      mstore\n      swap1\n      dup2\n      0x00\n      dup3\n      add\n      sload\n      dup2\n      mstore\n      0x20\n      add\n      0x01\n      dup3\n      add\n      dup1\n      sload\n      tag_99\n      swap1\n      tag_90\n      jump\t// in\n    tag_99:\n      dup1\n      0x1f\n      add\n      0x20\n      dup1\n      swap2\n      div\n      mul\n      0x20\n      add\n      mload(0x40)\n      swap1\n      dup2\n      add\n      0x40\n      mstore\n      dup1\n      swap3\n      swap2\n      swap1\n      dup2\n      dup2\n      mstore\n      0x20\n      add\n      dup3\n      dup1\n      sload\n      tag_100\n      swap1\n      tag_90\n      jump\t// in\n    tag_100:\n      dup1\n      iszero\n      tag_101\n      jumpi\n      dup1\n      0x1f\n      lt\n      tag_102\n      jumpi\n      0x0100\n      dup1\n      dup4\n      sload\n      div\n      mul\n      dup4\n      mstore\n      swap2\n      0x20\n      add\n      swap2\n      jump(tag_101)\n    tag_102:\n      dup3\n      add\n      swap2\n      swap1\n      0x00\n      mstore\n      keccak256(0x00, 0x20)\n      swap1\n    tag_103:\n      dup2\n      sload\n      dup2\n      mstore\n      swap1\n      0x01\n      add\n      swap1\n      0x20\n      add\n      dup1\n      dup4\n      gt\n      tag_103\n      jumpi\n      dup3\n      swap1\n      sub\n      0x1f\n      and\n      dup3\n      add\n      swap2\n    tag_101:\n      pop\n      pop\n      pop\n      pop\n      pop\n      dup2\n      mstore\n      0x20\n      add\n      0x02\n      dup3\n      add\n      sload\n      dup2\n      mstore\n      0x20\n      add\n      0x03\n      dup3\n      add\n      sload\n      dup2\n      mstore\n      pop\n      pop\n      dup2\n      mstore\n      0x20\n      add\n      swap1\n      0x01\n      add\n      swap1\n      jump(tag_96)\n    tag_97:\n      pop\n      pop\n      pop\n      pop\n      swap1\n      pop\n        /* \"contracts/Store.sol\":1181:1276  function getProducts() public view returns(Product[] memory) {\r... */\n      swap1\n      jump\t// out\n        /* \"contracts/Store.sol\":395:461  mapping(uint => mapping(address => uint)) public productsPurchases */\n    tag_47:\n      mstore(0x20, 0x03)\n      dup2\n      0x00\n      mstore\n      mstore(0x20, keccak256(0x00, 0x40))\n      dup1\n      0x00\n      mstore\n      keccak256(0x00, 0x40)\n      0x00\n      swap2\n      pop\n      swap2\n      pop\n      pop\n      sload\n      dup2\n      jump\t// out\n        /* \"contracts/Store.sol\":1026:1173  function updateProductQuantity(uint id, uint quantity) public onlyOwner onlyExistingProduct(id) {\r... */\n    tag_52:\n        /* \"contracts/Ownable.sol\":236:241  owner */\n      0x00\n      dup1\n      sload\n      swap1\n      0x0100\n      exp\n      swap1\n      div\n      0xffffffffffffffffffffffffffffffffffffffff\n      and\n        /* \"contracts/Ownable.sol\":222:241  msg.sender == owner */\n      0xffffffffffffffffffffffffffffffffffffffff\n      and\n        /* \"contracts/Ownable.sol\":222:232  msg.sender */\n      caller\n        /* \"contracts/Ownable.sol\":222:241  msg.sender == owner */\n      0xffffffffffffffffffffffffffffffffffffffff\n      and\n      eq\n        /* \"contracts/Ownable.sol\":214:268  require(msg.sender == owner, \"You are not the owner!\") */\n      tag_105\n      jumpi\n      mload(0x40)\n      0x08c379a000000000000000000000000000000000000000000000000000000000\n      dup2\n      mstore\n      0x04\n      add\n      tag_106\n      swap1\n      tag_56\n      jump\t// in\n    tag_106:\n      mload(0x40)\n      dup1\n      swap2\n      sub\n      swap1\n      revert\n    tag_105:\n        /* \"contracts/Store.sol\":1118:1120  id */\n      dup2\n        /* \"contracts/Store.sol\":950:958  products */\n      0x01\n        /* \"contracts/Store.sol\":950:965  products.length */\n      dup1\n      sload\n      swap1\n      pop\n        /* \"contracts/Store.sol\":945:947  id */\n      dup2\n        /* \"contracts/Store.sol\":945:965  id < products.length */\n      lt\n        /* \"contracts/Store.sol\":937:998  require(id < products.length, \"The product is not existing!\") */\n      tag_108\n      jumpi\n      mload(0x40)\n      0x08c379a000000000000000000000000000000000000000000000000000000000\n      dup2\n      mstore\n      0x04\n      add\n      tag_109\n      swap1\n      tag_73\n      jump\t// in\n    tag_109:\n      mload(0x40)\n      dup1\n      swap2\n      sub\n      swap1\n      revert\n    tag_108:\n        /* \"contracts/Store.sol\":1157:1165  quantity */\n      dup2\n        /* \"contracts/Store.sol\":1133:1141  products */\n      0x01\n        /* \"contracts/Store.sol\":1142:1144  id */\n      dup5\n        /* \"contracts/Store.sol\":1133:1145  products[id] */\n      dup2\n      sload\n      dup2\n      lt\n      tag_111\n      jumpi\n      tag_112\n      tag_80\n      jump\t// in\n    tag_112:\n    tag_111:\n      swap1\n      0x00\n      mstore\n      keccak256(0x00, 0x20)\n      swap1\n      0x04\n      mul\n      add\n        /* \"contracts/Store.sol\":1133:1154  products[id].quantity */\n      0x02\n      add\n        /* \"contracts/Store.sol\":1133:1165  products[id].quantity = quantity */\n      dup2\n      swap1\n      sstore\n      pop\n        /* \"contracts/Ownable.sol\":279:280  _ */\n      pop\n        /* \"contracts/Store.sol\":1026:1173  function updateProductQuantity(uint id, uint quantity) public onlyOwner onlyExistingProduct(id) {\r... */\n      pop\n      pop\n      jump\t// out\n    tag_68:\n      dup3\n      dup1\n      sload\n      tag_114\n      swap1\n      tag_90\n      jump\t// in\n    tag_114:\n      swap1\n      0x00\n      mstore\n      keccak256(0x00, 0x20)\n      swap1\n      0x1f\n      add\n      0x20\n      swap1\n      div\n      dup2\n      add\n      swap3\n      dup3\n      tag_116\n      jumpi\n      0x00\n      dup6\n      sstore\n      jump(tag_115)\n    tag_116:\n      dup3\n      0x1f\n      lt\n      tag_117\n      jumpi\n      dup1\n      mload\n      not(0xff)\n      and\n      dup4\n      dup1\n      add\n      or\n      dup6\n      sstore\n      jump(tag_115)\n    tag_117:\n      dup3\n      dup1\n      add\n      0x01\n      add\n      dup6\n      sstore\n      dup3\n      iszero\n      tag_115\n      jumpi\n      swap2\n      dup3\n      add\n    tag_118:\n      dup3\n      dup2\n      gt\n      iszero\n      tag_119\n      jumpi\n      dup3\n      mload\n      dup3\n      sstore\n      swap2\n      0x20\n      add\n      swap2\n      swap1\n      0x01\n      add\n      swap1\n      jump(tag_118)\n    tag_119:\n    tag_115:\n      pop\n      swap1\n      pop\n      tag_120\n      swap2\n      swap1\n      tag_121\n      jump\t// in\n    tag_120:\n      pop\n      swap1\n      jump\t// out\n    tag_121:\n    tag_122:\n      dup1\n      dup3\n      gt\n      iszero\n      tag_123\n      jumpi\n      0x00\n      dup2\n      0x00\n      swap1\n      sstore\n      pop\n      0x01\n      add\n      jump(tag_122)\n    tag_123:\n      pop\n      swap1\n      jump\t// out\n        /* \"#utility.yul\":7:419   */\n    tag_125:\n        /* \"#utility.yul\":85:90   */\n      0x00\n        /* \"#utility.yul\":110:176   */\n      tag_127\n        /* \"#utility.yul\":126:175   */\n      tag_128\n        /* \"#utility.yul\":168:174   */\n      dup5\n        /* \"#utility.yul\":126:175   */\n      tag_129\n      jump\t// in\n    tag_128:\n        /* \"#utility.yul\":110:176   */\n      tag_130\n      jump\t// in\n    tag_127:\n        /* \"#utility.yul\":101:176   */\n      swap1\n      pop\n        /* \"#utility.yul\":199:205   */\n      dup3\n        /* \"#utility.yul\":192:197   */\n      dup2\n        /* \"#utility.yul\":185:206   */\n      mstore\n        /* \"#utility.yul\":237:241   */\n      0x20\n        /* \"#utility.yul\":230:235   */\n      dup2\n        /* \"#utility.yul\":226:242   */\n      add\n        /* \"#utility.yul\":275:278   */\n      dup5\n        /* \"#utility.yul\":266:272   */\n      dup5\n        /* \"#utility.yul\":261:264   */\n      dup5\n        /* \"#utility.yul\":257:273   */\n      add\n        /* \"#utility.yul\":254:279   */\n      gt\n        /* \"#utility.yul\":251:363   */\n      iszero\n      tag_131\n      jumpi\n        /* \"#utility.yul\":282:361   */\n      tag_132\n      tag_133\n      jump\t// in\n    tag_132:\n        /* \"#utility.yul\":251:363   */\n    tag_131:\n        /* \"#utility.yul\":372:413   */\n      tag_134\n        /* \"#utility.yul\":406:412   */\n      dup5\n        /* \"#utility.yul\":401:404   */\n      dup3\n        /* \"#utility.yul\":396:399   */\n      dup6\n        /* \"#utility.yul\":372:413   */\n      tag_135\n      jump\t// in\n    tag_134:\n        /* \"#utility.yul\":91:419   */\n      pop\n        /* \"#utility.yul\":7:419   */\n      swap4\n      swap3\n      pop\n      pop\n      pop\n      jump\t// out\n        /* \"#utility.yul\":425:564   */\n    tag_136:\n        /* \"#utility.yul\":471:476   */\n      0x00\n        /* \"#utility.yul\":509:515   */\n      dup2\n        /* \"#utility.yul\":496:516   */\n      calldataload\n        /* \"#utility.yul\":487:516   */\n      swap1\n      pop\n        /* \"#utility.yul\":525:558   */\n      tag_138\n        /* \"#utility.yul\":552:557   */\n      dup2\n        /* \"#utility.yul\":525:558   */\n      tag_139\n      jump\t// in\n    tag_138:\n        /* \"#utility.yul\":425:564   */\n      swap3\n      swap2\n      pop\n      pop\n      jump\t// out\n        /* \"#utility.yul\":584:1137   */\n    tag_140:\n        /* \"#utility.yul\":642:650   */\n      0x00\n        /* \"#utility.yul\":652:658   */\n      dup1\n        /* \"#utility.yul\":702:705   */\n      dup4\n        /* \"#utility.yul\":695:699   */\n      0x1f\n        /* \"#utility.yul\":687:693   */\n      dup5\n        /* \"#utility.yul\":683:700   */\n      add\n        /* \"#utility.yul\":679:706   */\n      slt\n        /* \"#utility.yul\":669:791   */\n      tag_142\n      jumpi\n        /* \"#utility.yul\":710:789   */\n      tag_143\n      tag_144\n      jump\t// in\n    tag_143:\n        /* \"#utility.yul\":669:791   */\n    tag_142:\n        /* \"#utility.yul\":823:829   */\n      dup3\n        /* \"#utility.yul\":810:830   */\n      calldataload\n        /* \"#utility.yul\":800:830   */\n      swap1\n      pop\n        /* \"#utility.yul\":853:871   */\n      0xffffffffffffffff\n        /* \"#utility.yul\":845:851   */\n      dup2\n        /* \"#utility.yul\":842:872   */\n      gt\n        /* \"#utility.yul\":839:956   */\n      iszero\n      tag_145\n      jumpi\n        /* \"#utility.yul\":875:954   */\n      tag_146\n      tag_147\n      jump\t// in\n    tag_146:\n        /* \"#utility.yul\":839:956   */\n    tag_145:\n        /* \"#utility.yul\":989:993   */\n      0x20\n        /* \"#utility.yul\":981:987   */\n      dup4\n        /* \"#utility.yul\":977:994   */\n      add\n        /* \"#utility.yul\":965:994   */\n      swap2\n      pop\n        /* \"#utility.yul\":1043:1046   */\n      dup4\n        /* \"#utility.yul\":1035:1039   */\n      0x01\n        /* \"#utility.yul\":1027:1033   */\n      dup3\n        /* \"#utility.yul\":1023:1040   */\n      mul\n        /* \"#utility.yul\":1013:1021   */\n      dup4\n        /* \"#utility.yul\":1009:1041   */\n      add\n        /* \"#utility.yul\":1006:1047   */\n      gt\n        /* \"#utility.yul\":1003:1131   */\n      iszero\n      tag_148\n      jumpi\n        /* \"#utility.yul\":1050:1129   */\n      tag_149\n      tag_150\n      jump\t// in\n    tag_149:\n        /* \"#utility.yul\":1003:1131   */\n    tag_148:\n        /* \"#utility.yul\":584:1137   */\n      swap3\n      pop\n      swap3\n      swap1\n      pop\n      jump\t// out\n        /* \"#utility.yul\":1157:1497   */\n    tag_151:\n        /* \"#utility.yul\":1213:1218   */\n      0x00\n        /* \"#utility.yul\":1262:1265   */\n      dup3\n        /* \"#utility.yul\":1255:1259   */\n      0x1f\n        /* \"#utility.yul\":1247:1253   */\n      dup4\n        /* \"#utility.yul\":1243:1260   */\n      add\n        /* \"#utility.yul\":1239:1266   */\n      slt\n        /* \"#utility.yul\":1229:1351   */\n      tag_153\n      jumpi\n        /* \"#utility.yul\":1270:1349   */\n      tag_154\n      tag_144\n      jump\t// in\n    tag_154:\n        /* \"#utility.yul\":1229:1351   */\n    tag_153:\n        /* \"#utility.yul\":1387:1393   */\n      dup2\n        /* \"#utility.yul\":1374:1394   */\n      calldataload\n        /* \"#utility.yul\":1412:1491   */\n      tag_155\n        /* \"#utility.yul\":1487:1490   */\n      dup5\n        /* \"#utility.yul\":1479:1485   */\n      dup3\n        /* \"#utility.yul\":1472:1476   */\n      0x20\n        /* \"#utility.yul\":1464:1470   */\n      dup7\n        /* \"#utility.yul\":1460:1477   */\n      add\n        /* \"#utility.yul\":1412:1491   */\n      tag_125\n      jump\t// in\n    tag_155:\n        /* \"#utility.yul\":1403:1491   */\n      swap2\n      pop\n        /* \"#utility.yul\":1219:1497   */\n      pop\n        /* \"#utility.yul\":1157:1497   */\n      swap3\n      swap2\n      pop\n      pop\n      jump\t// out\n        /* \"#utility.yul\":1503:1642   */\n    tag_156:\n        /* \"#utility.yul\":1549:1554   */\n      0x00\n        /* \"#utility.yul\":1587:1593   */\n      dup2\n        /* \"#utility.yul\":1574:1594   */\n      calldataload\n        /* \"#utility.yul\":1565:1594   */\n      swap1\n      pop\n        /* \"#utility.yul\":1603:1636   */\n      tag_158\n        /* \"#utility.yul\":1630:1635   */\n      dup2\n        /* \"#utility.yul\":1603:1636   */\n      tag_159\n      jump\t// in\n    tag_158:\n        /* \"#utility.yul\":1503:1642   */\n      swap3\n      swap2\n      pop\n      pop\n      jump\t// out\n        /* \"#utility.yul\":1648:2467   */\n    tag_15:\n        /* \"#utility.yul\":1737:1743   */\n      0x00\n        /* \"#utility.yul\":1745:1751   */\n      dup1\n        /* \"#utility.yul\":1753:1759   */\n      0x00\n        /* \"#utility.yul\":1761:1767   */\n      dup1\n        /* \"#utility.yul\":1810:1812   */\n      0x60\n        /* \"#utility.yul\":1798:1807   */\n      dup6\n        /* \"#utility.yul\":1789:1796   */\n      dup8\n        /* \"#utility.yul\":1785:1808   */\n      sub\n        /* \"#utility.yul\":1781:1813   */\n      slt\n        /* \"#utility.yul\":1778:1897   */\n      iszero\n      tag_161\n      jumpi\n        /* \"#utility.yul\":1816:1895   */\n      tag_162\n      tag_163\n      jump\t// in\n    tag_162:\n        /* \"#utility.yul\":1778:1897   */\n    tag_161:\n        /* \"#utility.yul\":1964:1965   */\n      0x00\n        /* \"#utility.yul\":1953:1962   */\n      dup6\n        /* \"#utility.yul\":1949:1966   */\n      add\n        /* \"#utility.yul\":1936:1967   */\n      calldataload\n        /* \"#utility.yul\":1994:2012   */\n      0xffffffffffffffff\n        /* \"#utility.yul\":1986:1992   */\n      dup2\n        /* \"#utility.yul\":1983:2013   */\n      gt\n        /* \"#utility.yul\":1980:2097   */\n      iszero\n      tag_164\n      jumpi\n        /* \"#utility.yul\":2016:2095   */\n      tag_165\n      tag_166\n      jump\t// in\n    tag_165:\n        /* \"#utility.yul\":1980:2097   */\n    tag_164:\n        /* \"#utility.yul\":2129:2194   */\n      tag_167\n        /* \"#utility.yul\":2186:2193   */\n      dup8\n        /* \"#utility.yul\":2177:2183   */\n      dup3\n        /* \"#utility.yul\":2166:2175   */\n      dup9\n        /* \"#utility.yul\":2162:2184   */\n      add\n        /* \"#utility.yul\":2129:2194   */\n      tag_140\n      jump\t// in\n    tag_167:\n        /* \"#utility.yul\":2111:2194   */\n      swap5\n      pop\n      swap5\n      pop\n        /* \"#utility.yul\":1907:2204   */\n      pop\n        /* \"#utility.yul\":2243:2245   */\n      0x20\n        /* \"#utility.yul\":2269:2322   */\n      tag_168\n        /* \"#utility.yul\":2314:2321   */\n      dup8\n        /* \"#utility.yul\":2305:2311   */\n      dup3\n        /* \"#utility.yul\":2294:2303   */\n      dup9\n        /* \"#utility.yul\":2290:2312   */\n      add\n        /* \"#utility.yul\":2269:2322   */\n      tag_156\n      jump\t// in\n    tag_168:\n        /* \"#utility.yul\":2259:2322   */\n      swap3\n      pop\n        /* \"#utility.yul\":2214:2332   */\n      pop\n        /* \"#utility.yul\":2371:2373   */\n      0x40\n        /* \"#utility.yul\":2397:2450   */\n      tag_169\n        /* \"#utility.yul\":2442:2449   */\n      dup8\n        /* \"#utility.yul\":2433:2439   */\n      dup3\n        /* \"#utility.yul\":2422:2431   */\n      dup9\n        /* \"#utility.yul\":2418:2440   */\n      add\n        /* \"#utility.yul\":2397:2450   */\n      tag_156\n      jump\t// in\n    tag_169:\n        /* \"#utility.yul\":2387:2450   */\n      swap2\n      pop\n        /* \"#utility.yul\":2342:2460   */\n      pop\n        /* \"#utility.yul\":1648:2467   */\n      swap3\n      swap6\n      swap2\n      swap5\n      pop\n      swap3\n      pop\n      jump\t// out\n        /* \"#utility.yul\":2473:2982   */\n    tag_23:\n        /* \"#utility.yul\":2542:2548   */\n      0x00\n        /* \"#utility.yul\":2591:2593   */\n      0x20\n        /* \"#utility.yul\":2579:2588   */\n      dup3\n        /* \"#utility.yul\":2570:2577   */\n      dup5\n        /* \"#utility.yul\":2566:2589   */\n      sub\n        /* \"#utility.yul\":2562:2594   */\n      slt\n        /* \"#utility.yul\":2559:2678   */\n      iszero\n      tag_171\n      jumpi\n        /* \"#utility.yul\":2597:2676   */\n      tag_172\n      tag_163\n      jump\t// in\n    tag_172:\n        /* \"#utility.yul\":2559:2678   */\n    tag_171:\n        /* \"#utility.yul\":2745:2746   */\n      0x00\n        /* \"#utility.yul\":2734:2743   */\n      dup3\n        /* \"#utility.yul\":2730:2747   */\n      add\n        /* \"#utility.yul\":2717:2748   */\n      calldataload\n        /* \"#utility.yul\":2775:2793   */\n      0xffffffffffffffff\n        /* \"#utility.yul\":2767:2773   */\n      dup2\n        /* \"#utility.yul\":2764:2794   */\n      gt\n        /* \"#utility.yul\":2761:2878   */\n      iszero\n      tag_173\n      jumpi\n        /* \"#utility.yul\":2797:2876   */\n      tag_174\n      tag_166\n      jump\t// in\n    tag_174:\n        /* \"#utility.yul\":2761:2878   */\n    tag_173:\n        /* \"#utility.yul\":2902:2965   */\n      tag_175\n        /* \"#utility.yul\":2957:2964   */\n      dup5\n        /* \"#utility.yul\":2948:2954   */\n      dup3\n        /* \"#utility.yul\":2937:2946   */\n      dup6\n        /* \"#utility.yul\":2933:2955   */\n      add\n        /* \"#utility.yul\":2902:2965   */\n      tag_151\n      jump\t// in\n    tag_175:\n        /* \"#utility.yul\":2892:2965   */\n      swap2\n      pop\n        /* \"#utility.yul\":2688:2975   */\n      pop\n        /* \"#utility.yul\":2473:2982   */\n      swap3\n      swap2\n      pop\n      pop\n      jump\t// out\n        /* \"#utility.yul\":2988:3317   */\n    tag_19:\n        /* \"#utility.yul\":3047:3053   */\n      0x00\n        /* \"#utility.yul\":3096:3098   */\n      0x20\n        /* \"#utility.yul\":3084:3093   */\n      dup3\n        /* \"#utility.yul\":3075:3082   */\n      dup5\n        /* \"#utility.yul\":3071:3094   */\n      sub\n        /* \"#utility.yul\":3067:3099   */\n      slt\n        /* \"#utility.yul\":3064:3183   */\n      iszero\n      tag_177\n      jumpi\n        /* \"#utility.yul\":3102:3181   */\n      tag_178\n      tag_163\n      jump\t// in\n    tag_178:\n        /* \"#utility.yul\":3064:3183   */\n    tag_177:\n        /* \"#utility.yul\":3222:3223   */\n      0x00\n        /* \"#utility.yul\":3247:3300   */\n      tag_179\n        /* \"#utility.yul\":3292:3299   */\n      dup5\n        /* \"#utility.yul\":3283:3289   */\n      dup3\n        /* \"#utility.yul\":3272:3281   */\n      dup6\n        /* \"#utility.yul\":3268:3290   */\n      add\n        /* \"#utility.yul\":3247:3300   */\n      tag_156\n      jump\t// in\n    tag_179:\n        /* \"#utility.yul\":3237:3300   */\n      swap2\n      pop\n        /* \"#utility.yul\":3193:3310   */\n      pop\n        /* \"#utility.yul\":2988:3317   */\n      swap3\n      swap2\n      pop\n      pop\n      jump\t// out\n        /* \"#utility.yul\":3323:3797   */\n    tag_46:\n        /* \"#utility.yul\":3391:3397   */\n      0x00\n        /* \"#utility.yul\":3399:3405   */\n      dup1\n        /* \"#utility.yul\":3448:3450   */\n      0x40\n        /* \"#utility.yul\":3436:3445   */\n      dup4\n        /* \"#utility.yul\":3427:3434   */\n      dup6\n        /* \"#utility.yul\":3423:3446   */\n      sub\n        /* \"#utility.yul\":3419:3451   */\n      slt\n        /* \"#utility.yul\":3416:3535   */\n      iszero\n      tag_181\n      jumpi\n        /* \"#utility.yul\":3454:3533   */\n      tag_182\n      tag_163\n      jump\t// in\n    tag_182:\n        /* \"#utility.yul\":3416:3535   */\n    tag_181:\n        /* \"#utility.yul\":3574:3575   */\n      0x00\n        /* \"#utility.yul\":3599:3652   */\n      tag_183\n        /* \"#utility.yul\":3644:3651   */\n      dup6\n        /* \"#utility.yul\":3635:3641   */\n      dup3\n        /* \"#utility.yul\":3624:3633   */\n      dup7\n        /* \"#utility.yul\":3620:3642   */\n      add\n        /* \"#utility.yul\":3599:3652   */\n      tag_156\n      jump\t// in\n    tag_183:\n        /* \"#utility.yul\":3589:3652   */\n      swap3\n      pop\n        /* \"#utility.yul\":3545:3662   */\n      pop\n        /* \"#utility.yul\":3701:3703   */\n      0x20\n        /* \"#utility.yul\":3727:3780   */\n      tag_184\n        /* \"#utility.yul\":3772:3779   */\n      dup6\n        /* \"#utility.yul\":3763:3769   */\n      dup3\n        /* \"#utility.yul\":3752:3761   */\n      dup7\n        /* \"#utility.yul\":3748:3770   */\n      add\n        /* \"#utility.yul\":3727:3780   */\n      tag_136\n      jump\t// in\n    tag_184:\n        /* \"#utility.yul\":3717:3780   */\n      swap2\n      pop\n        /* \"#utility.yul\":3672:3790   */\n      pop\n        /* \"#utility.yul\":3323:3797   */\n      swap3\n      pop\n      swap3\n      swap1\n      pop\n      jump\t// out\n        /* \"#utility.yul\":3803:4277   */\n    tag_29:\n        /* \"#utility.yul\":3871:3877   */\n      0x00\n        /* \"#utility.yul\":3879:3885   */\n      dup1\n        /* \"#utility.yul\":3928:3930   */\n      0x40\n        /* \"#utility.yul\":3916:3925   */\n      dup4\n        /* \"#utility.yul\":3907:3914   */\n      dup6\n        /* \"#utility.yul\":3903:3926   */\n      sub\n        /* \"#utility.yul\":3899:3931   */\n      slt\n        /* \"#utility.yul\":3896:4015   */\n      iszero\n      tag_186\n      jumpi\n        /* \"#utility.yul\":3934:4013   */\n      tag_187\n      tag_163\n      jump\t// in\n    tag_187:\n        /* \"#utility.yul\":3896:4015   */\n    tag_186:\n        /* \"#utility.yul\":4054:4055   */\n      0x00\n        /* \"#utility.yul\":4079:4132   */\n      tag_188\n        /* \"#utility.yul\":4124:4131   */\n      dup6\n        /* \"#utility.yul\":4115:4121   */\n      dup3\n        /* \"#utility.yul\":4104:4113   */\n      dup7\n        /* \"#utility.yul\":4100:4122   */\n      add\n        /* \"#utility.yul\":4079:4132   */\n      tag_156\n      jump\t// in\n    tag_188:\n        /* \"#utility.yul\":4069:4132   */\n      swap3\n      pop\n        /* \"#utility.yul\":4025:4142   */\n      pop\n        /* \"#utility.yul\":4181:4183   */\n      0x20\n        /* \"#utility.yul\":4207:4260   */\n      tag_189\n        /* \"#utility.yul\":4252:4259   */\n      dup6\n        /* \"#utility.yul\":4243:4249   */\n      dup3\n        /* \"#utility.yul\":4232:4241   */\n      dup7\n        /* \"#utility.yul\":4228:4250   */\n      add\n        /* \"#utility.yul\":4207:4260   */\n      tag_156\n      jump\t// in\n    tag_189:\n        /* \"#utility.yul\":4197:4260   */\n      swap2\n      pop\n        /* \"#utility.yul\":4152:4270   */\n      pop\n        /* \"#utility.yul\":3803:4277   */\n      swap3\n      pop\n      swap3\n      swap1\n      pop\n      jump\t// out\n        /* \"#utility.yul\":4283:4531   */\n    tag_190:\n        /* \"#utility.yul\":4398:4408   */\n      0x00\n        /* \"#utility.yul\":4433:4525   */\n      tag_192\n        /* \"#utility.yul\":4521:4524   */\n      dup4\n        /* \"#utility.yul\":4513:4519   */\n      dup4\n        /* \"#utility.yul\":4433:4525   */\n      tag_193\n      jump\t// in\n    tag_192:\n        /* \"#utility.yul\":4419:4525   */\n      swap1\n      pop\n        /* \"#utility.yul\":4283:4531   */\n      swap3\n      swap2\n      pop\n      pop\n      jump\t// out\n        /* \"#utility.yul\":4537:4655   */\n    tag_194:\n        /* \"#utility.yul\":4624:4648   */\n      tag_196\n        /* \"#utility.yul\":4642:4647   */\n      dup2\n        /* \"#utility.yul\":4624:4648   */\n      tag_197\n      jump\t// in\n    tag_196:\n        /* \"#utility.yul\":4619:4622   */\n      dup3\n        /* \"#utility.yul\":4612:4649   */\n      mstore\n        /* \"#utility.yul\":4537:4655   */\n      pop\n      pop\n      jump\t// out\n        /* \"#utility.yul\":4717:5812   */\n    tag_198:\n        /* \"#utility.yul\":4882:4885   */\n      0x00\n        /* \"#utility.yul\":4911:4988   */\n      tag_200\n        /* \"#utility.yul\":4982:4987   */\n      dup3\n        /* \"#utility.yul\":4911:4988   */\n      tag_201\n      jump\t// in\n    tag_200:\n        /* \"#utility.yul\":5004:5113   */\n      tag_202\n        /* \"#utility.yul\":5106:5112   */\n      dup2\n        /* \"#utility.yul\":5101:5104   */\n      dup6\n        /* \"#utility.yul\":5004:5113   */\n      tag_203\n      jump\t// in\n    tag_202:\n        /* \"#utility.yul\":4997:5113   */\n      swap4\n      pop\n        /* \"#utility.yul\":5139:5142   */\n      dup4\n        /* \"#utility.yul\":5184:5188   */\n      0x20\n        /* \"#utility.yul\":5176:5182   */\n      dup3\n        /* \"#utility.yul\":5172:5189   */\n      mul\n        /* \"#utility.yul\":5167:5170   */\n      dup6\n        /* \"#utility.yul\":5163:5190   */\n      add\n        /* \"#utility.yul\":5214:5293   */\n      tag_204\n        /* \"#utility.yul\":5287:5292   */\n      dup6\n        /* \"#utility.yul\":5214:5293   */\n      tag_205\n      jump\t// in\n    tag_204:\n        /* \"#utility.yul\":5316:5323   */\n      dup1\n        /* \"#utility.yul\":5347:5348   */\n      0x00\n        /* \"#utility.yul\":5332:5767   */\n    tag_206:\n        /* \"#utility.yul\":5357:5363   */\n      dup6\n        /* \"#utility.yul\":5354:5355   */\n      dup2\n        /* \"#utility.yul\":5351:5364   */\n      lt\n        /* \"#utility.yul\":5332:5767   */\n      iszero\n      tag_208\n      jumpi\n        /* \"#utility.yul\":5428:5437   */\n      dup5\n        /* \"#utility.yul\":5422:5426   */\n      dup5\n        /* \"#utility.yul\":5418:5438   */\n      sub\n        /* \"#utility.yul\":5413:5416   */\n      dup10\n        /* \"#utility.yul\":5406:5439   */\n      mstore\n        /* \"#utility.yul\":5479:5485   */\n      dup2\n        /* \"#utility.yul\":5473:5486   */\n      mload\n        /* \"#utility.yul\":5507:5617   */\n      tag_209\n        /* \"#utility.yul\":5612:5616   */\n      dup6\n        /* \"#utility.yul\":5597:5610   */\n      dup3\n        /* \"#utility.yul\":5507:5617   */\n      tag_190\n      jump\t// in\n    tag_209:\n        /* \"#utility.yul\":5499:5617   */\n      swap5\n      pop\n        /* \"#utility.yul\":5640:5723   */\n      tag_210\n        /* \"#utility.yul\":5716:5722   */\n      dup4\n        /* \"#utility.yul\":5640:5723   */\n      tag_211\n      jump\t// in\n    tag_210:\n        /* \"#utility.yul\":5630:5723   */\n      swap3\n      pop\n        /* \"#utility.yul\":5752:5756   */\n      0x20\n        /* \"#utility.yul\":5747:5750   */\n      dup11\n        /* \"#utility.yul\":5743:5757   */\n      add\n        /* \"#utility.yul\":5736:5757   */\n      swap10\n      pop\n        /* \"#utility.yul\":5392:5767   */\n      pop\n        /* \"#utility.yul\":5379:5380   */\n      0x01\n        /* \"#utility.yul\":5376:5377   */\n      dup2\n        /* \"#utility.yul\":5372:5381   */\n      add\n        /* \"#utility.yul\":5367:5381   */\n      swap1\n      pop\n        /* \"#utility.yul\":5332:5767   */\n      jump(tag_206)\n    tag_208:\n        /* \"#utility.yul\":5336:5350   */\n      pop\n        /* \"#utility.yul\":5783:5787   */\n      dup3\n        /* \"#utility.yul\":5776:5787   */\n      swap8\n      pop\n        /* \"#utility.yul\":5803:5806   */\n      dup8\n        /* \"#utility.yul\":5796:5806   */\n      swap6\n      pop\n        /* \"#utility.yul\":4887:5812   */\n      pop\n      pop\n      pop\n      pop\n      pop\n        /* \"#utility.yul\":4717:5812   */\n      swap3\n      swap2\n      pop\n      pop\n      jump\t// out\n        /* \"#utility.yul\":5818:5927   */\n    tag_212:\n        /* \"#utility.yul\":5899:5920   */\n      tag_214\n        /* \"#utility.yul\":5914:5919   */\n      dup2\n        /* \"#utility.yul\":5899:5920   */\n      tag_215\n      jump\t// in\n    tag_214:\n        /* \"#utility.yul\":5894:5897   */\n      dup3\n        /* \"#utility.yul\":5887:5921   */\n      mstore\n        /* \"#utility.yul\":5818:5927   */\n      pop\n      pop\n      jump\t// out\n        /* \"#utility.yul\":5957:6274   */\n    tag_216:\n        /* \"#utility.yul\":6073:6076   */\n      0x00\n        /* \"#utility.yul\":6094:6183   */\n      tag_218\n        /* \"#utility.yul\":6176:6182   */\n      dup4\n        /* \"#utility.yul\":6171:6174   */\n      dup6\n        /* \"#utility.yul\":6094:6183   */\n      tag_219\n      jump\t// in\n    tag_218:\n        /* \"#utility.yul\":6087:6183   */\n      swap4\n      pop\n        /* \"#utility.yul\":6193:6236   */\n      tag_220\n        /* \"#utility.yul\":6229:6235   */\n      dup4\n        /* \"#utility.yul\":6224:6227   */\n      dup6\n        /* \"#utility.yul\":6217:6222   */\n      dup5\n        /* \"#utility.yul\":6193:6236   */\n      tag_135\n      jump\t// in\n    tag_220:\n        /* \"#utility.yul\":6261:6267   */\n      dup3\n        /* \"#utility.yul\":6256:6259   */\n      dup5\n        /* \"#utility.yul\":6252:6268   */\n      add\n        /* \"#utility.yul\":6245:6268   */\n      swap1\n      pop\n        /* \"#utility.yul\":5957:6274   */\n      swap4\n      swap3\n      pop\n      pop\n      pop\n      jump\t// out\n        /* \"#utility.yul\":6280:6624   */\n    tag_221:\n        /* \"#utility.yul\":6358:6361   */\n      0x00\n        /* \"#utility.yul\":6386:6425   */\n      tag_223\n        /* \"#utility.yul\":6419:6424   */\n      dup3\n        /* \"#utility.yul\":6386:6425   */\n      tag_224\n      jump\t// in\n    tag_223:\n        /* \"#utility.yul\":6441:6502   */\n      tag_225\n        /* \"#utility.yul\":6495:6501   */\n      dup2\n        /* \"#utility.yul\":6490:6493   */\n      dup6\n        /* \"#utility.yul\":6441:6502   */\n      tag_226\n      jump\t// in\n    tag_225:\n        /* \"#utility.yul\":6434:6502   */\n      swap4\n      pop\n        /* \"#utility.yul\":6511:6563   */\n      tag_227\n        /* \"#utility.yul\":6556:6562   */\n      dup2\n        /* \"#utility.yul\":6551:6554   */\n      dup6\n        /* \"#utility.yul\":6544:6548   */\n      0x20\n        /* \"#utility.yul\":6537:6542   */\n      dup7\n        /* \"#utility.yul\":6533:6549   */\n      add\n        /* \"#utility.yul\":6511:6563   */\n      tag_228\n      jump\t// in\n    tag_227:\n        /* \"#utility.yul\":6588:6617   */\n      tag_229\n        /* \"#utility.yul\":6610:6616   */\n      dup2\n        /* \"#utility.yul\":6588:6617   */\n      tag_230\n      jump\t// in\n    tag_229:\n        /* \"#utility.yul\":6583:6586   */\n      dup5\n        /* \"#utility.yul\":6579:6618   */\n      add\n        /* \"#utility.yul\":6572:6618   */\n      swap2\n      pop\n        /* \"#utility.yul\":6362:6624   */\n      pop\n        /* \"#utility.yul\":6280:6624   */\n      swap3\n      swap2\n      pop\n      pop\n      jump\t// out\n        /* \"#utility.yul\":6630:6994   */\n    tag_231:\n        /* \"#utility.yul\":6718:6721   */\n      0x00\n        /* \"#utility.yul\":6746:6785   */\n      tag_233\n        /* \"#utility.yul\":6779:6784   */\n      dup3\n        /* \"#utility.yul\":6746:6785   */\n      tag_224\n      jump\t// in\n    tag_233:\n        /* \"#utility.yul\":6801:6872   */\n      tag_234\n        /* \"#utility.yul\":6865:6871   */\n      dup2\n        /* \"#utility.yul\":6860:6863   */\n      dup6\n        /* \"#utility.yul\":6801:6872   */\n      tag_235\n      jump\t// in\n    tag_234:\n        /* \"#utility.yul\":6794:6872   */\n      swap4\n      pop\n        /* \"#utility.yul\":6881:6933   */\n      tag_236\n        /* \"#utility.yul\":6926:6932   */\n      dup2\n        /* \"#utility.yul\":6921:6924   */\n      dup6\n        /* \"#utility.yul\":6914:6918   */\n      0x20\n        /* \"#utility.yul\":6907:6912   */\n      dup7\n        /* \"#utility.yul\":6903:6919   */\n      add\n        /* \"#utility.yul\":6881:6933   */\n      tag_228\n      jump\t// in\n    tag_236:\n        /* \"#utility.yul\":6958:6987   */\n      tag_237\n        /* \"#utility.yul\":6980:6986   */\n      dup2\n        /* \"#utility.yul\":6958:6987   */\n      tag_230\n      jump\t// in\n    tag_237:\n        /* \"#utility.yul\":6953:6956   */\n      dup5\n        /* \"#utility.yul\":6949:6988   */\n      add\n        /* \"#utility.yul\":6942:6988   */\n      swap2\n      pop\n        /* \"#utility.yul\":6722:6994   */\n      pop\n        /* \"#utility.yul\":6630:6994   */\n      swap3\n      swap2\n      pop\n      pop\n      jump\t// out\n        /* \"#utility.yul\":7000:7366   */\n    tag_238:\n        /* \"#utility.yul\":7142:7145   */\n      0x00\n        /* \"#utility.yul\":7163:7230   */\n      tag_240\n        /* \"#utility.yul\":7227:7229   */\n      0x16\n        /* \"#utility.yul\":7222:7225   */\n      dup4\n        /* \"#utility.yul\":7163:7230   */\n      tag_235\n      jump\t// in\n    tag_240:\n        /* \"#utility.yul\":7156:7230   */\n      swap2\n      pop\n        /* \"#utility.yul\":7239:7332   */\n      tag_241\n        /* \"#utility.yul\":7328:7331   */\n      dup3\n        /* \"#utility.yul\":7239:7332   */\n      tag_242\n      jump\t// in\n    tag_241:\n        /* \"#utility.yul\":7357:7359   */\n      0x20\n        /* \"#utility.yul\":7352:7355   */\n      dup3\n        /* \"#utility.yul\":7348:7360   */\n      add\n        /* \"#utility.yul\":7341:7360   */\n      swap1\n      pop\n        /* \"#utility.yul\":7000:7366   */\n      swap2\n      swap1\n      pop\n      jump\t// out\n        /* \"#utility.yul\":7372:7738   */\n    tag_243:\n        /* \"#utility.yul\":7514:7517   */\n      0x00\n        /* \"#utility.yul\":7535:7602   */\n      tag_245\n        /* \"#utility.yul\":7599:7601   */\n      0x2d\n        /* \"#utility.yul\":7594:7597   */\n      dup4\n        /* \"#utility.yul\":7535:7602   */\n      tag_235\n      jump\t// in\n    tag_245:\n        /* \"#utility.yul\":7528:7602   */\n      swap2\n      pop\n        /* \"#utility.yul\":7611:7704   */\n      tag_246\n        /* \"#utility.yul\":7700:7703   */\n      dup3\n        /* \"#utility.yul\":7611:7704   */\n      tag_247\n      jump\t// in\n    tag_246:\n        /* \"#utility.yul\":7729:7731   */\n      0x40\n        /* \"#utility.yul\":7724:7727   */\n      dup3\n        /* \"#utility.yul\":7720:7732   */\n      add\n        /* \"#utility.yul\":7713:7732   */\n      swap1\n      pop\n        /* \"#utility.yul\":7372:7738   */\n      swap2\n      swap1\n      pop\n      jump\t// out\n        /* \"#utility.yul\":7744:8110   */\n    tag_248:\n        /* \"#utility.yul\":7886:7889   */\n      0x00\n        /* \"#utility.yul\":7907:7974   */\n      tag_250\n        /* \"#utility.yul\":7971:7973   */\n      0x25\n        /* \"#utility.yul\":7966:7969   */\n      dup4\n        /* \"#utility.yul\":7907:7974   */\n      tag_235\n      jump\t// in\n    tag_250:\n        /* \"#utility.yul\":7900:7974   */\n      swap2\n      pop\n        /* \"#utility.yul\":7983:8076   */\n      tag_251\n        /* \"#utility.yul\":8072:8075   */\n      dup3\n        /* \"#utility.yul\":7983:8076   */\n      tag_252\n      jump\t// in\n    tag_251:\n        /* \"#utility.yul\":8101:8103   */\n      0x40\n        /* \"#utility.yul\":8096:8099   */\n      dup3\n        /* \"#utility.yul\":8092:8104   */\n      add\n        /* \"#utility.yul\":8085:8104   */\n      swap1\n      pop\n        /* \"#utility.yul\":7744:8110   */\n      swap2\n      swap1\n      pop\n      jump\t// out\n        /* \"#utility.yul\":8116:8482   */\n    tag_253:\n        /* \"#utility.yul\":8258:8261   */\n      0x00\n        /* \"#utility.yul\":8279:8346   */\n      tag_255\n        /* \"#utility.yul\":8343:8345   */\n      0x1c\n        /* \"#utility.yul\":8338:8341   */\n      dup4\n        /* \"#utility.yul\":8279:8346   */\n      tag_235\n      jump\t// in\n    tag_255:\n        /* \"#utility.yul\":8272:8346   */\n      swap2\n      pop\n        /* \"#utility.yul\":8355:8448   */\n      tag_256\n        /* \"#utility.yul\":8444:8447   */\n      dup3\n        /* \"#utility.yul\":8355:8448   */\n      tag_257\n      jump\t// in\n    tag_256:\n        /* \"#utility.yul\":8473:8475   */\n      0x20\n        /* \"#utility.yul\":8468:8471   */\n      dup3\n        /* \"#utility.yul\":8464:8476   */\n      add\n        /* \"#utility.yul\":8457:8476   */\n      swap1\n      pop\n        /* \"#utility.yul\":8116:8482   */\n      swap2\n      swap1\n      pop\n      jump\t// out\n        /* \"#utility.yul\":8488:8854   */\n    tag_258:\n        /* \"#utility.yul\":8630:8633   */\n      0x00\n        /* \"#utility.yul\":8651:8718   */\n      tag_260\n        /* \"#utility.yul\":8715:8717   */\n      0x24\n        /* \"#utility.yul\":8710:8713   */\n      dup4\n        /* \"#utility.yul\":8651:8718   */\n      tag_235\n      jump\t// in\n    tag_260:\n        /* \"#utility.yul\":8644:8718   */\n      swap2\n      pop\n        /* \"#utility.yul\":8727:8820   */\n      tag_261\n        /* \"#utility.yul\":8816:8819   */\n      dup3\n        /* \"#utility.yul\":8727:8820   */\n      tag_262\n      jump\t// in\n    tag_261:\n        /* \"#utility.yul\":8845:8847   */\n      0x40\n        /* \"#utility.yul\":8840:8843   */\n      dup3\n        /* \"#utility.yul\":8836:8848   */\n      add\n        /* \"#utility.yul\":8829:8848   */\n      swap1\n      pop\n        /* \"#utility.yul\":8488:8854   */\n      swap2\n      swap1\n      pop\n      jump\t// out\n        /* \"#utility.yul\":8912:9855   */\n    tag_193:\n        /* \"#utility.yul\":9017:9020   */\n      0x00\n        /* \"#utility.yul\":9053:9057   */\n      0x80\n        /* \"#utility.yul\":9048:9051   */\n      dup4\n        /* \"#utility.yul\":9044:9058   */\n      add\n        /* \"#utility.yul\":9138:9142   */\n      0x00\n        /* \"#utility.yul\":9131:9136   */\n      dup4\n        /* \"#utility.yul\":9127:9143   */\n      add\n        /* \"#utility.yul\":9121:9144   */\n      mload\n        /* \"#utility.yul\":9157:9220   */\n      tag_264\n        /* \"#utility.yul\":9214:9218   */\n      0x00\n        /* \"#utility.yul\":9209:9212   */\n      dup7\n        /* \"#utility.yul\":9205:9219   */\n      add\n        /* \"#utility.yul\":9191:9203   */\n      dup3\n        /* \"#utility.yul\":9157:9220   */\n      tag_265\n      jump\t// in\n    tag_264:\n        /* \"#utility.yul\":9068:9230   */\n      pop\n        /* \"#utility.yul\":9312:9316   */\n      0x20\n        /* \"#utility.yul\":9305:9310   */\n      dup4\n        /* \"#utility.yul\":9301:9317   */\n      add\n        /* \"#utility.yul\":9295:9318   */\n      mload\n        /* \"#utility.yul\":9365:9368   */\n      dup5\n        /* \"#utility.yul\":9359:9363   */\n      dup3\n        /* \"#utility.yul\":9355:9369   */\n      sub\n        /* \"#utility.yul\":9348:9352   */\n      0x20\n        /* \"#utility.yul\":9343:9346   */\n      dup7\n        /* \"#utility.yul\":9339:9353   */\n      add\n        /* \"#utility.yul\":9332:9370   */\n      mstore\n        /* \"#utility.yul\":9391:9464   */\n      tag_266\n        /* \"#utility.yul\":9459:9463   */\n      dup3\n        /* \"#utility.yul\":9445:9457   */\n      dup3\n        /* \"#utility.yul\":9391:9464   */\n      tag_221\n      jump\t// in\n    tag_266:\n        /* \"#utility.yul\":9383:9464   */\n      swap2\n      pop\n        /* \"#utility.yul\":9240:9475   */\n      pop\n        /* \"#utility.yul\":9561:9565   */\n      0x40\n        /* \"#utility.yul\":9554:9559   */\n      dup4\n        /* \"#utility.yul\":9550:9566   */\n      add\n        /* \"#utility.yul\":9544:9567   */\n      mload\n        /* \"#utility.yul\":9580:9643   */\n      tag_267\n        /* \"#utility.yul\":9637:9641   */\n      0x40\n        /* \"#utility.yul\":9632:9635   */\n      dup7\n        /* \"#utility.yul\":9628:9642   */\n      add\n        /* \"#utility.yul\":9614:9626   */\n      dup3\n        /* \"#utility.yul\":9580:9643   */\n      tag_265\n      jump\t// in\n    tag_267:\n        /* \"#utility.yul\":9485:9653   */\n      pop\n        /* \"#utility.yul\":9736:9740   */\n      0x60\n        /* \"#utility.yul\":9729:9734   */\n      dup4\n        /* \"#utility.yul\":9725:9741   */\n      add\n        /* \"#utility.yul\":9719:9742   */\n      mload\n        /* \"#utility.yul\":9755:9818   */\n      tag_268\n        /* \"#utility.yul\":9812:9816   */\n      0x60\n        /* \"#utility.yul\":9807:9810   */\n      dup7\n        /* \"#utility.yul\":9803:9817   */\n      add\n        /* \"#utility.yul\":9789:9801   */\n      dup3\n        /* \"#utility.yul\":9755:9818   */\n      tag_265\n      jump\t// in\n    tag_268:\n        /* \"#utility.yul\":9663:9828   */\n      pop\n        /* \"#utility.yul\":9845:9849   */\n      dup1\n        /* \"#utility.yul\":9838:9849   */\n      swap2\n      pop\n        /* \"#utility.yul\":9022:9855   */\n      pop\n        /* \"#utility.yul\":8912:9855   */\n      swap3\n      swap2\n      pop\n      pop\n      jump\t// out\n        /* \"#utility.yul\":9861:9969   */\n    tag_265:\n        /* \"#utility.yul\":9938:9962   */\n      tag_270\n        /* \"#utility.yul\":9956:9961   */\n      dup2\n        /* \"#utility.yul\":9938:9962   */\n      tag_271\n      jump\t// in\n    tag_270:\n        /* \"#utility.yul\":9933:9936   */\n      dup3\n        /* \"#utility.yul\":9926:9963   */\n      mstore\n        /* \"#utility.yul\":9861:9969   */\n      pop\n      pop\n      jump\t// out\n        /* \"#utility.yul\":9975:10093   */\n    tag_272:\n        /* \"#utility.yul\":10062:10086   */\n      tag_274\n        /* \"#utility.yul\":10080:10085   */\n      dup2\n        /* \"#utility.yul\":10062:10086   */\n      tag_271\n      jump\t// in\n    tag_274:\n        /* \"#utility.yul\":10057:10060   */\n      dup3\n        /* \"#utility.yul\":10050:10087   */\n      mstore\n        /* \"#utility.yul\":9975:10093   */\n      pop\n      pop\n      jump\t// out\n        /* \"#utility.yul\":10099:10394   */\n    tag_61:\n        /* \"#utility.yul\":10241:10244   */\n      0x00\n        /* \"#utility.yul\":10263:10368   */\n      tag_276\n        /* \"#utility.yul\":10364:10367   */\n      dup3\n        /* \"#utility.yul\":10355:10361   */\n      dup5\n        /* \"#utility.yul\":10347:10353   */\n      dup7\n        /* \"#utility.yul\":10263:10368   */\n      tag_216\n      jump\t// in\n    tag_276:\n        /* \"#utility.yul\":10256:10368   */\n      swap2\n      pop\n        /* \"#utility.yul\":10385:10388   */\n      dup2\n        /* \"#utility.yul\":10378:10388   */\n      swap1\n      pop\n        /* \"#utility.yul\":10099:10394   */\n      swap4\n      swap3\n      pop\n      pop\n      pop\n      jump\t// out\n        /* \"#utility.yul\":10400:10622   */\n    tag_39:\n        /* \"#utility.yul\":10493:10497   */\n      0x00\n        /* \"#utility.yul\":10531:10533   */\n      0x20\n        /* \"#utility.yul\":10520:10529   */\n      dup3\n        /* \"#utility.yul\":10516:10534   */\n      add\n        /* \"#utility.yul\":10508:10534   */\n      swap1\n      pop\n        /* \"#utility.yul\":10544:10615   */\n      tag_278\n        /* \"#utility.yul\":10612:10613   */\n      0x00\n        /* \"#utility.yul\":10601:10610   */\n      dup4\n        /* \"#utility.yul\":10597:10614   */\n      add\n        /* \"#utility.yul\":10588:10594   */\n      dup5\n        /* \"#utility.yul\":10544:10615   */\n      tag_194\n      jump\t// in\n    tag_278:\n        /* \"#utility.yul\":10400:10622   */\n      swap3\n      swap2\n      pop\n      pop\n      jump\t// out\n        /* \"#utility.yul\":10628:11093   */\n    tag_43:\n        /* \"#utility.yul\":10817:10821   */\n      0x00\n        /* \"#utility.yul\":10855:10857   */\n      0x20\n        /* \"#utility.yul\":10844:10853   */\n      dup3\n        /* \"#utility.yul\":10840:10858   */\n      add\n        /* \"#utility.yul\":10832:10858   */\n      swap1\n      pop\n        /* \"#utility.yul\":10904:10913   */\n      dup2\n        /* \"#utility.yul\":10898:10902   */\n      dup2\n        /* \"#utility.yul\":10894:10914   */\n      sub\n        /* \"#utility.yul\":10890:10891   */\n      0x00\n        /* \"#utility.yul\":10879:10888   */\n      dup4\n        /* \"#utility.yul\":10875:10892   */\n      add\n        /* \"#utility.yul\":10868:10915   */\n      mstore\n        /* \"#utility.yul\":10932:11086   */\n      tag_280\n        /* \"#utility.yul\":11081:11085   */\n      dup2\n        /* \"#utility.yul\":11072:11078   */\n      dup5\n        /* \"#utility.yul\":10932:11086   */\n      tag_198\n      jump\t// in\n    tag_280:\n        /* \"#utility.yul\":10924:11086   */\n      swap1\n      pop\n        /* \"#utility.yul\":10628:11093   */\n      swap3\n      swap2\n      pop\n      pop\n      jump\t// out\n        /* \"#utility.yul\":11099:11309   */\n    tag_26:\n        /* \"#utility.yul\":11186:11190   */\n      0x00\n        /* \"#utility.yul\":11224:11226   */\n      0x20\n        /* \"#utility.yul\":11213:11222   */\n      dup3\n        /* \"#utility.yul\":11209:11227   */\n      add\n        /* \"#utility.yul\":11201:11227   */\n      swap1\n      pop\n        /* \"#utility.yul\":11237:11302   */\n      tag_282\n        /* \"#utility.yul\":11299:11300   */\n      0x00\n        /* \"#utility.yul\":11288:11297   */\n      dup4\n        /* \"#utility.yul\":11284:11301   */\n      add\n        /* \"#utility.yul\":11275:11281   */\n      dup5\n        /* \"#utility.yul\":11237:11302   */\n      tag_212\n      jump\t// in\n    tag_282:\n        /* \"#utility.yul\":11099:11309   */\n      swap3\n      swap2\n      pop\n      pop\n      jump\t// out\n        /* \"#utility.yul\":11315:11734   */\n    tag_56:\n        /* \"#utility.yul\":11481:11485   */\n      0x00\n        /* \"#utility.yul\":11519:11521   */\n      0x20\n        /* \"#utility.yul\":11508:11517   */\n      dup3\n        /* \"#utility.yul\":11504:11522   */\n      add\n        /* \"#utility.yul\":11496:11522   */\n      swap1\n      pop\n        /* \"#utility.yul\":11568:11577   */\n      dup2\n        /* \"#utility.yul\":11562:11566   */\n      dup2\n        /* \"#utility.yul\":11558:11578   */\n      sub\n        /* \"#utility.yul\":11554:11555   */\n      0x00\n        /* \"#utility.yul\":11543:11552   */\n      dup4\n        /* \"#utility.yul\":11539:11556   */\n      add\n        /* \"#utility.yul\":11532:11579   */\n      mstore\n        /* \"#utility.yul\":11596:11727   */\n      tag_284\n        /* \"#utility.yul\":11722:11726   */\n      dup2\n        /* \"#utility.yul\":11596:11727   */\n      tag_238\n      jump\t// in\n    tag_284:\n        /* \"#utility.yul\":11588:11727   */\n      swap1\n      pop\n        /* \"#utility.yul\":11315:11734   */\n      swap2\n      swap1\n      pop\n      jump\t// out\n        /* \"#utility.yul\":11740:12159   */\n    tag_84:\n        /* \"#utility.yul\":11906:11910   */\n      0x00\n        /* \"#utility.yul\":11944:11946   */\n      0x20\n        /* \"#utility.yul\":11933:11942   */\n      dup3\n        /* \"#utility.yul\":11929:11947   */\n      add\n        /* \"#utility.yul\":11921:11947   */\n      swap1\n      pop\n        /* \"#utility.yul\":11993:12002   */\n      dup2\n        /* \"#utility.yul\":11987:11991   */\n      dup2\n        /* \"#utility.yul\":11983:12003   */\n      sub\n        /* \"#utility.yul\":11979:11980   */\n      0x00\n        /* \"#utility.yul\":11968:11977   */\n      dup4\n        /* \"#utility.yul\":11964:11981   */\n      add\n        /* \"#utility.yul\":11957:12004   */\n      mstore\n        /* \"#utility.yul\":12021:12152   */\n      tag_286\n        /* \"#utility.yul\":12147:12151   */\n      dup2\n        /* \"#utility.yul\":12021:12152   */\n      tag_243\n      jump\t// in\n    tag_286:\n        /* \"#utility.yul\":12013:12152   */\n      swap1\n      pop\n        /* \"#utility.yul\":11740:12159   */\n      swap2\n      swap1\n      pop\n      jump\t// out\n        /* \"#utility.yul\":12165:12584   */\n    tag_77:\n        /* \"#utility.yul\":12331:12335   */\n      0x00\n        /* \"#utility.yul\":12369:12371   */\n      0x20\n        /* \"#utility.yul\":12358:12367   */\n      dup3\n        /* \"#utility.yul\":12354:12372   */\n      add\n        /* \"#utility.yul\":12346:12372   */\n      swap1\n      pop\n        /* \"#utility.yul\":12418:12427   */\n      dup2\n        /* \"#utility.yul\":12412:12416   */\n      dup2\n        /* \"#utility.yul\":12408:12428   */\n      sub\n        /* \"#utility.yul\":12404:12405   */\n      0x00\n        /* \"#utility.yul\":12393:12402   */\n      dup4\n        /* \"#utility.yul\":12389:12406   */\n      add\n        /* \"#utility.yul\":12382:12429   */\n      mstore\n        /* \"#utility.yul\":12446:12577   */\n      tag_288\n        /* \"#utility.yul\":12572:12576   */\n      dup2\n        /* \"#utility.yul\":12446:12577   */\n      tag_248\n      jump\t// in\n    tag_288:\n        /* \"#utility.yul\":12438:12577   */\n      swap1\n      pop\n        /* \"#utility.yul\":12165:12584   */\n      swap2\n      swap1\n      pop\n      jump\t// out\n        /* \"#utility.yul\":12590:13009   */\n    tag_73:\n        /* \"#utility.yul\":12756:12760   */\n      0x00\n        /* \"#utility.yul\":12794:12796   */\n      0x20\n        /* \"#utility.yul\":12783:12792   */\n      dup3\n        /* \"#utility.yul\":12779:12797   */\n      add\n        /* \"#utility.yul\":12771:12797   */\n      swap1\n      pop\n        /* \"#utility.yul\":12843:12852   */\n      dup2\n        /* \"#utility.yul\":12837:12841   */\n      dup2\n        /* \"#utility.yul\":12833:12853   */\n      sub\n        /* \"#utility.yul\":12829:12830   */\n      0x00\n        /* \"#utility.yul\":12818:12827   */\n      dup4\n        /* \"#utility.yul\":12814:12831   */\n      add\n        /* \"#utility.yul\":12807:12854   */\n      mstore\n        /* \"#utility.yul\":12871:13002   */\n      tag_290\n        /* \"#utility.yul\":12997:13001   */\n      dup2\n        /* \"#utility.yul\":12871:13002   */\n      tag_253\n      jump\t// in\n    tag_290:\n        /* \"#utility.yul\":12863:13002   */\n      swap1\n      pop\n        /* \"#utility.yul\":12590:13009   */\n      swap2\n      swap1\n      pop\n      jump\t// out\n        /* \"#utility.yul\":13015:13434   */\n    tag_64:\n        /* \"#utility.yul\":13181:13185   */\n      0x00\n        /* \"#utility.yul\":13219:13221   */\n      0x20\n        /* \"#utility.yul\":13208:13217   */\n      dup3\n        /* \"#utility.yul\":13204:13222   */\n      add\n        /* \"#utility.yul\":13196:13222   */\n      swap1\n      pop\n        /* \"#utility.yul\":13268:13277   */\n      dup2\n        /* \"#utility.yul\":13262:13266   */\n      dup2\n        /* \"#utility.yul\":13258:13278   */\n      sub\n        /* \"#utility.yul\":13254:13255   */\n      0x00\n        /* \"#utility.yul\":13243:13252   */\n      dup4\n        /* \"#utility.yul\":13239:13256   */\n      add\n        /* \"#utility.yul\":13232:13279   */\n      mstore\n        /* \"#utility.yul\":13296:13427   */\n      tag_292\n        /* \"#utility.yul\":13422:13426   */\n      dup2\n        /* \"#utility.yul\":13296:13427   */\n      tag_258\n      jump\t// in\n    tag_292:\n        /* \"#utility.yul\":13288:13427   */\n      swap1\n      pop\n        /* \"#utility.yul\":13015:13434   */\n      swap2\n      swap1\n      pop\n      jump\t// out\n        /* \"#utility.yul\":13440:13662   */\n    tag_49:\n        /* \"#utility.yul\":13533:13537   */\n      0x00\n        /* \"#utility.yul\":13571:13573   */\n      0x20\n        /* \"#utility.yul\":13560:13569   */\n      dup3\n        /* \"#utility.yul\":13556:13574   */\n      add\n        /* \"#utility.yul\":13548:13574   */\n      swap1\n      pop\n        /* \"#utility.yul\":13584:13655   */\n      tag_294\n        /* \"#utility.yul\":13652:13653   */\n      0x00\n        /* \"#utility.yul\":13641:13650   */\n      dup4\n        /* \"#utility.yul\":13637:13654   */\n      add\n        /* \"#utility.yul\":13628:13634   */\n      dup5\n        /* \"#utility.yul\":13584:13655   */\n      tag_272\n      jump\t// in\n    tag_294:\n        /* \"#utility.yul\":13440:13662   */\n      swap3\n      swap2\n      pop\n      pop\n      jump\t// out\n        /* \"#utility.yul\":13668:14312   */\n    tag_35:\n        /* \"#utility.yul\":13865:13869   */\n      0x00\n        /* \"#utility.yul\":13903:13906   */\n      0x80\n        /* \"#utility.yul\":13892:13901   */\n      dup3\n        /* \"#utility.yul\":13888:13907   */\n      add\n        /* \"#utility.yul\":13880:13907   */\n      swap1\n      pop\n        /* \"#utility.yul\":13917:13988   */\n      tag_296\n        /* \"#utility.yul\":13985:13986   */\n      0x00\n        /* \"#utility.yul\":13974:13983   */\n      dup4\n        /* \"#utility.yul\":13970:13987   */\n      add\n        /* \"#utility.yul\":13961:13967   */\n      dup8\n        /* \"#utility.yul\":13917:13988   */\n      tag_272\n      jump\t// in\n    tag_296:\n        /* \"#utility.yul\":14035:14044   */\n      dup2\n        /* \"#utility.yul\":14029:14033   */\n      dup2\n        /* \"#utility.yul\":14025:14045   */\n      sub\n        /* \"#utility.yul\":14020:14022   */\n      0x20\n        /* \"#utility.yul\":14009:14018   */\n      dup4\n        /* \"#utility.yul\":14005:14023   */\n      add\n        /* \"#utility.yul\":13998:14046   */\n      mstore\n        /* \"#utility.yul\":14063:14141   */\n      tag_297\n        /* \"#utility.yul\":14136:14140   */\n      dup2\n        /* \"#utility.yul\":14127:14133   */\n      dup7\n        /* \"#utility.yul\":14063:14141   */\n      tag_231\n      jump\t// in\n    tag_297:\n        /* \"#utility.yul\":14055:14141   */\n      swap1\n      pop\n        /* \"#utility.yul\":14151:14223   */\n      tag_298\n        /* \"#utility.yul\":14219:14221   */\n      0x40\n        /* \"#utility.yul\":14208:14217   */\n      dup4\n        /* \"#utility.yul\":14204:14222   */\n      add\n        /* \"#utility.yul\":14195:14201   */\n      dup6\n        /* \"#utility.yul\":14151:14223   */\n      tag_272\n      jump\t// in\n    tag_298:\n        /* \"#utility.yul\":14233:14305   */\n      tag_299\n        /* \"#utility.yul\":14301:14303   */\n      0x60\n        /* \"#utility.yul\":14290:14299   */\n      dup4\n        /* \"#utility.yul\":14286:14304   */\n      add\n        /* \"#utility.yul\":14277:14283   */\n      dup5\n        /* \"#utility.yul\":14233:14305   */\n      tag_272\n      jump\t// in\n    tag_299:\n        /* \"#utility.yul\":13668:14312   */\n      swap6\n      swap5\n      pop\n      pop\n      pop\n      pop\n      pop\n      jump\t// out\n        /* \"#utility.yul\":14318:14447   */\n    tag_130:\n        /* \"#utility.yul\":14352:14358   */\n      0x00\n        /* \"#utility.yul\":14379:14399   */\n      tag_301\n      tag_302\n      jump\t// in\n    tag_301:\n        /* \"#utility.yul\":14369:14399   */\n      swap1\n      pop\n        /* \"#utility.yul\":14408:14441   */\n      tag_303\n        /* \"#utility.yul\":14436:14440   */\n      dup3\n        /* \"#utility.yul\":14428:14434   */\n      dup3\n        /* \"#utility.yul\":14408:14441   */\n      tag_304\n      jump\t// in\n    tag_303:\n        /* \"#utility.yul\":14318:14447   */\n      swap2\n      swap1\n      pop\n      jump\t// out\n        /* \"#utility.yul\":14453:14528   */\n    tag_302:\n        /* \"#utility.yul\":14486:14492   */\n      0x00\n        /* \"#utility.yul\":14519:14521   */\n      0x40\n        /* \"#utility.yul\":14513:14522   */\n      mload\n        /* \"#utility.yul\":14503:14522   */\n      swap1\n      pop\n        /* \"#utility.yul\":14453:14528   */\n      swap1\n      jump\t// out\n        /* \"#utility.yul\":14534:14842   */\n    tag_129:\n        /* \"#utility.yul\":14596:14600   */\n      0x00\n        /* \"#utility.yul\":14686:14704   */\n      0xffffffffffffffff\n        /* \"#utility.yul\":14678:14684   */\n      dup3\n        /* \"#utility.yul\":14675:14705   */\n      gt\n        /* \"#utility.yul\":14672:14728   */\n      iszero\n      tag_307\n      jumpi\n        /* \"#utility.yul\":14708:14726   */\n      tag_308\n      tag_309\n      jump\t// in\n    tag_308:\n        /* \"#utility.yul\":14672:14728   */\n    tag_307:\n        /* \"#utility.yul\":14746:14775   */\n      tag_310\n        /* \"#utility.yul\":14768:14774   */\n      dup3\n        /* \"#utility.yul\":14746:14775   */\n      tag_230\n      jump\t// in\n    tag_310:\n        /* \"#utility.yul\":14738:14775   */\n      swap1\n      pop\n        /* \"#utility.yul\":14830:14834   */\n      0x20\n        /* \"#utility.yul\":14824:14828   */\n      dup2\n        /* \"#utility.yul\":14820:14835   */\n      add\n        /* \"#utility.yul\":14812:14835   */\n      swap1\n      pop\n        /* \"#utility.yul\":14534:14842   */\n      swap2\n      swap1\n      pop\n      jump\t// out\n        /* \"#utility.yul\":14848:15003   */\n    tag_205:\n        /* \"#utility.yul\":14938:14942   */\n      0x00\n        /* \"#utility.yul\":14961:14964   */\n      dup2\n        /* \"#utility.yul\":14953:14964   */\n      swap1\n      pop\n        /* \"#utility.yul\":14991:14995   */\n      0x20\n        /* \"#utility.yul\":14986:14989   */\n      dup3\n        /* \"#utility.yul\":14982:14996   */\n      add\n        /* \"#utility.yul\":14974:14996   */\n      swap1\n      pop\n        /* \"#utility.yul\":14848:15003   */\n      swap2\n      swap1\n      pop\n      jump\t// out\n        /* \"#utility.yul\":15009:15146   */\n    tag_201:\n        /* \"#utility.yul\":15099:15105   */\n      0x00\n        /* \"#utility.yul\":15133:15138   */\n      dup2\n        /* \"#utility.yul\":15127:15139   */\n      mload\n        /* \"#utility.yul\":15117:15139   */\n      swap1\n      pop\n        /* \"#utility.yul\":15009:15146   */\n      swap2\n      swap1\n      pop\n      jump\t// out\n        /* \"#utility.yul\":15152:15251   */\n    tag_224:\n        /* \"#utility.yul\":15204:15210   */\n      0x00\n        /* \"#utility.yul\":15238:15243   */\n      dup2\n        /* \"#utility.yul\":15232:15244   */\n      mload\n        /* \"#utility.yul\":15222:15244   */\n      swap1\n      pop\n        /* \"#utility.yul\":15152:15251   */\n      swap2\n      swap1\n      pop\n      jump\t// out\n        /* \"#utility.yul\":15257:15393   */\n    tag_211:\n        /* \"#utility.yul\":15350:15354   */\n      0x00\n        /* \"#utility.yul\":15382:15386   */\n      0x20\n        /* \"#utility.yul\":15377:15380   */\n      dup3\n        /* \"#utility.yul\":15373:15387   */\n      add\n        /* \"#utility.yul\":15365:15387   */\n      swap1\n      pop\n        /* \"#utility.yul\":15257:15393   */\n      swap2\n      swap1\n      pop\n      jump\t// out\n        /* \"#utility.yul\":15399:15606   */\n    tag_203:\n        /* \"#utility.yul\":15521:15532   */\n      0x00\n        /* \"#utility.yul\":15555:15561   */\n      dup3\n        /* \"#utility.yul\":15550:15553   */\n      dup3\n        /* \"#utility.yul\":15543:15562   */\n      mstore\n        /* \"#utility.yul\":15595:15599   */\n      0x20\n        /* \"#utility.yul\":15590:15593   */\n      dup3\n        /* \"#utility.yul\":15586:15600   */\n      add\n        /* \"#utility.yul\":15571:15600   */\n      swap1\n      pop\n        /* \"#utility.yul\":15399:15606   */\n      swap3\n      swap2\n      pop\n      pop\n      jump\t// out\n        /* \"#utility.yul\":15612:15771   */\n    tag_226:\n        /* \"#utility.yul\":15686:15697   */\n      0x00\n        /* \"#utility.yul\":15720:15726   */\n      dup3\n        /* \"#utility.yul\":15715:15718   */\n      dup3\n        /* \"#utility.yul\":15708:15727   */\n      mstore\n        /* \"#utility.yul\":15760:15764   */\n      0x20\n        /* \"#utility.yul\":15755:15758   */\n      dup3\n        /* \"#utility.yul\":15751:15765   */\n      add\n        /* \"#utility.yul\":15736:15765   */\n      swap1\n      pop\n        /* \"#utility.yul\":15612:15771   */\n      swap3\n      swap2\n      pop\n      pop\n      jump\t// out\n        /* \"#utility.yul\":15777:15946   */\n    tag_235:\n        /* \"#utility.yul\":15861:15872   */\n      0x00\n        /* \"#utility.yul\":15895:15901   */\n      dup3\n        /* \"#utility.yul\":15890:15893   */\n      dup3\n        /* \"#utility.yul\":15883:15902   */\n      mstore\n        /* \"#utility.yul\":15935:15939   */\n      0x20\n        /* \"#utility.yul\":15930:15933   */\n      dup3\n        /* \"#utility.yul\":15926:15940   */\n      add\n        /* \"#utility.yul\":15911:15940   */\n      swap1\n      pop\n        /* \"#utility.yul\":15777:15946   */\n      swap3\n      swap2\n      pop\n      pop\n      jump\t// out\n        /* \"#utility.yul\":15952:16100   */\n    tag_219:\n        /* \"#utility.yul\":16054:16065   */\n      0x00\n        /* \"#utility.yul\":16091:16094   */\n      dup2\n        /* \"#utility.yul\":16076:16094   */\n      swap1\n      pop\n        /* \"#utility.yul\":15952:16100   */\n      swap3\n      swap2\n      pop\n      pop\n      jump\t// out\n        /* \"#utility.yul\":16106:16297   */\n    tag_86:\n        /* \"#utility.yul\":16146:16150   */\n      0x00\n        /* \"#utility.yul\":16166:16186   */\n      tag_320\n        /* \"#utility.yul\":16184:16185   */\n      dup3\n        /* \"#utility.yul\":16166:16186   */\n      tag_271\n      jump\t// in\n    tag_320:\n        /* \"#utility.yul\":16161:16186   */\n      swap2\n      pop\n        /* \"#utility.yul\":16200:16220   */\n      tag_321\n        /* \"#utility.yul\":16218:16219   */\n      dup4\n        /* \"#utility.yul\":16200:16220   */\n      tag_271\n      jump\t// in\n    tag_321:\n        /* \"#utility.yul\":16195:16220   */\n      swap3\n      pop\n        /* \"#utility.yul\":16239:16240   */\n      dup3\n        /* \"#utility.yul\":16236:16237   */\n      dup3\n        /* \"#utility.yul\":16233:16241   */\n      lt\n        /* \"#utility.yul\":16230:16264   */\n      iszero\n      tag_322\n      jumpi\n        /* \"#utility.yul\":16244:16262   */\n      tag_323\n      tag_324\n      jump\t// in\n    tag_323:\n        /* \"#utility.yul\":16230:16264   */\n    tag_322:\n        /* \"#utility.yul\":16289:16290   */\n      dup3\n        /* \"#utility.yul\":16286:16287   */\n      dup3\n        /* \"#utility.yul\":16282:16291   */\n      sub\n        /* \"#utility.yul\":16274:16291   */\n      swap1\n      pop\n        /* \"#utility.yul\":16106:16297   */\n      swap3\n      swap2\n      pop\n      pop\n      jump\t// out\n        /* \"#utility.yul\":16303:16399   */\n    tag_197:\n        /* \"#utility.yul\":16340:16347   */\n      0x00\n        /* \"#utility.yul\":16369:16393   */\n      tag_326\n        /* \"#utility.yul\":16387:16392   */\n      dup3\n        /* \"#utility.yul\":16369:16393   */\n      tag_327\n      jump\t// in\n    tag_326:\n        /* \"#utility.yul\":16358:16393   */\n      swap1\n      pop\n        /* \"#utility.yul\":16303:16399   */\n      swap2\n      swap1\n      pop\n      jump\t// out\n        /* \"#utility.yul\":16405:16495   */\n    tag_215:\n        /* \"#utility.yul\":16439:16446   */\n      0x00\n        /* \"#utility.yul\":16482:16487   */\n      dup2\n        /* \"#utility.yul\":16475:16488   */\n      iszero\n        /* \"#utility.yul\":16468:16489   */\n      iszero\n        /* \"#utility.yul\":16457:16489   */\n      swap1\n      pop\n        /* \"#utility.yul\":16405:16495   */\n      swap2\n      swap1\n      pop\n      jump\t// out\n        /* \"#utility.yul\":16501:16627   */\n    tag_327:\n        /* \"#utility.yul\":16538:16545   */\n      0x00\n        /* \"#utility.yul\":16578:16620   */\n      0xffffffffffffffffffffffffffffffffffffffff\n        /* \"#utility.yul\":16571:16576   */\n      dup3\n        /* \"#utility.yul\":16567:16621   */\n      and\n        /* \"#utility.yul\":16556:16621   */\n      swap1\n      pop\n        /* \"#utility.yul\":16501:16627   */\n      swap2\n      swap1\n      pop\n      jump\t// out\n        /* \"#utility.yul\":16633:16710   */\n    tag_271:\n        /* \"#utility.yul\":16670:16677   */\n      0x00\n        /* \"#utility.yul\":16699:16704   */\n      dup2\n        /* \"#utility.yul\":16688:16704   */\n      swap1\n      pop\n        /* \"#utility.yul\":16633:16710   */\n      swap2\n      swap1\n      pop\n      jump\t// out\n        /* \"#utility.yul\":16716:16870   */\n    tag_135:\n        /* \"#utility.yul\":16800:16806   */\n      dup3\n        /* \"#utility.yul\":16795:16798   */\n      dup2\n        /* \"#utility.yul\":16790:16793   */\n      dup4\n        /* \"#utility.yul\":16777:16807   */\n      calldatacopy\n        /* \"#utility.yul\":16862:16863   */\n      0x00\n        /* \"#utility.yul\":16853:16859   */\n      dup4\n        /* \"#utility.yul\":16848:16851   */\n      dup4\n        /* \"#utility.yul\":16844:16860   */\n      add\n        /* \"#utility.yul\":16837:16864   */\n      mstore\n        /* \"#utility.yul\":16716:16870   */\n      pop\n      pop\n      pop\n      jump\t// out\n        /* \"#utility.yul\":16876:17183   */\n    tag_228:\n        /* \"#utility.yul\":16944:16945   */\n      0x00\n        /* \"#utility.yul\":16954:17067   */\n    tag_333:\n        /* \"#utility.yul\":16968:16974   */\n      dup4\n        /* \"#utility.yul\":16965:16966   */\n      dup2\n        /* \"#utility.yul\":16962:16975   */\n      lt\n        /* \"#utility.yul\":16954:17067   */\n      iszero\n      tag_335\n      jumpi\n        /* \"#utility.yul\":17053:17054   */\n      dup1\n        /* \"#utility.yul\":17048:17051   */\n      dup3\n        /* \"#utility.yul\":17044:17055   */\n      add\n        /* \"#utility.yul\":17038:17056   */\n      mload\n        /* \"#utility.yul\":17034:17035   */\n      dup2\n        /* \"#utility.yul\":17029:17032   */\n      dup5\n        /* \"#utility.yul\":17025:17036   */\n      add\n        /* \"#utility.yul\":17018:17057   */\n      mstore\n        /* \"#utility.yul\":16990:16992   */\n      0x20\n        /* \"#utility.yul\":16987:16988   */\n      dup2\n        /* \"#utility.yul\":16983:16993   */\n      add\n        /* \"#utility.yul\":16978:16993   */\n      swap1\n      pop\n        /* \"#utility.yul\":16954:17067   */\n      jump(tag_333)\n    tag_335:\n        /* \"#utility.yul\":17085:17091   */\n      dup4\n        /* \"#utility.yul\":17082:17083   */\n      dup2\n        /* \"#utility.yul\":17079:17092   */\n      gt\n        /* \"#utility.yul\":17076:17177   */\n      iszero\n      tag_336\n      jumpi\n        /* \"#utility.yul\":17165:17166   */\n      0x00\n        /* \"#utility.yul\":17156:17162   */\n      dup5\n        /* \"#utility.yul\":17151:17154   */\n      dup5\n        /* \"#utility.yul\":17147:17163   */\n      add\n        /* \"#utility.yul\":17140:17167   */\n      mstore\n        /* \"#utility.yul\":17076:17177   */\n    tag_336:\n        /* \"#utility.yul\":16925:17183   */\n      pop\n        /* \"#utility.yul\":16876:17183   */\n      pop\n      pop\n      pop\n      jump\t// out\n        /* \"#utility.yul\":17189:17509   */\n    tag_90:\n        /* \"#utility.yul\":17233:17239   */\n      0x00\n        /* \"#utility.yul\":17270:17271   */\n      0x02\n        /* \"#utility.yul\":17264:17268   */\n      dup3\n        /* \"#utility.yul\":17260:17272   */\n      div\n        /* \"#utility.yul\":17250:17272   */\n      swap1\n      pop\n        /* \"#utility.yul\":17317:17318   */\n      0x01\n        /* \"#utility.yul\":17311:17315   */\n      dup3\n        /* \"#utility.yul\":17307:17319   */\n      and\n        /* \"#utility.yul\":17338:17356   */\n      dup1\n        /* \"#utility.yul\":17328:17409   */\n      tag_338\n      jumpi\n        /* \"#utility.yul\":17394:17398   */\n      0x7f\n        /* \"#utility.yul\":17386:17392   */\n      dup3\n        /* \"#utility.yul\":17382:17399   */\n      and\n        /* \"#utility.yul\":17372:17399   */\n      swap2\n      pop\n        /* \"#utility.yul\":17328:17409   */\n    tag_338:\n        /* \"#utility.yul\":17456:17458   */\n      0x20\n        /* \"#utility.yul\":17448:17454   */\n      dup3\n        /* \"#utility.yul\":17445:17459   */\n      lt\n        /* \"#utility.yul\":17425:17443   */\n      dup2\n        /* \"#utility.yul\":17422:17460   */\n      eq\n        /* \"#utility.yul\":17419:17503   */\n      iszero\n      tag_339\n      jumpi\n        /* \"#utility.yul\":17475:17493   */\n      tag_340\n      tag_341\n      jump\t// in\n    tag_340:\n        /* \"#utility.yul\":17419:17503   */\n    tag_339:\n        /* \"#utility.yul\":17240:17509   */\n      pop\n        /* \"#utility.yul\":17189:17509   */\n      swap2\n      swap1\n      pop\n      jump\t// out\n        /* \"#utility.yul\":17515:17796   */\n    tag_304:\n        /* \"#utility.yul\":17598:17625   */\n      tag_343\n        /* \"#utility.yul\":17620:17624   */\n      dup3\n        /* \"#utility.yul\":17598:17625   */\n      tag_230\n      jump\t// in\n    tag_343:\n        /* \"#utility.yul\":17590:17596   */\n      dup2\n        /* \"#utility.yul\":17586:17626   */\n      add\n        /* \"#utility.yul\":17728:17734   */\n      dup2\n        /* \"#utility.yul\":17716:17726   */\n      dup2\n        /* \"#utility.yul\":17713:17735   */\n      lt\n        /* \"#utility.yul\":17692:17710   */\n      0xffffffffffffffff\n        /* \"#utility.yul\":17680:17690   */\n      dup3\n        /* \"#utility.yul\":17677:17711   */\n      gt\n        /* \"#utility.yul\":17674:17736   */\n      or\n        /* \"#utility.yul\":17671:17759   */\n      iszero\n      tag_344\n      jumpi\n        /* \"#utility.yul\":17739:17757   */\n      tag_345\n      tag_309\n      jump\t// in\n    tag_345:\n        /* \"#utility.yul\":17671:17759   */\n    tag_344:\n        /* \"#utility.yul\":17779:17789   */\n      dup1\n        /* \"#utility.yul\":17775:17777   */\n      0x40\n        /* \"#utility.yul\":17768:17790   */\n      mstore\n        /* \"#utility.yul\":17558:17796   */\n      pop\n        /* \"#utility.yul\":17515:17796   */\n      pop\n      pop\n      jump\t// out\n        /* \"#utility.yul\":17802:17982   */\n    tag_324:\n        /* \"#utility.yul\":17850:17927   */\n      0x4e487b7100000000000000000000000000000000000000000000000000000000\n        /* \"#utility.yul\":17847:17848   */\n      0x00\n        /* \"#utility.yul\":17840:17928   */\n      mstore\n        /* \"#utility.yul\":17947:17951   */\n      0x11\n        /* \"#utility.yul\":17944:17945   */\n      0x04\n        /* \"#utility.yul\":17937:17952   */\n      mstore\n        /* \"#utility.yul\":17971:17975   */\n      0x24\n        /* \"#utility.yul\":17968:17969   */\n      0x00\n        /* \"#utility.yul\":17961:17976   */\n      revert\n        /* \"#utility.yul\":17988:18168   */\n    tag_341:\n        /* \"#utility.yul\":18036:18113   */\n      0x4e487b7100000000000000000000000000000000000000000000000000000000\n        /* \"#utility.yul\":18033:18034   */\n      0x00\n        /* \"#utility.yul\":18026:18114   */\n      mstore\n        /* \"#utility.yul\":18133:18137   */\n      0x22\n        /* \"#utility.yul\":18130:18131   */\n      0x04\n        /* \"#utility.yul\":18123:18138   */\n      mstore\n        /* \"#utility.yul\":18157:18161   */\n      0x24\n        /* \"#utility.yul\":18154:18155   */\n      0x00\n        /* \"#utility.yul\":18147:18162   */\n      revert\n        /* \"#utility.yul\":18174:18354   */\n    tag_80:\n        /* \"#utility.yul\":18222:18299   */\n      0x4e487b7100000000000000000000000000000000000000000000000000000000\n        /* \"#utility.yul\":18219:18220   */\n      0x00\n        /* \"#utility.yul\":18212:18300   */\n      mstore\n        /* \"#utility.yul\":18319:18323   */\n      0x32\n        /* \"#utility.yul\":18316:18317   */\n      0x04\n        /* \"#utility.yul\":18309:18324   */\n      mstore\n        /* \"#utility.yul\":18343:18347   */\n      0x24\n        /* \"#utility.yul\":18340:18341   */\n      0x00\n        /* \"#utility.yul\":18333:18348   */\n      revert\n        /* \"#utility.yul\":18360:18540   */\n    tag_309:\n        /* \"#utility.yul\":18408:18485   */\n      0x4e487b7100000000000000000000000000000000000000000000000000000000\n        /* \"#utility.yul\":18405:18406   */\n      0x00\n        /* \"#utility.yul\":18398:18486   */\n      mstore\n        /* \"#utility.yul\":18505:18509   */\n      0x41\n        /* \"#utility.yul\":18502:18503   */\n      0x04\n        /* \"#utility.yul\":18495:18510   */\n      mstore\n        /* \"#utility.yul\":18529:18533   */\n      0x24\n        /* \"#utility.yul\":18526:18527   */\n      0x00\n        /* \"#utility.yul\":18519:18534   */\n      revert\n        /* \"#utility.yul\":18546:18663   */\n    tag_147:\n        /* \"#utility.yul\":18655:18656   */\n      0x00\n        /* \"#utility.yul\":18652:18653   */\n      dup1\n        /* \"#utility.yul\":18645:18657   */\n      revert\n        /* \"#utility.yul\":18669:18786   */\n    tag_144:\n        /* \"#utility.yul\":18778:18779   */\n      0x00\n        /* \"#utility.yul\":18775:18776   */\n      dup1\n        /* \"#utility.yul\":18768:18780   */\n      revert\n        /* \"#utility.yul\":18792:18909   */\n    tag_150:\n        /* \"#utility.yul\":18901:18902   */\n      0x00\n        /* \"#utility.yul\":18898:18899   */\n      dup1\n        /* \"#utility.yul\":18891:18903   */\n      revert\n        /* \"#utility.yul\":18915:19032   */\n    tag_133:\n        /* \"#utility.yul\":19024:19025   */\n      0x00\n        /* \"#utility.yul\":19021:19022   */\n      dup1\n        /* \"#utility.yul\":19014:19026   */\n      revert\n        /* \"#utility.yul\":19038:19155   */\n    tag_166:\n        /* \"#utility.yul\":19147:19148   */\n      0x00\n        /* \"#utility.yul\":19144:19145   */\n      dup1\n        /* \"#utility.yul\":19137:19149   */\n      revert\n        /* \"#utility.yul\":19161:19278   */\n    tag_163:\n        /* \"#utility.yul\":19270:19271   */\n      0x00\n        /* \"#utility.yul\":19267:19268   */\n      dup1\n        /* \"#utility.yul\":19260:19272   */\n      revert\n        /* \"#utility.yul\":19284:19386   */\n    tag_230:\n        /* \"#utility.yul\":19325:19331   */\n      0x00\n        /* \"#utility.yul\":19376:19378   */\n      0x1f\n        /* \"#utility.yul\":19372:19379   */\n      not\n        /* \"#utility.yul\":19367:19369   */\n      0x1f\n        /* \"#utility.yul\":19360:19365   */\n      dup4\n        /* \"#utility.yul\":19356:19370   */\n      add\n        /* \"#utility.yul\":19352:19380   */\n      and\n        /* \"#utility.yul\":19342:19380   */\n      swap1\n      pop\n        /* \"#utility.yul\":19284:19386   */\n      swap2\n      swap1\n      pop\n      jump\t// out\n        /* \"#utility.yul\":19392:19564   */\n    tag_242:\n        /* \"#utility.yul\":19532:19556   */\n      0x596f7520617265206e6f7420746865206f776e65722100000000000000000000\n        /* \"#utility.yul\":19528:19529   */\n      0x00\n        /* \"#utility.yul\":19520:19526   */\n      dup3\n        /* \"#utility.yul\":19516:19530   */\n      add\n        /* \"#utility.yul\":19509:19557   */\n      mstore\n        /* \"#utility.yul\":19392:19564   */\n      pop\n      jump\t// out\n        /* \"#utility.yul\":19570:19802   */\n    tag_247:\n        /* \"#utility.yul\":19710:19744   */\n      0x5468652070726f64756374207175616e74697479206973206c65737320746861\n        /* \"#utility.yul\":19706:19707   */\n      0x00\n        /* \"#utility.yul\":19698:19704   */\n      dup3\n        /* \"#utility.yul\":19694:19708   */\n      add\n        /* \"#utility.yul\":19687:19745   */\n      mstore\n        /* \"#utility.yul\":19779:19794   */\n      0x6e20796f752077616e7465642100000000000000000000000000000000000000\n        /* \"#utility.yul\":19774:19776   */\n      0x20\n        /* \"#utility.yul\":19766:19772   */\n      dup3\n        /* \"#utility.yul\":19762:19777   */\n      add\n        /* \"#utility.yul\":19755:19795   */\n      mstore\n        /* \"#utility.yul\":19570:19802   */\n      pop\n      jump\t// out\n        /* \"#utility.yul\":19808:20032   */\n    tag_252:\n        /* \"#utility.yul\":19948:19982   */\n      0x596f75206861766520616c726561647920626f7567687420746869732070726f\n        /* \"#utility.yul\":19944:19945   */\n      0x00\n        /* \"#utility.yul\":19936:19942   */\n      dup3\n        /* \"#utility.yul\":19932:19946   */\n      add\n        /* \"#utility.yul\":19925:19983   */\n      mstore\n        /* \"#utility.yul\":20017:20024   */\n      0x6475637421000000000000000000000000000000000000000000000000000000\n        /* \"#utility.yul\":20012:20014   */\n      0x20\n        /* \"#utility.yul\":20004:20010   */\n      dup3\n        /* \"#utility.yul\":20000:20015   */\n      add\n        /* \"#utility.yul\":19993:20025   */\n      mstore\n        /* \"#utility.yul\":19808:20032   */\n      pop\n      jump\t// out\n        /* \"#utility.yul\":20038:20216   */\n    tag_257:\n        /* \"#utility.yul\":20178:20208   */\n      0x5468652070726f64756374206973206e6f74206578697374696e672100000000\n        /* \"#utility.yul\":20174:20175   */\n      0x00\n        /* \"#utility.yul\":20166:20172   */\n      dup3\n        /* \"#utility.yul\":20162:20176   */\n      add\n        /* \"#utility.yul\":20155:20209   */\n      mstore\n        /* \"#utility.yul\":20038:20216   */\n      pop\n      jump\t// out\n        /* \"#utility.yul\":20222:20445   */\n    tag_262:\n        /* \"#utility.yul\":20362:20396   */\n      0x5468652070726f6475637420697320616c726561647920696e20746865207374\n        /* \"#utility.yul\":20358:20359   */\n      0x00\n        /* \"#utility.yul\":20350:20356   */\n      dup3\n        /* \"#utility.yul\":20346:20360   */\n      add\n        /* \"#utility.yul\":20339:20397   */\n      mstore\n        /* \"#utility.yul\":20431:20437   */\n      0x6f72652100000000000000000000000000000000000000000000000000000000\n        /* \"#utility.yul\":20426:20428   */\n      0x20\n        /* \"#utility.yul\":20418:20424   */\n      dup3\n        /* \"#utility.yul\":20414:20429   */\n      add\n        /* \"#utility.yul\":20407:20438   */\n      mstore\n        /* \"#utility.yul\":20222:20445   */\n      pop\n      jump\t// out\n        /* \"#utility.yul\":20451:20573   */\n    tag_139:\n        /* \"#utility.yul\":20524:20548   */\n      tag_363\n        /* \"#utility.yul\":20542:20547   */\n      dup2\n        /* \"#utility.yul\":20524:20548   */\n      tag_197\n      jump\t// in\n    tag_363:\n        /* \"#utility.yul\":20517:20522   */\n      dup2\n        /* \"#utility.yul\":20514:20549   */\n      eq\n        /* \"#utility.yul\":20504:20567   */\n      tag_364\n      jumpi\n        /* \"#utility.yul\":20563:20564   */\n      0x00\n        /* \"#utility.yul\":20560:20561   */\n      dup1\n        /* \"#utility.yul\":20553:20565   */\n      revert\n        /* \"#utility.yul\":20504:20567   */\n    tag_364:\n        /* \"#utility.yul\":20451:20573   */\n      pop\n      jump\t// out\n        /* \"#utility.yul\":20579:20701   */\n    tag_159:\n        /* \"#utility.yul\":20652:20676   */\n      tag_366\n        /* \"#utility.yul\":20670:20675   */\n      dup2\n        /* \"#utility.yul\":20652:20676   */\n      tag_271\n      jump\t// in\n    tag_366:\n        /* \"#utility.yul\":20645:20650   */\n      dup2\n        /* \"#utility.yul\":20642:20677   */\n      eq\n        /* \"#utility.yul\":20632:20695   */\n      tag_367\n      jumpi\n        /* \"#utility.yul\":20691:20692   */\n      0x00\n        /* \"#utility.yul\":20688:20689   */\n      dup1\n        /* \"#utility.yul\":20681:20693   */\n      revert\n        /* \"#utility.yul\":20632:20695   */\n    tag_367:\n        /* \"#utility.yul\":20579:20701   */\n      pop\n      jump\t// out\n\n    auxdata: 0xa2646970667358221220cf81f282e1a76087d9f5af21b437a4450268e7ebcaa1644e24d83f6f45ab294364736f6c63430008070033\n}\n",
				"bytecode": {
					"linkReferences": {},
					"object": "608060405234801561001057600080fd5b50336000806101000a81548173ffffffffffffffffffffffffffffffffffffffff021916908373ffffffffffffffffffffffffffffffffffffffff16021790555061147c806100606000396000f3fe608060405234801561001057600080fd5b50600436106100935760003560e01c80637acc0b20116100665780637acc0b201461011c5780638da5cb5b1461014f578063c29b2f201461016d578063ccc4174a1461018b578063fcc93b0b146101bb57610093565b80630a5bd44b14610098578063131e407d146100b45780634c437514146100d057806353b6286614610100575b600080fd5b6100b260048036038101906100ad9190610ab6565b6101d7565b005b6100ce60048036038101906100c99190610b73565b610407565b005b6100ea60048036038101906100e59190610b2a565b61040a565b6040516100f79190610ee4565b60405180910390f35b61011a60048036038101906101159190610be0565b610440565b005b61013660048036038101906101319190610b73565b6105fe565b6040516101469493929190610fba565b60405180910390f35b6101576106c6565b6040516101649190610ea7565b60405180910390f35b6101756106ea565b6040516101829190610ec2565b60405180910390f35b6101a560048036038101906101a09190610ba0565b6107f9565b6040516101b29190610f9f565b60405180910390f35b6101d560048036038101906101d09190610be0565b61081e565b005b60008054906101000a900473ffffffffffffffffffffffffffffffffffffffff1673ffffffffffffffffffffffffffffffffffffffff163373ffffffffffffffffffffffffffffffffffffffff1614610265576040517f08c379a000000000000000000000000000000000000000000000000000000000815260040161025c90610eff565b60405180910390fd5b600084849050141580156102795750600081115b61028257600080fd5b60028484604051610294929190610e8e565b908152602001604051809103902060009054906101000a900460ff16156102f0576040517f08c379a00000000000000000000000000000000000000000000000000000000081526004016102e790610f7f565b60405180910390fd5b6000600180549050905060016002868660405161030e929190610e8e565b908152602001604051809103902060006101000a81548160ff0219169083151502179055506001604051806080016040528083815260200187878080601f016020809104026020016040519081016040528093929190818152602001838380828437600081840152601f19601f8201169050808301925050505050505081526020018581526020018481525090806001815401808255809150506001900390600052602060002090600402016000909190919091506000820151816000015560208201518160010190805190602001906103e9929190610923565b50604082015181600201556060820151816003015550505050505050565b50565b6002818051602081018201805184825260208301602085012081835280955050505050506000915054906101000a900460ff1681565b816001805490508110610488576040517f08c379a000000000000000000000000000000000000000000000000000000000815260040161047f90610f5f565b60405180910390fd5b60006003600085815260200190815260200160002060003373ffffffffffffffffffffffffffffffffffffffff1673ffffffffffffffffffffffffffffffffffffffff168152602001908152602001600020541461051b576040517f08c379a000000000000000000000000000000000000000000000000000000000815260040161051290610f3f565b60405180910390fd5b6000600184815481106105315761053061124c565b5b906000526020600020906004020190508281600201541015610588576040517f08c379a000000000000000000000000000000000000000000000000000000000815260040161057f90610f1f565b60405180910390fd5b826003600086815260200190815260200160002060003373ffffffffffffffffffffffffffffffffffffffff1673ffffffffffffffffffffffffffffffffffffffff16815260200190815260200160002081905550828160020160008282546105f191906110cd565b9250508190555050505050565b6001818154811061060e57600080fd5b90600052602060002090600402016000915090508060000154908060010180546106379061118b565b80601f01602080910402602001604051908101604052809291908181526020018280546106639061118b565b80156106b05780601f10610685576101008083540402835291602001916106b0565b820191906000526020600020905b81548152906001019060200180831161069357829003601f168201915b5050505050908060020154908060030154905084565b60008054906101000a900473ffffffffffffffffffffffffffffffffffffffff1681565b60606001805480602002602001604051908101604052809291908181526020016000905b828210156107f057838290600052602060002090600402016040518060800160405290816000820154815260200160018201805461074b9061118b565b80601f01602080910402602001604051908101604052809291908181526020018280546107779061118b565b80156107c45780601f10610799576101008083540402835291602001916107c4565b820191906000526020600020905b8154815290600101906020018083116107a757829003601f168201915b50505050508152602001600282015481526020016003820154815250508152602001906001019061070e565b50505050905090565b6003602052816000526040600020602052806000526040600020600091509150505481565b60008054906101000a900473ffffffffffffffffffffffffffffffffffffffff1673ffffffffffffffffffffffffffffffffffffffff163373ffffffffffffffffffffffffffffffffffffffff16146108ac576040517f08c379a00000000000000000000000000000000000000000000000000000000081526004016108a390610eff565b60405180910390fd5b8160018054905081106108f4576040517f08c379a00000000000000000000000000000000000000000000000000000000081526004016108eb90610f5f565b60405180910390fd5b81600184815481106109095761090861124c565b5b906000526020600020906004020160020181905550505050565b82805461092f9061118b565b90600052602060002090601f0160209004810192826109515760008555610998565b82601f1061096a57805160ff1916838001178555610998565b82800160010185558215610998579182015b8281111561099757825182559160200191906001019061097c565b5b5090506109a591906109a9565b5090565b5b808211156109c25760008160009055506001016109aa565b5090565b60006109d96109d48461102b565b611006565b9050828152602081018484840111156109f5576109f46112b9565b5b610a00848285611149565b509392505050565b600081359050610a1781611418565b92915050565b60008083601f840112610a3357610a326112af565b5b8235905067ffffffffffffffff811115610a5057610a4f6112aa565b5b602083019150836001820283011115610a6c57610a6b6112b4565b5b9250929050565b600082601f830112610a8857610a876112af565b5b8135610a988482602086016109c6565b91505092915050565b600081359050610ab08161142f565b92915050565b60008060008060608587031215610ad057610acf6112c3565b5b600085013567ffffffffffffffff811115610aee57610aed6112be565b5b610afa87828801610a1d565b94509450506020610b0d87828801610aa1565b9250506040610b1e87828801610aa1565b91505092959194509250565b600060208284031215610b4057610b3f6112c3565b5b600082013567ffffffffffffffff811115610b5e57610b5d6112be565b5b610b6a84828501610a73565b91505092915050565b600060208284031215610b8957610b886112c3565b5b6000610b9784828501610aa1565b91505092915050565b60008060408385031215610bb757610bb66112c3565b5b6000610bc585828601610aa1565b9250506020610bd685828601610a08565b9150509250929050565b60008060408385031215610bf757610bf66112c3565b5b6000610c0585828601610aa1565b9250506020610c1685828601610aa1565b9150509250929050565b6000610c2c8383610e0d565b905092915050565b610c3d81611101565b82525050565b6000610c4e8261106c565b610c58818561108f565b935083602082028501610c6a8561105c565b8060005b85811015610ca65784840389528151610c878582610c20565b9450610c9283611082565b925060208a01995050600181019050610c6e565b50829750879550505050505092915050565b610cc181611113565b82525050565b6000610cd383856110c2565b9350610ce0838584611149565b82840190509392505050565b6000610cf782611077565b610d0181856110a0565b9350610d11818560208601611158565b610d1a816112c8565b840191505092915050565b6000610d3082611077565b610d3a81856110b1565b9350610d4a818560208601611158565b610d53816112c8565b840191505092915050565b6000610d6b6016836110b1565b9150610d76826112d9565b602082019050919050565b6000610d8e602d836110b1565b9150610d9982611302565b604082019050919050565b6000610db16025836110b1565b9150610dbc82611351565b604082019050919050565b6000610dd4601c836110b1565b9150610ddf826113a0565b602082019050919050565b6000610df76024836110b1565b9150610e02826113c9565b604082019050919050565b6000608083016000830151610e256000860182610e70565b5060208301518482036020860152610e3d8282610cec565b9150506040830151610e526040860182610e70565b506060830151610e656060860182610e70565b508091505092915050565b610e798161113f565b82525050565b610e888161113f565b82525050565b6000610e9b828486610cc7565b91508190509392505050565b6000602082019050610ebc6000830184610c34565b92915050565b60006020820190508181036000830152610edc8184610c43565b905092915050565b6000602082019050610ef96000830184610cb8565b92915050565b60006020820190508181036000830152610f1881610d5e565b9050919050565b60006020820190508181036000830152610f3881610d81565b9050919050565b60006020820190508181036000830152610f5881610da4565b9050919050565b60006020820190508181036000830152610f7881610dc7565b9050919050565b60006020820190508181036000830152610f9881610dea565b9050919050565b6000602082019050610fb46000830184610e7f565b92915050565b6000608082019050610fcf6000830187610e7f565b8181036020830152610fe18186610d25565b9050610ff06040830185610e7f565b610ffd6060830184610e7f565b95945050505050565b6000611010611021565b905061101c82826111bd565b919050565b6000604051905090565b600067ffffffffffffffff8211156110465761104561127b565b5b61104f826112c8565b9050602081019050919050565b6000819050602082019050919050565b600081519050919050565b600081519050919050565b6000602082019050919050565b600082825260208201905092915050565b600082825260208201905092915050565b600082825260208201905092915050565b600081905092915050565b60006110d88261113f565b91506110e38361113f565b9250828210156110f6576110f56111ee565b5b828203905092915050565b600061110c8261111f565b9050919050565b60008115159050919050565b600073ffffffffffffffffffffffffffffffffffffffff82169050919050565b6000819050919050565b82818337600083830152505050565b60005b8381101561117657808201518184015260208101905061115b565b83811115611185576000848401525b50505050565b600060028204905060018216806111a357607f821691505b602082108114156111b7576111b661121d565b5b50919050565b6111c6826112c8565b810181811067ffffffffffffffff821117156111e5576111e461127b565b5b80604052505050565b7f4e487b7100000000000000000000000000000000000000000000000000000000600052601160045260246000fd5b7f4e487b7100000000000000000000000000000000000000000000000000000000600052602260045260246000fd5b7f4e487b7100000000000000000000000000000000000000000000000000000000600052603260045260246000fd5b7f4e487b7100000000000000000000000000000000000000000000000000000000600052604160045260246000fd5b600080fd5b600080fd5b600080fd5b600080fd5b600080fd5b600080fd5b6000601f19601f8301169050919050565b7f596f7520617265206e6f7420746865206f776e65722100000000000000000000600082015250565b7f5468652070726f64756374207175616e74697479206973206c6573732074686160008201527f6e20796f752077616e7465642100000000000000000000000000000000000000602082015250565b7f596f75206861766520616c726561647920626f7567687420746869732070726f60008201527f6475637421000000000000000000000000000000000000000000000000000000602082015250565b7f5468652070726f64756374206973206e6f74206578697374696e672100000000600082015250565b7f5468652070726f6475637420697320616c726561647920696e2074686520737460008201527f6f72652100000000000000000000000000000000000000000000000000000000602082015250565b61142181611101565b811461142c57600080fd5b50565b6114388161113f565b811461144357600080fd5b5056fea2646970667358221220cf81f282e1a76087d9f5af21b437a4450268e7ebcaa1644e24d83f6f45ab294364736f6c63430008070033",
					"opcodes": "PUSH1 0x80 PUSH1 0x40 MSTORE CALLVALUE DUP1 ISZERO PUSH2 0x10 JUMPI PUSH1 0x0 DUP1 REVERT JUMPDEST POP CALLER PUSH1 0x0 DUP1 PUSH2 0x100 EXP DUP2 SLOAD DUP2 PUSH20 0xFFFFFFFFFFFFFFFFFFFFFFFFFFFFFFFFFFFFFFFF MUL NOT AND SWAP1 DUP4 PUSH20 0xFFFFFFFFFFFFFFFFFFFFFFFFFFFFFFFFFFFFFFFF AND MUL OR SWAP1 SSTORE POP PUSH2 0x147C DUP1 PUSH2 0x60 PUSH1 0x0 CODECOPY PUSH1 0x0 RETURN INVALID PUSH1 0x80 PUSH1 0x40 MSTORE CALLVALUE DUP1 ISZERO PUSH2 0x10 JUMPI PUSH1 0x0 DUP1 REVERT JUMPDEST POP PUSH1 0x4 CALLDATASIZE LT PUSH2 0x93 JUMPI PUSH1 0x0 CALLDATALOAD PUSH1 0xE0 SHR DUP1 PUSH4 0x7ACC0B20 GT PUSH2 0x66 JUMPI DUP1 PUSH4 0x7ACC0B20 EQ PUSH2 0x11C JUMPI DUP1 PUSH4 0x8DA5CB5B EQ PUSH2 0x14F JUMPI DUP1 PUSH4 0xC29B2F20 EQ PUSH2 0x16D JUMPI DUP1 PUSH4 0xCCC4174A EQ PUSH2 0x18B JUMPI DUP1 PUSH4 0xFCC93B0B EQ PUSH2 0x1BB JUMPI PUSH2 0x93 JUMP JUMPDEST DUP1 PUSH4 0xA5BD44B EQ PUSH2 0x98 JUMPI DUP1 PUSH4 0x131E407D EQ PUSH2 0xB4 JUMPI DUP1 PUSH4 0x4C437514 EQ PUSH2 0xD0 JUMPI DUP1 PUSH4 0x53B62866 EQ PUSH2 0x100 JUMPI JUMPDEST PUSH1 0x0 DUP1 REVERT JUMPDEST PUSH2 0xB2 PUSH1 0x4 DUP1 CALLDATASIZE SUB DUP2 ADD SWAP1 PUSH2 0xAD SWAP2 SWAP1 PUSH2 0xAB6 JUMP JUMPDEST PUSH2 0x1D7 JUMP JUMPDEST STOP JUMPDEST PUSH2 0xCE PUSH1 0x4 DUP1 CALLDATASIZE SUB DUP2 ADD SWAP1 PUSH2 0xC9 SWAP2 SWAP1 PUSH2 0xB73 JUMP JUMPDEST PUSH2 0x407 JUMP JUMPDEST STOP JUMPDEST PUSH2 0xEA PUSH1 0x4 DUP1 CALLDATASIZE SUB DUP2 ADD SWAP1 PUSH2 0xE5 SWAP2 SWAP1 PUSH2 0xB2A JUMP JUMPDEST PUSH2 0x40A JUMP JUMPDEST PUSH1 0x40 MLOAD PUSH2 0xF7 SWAP2 SWAP1 PUSH2 0xEE4 JUMP JUMPDEST PUSH1 0x40 MLOAD DUP1 SWAP2 SUB SWAP1 RETURN JUMPDEST PUSH2 0x11A PUSH1 0x4 DUP1 CALLDATASIZE SUB DUP2 ADD SWAP1 PUSH2 0x115 SWAP2 SWAP1 PUSH2 0xBE0 JUMP JUMPDEST PUSH2 0x440 JUMP JUMPDEST STOP JUMPDEST PUSH2 0x136 PUSH1 0x4 DUP1 CALLDATASIZE SUB DUP2 ADD SWAP1 PUSH2 0x131 SWAP2 SWAP1 PUSH2 0xB73 JUMP JUMPDEST PUSH2 0x5FE JUMP JUMPDEST PUSH1 0x40 MLOAD PUSH2 0x146 SWAP5 SWAP4 SWAP3 SWAP2 SWAP1 PUSH2 0xFBA JUMP JUMPDEST PUSH1 0x40 MLOAD DUP1 SWAP2 SUB SWAP1 RETURN JUMPDEST PUSH2 0x157 PUSH2 0x6C6 JUMP JUMPDEST PUSH1 0x40 MLOAD PUSH2 0x164 SWAP2 SWAP1 PUSH2 0xEA7 JUMP JUMPDEST PUSH1 0x40 MLOAD DUP1 SWAP2 SUB SWAP1 RETURN JUMPDEST PUSH2 0x175 PUSH2 0x6EA JUMP JUMPDEST PUSH1 0x40 MLOAD PUSH2 0x182 SWAP2 SWAP1 PUSH2 0xEC2 JUMP JUMPDEST PUSH1 0x40 MLOAD DUP1 SWAP2 SUB SWAP1 RETURN JUMPDEST PUSH2 0x1A5 PUSH1 0x4 DUP1 CALLDATASIZE SUB DUP2 ADD SWAP1 PUSH2 0x1A0 SWAP2 SWAP1 PUSH2 0xBA0 JUMP JUMPDEST PUSH2 0x7F9 JUMP JUMPDEST PUSH1 0x40 MLOAD PUSH2 0x1B2 SWAP2 SWAP1 PUSH2 0xF9F JUMP JUMPDEST PUSH1 0x40 MLOAD DUP1 SWAP2 SUB SWAP1 RETURN JUMPDEST PUSH2 0x1D5 PUSH1 0x4 DUP1 CALLDATASIZE SUB DUP2 ADD SWAP1 PUSH2 0x1D0 SWAP2 SWAP1 PUSH2 0xBE0 JUMP JUMPDEST PUSH2 0x81E JUMP JUMPDEST STOP JUMPDEST PUSH1 0x0 DUP1 SLOAD SWAP1 PUSH2 0x100 EXP SWAP1 DIV PUSH20 0xFFFFFFFFFFFFFFFFFFFFFFFFFFFFFFFFFFFFFFFF AND PUSH20 0xFFFFFFFFFFFFFFFFFFFFFFFFFFFFFFFFFFFFFFFF AND CALLER PUSH20 0xFFFFFFFFFFFFFFFFFFFFFFFFFFFFFFFFFFFFFFFF AND EQ PUSH2 0x265 JUMPI PUSH1 0x40 MLOAD PUSH32 0x8C379A000000000000000000000000000000000000000000000000000000000 DUP2 MSTORE PUSH1 0x4 ADD PUSH2 0x25C SWAP1 PUSH2 0xEFF JUMP JUMPDEST PUSH1 0x40 MLOAD DUP1 SWAP2 SUB SWAP1 REVERT JUMPDEST PUSH1 0x0 DUP5 DUP5 SWAP1 POP EQ ISZERO DUP1 ISZERO PUSH2 0x279 JUMPI POP PUSH1 0x0 DUP2 GT JUMPDEST PUSH2 0x282 JUMPI PUSH1 0x0 DUP1 REVERT JUMPDEST PUSH1 0x2 DUP5 DUP5 PUSH1 0x40 MLOAD PUSH2 0x294 SWAP3 SWAP2 SWAP1 PUSH2 0xE8E JUMP JUMPDEST SWAP1 DUP2 MSTORE PUSH1 0x20 ADD PUSH1 0x40 MLOAD DUP1 SWAP2 SUB SWAP1 KECCAK256 PUSH1 0x0 SWAP1 SLOAD SWAP1 PUSH2 0x100 EXP SWAP1 DIV PUSH1 0xFF AND ISZERO PUSH2 0x2F0 JUMPI PUSH1 0x40 MLOAD PUSH32 0x8C379A000000000000000000000000000000000000000000000000000000000 DUP2 MSTORE PUSH1 0x4 ADD PUSH2 0x2E7 SWAP1 PUSH2 0xF7F JUMP JUMPDEST PUSH1 0x40 MLOAD DUP1 SWAP2 SUB SWAP1 REVERT JUMPDEST PUSH1 0x0 PUSH1 0x1 DUP1 SLOAD SWAP1 POP SWAP1 POP PUSH1 0x1 PUSH1 0x2 DUP7 DUP7 PUSH1 0x40 MLOAD PUSH2 0x30E SWAP3 SWAP2 SWAP1 PUSH2 0xE8E JUMP JUMPDEST SWAP1 DUP2 MSTORE PUSH1 0x20 ADD PUSH1 0x40 MLOAD DUP1 SWAP2 SUB SWAP1 KECCAK256 PUSH1 0x0 PUSH2 0x100 EXP DUP2 SLOAD DUP2 PUSH1 0xFF MUL NOT AND SWAP1 DUP4 ISZERO ISZERO MUL OR SWAP1 SSTORE POP PUSH1 0x1 PUSH1 0x40 MLOAD DUP1 PUSH1 0x80 ADD PUSH1 0x40 MSTORE DUP1 DUP4 DUP2 MSTORE PUSH1 0x20 ADD DUP8 DUP8 DUP1 DUP1 PUSH1 0x1F ADD PUSH1 0x20 DUP1 SWAP2 DIV MUL PUSH1 0x20 ADD PUSH1 0x40 MLOAD SWAP1 DUP2 ADD PUSH1 0x40 MSTORE DUP1 SWAP4 SWAP3 SWAP2 SWAP1 DUP2 DUP2 MSTORE PUSH1 0x20 ADD DUP4 DUP4 DUP1 DUP3 DUP5 CALLDATACOPY PUSH1 0x0 DUP2 DUP5 ADD MSTORE PUSH1 0x1F NOT PUSH1 0x1F DUP3 ADD AND SWAP1 POP DUP1 DUP4 ADD SWAP3 POP POP POP POP POP POP POP DUP2 MSTORE PUSH1 0x20 ADD DUP6 DUP2 MSTORE PUSH1 0x20 ADD DUP5 DUP2 MSTORE POP SWAP1 DUP1 PUSH1 0x1 DUP2 SLOAD ADD DUP1 DUP3 SSTORE DUP1 SWAP2 POP POP PUSH1 0x1 SWAP1 SUB SWAP1 PUSH1 0x0 MSTORE PUSH1 0x20 PUSH1 0x0 KECCAK256 SWAP1 PUSH1 0x4 MUL ADD PUSH1 0x0 SWAP1 SWAP2 SWAP1 SWAP2 SWAP1 SWAP2 POP PUSH1 0x0 DUP3 ADD MLOAD DUP2 PUSH1 0x0 ADD SSTORE PUSH1 0x20 DUP3 ADD MLOAD DUP2 PUSH1 0x1 ADD SWAP1 DUP1 MLOAD SWAP1 PUSH1 0x20 ADD SWAP1 PUSH2 0x3E9 SWAP3 SWAP2 SWAP1 PUSH2 0x923 JUMP JUMPDEST POP PUSH1 0x40 DUP3 ADD MLOAD DUP2 PUSH1 0x2 ADD SSTORE PUSH1 0x60 DUP3 ADD MLOAD DUP2 PUSH1 0x3 ADD SSTORE POP POP POP POP POP POP POP JUMP JUMPDEST POP JUMP JUMPDEST PUSH1 0x2 DUP2 DUP1 MLOAD PUSH1 0x20 DUP2 ADD DUP3 ADD DUP1 MLOAD DUP5 DUP3 MSTORE PUSH1 0x20 DUP4 ADD PUSH1 0x20 DUP6 ADD KECCAK256 DUP2 DUP4 MSTORE DUP1 SWAP6 POP POP POP POP POP POP PUSH1 0x0 SWAP2 POP SLOAD SWAP1 PUSH2 0x100 EXP SWAP1 DIV PUSH1 0xFF AND DUP2 JUMP JUMPDEST DUP2 PUSH1 0x1 DUP1 SLOAD SWAP1 POP DUP2 LT PUSH2 0x488 JUMPI PUSH1 0x40 MLOAD PUSH32 0x8C379A000000000000000000000000000000000000000000000000000000000 DUP2 MSTORE PUSH1 0x4 ADD PUSH2 0x47F SWAP1 PUSH2 0xF5F JUMP JUMPDEST PUSH1 0x40 MLOAD DUP1 SWAP2 SUB SWAP1 REVERT JUMPDEST PUSH1 0x0 PUSH1 0x3 PUSH1 0x0 DUP6 DUP2 MSTORE PUSH1 0x20 ADD SWAP1 DUP2 MSTORE PUSH1 0x20 ADD PUSH1 0x0 KECCAK256 PUSH1 0x0 CALLER PUSH20 0xFFFFFFFFFFFFFFFFFFFFFFFFFFFFFFFFFFFFFFFF AND PUSH20 0xFFFFFFFFFFFFFFFFFFFFFFFFFFFFFFFFFFFFFFFF AND DUP2 MSTORE PUSH1 0x20 ADD SWAP1 DUP2 MSTORE PUSH1 0x20 ADD PUSH1 0x0 KECCAK256 SLOAD EQ PUSH2 0x51B JUMPI PUSH1 0x40 MLOAD PUSH32 0x8C379A000000000000000000000000000000000000000000000000000000000 DUP2 MSTORE PUSH1 0x4 ADD PUSH2 0x512 SWAP1 PUSH2 0xF3F JUMP JUMPDEST PUSH1 0x40 MLOAD DUP1 SWAP2 SUB SWAP1 REVERT JUMPDEST PUSH1 0x0 PUSH1 0x1 DUP5 DUP2 SLOAD DUP2 LT PUSH2 0x531 JUMPI PUSH2 0x530 PUSH2 0x124C JUMP JUMPDEST JUMPDEST SWAP1 PUSH1 0x0 MSTORE PUSH1 0x20 PUSH1 0x0 KECCAK256 SWAP1 PUSH1 0x4 MUL ADD SWAP1 POP DUP3 DUP2 PUSH1 0x2 ADD SLOAD LT ISZERO PUSH2 0x588 JUMPI PUSH1 0x40 MLOAD PUSH32 0x8C379A000000000000000000000000000000000000000000000000000000000 DUP2 MSTORE PUSH1 0x4 ADD PUSH2 0x57F SWAP1 PUSH2 0xF1F JUMP JUMPDEST PUSH1 0x40 MLOAD DUP1 SWAP2 SUB SWAP1 REVERT JUMPDEST DUP3 PUSH1 0x3 PUSH1 0x0 DUP7 DUP2 MSTORE PUSH1 0x20 ADD SWAP1 DUP2 MSTORE PUSH1 0x20 ADD PUSH1 0x0 KECCAK256 PUSH1 0x0 CALLER PUSH20 0xFFFFFFFFFFFFFFFFFFFFFFFFFFFFFFFFFFFFFFFF AND PUSH20 0xFFFFFFFFFFFFFFFFFFFFFFFFFFFFFFFFFFFFFFFF AND DUP2 MSTORE PUSH1 0x20 ADD SWAP1 DUP2 MSTORE PUSH1 0x20 ADD PUSH1 0x0 KECCAK256 DUP2 SWAP1 SSTORE POP DUP3 DUP2 PUSH1 0x2 ADD PUSH1 0x0 DUP3 DUP3 SLOAD PUSH2 0x5F1 SWAP2 SWAP1 PUSH2 0x10CD JUMP JUMPDEST SWAP3 POP POP DUP2 SWAP1 SSTORE POP POP POP POP POP JUMP JUMPDEST PUSH1 0x1 DUP2 DUP2 SLOAD DUP2 LT PUSH2 0x60E JUMPI PUSH1 0x0 DUP1 REVERT JUMPDEST SWAP1 PUSH1 0x0 MSTORE PUSH1 0x20 PUSH1 0x0 KECCAK256 SWAP1 PUSH1 0x4 MUL ADD PUSH1 0x0 SWAP2 POP SWAP1 POP DUP1 PUSH1 0x0 ADD SLOAD SWAP1 DUP1 PUSH1 0x1 ADD DUP1 SLOAD PUSH2 0x637 SWAP1 PUSH2 0x118B JUMP JUMPDEST DUP1 PUSH1 0x1F ADD PUSH1 0x20 DUP1 SWAP2 DIV MUL PUSH1 0x20 ADD PUSH1 0x40 MLOAD SWAP1 DUP2 ADD PUSH1 0x40 MSTORE DUP1 SWAP3 SWAP2 SWAP1 DUP2 DUP2 MSTORE PUSH1 0x20 ADD DUP3 DUP1 SLOAD PUSH2 0x663 SWAP1 PUSH2 0x118B JUMP JUMPDEST DUP1 ISZERO PUSH2 0x6B0 JUMPI DUP1 PUSH1 0x1F LT PUSH2 0x685 JUMPI PUSH2 0x100 DUP1 DUP4 SLOAD DIV MUL DUP4 MSTORE SWAP2 PUSH1 0x20 ADD SWAP2 PUSH2 0x6B0 JUMP JUMPDEST DUP3 ADD SWAP2 SWAP1 PUSH1 0x0 MSTORE PUSH1 0x20 PUSH1 0x0 KECCAK256 SWAP1 JUMPDEST DUP2 SLOAD DUP2 MSTORE SWAP1 PUSH1 0x1 ADD SWAP1 PUSH1 0x20 ADD DUP1 DUP4 GT PUSH2 0x693 JUMPI DUP3 SWAP1 SUB PUSH1 0x1F AND DUP3 ADD SWAP2 JUMPDEST POP POP POP POP POP SWAP1 DUP1 PUSH1 0x2 ADD SLOAD SWAP1 DUP1 PUSH1 0x3 ADD SLOAD SWAP1 POP DUP5 JUMP JUMPDEST PUSH1 0x0 DUP1 SLOAD SWAP1 PUSH2 0x100 EXP SWAP1 DIV PUSH20 0xFFFFFFFFFFFFFFFFFFFFFFFFFFFFFFFFFFFFFFFF AND DUP2 JUMP JUMPDEST PUSH1 0x60 PUSH1 0x1 DUP1 SLOAD DUP1 PUSH1 0x20 MUL PUSH1 0x20 ADD PUSH1 0x40 MLOAD SWAP1 DUP2 ADD PUSH1 0x40 MSTORE DUP1 SWAP3 SWAP2 SWAP1 DUP2 DUP2 MSTORE PUSH1 0x20 ADD PUSH1 0x0 SWAP1 JUMPDEST DUP3 DUP3 LT ISZERO PUSH2 0x7F0 JUMPI DUP4 DUP3 SWAP1 PUSH1 0x0 MSTORE PUSH1 0x20 PUSH1 0x0 KECCAK256 SWAP1 PUSH1 0x4 MUL ADD PUSH1 0x40 MLOAD DUP1 PUSH1 0x80 ADD PUSH1 0x40 MSTORE SWAP1 DUP2 PUSH1 0x0 DUP3 ADD SLOAD DUP2 MSTORE PUSH1 0x20 ADD PUSH1 0x1 DUP3 ADD DUP1 SLOAD PUSH2 0x74B SWAP1 PUSH2 0x118B JUMP JUMPDEST DUP1 PUSH1 0x1F ADD PUSH1 0x20 DUP1 SWAP2 DIV MUL PUSH1 0x20 ADD PUSH1 0x40 MLOAD SWAP1 DUP2 ADD PUSH1 0x40 MSTORE DUP1 SWAP3 SWAP2 SWAP1 DUP2 DUP2 MSTORE PUSH1 0x20 ADD DUP3 DUP1 SLOAD PUSH2 0x777 SWAP1 PUSH2 0x118B JUMP JUMPDEST DUP1 ISZERO PUSH2 0x7C4 JUMPI DUP1 PUSH1 0x1F LT PUSH2 0x799 JUMPI PUSH2 0x100 DUP1 DUP4 SLOAD DIV MUL DUP4 MSTORE SWAP2 PUSH1 0x20 ADD SWAP2 PUSH2 0x7C4 JUMP JUMPDEST DUP3 ADD SWAP2 SWAP1 PUSH1 0x0 MSTORE PUSH1 0x20 PUSH1 0x0 KECCAK256 SWAP1 JUMPDEST DUP2 SLOAD DUP2 MSTORE SWAP1 PUSH1 0x1 ADD SWAP1 PUSH1 0x20 ADD DUP1 DUP4 GT PUSH2 0x7A7 JUMPI DUP3 SWAP1 SUB PUSH1 0x1F AND DUP3 ADD SWAP2 JUMPDEST POP POP POP POP POP DUP2 MSTORE PUSH1 0x20 ADD PUSH1 0x2 DUP3 ADD SLOAD DUP2 MSTORE PUSH1 0x20 ADD PUSH1 0x3 DUP3 ADD SLOAD DUP2 MSTORE POP POP DUP2 MSTORE PUSH1 0x20 ADD SWAP1 PUSH1 0x1 ADD SWAP1 PUSH2 0x70E JUMP JUMPDEST POP POP POP POP SWAP1 POP SWAP1 JUMP JUMPDEST PUSH1 0x3 PUSH1 0x20 MSTORE DUP2 PUSH1 0x0 MSTORE PUSH1 0x40 PUSH1 0x0 KECCAK256 PUSH1 0x20 MSTORE DUP1 PUSH1 0x0 MSTORE PUSH1 0x40 PUSH1 0x0 KECCAK256 PUSH1 0x0 SWAP2 POP SWAP2 POP POP SLOAD DUP2 JUMP JUMPDEST PUSH1 0x0 DUP1 SLOAD SWAP1 PUSH2 0x100 EXP SWAP1 DIV PUSH20 0xFFFFFFFFFFFFFFFFFFFFFFFFFFFFFFFFFFFFFFFF AND PUSH20 0xFFFFFFFFFFFFFFFFFFFFFFFFFFFFFFFFFFFFFFFF AND CALLER PUSH20 0xFFFFFFFFFFFFFFFFFFFFFFFFFFFFFFFFFFFFFFFF AND EQ PUSH2 0x8AC JUMPI PUSH1 0x40 MLOAD PUSH32 0x8C379A000000000000000000000000000000000000000000000000000000000 DUP2 MSTORE PUSH1 0x4 ADD PUSH2 0x8A3 SWAP1 PUSH2 0xEFF JUMP JUMPDEST PUSH1 0x40 MLOAD DUP1 SWAP2 SUB SWAP1 REVERT JUMPDEST DUP2 PUSH1 0x1 DUP1 SLOAD SWAP1 POP DUP2 LT PUSH2 0x8F4 JUMPI PUSH1 0x40 MLOAD PUSH32 0x8C379A000000000000000000000000000000000000000000000000000000000 DUP2 MSTORE PUSH1 0x4 ADD PUSH2 0x8EB SWAP1 PUSH2 0xF5F JUMP JUMPDEST PUSH1 0x40 MLOAD DUP1 SWAP2 SUB SWAP1 REVERT JUMPDEST DUP2 PUSH1 0x1 DUP5 DUP2 SLOAD DUP2 LT PUSH2 0x909 JUMPI PUSH2 0x908 PUSH2 0x124C JUMP JUMPDEST JUMPDEST SWAP1 PUSH1 0x0 MSTORE PUSH1 0x20 PUSH1 0x0 KECCAK256 SWAP1 PUSH1 0x4 MUL ADD PUSH1 0x2 ADD DUP2 SWAP1 SSTORE POP POP POP POP JUMP JUMPDEST DUP3 DUP1 SLOAD PUSH2 0x92F SWAP1 PUSH2 0x118B JUMP JUMPDEST SWAP1 PUSH1 0x0 MSTORE PUSH1 0x20 PUSH1 0x0 KECCAK256 SWAP1 PUSH1 0x1F ADD PUSH1 0x20 SWAP1 DIV DUP2 ADD SWAP3 DUP3 PUSH2 0x951 JUMPI PUSH1 0x0 DUP6 SSTORE PUSH2 0x998 JUMP JUMPDEST DUP3 PUSH1 0x1F LT PUSH2 0x96A JUMPI DUP1 MLOAD PUSH1 0xFF NOT AND DUP4 DUP1 ADD OR DUP6 SSTORE PUSH2 0x998 JUMP JUMPDEST DUP3 DUP1 ADD PUSH1 0x1 ADD DUP6 SSTORE DUP3 ISZERO PUSH2 0x998 JUMPI SWAP2 DUP3 ADD JUMPDEST DUP3 DUP2 GT ISZERO PUSH2 0x997 JUMPI DUP3 MLOAD DUP3 SSTORE SWAP2 PUSH1 0x20 ADD SWAP2 SWAP1 PUSH1 0x1 ADD SWAP1 PUSH2 0x97C JUMP JUMPDEST JUMPDEST POP SWAP1 POP PUSH2 0x9A5 SWAP2 SWAP1 PUSH2 0x9A9 JUMP JUMPDEST POP SWAP1 JUMP JUMPDEST JUMPDEST DUP1 DUP3 GT ISZERO PUSH2 0x9C2 JUMPI PUSH1 0x0 DUP2 PUSH1 0x0 SWAP1 SSTORE POP PUSH1 0x1 ADD PUSH2 0x9AA JUMP JUMPDEST POP SWAP1 JUMP JUMPDEST PUSH1 0x0 PUSH2 0x9D9 PUSH2 0x9D4 DUP5 PUSH2 0x102B JUMP JUMPDEST PUSH2 0x1006 JUMP JUMPDEST SWAP1 POP DUP3 DUP2 MSTORE PUSH1 0x20 DUP2 ADD DUP5 DUP5 DUP5 ADD GT ISZERO PUSH2 0x9F5 JUMPI PUSH2 0x9F4 PUSH2 0x12B9 JUMP JUMPDEST JUMPDEST PUSH2 0xA00 DUP5 DUP3 DUP6 PUSH2 0x1149 JUMP JUMPDEST POP SWAP4 SWAP3 POP POP POP JUMP JUMPDEST PUSH1 0x0 DUP2 CALLDATALOAD SWAP1 POP PUSH2 0xA17 DUP2 PUSH2 0x1418 JUMP JUMPDEST SWAP3 SWAP2 POP POP JUMP JUMPDEST PUSH1 0x0 DUP1 DUP4 PUSH1 0x1F DUP5 ADD SLT PUSH2 0xA33 JUMPI PUSH2 0xA32 PUSH2 0x12AF JUMP JUMPDEST JUMPDEST DUP3 CALLDATALOAD SWAP1 POP PUSH8 0xFFFFFFFFFFFFFFFF DUP2 GT ISZERO PUSH2 0xA50 JUMPI PUSH2 0xA4F PUSH2 0x12AA JUMP JUMPDEST JUMPDEST PUSH1 0x20 DUP4 ADD SWAP2 POP DUP4 PUSH1 0x1 DUP3 MUL DUP4 ADD GT ISZERO PUSH2 0xA6C JUMPI PUSH2 0xA6B PUSH2 0x12B4 JUMP JUMPDEST JUMPDEST SWAP3 POP SWAP3 SWAP1 POP JUMP JUMPDEST PUSH1 0x0 DUP3 PUSH1 0x1F DUP4 ADD SLT PUSH2 0xA88 JUMPI PUSH2 0xA87 PUSH2 0x12AF JUMP JUMPDEST JUMPDEST DUP2 CALLDATALOAD PUSH2 0xA98 DUP5 DUP3 PUSH1 0x20 DUP7 ADD PUSH2 0x9C6 JUMP JUMPDEST SWAP2 POP POP SWAP3 SWAP2 POP POP JUMP JUMPDEST PUSH1 0x0 DUP2 CALLDATALOAD SWAP1 POP PUSH2 0xAB0 DUP2 PUSH2 0x142F JUMP JUMPDEST SWAP3 SWAP2 POP POP JUMP JUMPDEST PUSH1 0x0 DUP1 PUSH1 0x0 DUP1 PUSH1 0x60 DUP6 DUP8 SUB SLT ISZERO PUSH2 0xAD0 JUMPI PUSH2 0xACF PUSH2 0x12C3 JUMP JUMPDEST JUMPDEST PUSH1 0x0 DUP6 ADD CALLDATALOAD PUSH8 0xFFFFFFFFFFFFFFFF DUP2 GT ISZERO PUSH2 0xAEE JUMPI PUSH2 0xAED PUSH2 0x12BE JUMP JUMPDEST JUMPDEST PUSH2 0xAFA DUP8 DUP3 DUP9 ADD PUSH2 0xA1D JUMP JUMPDEST SWAP5 POP SWAP5 POP POP PUSH1 0x20 PUSH2 0xB0D DUP8 DUP3 DUP9 ADD PUSH2 0xAA1 JUMP JUMPDEST SWAP3 POP POP PUSH1 0x40 PUSH2 0xB1E DUP8 DUP3 DUP9 ADD PUSH2 0xAA1 JUMP JUMPDEST SWAP2 POP POP SWAP3 SWAP6 SWAP2 SWAP5 POP SWAP3 POP JUMP JUMPDEST PUSH1 0x0 PUSH1 0x20 DUP3 DUP5 SUB SLT ISZERO PUSH2 0xB40 JUMPI PUSH2 0xB3F PUSH2 0x12C3 JUMP JUMPDEST JUMPDEST PUSH1 0x0 DUP3 ADD CALLDATALOAD PUSH8 0xFFFFFFFFFFFFFFFF DUP2 GT ISZERO PUSH2 0xB5E JUMPI PUSH2 0xB5D PUSH2 0x12BE JUMP JUMPDEST JUMPDEST PUSH2 0xB6A DUP5 DUP3 DUP6 ADD PUSH2 0xA73 JUMP JUMPDEST SWAP2 POP POP SWAP3 SWAP2 POP POP JUMP JUMPDEST PUSH1 0x0 PUSH1 0x20 DUP3 DUP5 SUB SLT ISZERO PUSH2 0xB89 JUMPI PUSH2 0xB88 PUSH2 0x12C3 JUMP JUMPDEST JUMPDEST PUSH1 0x0 PUSH2 0xB97 DUP5 DUP3 DUP6 ADD PUSH2 0xAA1 JUMP JUMPDEST SWAP2 POP POP SWAP3 SWAP2 POP POP JUMP JUMPDEST PUSH1 0x0 DUP1 PUSH1 0x40 DUP4 DUP6 SUB SLT ISZERO PUSH2 0xBB7 JUMPI PUSH2 0xBB6 PUSH2 0x12C3 JUMP JUMPDEST JUMPDEST PUSH1 0x0 PUSH2 0xBC5 DUP6 DUP3 DUP7 ADD PUSH2 0xAA1 JUMP JUMPDEST SWAP3 POP POP PUSH1 0x20 PUSH2 0xBD6 DUP6 DUP3 DUP7 ADD PUSH2 0xA08 JUMP JUMPDEST SWAP2 POP POP SWAP3 POP SWAP3 SWAP1 POP JUMP JUMPDEST PUSH1 0x0 DUP1 PUSH1 0x40 DUP4 DUP6 SUB SLT ISZERO PUSH2 0xBF7 JUMPI PUSH2 0xBF6 PUSH2 0x12C3 JUMP JUMPDEST JUMPDEST PUSH1 0x0 PUSH2 0xC05 DUP6 DUP3 DUP7 ADD PUSH2 0xAA1 JUMP JUMPDEST SWAP3 POP POP PUSH1 0x20 PUSH2 0xC16 DUP6 DUP3 DUP7 ADD PUSH2 0xAA1 JUMP JUMPDEST SWAP2 POP POP SWAP3 POP SWAP3 SWAP1 POP JUMP JUMPDEST PUSH1 0x0 PUSH2 0xC2C DUP4 DUP4 PUSH2 0xE0D JUMP JUMPDEST SWAP1 POP SWAP3 SWAP2 POP POP JUMP JUMPDEST PUSH2 0xC3D DUP2 PUSH2 0x1101 JUMP JUMPDEST DUP3 MSTORE POP POP JUMP JUMPDEST PUSH1 0x0 PUSH2 0xC4E DUP3 PUSH2 0x106C JUMP JUMPDEST PUSH2 0xC58 DUP2 DUP6 PUSH2 0x108F JUMP JUMPDEST SWAP4 POP DUP4 PUSH1 0x20 DUP3 MUL DUP6 ADD PUSH2 0xC6A DUP6 PUSH2 0x105C JUMP JUMPDEST DUP1 PUSH1 0x0 JUMPDEST DUP6 DUP2 LT ISZERO PUSH2 0xCA6 JUMPI DUP5 DUP5 SUB DUP10 MSTORE DUP2 MLOAD PUSH2 0xC87 DUP6 DUP3 PUSH2 0xC20 JUMP JUMPDEST SWAP5 POP PUSH2 0xC92 DUP4 PUSH2 0x1082 JUMP JUMPDEST SWAP3 POP PUSH1 0x20 DUP11 ADD SWAP10 POP POP PUSH1 0x1 DUP2 ADD SWAP1 POP PUSH2 0xC6E JUMP JUMPDEST POP DUP3 SWAP8 POP DUP8 SWAP6 POP POP POP POP POP POP SWAP3 SWAP2 POP POP JUMP JUMPDEST PUSH2 0xCC1 DUP2 PUSH2 0x1113 JUMP JUMPDEST DUP3 MSTORE POP POP JUMP JUMPDEST PUSH1 0x0 PUSH2 0xCD3 DUP4 DUP6 PUSH2 0x10C2 JUMP JUMPDEST SWAP4 POP PUSH2 0xCE0 DUP4 DUP6 DUP5 PUSH2 0x1149 JUMP JUMPDEST DUP3 DUP5 ADD SWAP1 POP SWAP4 SWAP3 POP POP POP JUMP JUMPDEST PUSH1 0x0 PUSH2 0xCF7 DUP3 PUSH2 0x1077 JUMP JUMPDEST PUSH2 0xD01 DUP2 DUP6 PUSH2 0x10A0 JUMP JUMPDEST SWAP4 POP PUSH2 0xD11 DUP2 DUP6 PUSH1 0x20 DUP7 ADD PUSH2 0x1158 JUMP JUMPDEST PUSH2 0xD1A DUP2 PUSH2 0x12C8 JUMP JUMPDEST DUP5 ADD SWAP2 POP POP SWAP3 SWAP2 POP POP JUMP JUMPDEST PUSH1 0x0 PUSH2 0xD30 DUP3 PUSH2 0x1077 JUMP JUMPDEST PUSH2 0xD3A DUP2 DUP6 PUSH2 0x10B1 JUMP JUMPDEST SWAP4 POP PUSH2 0xD4A DUP2 DUP6 PUSH1 0x20 DUP7 ADD PUSH2 0x1158 JUMP JUMPDEST PUSH2 0xD53 DUP2 PUSH2 0x12C8 JUMP JUMPDEST DUP5 ADD SWAP2 POP POP SWAP3 SWAP2 POP POP JUMP JUMPDEST PUSH1 0x0 PUSH2 0xD6B PUSH1 0x16 DUP4 PUSH2 0x10B1 JUMP JUMPDEST SWAP2 POP PUSH2 0xD76 DUP3 PUSH2 0x12D9 JUMP JUMPDEST PUSH1 0x20 DUP3 ADD SWAP1 POP SWAP2 SWAP1 POP JUMP JUMPDEST PUSH1 0x0 PUSH2 0xD8E PUSH1 0x2D DUP4 PUSH2 0x10B1 JUMP JUMPDEST SWAP2 POP PUSH2 0xD99 DUP3 PUSH2 0x1302 JUMP JUMPDEST PUSH1 0x40 DUP3 ADD SWAP1 POP SWAP2 SWAP1 POP JUMP JUMPDEST PUSH1 0x0 PUSH2 0xDB1 PUSH1 0x25 DUP4 PUSH2 0x10B1 JUMP JUMPDEST SWAP2 POP PUSH2 0xDBC DUP3 PUSH2 0x1351 JUMP JUMPDEST PUSH1 0x40 DUP3 ADD SWAP1 POP SWAP2 SWAP1 POP JUMP JUMPDEST PUSH1 0x0 PUSH2 0xDD4 PUSH1 0x1C DUP4 PUSH2 0x10B1 JUMP JUMPDEST SWAP2 POP PUSH2 0xDDF DUP3 PUSH2 0x13A0 JUMP JUMPDEST PUSH1 0x20 DUP3 ADD SWAP1 POP SWAP2 SWAP1 POP JUMP JUMPDEST PUSH1 0x0 PUSH2 0xDF7 PUSH1 0x24 DUP4 PUSH2 0x10B1 JUMP JUMPDEST SWAP2 POP PUSH2 0xE02 DUP3 PUSH2 0x13C9 JUMP JUMPDEST PUSH1 0x40 DUP3 ADD SWAP1 POP SWAP2 SWAP1 POP JUMP JUMPDEST PUSH1 0x0 PUSH1 0x80 DUP4 ADD PUSH1 0x0 DUP4 ADD MLOAD PUSH2 0xE25 PUSH1 0x0 DUP7 ADD DUP3 PUSH2 0xE70 JUMP JUMPDEST POP PUSH1 0x20 DUP4 ADD MLOAD DUP5 DUP3 SUB PUSH1 0x20 DUP7 ADD MSTORE PUSH2 0xE3D DUP3 DUP3 PUSH2 0xCEC JUMP JUMPDEST SWAP2 POP POP PUSH1 0x40 DUP4 ADD MLOAD PUSH2 0xE52 PUSH1 0x40 DUP7 ADD DUP3 PUSH2 0xE70 JUMP JUMPDEST POP PUSH1 0x60 DUP4 ADD MLOAD PUSH2 0xE65 PUSH1 0x60 DUP7 ADD DUP3 PUSH2 0xE70 JUMP JUMPDEST POP DUP1 SWAP2 POP POP SWAP3 SWAP2 POP POP JUMP JUMPDEST PUSH2 0xE79 DUP2 PUSH2 0x113F JUMP JUMPDEST DUP3 MSTORE POP POP JUMP JUMPDEST PUSH2 0xE88 DUP2 PUSH2 0x113F JUMP JUMPDEST DUP3 MSTORE POP POP JUMP JUMPDEST PUSH1 0x0 PUSH2 0xE9B DUP3 DUP5 DUP7 PUSH2 0xCC7 JUMP JUMPDEST SWAP2 POP DUP2 SWAP1 POP SWAP4 SWAP3 POP POP POP JUMP JUMPDEST PUSH1 0x0 PUSH1 0x20 DUP3 ADD SWAP1 POP PUSH2 0xEBC PUSH1 0x0 DUP4 ADD DUP5 PUSH2 0xC34 JUMP JUMPDEST SWAP3 SWAP2 POP POP JUMP JUMPDEST PUSH1 0x0 PUSH1 0x20 DUP3 ADD SWAP1 POP DUP2 DUP2 SUB PUSH1 0x0 DUP4 ADD MSTORE PUSH2 0xEDC DUP2 DUP5 PUSH2 0xC43 JUMP JUMPDEST SWAP1 POP SWAP3 SWAP2 POP POP JUMP JUMPDEST PUSH1 0x0 PUSH1 0x20 DUP3 ADD SWAP1 POP PUSH2 0xEF9 PUSH1 0x0 DUP4 ADD DUP5 PUSH2 0xCB8 JUMP JUMPDEST SWAP3 SWAP2 POP POP JUMP JUMPDEST PUSH1 0x0 PUSH1 0x20 DUP3 ADD SWAP1 POP DUP2 DUP2 SUB PUSH1 0x0 DUP4 ADD MSTORE PUSH2 0xF18 DUP2 PUSH2 0xD5E JUMP JUMPDEST SWAP1 POP SWAP2 SWAP1 POP JUMP JUMPDEST PUSH1 0x0 PUSH1 0x20 DUP3 ADD SWAP1 POP DUP2 DUP2 SUB PUSH1 0x0 DUP4 ADD MSTORE PUSH2 0xF38 DUP2 PUSH2 0xD81 JUMP JUMPDEST SWAP1 POP SWAP2 SWAP1 POP JUMP JUMPDEST PUSH1 0x0 PUSH1 0x20 DUP3 ADD SWAP1 POP DUP2 DUP2 SUB PUSH1 0x0 DUP4 ADD MSTORE PUSH2 0xF58 DUP2 PUSH2 0xDA4 JUMP JUMPDEST SWAP1 POP SWAP2 SWAP1 POP JUMP JUMPDEST PUSH1 0x0 PUSH1 0x20 DUP3 ADD SWAP1 POP DUP2 DUP2 SUB PUSH1 0x0 DUP4 ADD MSTORE PUSH2 0xF78 DUP2 PUSH2 0xDC7 JUMP JUMPDEST SWAP1 POP SWAP2 SWAP1 POP JUMP JUMPDEST PUSH1 0x0 PUSH1 0x20 DUP3 ADD SWAP1 POP DUP2 DUP2 SUB PUSH1 0x0 DUP4 ADD MSTORE PUSH2 0xF98 DUP2 PUSH2 0xDEA JUMP JUMPDEST SWAP1 POP SWAP2 SWAP1 POP JUMP JUMPDEST PUSH1 0x0 PUSH1 0x20 DUP3 ADD SWAP1 POP PUSH2 0xFB4 PUSH1 0x0 DUP4 ADD DUP5 PUSH2 0xE7F JUMP JUMPDEST SWAP3 SWAP2 POP POP JUMP JUMPDEST PUSH1 0x0 PUSH1 0x80 DUP3 ADD SWAP1 POP PUSH2 0xFCF PUSH1 0x0 DUP4 ADD DUP8 PUSH2 0xE7F JUMP JUMPDEST DUP2 DUP2 SUB PUSH1 0x20 DUP4 ADD MSTORE PUSH2 0xFE1 DUP2 DUP7 PUSH2 0xD25 JUMP JUMPDEST SWAP1 POP PUSH2 0xFF0 PUSH1 0x40 DUP4 ADD DUP6 PUSH2 0xE7F JUMP JUMPDEST PUSH2 0xFFD PUSH1 0x60 DUP4 ADD DUP5 PUSH2 0xE7F JUMP JUMPDEST SWAP6 SWAP5 POP POP POP POP POP JUMP JUMPDEST PUSH1 0x0 PUSH2 0x1010 PUSH2 0x1021 JUMP JUMPDEST SWAP1 POP PUSH2 0x101C DUP3 DUP3 PUSH2 0x11BD JUMP JUMPDEST SWAP2 SWAP1 POP JUMP JUMPDEST PUSH1 0x0 PUSH1 0x40 MLOAD SWAP1 POP SWAP1 JUMP JUMPDEST PUSH1 0x0 PUSH8 0xFFFFFFFFFFFFFFFF DUP3 GT ISZERO PUSH2 0x1046 JUMPI PUSH2 0x1045 PUSH2 0x127B JUMP JUMPDEST JUMPDEST PUSH2 0x104F DUP3 PUSH2 0x12C8 JUMP JUMPDEST SWAP1 POP PUSH1 0x20 DUP2 ADD SWAP1 POP SWAP2 SWAP1 POP JUMP JUMPDEST PUSH1 0x0 DUP2 SWAP1 POP PUSH1 0x20 DUP3 ADD SWAP1 POP SWAP2 SWAP1 POP JUMP JUMPDEST PUSH1 0x0 DUP2 MLOAD SWAP1 POP SWAP2 SWAP1 POP JUMP JUMPDEST PUSH1 0x0 DUP2 MLOAD SWAP1 POP SWAP2 SWAP1 POP JUMP JUMPDEST PUSH1 0x0 PUSH1 0x20 DUP3 ADD SWAP1 POP SWAP2 SWAP1 POP JUMP JUMPDEST PUSH1 0x0 DUP3 DUP3 MSTORE PUSH1 0x20 DUP3 ADD SWAP1 POP SWAP3 SWAP2 POP POP JUMP JUMPDEST PUSH1 0x0 DUP3 DUP3 MSTORE PUSH1 0x20 DUP3 ADD SWAP1 POP SWAP3 SWAP2 POP POP JUMP JUMPDEST PUSH1 0x0 DUP3 DUP3 MSTORE PUSH1 0x20 DUP3 ADD SWAP1 POP SWAP3 SWAP2 POP POP JUMP JUMPDEST PUSH1 0x0 DUP2 SWAP1 POP SWAP3 SWAP2 POP POP JUMP JUMPDEST PUSH1 0x0 PUSH2 0x10D8 DUP3 PUSH2 0x113F JUMP JUMPDEST SWAP2 POP PUSH2 0x10E3 DUP4 PUSH2 0x113F JUMP JUMPDEST SWAP3 POP DUP3 DUP3 LT ISZERO PUSH2 0x10F6 JUMPI PUSH2 0x10F5 PUSH2 0x11EE JUMP JUMPDEST JUMPDEST DUP3 DUP3 SUB SWAP1 POP SWAP3 SWAP2 POP POP JUMP JUMPDEST PUSH1 0x0 PUSH2 0x110C DUP3 PUSH2 0x111F JUMP JUMPDEST SWAP1 POP SWAP2 SWAP1 POP JUMP JUMPDEST PUSH1 0x0 DUP2 ISZERO ISZERO SWAP1 POP SWAP2 SWAP1 POP JUMP JUMPDEST PUSH1 0x0 PUSH20 0xFFFFFFFFFFFFFFFFFFFFFFFFFFFFFFFFFFFFFFFF DUP3 AND SWAP1 POP SWAP2 SWAP1 POP JUMP JUMPDEST PUSH1 0x0 DUP2 SWAP1 POP SWAP2 SWAP1 POP JUMP JUMPDEST DUP3 DUP2 DUP4 CALLDATACOPY PUSH1 0x0 DUP4 DUP4 ADD MSTORE POP POP POP JUMP JUMPDEST PUSH1 0x0 JUMPDEST DUP4 DUP2 LT ISZERO PUSH2 0x1176 JUMPI DUP1 DUP3 ADD MLOAD DUP2 DUP5 ADD MSTORE PUSH1 0x20 DUP2 ADD SWAP1 POP PUSH2 0x115B JUMP JUMPDEST DUP4 DUP2 GT ISZERO PUSH2 0x1185 JUMPI PUSH1 0x0 DUP5 DUP5 ADD MSTORE JUMPDEST POP POP POP POP JUMP JUMPDEST PUSH1 0x0 PUSH1 0x2 DUP3 DIV SWAP1 POP PUSH1 0x1 DUP3 AND DUP1 PUSH2 0x11A3 JUMPI PUSH1 0x7F DUP3 AND SWAP2 POP JUMPDEST PUSH1 0x20 DUP3 LT DUP2 EQ ISZERO PUSH2 0x11B7 JUMPI PUSH2 0x11B6 PUSH2 0x121D JUMP JUMPDEST JUMPDEST POP SWAP2 SWAP1 POP JUMP JUMPDEST PUSH2 0x11C6 DUP3 PUSH2 0x12C8 JUMP JUMPDEST DUP2 ADD DUP2 DUP2 LT PUSH8 0xFFFFFFFFFFFFFFFF DUP3 GT OR ISZERO PUSH2 0x11E5 JUMPI PUSH2 0x11E4 PUSH2 0x127B JUMP JUMPDEST JUMPDEST DUP1 PUSH1 0x40 MSTORE POP POP POP JUMP JUMPDEST PUSH32 0x4E487B7100000000000000000000000000000000000000000000000000000000 PUSH1 0x0 MSTORE PUSH1 0x11 PUSH1 0x4 MSTORE PUSH1 0x24 PUSH1 0x0 REVERT JUMPDEST PUSH32 0x4E487B7100000000000000000000000000000000000000000000000000000000 PUSH1 0x0 MSTORE PUSH1 0x22 PUSH1 0x4 MSTORE PUSH1 0x24 PUSH1 0x0 REVERT JUMPDEST PUSH32 0x4E487B7100000000000000000000000000000000000000000000000000000000 PUSH1 0x0 MSTORE PUSH1 0x32 PUSH1 0x4 MSTORE PUSH1 0x24 PUSH1 0x0 REVERT JUMPDEST PUSH32 0x4E487B7100000000000000000000000000000000000000000000000000000000 PUSH1 0x0 MSTORE PUSH1 0x41 PUSH1 0x4 MSTORE PUSH1 0x24 PUSH1 0x0 REVERT JUMPDEST PUSH1 0x0 DUP1 REVERT JUMPDEST PUSH1 0x0 DUP1 REVERT JUMPDEST PUSH1 0x0 DUP1 REVERT JUMPDEST PUSH1 0x0 DUP1 REVERT JUMPDEST PUSH1 0x0 DUP1 REVERT JUMPDEST PUSH1 0x0 DUP1 REVERT JUMPDEST PUSH1 0x0 PUSH1 0x1F NOT PUSH1 0x1F DUP4 ADD AND SWAP1 POP SWAP2 SWAP1 POP JUMP JUMPDEST PUSH32 0x596F7520617265206E6F7420746865206F776E65722100000000000000000000 PUSH1 0x0 DUP3 ADD MSTORE POP JUMP JUMPDEST PUSH32 0x5468652070726F64756374207175616E74697479206973206C65737320746861 PUSH1 0x0 DUP3 ADD MSTORE PUSH32 0x6E20796F752077616E7465642100000000000000000000000000000000000000 PUSH1 0x20 DUP3 ADD MSTORE POP JUMP JUMPDEST PUSH32 0x596F75206861766520616C726561647920626F7567687420746869732070726F PUSH1 0x0 DUP3 ADD MSTORE PUSH32 0x6475637421000000000000000000000000000000000000000000000000000000 PUSH1 0x20 DUP3 ADD MSTORE POP JUMP JUMPDEST PUSH32 0x5468652070726F64756374206973206E6F74206578697374696E672100000000 PUSH1 0x0 DUP3 ADD MSTORE POP JUMP JUMPDEST PUSH32 0x5468652070726F6475637420697320616C726561647920696E20746865207374 PUSH1 0x0 DUP3 ADD MSTORE PUSH32 0x6F72652100000000000000000000000000000000000000000000000000000000 PUSH1 0x20 DUP3 ADD MSTORE POP JUMP JUMPDEST PUSH2 0x1421 DUP2 PUSH2 0x1101 JUMP JUMPDEST DUP2 EQ PUSH2 0x142C JUMPI PUSH1 0x0 DUP1 REVERT JUMPDEST POP JUMP JUMPDEST PUSH2 0x1438 DUP2 PUSH2 0x113F JUMP JUMPDEST DUP2 EQ PUSH2 0x1443 JUMPI PUSH1 0x0 DUP1 REVERT JUMPDEST POP JUMP INVALID LOG2 PUSH5 0x6970667358 0x22 SLT KECCAK256 0xCF DUP2 CALLCODE DUP3 0xE1 0xA7 PUSH1 0x87 0xD9 CREATE2 0xAF 0x21 0xB4 CALLDATACOPY LOG4 GASLIMIT MUL PUSH9 0xE7EBCAA1644E24D83F PUSH16 0x45AB294364736F6C6343000807003300 "
				},
				"gasEstimates": {
					"creation": {
						"codeDepositCost": "1048800",
						"executionCost": "25353",
						"totalCost": "1074153"
					},
					"external": {
						"addNewProduct(string,uint256,uint256)": "infinite",
						"availableProductsNames(string)": "infinite",
						"buyProduct(uint256,uint256)": "infinite",
						"getProducts()": "infinite",
						"owner()": "2533",
						"products(uint256)": "infinite",
						"productsPurchases(uint256,address)": "infinite",
						"returnProduct(uint256)": "429",
						"updateProductQuantity(uint256,uint256)": "infinite"
					}
				},
				"methodIdentifiers": {
					"addNewProduct(string,uint256,uint256)": "0a5bd44b",
					"availableProductsNames(string)": "4c437514",
					"buyProduct(uint256,uint256)": "53b62866",
					"getProducts()": "c29b2f20",
					"owner()": "8da5cb5b",
					"products(uint256)": "7acc0b20",
					"productsPurchases(uint256,address)": "ccc4174a",
					"returnProduct(uint256)": "131e407d",
					"updateProductQuantity(uint256,uint256)": "fcc93b0b"
				}
			},
			"storageLayout": {
				"storage": [
					{
						"astId": 3,
						"contract": "contracts/Store.sol:Store",
						"label": "owner",
						"offset": 0,
						"slot": "0",
						"type": "t_address"
					},
					{
						"astId": 43,
						"contract": "contracts/Store.sol:Store",
						"label": "products",
						"offset": 0,
						"slot": "1",
						"type": "t_array(t_struct(Product)39_storage)dyn_storage"
					},
					{
						"astId": 47,
						"contract": "contracts/Store.sol:Store",
						"label": "availableProductsNames",
						"offset": 0,
						"slot": "2",
						"type": "t_mapping(t_string_memory_ptr,t_bool)"
					},
					{
						"astId": 53,
						"contract": "contracts/Store.sol:Store",
						"label": "productsPurchases",
						"offset": 0,
						"slot": "3",
						"type": "t_mapping(t_uint256,t_mapping(t_address,t_uint256))"
					}
				],
				"types": {
					"t_address": {
						"encoding": "inplace",
						"label": "address",
						"numberOfBytes": "20"
					},
					"t_array(t_struct(Product)39_storage)dyn_storage": {
						"base": "t_struct(Product)39_storage",
						"encoding": "dynamic_array",
						"label": "struct Store.Product[]",
						"numberOfBytes": "32"
					},
					"t_bool": {
						"encoding": "inplace",
						"label": "bool",
						"numberOfBytes": "1"
					},
					"t_mapping(t_address,t_uint256)": {
						"encoding": "mapping",
						"key": "t_address",
						"label": "mapping(address => uint256)",
						"numberOfBytes": "32",
						"value": "t_uint256"
					},
					"t_mapping(t_string_memory_ptr,t_bool)": {
						"encoding": "mapping",
						"key": "t_string_memory_ptr",
						"label": "mapping(string => bool)",
						"numberOfBytes": "32",
						"value": "t_bool"
					},
					"t_mapping(t_uint256,t_mapping(t_address,t_uint256))": {
						"encoding": "mapping",
						"key": "t_uint256",
						"label": "mapping(uint256 => mapping(address => uint256))",
						"numberOfBytes": "32",
						"value": "t_mapping(t_address,t_uint256)"
					},
					"t_string_memory_ptr": {
						"encoding": "bytes",
						"label": "string",
						"numberOfBytes": "32"
					},
					"t_string_storage": {
						"encoding": "bytes",
						"label": "string",
						"numberOfBytes": "32"
					},
					"t_struct(Product)39_storage": {
						"encoding": "inplace",
						"label": "struct Store.Product",
						"members": [
							{
								"astId": 32,
								"contract": "contracts/Store.sol:Store",
								"label": "id",
								"offset": 0,
								"slot": "0",
								"type": "t_uint256"
							},
							{
								"astId": 34,
								"contract": "contracts/Store.sol:Store",
								"label": "name",
								"offset": 0,
								"slot": "1",
								"type": "t_string_storage"
							},
							{
								"astId": 36,
								"contract": "contracts/Store.sol:Store",
								"label": "quantity",
								"offset": 0,
								"slot": "2",
								"type": "t_uint256"
							},
							{
								"astId": 38,
								"contract": "contracts/Store.sol:Store",
								"label": "price",
								"offset": 0,
								"slot": "3",
								"type": "t_uint256"
							}
						],
						"numberOfBytes": "128"
					},
					"t_uint256": {
						"encoding": "inplace",
						"label": "uint256",
						"numberOfBytes": "32"
					}
				}
			},
			"userdoc": {
				"kind": "user",
				"methods": {},
				"version": 1
			}
		}
	}
}