{
	"contracts/Store.sol": {
		"Store": {
			"abi": [
				{
					"inputs": [
						{
							"internalType": "string",
							"name": "name",
							"type": "string"
						},
						{
							"internalType": "uint256",
							"name": "quantity",
							"type": "uint256"
						},
						{
							"internalType": "uint256",
							"name": "price",
							"type": "uint256"
						}
					],
					"name": "addNewProduct",
					"outputs": [],
					"stateMutability": "nonpayable",
					"type": "function"
				},
				{
					"inputs": [
						{
							"internalType": "uint256",
							"name": "",
							"type": "uint256"
						}
					],
					"name": "availableProductsIds",
					"outputs": [
						{
							"internalType": "bool",
							"name": "",
							"type": "bool"
						}
					],
					"stateMutability": "view",
					"type": "function"
				},
				{
					"inputs": [
						{
							"internalType": "string",
							"name": "",
							"type": "string"
						}
					],
					"name": "availableProductsNames",
					"outputs": [
						{
							"internalType": "bool",
							"name": "",
							"type": "bool"
						}
					],
					"stateMutability": "view",
					"type": "function"
				},
				{
					"inputs": [
						{
							"internalType": "uint256",
							"name": "id",
							"type": "uint256"
						},
						{
							"internalType": "uint256",
							"name": "quantity",
							"type": "uint256"
						}
					],
					"name": "buyProduct",
					"outputs": [],
					"stateMutability": "nonpayable",
					"type": "function"
				},
				{
					"inputs": [],
					"name": "getProducts",
					"outputs": [
						{
							"components": [
								{
									"internalType": "string",
									"name": "name",
									"type": "string"
								},
								{
									"internalType": "uint256",
									"name": "quantity",
									"type": "uint256"
								},
								{
									"internalType": "uint256",
									"name": "price",
									"type": "uint256"
								}
							],
							"internalType": "struct Store.Product[]",
							"name": "",
							"type": "tuple[]"
						}
					],
					"stateMutability": "view",
					"type": "function"
				},
				{
					"inputs": [],
					"name": "owner",
					"outputs": [
						{
							"internalType": "address",
							"name": "",
							"type": "address"
						}
					],
					"stateMutability": "view",
					"type": "function"
				},
				{
					"inputs": [
						{
							"internalType": "uint256",
							"name": "",
							"type": "uint256"
						}
					],
					"name": "products",
					"outputs": [
						{
							"internalType": "string",
							"name": "name",
							"type": "string"
						},
						{
							"internalType": "uint256",
							"name": "quantity",
							"type": "uint256"
						},
						{
							"internalType": "uint256",
							"name": "price",
							"type": "uint256"
						}
					],
					"stateMutability": "view",
					"type": "function"
				},
				{
					"inputs": [
						{
							"internalType": "uint256",
							"name": "",
							"type": "uint256"
						},
						{
							"internalType": "address",
							"name": "",
							"type": "address"
						}
					],
					"name": "productsPurchases",
					"outputs": [
						{
							"internalType": "uint256",
							"name": "",
							"type": "uint256"
						}
					],
					"stateMutability": "view",
					"type": "function"
				},
				{
					"inputs": [
						{
							"internalType": "uint256",
							"name": "id",
							"type": "uint256"
						},
						{
							"internalType": "uint256",
							"name": "quantity",
							"type": "uint256"
						}
					],
					"name": "updateProductQuantity",
					"outputs": [],
					"stateMutability": "nonpayable",
					"type": "function"
				}
			],
			"devdoc": {
				"kind": "dev",
				"methods": {},
				"version": 1
			},
			"evm": {
				"assembly": "    /* \"contracts/Store.sol\":93:1932  contract Store is Ownable {\r... */\n  mstore(0x40, 0x80)\n  callvalue\n  dup1\n  iszero\n  tag_1\n  jumpi\n  0x00\n  dup1\n  revert\ntag_1:\n  pop\n    /* \"contracts/Ownable.sol\":156:166  msg.sender */\n  caller\n    /* \"contracts/Ownable.sol\":148:153  owner */\n  0x00\n  dup1\n    /* \"contracts/Ownable.sol\":148:166  owner = msg.sender */\n  0x0100\n  exp\n  dup2\n  sload\n  dup2\n  0xffffffffffffffffffffffffffffffffffffffff\n  mul\n  not\n  and\n  swap1\n  dup4\n  0xffffffffffffffffffffffffffffffffffffffff\n  and\n  mul\n  or\n  swap1\n  sstore\n  pop\n    /* \"contracts/Store.sol\":93:1932  contract Store is Ownable {\r... */\n  dataSize(sub_0)\n  dup1\n  dataOffset(sub_0)\n  0x00\n  codecopy\n  0x00\n  return\nstop\n\nsub_0: assembly {\n        /* \"contracts/Store.sol\":93:1932  contract Store is Ownable {\r... */\n      mstore(0x40, 0x80)\n      callvalue\n      dup1\n      iszero\n      tag_1\n      jumpi\n      0x00\n      dup1\n      revert\n    tag_1:\n      pop\n      jumpi(tag_2, lt(calldatasize, 0x04))\n      shr(0xe0, calldataload(0x00))\n      dup1\n      0x7acc0b20\n      gt\n      tag_12\n      jumpi\n      dup1\n      0x7acc0b20\n      eq\n      tag_7\n      jumpi\n      dup1\n      0x8da5cb5b\n      eq\n      tag_8\n      jumpi\n      dup1\n      0xc29b2f20\n      eq\n      tag_9\n      jumpi\n      dup1\n      0xccc4174a\n      eq\n      tag_10\n      jumpi\n      dup1\n      0xfcc93b0b\n      eq\n      tag_11\n      jumpi\n      jump(tag_2)\n    tag_12:\n      dup1\n      0x0a5bd44b\n      eq\n      tag_3\n      jumpi\n      dup1\n      0x4c437514\n      eq\n      tag_4\n      jumpi\n      dup1\n      0x53b62866\n      eq\n      tag_5\n      jumpi\n      dup1\n      0x5f7fad9c\n      eq\n      tag_6\n      jumpi\n    tag_2:\n      0x00\n      dup1\n      revert\n        /* \"contracts/Store.sol\":508:917  function addNewProduct(string calldata name, uint quantity, uint price) public onlyOwner {\r... */\n    tag_3:\n      tag_13\n      0x04\n      dup1\n      calldatasize\n      sub\n      dup2\n      add\n      swap1\n      tag_14\n      swap2\n      swap1\n      tag_15\n      jump\t// in\n    tag_14:\n      tag_16\n      jump\t// in\n    tag_13:\n      stop\n        /* \"contracts/Store.sol\":312:365  mapping(string => bool) public availableProductsNames */\n    tag_4:\n      tag_17\n      0x04\n      dup1\n      calldatasize\n      sub\n      dup2\n      add\n      swap1\n      tag_18\n      swap2\n      swap1\n      tag_19\n      jump\t// in\n    tag_18:\n      tag_20\n      jump\t// in\n    tag_17:\n      mload(0x40)\n      tag_21\n      swap2\n      swap1\n      tag_22\n      jump\t// in\n    tag_21:\n      mload(0x40)\n      dup1\n      swap2\n      sub\n      swap1\n      return\n        /* \"contracts/Store.sol\":1233:1929  function buyProduct(uint id, uint quantity) public {\r... */\n    tag_5:\n      tag_23\n      0x04\n      dup1\n      calldatasize\n      sub\n      dup2\n      add\n      swap1\n      tag_24\n      swap2\n      swap1\n      tag_25\n      jump\t// in\n    tag_24:\n      tag_26\n      jump\t// in\n    tag_23:\n      stop\n        /* \"contracts/Store.sol\":256:305  mapping(uint => bool) public availableProductsIds */\n    tag_6:\n      tag_27\n      0x04\n      dup1\n      calldatasize\n      sub\n      dup2\n      add\n      swap1\n      tag_28\n      swap2\n      swap1\n      tag_29\n      jump\t// in\n    tag_28:\n      tag_30\n      jump\t// in\n    tag_27:\n      mload(0x40)\n      tag_31\n      swap2\n      swap1\n      tag_22\n      jump\t// in\n    tag_31:\n      mload(0x40)\n      dup1\n      swap2\n      sub\n      swap1\n      return\n        /* \"contracts/Store.sol\":224:249  Product[] public products */\n    tag_7:\n      tag_32\n      0x04\n      dup1\n      calldatasize\n      sub\n      dup2\n      add\n      swap1\n      tag_33\n      swap2\n      swap1\n      tag_29\n      jump\t// in\n    tag_33:\n      tag_34\n      jump\t// in\n    tag_32:\n      mload(0x40)\n      tag_35\n      swap4\n      swap3\n      swap2\n      swap1\n      tag_36\n      jump\t// in\n    tag_35:\n      mload(0x40)\n      dup1\n      swap2\n      sub\n      swap1\n      return\n        /* \"contracts/Ownable.sol\":90:110  address public owner */\n    tag_8:\n      tag_37\n      tag_38\n      jump\t// in\n    tag_37:\n      mload(0x40)\n      tag_39\n      swap2\n      swap1\n      tag_40\n      jump\t// in\n    tag_39:\n      mload(0x40)\n      dup1\n      swap2\n      sub\n      swap1\n      return\n        /* \"contracts/Store.sol\":1130:1225  function getProducts() public view returns(Product[] memory) {\r... */\n    tag_9:\n      tag_41\n      tag_42\n      jump\t// in\n    tag_41:\n      mload(0x40)\n      tag_43\n      swap2\n      swap1\n      tag_44\n      jump\t// in\n    tag_43:\n      mload(0x40)\n      dup1\n      swap2\n      sub\n      swap1\n      return\n        /* \"contracts/Store.sol\":433:499  mapping(uint => mapping(address => uint)) public productsPurchases */\n    tag_10:\n      tag_45\n      0x04\n      dup1\n      calldatasize\n      sub\n      dup2\n      add\n      swap1\n      tag_46\n      swap2\n      swap1\n      tag_47\n      jump\t// in\n    tag_46:\n      tag_48\n      jump\t// in\n    tag_45:\n      mload(0x40)\n      tag_49\n      swap2\n      swap1\n      tag_50\n      jump\t// in\n    tag_49:\n      mload(0x40)\n      dup1\n      swap2\n      sub\n      swap1\n      return\n        /* \"contracts/Store.sol\":925:1122  function updateProductQuantity(uint id, uint quantity) public onlyOwner {\r... */\n    tag_11:\n      tag_51\n      0x04\n      dup1\n      calldatasize\n      sub\n      dup2\n      add\n      swap1\n      tag_52\n      swap2\n      swap1\n      tag_25\n      jump\t// in\n    tag_52:\n      tag_53\n      jump\t// in\n    tag_51:\n      stop\n        /* \"contracts/Store.sol\":508:917  function addNewProduct(string calldata name, uint quantity, uint price) public onlyOwner {\r... */\n    tag_16:\n        /* \"contracts/Ownable.sol\":236:241  owner */\n      0x00\n      dup1\n      sload\n      swap1\n      0x0100\n      exp\n      swap1\n      div\n      0xffffffffffffffffffffffffffffffffffffffff\n      and\n        /* \"contracts/Ownable.sol\":222:241  msg.sender == owner */\n      0xffffffffffffffffffffffffffffffffffffffff\n      and\n        /* \"contracts/Ownable.sol\":222:232  msg.sender */\n      caller\n        /* \"contracts/Ownable.sol\":222:241  msg.sender == owner */\n      0xffffffffffffffffffffffffffffffffffffffff\n      and\n      eq\n        /* \"contracts/Ownable.sol\":214:268  require(msg.sender == owner, \"You are not the owner!\") */\n      tag_55\n      jumpi\n      mload(0x40)\n      0x08c379a000000000000000000000000000000000000000000000000000000000\n      dup2\n      mstore\n      0x04\n      add\n      tag_56\n      swap1\n      tag_57\n      jump\t// in\n    tag_56:\n      mload(0x40)\n      dup1\n      swap2\n      sub\n      swap1\n      revert\n    tag_55:\n        /* \"contracts/Store.sol\":638:639  0 */\n      0x00\n        /* \"contracts/Store.sol\":622:626  name */\n      dup5\n      dup5\n        /* \"contracts/Store.sol\":616:634  bytes(name).length */\n      swap1\n      pop\n        /* \"contracts/Store.sol\":616:639  bytes(name).length != 0 */\n      eq\n      iszero\n        /* \"contracts/Store.sol\":616:652  bytes(name).length != 0 && price > 0 */\n      dup1\n      iszero\n      tag_59\n      jumpi\n      pop\n        /* \"contracts/Store.sol\":651:652  0 */\n      0x00\n        /* \"contracts/Store.sol\":643:648  price */\n      dup2\n        /* \"contracts/Store.sol\":643:652  price > 0 */\n      gt\n        /* \"contracts/Store.sol\":616:652  bytes(name).length != 0 && price > 0 */\n    tag_59:\n        /* \"contracts/Store.sol\":608:653  require(bytes(name).length != 0 && price > 0) */\n      tag_60\n      jumpi\n      0x00\n      dup1\n      revert\n    tag_60:\n        /* \"contracts/Store.sol\":673:695  availableProductsNames */\n      0x03\n        /* \"contracts/Store.sol\":696:700  name */\n      dup5\n      dup5\n        /* \"contracts/Store.sol\":673:701  availableProductsNames[name] */\n      mload(0x40)\n      tag_61\n      swap3\n      swap2\n      swap1\n      tag_62\n      jump\t// in\n    tag_61:\n      swap1\n      dup2\n      mstore\n      0x20\n      add\n      mload(0x40)\n      dup1\n      swap2\n      sub\n      swap1\n      keccak256\n      0x00\n      swap1\n      sload\n      swap1\n      0x0100\n      exp\n      swap1\n      div\n      0xff\n      and\n        /* \"contracts/Store.sol\":672:701  !availableProductsNames[name] */\n      iszero\n        /* \"contracts/Store.sol\":664:742  require(!availableProductsNames[name], \"The product is already in the store!\") */\n      tag_63\n      jumpi\n      mload(0x40)\n      0x08c379a000000000000000000000000000000000000000000000000000000000\n      dup2\n      mstore\n      0x04\n      add\n      tag_64\n      swap1\n      tag_65\n      jump\t// in\n    tag_64:\n      mload(0x40)\n      dup1\n      swap2\n      sub\n      swap1\n      revert\n    tag_63:\n        /* \"contracts/Store.sol\":794:798  true */\n      0x01\n        /* \"contracts/Store.sol\":763:785  availableProductsNames */\n      0x03\n        /* \"contracts/Store.sol\":786:790  name */\n      dup6\n      dup6\n        /* \"contracts/Store.sol\":763:791  availableProductsNames[name] */\n      mload(0x40)\n      tag_66\n      swap3\n      swap2\n      swap1\n      tag_62\n      jump\t// in\n    tag_66:\n      swap1\n      dup2\n      mstore\n      0x20\n      add\n      mload(0x40)\n      dup1\n      swap2\n      sub\n      swap1\n      keccak256\n      0x00\n        /* \"contracts/Store.sol\":763:798  availableProductsNames[name] = true */\n      0x0100\n      exp\n      dup2\n      sload\n      dup2\n      0xff\n      mul\n      not\n      and\n      swap1\n      dup4\n      iszero\n      iszero\n      mul\n      or\n      swap1\n      sstore\n      pop\n        /* \"contracts/Store.sol\":849:853  true */\n      0x01\n        /* \"contracts/Store.sol\":809:829  availableProductsIds */\n      0x02\n        /* \"contracts/Store.sol\":809:846  availableProductsIds[products.length] */\n      0x00\n        /* \"contracts/Store.sol\":830:838  products */\n      0x01\n        /* \"contracts/Store.sol\":830:845  products.length */\n      dup1\n      sload\n      swap1\n      pop\n        /* \"contracts/Store.sol\":809:846  availableProductsIds[products.length] */\n      dup2\n      mstore\n      0x20\n      add\n      swap1\n      dup2\n      mstore\n      0x20\n      add\n      0x00\n      keccak256\n      0x00\n        /* \"contracts/Store.sol\":809:853  availableProductsIds[products.length] = true */\n      0x0100\n      exp\n      dup2\n      sload\n      dup2\n      0xff\n      mul\n      not\n      and\n      swap1\n      dup4\n      iszero\n      iszero\n      mul\n      or\n      swap1\n      sstore\n      pop\n        /* \"contracts/Store.sol\":864:872  products */\n      0x01\n        /* \"contracts/Store.sol\":878:908  Product(name, quantity, price) */\n      mload(0x40)\n      dup1\n      0x60\n      add\n      0x40\n      mstore\n      dup1\n        /* \"contracts/Store.sol\":886:890  name */\n      dup7\n      dup7\n        /* \"contracts/Store.sol\":878:908  Product(name, quantity, price) */\n      dup1\n      dup1\n      0x1f\n      add\n      0x20\n      dup1\n      swap2\n      div\n      mul\n      0x20\n      add\n      mload(0x40)\n      swap1\n      dup2\n      add\n      0x40\n      mstore\n      dup1\n      swap4\n      swap3\n      swap2\n      swap1\n      dup2\n      dup2\n      mstore\n      0x20\n      add\n      dup4\n      dup4\n      dup1\n      dup3\n      dup5\n      calldatacopy\n      0x00\n      dup2\n      dup5\n      add\n      mstore\n      not(0x1f)\n      0x1f\n      dup3\n      add\n      and\n      swap1\n      pop\n      dup1\n      dup4\n      add\n      swap3\n      pop\n      pop\n      pop\n      pop\n      pop\n      pop\n      pop\n      dup2\n      mstore\n      0x20\n      add\n        /* \"contracts/Store.sol\":892:900  quantity */\n      dup5\n        /* \"contracts/Store.sol\":878:908  Product(name, quantity, price) */\n      dup2\n      mstore\n      0x20\n      add\n        /* \"contracts/Store.sol\":902:907  price */\n      dup4\n        /* \"contracts/Store.sol\":878:908  Product(name, quantity, price) */\n      dup2\n      mstore\n      pop\n        /* \"contracts/Store.sol\":864:909  products.push(Product(name, quantity, price)) */\n      swap1\n      dup1\n      0x01\n      dup2\n      sload\n      add\n      dup1\n      dup3\n      sstore\n      dup1\n      swap2\n      pop\n      pop\n      0x01\n      swap1\n      sub\n      swap1\n      0x00\n      mstore\n      keccak256(0x00, 0x20)\n      swap1\n      0x03\n      mul\n      add\n      0x00\n      swap1\n      swap2\n      swap1\n      swap2\n      swap1\n      swap2\n      pop\n      0x00\n      dup3\n      add\n      mload\n      dup2\n      0x00\n      add\n      swap1\n      dup1\n      mload\n      swap1\n      0x20\n      add\n      swap1\n      tag_68\n      swap3\n      swap2\n      swap1\n      tag_69\n      jump\t// in\n    tag_68:\n      pop\n      0x20\n      dup3\n      add\n      mload\n      dup2\n      0x01\n      add\n      sstore\n      0x40\n      dup3\n      add\n      mload\n      dup2\n      0x02\n      add\n      sstore\n      pop\n      pop\n        /* \"contracts/Store.sol\":508:917  function addNewProduct(string calldata name, uint quantity, uint price) public onlyOwner {\r... */\n      pop\n      pop\n      pop\n      pop\n      jump\t// out\n        /* \"contracts/Store.sol\":312:365  mapping(string => bool) public availableProductsNames */\n    tag_20:\n      0x03\n      dup2\n      dup1\n      mload\n      0x20\n      dup2\n      add\n      dup3\n      add\n      dup1\n      mload\n      dup5\n      dup3\n      mstore\n      0x20\n      dup4\n      add\n      0x20\n      dup6\n      add\n      keccak256\n      dup2\n      dup4\n      mstore\n      dup1\n      swap6\n      pop\n      pop\n      pop\n      pop\n      pop\n      pop\n      0x00\n      swap2\n      pop\n      sload\n      swap1\n      0x0100\n      exp\n      swap1\n      div\n      0xff\n      and\n      dup2\n      jump\t// out\n        /* \"contracts/Store.sol\":1233:1929  function buyProduct(uint id, uint quantity) public {\r... */\n    tag_26:\n        /* \"contracts/Store.sol\":1303:1323  availableProductsIds */\n      0x02\n        /* \"contracts/Store.sol\":1303:1327  availableProductsIds[id] */\n      0x00\n        /* \"contracts/Store.sol\":1324:1326  id */\n      dup4\n        /* \"contracts/Store.sol\":1303:1327  availableProductsIds[id] */\n      dup2\n      mstore\n      0x20\n      add\n      swap1\n      dup2\n      mstore\n      0x20\n      add\n      0x00\n      keccak256\n      0x00\n      swap1\n      sload\n      swap1\n      0x0100\n      exp\n      swap1\n      div\n      0xff\n      and\n        /* \"contracts/Store.sol\":1295:1356  require(availableProductsIds[id], \"Product does not exists!\") */\n      tag_71\n      jumpi\n      mload(0x40)\n      0x08c379a000000000000000000000000000000000000000000000000000000000\n      dup2\n      mstore\n      0x04\n      add\n      tag_72\n      swap1\n      tag_73\n      jump\t// in\n    tag_72:\n      mload(0x40)\n      dup1\n      swap2\n      sub\n      swap1\n      revert\n    tag_71:\n        /* \"contracts/Store.sol\":1469:1470  0 */\n      0x00\n        /* \"contracts/Store.sol\":1433:1450  productsPurchases */\n      0x04\n        /* \"contracts/Store.sol\":1433:1454  productsPurchases[id] */\n      0x00\n        /* \"contracts/Store.sol\":1451:1453  id */\n      dup5\n        /* \"contracts/Store.sol\":1433:1454  productsPurchases[id] */\n      dup2\n      mstore\n      0x20\n      add\n      swap1\n      dup2\n      mstore\n      0x20\n      add\n      0x00\n      keccak256\n        /* \"contracts/Store.sol\":1433:1466  productsPurchases[id][msg.sender] */\n      0x00\n        /* \"contracts/Store.sol\":1455:1465  msg.sender */\n      caller\n        /* \"contracts/Store.sol\":1433:1466  productsPurchases[id][msg.sender] */\n      0xffffffffffffffffffffffffffffffffffffffff\n      and\n      0xffffffffffffffffffffffffffffffffffffffff\n      and\n      dup2\n      mstore\n      0x20\n      add\n      swap1\n      dup2\n      mstore\n      0x20\n      add\n      0x00\n      keccak256\n      sload\n        /* \"contracts/Store.sol\":1433:1470  productsPurchases[id][msg.sender] > 0 */\n      gt\n        /* \"contracts/Store.sol\":1429:1553  if (productsPurchases[id][msg.sender] > 0) {\r... */\n      iszero\n      tag_74\n      jumpi\n        /* \"contracts/Store.sol\":1495:1499  true */\n      0x01\n        /* \"contracts/Store.sol\":1487:1541  require(true, \"You have already bought this product!\") */\n      tag_75\n      jumpi\n      mload(0x40)\n      0x08c379a000000000000000000000000000000000000000000000000000000000\n      dup2\n      mstore\n      0x04\n      add\n      tag_76\n      swap1\n      tag_77\n      jump\t// in\n    tag_76:\n      mload(0x40)\n      dup1\n      swap2\n      sub\n      swap1\n      revert\n    tag_75:\n        /* \"contracts/Store.sol\":1429:1553  if (productsPurchases[id][msg.sender] > 0) {\r... */\n    tag_74:\n        /* \"contracts/Store.sol\":1565:1595  Product storage currentProduct */\n      0x00\n        /* \"contracts/Store.sol\":1598:1606  products */\n      0x01\n        /* \"contracts/Store.sol\":1607:1609  id */\n      dup4\n        /* \"contracts/Store.sol\":1598:1610  products[id] */\n      dup2\n      sload\n      dup2\n      lt\n      tag_78\n      jumpi\n      tag_79\n      tag_80\n      jump\t// in\n    tag_79:\n    tag_78:\n      swap1\n      0x00\n      mstore\n      keccak256(0x00, 0x20)\n      swap1\n      0x03\n      mul\n      add\n        /* \"contracts/Store.sol\":1565:1610  Product storage currentProduct = products[id] */\n      swap1\n      pop\n        /* \"contracts/Store.sol\":1658:1666  quantity */\n      dup2\n        /* \"contracts/Store.sol\":1631:1645  currentProduct */\n      dup2\n        /* \"contracts/Store.sol\":1631:1654  currentProduct.quantity */\n      0x01\n      add\n      sload\n        /* \"contracts/Store.sol\":1631:1666  currentProduct.quantity >= quantity */\n      lt\n      iszero\n        /* \"contracts/Store.sol\":1623:1716  require(currentProduct.quantity >= quantity, \"The product quantity is less than you wanted!\") */\n      tag_82\n      jumpi\n      mload(0x40)\n      0x08c379a000000000000000000000000000000000000000000000000000000000\n      dup2\n      mstore\n      0x04\n      add\n      tag_83\n      swap1\n      tag_84\n      jump\t// in\n    tag_83:\n      mload(0x40)\n      dup1\n      swap2\n      sub\n      swap1\n      revert\n    tag_82:\n        /* \"contracts/Store.sol\":1811:1819  quantity */\n      dup2\n        /* \"contracts/Store.sol\":1775:1792  productsPurchases */\n      0x04\n        /* \"contracts/Store.sol\":1775:1796  productsPurchases[id] */\n      0x00\n        /* \"contracts/Store.sol\":1793:1795  id */\n      dup6\n        /* \"contracts/Store.sol\":1775:1796  productsPurchases[id] */\n      dup2\n      mstore\n      0x20\n      add\n      swap1\n      dup2\n      mstore\n      0x20\n      add\n      0x00\n      keccak256\n        /* \"contracts/Store.sol\":1775:1808  productsPurchases[id][msg.sender] */\n      0x00\n        /* \"contracts/Store.sol\":1797:1807  msg.sender */\n      caller\n        /* \"contracts/Store.sol\":1775:1808  productsPurchases[id][msg.sender] */\n      0xffffffffffffffffffffffffffffffffffffffff\n      and\n      0xffffffffffffffffffffffffffffffffffffffff\n      and\n      dup2\n      mstore\n      0x20\n      add\n      swap1\n      dup2\n      mstore\n      0x20\n      add\n      0x00\n      keccak256\n        /* \"contracts/Store.sol\":1775:1819  productsPurchases[id][msg.sender] = quantity */\n      dup2\n      swap1\n      sstore\n      pop\n        /* \"contracts/Store.sol\":1913:1921  quantity */\n      dup2\n        /* \"contracts/Store.sol\":1888:1896  products */\n      0x01\n        /* \"contracts/Store.sol\":1897:1899  id */\n      dup5\n        /* \"contracts/Store.sol\":1888:1900  products[id] */\n      dup2\n      sload\n      dup2\n      lt\n      tag_85\n      jumpi\n      tag_86\n      tag_80\n      jump\t// in\n    tag_86:\n    tag_85:\n      swap1\n      0x00\n      mstore\n      keccak256(0x00, 0x20)\n      swap1\n      0x03\n      mul\n      add\n        /* \"contracts/Store.sol\":1888:1909  products[id].quantity */\n      0x01\n      add\n      0x00\n        /* \"contracts/Store.sol\":1888:1921  products[id].quantity -= quantity */\n      dup3\n      dup3\n      sload\n      tag_88\n      swap2\n      swap1\n      tag_89\n      jump\t// in\n    tag_88:\n      swap3\n      pop\n      pop\n      dup2\n      swap1\n      sstore\n      pop\n        /* \"contracts/Store.sol\":1284:1929  {\r... */\n      pop\n        /* \"contracts/Store.sol\":1233:1929  function buyProduct(uint id, uint quantity) public {\r... */\n      pop\n      pop\n      jump\t// out\n        /* \"contracts/Store.sol\":256:305  mapping(uint => bool) public availableProductsIds */\n    tag_30:\n      mstore(0x20, 0x02)\n      dup1\n      0x00\n      mstore\n      keccak256(0x00, 0x40)\n      0x00\n      swap2\n      pop\n      sload\n      swap1\n      0x0100\n      exp\n      swap1\n      div\n      0xff\n      and\n      dup2\n      jump\t// out\n        /* \"contracts/Store.sol\":224:249  Product[] public products */\n    tag_34:\n      0x01\n      dup2\n      dup2\n      sload\n      dup2\n      lt\n      tag_90\n      jumpi\n      0x00\n      dup1\n      revert\n    tag_90:\n      swap1\n      0x00\n      mstore\n      keccak256(0x00, 0x20)\n      swap1\n      0x03\n      mul\n      add\n      0x00\n      swap2\n      pop\n      swap1\n      pop\n      dup1\n      0x00\n      add\n      dup1\n      sload\n      tag_92\n      swap1\n      tag_93\n      jump\t// in\n    tag_92:\n      dup1\n      0x1f\n      add\n      0x20\n      dup1\n      swap2\n      div\n      mul\n      0x20\n      add\n      mload(0x40)\n      swap1\n      dup2\n      add\n      0x40\n      mstore\n      dup1\n      swap3\n      swap2\n      swap1\n      dup2\n      dup2\n      mstore\n      0x20\n      add\n      dup3\n      dup1\n      sload\n      tag_94\n      swap1\n      tag_93\n      jump\t// in\n    tag_94:\n      dup1\n      iszero\n      tag_95\n      jumpi\n      dup1\n      0x1f\n      lt\n      tag_96\n      jumpi\n      0x0100\n      dup1\n      dup4\n      sload\n      div\n      mul\n      dup4\n      mstore\n      swap2\n      0x20\n      add\n      swap2\n      jump(tag_95)\n    tag_96:\n      dup3\n      add\n      swap2\n      swap1\n      0x00\n      mstore\n      keccak256(0x00, 0x20)\n      swap1\n    tag_97:\n      dup2\n      sload\n      dup2\n      mstore\n      swap1\n      0x01\n      add\n      swap1\n      0x20\n      add\n      dup1\n      dup4\n      gt\n      tag_97\n      jumpi\n      dup3\n      swap1\n      sub\n      0x1f\n      and\n      dup3\n      add\n      swap2\n    tag_95:\n      pop\n      pop\n      pop\n      pop\n      pop\n      swap1\n      dup1\n      0x01\n      add\n      sload\n      swap1\n      dup1\n      0x02\n      add\n      sload\n      swap1\n      pop\n      dup4\n      jump\t// out\n        /* \"contracts/Ownable.sol\":90:110  address public owner */\n    tag_38:\n      0x00\n      dup1\n      sload\n      swap1\n      0x0100\n      exp\n      swap1\n      div\n      0xffffffffffffffffffffffffffffffffffffffff\n      and\n      dup2\n      jump\t// out\n        /* \"contracts/Store.sol\":1130:1225  function getProducts() public view returns(Product[] memory) {\r... */\n    tag_42:\n        /* \"contracts/Store.sol\":1173:1189  Product[] memory */\n      0x60\n        /* \"contracts/Store.sol\":1209:1217  products */\n      0x01\n        /* \"contracts/Store.sol\":1202:1217  return products */\n      dup1\n      sload\n      dup1\n      0x20\n      mul\n      0x20\n      add\n      mload(0x40)\n      swap1\n      dup2\n      add\n      0x40\n      mstore\n      dup1\n      swap3\n      swap2\n      swap1\n      dup2\n      dup2\n      mstore\n      0x20\n      add\n      0x00\n      swap1\n    tag_99:\n      dup3\n      dup3\n      lt\n      iszero\n      tag_100\n      jumpi\n      dup4\n      dup3\n      swap1\n      0x00\n      mstore\n      keccak256(0x00, 0x20)\n      swap1\n      0x03\n      mul\n      add\n      mload(0x40)\n      dup1\n      0x60\n      add\n      0x40\n      mstore\n      swap1\n      dup2\n      0x00\n      dup3\n      add\n      dup1\n      sload\n      tag_102\n      swap1\n      tag_93\n      jump\t// in\n    tag_102:\n      dup1\n      0x1f\n      add\n      0x20\n      dup1\n      swap2\n      div\n      mul\n      0x20\n      add\n      mload(0x40)\n      swap1\n      dup2\n      add\n      0x40\n      mstore\n      dup1\n      swap3\n      swap2\n      swap1\n      dup2\n      dup2\n      mstore\n      0x20\n      add\n      dup3\n      dup1\n      sload\n      tag_103\n      swap1\n      tag_93\n      jump\t// in\n    tag_103:\n      dup1\n      iszero\n      tag_104\n      jumpi\n      dup1\n      0x1f\n      lt\n      tag_105\n      jumpi\n      0x0100\n      dup1\n      dup4\n      sload\n      div\n      mul\n      dup4\n      mstore\n      swap2\n      0x20\n      add\n      swap2\n      jump(tag_104)\n    tag_105:\n      dup3\n      add\n      swap2\n      swap1\n      0x00\n      mstore\n      keccak256(0x00, 0x20)\n      swap1\n    tag_106:\n      dup2\n      sload\n      dup2\n      mstore\n      swap1\n      0x01\n      add\n      swap1\n      0x20\n      add\n      dup1\n      dup4\n      gt\n      tag_106\n      jumpi\n      dup3\n      swap1\n      sub\n      0x1f\n      and\n      dup3\n      add\n      swap2\n    tag_104:\n      pop\n      pop\n      pop\n      pop\n      pop\n      dup2\n      mstore\n      0x20\n      add\n      0x01\n      dup3\n      add\n      sload\n      dup2\n      mstore\n      0x20\n      add\n      0x02\n      dup3\n      add\n      sload\n      dup2\n      mstore\n      pop\n      pop\n      dup2\n      mstore\n      0x20\n      add\n      swap1\n      0x01\n      add\n      swap1\n      jump(tag_99)\n    tag_100:\n      pop\n      pop\n      pop\n      pop\n      swap1\n      pop\n        /* \"contracts/Store.sol\":1130:1225  function getProducts() public view returns(Product[] memory) {\r... */\n      swap1\n      jump\t// out\n        /* \"contracts/Store.sol\":433:499  mapping(uint => mapping(address => uint)) public productsPurchases */\n    tag_48:\n      mstore(0x20, 0x04)\n      dup2\n      0x00\n      mstore\n      mstore(0x20, keccak256(0x00, 0x40))\n      dup1\n      0x00\n      mstore\n      keccak256(0x00, 0x40)\n      0x00\n      swap2\n      pop\n      swap2\n      pop\n      pop\n      sload\n      dup2\n      jump\t// out\n        /* \"contracts/Store.sol\":925:1122  function updateProductQuantity(uint id, uint quantity) public onlyOwner {\r... */\n    tag_53:\n        /* \"contracts/Ownable.sol\":236:241  owner */\n      0x00\n      dup1\n      sload\n      swap1\n      0x0100\n      exp\n      swap1\n      div\n      0xffffffffffffffffffffffffffffffffffffffff\n      and\n        /* \"contracts/Ownable.sol\":222:241  msg.sender == owner */\n      0xffffffffffffffffffffffffffffffffffffffff\n      and\n        /* \"contracts/Ownable.sol\":222:232  msg.sender */\n      caller\n        /* \"contracts/Ownable.sol\":222:241  msg.sender == owner */\n      0xffffffffffffffffffffffffffffffffffffffff\n      and\n      eq\n        /* \"contracts/Ownable.sol\":214:268  require(msg.sender == owner, \"You are not the owner!\") */\n      tag_108\n      jumpi\n      mload(0x40)\n      0x08c379a000000000000000000000000000000000000000000000000000000000\n      dup2\n      mstore\n      0x04\n      add\n      tag_109\n      swap1\n      tag_57\n      jump\t// in\n    tag_109:\n      mload(0x40)\n      dup1\n      swap2\n      sub\n      swap1\n      revert\n    tag_108:\n        /* \"contracts/Store.sol\":1021:1029  products */\n      0x01\n        /* \"contracts/Store.sol\":1021:1036  products.length */\n      dup1\n      sload\n      swap1\n      pop\n        /* \"contracts/Store.sol\":1016:1018  id */\n      dup3\n        /* \"contracts/Store.sol\":1016:1036  id < products.length */\n      lt\n        /* \"contracts/Store.sol\":1008:1069  require(id < products.length, \"The product is not existing!\") */\n      tag_111\n      jumpi\n      mload(0x40)\n      0x08c379a000000000000000000000000000000000000000000000000000000000\n      dup2\n      mstore\n      0x04\n      add\n      tag_112\n      swap1\n      tag_113\n      jump\t// in\n    tag_112:\n      mload(0x40)\n      dup1\n      swap2\n      sub\n      swap1\n      revert\n    tag_111:\n        /* \"contracts/Store.sol\":1106:1114  quantity */\n      dup1\n        /* \"contracts/Store.sol\":1082:1090  products */\n      0x01\n        /* \"contracts/Store.sol\":1091:1093  id */\n      dup4\n        /* \"contracts/Store.sol\":1082:1094  products[id] */\n      dup2\n      sload\n      dup2\n      lt\n      tag_114\n      jumpi\n      tag_115\n      tag_80\n      jump\t// in\n    tag_115:\n    tag_114:\n      swap1\n      0x00\n      mstore\n      keccak256(0x00, 0x20)\n      swap1\n      0x03\n      mul\n      add\n        /* \"contracts/Store.sol\":1082:1103  products[id].quantity */\n      0x01\n      add\n        /* \"contracts/Store.sol\":1082:1114  products[id].quantity = quantity */\n      dup2\n      swap1\n      sstore\n      pop\n        /* \"contracts/Store.sol\":925:1122  function updateProductQuantity(uint id, uint quantity) public onlyOwner {\r... */\n      pop\n      pop\n      jump\t// out\n    tag_69:\n      dup3\n      dup1\n      sload\n      tag_117\n      swap1\n      tag_93\n      jump\t// in\n    tag_117:\n      swap1\n      0x00\n      mstore\n      keccak256(0x00, 0x20)\n      swap1\n      0x1f\n      add\n      0x20\n      swap1\n      div\n      dup2\n      add\n      swap3\n      dup3\n      tag_119\n      jumpi\n      0x00\n      dup6\n      sstore\n      jump(tag_118)\n    tag_119:\n      dup3\n      0x1f\n      lt\n      tag_120\n      jumpi\n      dup1\n      mload\n      not(0xff)\n      and\n      dup4\n      dup1\n      add\n      or\n      dup6\n      sstore\n      jump(tag_118)\n    tag_120:\n      dup3\n      dup1\n      add\n      0x01\n      add\n      dup6\n      sstore\n      dup3\n      iszero\n      tag_118\n      jumpi\n      swap2\n      dup3\n      add\n    tag_121:\n      dup3\n      dup2\n      gt\n      iszero\n      tag_122\n      jumpi\n      dup3\n      mload\n      dup3\n      sstore\n      swap2\n      0x20\n      add\n      swap2\n      swap1\n      0x01\n      add\n      swap1\n      jump(tag_121)\n    tag_122:\n    tag_118:\n      pop\n      swap1\n      pop\n      tag_123\n      swap2\n      swap1\n      tag_124\n      jump\t// in\n    tag_123:\n      pop\n      swap1\n      jump\t// out\n    tag_124:\n    tag_125:\n      dup1\n      dup3\n      gt\n      iszero\n      tag_126\n      jumpi\n      0x00\n      dup2\n      0x00\n      swap1\n      sstore\n      pop\n      0x01\n      add\n      jump(tag_125)\n    tag_126:\n      pop\n      swap1\n      jump\t// out\n        /* \"#utility.yul\":7:419   */\n    tag_128:\n        /* \"#utility.yul\":85:90   */\n      0x00\n        /* \"#utility.yul\":110:176   */\n      tag_130\n        /* \"#utility.yul\":126:175   */\n      tag_131\n        /* \"#utility.yul\":168:174   */\n      dup5\n        /* \"#utility.yul\":126:175   */\n      tag_132\n      jump\t// in\n    tag_131:\n        /* \"#utility.yul\":110:176   */\n      tag_133\n      jump\t// in\n    tag_130:\n        /* \"#utility.yul\":101:176   */\n      swap1\n      pop\n        /* \"#utility.yul\":199:205   */\n      dup3\n        /* \"#utility.yul\":192:197   */\n      dup2\n        /* \"#utility.yul\":185:206   */\n      mstore\n        /* \"#utility.yul\":237:241   */\n      0x20\n        /* \"#utility.yul\":230:235   */\n      dup2\n        /* \"#utility.yul\":226:242   */\n      add\n        /* \"#utility.yul\":275:278   */\n      dup5\n        /* \"#utility.yul\":266:272   */\n      dup5\n        /* \"#utility.yul\":261:264   */\n      dup5\n        /* \"#utility.yul\":257:273   */\n      add\n        /* \"#utility.yul\":254:279   */\n      gt\n        /* \"#utility.yul\":251:363   */\n      iszero\n      tag_134\n      jumpi\n        /* \"#utility.yul\":282:361   */\n      tag_135\n      tag_136\n      jump\t// in\n    tag_135:\n        /* \"#utility.yul\":251:363   */\n    tag_134:\n        /* \"#utility.yul\":372:413   */\n      tag_137\n        /* \"#utility.yul\":406:412   */\n      dup5\n        /* \"#utility.yul\":401:404   */\n      dup3\n        /* \"#utility.yul\":396:399   */\n      dup6\n        /* \"#utility.yul\":372:413   */\n      tag_138\n      jump\t// in\n    tag_137:\n        /* \"#utility.yul\":91:419   */\n      pop\n        /* \"#utility.yul\":7:419   */\n      swap4\n      swap3\n      pop\n      pop\n      pop\n      jump\t// out\n        /* \"#utility.yul\":425:564   */\n    tag_139:\n        /* \"#utility.yul\":471:476   */\n      0x00\n        /* \"#utility.yul\":509:515   */\n      dup2\n        /* \"#utility.yul\":496:516   */\n      calldataload\n        /* \"#utility.yul\":487:516   */\n      swap1\n      pop\n        /* \"#utility.yul\":525:558   */\n      tag_141\n        /* \"#utility.yul\":552:557   */\n      dup2\n        /* \"#utility.yul\":525:558   */\n      tag_142\n      jump\t// in\n    tag_141:\n        /* \"#utility.yul\":425:564   */\n      swap3\n      swap2\n      pop\n      pop\n      jump\t// out\n        /* \"#utility.yul\":584:1137   */\n    tag_143:\n        /* \"#utility.yul\":642:650   */\n      0x00\n        /* \"#utility.yul\":652:658   */\n      dup1\n        /* \"#utility.yul\":702:705   */\n      dup4\n        /* \"#utility.yul\":695:699   */\n      0x1f\n        /* \"#utility.yul\":687:693   */\n      dup5\n        /* \"#utility.yul\":683:700   */\n      add\n        /* \"#utility.yul\":679:706   */\n      slt\n        /* \"#utility.yul\":669:791   */\n      tag_145\n      jumpi\n        /* \"#utility.yul\":710:789   */\n      tag_146\n      tag_147\n      jump\t// in\n    tag_146:\n        /* \"#utility.yul\":669:791   */\n    tag_145:\n        /* \"#utility.yul\":823:829   */\n      dup3\n        /* \"#utility.yul\":810:830   */\n      calldataload\n        /* \"#utility.yul\":800:830   */\n      swap1\n      pop\n        /* \"#utility.yul\":853:871   */\n      0xffffffffffffffff\n        /* \"#utility.yul\":845:851   */\n      dup2\n        /* \"#utility.yul\":842:872   */\n      gt\n        /* \"#utility.yul\":839:956   */\n      iszero\n      tag_148\n      jumpi\n        /* \"#utility.yul\":875:954   */\n      tag_149\n      tag_150\n      jump\t// in\n    tag_149:\n        /* \"#utility.yul\":839:956   */\n    tag_148:\n        /* \"#utility.yul\":989:993   */\n      0x20\n        /* \"#utility.yul\":981:987   */\n      dup4\n        /* \"#utility.yul\":977:994   */\n      add\n        /* \"#utility.yul\":965:994   */\n      swap2\n      pop\n        /* \"#utility.yul\":1043:1046   */\n      dup4\n        /* \"#utility.yul\":1035:1039   */\n      0x01\n        /* \"#utility.yul\":1027:1033   */\n      dup3\n        /* \"#utility.yul\":1023:1040   */\n      mul\n        /* \"#utility.yul\":1013:1021   */\n      dup4\n        /* \"#utility.yul\":1009:1041   */\n      add\n        /* \"#utility.yul\":1006:1047   */\n      gt\n        /* \"#utility.yul\":1003:1131   */\n      iszero\n      tag_151\n      jumpi\n        /* \"#utility.yul\":1050:1129   */\n      tag_152\n      tag_153\n      jump\t// in\n    tag_152:\n        /* \"#utility.yul\":1003:1131   */\n    tag_151:\n        /* \"#utility.yul\":584:1137   */\n      swap3\n      pop\n      swap3\n      swap1\n      pop\n      jump\t// out\n        /* \"#utility.yul\":1157:1497   */\n    tag_154:\n        /* \"#utility.yul\":1213:1218   */\n      0x00\n        /* \"#utility.yul\":1262:1265   */\n      dup3\n        /* \"#utility.yul\":1255:1259   */\n      0x1f\n        /* \"#utility.yul\":1247:1253   */\n      dup4\n        /* \"#utility.yul\":1243:1260   */\n      add\n        /* \"#utility.yul\":1239:1266   */\n      slt\n        /* \"#utility.yul\":1229:1351   */\n      tag_156\n      jumpi\n        /* \"#utility.yul\":1270:1349   */\n      tag_157\n      tag_147\n      jump\t// in\n    tag_157:\n        /* \"#utility.yul\":1229:1351   */\n    tag_156:\n        /* \"#utility.yul\":1387:1393   */\n      dup2\n        /* \"#utility.yul\":1374:1394   */\n      calldataload\n        /* \"#utility.yul\":1412:1491   */\n      tag_158\n        /* \"#utility.yul\":1487:1490   */\n      dup5\n        /* \"#utility.yul\":1479:1485   */\n      dup3\n        /* \"#utility.yul\":1472:1476   */\n      0x20\n        /* \"#utility.yul\":1464:1470   */\n      dup7\n        /* \"#utility.yul\":1460:1477   */\n      add\n        /* \"#utility.yul\":1412:1491   */\n      tag_128\n      jump\t// in\n    tag_158:\n        /* \"#utility.yul\":1403:1491   */\n      swap2\n      pop\n        /* \"#utility.yul\":1219:1497   */\n      pop\n        /* \"#utility.yul\":1157:1497   */\n      swap3\n      swap2\n      pop\n      pop\n      jump\t// out\n        /* \"#utility.yul\":1503:1642   */\n    tag_159:\n        /* \"#utility.yul\":1549:1554   */\n      0x00\n        /* \"#utility.yul\":1587:1593   */\n      dup2\n        /* \"#utility.yul\":1574:1594   */\n      calldataload\n        /* \"#utility.yul\":1565:1594   */\n      swap1\n      pop\n        /* \"#utility.yul\":1603:1636   */\n      tag_161\n        /* \"#utility.yul\":1630:1635   */\n      dup2\n        /* \"#utility.yul\":1603:1636   */\n      tag_162\n      jump\t// in\n    tag_161:\n        /* \"#utility.yul\":1503:1642   */\n      swap3\n      swap2\n      pop\n      pop\n      jump\t// out\n        /* \"#utility.yul\":1648:2467   */\n    tag_15:\n        /* \"#utility.yul\":1737:1743   */\n      0x00\n        /* \"#utility.yul\":1745:1751   */\n      dup1\n        /* \"#utility.yul\":1753:1759   */\n      0x00\n        /* \"#utility.yul\":1761:1767   */\n      dup1\n        /* \"#utility.yul\":1810:1812   */\n      0x60\n        /* \"#utility.yul\":1798:1807   */\n      dup6\n        /* \"#utility.yul\":1789:1796   */\n      dup8\n        /* \"#utility.yul\":1785:1808   */\n      sub\n        /* \"#utility.yul\":1781:1813   */\n      slt\n        /* \"#utility.yul\":1778:1897   */\n      iszero\n      tag_164\n      jumpi\n        /* \"#utility.yul\":1816:1895   */\n      tag_165\n      tag_166\n      jump\t// in\n    tag_165:\n        /* \"#utility.yul\":1778:1897   */\n    tag_164:\n        /* \"#utility.yul\":1964:1965   */\n      0x00\n        /* \"#utility.yul\":1953:1962   */\n      dup6\n        /* \"#utility.yul\":1949:1966   */\n      add\n        /* \"#utility.yul\":1936:1967   */\n      calldataload\n        /* \"#utility.yul\":1994:2012   */\n      0xffffffffffffffff\n        /* \"#utility.yul\":1986:1992   */\n      dup2\n        /* \"#utility.yul\":1983:2013   */\n      gt\n        /* \"#utility.yul\":1980:2097   */\n      iszero\n      tag_167\n      jumpi\n        /* \"#utility.yul\":2016:2095   */\n      tag_168\n      tag_169\n      jump\t// in\n    tag_168:\n        /* \"#utility.yul\":1980:2097   */\n    tag_167:\n        /* \"#utility.yul\":2129:2194   */\n      tag_170\n        /* \"#utility.yul\":2186:2193   */\n      dup8\n        /* \"#utility.yul\":2177:2183   */\n      dup3\n        /* \"#utility.yul\":2166:2175   */\n      dup9\n        /* \"#utility.yul\":2162:2184   */\n      add\n        /* \"#utility.yul\":2129:2194   */\n      tag_143\n      jump\t// in\n    tag_170:\n        /* \"#utility.yul\":2111:2194   */\n      swap5\n      pop\n      swap5\n      pop\n        /* \"#utility.yul\":1907:2204   */\n      pop\n        /* \"#utility.yul\":2243:2245   */\n      0x20\n        /* \"#utility.yul\":2269:2322   */\n      tag_171\n        /* \"#utility.yul\":2314:2321   */\n      dup8\n        /* \"#utility.yul\":2305:2311   */\n      dup3\n        /* \"#utility.yul\":2294:2303   */\n      dup9\n        /* \"#utility.yul\":2290:2312   */\n      add\n        /* \"#utility.yul\":2269:2322   */\n      tag_159\n      jump\t// in\n    tag_171:\n        /* \"#utility.yul\":2259:2322   */\n      swap3\n      pop\n        /* \"#utility.yul\":2214:2332   */\n      pop\n        /* \"#utility.yul\":2371:2373   */\n      0x40\n        /* \"#utility.yul\":2397:2450   */\n      tag_172\n        /* \"#utility.yul\":2442:2449   */\n      dup8\n        /* \"#utility.yul\":2433:2439   */\n      dup3\n        /* \"#utility.yul\":2422:2431   */\n      dup9\n        /* \"#utility.yul\":2418:2440   */\n      add\n        /* \"#utility.yul\":2397:2450   */\n      tag_159\n      jump\t// in\n    tag_172:\n        /* \"#utility.yul\":2387:2450   */\n      swap2\n      pop\n        /* \"#utility.yul\":2342:2460   */\n      pop\n        /* \"#utility.yul\":1648:2467   */\n      swap3\n      swap6\n      swap2\n      swap5\n      pop\n      swap3\n      pop\n      jump\t// out\n        /* \"#utility.yul\":2473:2982   */\n    tag_19:\n        /* \"#utility.yul\":2542:2548   */\n      0x00\n        /* \"#utility.yul\":2591:2593   */\n      0x20\n        /* \"#utility.yul\":2579:2588   */\n      dup3\n        /* \"#utility.yul\":2570:2577   */\n      dup5\n        /* \"#utility.yul\":2566:2589   */\n      sub\n        /* \"#utility.yul\":2562:2594   */\n      slt\n        /* \"#utility.yul\":2559:2678   */\n      iszero\n      tag_174\n      jumpi\n        /* \"#utility.yul\":2597:2676   */\n      tag_175\n      tag_166\n      jump\t// in\n    tag_175:\n        /* \"#utility.yul\":2559:2678   */\n    tag_174:\n        /* \"#utility.yul\":2745:2746   */\n      0x00\n        /* \"#utility.yul\":2734:2743   */\n      dup3\n        /* \"#utility.yul\":2730:2747   */\n      add\n        /* \"#utility.yul\":2717:2748   */\n      calldataload\n        /* \"#utility.yul\":2775:2793   */\n      0xffffffffffffffff\n        /* \"#utility.yul\":2767:2773   */\n      dup2\n        /* \"#utility.yul\":2764:2794   */\n      gt\n        /* \"#utility.yul\":2761:2878   */\n      iszero\n      tag_176\n      jumpi\n        /* \"#utility.yul\":2797:2876   */\n      tag_177\n      tag_169\n      jump\t// in\n    tag_177:\n        /* \"#utility.yul\":2761:2878   */\n    tag_176:\n        /* \"#utility.yul\":2902:2965   */\n      tag_178\n        /* \"#utility.yul\":2957:2964   */\n      dup5\n        /* \"#utility.yul\":2948:2954   */\n      dup3\n        /* \"#utility.yul\":2937:2946   */\n      dup6\n        /* \"#utility.yul\":2933:2955   */\n      add\n        /* \"#utility.yul\":2902:2965   */\n      tag_154\n      jump\t// in\n    tag_178:\n        /* \"#utility.yul\":2892:2965   */\n      swap2\n      pop\n        /* \"#utility.yul\":2688:2975   */\n      pop\n        /* \"#utility.yul\":2473:2982   */\n      swap3\n      swap2\n      pop\n      pop\n      jump\t// out\n        /* \"#utility.yul\":2988:3317   */\n    tag_29:\n        /* \"#utility.yul\":3047:3053   */\n      0x00\n        /* \"#utility.yul\":3096:3098   */\n      0x20\n        /* \"#utility.yul\":3084:3093   */\n      dup3\n        /* \"#utility.yul\":3075:3082   */\n      dup5\n        /* \"#utility.yul\":3071:3094   */\n      sub\n        /* \"#utility.yul\":3067:3099   */\n      slt\n        /* \"#utility.yul\":3064:3183   */\n      iszero\n      tag_180\n      jumpi\n        /* \"#utility.yul\":3102:3181   */\n      tag_181\n      tag_166\n      jump\t// in\n    tag_181:\n        /* \"#utility.yul\":3064:3183   */\n    tag_180:\n        /* \"#utility.yul\":3222:3223   */\n      0x00\n        /* \"#utility.yul\":3247:3300   */\n      tag_182\n        /* \"#utility.yul\":3292:3299   */\n      dup5\n        /* \"#utility.yul\":3283:3289   */\n      dup3\n        /* \"#utility.yul\":3272:3281   */\n      dup6\n        /* \"#utility.yul\":3268:3290   */\n      add\n        /* \"#utility.yul\":3247:3300   */\n      tag_159\n      jump\t// in\n    tag_182:\n        /* \"#utility.yul\":3237:3300   */\n      swap2\n      pop\n        /* \"#utility.yul\":3193:3310   */\n      pop\n        /* \"#utility.yul\":2988:3317   */\n      swap3\n      swap2\n      pop\n      pop\n      jump\t// out\n        /* \"#utility.yul\":3323:3797   */\n    tag_47:\n        /* \"#utility.yul\":3391:3397   */\n      0x00\n        /* \"#utility.yul\":3399:3405   */\n      dup1\n        /* \"#utility.yul\":3448:3450   */\n      0x40\n        /* \"#utility.yul\":3436:3445   */\n      dup4\n        /* \"#utility.yul\":3427:3434   */\n      dup6\n        /* \"#utility.yul\":3423:3446   */\n      sub\n        /* \"#utility.yul\":3419:3451   */\n      slt\n        /* \"#utility.yul\":3416:3535   */\n      iszero\n      tag_184\n      jumpi\n        /* \"#utility.yul\":3454:3533   */\n      tag_185\n      tag_166\n      jump\t// in\n    tag_185:\n        /* \"#utility.yul\":3416:3535   */\n    tag_184:\n        /* \"#utility.yul\":3574:3575   */\n      0x00\n        /* \"#utility.yul\":3599:3652   */\n      tag_186\n        /* \"#utility.yul\":3644:3651   */\n      dup6\n        /* \"#utility.yul\":3635:3641   */\n      dup3\n        /* \"#utility.yul\":3624:3633   */\n      dup7\n        /* \"#utility.yul\":3620:3642   */\n      add\n        /* \"#utility.yul\":3599:3652   */\n      tag_159\n      jump\t// in\n    tag_186:\n        /* \"#utility.yul\":3589:3652   */\n      swap3\n      pop\n        /* \"#utility.yul\":3545:3662   */\n      pop\n        /* \"#utility.yul\":3701:3703   */\n      0x20\n        /* \"#utility.yul\":3727:3780   */\n      tag_187\n        /* \"#utility.yul\":3772:3779   */\n      dup6\n        /* \"#utility.yul\":3763:3769   */\n      dup3\n        /* \"#utility.yul\":3752:3761   */\n      dup7\n        /* \"#utility.yul\":3748:3770   */\n      add\n        /* \"#utility.yul\":3727:3780   */\n      tag_139\n      jump\t// in\n    tag_187:\n        /* \"#utility.yul\":3717:3780   */\n      swap2\n      pop\n        /* \"#utility.yul\":3672:3790   */\n      pop\n        /* \"#utility.yul\":3323:3797   */\n      swap3\n      pop\n      swap3\n      swap1\n      pop\n      jump\t// out\n        /* \"#utility.yul\":3803:4277   */\n    tag_25:\n        /* \"#utility.yul\":3871:3877   */\n      0x00\n        /* \"#utility.yul\":3879:3885   */\n      dup1\n        /* \"#utility.yul\":3928:3930   */\n      0x40\n        /* \"#utility.yul\":3916:3925   */\n      dup4\n        /* \"#utility.yul\":3907:3914   */\n      dup6\n        /* \"#utility.yul\":3903:3926   */\n      sub\n        /* \"#utility.yul\":3899:3931   */\n      slt\n        /* \"#utility.yul\":3896:4015   */\n      iszero\n      tag_189\n      jumpi\n        /* \"#utility.yul\":3934:4013   */\n      tag_190\n      tag_166\n      jump\t// in\n    tag_190:\n        /* \"#utility.yul\":3896:4015   */\n    tag_189:\n        /* \"#utility.yul\":4054:4055   */\n      0x00\n        /* \"#utility.yul\":4079:4132   */\n      tag_191\n        /* \"#utility.yul\":4124:4131   */\n      dup6\n        /* \"#utility.yul\":4115:4121   */\n      dup3\n        /* \"#utility.yul\":4104:4113   */\n      dup7\n        /* \"#utility.yul\":4100:4122   */\n      add\n        /* \"#utility.yul\":4079:4132   */\n      tag_159\n      jump\t// in\n    tag_191:\n        /* \"#utility.yul\":4069:4132   */\n      swap3\n      pop\n        /* \"#utility.yul\":4025:4142   */\n      pop\n        /* \"#utility.yul\":4181:4183   */\n      0x20\n        /* \"#utility.yul\":4207:4260   */\n      tag_192\n        /* \"#utility.yul\":4252:4259   */\n      dup6\n        /* \"#utility.yul\":4243:4249   */\n      dup3\n        /* \"#utility.yul\":4232:4241   */\n      dup7\n        /* \"#utility.yul\":4228:4250   */\n      add\n        /* \"#utility.yul\":4207:4260   */\n      tag_159\n      jump\t// in\n    tag_192:\n        /* \"#utility.yul\":4197:4260   */\n      swap2\n      pop\n        /* \"#utility.yul\":4152:4270   */\n      pop\n        /* \"#utility.yul\":3803:4277   */\n      swap3\n      pop\n      swap3\n      swap1\n      pop\n      jump\t// out\n        /* \"#utility.yul\":4283:4531   */\n    tag_193:\n        /* \"#utility.yul\":4398:4408   */\n      0x00\n        /* \"#utility.yul\":4433:4525   */\n      tag_195\n        /* \"#utility.yul\":4521:4524   */\n      dup4\n        /* \"#utility.yul\":4513:4519   */\n      dup4\n        /* \"#utility.yul\":4433:4525   */\n      tag_196\n      jump\t// in\n    tag_195:\n        /* \"#utility.yul\":4419:4525   */\n      swap1\n      pop\n        /* \"#utility.yul\":4283:4531   */\n      swap3\n      swap2\n      pop\n      pop\n      jump\t// out\n        /* \"#utility.yul\":4537:4655   */\n    tag_197:\n        /* \"#utility.yul\":4624:4648   */\n      tag_199\n        /* \"#utility.yul\":4642:4647   */\n      dup2\n        /* \"#utility.yul\":4624:4648   */\n      tag_200\n      jump\t// in\n    tag_199:\n        /* \"#utility.yul\":4619:4622   */\n      dup3\n        /* \"#utility.yul\":4612:4649   */\n      mstore\n        /* \"#utility.yul\":4537:4655   */\n      pop\n      pop\n      jump\t// out\n        /* \"#utility.yul\":4717:5812   */\n    tag_201:\n        /* \"#utility.yul\":4882:4885   */\n      0x00\n        /* \"#utility.yul\":4911:4988   */\n      tag_203\n        /* \"#utility.yul\":4982:4987   */\n      dup3\n        /* \"#utility.yul\":4911:4988   */\n      tag_204\n      jump\t// in\n    tag_203:\n        /* \"#utility.yul\":5004:5113   */\n      tag_205\n        /* \"#utility.yul\":5106:5112   */\n      dup2\n        /* \"#utility.yul\":5101:5104   */\n      dup6\n        /* \"#utility.yul\":5004:5113   */\n      tag_206\n      jump\t// in\n    tag_205:\n        /* \"#utility.yul\":4997:5113   */\n      swap4\n      pop\n        /* \"#utility.yul\":5139:5142   */\n      dup4\n        /* \"#utility.yul\":5184:5188   */\n      0x20\n        /* \"#utility.yul\":5176:5182   */\n      dup3\n        /* \"#utility.yul\":5172:5189   */\n      mul\n        /* \"#utility.yul\":5167:5170   */\n      dup6\n        /* \"#utility.yul\":5163:5190   */\n      add\n        /* \"#utility.yul\":5214:5293   */\n      tag_207\n        /* \"#utility.yul\":5287:5292   */\n      dup6\n        /* \"#utility.yul\":5214:5293   */\n      tag_208\n      jump\t// in\n    tag_207:\n        /* \"#utility.yul\":5316:5323   */\n      dup1\n        /* \"#utility.yul\":5347:5348   */\n      0x00\n        /* \"#utility.yul\":5332:5767   */\n    tag_209:\n        /* \"#utility.yul\":5357:5363   */\n      dup6\n        /* \"#utility.yul\":5354:5355   */\n      dup2\n        /* \"#utility.yul\":5351:5364   */\n      lt\n        /* \"#utility.yul\":5332:5767   */\n      iszero\n      tag_211\n      jumpi\n        /* \"#utility.yul\":5428:5437   */\n      dup5\n        /* \"#utility.yul\":5422:5426   */\n      dup5\n        /* \"#utility.yul\":5418:5438   */\n      sub\n        /* \"#utility.yul\":5413:5416   */\n      dup10\n        /* \"#utility.yul\":5406:5439   */\n      mstore\n        /* \"#utility.yul\":5479:5485   */\n      dup2\n        /* \"#utility.yul\":5473:5486   */\n      mload\n        /* \"#utility.yul\":5507:5617   */\n      tag_212\n        /* \"#utility.yul\":5612:5616   */\n      dup6\n        /* \"#utility.yul\":5597:5610   */\n      dup3\n        /* \"#utility.yul\":5507:5617   */\n      tag_193\n      jump\t// in\n    tag_212:\n        /* \"#utility.yul\":5499:5617   */\n      swap5\n      pop\n        /* \"#utility.yul\":5640:5723   */\n      tag_213\n        /* \"#utility.yul\":5716:5722   */\n      dup4\n        /* \"#utility.yul\":5640:5723   */\n      tag_214\n      jump\t// in\n    tag_213:\n        /* \"#utility.yul\":5630:5723   */\n      swap3\n      pop\n        /* \"#utility.yul\":5752:5756   */\n      0x20\n        /* \"#utility.yul\":5747:5750   */\n      dup11\n        /* \"#utility.yul\":5743:5757   */\n      add\n        /* \"#utility.yul\":5736:5757   */\n      swap10\n      pop\n        /* \"#utility.yul\":5392:5767   */\n      pop\n        /* \"#utility.yul\":5379:5380   */\n      0x01\n        /* \"#utility.yul\":5376:5377   */\n      dup2\n        /* \"#utility.yul\":5372:5381   */\n      add\n        /* \"#utility.yul\":5367:5381   */\n      swap1\n      pop\n        /* \"#utility.yul\":5332:5767   */\n      jump(tag_209)\n    tag_211:\n        /* \"#utility.yul\":5336:5350   */\n      pop\n        /* \"#utility.yul\":5783:5787   */\n      dup3\n        /* \"#utility.yul\":5776:5787   */\n      swap8\n      pop\n        /* \"#utility.yul\":5803:5806   */\n      dup8\n        /* \"#utility.yul\":5796:5806   */\n      swap6\n      pop\n        /* \"#utility.yul\":4887:5812   */\n      pop\n      pop\n      pop\n      pop\n      pop\n        /* \"#utility.yul\":4717:5812   */\n      swap3\n      swap2\n      pop\n      pop\n      jump\t// out\n        /* \"#utility.yul\":5818:5927   */\n    tag_215:\n        /* \"#utility.yul\":5899:5920   */\n      tag_217\n        /* \"#utility.yul\":5914:5919   */\n      dup2\n        /* \"#utility.yul\":5899:5920   */\n      tag_218\n      jump\t// in\n    tag_217:\n        /* \"#utility.yul\":5894:5897   */\n      dup3\n        /* \"#utility.yul\":5887:5921   */\n      mstore\n        /* \"#utility.yul\":5818:5927   */\n      pop\n      pop\n      jump\t// out\n        /* \"#utility.yul\":5957:6274   */\n    tag_219:\n        /* \"#utility.yul\":6073:6076   */\n      0x00\n        /* \"#utility.yul\":6094:6183   */\n      tag_221\n        /* \"#utility.yul\":6176:6182   */\n      dup4\n        /* \"#utility.yul\":6171:6174   */\n      dup6\n        /* \"#utility.yul\":6094:6183   */\n      tag_222\n      jump\t// in\n    tag_221:\n        /* \"#utility.yul\":6087:6183   */\n      swap4\n      pop\n        /* \"#utility.yul\":6193:6236   */\n      tag_223\n        /* \"#utility.yul\":6229:6235   */\n      dup4\n        /* \"#utility.yul\":6224:6227   */\n      dup6\n        /* \"#utility.yul\":6217:6222   */\n      dup5\n        /* \"#utility.yul\":6193:6236   */\n      tag_138\n      jump\t// in\n    tag_223:\n        /* \"#utility.yul\":6261:6267   */\n      dup3\n        /* \"#utility.yul\":6256:6259   */\n      dup5\n        /* \"#utility.yul\":6252:6268   */\n      add\n        /* \"#utility.yul\":6245:6268   */\n      swap1\n      pop\n        /* \"#utility.yul\":5957:6274   */\n      swap4\n      swap3\n      pop\n      pop\n      pop\n      jump\t// out\n        /* \"#utility.yul\":6280:6624   */\n    tag_224:\n        /* \"#utility.yul\":6358:6361   */\n      0x00\n        /* \"#utility.yul\":6386:6425   */\n      tag_226\n        /* \"#utility.yul\":6419:6424   */\n      dup3\n        /* \"#utility.yul\":6386:6425   */\n      tag_227\n      jump\t// in\n    tag_226:\n        /* \"#utility.yul\":6441:6502   */\n      tag_228\n        /* \"#utility.yul\":6495:6501   */\n      dup2\n        /* \"#utility.yul\":6490:6493   */\n      dup6\n        /* \"#utility.yul\":6441:6502   */\n      tag_229\n      jump\t// in\n    tag_228:\n        /* \"#utility.yul\":6434:6502   */\n      swap4\n      pop\n        /* \"#utility.yul\":6511:6563   */\n      tag_230\n        /* \"#utility.yul\":6556:6562   */\n      dup2\n        /* \"#utility.yul\":6551:6554   */\n      dup6\n        /* \"#utility.yul\":6544:6548   */\n      0x20\n        /* \"#utility.yul\":6537:6542   */\n      dup7\n        /* \"#utility.yul\":6533:6549   */\n      add\n        /* \"#utility.yul\":6511:6563   */\n      tag_231\n      jump\t// in\n    tag_230:\n        /* \"#utility.yul\":6588:6617   */\n      tag_232\n        /* \"#utility.yul\":6610:6616   */\n      dup2\n        /* \"#utility.yul\":6588:6617   */\n      tag_233\n      jump\t// in\n    tag_232:\n        /* \"#utility.yul\":6583:6586   */\n      dup5\n        /* \"#utility.yul\":6579:6618   */\n      add\n        /* \"#utility.yul\":6572:6618   */\n      swap2\n      pop\n        /* \"#utility.yul\":6362:6624   */\n      pop\n        /* \"#utility.yul\":6280:6624   */\n      swap3\n      swap2\n      pop\n      pop\n      jump\t// out\n        /* \"#utility.yul\":6630:6994   */\n    tag_234:\n        /* \"#utility.yul\":6718:6721   */\n      0x00\n        /* \"#utility.yul\":6746:6785   */\n      tag_236\n        /* \"#utility.yul\":6779:6784   */\n      dup3\n        /* \"#utility.yul\":6746:6785   */\n      tag_227\n      jump\t// in\n    tag_236:\n        /* \"#utility.yul\":6801:6872   */\n      tag_237\n        /* \"#utility.yul\":6865:6871   */\n      dup2\n        /* \"#utility.yul\":6860:6863   */\n      dup6\n        /* \"#utility.yul\":6801:6872   */\n      tag_238\n      jump\t// in\n    tag_237:\n        /* \"#utility.yul\":6794:6872   */\n      swap4\n      pop\n        /* \"#utility.yul\":6881:6933   */\n      tag_239\n        /* \"#utility.yul\":6926:6932   */\n      dup2\n        /* \"#utility.yul\":6921:6924   */\n      dup6\n        /* \"#utility.yul\":6914:6918   */\n      0x20\n        /* \"#utility.yul\":6907:6912   */\n      dup7\n        /* \"#utility.yul\":6903:6919   */\n      add\n        /* \"#utility.yul\":6881:6933   */\n      tag_231\n      jump\t// in\n    tag_239:\n        /* \"#utility.yul\":6958:6987   */\n      tag_240\n        /* \"#utility.yul\":6980:6986   */\n      dup2\n        /* \"#utility.yul\":6958:6987   */\n      tag_233\n      jump\t// in\n    tag_240:\n        /* \"#utility.yul\":6953:6956   */\n      dup5\n        /* \"#utility.yul\":6949:6988   */\n      add\n        /* \"#utility.yul\":6942:6988   */\n      swap2\n      pop\n        /* \"#utility.yul\":6722:6994   */\n      pop\n        /* \"#utility.yul\":6630:6994   */\n      swap3\n      swap2\n      pop\n      pop\n      jump\t// out\n        /* \"#utility.yul\":7000:7366   */\n    tag_241:\n        /* \"#utility.yul\":7142:7145   */\n      0x00\n        /* \"#utility.yul\":7163:7230   */\n      tag_243\n        /* \"#utility.yul\":7227:7229   */\n      0x16\n        /* \"#utility.yul\":7222:7225   */\n      dup4\n        /* \"#utility.yul\":7163:7230   */\n      tag_238\n      jump\t// in\n    tag_243:\n        /* \"#utility.yul\":7156:7230   */\n      swap2\n      pop\n        /* \"#utility.yul\":7239:7332   */\n      tag_244\n        /* \"#utility.yul\":7328:7331   */\n      dup3\n        /* \"#utility.yul\":7239:7332   */\n      tag_245\n      jump\t// in\n    tag_244:\n        /* \"#utility.yul\":7357:7359   */\n      0x20\n        /* \"#utility.yul\":7352:7355   */\n      dup3\n        /* \"#utility.yul\":7348:7360   */\n      add\n        /* \"#utility.yul\":7341:7360   */\n      swap1\n      pop\n        /* \"#utility.yul\":7000:7366   */\n      swap2\n      swap1\n      pop\n      jump\t// out\n        /* \"#utility.yul\":7372:7738   */\n    tag_246:\n        /* \"#utility.yul\":7514:7517   */\n      0x00\n        /* \"#utility.yul\":7535:7602   */\n      tag_248\n        /* \"#utility.yul\":7599:7601   */\n      0x2d\n        /* \"#utility.yul\":7594:7597   */\n      dup4\n        /* \"#utility.yul\":7535:7602   */\n      tag_238\n      jump\t// in\n    tag_248:\n        /* \"#utility.yul\":7528:7602   */\n      swap2\n      pop\n        /* \"#utility.yul\":7611:7704   */\n      tag_249\n        /* \"#utility.yul\":7700:7703   */\n      dup3\n        /* \"#utility.yul\":7611:7704   */\n      tag_250\n      jump\t// in\n    tag_249:\n        /* \"#utility.yul\":7729:7731   */\n      0x40\n        /* \"#utility.yul\":7724:7727   */\n      dup3\n        /* \"#utility.yul\":7720:7732   */\n      add\n        /* \"#utility.yul\":7713:7732   */\n      swap1\n      pop\n        /* \"#utility.yul\":7372:7738   */\n      swap2\n      swap1\n      pop\n      jump\t// out\n        /* \"#utility.yul\":7744:8110   */\n    tag_251:\n        /* \"#utility.yul\":7886:7889   */\n      0x00\n        /* \"#utility.yul\":7907:7974   */\n      tag_253\n        /* \"#utility.yul\":7971:7973   */\n      0x18\n        /* \"#utility.yul\":7966:7969   */\n      dup4\n        /* \"#utility.yul\":7907:7974   */\n      tag_238\n      jump\t// in\n    tag_253:\n        /* \"#utility.yul\":7900:7974   */\n      swap2\n      pop\n        /* \"#utility.yul\":7983:8076   */\n      tag_254\n        /* \"#utility.yul\":8072:8075   */\n      dup3\n        /* \"#utility.yul\":7983:8076   */\n      tag_255\n      jump\t// in\n    tag_254:\n        /* \"#utility.yul\":8101:8103   */\n      0x20\n        /* \"#utility.yul\":8096:8099   */\n      dup3\n        /* \"#utility.yul\":8092:8104   */\n      add\n        /* \"#utility.yul\":8085:8104   */\n      swap1\n      pop\n        /* \"#utility.yul\":7744:8110   */\n      swap2\n      swap1\n      pop\n      jump\t// out\n        /* \"#utility.yul\":8116:8482   */\n    tag_256:\n        /* \"#utility.yul\":8258:8261   */\n      0x00\n        /* \"#utility.yul\":8279:8346   */\n      tag_258\n        /* \"#utility.yul\":8343:8345   */\n      0x25\n        /* \"#utility.yul\":8338:8341   */\n      dup4\n        /* \"#utility.yul\":8279:8346   */\n      tag_238\n      jump\t// in\n    tag_258:\n        /* \"#utility.yul\":8272:8346   */\n      swap2\n      pop\n        /* \"#utility.yul\":8355:8448   */\n      tag_259\n        /* \"#utility.yul\":8444:8447   */\n      dup3\n        /* \"#utility.yul\":8355:8448   */\n      tag_260\n      jump\t// in\n    tag_259:\n        /* \"#utility.yul\":8473:8475   */\n      0x40\n        /* \"#utility.yul\":8468:8471   */\n      dup3\n        /* \"#utility.yul\":8464:8476   */\n      add\n        /* \"#utility.yul\":8457:8476   */\n      swap1\n      pop\n        /* \"#utility.yul\":8116:8482   */\n      swap2\n      swap1\n      pop\n      jump\t// out\n        /* \"#utility.yul\":8488:8854   */\n    tag_261:\n        /* \"#utility.yul\":8630:8633   */\n      0x00\n        /* \"#utility.yul\":8651:8718   */\n      tag_263\n        /* \"#utility.yul\":8715:8717   */\n      0x1c\n        /* \"#utility.yul\":8710:8713   */\n      dup4\n        /* \"#utility.yul\":8651:8718   */\n      tag_238\n      jump\t// in\n    tag_263:\n        /* \"#utility.yul\":8644:8718   */\n      swap2\n      pop\n        /* \"#utility.yul\":8727:8820   */\n      tag_264\n        /* \"#utility.yul\":8816:8819   */\n      dup3\n        /* \"#utility.yul\":8727:8820   */\n      tag_265\n      jump\t// in\n    tag_264:\n        /* \"#utility.yul\":8845:8847   */\n      0x20\n        /* \"#utility.yul\":8840:8843   */\n      dup3\n        /* \"#utility.yul\":8836:8848   */\n      add\n        /* \"#utility.yul\":8829:8848   */\n      swap1\n      pop\n        /* \"#utility.yul\":8488:8854   */\n      swap2\n      swap1\n      pop\n      jump\t// out\n        /* \"#utility.yul\":8860:9226   */\n    tag_266:\n        /* \"#utility.yul\":9002:9005   */\n      0x00\n        /* \"#utility.yul\":9023:9090   */\n      tag_268\n        /* \"#utility.yul\":9087:9089   */\n      0x24\n        /* \"#utility.yul\":9082:9085   */\n      dup4\n        /* \"#utility.yul\":9023:9090   */\n      tag_238\n      jump\t// in\n    tag_268:\n        /* \"#utility.yul\":9016:9090   */\n      swap2\n      pop\n        /* \"#utility.yul\":9099:9192   */\n      tag_269\n        /* \"#utility.yul\":9188:9191   */\n      dup3\n        /* \"#utility.yul\":9099:9192   */\n      tag_270\n      jump\t// in\n    tag_269:\n        /* \"#utility.yul\":9217:9219   */\n      0x40\n        /* \"#utility.yul\":9212:9215   */\n      dup3\n        /* \"#utility.yul\":9208:9220   */\n      add\n        /* \"#utility.yul\":9201:9220   */\n      swap1\n      pop\n        /* \"#utility.yul\":8860:9226   */\n      swap2\n      swap1\n      pop\n      jump\t// out\n        /* \"#utility.yul\":9284:10055   */\n    tag_196:\n        /* \"#utility.yul\":9389:9392   */\n      0x00\n        /* \"#utility.yul\":9425:9429   */\n      0x60\n        /* \"#utility.yul\":9420:9423   */\n      dup4\n        /* \"#utility.yul\":9416:9430   */\n      add\n        /* \"#utility.yul\":9512:9516   */\n      0x00\n        /* \"#utility.yul\":9505:9510   */\n      dup4\n        /* \"#utility.yul\":9501:9517   */\n      add\n        /* \"#utility.yul\":9495:9518   */\n      mload\n        /* \"#utility.yul\":9565:9568   */\n      dup5\n        /* \"#utility.yul\":9559:9563   */\n      dup3\n        /* \"#utility.yul\":9555:9569   */\n      sub\n        /* \"#utility.yul\":9548:9552   */\n      0x00\n        /* \"#utility.yul\":9543:9546   */\n      dup7\n        /* \"#utility.yul\":9539:9553   */\n      add\n        /* \"#utility.yul\":9532:9570   */\n      mstore\n        /* \"#utility.yul\":9591:9664   */\n      tag_272\n        /* \"#utility.yul\":9659:9663   */\n      dup3\n        /* \"#utility.yul\":9645:9657   */\n      dup3\n        /* \"#utility.yul\":9591:9664   */\n      tag_224\n      jump\t// in\n    tag_272:\n        /* \"#utility.yul\":9583:9664   */\n      swap2\n      pop\n        /* \"#utility.yul\":9440:9675   */\n      pop\n        /* \"#utility.yul\":9761:9765   */\n      0x20\n        /* \"#utility.yul\":9754:9759   */\n      dup4\n        /* \"#utility.yul\":9750:9766   */\n      add\n        /* \"#utility.yul\":9744:9767   */\n      mload\n        /* \"#utility.yul\":9780:9843   */\n      tag_273\n        /* \"#utility.yul\":9837:9841   */\n      0x20\n        /* \"#utility.yul\":9832:9835   */\n      dup7\n        /* \"#utility.yul\":9828:9842   */\n      add\n        /* \"#utility.yul\":9814:9826   */\n      dup3\n        /* \"#utility.yul\":9780:9843   */\n      tag_274\n      jump\t// in\n    tag_273:\n        /* \"#utility.yul\":9685:9853   */\n      pop\n        /* \"#utility.yul\":9936:9940   */\n      0x40\n        /* \"#utility.yul\":9929:9934   */\n      dup4\n        /* \"#utility.yul\":9925:9941   */\n      add\n        /* \"#utility.yul\":9919:9942   */\n      mload\n        /* \"#utility.yul\":9955:10018   */\n      tag_275\n        /* \"#utility.yul\":10012:10016   */\n      0x40\n        /* \"#utility.yul\":10007:10010   */\n      dup7\n        /* \"#utility.yul\":10003:10017   */\n      add\n        /* \"#utility.yul\":9989:10001   */\n      dup3\n        /* \"#utility.yul\":9955:10018   */\n      tag_274\n      jump\t// in\n    tag_275:\n        /* \"#utility.yul\":9863:10028   */\n      pop\n        /* \"#utility.yul\":10045:10049   */\n      dup1\n        /* \"#utility.yul\":10038:10049   */\n      swap2\n      pop\n        /* \"#utility.yul\":9394:10055   */\n      pop\n        /* \"#utility.yul\":9284:10055   */\n      swap3\n      swap2\n      pop\n      pop\n      jump\t// out\n        /* \"#utility.yul\":10061:10169   */\n    tag_274:\n        /* \"#utility.yul\":10138:10162   */\n      tag_277\n        /* \"#utility.yul\":10156:10161   */\n      dup2\n        /* \"#utility.yul\":10138:10162   */\n      tag_278\n      jump\t// in\n    tag_277:\n        /* \"#utility.yul\":10133:10136   */\n      dup3\n        /* \"#utility.yul\":10126:10163   */\n      mstore\n        /* \"#utility.yul\":10061:10169   */\n      pop\n      pop\n      jump\t// out\n        /* \"#utility.yul\":10175:10293   */\n    tag_279:\n        /* \"#utility.yul\":10262:10286   */\n      tag_281\n        /* \"#utility.yul\":10280:10285   */\n      dup2\n        /* \"#utility.yul\":10262:10286   */\n      tag_278\n      jump\t// in\n    tag_281:\n        /* \"#utility.yul\":10257:10260   */\n      dup3\n        /* \"#utility.yul\":10250:10287   */\n      mstore\n        /* \"#utility.yul\":10175:10293   */\n      pop\n      pop\n      jump\t// out\n        /* \"#utility.yul\":10299:10594   */\n    tag_62:\n        /* \"#utility.yul\":10441:10444   */\n      0x00\n        /* \"#utility.yul\":10463:10568   */\n      tag_283\n        /* \"#utility.yul\":10564:10567   */\n      dup3\n        /* \"#utility.yul\":10555:10561   */\n      dup5\n        /* \"#utility.yul\":10547:10553   */\n      dup7\n        /* \"#utility.yul\":10463:10568   */\n      tag_219\n      jump\t// in\n    tag_283:\n        /* \"#utility.yul\":10456:10568   */\n      swap2\n      pop\n        /* \"#utility.yul\":10585:10588   */\n      dup2\n        /* \"#utility.yul\":10578:10588   */\n      swap1\n      pop\n        /* \"#utility.yul\":10299:10594   */\n      swap4\n      swap3\n      pop\n      pop\n      pop\n      jump\t// out\n        /* \"#utility.yul\":10600:10822   */\n    tag_40:\n        /* \"#utility.yul\":10693:10697   */\n      0x00\n        /* \"#utility.yul\":10731:10733   */\n      0x20\n        /* \"#utility.yul\":10720:10729   */\n      dup3\n        /* \"#utility.yul\":10716:10734   */\n      add\n        /* \"#utility.yul\":10708:10734   */\n      swap1\n      pop\n        /* \"#utility.yul\":10744:10815   */\n      tag_285\n        /* \"#utility.yul\":10812:10813   */\n      0x00\n        /* \"#utility.yul\":10801:10810   */\n      dup4\n        /* \"#utility.yul\":10797:10814   */\n      add\n        /* \"#utility.yul\":10788:10794   */\n      dup5\n        /* \"#utility.yul\":10744:10815   */\n      tag_197\n      jump\t// in\n    tag_285:\n        /* \"#utility.yul\":10600:10822   */\n      swap3\n      swap2\n      pop\n      pop\n      jump\t// out\n        /* \"#utility.yul\":10828:11293   */\n    tag_44:\n        /* \"#utility.yul\":11017:11021   */\n      0x00\n        /* \"#utility.yul\":11055:11057   */\n      0x20\n        /* \"#utility.yul\":11044:11053   */\n      dup3\n        /* \"#utility.yul\":11040:11058   */\n      add\n        /* \"#utility.yul\":11032:11058   */\n      swap1\n      pop\n        /* \"#utility.yul\":11104:11113   */\n      dup2\n        /* \"#utility.yul\":11098:11102   */\n      dup2\n        /* \"#utility.yul\":11094:11114   */\n      sub\n        /* \"#utility.yul\":11090:11091   */\n      0x00\n        /* \"#utility.yul\":11079:11088   */\n      dup4\n        /* \"#utility.yul\":11075:11092   */\n      add\n        /* \"#utility.yul\":11068:11115   */\n      mstore\n        /* \"#utility.yul\":11132:11286   */\n      tag_287\n        /* \"#utility.yul\":11281:11285   */\n      dup2\n        /* \"#utility.yul\":11272:11278   */\n      dup5\n        /* \"#utility.yul\":11132:11286   */\n      tag_201\n      jump\t// in\n    tag_287:\n        /* \"#utility.yul\":11124:11286   */\n      swap1\n      pop\n        /* \"#utility.yul\":10828:11293   */\n      swap3\n      swap2\n      pop\n      pop\n      jump\t// out\n        /* \"#utility.yul\":11299:11509   */\n    tag_22:\n        /* \"#utility.yul\":11386:11390   */\n      0x00\n        /* \"#utility.yul\":11424:11426   */\n      0x20\n        /* \"#utility.yul\":11413:11422   */\n      dup3\n        /* \"#utility.yul\":11409:11427   */\n      add\n        /* \"#utility.yul\":11401:11427   */\n      swap1\n      pop\n        /* \"#utility.yul\":11437:11502   */\n      tag_289\n        /* \"#utility.yul\":11499:11500   */\n      0x00\n        /* \"#utility.yul\":11488:11497   */\n      dup4\n        /* \"#utility.yul\":11484:11501   */\n      add\n        /* \"#utility.yul\":11475:11481   */\n      dup5\n        /* \"#utility.yul\":11437:11502   */\n      tag_215\n      jump\t// in\n    tag_289:\n        /* \"#utility.yul\":11299:11509   */\n      swap3\n      swap2\n      pop\n      pop\n      jump\t// out\n        /* \"#utility.yul\":11515:12048   */\n    tag_36:\n        /* \"#utility.yul\":11684:11688   */\n      0x00\n        /* \"#utility.yul\":11722:11724   */\n      0x60\n        /* \"#utility.yul\":11711:11720   */\n      dup3\n        /* \"#utility.yul\":11707:11725   */\n      add\n        /* \"#utility.yul\":11699:11725   */\n      swap1\n      pop\n        /* \"#utility.yul\":11771:11780   */\n      dup2\n        /* \"#utility.yul\":11765:11769   */\n      dup2\n        /* \"#utility.yul\":11761:11781   */\n      sub\n        /* \"#utility.yul\":11757:11758   */\n      0x00\n        /* \"#utility.yul\":11746:11755   */\n      dup4\n        /* \"#utility.yul\":11742:11759   */\n      add\n        /* \"#utility.yul\":11735:11782   */\n      mstore\n        /* \"#utility.yul\":11799:11877   */\n      tag_291\n        /* \"#utility.yul\":11872:11876   */\n      dup2\n        /* \"#utility.yul\":11863:11869   */\n      dup7\n        /* \"#utility.yul\":11799:11877   */\n      tag_234\n      jump\t// in\n    tag_291:\n        /* \"#utility.yul\":11791:11877   */\n      swap1\n      pop\n        /* \"#utility.yul\":11887:11959   */\n      tag_292\n        /* \"#utility.yul\":11955:11957   */\n      0x20\n        /* \"#utility.yul\":11944:11953   */\n      dup4\n        /* \"#utility.yul\":11940:11958   */\n      add\n        /* \"#utility.yul\":11931:11937   */\n      dup6\n        /* \"#utility.yul\":11887:11959   */\n      tag_279\n      jump\t// in\n    tag_292:\n        /* \"#utility.yul\":11969:12041   */\n      tag_293\n        /* \"#utility.yul\":12037:12039   */\n      0x40\n        /* \"#utility.yul\":12026:12035   */\n      dup4\n        /* \"#utility.yul\":12022:12040   */\n      add\n        /* \"#utility.yul\":12013:12019   */\n      dup5\n        /* \"#utility.yul\":11969:12041   */\n      tag_279\n      jump\t// in\n    tag_293:\n        /* \"#utility.yul\":11515:12048   */\n      swap5\n      swap4\n      pop\n      pop\n      pop\n      pop\n      jump\t// out\n        /* \"#utility.yul\":12054:12473   */\n    tag_57:\n        /* \"#utility.yul\":12220:12224   */\n      0x00\n        /* \"#utility.yul\":12258:12260   */\n      0x20\n        /* \"#utility.yul\":12247:12256   */\n      dup3\n        /* \"#utility.yul\":12243:12261   */\n      add\n        /* \"#utility.yul\":12235:12261   */\n      swap1\n      pop\n        /* \"#utility.yul\":12307:12316   */\n      dup2\n        /* \"#utility.yul\":12301:12305   */\n      dup2\n        /* \"#utility.yul\":12297:12317   */\n      sub\n        /* \"#utility.yul\":12293:12294   */\n      0x00\n        /* \"#utility.yul\":12282:12291   */\n      dup4\n        /* \"#utility.yul\":12278:12295   */\n      add\n        /* \"#utility.yul\":12271:12318   */\n      mstore\n        /* \"#utility.yul\":12335:12466   */\n      tag_295\n        /* \"#utility.yul\":12461:12465   */\n      dup2\n        /* \"#utility.yul\":12335:12466   */\n      tag_241\n      jump\t// in\n    tag_295:\n        /* \"#utility.yul\":12327:12466   */\n      swap1\n      pop\n        /* \"#utility.yul\":12054:12473   */\n      swap2\n      swap1\n      pop\n      jump\t// out\n        /* \"#utility.yul\":12479:12898   */\n    tag_84:\n        /* \"#utility.yul\":12645:12649   */\n      0x00\n        /* \"#utility.yul\":12683:12685   */\n      0x20\n        /* \"#utility.yul\":12672:12681   */\n      dup3\n        /* \"#utility.yul\":12668:12686   */\n      add\n        /* \"#utility.yul\":12660:12686   */\n      swap1\n      pop\n        /* \"#utility.yul\":12732:12741   */\n      dup2\n        /* \"#utility.yul\":12726:12730   */\n      dup2\n        /* \"#utility.yul\":12722:12742   */\n      sub\n        /* \"#utility.yul\":12718:12719   */\n      0x00\n        /* \"#utility.yul\":12707:12716   */\n      dup4\n        /* \"#utility.yul\":12703:12720   */\n      add\n        /* \"#utility.yul\":12696:12743   */\n      mstore\n        /* \"#utility.yul\":12760:12891   */\n      tag_297\n        /* \"#utility.yul\":12886:12890   */\n      dup2\n        /* \"#utility.yul\":12760:12891   */\n      tag_246\n      jump\t// in\n    tag_297:\n        /* \"#utility.yul\":12752:12891   */\n      swap1\n      pop\n        /* \"#utility.yul\":12479:12898   */\n      swap2\n      swap1\n      pop\n      jump\t// out\n        /* \"#utility.yul\":12904:13323   */\n    tag_73:\n        /* \"#utility.yul\":13070:13074   */\n      0x00\n        /* \"#utility.yul\":13108:13110   */\n      0x20\n        /* \"#utility.yul\":13097:13106   */\n      dup3\n        /* \"#utility.yul\":13093:13111   */\n      add\n        /* \"#utility.yul\":13085:13111   */\n      swap1\n      pop\n        /* \"#utility.yul\":13157:13166   */\n      dup2\n        /* \"#utility.yul\":13151:13155   */\n      dup2\n        /* \"#utility.yul\":13147:13167   */\n      sub\n        /* \"#utility.yul\":13143:13144   */\n      0x00\n        /* \"#utility.yul\":13132:13141   */\n      dup4\n        /* \"#utility.yul\":13128:13145   */\n      add\n        /* \"#utility.yul\":13121:13168   */\n      mstore\n        /* \"#utility.yul\":13185:13316   */\n      tag_299\n        /* \"#utility.yul\":13311:13315   */\n      dup2\n        /* \"#utility.yul\":13185:13316   */\n      tag_251\n      jump\t// in\n    tag_299:\n        /* \"#utility.yul\":13177:13316   */\n      swap1\n      pop\n        /* \"#utility.yul\":12904:13323   */\n      swap2\n      swap1\n      pop\n      jump\t// out\n        /* \"#utility.yul\":13329:13748   */\n    tag_77:\n        /* \"#utility.yul\":13495:13499   */\n      0x00\n        /* \"#utility.yul\":13533:13535   */\n      0x20\n        /* \"#utility.yul\":13522:13531   */\n      dup3\n        /* \"#utility.yul\":13518:13536   */\n      add\n        /* \"#utility.yul\":13510:13536   */\n      swap1\n      pop\n        /* \"#utility.yul\":13582:13591   */\n      dup2\n        /* \"#utility.yul\":13576:13580   */\n      dup2\n        /* \"#utility.yul\":13572:13592   */\n      sub\n        /* \"#utility.yul\":13568:13569   */\n      0x00\n        /* \"#utility.yul\":13557:13566   */\n      dup4\n        /* \"#utility.yul\":13553:13570   */\n      add\n        /* \"#utility.yul\":13546:13593   */\n      mstore\n        /* \"#utility.yul\":13610:13741   */\n      tag_301\n        /* \"#utility.yul\":13736:13740   */\n      dup2\n        /* \"#utility.yul\":13610:13741   */\n      tag_256\n      jump\t// in\n    tag_301:\n        /* \"#utility.yul\":13602:13741   */\n      swap1\n      pop\n        /* \"#utility.yul\":13329:13748   */\n      swap2\n      swap1\n      pop\n      jump\t// out\n        /* \"#utility.yul\":13754:14173   */\n    tag_113:\n        /* \"#utility.yul\":13920:13924   */\n      0x00\n        /* \"#utility.yul\":13958:13960   */\n      0x20\n        /* \"#utility.yul\":13947:13956   */\n      dup3\n        /* \"#utility.yul\":13943:13961   */\n      add\n        /* \"#utility.yul\":13935:13961   */\n      swap1\n      pop\n        /* \"#utility.yul\":14007:14016   */\n      dup2\n        /* \"#utility.yul\":14001:14005   */\n      dup2\n        /* \"#utility.yul\":13997:14017   */\n      sub\n        /* \"#utility.yul\":13993:13994   */\n      0x00\n        /* \"#utility.yul\":13982:13991   */\n      dup4\n        /* \"#utility.yul\":13978:13995   */\n      add\n        /* \"#utility.yul\":13971:14018   */\n      mstore\n        /* \"#utility.yul\":14035:14166   */\n      tag_303\n        /* \"#utility.yul\":14161:14165   */\n      dup2\n        /* \"#utility.yul\":14035:14166   */\n      tag_261\n      jump\t// in\n    tag_303:\n        /* \"#utility.yul\":14027:14166   */\n      swap1\n      pop\n        /* \"#utility.yul\":13754:14173   */\n      swap2\n      swap1\n      pop\n      jump\t// out\n        /* \"#utility.yul\":14179:14598   */\n    tag_65:\n        /* \"#utility.yul\":14345:14349   */\n      0x00\n        /* \"#utility.yul\":14383:14385   */\n      0x20\n        /* \"#utility.yul\":14372:14381   */\n      dup3\n        /* \"#utility.yul\":14368:14386   */\n      add\n        /* \"#utility.yul\":14360:14386   */\n      swap1\n      pop\n        /* \"#utility.yul\":14432:14441   */\n      dup2\n        /* \"#utility.yul\":14426:14430   */\n      dup2\n        /* \"#utility.yul\":14422:14442   */\n      sub\n        /* \"#utility.yul\":14418:14419   */\n      0x00\n        /* \"#utility.yul\":14407:14416   */\n      dup4\n        /* \"#utility.yul\":14403:14420   */\n      add\n        /* \"#utility.yul\":14396:14443   */\n      mstore\n        /* \"#utility.yul\":14460:14591   */\n      tag_305\n        /* \"#utility.yul\":14586:14590   */\n      dup2\n        /* \"#utility.yul\":14460:14591   */\n      tag_266\n      jump\t// in\n    tag_305:\n        /* \"#utility.yul\":14452:14591   */\n      swap1\n      pop\n        /* \"#utility.yul\":14179:14598   */\n      swap2\n      swap1\n      pop\n      jump\t// out\n        /* \"#utility.yul\":14604:14826   */\n    tag_50:\n        /* \"#utility.yul\":14697:14701   */\n      0x00\n        /* \"#utility.yul\":14735:14737   */\n      0x20\n        /* \"#utility.yul\":14724:14733   */\n      dup3\n        /* \"#utility.yul\":14720:14738   */\n      add\n        /* \"#utility.yul\":14712:14738   */\n      swap1\n      pop\n        /* \"#utility.yul\":14748:14819   */\n      tag_307\n        /* \"#utility.yul\":14816:14817   */\n      0x00\n        /* \"#utility.yul\":14805:14814   */\n      dup4\n        /* \"#utility.yul\":14801:14818   */\n      add\n        /* \"#utility.yul\":14792:14798   */\n      dup5\n        /* \"#utility.yul\":14748:14819   */\n      tag_279\n      jump\t// in\n    tag_307:\n        /* \"#utility.yul\":14604:14826   */\n      swap3\n      swap2\n      pop\n      pop\n      jump\t// out\n        /* \"#utility.yul\":14832:14961   */\n    tag_133:\n        /* \"#utility.yul\":14866:14872   */\n      0x00\n        /* \"#utility.yul\":14893:14913   */\n      tag_309\n      tag_310\n      jump\t// in\n    tag_309:\n        /* \"#utility.yul\":14883:14913   */\n      swap1\n      pop\n        /* \"#utility.yul\":14922:14955   */\n      tag_311\n        /* \"#utility.yul\":14950:14954   */\n      dup3\n        /* \"#utility.yul\":14942:14948   */\n      dup3\n        /* \"#utility.yul\":14922:14955   */\n      tag_312\n      jump\t// in\n    tag_311:\n        /* \"#utility.yul\":14832:14961   */\n      swap2\n      swap1\n      pop\n      jump\t// out\n        /* \"#utility.yul\":14967:15042   */\n    tag_310:\n        /* \"#utility.yul\":15000:15006   */\n      0x00\n        /* \"#utility.yul\":15033:15035   */\n      0x40\n        /* \"#utility.yul\":15027:15036   */\n      mload\n        /* \"#utility.yul\":15017:15036   */\n      swap1\n      pop\n        /* \"#utility.yul\":14967:15042   */\n      swap1\n      jump\t// out\n        /* \"#utility.yul\":15048:15356   */\n    tag_132:\n        /* \"#utility.yul\":15110:15114   */\n      0x00\n        /* \"#utility.yul\":15200:15218   */\n      0xffffffffffffffff\n        /* \"#utility.yul\":15192:15198   */\n      dup3\n        /* \"#utility.yul\":15189:15219   */\n      gt\n        /* \"#utility.yul\":15186:15242   */\n      iszero\n      tag_315\n      jumpi\n        /* \"#utility.yul\":15222:15240   */\n      tag_316\n      tag_317\n      jump\t// in\n    tag_316:\n        /* \"#utility.yul\":15186:15242   */\n    tag_315:\n        /* \"#utility.yul\":15260:15289   */\n      tag_318\n        /* \"#utility.yul\":15282:15288   */\n      dup3\n        /* \"#utility.yul\":15260:15289   */\n      tag_233\n      jump\t// in\n    tag_318:\n        /* \"#utility.yul\":15252:15289   */\n      swap1\n      pop\n        /* \"#utility.yul\":15344:15348   */\n      0x20\n        /* \"#utility.yul\":15338:15342   */\n      dup2\n        /* \"#utility.yul\":15334:15349   */\n      add\n        /* \"#utility.yul\":15326:15349   */\n      swap1\n      pop\n        /* \"#utility.yul\":15048:15356   */\n      swap2\n      swap1\n      pop\n      jump\t// out\n        /* \"#utility.yul\":15362:15517   */\n    tag_208:\n        /* \"#utility.yul\":15452:15456   */\n      0x00\n        /* \"#utility.yul\":15475:15478   */\n      dup2\n        /* \"#utility.yul\":15467:15478   */\n      swap1\n      pop\n        /* \"#utility.yul\":15505:15509   */\n      0x20\n        /* \"#utility.yul\":15500:15503   */\n      dup3\n        /* \"#utility.yul\":15496:15510   */\n      add\n        /* \"#utility.yul\":15488:15510   */\n      swap1\n      pop\n        /* \"#utility.yul\":15362:15517   */\n      swap2\n      swap1\n      pop\n      jump\t// out\n        /* \"#utility.yul\":15523:15660   */\n    tag_204:\n        /* \"#utility.yul\":15613:15619   */\n      0x00\n        /* \"#utility.yul\":15647:15652   */\n      dup2\n        /* \"#utility.yul\":15641:15653   */\n      mload\n        /* \"#utility.yul\":15631:15653   */\n      swap1\n      pop\n        /* \"#utility.yul\":15523:15660   */\n      swap2\n      swap1\n      pop\n      jump\t// out\n        /* \"#utility.yul\":15666:15765   */\n    tag_227:\n        /* \"#utility.yul\":15718:15724   */\n      0x00\n        /* \"#utility.yul\":15752:15757   */\n      dup2\n        /* \"#utility.yul\":15746:15758   */\n      mload\n        /* \"#utility.yul\":15736:15758   */\n      swap1\n      pop\n        /* \"#utility.yul\":15666:15765   */\n      swap2\n      swap1\n      pop\n      jump\t// out\n        /* \"#utility.yul\":15771:15907   */\n    tag_214:\n        /* \"#utility.yul\":15864:15868   */\n      0x00\n        /* \"#utility.yul\":15896:15900   */\n      0x20\n        /* \"#utility.yul\":15891:15894   */\n      dup3\n        /* \"#utility.yul\":15887:15901   */\n      add\n        /* \"#utility.yul\":15879:15901   */\n      swap1\n      pop\n        /* \"#utility.yul\":15771:15907   */\n      swap2\n      swap1\n      pop\n      jump\t// out\n        /* \"#utility.yul\":15913:16120   */\n    tag_206:\n        /* \"#utility.yul\":16035:16046   */\n      0x00\n        /* \"#utility.yul\":16069:16075   */\n      dup3\n        /* \"#utility.yul\":16064:16067   */\n      dup3\n        /* \"#utility.yul\":16057:16076   */\n      mstore\n        /* \"#utility.yul\":16109:16113   */\n      0x20\n        /* \"#utility.yul\":16104:16107   */\n      dup3\n        /* \"#utility.yul\":16100:16114   */\n      add\n        /* \"#utility.yul\":16085:16114   */\n      swap1\n      pop\n        /* \"#utility.yul\":15913:16120   */\n      swap3\n      swap2\n      pop\n      pop\n      jump\t// out\n        /* \"#utility.yul\":16126:16285   */\n    tag_229:\n        /* \"#utility.yul\":16200:16211   */\n      0x00\n        /* \"#utility.yul\":16234:16240   */\n      dup3\n        /* \"#utility.yul\":16229:16232   */\n      dup3\n        /* \"#utility.yul\":16222:16241   */\n      mstore\n        /* \"#utility.yul\":16274:16278   */\n      0x20\n        /* \"#utility.yul\":16269:16272   */\n      dup3\n        /* \"#utility.yul\":16265:16279   */\n      add\n        /* \"#utility.yul\":16250:16279   */\n      swap1\n      pop\n        /* \"#utility.yul\":16126:16285   */\n      swap3\n      swap2\n      pop\n      pop\n      jump\t// out\n        /* \"#utility.yul\":16291:16460   */\n    tag_238:\n        /* \"#utility.yul\":16375:16386   */\n      0x00\n        /* \"#utility.yul\":16409:16415   */\n      dup3\n        /* \"#utility.yul\":16404:16407   */\n      dup3\n        /* \"#utility.yul\":16397:16416   */\n      mstore\n        /* \"#utility.yul\":16449:16453   */\n      0x20\n        /* \"#utility.yul\":16444:16447   */\n      dup3\n        /* \"#utility.yul\":16440:16454   */\n      add\n        /* \"#utility.yul\":16425:16454   */\n      swap1\n      pop\n        /* \"#utility.yul\":16291:16460   */\n      swap3\n      swap2\n      pop\n      pop\n      jump\t// out\n        /* \"#utility.yul\":16466:16614   */\n    tag_222:\n        /* \"#utility.yul\":16568:16579   */\n      0x00\n        /* \"#utility.yul\":16605:16608   */\n      dup2\n        /* \"#utility.yul\":16590:16608   */\n      swap1\n      pop\n        /* \"#utility.yul\":16466:16614   */\n      swap3\n      swap2\n      pop\n      pop\n      jump\t// out\n        /* \"#utility.yul\":16620:16811   */\n    tag_89:\n        /* \"#utility.yul\":16660:16664   */\n      0x00\n        /* \"#utility.yul\":16680:16700   */\n      tag_328\n        /* \"#utility.yul\":16698:16699   */\n      dup3\n        /* \"#utility.yul\":16680:16700   */\n      tag_278\n      jump\t// in\n    tag_328:\n        /* \"#utility.yul\":16675:16700   */\n      swap2\n      pop\n        /* \"#utility.yul\":16714:16734   */\n      tag_329\n        /* \"#utility.yul\":16732:16733   */\n      dup4\n        /* \"#utility.yul\":16714:16734   */\n      tag_278\n      jump\t// in\n    tag_329:\n        /* \"#utility.yul\":16709:16734   */\n      swap3\n      pop\n        /* \"#utility.yul\":16753:16754   */\n      dup3\n        /* \"#utility.yul\":16750:16751   */\n      dup3\n        /* \"#utility.yul\":16747:16755   */\n      lt\n        /* \"#utility.yul\":16744:16778   */\n      iszero\n      tag_330\n      jumpi\n        /* \"#utility.yul\":16758:16776   */\n      tag_331\n      tag_332\n      jump\t// in\n    tag_331:\n        /* \"#utility.yul\":16744:16778   */\n    tag_330:\n        /* \"#utility.yul\":16803:16804   */\n      dup3\n        /* \"#utility.yul\":16800:16801   */\n      dup3\n        /* \"#utility.yul\":16796:16805   */\n      sub\n        /* \"#utility.yul\":16788:16805   */\n      swap1\n      pop\n        /* \"#utility.yul\":16620:16811   */\n      swap3\n      swap2\n      pop\n      pop\n      jump\t// out\n        /* \"#utility.yul\":16817:16913   */\n    tag_200:\n        /* \"#utility.yul\":16854:16861   */\n      0x00\n        /* \"#utility.yul\":16883:16907   */\n      tag_334\n        /* \"#utility.yul\":16901:16906   */\n      dup3\n        /* \"#utility.yul\":16883:16907   */\n      tag_335\n      jump\t// in\n    tag_334:\n        /* \"#utility.yul\":16872:16907   */\n      swap1\n      pop\n        /* \"#utility.yul\":16817:16913   */\n      swap2\n      swap1\n      pop\n      jump\t// out\n        /* \"#utility.yul\":16919:17009   */\n    tag_218:\n        /* \"#utility.yul\":16953:16960   */\n      0x00\n        /* \"#utility.yul\":16996:17001   */\n      dup2\n        /* \"#utility.yul\":16989:17002   */\n      iszero\n        /* \"#utility.yul\":16982:17003   */\n      iszero\n        /* \"#utility.yul\":16971:17003   */\n      swap1\n      pop\n        /* \"#utility.yul\":16919:17009   */\n      swap2\n      swap1\n      pop\n      jump\t// out\n        /* \"#utility.yul\":17015:17141   */\n    tag_335:\n        /* \"#utility.yul\":17052:17059   */\n      0x00\n        /* \"#utility.yul\":17092:17134   */\n      0xffffffffffffffffffffffffffffffffffffffff\n        /* \"#utility.yul\":17085:17090   */\n      dup3\n        /* \"#utility.yul\":17081:17135   */\n      and\n        /* \"#utility.yul\":17070:17135   */\n      swap1\n      pop\n        /* \"#utility.yul\":17015:17141   */\n      swap2\n      swap1\n      pop\n      jump\t// out\n        /* \"#utility.yul\":17147:17224   */\n    tag_278:\n        /* \"#utility.yul\":17184:17191   */\n      0x00\n        /* \"#utility.yul\":17213:17218   */\n      dup2\n        /* \"#utility.yul\":17202:17218   */\n      swap1\n      pop\n        /* \"#utility.yul\":17147:17224   */\n      swap2\n      swap1\n      pop\n      jump\t// out\n        /* \"#utility.yul\":17230:17384   */\n    tag_138:\n        /* \"#utility.yul\":17314:17320   */\n      dup3\n        /* \"#utility.yul\":17309:17312   */\n      dup2\n        /* \"#utility.yul\":17304:17307   */\n      dup4\n        /* \"#utility.yul\":17291:17321   */\n      calldatacopy\n        /* \"#utility.yul\":17376:17377   */\n      0x00\n        /* \"#utility.yul\":17367:17373   */\n      dup4\n        /* \"#utility.yul\":17362:17365   */\n      dup4\n        /* \"#utility.yul\":17358:17374   */\n      add\n        /* \"#utility.yul\":17351:17378   */\n      mstore\n        /* \"#utility.yul\":17230:17384   */\n      pop\n      pop\n      pop\n      jump\t// out\n        /* \"#utility.yul\":17390:17697   */\n    tag_231:\n        /* \"#utility.yul\":17458:17459   */\n      0x00\n        /* \"#utility.yul\":17468:17581   */\n    tag_341:\n        /* \"#utility.yul\":17482:17488   */\n      dup4\n        /* \"#utility.yul\":17479:17480   */\n      dup2\n        /* \"#utility.yul\":17476:17489   */\n      lt\n        /* \"#utility.yul\":17468:17581   */\n      iszero\n      tag_343\n      jumpi\n        /* \"#utility.yul\":17567:17568   */\n      dup1\n        /* \"#utility.yul\":17562:17565   */\n      dup3\n        /* \"#utility.yul\":17558:17569   */\n      add\n        /* \"#utility.yul\":17552:17570   */\n      mload\n        /* \"#utility.yul\":17548:17549   */\n      dup2\n        /* \"#utility.yul\":17543:17546   */\n      dup5\n        /* \"#utility.yul\":17539:17550   */\n      add\n        /* \"#utility.yul\":17532:17571   */\n      mstore\n        /* \"#utility.yul\":17504:17506   */\n      0x20\n        /* \"#utility.yul\":17501:17502   */\n      dup2\n        /* \"#utility.yul\":17497:17507   */\n      add\n        /* \"#utility.yul\":17492:17507   */\n      swap1\n      pop\n        /* \"#utility.yul\":17468:17581   */\n      jump(tag_341)\n    tag_343:\n        /* \"#utility.yul\":17599:17605   */\n      dup4\n        /* \"#utility.yul\":17596:17597   */\n      dup2\n        /* \"#utility.yul\":17593:17606   */\n      gt\n        /* \"#utility.yul\":17590:17691   */\n      iszero\n      tag_344\n      jumpi\n        /* \"#utility.yul\":17679:17680   */\n      0x00\n        /* \"#utility.yul\":17670:17676   */\n      dup5\n        /* \"#utility.yul\":17665:17668   */\n      dup5\n        /* \"#utility.yul\":17661:17677   */\n      add\n        /* \"#utility.yul\":17654:17681   */\n      mstore\n        /* \"#utility.yul\":17590:17691   */\n    tag_344:\n        /* \"#utility.yul\":17439:17697   */\n      pop\n        /* \"#utility.yul\":17390:17697   */\n      pop\n      pop\n      pop\n      jump\t// out\n        /* \"#utility.yul\":17703:18023   */\n    tag_93:\n        /* \"#utility.yul\":17747:17753   */\n      0x00\n        /* \"#utility.yul\":17784:17785   */\n      0x02\n        /* \"#utility.yul\":17778:17782   */\n      dup3\n        /* \"#utility.yul\":17774:17786   */\n      div\n        /* \"#utility.yul\":17764:17786   */\n      swap1\n      pop\n        /* \"#utility.yul\":17831:17832   */\n      0x01\n        /* \"#utility.yul\":17825:17829   */\n      dup3\n        /* \"#utility.yul\":17821:17833   */\n      and\n        /* \"#utility.yul\":17852:17870   */\n      dup1\n        /* \"#utility.yul\":17842:17923   */\n      tag_346\n      jumpi\n        /* \"#utility.yul\":17908:17912   */\n      0x7f\n        /* \"#utility.yul\":17900:17906   */\n      dup3\n        /* \"#utility.yul\":17896:17913   */\n      and\n        /* \"#utility.yul\":17886:17913   */\n      swap2\n      pop\n        /* \"#utility.yul\":17842:17923   */\n    tag_346:\n        /* \"#utility.yul\":17970:17972   */\n      0x20\n        /* \"#utility.yul\":17962:17968   */\n      dup3\n        /* \"#utility.yul\":17959:17973   */\n      lt\n        /* \"#utility.yul\":17939:17957   */\n      dup2\n        /* \"#utility.yul\":17936:17974   */\n      eq\n        /* \"#utility.yul\":17933:18017   */\n      iszero\n      tag_347\n      jumpi\n        /* \"#utility.yul\":17989:18007   */\n      tag_348\n      tag_349\n      jump\t// in\n    tag_348:\n        /* \"#utility.yul\":17933:18017   */\n    tag_347:\n        /* \"#utility.yul\":17754:18023   */\n      pop\n        /* \"#utility.yul\":17703:18023   */\n      swap2\n      swap1\n      pop\n      jump\t// out\n        /* \"#utility.yul\":18029:18310   */\n    tag_312:\n        /* \"#utility.yul\":18112:18139   */\n      tag_351\n        /* \"#utility.yul\":18134:18138   */\n      dup3\n        /* \"#utility.yul\":18112:18139   */\n      tag_233\n      jump\t// in\n    tag_351:\n        /* \"#utility.yul\":18104:18110   */\n      dup2\n        /* \"#utility.yul\":18100:18140   */\n      add\n        /* \"#utility.yul\":18242:18248   */\n      dup2\n        /* \"#utility.yul\":18230:18240   */\n      dup2\n        /* \"#utility.yul\":18227:18249   */\n      lt\n        /* \"#utility.yul\":18206:18224   */\n      0xffffffffffffffff\n        /* \"#utility.yul\":18194:18204   */\n      dup3\n        /* \"#utility.yul\":18191:18225   */\n      gt\n        /* \"#utility.yul\":18188:18250   */\n      or\n        /* \"#utility.yul\":18185:18273   */\n      iszero\n      tag_352\n      jumpi\n        /* \"#utility.yul\":18253:18271   */\n      tag_353\n      tag_317\n      jump\t// in\n    tag_353:\n        /* \"#utility.yul\":18185:18273   */\n    tag_352:\n        /* \"#utility.yul\":18293:18303   */\n      dup1\n        /* \"#utility.yul\":18289:18291   */\n      0x40\n        /* \"#utility.yul\":18282:18304   */\n      mstore\n        /* \"#utility.yul\":18072:18310   */\n      pop\n        /* \"#utility.yul\":18029:18310   */\n      pop\n      pop\n      jump\t// out\n        /* \"#utility.yul\":18316:18496   */\n    tag_332:\n        /* \"#utility.yul\":18364:18441   */\n      0x4e487b7100000000000000000000000000000000000000000000000000000000\n        /* \"#utility.yul\":18361:18362   */\n      0x00\n        /* \"#utility.yul\":18354:18442   */\n      mstore\n        /* \"#utility.yul\":18461:18465   */\n      0x11\n        /* \"#utility.yul\":18458:18459   */\n      0x04\n        /* \"#utility.yul\":18451:18466   */\n      mstore\n        /* \"#utility.yul\":18485:18489   */\n      0x24\n        /* \"#utility.yul\":18482:18483   */\n      0x00\n        /* \"#utility.yul\":18475:18490   */\n      revert\n        /* \"#utility.yul\":18502:18682   */\n    tag_349:\n        /* \"#utility.yul\":18550:18627   */\n      0x4e487b7100000000000000000000000000000000000000000000000000000000\n        /* \"#utility.yul\":18547:18548   */\n      0x00\n        /* \"#utility.yul\":18540:18628   */\n      mstore\n        /* \"#utility.yul\":18647:18651   */\n      0x22\n        /* \"#utility.yul\":18644:18645   */\n      0x04\n        /* \"#utility.yul\":18637:18652   */\n      mstore\n        /* \"#utility.yul\":18671:18675   */\n      0x24\n        /* \"#utility.yul\":18668:18669   */\n      0x00\n        /* \"#utility.yul\":18661:18676   */\n      revert\n        /* \"#utility.yul\":18688:18868   */\n    tag_80:\n        /* \"#utility.yul\":18736:18813   */\n      0x4e487b7100000000000000000000000000000000000000000000000000000000\n        /* \"#utility.yul\":18733:18734   */\n      0x00\n        /* \"#utility.yul\":18726:18814   */\n      mstore\n        /* \"#utility.yul\":18833:18837   */\n      0x32\n        /* \"#utility.yul\":18830:18831   */\n      0x04\n        /* \"#utility.yul\":18823:18838   */\n      mstore\n        /* \"#utility.yul\":18857:18861   */\n      0x24\n        /* \"#utility.yul\":18854:18855   */\n      0x00\n        /* \"#utility.yul\":18847:18862   */\n      revert\n        /* \"#utility.yul\":18874:19054   */\n    tag_317:\n        /* \"#utility.yul\":18922:18999   */\n      0x4e487b7100000000000000000000000000000000000000000000000000000000\n        /* \"#utility.yul\":18919:18920   */\n      0x00\n        /* \"#utility.yul\":18912:19000   */\n      mstore\n        /* \"#utility.yul\":19019:19023   */\n      0x41\n        /* \"#utility.yul\":19016:19017   */\n      0x04\n        /* \"#utility.yul\":19009:19024   */\n      mstore\n        /* \"#utility.yul\":19043:19047   */\n      0x24\n        /* \"#utility.yul\":19040:19041   */\n      0x00\n        /* \"#utility.yul\":19033:19048   */\n      revert\n        /* \"#utility.yul\":19060:19177   */\n    tag_150:\n        /* \"#utility.yul\":19169:19170   */\n      0x00\n        /* \"#utility.yul\":19166:19167   */\n      dup1\n        /* \"#utility.yul\":19159:19171   */\n      revert\n        /* \"#utility.yul\":19183:19300   */\n    tag_147:\n        /* \"#utility.yul\":19292:19293   */\n      0x00\n        /* \"#utility.yul\":19289:19290   */\n      dup1\n        /* \"#utility.yul\":19282:19294   */\n      revert\n        /* \"#utility.yul\":19306:19423   */\n    tag_153:\n        /* \"#utility.yul\":19415:19416   */\n      0x00\n        /* \"#utility.yul\":19412:19413   */\n      dup1\n        /* \"#utility.yul\":19405:19417   */\n      revert\n        /* \"#utility.yul\":19429:19546   */\n    tag_136:\n        /* \"#utility.yul\":19538:19539   */\n      0x00\n        /* \"#utility.yul\":19535:19536   */\n      dup1\n        /* \"#utility.yul\":19528:19540   */\n      revert\n        /* \"#utility.yul\":19552:19669   */\n    tag_169:\n        /* \"#utility.yul\":19661:19662   */\n      0x00\n        /* \"#utility.yul\":19658:19659   */\n      dup1\n        /* \"#utility.yul\":19651:19663   */\n      revert\n        /* \"#utility.yul\":19675:19792   */\n    tag_166:\n        /* \"#utility.yul\":19784:19785   */\n      0x00\n        /* \"#utility.yul\":19781:19782   */\n      dup1\n        /* \"#utility.yul\":19774:19786   */\n      revert\n        /* \"#utility.yul\":19798:19900   */\n    tag_233:\n        /* \"#utility.yul\":19839:19845   */\n      0x00\n        /* \"#utility.yul\":19890:19892   */\n      0x1f\n        /* \"#utility.yul\":19886:19893   */\n      not\n        /* \"#utility.yul\":19881:19883   */\n      0x1f\n        /* \"#utility.yul\":19874:19879   */\n      dup4\n        /* \"#utility.yul\":19870:19884   */\n      add\n        /* \"#utility.yul\":19866:19894   */\n      and\n        /* \"#utility.yul\":19856:19894   */\n      swap1\n      pop\n        /* \"#utility.yul\":19798:19900   */\n      swap2\n      swap1\n      pop\n      jump\t// out\n        /* \"#utility.yul\":19906:20078   */\n    tag_245:\n        /* \"#utility.yul\":20046:20070   */\n      0x596f7520617265206e6f7420746865206f776e65722100000000000000000000\n        /* \"#utility.yul\":20042:20043   */\n      0x00\n        /* \"#utility.yul\":20034:20040   */\n      dup3\n        /* \"#utility.yul\":20030:20044   */\n      add\n        /* \"#utility.yul\":20023:20071   */\n      mstore\n        /* \"#utility.yul\":19906:20078   */\n      pop\n      jump\t// out\n        /* \"#utility.yul\":20084:20316   */\n    tag_250:\n        /* \"#utility.yul\":20224:20258   */\n      0x5468652070726f64756374207175616e74697479206973206c65737320746861\n        /* \"#utility.yul\":20220:20221   */\n      0x00\n        /* \"#utility.yul\":20212:20218   */\n      dup3\n        /* \"#utility.yul\":20208:20222   */\n      add\n        /* \"#utility.yul\":20201:20259   */\n      mstore\n        /* \"#utility.yul\":20293:20308   */\n      0x6e20796f752077616e7465642100000000000000000000000000000000000000\n        /* \"#utility.yul\":20288:20290   */\n      0x20\n        /* \"#utility.yul\":20280:20286   */\n      dup3\n        /* \"#utility.yul\":20276:20291   */\n      add\n        /* \"#utility.yul\":20269:20309   */\n      mstore\n        /* \"#utility.yul\":20084:20316   */\n      pop\n      jump\t// out\n        /* \"#utility.yul\":20322:20496   */\n    tag_255:\n        /* \"#utility.yul\":20462:20488   */\n      0x50726f6475637420646f6573206e6f7420657869737473210000000000000000\n        /* \"#utility.yul\":20458:20459   */\n      0x00\n        /* \"#utility.yul\":20450:20456   */\n      dup3\n        /* \"#utility.yul\":20446:20460   */\n      add\n        /* \"#utility.yul\":20439:20489   */\n      mstore\n        /* \"#utility.yul\":20322:20496   */\n      pop\n      jump\t// out\n        /* \"#utility.yul\":20502:20726   */\n    tag_260:\n        /* \"#utility.yul\":20642:20676   */\n      0x596f75206861766520616c726561647920626f7567687420746869732070726f\n        /* \"#utility.yul\":20638:20639   */\n      0x00\n        /* \"#utility.yul\":20630:20636   */\n      dup3\n        /* \"#utility.yul\":20626:20640   */\n      add\n        /* \"#utility.yul\":20619:20677   */\n      mstore\n        /* \"#utility.yul\":20711:20718   */\n      0x6475637421000000000000000000000000000000000000000000000000000000\n        /* \"#utility.yul\":20706:20708   */\n      0x20\n        /* \"#utility.yul\":20698:20704   */\n      dup3\n        /* \"#utility.yul\":20694:20709   */\n      add\n        /* \"#utility.yul\":20687:20719   */\n      mstore\n        /* \"#utility.yul\":20502:20726   */\n      pop\n      jump\t// out\n        /* \"#utility.yul\":20732:20910   */\n    tag_265:\n        /* \"#utility.yul\":20872:20902   */\n      0x5468652070726f64756374206973206e6f74206578697374696e672100000000\n        /* \"#utility.yul\":20868:20869   */\n      0x00\n        /* \"#utility.yul\":20860:20866   */\n      dup3\n        /* \"#utility.yul\":20856:20870   */\n      add\n        /* \"#utility.yul\":20849:20903   */\n      mstore\n        /* \"#utility.yul\":20732:20910   */\n      pop\n      jump\t// out\n        /* \"#utility.yul\":20916:21139   */\n    tag_270:\n        /* \"#utility.yul\":21056:21090   */\n      0x5468652070726f6475637420697320616c726561647920696e20746865207374\n        /* \"#utility.yul\":21052:21053   */\n      0x00\n        /* \"#utility.yul\":21044:21050   */\n      dup3\n        /* \"#utility.yul\":21040:21054   */\n      add\n        /* \"#utility.yul\":21033:21091   */\n      mstore\n        /* \"#utility.yul\":21125:21131   */\n      0x6f72652100000000000000000000000000000000000000000000000000000000\n        /* \"#utility.yul\":21120:21122   */\n      0x20\n        /* \"#utility.yul\":21112:21118   */\n      dup3\n        /* \"#utility.yul\":21108:21123   */\n      add\n        /* \"#utility.yul\":21101:21132   */\n      mstore\n        /* \"#utility.yul\":20916:21139   */\n      pop\n      jump\t// out\n        /* \"#utility.yul\":21145:21267   */\n    tag_142:\n        /* \"#utility.yul\":21218:21242   */\n      tag_372\n        /* \"#utility.yul\":21236:21241   */\n      dup2\n        /* \"#utility.yul\":21218:21242   */\n      tag_200\n      jump\t// in\n    tag_372:\n        /* \"#utility.yul\":21211:21216   */\n      dup2\n        /* \"#utility.yul\":21208:21243   */\n      eq\n        /* \"#utility.yul\":21198:21261   */\n      tag_373\n      jumpi\n        /* \"#utility.yul\":21257:21258   */\n      0x00\n        /* \"#utility.yul\":21254:21255   */\n      dup1\n        /* \"#utility.yul\":21247:21259   */\n      revert\n        /* \"#utility.yul\":21198:21261   */\n    tag_373:\n        /* \"#utility.yul\":21145:21267   */\n      pop\n      jump\t// out\n        /* \"#utility.yul\":21273:21395   */\n    tag_162:\n        /* \"#utility.yul\":21346:21370   */\n      tag_375\n        /* \"#utility.yul\":21364:21369   */\n      dup2\n        /* \"#utility.yul\":21346:21370   */\n      tag_278\n      jump\t// in\n    tag_375:\n        /* \"#utility.yul\":21339:21344   */\n      dup2\n        /* \"#utility.yul\":21336:21371   */\n      eq\n        /* \"#utility.yul\":21326:21389   */\n      tag_376\n      jumpi\n        /* \"#utility.yul\":21385:21386   */\n      0x00\n        /* \"#utility.yul\":21382:21383   */\n      dup1\n        /* \"#utility.yul\":21375:21387   */\n      revert\n        /* \"#utility.yul\":21326:21389   */\n    tag_376:\n        /* \"#utility.yul\":21273:21395   */\n      pop\n      jump\t// out\n\n    auxdata: 0xa26469706673582212202e77b70124dba8d23c23d72ef8deeb8cb2765e7dcb462885b7dcda59078bb41264736f6c63430008070033\n}\n",
				"bytecode": {
					"linkReferences": {},
					"object": "608060405234801561001057600080fd5b50336000806101000a81548173ffffffffffffffffffffffffffffffffffffffff021916908373ffffffffffffffffffffffffffffffffffffffff16021790555061153b806100606000396000f3fe608060405234801561001057600080fd5b50600436106100935760003560e01c80637acc0b20116100665780637acc0b20146101305780638da5cb5b14610162578063c29b2f2014610180578063ccc4174a1461019e578063fcc93b0b146101ce57610093565b80630a5bd44b146100985780634c437514146100b457806353b62866146100e45780635f7fad9c14610100575b600080fd5b6100b260048036038101906100ad9190610b2a565b6101ea565b005b6100ce60048036038101906100c99190610b9e565b610430565b6040516100db9190610f68565b60405180910390f35b6100fe60048036038101906100f99190610c54565b610466565b005b61011a60048036038101906101159190610be7565b610664565b6040516101279190610f68565b60405180910390f35b61014a60048036038101906101459190610be7565b610684565b60405161015993929190610f83565b60405180910390f35b61016a610746565b6040516101779190610f2b565b60405180910390f35b61018861076a565b6040516101959190610f46565b60405180910390f35b6101b860048036038101906101b39190610c14565b61086f565b6040516101c59190611081565b60405180910390f35b6101e860048036038101906101e39190610c54565b610894565b005b60008054906101000a900473ffffffffffffffffffffffffffffffffffffffff1673ffffffffffffffffffffffffffffffffffffffff163373ffffffffffffffffffffffffffffffffffffffff1614610278576040517f08c379a000000000000000000000000000000000000000000000000000000000815260040161026f90610fc1565b60405180910390fd5b6000848490501415801561028c5750600081115b61029557600080fd5b600384846040516102a7929190610f12565b908152602001604051809103902060009054906101000a900460ff1615610303576040517f08c379a00000000000000000000000000000000000000000000000000000000081526004016102fa90611061565b60405180910390fd5b600160038585604051610317929190610f12565b908152602001604051809103902060006101000a81548160ff021916908315150217905550600160026000600180549050815260200190815260200160002060006101000a81548160ff0219169083151502179055506001604051806060016040528086868080601f016020809104026020016040519081016040528093929190818152602001838380828437600081840152601f19601f8201169050808301925050505050505081526020018481526020018381525090806001815401808255809150506001900390600052602060002090600302016000909190919091506000820151816000019080519060200190610413929190610997565b506020820151816001015560408201518160020155505050505050565b6003818051602081018201805184825260208301602085012081835280955050505050506000915054906101000a900460ff1681565b6002600083815260200190815260200160002060009054906101000a900460ff166104c6576040517f08c379a00000000000000000000000000000000000000000000000000000000081526004016104bd90611001565b60405180910390fd5b60006004600084815260200190815260200160002060003373ffffffffffffffffffffffffffffffffffffffff1673ffffffffffffffffffffffffffffffffffffffff168152602001908152602001600020541115610561576001610560576040517f08c379a000000000000000000000000000000000000000000000000000000000815260040161055790611021565b60405180910390fd5b5b600060018381548110610577576105766112e2565b5b9060005260206000209060030201905081816001015410156105ce576040517f08c379a00000000000000000000000000000000000000000000000000000000081526004016105c590610fe1565b60405180910390fd5b816004600085815260200190815260200160002060003373ffffffffffffffffffffffffffffffffffffffff1673ffffffffffffffffffffffffffffffffffffffff168152602001908152602001600020819055508160018481548110610638576106376112e2565b5b906000526020600020906003020160010160008282546106589190611163565b92505081905550505050565b60026020528060005260406000206000915054906101000a900460ff1681565b6001818154811061069457600080fd5b90600052602060002090600302016000915090508060000180546106b790611221565b80601f01602080910402602001604051908101604052809291908181526020018280546106e390611221565b80156107305780601f1061070557610100808354040283529160200191610730565b820191906000526020600020905b81548152906001019060200180831161071357829003601f168201915b5050505050908060010154908060020154905083565b60008054906101000a900473ffffffffffffffffffffffffffffffffffffffff1681565b60606001805480602002602001604051908101604052809291908181526020016000905b8282101561086657838290600052602060002090600302016040518060600160405290816000820180546107c190611221565b80601f01602080910402602001604051908101604052809291908181526020018280546107ed90611221565b801561083a5780601f1061080f5761010080835404028352916020019161083a565b820191906000526020600020905b81548152906001019060200180831161081d57829003601f168201915b50505050508152602001600182015481526020016002820154815250508152602001906001019061078e565b50505050905090565b6004602052816000526040600020602052806000526040600020600091509150505481565b60008054906101000a900473ffffffffffffffffffffffffffffffffffffffff1673ffffffffffffffffffffffffffffffffffffffff163373ffffffffffffffffffffffffffffffffffffffff1614610922576040517f08c379a000000000000000000000000000000000000000000000000000000000815260040161091990610fc1565b60405180910390fd5b6001805490508210610969576040517f08c379a000000000000000000000000000000000000000000000000000000000815260040161096090611041565b60405180910390fd5b806001838154811061097e5761097d6112e2565b5b9060005260206000209060030201600101819055505050565b8280546109a390611221565b90600052602060002090601f0160209004810192826109c55760008555610a0c565b82601f106109de57805160ff1916838001178555610a0c565b82800160010185558215610a0c579182015b82811115610a0b5782518255916020019190600101906109f0565b5b509050610a199190610a1d565b5090565b5b80821115610a36576000816000905550600101610a1e565b5090565b6000610a4d610a48846110c1565b61109c565b905082815260208101848484011115610a6957610a6861134f565b5b610a748482856111df565b509392505050565b600081359050610a8b816114d7565b92915050565b60008083601f840112610aa757610aa6611345565b5b8235905067ffffffffffffffff811115610ac457610ac3611340565b5b602083019150836001820283011115610ae057610adf61134a565b5b9250929050565b600082601f830112610afc57610afb611345565b5b8135610b0c848260208601610a3a565b91505092915050565b600081359050610b24816114ee565b92915050565b60008060008060608587031215610b4457610b43611359565b5b600085013567ffffffffffffffff811115610b6257610b61611354565b5b610b6e87828801610a91565b94509450506020610b8187828801610b15565b9250506040610b9287828801610b15565b91505092959194509250565b600060208284031215610bb457610bb3611359565b5b600082013567ffffffffffffffff811115610bd257610bd1611354565b5b610bde84828501610ae7565b91505092915050565b600060208284031215610bfd57610bfc611359565b5b6000610c0b84828501610b15565b91505092915050565b60008060408385031215610c2b57610c2a611359565b5b6000610c3985828601610b15565b9250506020610c4a85828601610a7c565b9150509250929050565b60008060408385031215610c6b57610c6a611359565b5b6000610c7985828601610b15565b9250506020610c8a85828601610b15565b9150509250929050565b6000610ca08383610ea4565b905092915050565b610cb181611197565b82525050565b6000610cc282611102565b610ccc8185611125565b935083602082028501610cde856110f2565b8060005b85811015610d1a5784840389528151610cfb8582610c94565b9450610d0683611118565b925060208a01995050600181019050610ce2565b50829750879550505050505092915050565b610d35816111a9565b82525050565b6000610d478385611158565b9350610d548385846111df565b82840190509392505050565b6000610d6b8261110d565b610d758185611136565b9350610d858185602086016111ee565b610d8e8161135e565b840191505092915050565b6000610da48261110d565b610dae8185611147565b9350610dbe8185602086016111ee565b610dc78161135e565b840191505092915050565b6000610ddf601683611147565b9150610dea8261136f565b602082019050919050565b6000610e02602d83611147565b9150610e0d82611398565b604082019050919050565b6000610e25601883611147565b9150610e30826113e7565b602082019050919050565b6000610e48602583611147565b9150610e5382611410565b604082019050919050565b6000610e6b601c83611147565b9150610e768261145f565b602082019050919050565b6000610e8e602483611147565b9150610e9982611488565b604082019050919050565b60006060830160008301518482036000860152610ec18282610d60565b9150506020830151610ed66020860182610ef4565b506040830151610ee96040860182610ef4565b508091505092915050565b610efd816111d5565b82525050565b610f0c816111d5565b82525050565b6000610f1f828486610d3b565b91508190509392505050565b6000602082019050610f406000830184610ca8565b92915050565b60006020820190508181036000830152610f608184610cb7565b905092915050565b6000602082019050610f7d6000830184610d2c565b92915050565b60006060820190508181036000830152610f9d8186610d99565b9050610fac6020830185610f03565b610fb96040830184610f03565b949350505050565b60006020820190508181036000830152610fda81610dd2565b9050919050565b60006020820190508181036000830152610ffa81610df5565b9050919050565b6000602082019050818103600083015261101a81610e18565b9050919050565b6000602082019050818103600083015261103a81610e3b565b9050919050565b6000602082019050818103600083015261105a81610e5e565b9050919050565b6000602082019050818103600083015261107a81610e81565b9050919050565b60006020820190506110966000830184610f03565b92915050565b60006110a66110b7565b90506110b28282611253565b919050565b6000604051905090565b600067ffffffffffffffff8211156110dc576110db611311565b5b6110e58261135e565b9050602081019050919050565b6000819050602082019050919050565b600081519050919050565b600081519050919050565b6000602082019050919050565b600082825260208201905092915050565b600082825260208201905092915050565b600082825260208201905092915050565b600081905092915050565b600061116e826111d5565b9150611179836111d5565b92508282101561118c5761118b611284565b5b828203905092915050565b60006111a2826111b5565b9050919050565b60008115159050919050565b600073ffffffffffffffffffffffffffffffffffffffff82169050919050565b6000819050919050565b82818337600083830152505050565b60005b8381101561120c5780820151818401526020810190506111f1565b8381111561121b576000848401525b50505050565b6000600282049050600182168061123957607f821691505b6020821081141561124d5761124c6112b3565b5b50919050565b61125c8261135e565b810181811067ffffffffffffffff8211171561127b5761127a611311565b5b80604052505050565b7f4e487b7100000000000000000000000000000000000000000000000000000000600052601160045260246000fd5b7f4e487b7100000000000000000000000000000000000000000000000000000000600052602260045260246000fd5b7f4e487b7100000000000000000000000000000000000000000000000000000000600052603260045260246000fd5b7f4e487b7100000000000000000000000000000000000000000000000000000000600052604160045260246000fd5b600080fd5b600080fd5b600080fd5b600080fd5b600080fd5b600080fd5b6000601f19601f8301169050919050565b7f596f7520617265206e6f7420746865206f776e65722100000000000000000000600082015250565b7f5468652070726f64756374207175616e74697479206973206c6573732074686160008201527f6e20796f752077616e7465642100000000000000000000000000000000000000602082015250565b7f50726f6475637420646f6573206e6f7420657869737473210000000000000000600082015250565b7f596f75206861766520616c726561647920626f7567687420746869732070726f60008201527f6475637421000000000000000000000000000000000000000000000000000000602082015250565b7f5468652070726f64756374206973206e6f74206578697374696e672100000000600082015250565b7f5468652070726f6475637420697320616c726561647920696e2074686520737460008201527f6f72652100000000000000000000000000000000000000000000000000000000602082015250565b6114e081611197565b81146114eb57600080fd5b50565b6114f7816111d5565b811461150257600080fd5b5056fea26469706673582212202e77b70124dba8d23c23d72ef8deeb8cb2765e7dcb462885b7dcda59078bb41264736f6c63430008070033",
					"opcodes": "PUSH1 0x80 PUSH1 0x40 MSTORE CALLVALUE DUP1 ISZERO PUSH2 0x10 JUMPI PUSH1 0x0 DUP1 REVERT JUMPDEST POP CALLER PUSH1 0x0 DUP1 PUSH2 0x100 EXP DUP2 SLOAD DUP2 PUSH20 0xFFFFFFFFFFFFFFFFFFFFFFFFFFFFFFFFFFFFFFFF MUL NOT AND SWAP1 DUP4 PUSH20 0xFFFFFFFFFFFFFFFFFFFFFFFFFFFFFFFFFFFFFFFF AND MUL OR SWAP1 SSTORE POP PUSH2 0x153B DUP1 PUSH2 0x60 PUSH1 0x0 CODECOPY PUSH1 0x0 RETURN INVALID PUSH1 0x80 PUSH1 0x40 MSTORE CALLVALUE DUP1 ISZERO PUSH2 0x10 JUMPI PUSH1 0x0 DUP1 REVERT JUMPDEST POP PUSH1 0x4 CALLDATASIZE LT PUSH2 0x93 JUMPI PUSH1 0x0 CALLDATALOAD PUSH1 0xE0 SHR DUP1 PUSH4 0x7ACC0B20 GT PUSH2 0x66 JUMPI DUP1 PUSH4 0x7ACC0B20 EQ PUSH2 0x130 JUMPI DUP1 PUSH4 0x8DA5CB5B EQ PUSH2 0x162 JUMPI DUP1 PUSH4 0xC29B2F20 EQ PUSH2 0x180 JUMPI DUP1 PUSH4 0xCCC4174A EQ PUSH2 0x19E JUMPI DUP1 PUSH4 0xFCC93B0B EQ PUSH2 0x1CE JUMPI PUSH2 0x93 JUMP JUMPDEST DUP1 PUSH4 0xA5BD44B EQ PUSH2 0x98 JUMPI DUP1 PUSH4 0x4C437514 EQ PUSH2 0xB4 JUMPI DUP1 PUSH4 0x53B62866 EQ PUSH2 0xE4 JUMPI DUP1 PUSH4 0x5F7FAD9C EQ PUSH2 0x100 JUMPI JUMPDEST PUSH1 0x0 DUP1 REVERT JUMPDEST PUSH2 0xB2 PUSH1 0x4 DUP1 CALLDATASIZE SUB DUP2 ADD SWAP1 PUSH2 0xAD SWAP2 SWAP1 PUSH2 0xB2A JUMP JUMPDEST PUSH2 0x1EA JUMP JUMPDEST STOP JUMPDEST PUSH2 0xCE PUSH1 0x4 DUP1 CALLDATASIZE SUB DUP2 ADD SWAP1 PUSH2 0xC9 SWAP2 SWAP1 PUSH2 0xB9E JUMP JUMPDEST PUSH2 0x430 JUMP JUMPDEST PUSH1 0x40 MLOAD PUSH2 0xDB SWAP2 SWAP1 PUSH2 0xF68 JUMP JUMPDEST PUSH1 0x40 MLOAD DUP1 SWAP2 SUB SWAP1 RETURN JUMPDEST PUSH2 0xFE PUSH1 0x4 DUP1 CALLDATASIZE SUB DUP2 ADD SWAP1 PUSH2 0xF9 SWAP2 SWAP1 PUSH2 0xC54 JUMP JUMPDEST PUSH2 0x466 JUMP JUMPDEST STOP JUMPDEST PUSH2 0x11A PUSH1 0x4 DUP1 CALLDATASIZE SUB DUP2 ADD SWAP1 PUSH2 0x115 SWAP2 SWAP1 PUSH2 0xBE7 JUMP JUMPDEST PUSH2 0x664 JUMP JUMPDEST PUSH1 0x40 MLOAD PUSH2 0x127 SWAP2 SWAP1 PUSH2 0xF68 JUMP JUMPDEST PUSH1 0x40 MLOAD DUP1 SWAP2 SUB SWAP1 RETURN JUMPDEST PUSH2 0x14A PUSH1 0x4 DUP1 CALLDATASIZE SUB DUP2 ADD SWAP1 PUSH2 0x145 SWAP2 SWAP1 PUSH2 0xBE7 JUMP JUMPDEST PUSH2 0x684 JUMP JUMPDEST PUSH1 0x40 MLOAD PUSH2 0x159 SWAP4 SWAP3 SWAP2 SWAP1 PUSH2 0xF83 JUMP JUMPDEST PUSH1 0x40 MLOAD DUP1 SWAP2 SUB SWAP1 RETURN JUMPDEST PUSH2 0x16A PUSH2 0x746 JUMP JUMPDEST PUSH1 0x40 MLOAD PUSH2 0x177 SWAP2 SWAP1 PUSH2 0xF2B JUMP JUMPDEST PUSH1 0x40 MLOAD DUP1 SWAP2 SUB SWAP1 RETURN JUMPDEST PUSH2 0x188 PUSH2 0x76A JUMP JUMPDEST PUSH1 0x40 MLOAD PUSH2 0x195 SWAP2 SWAP1 PUSH2 0xF46 JUMP JUMPDEST PUSH1 0x40 MLOAD DUP1 SWAP2 SUB SWAP1 RETURN JUMPDEST PUSH2 0x1B8 PUSH1 0x4 DUP1 CALLDATASIZE SUB DUP2 ADD SWAP1 PUSH2 0x1B3 SWAP2 SWAP1 PUSH2 0xC14 JUMP JUMPDEST PUSH2 0x86F JUMP JUMPDEST PUSH1 0x40 MLOAD PUSH2 0x1C5 SWAP2 SWAP1 PUSH2 0x1081 JUMP JUMPDEST PUSH1 0x40 MLOAD DUP1 SWAP2 SUB SWAP1 RETURN JUMPDEST PUSH2 0x1E8 PUSH1 0x4 DUP1 CALLDATASIZE SUB DUP2 ADD SWAP1 PUSH2 0x1E3 SWAP2 SWAP1 PUSH2 0xC54 JUMP JUMPDEST PUSH2 0x894 JUMP JUMPDEST STOP JUMPDEST PUSH1 0x0 DUP1 SLOAD SWAP1 PUSH2 0x100 EXP SWAP1 DIV PUSH20 0xFFFFFFFFFFFFFFFFFFFFFFFFFFFFFFFFFFFFFFFF AND PUSH20 0xFFFFFFFFFFFFFFFFFFFFFFFFFFFFFFFFFFFFFFFF AND CALLER PUSH20 0xFFFFFFFFFFFFFFFFFFFFFFFFFFFFFFFFFFFFFFFF AND EQ PUSH2 0x278 JUMPI PUSH1 0x40 MLOAD PUSH32 0x8C379A000000000000000000000000000000000000000000000000000000000 DUP2 MSTORE PUSH1 0x4 ADD PUSH2 0x26F SWAP1 PUSH2 0xFC1 JUMP JUMPDEST PUSH1 0x40 MLOAD DUP1 SWAP2 SUB SWAP1 REVERT JUMPDEST PUSH1 0x0 DUP5 DUP5 SWAP1 POP EQ ISZERO DUP1 ISZERO PUSH2 0x28C JUMPI POP PUSH1 0x0 DUP2 GT JUMPDEST PUSH2 0x295 JUMPI PUSH1 0x0 DUP1 REVERT JUMPDEST PUSH1 0x3 DUP5 DUP5 PUSH1 0x40 MLOAD PUSH2 0x2A7 SWAP3 SWAP2 SWAP1 PUSH2 0xF12 JUMP JUMPDEST SWAP1 DUP2 MSTORE PUSH1 0x20 ADD PUSH1 0x40 MLOAD DUP1 SWAP2 SUB SWAP1 KECCAK256 PUSH1 0x0 SWAP1 SLOAD SWAP1 PUSH2 0x100 EXP SWAP1 DIV PUSH1 0xFF AND ISZERO PUSH2 0x303 JUMPI PUSH1 0x40 MLOAD PUSH32 0x8C379A000000000000000000000000000000000000000000000000000000000 DUP2 MSTORE PUSH1 0x4 ADD PUSH2 0x2FA SWAP1 PUSH2 0x1061 JUMP JUMPDEST PUSH1 0x40 MLOAD DUP1 SWAP2 SUB SWAP1 REVERT JUMPDEST PUSH1 0x1 PUSH1 0x3 DUP6 DUP6 PUSH1 0x40 MLOAD PUSH2 0x317 SWAP3 SWAP2 SWAP1 PUSH2 0xF12 JUMP JUMPDEST SWAP1 DUP2 MSTORE PUSH1 0x20 ADD PUSH1 0x40 MLOAD DUP1 SWAP2 SUB SWAP1 KECCAK256 PUSH1 0x0 PUSH2 0x100 EXP DUP2 SLOAD DUP2 PUSH1 0xFF MUL NOT AND SWAP1 DUP4 ISZERO ISZERO MUL OR SWAP1 SSTORE POP PUSH1 0x1 PUSH1 0x2 PUSH1 0x0 PUSH1 0x1 DUP1 SLOAD SWAP1 POP DUP2 MSTORE PUSH1 0x20 ADD SWAP1 DUP2 MSTORE PUSH1 0x20 ADD PUSH1 0x0 KECCAK256 PUSH1 0x0 PUSH2 0x100 EXP DUP2 SLOAD DUP2 PUSH1 0xFF MUL NOT AND SWAP1 DUP4 ISZERO ISZERO MUL OR SWAP1 SSTORE POP PUSH1 0x1 PUSH1 0x40 MLOAD DUP1 PUSH1 0x60 ADD PUSH1 0x40 MSTORE DUP1 DUP7 DUP7 DUP1 DUP1 PUSH1 0x1F ADD PUSH1 0x20 DUP1 SWAP2 DIV MUL PUSH1 0x20 ADD PUSH1 0x40 MLOAD SWAP1 DUP2 ADD PUSH1 0x40 MSTORE DUP1 SWAP4 SWAP3 SWAP2 SWAP1 DUP2 DUP2 MSTORE PUSH1 0x20 ADD DUP4 DUP4 DUP1 DUP3 DUP5 CALLDATACOPY PUSH1 0x0 DUP2 DUP5 ADD MSTORE PUSH1 0x1F NOT PUSH1 0x1F DUP3 ADD AND SWAP1 POP DUP1 DUP4 ADD SWAP3 POP POP POP POP POP POP POP DUP2 MSTORE PUSH1 0x20 ADD DUP5 DUP2 MSTORE PUSH1 0x20 ADD DUP4 DUP2 MSTORE POP SWAP1 DUP1 PUSH1 0x1 DUP2 SLOAD ADD DUP1 DUP3 SSTORE DUP1 SWAP2 POP POP PUSH1 0x1 SWAP1 SUB SWAP1 PUSH1 0x0 MSTORE PUSH1 0x20 PUSH1 0x0 KECCAK256 SWAP1 PUSH1 0x3 MUL ADD PUSH1 0x0 SWAP1 SWAP2 SWAP1 SWAP2 SWAP1 SWAP2 POP PUSH1 0x0 DUP3 ADD MLOAD DUP2 PUSH1 0x0 ADD SWAP1 DUP1 MLOAD SWAP1 PUSH1 0x20 ADD SWAP1 PUSH2 0x413 SWAP3 SWAP2 SWAP1 PUSH2 0x997 JUMP JUMPDEST POP PUSH1 0x20 DUP3 ADD MLOAD DUP2 PUSH1 0x1 ADD SSTORE PUSH1 0x40 DUP3 ADD MLOAD DUP2 PUSH1 0x2 ADD SSTORE POP POP POP POP POP POP JUMP JUMPDEST PUSH1 0x3 DUP2 DUP1 MLOAD PUSH1 0x20 DUP2 ADD DUP3 ADD DUP1 MLOAD DUP5 DUP3 MSTORE PUSH1 0x20 DUP4 ADD PUSH1 0x20 DUP6 ADD KECCAK256 DUP2 DUP4 MSTORE DUP1 SWAP6 POP POP POP POP POP POP PUSH1 0x0 SWAP2 POP SLOAD SWAP1 PUSH2 0x100 EXP SWAP1 DIV PUSH1 0xFF AND DUP2 JUMP JUMPDEST PUSH1 0x2 PUSH1 0x0 DUP4 DUP2 MSTORE PUSH1 0x20 ADD SWAP1 DUP2 MSTORE PUSH1 0x20 ADD PUSH1 0x0 KECCAK256 PUSH1 0x0 SWAP1 SLOAD SWAP1 PUSH2 0x100 EXP SWAP1 DIV PUSH1 0xFF AND PUSH2 0x4C6 JUMPI PUSH1 0x40 MLOAD PUSH32 0x8C379A000000000000000000000000000000000000000000000000000000000 DUP2 MSTORE PUSH1 0x4 ADD PUSH2 0x4BD SWAP1 PUSH2 0x1001 JUMP JUMPDEST PUSH1 0x40 MLOAD DUP1 SWAP2 SUB SWAP1 REVERT JUMPDEST PUSH1 0x0 PUSH1 0x4 PUSH1 0x0 DUP5 DUP2 MSTORE PUSH1 0x20 ADD SWAP1 DUP2 MSTORE PUSH1 0x20 ADD PUSH1 0x0 KECCAK256 PUSH1 0x0 CALLER PUSH20 0xFFFFFFFFFFFFFFFFFFFFFFFFFFFFFFFFFFFFFFFF AND PUSH20 0xFFFFFFFFFFFFFFFFFFFFFFFFFFFFFFFFFFFFFFFF AND DUP2 MSTORE PUSH1 0x20 ADD SWAP1 DUP2 MSTORE PUSH1 0x20 ADD PUSH1 0x0 KECCAK256 SLOAD GT ISZERO PUSH2 0x561 JUMPI PUSH1 0x1 PUSH2 0x560 JUMPI PUSH1 0x40 MLOAD PUSH32 0x8C379A000000000000000000000000000000000000000000000000000000000 DUP2 MSTORE PUSH1 0x4 ADD PUSH2 0x557 SWAP1 PUSH2 0x1021 JUMP JUMPDEST PUSH1 0x40 MLOAD DUP1 SWAP2 SUB SWAP1 REVERT JUMPDEST JUMPDEST PUSH1 0x0 PUSH1 0x1 DUP4 DUP2 SLOAD DUP2 LT PUSH2 0x577 JUMPI PUSH2 0x576 PUSH2 0x12E2 JUMP JUMPDEST JUMPDEST SWAP1 PUSH1 0x0 MSTORE PUSH1 0x20 PUSH1 0x0 KECCAK256 SWAP1 PUSH1 0x3 MUL ADD SWAP1 POP DUP2 DUP2 PUSH1 0x1 ADD SLOAD LT ISZERO PUSH2 0x5CE JUMPI PUSH1 0x40 MLOAD PUSH32 0x8C379A000000000000000000000000000000000000000000000000000000000 DUP2 MSTORE PUSH1 0x4 ADD PUSH2 0x5C5 SWAP1 PUSH2 0xFE1 JUMP JUMPDEST PUSH1 0x40 MLOAD DUP1 SWAP2 SUB SWAP1 REVERT JUMPDEST DUP2 PUSH1 0x4 PUSH1 0x0 DUP6 DUP2 MSTORE PUSH1 0x20 ADD SWAP1 DUP2 MSTORE PUSH1 0x20 ADD PUSH1 0x0 KECCAK256 PUSH1 0x0 CALLER PUSH20 0xFFFFFFFFFFFFFFFFFFFFFFFFFFFFFFFFFFFFFFFF AND PUSH20 0xFFFFFFFFFFFFFFFFFFFFFFFFFFFFFFFFFFFFFFFF AND DUP2 MSTORE PUSH1 0x20 ADD SWAP1 DUP2 MSTORE PUSH1 0x20 ADD PUSH1 0x0 KECCAK256 DUP2 SWAP1 SSTORE POP DUP2 PUSH1 0x1 DUP5 DUP2 SLOAD DUP2 LT PUSH2 0x638 JUMPI PUSH2 0x637 PUSH2 0x12E2 JUMP JUMPDEST JUMPDEST SWAP1 PUSH1 0x0 MSTORE PUSH1 0x20 PUSH1 0x0 KECCAK256 SWAP1 PUSH1 0x3 MUL ADD PUSH1 0x1 ADD PUSH1 0x0 DUP3 DUP3 SLOAD PUSH2 0x658 SWAP2 SWAP1 PUSH2 0x1163 JUMP JUMPDEST SWAP3 POP POP DUP2 SWAP1 SSTORE POP POP POP POP JUMP JUMPDEST PUSH1 0x2 PUSH1 0x20 MSTORE DUP1 PUSH1 0x0 MSTORE PUSH1 0x40 PUSH1 0x0 KECCAK256 PUSH1 0x0 SWAP2 POP SLOAD SWAP1 PUSH2 0x100 EXP SWAP1 DIV PUSH1 0xFF AND DUP2 JUMP JUMPDEST PUSH1 0x1 DUP2 DUP2 SLOAD DUP2 LT PUSH2 0x694 JUMPI PUSH1 0x0 DUP1 REVERT JUMPDEST SWAP1 PUSH1 0x0 MSTORE PUSH1 0x20 PUSH1 0x0 KECCAK256 SWAP1 PUSH1 0x3 MUL ADD PUSH1 0x0 SWAP2 POP SWAP1 POP DUP1 PUSH1 0x0 ADD DUP1 SLOAD PUSH2 0x6B7 SWAP1 PUSH2 0x1221 JUMP JUMPDEST DUP1 PUSH1 0x1F ADD PUSH1 0x20 DUP1 SWAP2 DIV MUL PUSH1 0x20 ADD PUSH1 0x40 MLOAD SWAP1 DUP2 ADD PUSH1 0x40 MSTORE DUP1 SWAP3 SWAP2 SWAP1 DUP2 DUP2 MSTORE PUSH1 0x20 ADD DUP3 DUP1 SLOAD PUSH2 0x6E3 SWAP1 PUSH2 0x1221 JUMP JUMPDEST DUP1 ISZERO PUSH2 0x730 JUMPI DUP1 PUSH1 0x1F LT PUSH2 0x705 JUMPI PUSH2 0x100 DUP1 DUP4 SLOAD DIV MUL DUP4 MSTORE SWAP2 PUSH1 0x20 ADD SWAP2 PUSH2 0x730 JUMP JUMPDEST DUP3 ADD SWAP2 SWAP1 PUSH1 0x0 MSTORE PUSH1 0x20 PUSH1 0x0 KECCAK256 SWAP1 JUMPDEST DUP2 SLOAD DUP2 MSTORE SWAP1 PUSH1 0x1 ADD SWAP1 PUSH1 0x20 ADD DUP1 DUP4 GT PUSH2 0x713 JUMPI DUP3 SWAP1 SUB PUSH1 0x1F AND DUP3 ADD SWAP2 JUMPDEST POP POP POP POP POP SWAP1 DUP1 PUSH1 0x1 ADD SLOAD SWAP1 DUP1 PUSH1 0x2 ADD SLOAD SWAP1 POP DUP4 JUMP JUMPDEST PUSH1 0x0 DUP1 SLOAD SWAP1 PUSH2 0x100 EXP SWAP1 DIV PUSH20 0xFFFFFFFFFFFFFFFFFFFFFFFFFFFFFFFFFFFFFFFF AND DUP2 JUMP JUMPDEST PUSH1 0x60 PUSH1 0x1 DUP1 SLOAD DUP1 PUSH1 0x20 MUL PUSH1 0x20 ADD PUSH1 0x40 MLOAD SWAP1 DUP2 ADD PUSH1 0x40 MSTORE DUP1 SWAP3 SWAP2 SWAP1 DUP2 DUP2 MSTORE PUSH1 0x20 ADD PUSH1 0x0 SWAP1 JUMPDEST DUP3 DUP3 LT ISZERO PUSH2 0x866 JUMPI DUP4 DUP3 SWAP1 PUSH1 0x0 MSTORE PUSH1 0x20 PUSH1 0x0 KECCAK256 SWAP1 PUSH1 0x3 MUL ADD PUSH1 0x40 MLOAD DUP1 PUSH1 0x60 ADD PUSH1 0x40 MSTORE SWAP1 DUP2 PUSH1 0x0 DUP3 ADD DUP1 SLOAD PUSH2 0x7C1 SWAP1 PUSH2 0x1221 JUMP JUMPDEST DUP1 PUSH1 0x1F ADD PUSH1 0x20 DUP1 SWAP2 DIV MUL PUSH1 0x20 ADD PUSH1 0x40 MLOAD SWAP1 DUP2 ADD PUSH1 0x40 MSTORE DUP1 SWAP3 SWAP2 SWAP1 DUP2 DUP2 MSTORE PUSH1 0x20 ADD DUP3 DUP1 SLOAD PUSH2 0x7ED SWAP1 PUSH2 0x1221 JUMP JUMPDEST DUP1 ISZERO PUSH2 0x83A JUMPI DUP1 PUSH1 0x1F LT PUSH2 0x80F JUMPI PUSH2 0x100 DUP1 DUP4 SLOAD DIV MUL DUP4 MSTORE SWAP2 PUSH1 0x20 ADD SWAP2 PUSH2 0x83A JUMP JUMPDEST DUP3 ADD SWAP2 SWAP1 PUSH1 0x0 MSTORE PUSH1 0x20 PUSH1 0x0 KECCAK256 SWAP1 JUMPDEST DUP2 SLOAD DUP2 MSTORE SWAP1 PUSH1 0x1 ADD SWAP1 PUSH1 0x20 ADD DUP1 DUP4 GT PUSH2 0x81D JUMPI DUP3 SWAP1 SUB PUSH1 0x1F AND DUP3 ADD SWAP2 JUMPDEST POP POP POP POP POP DUP2 MSTORE PUSH1 0x20 ADD PUSH1 0x1 DUP3 ADD SLOAD DUP2 MSTORE PUSH1 0x20 ADD PUSH1 0x2 DUP3 ADD SLOAD DUP2 MSTORE POP POP DUP2 MSTORE PUSH1 0x20 ADD SWAP1 PUSH1 0x1 ADD SWAP1 PUSH2 0x78E JUMP JUMPDEST POP POP POP POP SWAP1 POP SWAP1 JUMP JUMPDEST PUSH1 0x4 PUSH1 0x20 MSTORE DUP2 PUSH1 0x0 MSTORE PUSH1 0x40 PUSH1 0x0 KECCAK256 PUSH1 0x20 MSTORE DUP1 PUSH1 0x0 MSTORE PUSH1 0x40 PUSH1 0x0 KECCAK256 PUSH1 0x0 SWAP2 POP SWAP2 POP POP SLOAD DUP2 JUMP JUMPDEST PUSH1 0x0 DUP1 SLOAD SWAP1 PUSH2 0x100 EXP SWAP1 DIV PUSH20 0xFFFFFFFFFFFFFFFFFFFFFFFFFFFFFFFFFFFFFFFF AND PUSH20 0xFFFFFFFFFFFFFFFFFFFFFFFFFFFFFFFFFFFFFFFF AND CALLER PUSH20 0xFFFFFFFFFFFFFFFFFFFFFFFFFFFFFFFFFFFFFFFF AND EQ PUSH2 0x922 JUMPI PUSH1 0x40 MLOAD PUSH32 0x8C379A000000000000000000000000000000000000000000000000000000000 DUP2 MSTORE PUSH1 0x4 ADD PUSH2 0x919 SWAP1 PUSH2 0xFC1 JUMP JUMPDEST PUSH1 0x40 MLOAD DUP1 SWAP2 SUB SWAP1 REVERT JUMPDEST PUSH1 0x1 DUP1 SLOAD SWAP1 POP DUP3 LT PUSH2 0x969 JUMPI PUSH1 0x40 MLOAD PUSH32 0x8C379A000000000000000000000000000000000000000000000000000000000 DUP2 MSTORE PUSH1 0x4 ADD PUSH2 0x960 SWAP1 PUSH2 0x1041 JUMP JUMPDEST PUSH1 0x40 MLOAD DUP1 SWAP2 SUB SWAP1 REVERT JUMPDEST DUP1 PUSH1 0x1 DUP4 DUP2 SLOAD DUP2 LT PUSH2 0x97E JUMPI PUSH2 0x97D PUSH2 0x12E2 JUMP JUMPDEST JUMPDEST SWAP1 PUSH1 0x0 MSTORE PUSH1 0x20 PUSH1 0x0 KECCAK256 SWAP1 PUSH1 0x3 MUL ADD PUSH1 0x1 ADD DUP2 SWAP1 SSTORE POP POP POP JUMP JUMPDEST DUP3 DUP1 SLOAD PUSH2 0x9A3 SWAP1 PUSH2 0x1221 JUMP JUMPDEST SWAP1 PUSH1 0x0 MSTORE PUSH1 0x20 PUSH1 0x0 KECCAK256 SWAP1 PUSH1 0x1F ADD PUSH1 0x20 SWAP1 DIV DUP2 ADD SWAP3 DUP3 PUSH2 0x9C5 JUMPI PUSH1 0x0 DUP6 SSTORE PUSH2 0xA0C JUMP JUMPDEST DUP3 PUSH1 0x1F LT PUSH2 0x9DE JUMPI DUP1 MLOAD PUSH1 0xFF NOT AND DUP4 DUP1 ADD OR DUP6 SSTORE PUSH2 0xA0C JUMP JUMPDEST DUP3 DUP1 ADD PUSH1 0x1 ADD DUP6 SSTORE DUP3 ISZERO PUSH2 0xA0C JUMPI SWAP2 DUP3 ADD JUMPDEST DUP3 DUP2 GT ISZERO PUSH2 0xA0B JUMPI DUP3 MLOAD DUP3 SSTORE SWAP2 PUSH1 0x20 ADD SWAP2 SWAP1 PUSH1 0x1 ADD SWAP1 PUSH2 0x9F0 JUMP JUMPDEST JUMPDEST POP SWAP1 POP PUSH2 0xA19 SWAP2 SWAP1 PUSH2 0xA1D JUMP JUMPDEST POP SWAP1 JUMP JUMPDEST JUMPDEST DUP1 DUP3 GT ISZERO PUSH2 0xA36 JUMPI PUSH1 0x0 DUP2 PUSH1 0x0 SWAP1 SSTORE POP PUSH1 0x1 ADD PUSH2 0xA1E JUMP JUMPDEST POP SWAP1 JUMP JUMPDEST PUSH1 0x0 PUSH2 0xA4D PUSH2 0xA48 DUP5 PUSH2 0x10C1 JUMP JUMPDEST PUSH2 0x109C JUMP JUMPDEST SWAP1 POP DUP3 DUP2 MSTORE PUSH1 0x20 DUP2 ADD DUP5 DUP5 DUP5 ADD GT ISZERO PUSH2 0xA69 JUMPI PUSH2 0xA68 PUSH2 0x134F JUMP JUMPDEST JUMPDEST PUSH2 0xA74 DUP5 DUP3 DUP6 PUSH2 0x11DF JUMP JUMPDEST POP SWAP4 SWAP3 POP POP POP JUMP JUMPDEST PUSH1 0x0 DUP2 CALLDATALOAD SWAP1 POP PUSH2 0xA8B DUP2 PUSH2 0x14D7 JUMP JUMPDEST SWAP3 SWAP2 POP POP JUMP JUMPDEST PUSH1 0x0 DUP1 DUP4 PUSH1 0x1F DUP5 ADD SLT PUSH2 0xAA7 JUMPI PUSH2 0xAA6 PUSH2 0x1345 JUMP JUMPDEST JUMPDEST DUP3 CALLDATALOAD SWAP1 POP PUSH8 0xFFFFFFFFFFFFFFFF DUP2 GT ISZERO PUSH2 0xAC4 JUMPI PUSH2 0xAC3 PUSH2 0x1340 JUMP JUMPDEST JUMPDEST PUSH1 0x20 DUP4 ADD SWAP2 POP DUP4 PUSH1 0x1 DUP3 MUL DUP4 ADD GT ISZERO PUSH2 0xAE0 JUMPI PUSH2 0xADF PUSH2 0x134A JUMP JUMPDEST JUMPDEST SWAP3 POP SWAP3 SWAP1 POP JUMP JUMPDEST PUSH1 0x0 DUP3 PUSH1 0x1F DUP4 ADD SLT PUSH2 0xAFC JUMPI PUSH2 0xAFB PUSH2 0x1345 JUMP JUMPDEST JUMPDEST DUP2 CALLDATALOAD PUSH2 0xB0C DUP5 DUP3 PUSH1 0x20 DUP7 ADD PUSH2 0xA3A JUMP JUMPDEST SWAP2 POP POP SWAP3 SWAP2 POP POP JUMP JUMPDEST PUSH1 0x0 DUP2 CALLDATALOAD SWAP1 POP PUSH2 0xB24 DUP2 PUSH2 0x14EE JUMP JUMPDEST SWAP3 SWAP2 POP POP JUMP JUMPDEST PUSH1 0x0 DUP1 PUSH1 0x0 DUP1 PUSH1 0x60 DUP6 DUP8 SUB SLT ISZERO PUSH2 0xB44 JUMPI PUSH2 0xB43 PUSH2 0x1359 JUMP JUMPDEST JUMPDEST PUSH1 0x0 DUP6 ADD CALLDATALOAD PUSH8 0xFFFFFFFFFFFFFFFF DUP2 GT ISZERO PUSH2 0xB62 JUMPI PUSH2 0xB61 PUSH2 0x1354 JUMP JUMPDEST JUMPDEST PUSH2 0xB6E DUP8 DUP3 DUP9 ADD PUSH2 0xA91 JUMP JUMPDEST SWAP5 POP SWAP5 POP POP PUSH1 0x20 PUSH2 0xB81 DUP8 DUP3 DUP9 ADD PUSH2 0xB15 JUMP JUMPDEST SWAP3 POP POP PUSH1 0x40 PUSH2 0xB92 DUP8 DUP3 DUP9 ADD PUSH2 0xB15 JUMP JUMPDEST SWAP2 POP POP SWAP3 SWAP6 SWAP2 SWAP5 POP SWAP3 POP JUMP JUMPDEST PUSH1 0x0 PUSH1 0x20 DUP3 DUP5 SUB SLT ISZERO PUSH2 0xBB4 JUMPI PUSH2 0xBB3 PUSH2 0x1359 JUMP JUMPDEST JUMPDEST PUSH1 0x0 DUP3 ADD CALLDATALOAD PUSH8 0xFFFFFFFFFFFFFFFF DUP2 GT ISZERO PUSH2 0xBD2 JUMPI PUSH2 0xBD1 PUSH2 0x1354 JUMP JUMPDEST JUMPDEST PUSH2 0xBDE DUP5 DUP3 DUP6 ADD PUSH2 0xAE7 JUMP JUMPDEST SWAP2 POP POP SWAP3 SWAP2 POP POP JUMP JUMPDEST PUSH1 0x0 PUSH1 0x20 DUP3 DUP5 SUB SLT ISZERO PUSH2 0xBFD JUMPI PUSH2 0xBFC PUSH2 0x1359 JUMP JUMPDEST JUMPDEST PUSH1 0x0 PUSH2 0xC0B DUP5 DUP3 DUP6 ADD PUSH2 0xB15 JUMP JUMPDEST SWAP2 POP POP SWAP3 SWAP2 POP POP JUMP JUMPDEST PUSH1 0x0 DUP1 PUSH1 0x40 DUP4 DUP6 SUB SLT ISZERO PUSH2 0xC2B JUMPI PUSH2 0xC2A PUSH2 0x1359 JUMP JUMPDEST JUMPDEST PUSH1 0x0 PUSH2 0xC39 DUP6 DUP3 DUP7 ADD PUSH2 0xB15 JUMP JUMPDEST SWAP3 POP POP PUSH1 0x20 PUSH2 0xC4A DUP6 DUP3 DUP7 ADD PUSH2 0xA7C JUMP JUMPDEST SWAP2 POP POP SWAP3 POP SWAP3 SWAP1 POP JUMP JUMPDEST PUSH1 0x0 DUP1 PUSH1 0x40 DUP4 DUP6 SUB SLT ISZERO PUSH2 0xC6B JUMPI PUSH2 0xC6A PUSH2 0x1359 JUMP JUMPDEST JUMPDEST PUSH1 0x0 PUSH2 0xC79 DUP6 DUP3 DUP7 ADD PUSH2 0xB15 JUMP JUMPDEST SWAP3 POP POP PUSH1 0x20 PUSH2 0xC8A DUP6 DUP3 DUP7 ADD PUSH2 0xB15 JUMP JUMPDEST SWAP2 POP POP SWAP3 POP SWAP3 SWAP1 POP JUMP JUMPDEST PUSH1 0x0 PUSH2 0xCA0 DUP4 DUP4 PUSH2 0xEA4 JUMP JUMPDEST SWAP1 POP SWAP3 SWAP2 POP POP JUMP JUMPDEST PUSH2 0xCB1 DUP2 PUSH2 0x1197 JUMP JUMPDEST DUP3 MSTORE POP POP JUMP JUMPDEST PUSH1 0x0 PUSH2 0xCC2 DUP3 PUSH2 0x1102 JUMP JUMPDEST PUSH2 0xCCC DUP2 DUP6 PUSH2 0x1125 JUMP JUMPDEST SWAP4 POP DUP4 PUSH1 0x20 DUP3 MUL DUP6 ADD PUSH2 0xCDE DUP6 PUSH2 0x10F2 JUMP JUMPDEST DUP1 PUSH1 0x0 JUMPDEST DUP6 DUP2 LT ISZERO PUSH2 0xD1A JUMPI DUP5 DUP5 SUB DUP10 MSTORE DUP2 MLOAD PUSH2 0xCFB DUP6 DUP3 PUSH2 0xC94 JUMP JUMPDEST SWAP5 POP PUSH2 0xD06 DUP4 PUSH2 0x1118 JUMP JUMPDEST SWAP3 POP PUSH1 0x20 DUP11 ADD SWAP10 POP POP PUSH1 0x1 DUP2 ADD SWAP1 POP PUSH2 0xCE2 JUMP JUMPDEST POP DUP3 SWAP8 POP DUP8 SWAP6 POP POP POP POP POP POP SWAP3 SWAP2 POP POP JUMP JUMPDEST PUSH2 0xD35 DUP2 PUSH2 0x11A9 JUMP JUMPDEST DUP3 MSTORE POP POP JUMP JUMPDEST PUSH1 0x0 PUSH2 0xD47 DUP4 DUP6 PUSH2 0x1158 JUMP JUMPDEST SWAP4 POP PUSH2 0xD54 DUP4 DUP6 DUP5 PUSH2 0x11DF JUMP JUMPDEST DUP3 DUP5 ADD SWAP1 POP SWAP4 SWAP3 POP POP POP JUMP JUMPDEST PUSH1 0x0 PUSH2 0xD6B DUP3 PUSH2 0x110D JUMP JUMPDEST PUSH2 0xD75 DUP2 DUP6 PUSH2 0x1136 JUMP JUMPDEST SWAP4 POP PUSH2 0xD85 DUP2 DUP6 PUSH1 0x20 DUP7 ADD PUSH2 0x11EE JUMP JUMPDEST PUSH2 0xD8E DUP2 PUSH2 0x135E JUMP JUMPDEST DUP5 ADD SWAP2 POP POP SWAP3 SWAP2 POP POP JUMP JUMPDEST PUSH1 0x0 PUSH2 0xDA4 DUP3 PUSH2 0x110D JUMP JUMPDEST PUSH2 0xDAE DUP2 DUP6 PUSH2 0x1147 JUMP JUMPDEST SWAP4 POP PUSH2 0xDBE DUP2 DUP6 PUSH1 0x20 DUP7 ADD PUSH2 0x11EE JUMP JUMPDEST PUSH2 0xDC7 DUP2 PUSH2 0x135E JUMP JUMPDEST DUP5 ADD SWAP2 POP POP SWAP3 SWAP2 POP POP JUMP JUMPDEST PUSH1 0x0 PUSH2 0xDDF PUSH1 0x16 DUP4 PUSH2 0x1147 JUMP JUMPDEST SWAP2 POP PUSH2 0xDEA DUP3 PUSH2 0x136F JUMP JUMPDEST PUSH1 0x20 DUP3 ADD SWAP1 POP SWAP2 SWAP1 POP JUMP JUMPDEST PUSH1 0x0 PUSH2 0xE02 PUSH1 0x2D DUP4 PUSH2 0x1147 JUMP JUMPDEST SWAP2 POP PUSH2 0xE0D DUP3 PUSH2 0x1398 JUMP JUMPDEST PUSH1 0x40 DUP3 ADD SWAP1 POP SWAP2 SWAP1 POP JUMP JUMPDEST PUSH1 0x0 PUSH2 0xE25 PUSH1 0x18 DUP4 PUSH2 0x1147 JUMP JUMPDEST SWAP2 POP PUSH2 0xE30 DUP3 PUSH2 0x13E7 JUMP JUMPDEST PUSH1 0x20 DUP3 ADD SWAP1 POP SWAP2 SWAP1 POP JUMP JUMPDEST PUSH1 0x0 PUSH2 0xE48 PUSH1 0x25 DUP4 PUSH2 0x1147 JUMP JUMPDEST SWAP2 POP PUSH2 0xE53 DUP3 PUSH2 0x1410 JUMP JUMPDEST PUSH1 0x40 DUP3 ADD SWAP1 POP SWAP2 SWAP1 POP JUMP JUMPDEST PUSH1 0x0 PUSH2 0xE6B PUSH1 0x1C DUP4 PUSH2 0x1147 JUMP JUMPDEST SWAP2 POP PUSH2 0xE76 DUP3 PUSH2 0x145F JUMP JUMPDEST PUSH1 0x20 DUP3 ADD SWAP1 POP SWAP2 SWAP1 POP JUMP JUMPDEST PUSH1 0x0 PUSH2 0xE8E PUSH1 0x24 DUP4 PUSH2 0x1147 JUMP JUMPDEST SWAP2 POP PUSH2 0xE99 DUP3 PUSH2 0x1488 JUMP JUMPDEST PUSH1 0x40 DUP3 ADD SWAP1 POP SWAP2 SWAP1 POP JUMP JUMPDEST PUSH1 0x0 PUSH1 0x60 DUP4 ADD PUSH1 0x0 DUP4 ADD MLOAD DUP5 DUP3 SUB PUSH1 0x0 DUP7 ADD MSTORE PUSH2 0xEC1 DUP3 DUP3 PUSH2 0xD60 JUMP JUMPDEST SWAP2 POP POP PUSH1 0x20 DUP4 ADD MLOAD PUSH2 0xED6 PUSH1 0x20 DUP7 ADD DUP3 PUSH2 0xEF4 JUMP JUMPDEST POP PUSH1 0x40 DUP4 ADD MLOAD PUSH2 0xEE9 PUSH1 0x40 DUP7 ADD DUP3 PUSH2 0xEF4 JUMP JUMPDEST POP DUP1 SWAP2 POP POP SWAP3 SWAP2 POP POP JUMP JUMPDEST PUSH2 0xEFD DUP2 PUSH2 0x11D5 JUMP JUMPDEST DUP3 MSTORE POP POP JUMP JUMPDEST PUSH2 0xF0C DUP2 PUSH2 0x11D5 JUMP JUMPDEST DUP3 MSTORE POP POP JUMP JUMPDEST PUSH1 0x0 PUSH2 0xF1F DUP3 DUP5 DUP7 PUSH2 0xD3B JUMP JUMPDEST SWAP2 POP DUP2 SWAP1 POP SWAP4 SWAP3 POP POP POP JUMP JUMPDEST PUSH1 0x0 PUSH1 0x20 DUP3 ADD SWAP1 POP PUSH2 0xF40 PUSH1 0x0 DUP4 ADD DUP5 PUSH2 0xCA8 JUMP JUMPDEST SWAP3 SWAP2 POP POP JUMP JUMPDEST PUSH1 0x0 PUSH1 0x20 DUP3 ADD SWAP1 POP DUP2 DUP2 SUB PUSH1 0x0 DUP4 ADD MSTORE PUSH2 0xF60 DUP2 DUP5 PUSH2 0xCB7 JUMP JUMPDEST SWAP1 POP SWAP3 SWAP2 POP POP JUMP JUMPDEST PUSH1 0x0 PUSH1 0x20 DUP3 ADD SWAP1 POP PUSH2 0xF7D PUSH1 0x0 DUP4 ADD DUP5 PUSH2 0xD2C JUMP JUMPDEST SWAP3 SWAP2 POP POP JUMP JUMPDEST PUSH1 0x0 PUSH1 0x60 DUP3 ADD SWAP1 POP DUP2 DUP2 SUB PUSH1 0x0 DUP4 ADD MSTORE PUSH2 0xF9D DUP2 DUP7 PUSH2 0xD99 JUMP JUMPDEST SWAP1 POP PUSH2 0xFAC PUSH1 0x20 DUP4 ADD DUP6 PUSH2 0xF03 JUMP JUMPDEST PUSH2 0xFB9 PUSH1 0x40 DUP4 ADD DUP5 PUSH2 0xF03 JUMP JUMPDEST SWAP5 SWAP4 POP POP POP POP JUMP JUMPDEST PUSH1 0x0 PUSH1 0x20 DUP3 ADD SWAP1 POP DUP2 DUP2 SUB PUSH1 0x0 DUP4 ADD MSTORE PUSH2 0xFDA DUP2 PUSH2 0xDD2 JUMP JUMPDEST SWAP1 POP SWAP2 SWAP1 POP JUMP JUMPDEST PUSH1 0x0 PUSH1 0x20 DUP3 ADD SWAP1 POP DUP2 DUP2 SUB PUSH1 0x0 DUP4 ADD MSTORE PUSH2 0xFFA DUP2 PUSH2 0xDF5 JUMP JUMPDEST SWAP1 POP SWAP2 SWAP1 POP JUMP JUMPDEST PUSH1 0x0 PUSH1 0x20 DUP3 ADD SWAP1 POP DUP2 DUP2 SUB PUSH1 0x0 DUP4 ADD MSTORE PUSH2 0x101A DUP2 PUSH2 0xE18 JUMP JUMPDEST SWAP1 POP SWAP2 SWAP1 POP JUMP JUMPDEST PUSH1 0x0 PUSH1 0x20 DUP3 ADD SWAP1 POP DUP2 DUP2 SUB PUSH1 0x0 DUP4 ADD MSTORE PUSH2 0x103A DUP2 PUSH2 0xE3B JUMP JUMPDEST SWAP1 POP SWAP2 SWAP1 POP JUMP JUMPDEST PUSH1 0x0 PUSH1 0x20 DUP3 ADD SWAP1 POP DUP2 DUP2 SUB PUSH1 0x0 DUP4 ADD MSTORE PUSH2 0x105A DUP2 PUSH2 0xE5E JUMP JUMPDEST SWAP1 POP SWAP2 SWAP1 POP JUMP JUMPDEST PUSH1 0x0 PUSH1 0x20 DUP3 ADD SWAP1 POP DUP2 DUP2 SUB PUSH1 0x0 DUP4 ADD MSTORE PUSH2 0x107A DUP2 PUSH2 0xE81 JUMP JUMPDEST SWAP1 POP SWAP2 SWAP1 POP JUMP JUMPDEST PUSH1 0x0 PUSH1 0x20 DUP3 ADD SWAP1 POP PUSH2 0x1096 PUSH1 0x0 DUP4 ADD DUP5 PUSH2 0xF03 JUMP JUMPDEST SWAP3 SWAP2 POP POP JUMP JUMPDEST PUSH1 0x0 PUSH2 0x10A6 PUSH2 0x10B7 JUMP JUMPDEST SWAP1 POP PUSH2 0x10B2 DUP3 DUP3 PUSH2 0x1253 JUMP JUMPDEST SWAP2 SWAP1 POP JUMP JUMPDEST PUSH1 0x0 PUSH1 0x40 MLOAD SWAP1 POP SWAP1 JUMP JUMPDEST PUSH1 0x0 PUSH8 0xFFFFFFFFFFFFFFFF DUP3 GT ISZERO PUSH2 0x10DC JUMPI PUSH2 0x10DB PUSH2 0x1311 JUMP JUMPDEST JUMPDEST PUSH2 0x10E5 DUP3 PUSH2 0x135E JUMP JUMPDEST SWAP1 POP PUSH1 0x20 DUP2 ADD SWAP1 POP SWAP2 SWAP1 POP JUMP JUMPDEST PUSH1 0x0 DUP2 SWAP1 POP PUSH1 0x20 DUP3 ADD SWAP1 POP SWAP2 SWAP1 POP JUMP JUMPDEST PUSH1 0x0 DUP2 MLOAD SWAP1 POP SWAP2 SWAP1 POP JUMP JUMPDEST PUSH1 0x0 DUP2 MLOAD SWAP1 POP SWAP2 SWAP1 POP JUMP JUMPDEST PUSH1 0x0 PUSH1 0x20 DUP3 ADD SWAP1 POP SWAP2 SWAP1 POP JUMP JUMPDEST PUSH1 0x0 DUP3 DUP3 MSTORE PUSH1 0x20 DUP3 ADD SWAP1 POP SWAP3 SWAP2 POP POP JUMP JUMPDEST PUSH1 0x0 DUP3 DUP3 MSTORE PUSH1 0x20 DUP3 ADD SWAP1 POP SWAP3 SWAP2 POP POP JUMP JUMPDEST PUSH1 0x0 DUP3 DUP3 MSTORE PUSH1 0x20 DUP3 ADD SWAP1 POP SWAP3 SWAP2 POP POP JUMP JUMPDEST PUSH1 0x0 DUP2 SWAP1 POP SWAP3 SWAP2 POP POP JUMP JUMPDEST PUSH1 0x0 PUSH2 0x116E DUP3 PUSH2 0x11D5 JUMP JUMPDEST SWAP2 POP PUSH2 0x1179 DUP4 PUSH2 0x11D5 JUMP JUMPDEST SWAP3 POP DUP3 DUP3 LT ISZERO PUSH2 0x118C JUMPI PUSH2 0x118B PUSH2 0x1284 JUMP JUMPDEST JUMPDEST DUP3 DUP3 SUB SWAP1 POP SWAP3 SWAP2 POP POP JUMP JUMPDEST PUSH1 0x0 PUSH2 0x11A2 DUP3 PUSH2 0x11B5 JUMP JUMPDEST SWAP1 POP SWAP2 SWAP1 POP JUMP JUMPDEST PUSH1 0x0 DUP2 ISZERO ISZERO SWAP1 POP SWAP2 SWAP1 POP JUMP JUMPDEST PUSH1 0x0 PUSH20 0xFFFFFFFFFFFFFFFFFFFFFFFFFFFFFFFFFFFFFFFF DUP3 AND SWAP1 POP SWAP2 SWAP1 POP JUMP JUMPDEST PUSH1 0x0 DUP2 SWAP1 POP SWAP2 SWAP1 POP JUMP JUMPDEST DUP3 DUP2 DUP4 CALLDATACOPY PUSH1 0x0 DUP4 DUP4 ADD MSTORE POP POP POP JUMP JUMPDEST PUSH1 0x0 JUMPDEST DUP4 DUP2 LT ISZERO PUSH2 0x120C JUMPI DUP1 DUP3 ADD MLOAD DUP2 DUP5 ADD MSTORE PUSH1 0x20 DUP2 ADD SWAP1 POP PUSH2 0x11F1 JUMP JUMPDEST DUP4 DUP2 GT ISZERO PUSH2 0x121B JUMPI PUSH1 0x0 DUP5 DUP5 ADD MSTORE JUMPDEST POP POP POP POP JUMP JUMPDEST PUSH1 0x0 PUSH1 0x2 DUP3 DIV SWAP1 POP PUSH1 0x1 DUP3 AND DUP1 PUSH2 0x1239 JUMPI PUSH1 0x7F DUP3 AND SWAP2 POP JUMPDEST PUSH1 0x20 DUP3 LT DUP2 EQ ISZERO PUSH2 0x124D JUMPI PUSH2 0x124C PUSH2 0x12B3 JUMP JUMPDEST JUMPDEST POP SWAP2 SWAP1 POP JUMP JUMPDEST PUSH2 0x125C DUP3 PUSH2 0x135E JUMP JUMPDEST DUP2 ADD DUP2 DUP2 LT PUSH8 0xFFFFFFFFFFFFFFFF DUP3 GT OR ISZERO PUSH2 0x127B JUMPI PUSH2 0x127A PUSH2 0x1311 JUMP JUMPDEST JUMPDEST DUP1 PUSH1 0x40 MSTORE POP POP POP JUMP JUMPDEST PUSH32 0x4E487B7100000000000000000000000000000000000000000000000000000000 PUSH1 0x0 MSTORE PUSH1 0x11 PUSH1 0x4 MSTORE PUSH1 0x24 PUSH1 0x0 REVERT JUMPDEST PUSH32 0x4E487B7100000000000000000000000000000000000000000000000000000000 PUSH1 0x0 MSTORE PUSH1 0x22 PUSH1 0x4 MSTORE PUSH1 0x24 PUSH1 0x0 REVERT JUMPDEST PUSH32 0x4E487B7100000000000000000000000000000000000000000000000000000000 PUSH1 0x0 MSTORE PUSH1 0x32 PUSH1 0x4 MSTORE PUSH1 0x24 PUSH1 0x0 REVERT JUMPDEST PUSH32 0x4E487B7100000000000000000000000000000000000000000000000000000000 PUSH1 0x0 MSTORE PUSH1 0x41 PUSH1 0x4 MSTORE PUSH1 0x24 PUSH1 0x0 REVERT JUMPDEST PUSH1 0x0 DUP1 REVERT JUMPDEST PUSH1 0x0 DUP1 REVERT JUMPDEST PUSH1 0x0 DUP1 REVERT JUMPDEST PUSH1 0x0 DUP1 REVERT JUMPDEST PUSH1 0x0 DUP1 REVERT JUMPDEST PUSH1 0x0 DUP1 REVERT JUMPDEST PUSH1 0x0 PUSH1 0x1F NOT PUSH1 0x1F DUP4 ADD AND SWAP1 POP SWAP2 SWAP1 POP JUMP JUMPDEST PUSH32 0x596F7520617265206E6F7420746865206F776E65722100000000000000000000 PUSH1 0x0 DUP3 ADD MSTORE POP JUMP JUMPDEST PUSH32 0x5468652070726F64756374207175616E74697479206973206C65737320746861 PUSH1 0x0 DUP3 ADD MSTORE PUSH32 0x6E20796F752077616E7465642100000000000000000000000000000000000000 PUSH1 0x20 DUP3 ADD MSTORE POP JUMP JUMPDEST PUSH32 0x50726F6475637420646F6573206E6F7420657869737473210000000000000000 PUSH1 0x0 DUP3 ADD MSTORE POP JUMP JUMPDEST PUSH32 0x596F75206861766520616C726561647920626F7567687420746869732070726F PUSH1 0x0 DUP3 ADD MSTORE PUSH32 0x6475637421000000000000000000000000000000000000000000000000000000 PUSH1 0x20 DUP3 ADD MSTORE POP JUMP JUMPDEST PUSH32 0x5468652070726F64756374206973206E6F74206578697374696E672100000000 PUSH1 0x0 DUP3 ADD MSTORE POP JUMP JUMPDEST PUSH32 0x5468652070726F6475637420697320616C726561647920696E20746865207374 PUSH1 0x0 DUP3 ADD MSTORE PUSH32 0x6F72652100000000000000000000000000000000000000000000000000000000 PUSH1 0x20 DUP3 ADD MSTORE POP JUMP JUMPDEST PUSH2 0x14E0 DUP2 PUSH2 0x1197 JUMP JUMPDEST DUP2 EQ PUSH2 0x14EB JUMPI PUSH1 0x0 DUP1 REVERT JUMPDEST POP JUMP JUMPDEST PUSH2 0x14F7 DUP2 PUSH2 0x11D5 JUMP JUMPDEST DUP2 EQ PUSH2 0x1502 JUMPI PUSH1 0x0 DUP1 REVERT JUMPDEST POP JUMP INVALID LOG2 PUSH5 0x6970667358 0x22 SLT KECCAK256 0x2E PUSH24 0xB70124DBA8D23C23D72EF8DEEB8CB2765E7DCB462885B7DC 0xDA MSIZE SMOD DUP12 0xB4 SLT PUSH5 0x736F6C6343 STOP ADDMOD SMOD STOP CALLER "
				},
				"gasEstimates": {
					"creation": {
						"codeDepositCost": "1087000",
						"executionCost": "25393",
						"totalCost": "1112393"
					},
					"external": {
						"addNewProduct(string,uint256,uint256)": "infinite",
						"availableProductsIds(uint256)": "2863",
						"availableProductsNames(string)": "infinite",
						"buyProduct(uint256,uint256)": "infinite",
						"getProducts()": "infinite",
						"owner()": "2533",
						"products(uint256)": "infinite",
						"productsPurchases(uint256,address)": "infinite",
						"updateProductQuantity(uint256,uint256)": "infinite"
					}
				},
				"methodIdentifiers": {
					"addNewProduct(string,uint256,uint256)": "0a5bd44b",
					"availableProductsIds(uint256)": "5f7fad9c",
					"availableProductsNames(string)": "4c437514",
					"buyProduct(uint256,uint256)": "53b62866",
					"getProducts()": "c29b2f20",
					"owner()": "8da5cb5b",
					"products(uint256)": "7acc0b20",
					"productsPurchases(uint256,address)": "ccc4174a",
					"updateProductQuantity(uint256,uint256)": "fcc93b0b"
				}
			},
			"storageLayout": {
				"storage": [
					{
						"astId": 3,
						"contract": "contracts/Store.sol:Store",
						"label": "owner",
						"offset": 0,
						"slot": "0",
						"type": "t_address"
					},
					{
						"astId": 41,
						"contract": "contracts/Store.sol:Store",
						"label": "products",
						"offset": 0,
						"slot": "1",
						"type": "t_array(t_struct(Product)37_storage)dyn_storage"
					},
					{
						"astId": 45,
						"contract": "contracts/Store.sol:Store",
						"label": "availableProductsIds",
						"offset": 0,
						"slot": "2",
						"type": "t_mapping(t_uint256,t_bool)"
					},
					{
						"astId": 49,
						"contract": "contracts/Store.sol:Store",
						"label": "availableProductsNames",
						"offset": 0,
						"slot": "3",
						"type": "t_mapping(t_string_memory_ptr,t_bool)"
					},
					{
						"astId": 55,
						"contract": "contracts/Store.sol:Store",
						"label": "productsPurchases",
						"offset": 0,
						"slot": "4",
						"type": "t_mapping(t_uint256,t_mapping(t_address,t_uint256))"
					}
				],
				"types": {
					"t_address": {
						"encoding": "inplace",
						"label": "address",
						"numberOfBytes": "20"
					},
					"t_array(t_struct(Product)37_storage)dyn_storage": {
						"base": "t_struct(Product)37_storage",
						"encoding": "dynamic_array",
						"label": "struct Store.Product[]",
						"numberOfBytes": "32"
					},
					"t_bool": {
						"encoding": "inplace",
						"label": "bool",
						"numberOfBytes": "1"
					},
					"t_mapping(t_address,t_uint256)": {
						"encoding": "mapping",
						"key": "t_address",
						"label": "mapping(address => uint256)",
						"numberOfBytes": "32",
						"value": "t_uint256"
					},
					"t_mapping(t_string_memory_ptr,t_bool)": {
						"encoding": "mapping",
						"key": "t_string_memory_ptr",
						"label": "mapping(string => bool)",
						"numberOfBytes": "32",
						"value": "t_bool"
					},
					"t_mapping(t_uint256,t_bool)": {
						"encoding": "mapping",
						"key": "t_uint256",
						"label": "mapping(uint256 => bool)",
						"numberOfBytes": "32",
						"value": "t_bool"
					},
					"t_mapping(t_uint256,t_mapping(t_address,t_uint256))": {
						"encoding": "mapping",
						"key": "t_uint256",
						"label": "mapping(uint256 => mapping(address => uint256))",
						"numberOfBytes": "32",
						"value": "t_mapping(t_address,t_uint256)"
					},
					"t_string_memory_ptr": {
						"encoding": "bytes",
						"label": "string",
						"numberOfBytes": "32"
					},
					"t_string_storage": {
						"encoding": "bytes",
						"label": "string",
						"numberOfBytes": "32"
					},
					"t_struct(Product)37_storage": {
						"encoding": "inplace",
						"label": "struct Store.Product",
						"members": [
							{
								"astId": 32,
								"contract": "contracts/Store.sol:Store",
								"label": "name",
								"offset": 0,
								"slot": "0",
								"type": "t_string_storage"
							},
							{
								"astId": 34,
								"contract": "contracts/Store.sol:Store",
								"label": "quantity",
								"offset": 0,
								"slot": "1",
								"type": "t_uint256"
							},
							{
								"astId": 36,
								"contract": "contracts/Store.sol:Store",
								"label": "price",
								"offset": 0,
								"slot": "2",
								"type": "t_uint256"
							}
						],
						"numberOfBytes": "96"
					},
					"t_uint256": {
						"encoding": "inplace",
						"label": "uint256",
						"numberOfBytes": "32"
					}
				}
			},
			"userdoc": {
				"kind": "user",
				"methods": {},
				"version": 1
			}
		}
	}
}