{
	"contracts/USElection.sol": {
		"USElection": {
			"abi": [
				{
					"inputs": [],
					"name": "BIDEN",
					"outputs": [
						{
							"internalType": "uint8",
							"name": "",
							"type": "uint8"
						}
					],
					"stateMutability": "view",
					"type": "function"
				},
				{
					"inputs": [],
					"name": "TRUMP",
					"outputs": [
						{
							"internalType": "uint8",
							"name": "",
							"type": "uint8"
						}
					],
					"stateMutability": "view",
					"type": "function"
				},
				{
					"inputs": [],
					"name": "currentLeader",
					"outputs": [
						{
							"internalType": "uint8",
							"name": "",
							"type": "uint8"
						}
					],
					"stateMutability": "view",
					"type": "function"
				},
				{
					"inputs": [],
					"name": "electionEnded",
					"outputs": [
						{
							"internalType": "bool",
							"name": "",
							"type": "bool"
						}
					],
					"stateMutability": "view",
					"type": "function"
				},
				{
					"inputs": [],
					"name": "endElection",
					"outputs": [],
					"stateMutability": "nonpayable",
					"type": "function"
				},
				{
					"inputs": [],
					"name": "owner",
					"outputs": [
						{
							"internalType": "address",
							"name": "",
							"type": "address"
						}
					],
					"stateMutability": "view",
					"type": "function"
				},
				{
					"inputs": [
						{
							"internalType": "uint8",
							"name": "",
							"type": "uint8"
						}
					],
					"name": "seats",
					"outputs": [
						{
							"internalType": "uint8",
							"name": "",
							"type": "uint8"
						}
					],
					"stateMutability": "view",
					"type": "function"
				},
				{
					"inputs": [
						{
							"components": [
								{
									"internalType": "string",
									"name": "name",
									"type": "string"
								},
								{
									"internalType": "uint256",
									"name": "votesBiden",
									"type": "uint256"
								},
								{
									"internalType": "uint256",
									"name": "votesTrump",
									"type": "uint256"
								},
								{
									"internalType": "uint8",
									"name": "stateSeats",
									"type": "uint8"
								}
							],
							"internalType": "struct USElection.StateResult",
							"name": "result",
							"type": "tuple"
						}
					],
					"name": "submitStateResult",
					"outputs": [],
					"stateMutability": "nonpayable",
					"type": "function"
				},
				{
					"inputs": [
						{
							"internalType": "string",
							"name": "",
							"type": "string"
						}
					],
					"name": "submitedStates",
					"outputs": [
						{
							"internalType": "bool",
							"name": "",
							"type": "bool"
						}
					],
					"stateMutability": "view",
					"type": "function"
				}
			],
			"devdoc": {
				"kind": "dev",
				"methods": {},
				"version": 1
			},
			"evm": {
				"assembly": "    /* \"contracts/USElection.sol\":114:1540  contract USElection is Ownable {\r... */\n  mstore(0x40, 0x80)\n  callvalue\n  dup1\n  iszero\n  tag_1\n  jumpi\n  0x00\n  dup1\n  revert\ntag_1:\n  pop\n    /* \"contracts/Ownable.sol\":156:166  msg.sender */\n  caller\n    /* \"contracts/Ownable.sol\":148:153  owner */\n  0x00\n  dup1\n    /* \"contracts/Ownable.sol\":148:166  owner = msg.sender */\n  0x0100\n  exp\n  dup2\n  sload\n  dup2\n  0xffffffffffffffffffffffffffffffffffffffff\n  mul\n  not\n  and\n  swap1\n  dup4\n  0xffffffffffffffffffffffffffffffffffffffff\n  and\n  mul\n  or\n  swap1\n  sstore\n  pop\n    /* \"contracts/USElection.sol\":114:1540  contract USElection is Ownable {\r... */\n  dataSize(sub_0)\n  dup1\n  dataOffset(sub_0)\n  0x00\n  codecopy\n  0x00\n  return\nstop\n\nsub_0: assembly {\n        /* \"contracts/USElection.sol\":114:1540  contract USElection is Ownable {\r... */\n      mstore(0x40, 0x80)\n      callvalue\n      dup1\n      iszero\n      tag_1\n      jumpi\n      0x00\n      dup1\n      revert\n    tag_1:\n      pop\n      jumpi(tag_2, lt(calldatasize, 0x04))\n      shr(0xe0, calldataload(0x00))\n      dup1\n      0x713d87c5\n      gt\n      tag_12\n      jumpi\n      dup1\n      0x713d87c5\n      eq\n      tag_7\n      jumpi\n      dup1\n      0x8da5cb5b\n      eq\n      tag_8\n      jumpi\n      dup1\n      0xac4bd53a\n      eq\n      tag_9\n      jumpi\n      dup1\n      0xc94ca9e3\n      eq\n      tag_10\n      jumpi\n      dup1\n      0xe494a883\n      eq\n      tag_11\n      jumpi\n      jump(tag_2)\n    tag_12:\n      dup1\n      0x2d674216\n      eq\n      tag_3\n      jumpi\n      dup1\n      0x2d78d8e5\n      eq\n      tag_4\n      jumpi\n      dup1\n      0x59f78468\n      eq\n      tag_5\n      jumpi\n      dup1\n      0x69b36bd4\n      eq\n      tag_6\n      jumpi\n    tag_2:\n      0x00\n      dup1\n      revert\n        /* \"contracts/USElection.sol\":315:360  mapping(string => bool) public submitedStates */\n    tag_3:\n      tag_13\n      0x04\n      dup1\n      calldatasize\n      sub\n      dup2\n      add\n      swap1\n      tag_14\n      swap2\n      swap1\n      tag_15\n      jump\t// in\n    tag_14:\n      tag_16\n      jump\t// in\n    tag_13:\n      mload(0x40)\n      tag_17\n      swap2\n      swap1\n      tag_18\n      jump\t// in\n    tag_17:\n      mload(0x40)\n      dup1\n      swap2\n      sub\n      swap1\n      return\n        /* \"contracts/USElection.sol\":190:221  uint8 public constant TRUMP = 2 */\n    tag_4:\n      tag_19\n      tag_20\n      jump\t// in\n    tag_19:\n      mload(0x40)\n      tag_21\n      swap2\n      swap1\n      tag_22\n      jump\t// in\n    tag_21:\n      mload(0x40)\n      dup1\n      swap2\n      sub\n      swap1\n      return\n        /* \"contracts/USElection.sol\":1439:1537  function endElection() public onlyActiveElection onlyOwner {\r... */\n    tag_5:\n      tag_23\n      tag_24\n      jump\t// in\n    tag_23:\n      stop\n        /* \"contracts/USElection.sol\":152:183  uint8 public constant BIDEN = 1 */\n    tag_6:\n      tag_25\n      tag_26\n      jump\t// in\n    tag_25:\n      mload(0x40)\n      tag_27\n      swap2\n      swap1\n      tag_22\n      jump\t// in\n    tag_27:\n      mload(0x40)\n      dup1\n      swap2\n      sub\n      swap1\n      return\n        /* \"contracts/USElection.sol\":272:308  mapping(uint8 => uint8) public seats */\n    tag_7:\n      tag_28\n      0x04\n      dup1\n      calldatasize\n      sub\n      dup2\n      add\n      swap1\n      tag_29\n      swap2\n      swap1\n      tag_30\n      jump\t// in\n    tag_29:\n      tag_31\n      jump\t// in\n    tag_28:\n      mload(0x40)\n      tag_32\n      swap2\n      swap1\n      tag_22\n      jump\t// in\n    tag_32:\n      mload(0x40)\n      dup1\n      swap2\n      sub\n      swap1\n      return\n        /* \"contracts/Ownable.sol\":90:110  address public owner */\n    tag_8:\n      tag_33\n      tag_34\n      jump\t// in\n    tag_33:\n      mload(0x40)\n      tag_35\n      swap2\n      swap1\n      tag_36\n      jump\t// in\n    tag_35:\n      mload(0x40)\n      dup1\n      swap2\n      sub\n      swap1\n      return\n        /* \"contracts/USElection.sol\":1149:1427  function currentLeader() public view returns(uint8) {\r... */\n    tag_9:\n      tag_37\n      tag_38\n      jump\t// in\n    tag_37:\n      mload(0x40)\n      tag_39\n      swap2\n      swap1\n      tag_22\n      jump\t// in\n    tag_39:\n      mload(0x40)\n      dup1\n      swap2\n      sub\n      swap1\n      return\n        /* \"contracts/USElection.sol\":234:259  bool public electionEnded */\n    tag_10:\n      tag_40\n      tag_41\n      jump\t// in\n    tag_40:\n      mload(0x40)\n      tag_42\n      swap2\n      swap1\n      tag_18\n      jump\t// in\n    tag_42:\n      mload(0x40)\n      dup1\n      swap2\n      sub\n      swap1\n      return\n        /* \"contracts/USElection.sol\":626:1137  function submitStateResult(StateResult calldata result) public onlyActiveElection {\r... */\n    tag_11:\n      tag_43\n      0x04\n      dup1\n      calldatasize\n      sub\n      dup2\n      add\n      swap1\n      tag_44\n      swap2\n      swap1\n      tag_45\n      jump\t// in\n    tag_44:\n      tag_46\n      jump\t// in\n    tag_43:\n      stop\n        /* \"contracts/USElection.sol\":315:360  mapping(string => bool) public submitedStates */\n    tag_16:\n      0x02\n      dup2\n      dup1\n      mload\n      0x20\n      dup2\n      add\n      dup3\n      add\n      dup1\n      mload\n      dup5\n      dup3\n      mstore\n      0x20\n      dup4\n      add\n      0x20\n      dup6\n      add\n      keccak256\n      dup2\n      dup4\n      mstore\n      dup1\n      swap6\n      pop\n      pop\n      pop\n      pop\n      pop\n      pop\n      0x00\n      swap2\n      pop\n      sload\n      swap1\n      0x0100\n      exp\n      swap1\n      div\n      0xff\n      and\n      dup2\n      jump\t// out\n        /* \"contracts/USElection.sol\":190:221  uint8 public constant TRUMP = 2 */\n    tag_20:\n        /* \"contracts/USElection.sol\":220:221  2 */\n      0x02\n        /* \"contracts/USElection.sol\":190:221  uint8 public constant TRUMP = 2 */\n      dup2\n      jump\t// out\n        /* \"contracts/USElection.sol\":1439:1537  function endElection() public onlyActiveElection onlyOwner {\r... */\n    tag_24:\n        /* \"contracts/USElection.sol\":561:574  electionEnded */\n      0x00\n      0x14\n      swap1\n      sload\n      swap1\n      0x0100\n      exp\n      swap1\n      div\n      0xff\n      and\n        /* \"contracts/USElection.sol\":560:574  !electionEnded */\n      iszero\n        /* \"contracts/USElection.sol\":552:598  require(!electionEnded, \"Election has ended!\") */\n      tag_48\n      jumpi\n      mload(0x40)\n      0x08c379a000000000000000000000000000000000000000000000000000000000\n      dup2\n      mstore\n      0x04\n      add\n      tag_49\n      swap1\n      tag_50\n      jump\t// in\n    tag_49:\n      mload(0x40)\n      dup1\n      swap2\n      sub\n      swap1\n      revert\n    tag_48:\n        /* \"contracts/Ownable.sol\":236:241  owner */\n      0x00\n      dup1\n      sload\n      swap1\n      0x0100\n      exp\n      swap1\n      div\n      0xffffffffffffffffffffffffffffffffffffffff\n      and\n        /* \"contracts/Ownable.sol\":222:241  msg.sender == owner */\n      0xffffffffffffffffffffffffffffffffffffffff\n      and\n        /* \"contracts/Ownable.sol\":222:232  msg.sender */\n      caller\n        /* \"contracts/Ownable.sol\":222:241  msg.sender == owner */\n      0xffffffffffffffffffffffffffffffffffffffff\n      and\n      eq\n        /* \"contracts/Ownable.sol\":214:268  require(msg.sender == owner, \"You are not the owner!\") */\n      tag_52\n      jumpi\n      mload(0x40)\n      0x08c379a000000000000000000000000000000000000000000000000000000000\n      dup2\n      mstore\n      0x04\n      add\n      tag_53\n      swap1\n      tag_54\n      jump\t// in\n    tag_53:\n      mload(0x40)\n      dup1\n      swap2\n      sub\n      swap1\n      revert\n    tag_52:\n        /* \"contracts/USElection.sol\":1525:1529  true */\n      0x01\n        /* \"contracts/USElection.sol\":1509:1522  electionEnded */\n      0x00\n      0x14\n        /* \"contracts/USElection.sol\":1509:1529  electionEnded = true */\n      0x0100\n      exp\n      dup2\n      sload\n      dup2\n      0xff\n      mul\n      not\n      and\n      swap1\n      dup4\n      iszero\n      iszero\n      mul\n      or\n      swap1\n      sstore\n      pop\n        /* \"contracts/USElection.sol\":1439:1537  function endElection() public onlyActiveElection onlyOwner {\r... */\n      jump\t// out\n        /* \"contracts/USElection.sol\":152:183  uint8 public constant BIDEN = 1 */\n    tag_26:\n        /* \"contracts/USElection.sol\":182:183  1 */\n      0x01\n        /* \"contracts/USElection.sol\":152:183  uint8 public constant BIDEN = 1 */\n      dup2\n      jump\t// out\n        /* \"contracts/USElection.sol\":272:308  mapping(uint8 => uint8) public seats */\n    tag_31:\n      mstore(0x20, 0x01)\n      dup1\n      0x00\n      mstore\n      keccak256(0x00, 0x40)\n      0x00\n      swap2\n      pop\n      sload\n      swap1\n      0x0100\n      exp\n      swap1\n      div\n      0xff\n      and\n      dup2\n      jump\t// out\n        /* \"contracts/Ownable.sol\":90:110  address public owner */\n    tag_34:\n      0x00\n      dup1\n      sload\n      swap1\n      0x0100\n      exp\n      swap1\n      div\n      0xffffffffffffffffffffffffffffffffffffffff\n      and\n      dup2\n      jump\t// out\n        /* \"contracts/USElection.sol\":1149:1427  function currentLeader() public view returns(uint8) {\r... */\n    tag_38:\n        /* \"contracts/USElection.sol\":1194:1199  uint8 */\n      0x00\n        /* \"contracts/USElection.sol\":1212:1227  uint bidenSeats */\n      dup1\n        /* \"contracts/USElection.sol\":1230:1235  seats */\n      0x01\n        /* \"contracts/USElection.sol\":1230:1242  seats[BIDEN] */\n      0x00\n        /* \"contracts/USElection.sol\":182:183  1 */\n      0x01\n        /* \"contracts/USElection.sol\":1230:1242  seats[BIDEN] */\n      0xff\n      and\n      0xff\n      and\n      dup2\n      mstore\n      0x20\n      add\n      swap1\n      dup2\n      mstore\n      0x20\n      add\n      0x00\n      keccak256\n      0x00\n      swap1\n      sload\n      swap1\n      0x0100\n      exp\n      swap1\n      div\n      0xff\n      and\n        /* \"contracts/USElection.sol\":1212:1242  uint bidenSeats = seats[BIDEN] */\n      0xff\n      and\n      swap1\n      pop\n        /* \"contracts/USElection.sol\":1253:1268  uint trumpSeats */\n      0x00\n        /* \"contracts/USElection.sol\":1271:1276  seats */\n      0x01\n        /* \"contracts/USElection.sol\":1271:1283  seats[TRUMP] */\n      0x00\n        /* \"contracts/USElection.sol\":220:221  2 */\n      0x02\n        /* \"contracts/USElection.sol\":1271:1283  seats[TRUMP] */\n      0xff\n      and\n      0xff\n      and\n      dup2\n      mstore\n      0x20\n      add\n      swap1\n      dup2\n      mstore\n      0x20\n      add\n      0x00\n      keccak256\n      0x00\n      swap1\n      sload\n      swap1\n      0x0100\n      exp\n      swap1\n      div\n      0xff\n      and\n        /* \"contracts/USElection.sol\":1253:1283  uint trumpSeats = seats[TRUMP] */\n      0xff\n      and\n      swap1\n      pop\n        /* \"contracts/USElection.sol\":1314:1324  trumpSeats */\n      dup1\n        /* \"contracts/USElection.sol\":1300:1310  bidenSeats */\n      dup3\n        /* \"contracts/USElection.sol\":1300:1324  bidenSeats == trumpSeats */\n      eq\n        /* \"contracts/USElection.sol\":1296:1361  if (bidenSeats == trumpSeats) {\r... */\n      iszero\n      tag_57\n      jumpi\n        /* \"contracts/USElection.sol\":1348:1349  0 */\n      0x00\n        /* \"contracts/USElection.sol\":1341:1349  return 0 */\n      swap3\n      pop\n      pop\n      pop\n      jump(tag_56)\n        /* \"contracts/USElection.sol\":1296:1361  if (bidenSeats == trumpSeats) {\r... */\n    tag_57:\n        /* \"contracts/USElection.sol\":1393:1403  trumpSeats */\n      dup1\n        /* \"contracts/USElection.sol\":1380:1390  bidenSeats */\n      dup3\n        /* \"contracts/USElection.sol\":1380:1403  bidenSeats > trumpSeats */\n      gt\n        /* \"contracts/USElection.sol\":1380:1419  bidenSeats > trumpSeats ? BIDEN : TRUMP */\n      tag_58\n      jumpi\n        /* \"contracts/USElection.sol\":220:221  2 */\n      0x02\n        /* \"contracts/USElection.sol\":1380:1419  bidenSeats > trumpSeats ? BIDEN : TRUMP */\n      jump(tag_59)\n    tag_58:\n        /* \"contracts/USElection.sol\":182:183  1 */\n      0x01\n        /* \"contracts/USElection.sol\":1380:1419  bidenSeats > trumpSeats ? BIDEN : TRUMP */\n    tag_59:\n        /* \"contracts/USElection.sol\":1373:1419  return bidenSeats > trumpSeats ? BIDEN : TRUMP */\n      swap3\n      pop\n      pop\n      pop\n        /* \"contracts/USElection.sol\":1149:1427  function currentLeader() public view returns(uint8) {\r... */\n    tag_56:\n      swap1\n      jump\t// out\n        /* \"contracts/USElection.sol\":234:259  bool public electionEnded */\n    tag_41:\n      0x00\n      0x14\n      swap1\n      sload\n      swap1\n      0x0100\n      exp\n      swap1\n      div\n      0xff\n      and\n      dup2\n      jump\t// out\n        /* \"contracts/USElection.sol\":626:1137  function submitStateResult(StateResult calldata result) public onlyActiveElection {\r... */\n    tag_46:\n        /* \"contracts/USElection.sol\":561:574  electionEnded */\n      0x00\n      0x14\n      swap1\n      sload\n      swap1\n      0x0100\n      exp\n      swap1\n      div\n      0xff\n      and\n        /* \"contracts/USElection.sol\":560:574  !electionEnded */\n      iszero\n        /* \"contracts/USElection.sol\":552:598  require(!electionEnded, \"Election has ended!\") */\n      tag_61\n      jumpi\n      mload(0x40)\n      0x08c379a000000000000000000000000000000000000000000000000000000000\n      dup2\n      mstore\n      0x04\n      add\n      tag_62\n      swap1\n      tag_50\n      jump\t// in\n    tag_62:\n      mload(0x40)\n      dup1\n      swap2\n      sub\n      swap1\n      revert\n    tag_61:\n        /* \"contracts/USElection.sol\":747:748  0 */\n      0x00\n        /* \"contracts/USElection.sol\":727:733  result */\n      dup2\n        /* \"contracts/USElection.sol\":727:744  result.stateSeats */\n      0x60\n      add\n      0x20\n      dup2\n      add\n      swap1\n      tag_64\n      swap2\n      swap1\n      tag_30\n      jump\t// in\n    tag_64:\n        /* \"contracts/USElection.sol\":727:748  result.stateSeats > 0 */\n      0xff\n      and\n      gt\n        /* \"contracts/USElection.sol\":719:781  require(result.stateSeats > 0, \"State seets cannot be empty!\") */\n      tag_65\n      jumpi\n      mload(0x40)\n      0x08c379a000000000000000000000000000000000000000000000000000000000\n      dup2\n      mstore\n      0x04\n      add\n      tag_66\n      swap1\n      tag_67\n      jump\t// in\n    tag_66:\n      mload(0x40)\n      dup1\n      swap2\n      sub\n      swap1\n      revert\n    tag_65:\n        /* \"contracts/USElection.sol\":801:815  submitedStates */\n      0x02\n        /* \"contracts/USElection.sol\":816:822  result */\n      dup2\n        /* \"contracts/USElection.sol\":816:827  result.name */\n      dup1\n      0x00\n      add\n      swap1\n      tag_68\n      swap2\n      swap1\n      tag_69\n      jump\t// in\n    tag_68:\n        /* \"contracts/USElection.sol\":801:828  submitedStates[result.name] */\n      mload(0x40)\n      tag_70\n      swap3\n      swap2\n      swap1\n      tag_71\n      jump\t// in\n    tag_70:\n      swap1\n      dup2\n      mstore\n      0x20\n      add\n      mload(0x40)\n      dup1\n      swap2\n      sub\n      swap1\n      keccak256\n      0x00\n      swap1\n      sload\n      swap1\n      0x0100\n      exp\n      swap1\n      div\n      0xff\n      and\n        /* \"contracts/USElection.sol\":800:828  !submitedStates[result.name] */\n      iszero\n        /* \"contracts/USElection.sol\":792:873  require(!submitedStates[result.name], \"This state has already submited results!\") */\n      tag_72\n      jumpi\n      mload(0x40)\n      0x08c379a000000000000000000000000000000000000000000000000000000000\n      dup2\n      mstore\n      0x04\n      add\n      tag_73\n      swap1\n      tag_74\n      jump\t// in\n    tag_73:\n      mload(0x40)\n      dup1\n      swap2\n      sub\n      swap1\n      revert\n    tag_72:\n        /* \"contracts/USElection.sol\":913:919  result */\n      dup1\n        /* \"contracts/USElection.sol\":913:930  result.votesTrump */\n      0x40\n      add\n      calldataload\n        /* \"contracts/USElection.sol\":892:898  result */\n      dup2\n        /* \"contracts/USElection.sol\":892:909  result.votesBiden */\n      0x20\n      add\n      calldataload\n        /* \"contracts/USElection.sol\":892:930  result.votesBiden != result.votesTrump */\n      eq\n      iszero\n        /* \"contracts/USElection.sol\":884:956  require(result.votesBiden != result.votesTrump, \"There cannot be a tie\") */\n      tag_75\n      jumpi\n      mload(0x40)\n      0x08c379a000000000000000000000000000000000000000000000000000000000\n      dup2\n      mstore\n      0x04\n      add\n      tag_76\n      swap1\n      tag_77\n      jump\t// in\n    tag_76:\n      mload(0x40)\n      dup1\n      swap2\n      sub\n      swap1\n      revert\n    tag_75:\n        /* \"contracts/USElection.sol\":999:1003  true */\n      0x01\n        /* \"contracts/USElection.sol\":969:983  submitedStates */\n      0x02\n        /* \"contracts/USElection.sol\":984:990  result */\n      dup3\n        /* \"contracts/USElection.sol\":984:995  result.name */\n      dup1\n      0x00\n      add\n      swap1\n      tag_78\n      swap2\n      swap1\n      tag_69\n      jump\t// in\n    tag_78:\n        /* \"contracts/USElection.sol\":969:996  submitedStates[result.name] */\n      mload(0x40)\n      tag_79\n      swap3\n      swap2\n      swap1\n      tag_71\n      jump\t// in\n    tag_79:\n      swap1\n      dup2\n      mstore\n      0x20\n      add\n      mload(0x40)\n      dup1\n      swap2\n      sub\n      swap1\n      keccak256\n      0x00\n        /* \"contracts/USElection.sol\":969:1003  submitedStates[result.name] = true */\n      0x0100\n      exp\n      dup2\n      sload\n      dup2\n      0xff\n      mul\n      not\n      and\n      swap1\n      dup4\n      iszero\n      iszero\n      mul\n      or\n      swap1\n      sstore\n      pop\n        /* \"contracts/USElection.sol\":1016:1028  uint8 winner */\n      0x00\n        /* \"contracts/USElection.sol\":1051:1057  result */\n      dup2\n        /* \"contracts/USElection.sol\":1051:1068  result.votesBiden */\n      0x20\n      add\n      calldataload\n        /* \"contracts/USElection.sol\":1031:1037  result */\n      dup3\n        /* \"contracts/USElection.sol\":1031:1048  result.votesTrump */\n      0x40\n      add\n      calldataload\n        /* \"contracts/USElection.sol\":1031:1068  result.votesTrump > result.votesBiden */\n      gt\n        /* \"contracts/USElection.sol\":1031:1084  result.votesTrump > result.votesBiden ? TRUMP : BIDEN */\n      tag_80\n      jumpi\n        /* \"contracts/USElection.sol\":182:183  1 */\n      0x01\n        /* \"contracts/USElection.sol\":1031:1084  result.votesTrump > result.votesBiden ? TRUMP : BIDEN */\n      jump(tag_81)\n    tag_80:\n        /* \"contracts/USElection.sol\":220:221  2 */\n      0x02\n        /* \"contracts/USElection.sol\":1031:1084  result.votesTrump > result.votesBiden ? TRUMP : BIDEN */\n    tag_81:\n        /* \"contracts/USElection.sol\":1016:1084  uint8 winner = result.votesTrump > result.votesBiden ? TRUMP : BIDEN */\n      swap1\n      pop\n        /* \"contracts/USElection.sol\":1112:1118  result */\n      dup2\n        /* \"contracts/USElection.sol\":1112:1129  result.stateSeats */\n      0x60\n      add\n      0x20\n      dup2\n      add\n      swap1\n      tag_82\n      swap2\n      swap1\n      tag_30\n      jump\t// in\n    tag_82:\n        /* \"contracts/USElection.sol\":1095:1100  seats */\n      0x01\n        /* \"contracts/USElection.sol\":1095:1108  seats[winner] */\n      0x00\n        /* \"contracts/USElection.sol\":1101:1107  winner */\n      dup4\n        /* \"contracts/USElection.sol\":1095:1108  seats[winner] */\n      0xff\n      and\n      0xff\n      and\n      dup2\n      mstore\n      0x20\n      add\n      swap1\n      dup2\n      mstore\n      0x20\n      add\n      0x00\n      keccak256\n      0x00\n        /* \"contracts/USElection.sol\":1095:1129  seats[winner] += result.stateSeats */\n      dup3\n      dup3\n      dup3\n      swap1\n      sload\n      swap1\n      0x0100\n      exp\n      swap1\n      div\n      0xff\n      and\n      tag_83\n      swap2\n      swap1\n      tag_84\n      jump\t// in\n    tag_83:\n      swap3\n      pop\n      0x0100\n      exp\n      dup2\n      sload\n      dup2\n      0xff\n      mul\n      not\n      and\n      swap1\n      dup4\n      0xff\n      and\n      mul\n      or\n      swap1\n      sstore\n      pop\n        /* \"contracts/USElection.sol\":708:1137  {\r... */\n      pop\n        /* \"contracts/USElection.sol\":626:1137  function submitStateResult(StateResult calldata result) public onlyActiveElection {\r... */\n      pop\n      jump\t// out\n        /* \"#utility.yul\":7:419   */\n    tag_86:\n        /* \"#utility.yul\":85:90   */\n      0x00\n        /* \"#utility.yul\":110:176   */\n      tag_88\n        /* \"#utility.yul\":126:175   */\n      tag_89\n        /* \"#utility.yul\":168:174   */\n      dup5\n        /* \"#utility.yul\":126:175   */\n      tag_90\n      jump\t// in\n    tag_89:\n        /* \"#utility.yul\":110:176   */\n      tag_91\n      jump\t// in\n    tag_88:\n        /* \"#utility.yul\":101:176   */\n      swap1\n      pop\n        /* \"#utility.yul\":199:205   */\n      dup3\n        /* \"#utility.yul\":192:197   */\n      dup2\n        /* \"#utility.yul\":185:206   */\n      mstore\n        /* \"#utility.yul\":237:241   */\n      0x20\n        /* \"#utility.yul\":230:235   */\n      dup2\n        /* \"#utility.yul\":226:242   */\n      add\n        /* \"#utility.yul\":275:278   */\n      dup5\n        /* \"#utility.yul\":266:272   */\n      dup5\n        /* \"#utility.yul\":261:264   */\n      dup5\n        /* \"#utility.yul\":257:273   */\n      add\n        /* \"#utility.yul\":254:279   */\n      gt\n        /* \"#utility.yul\":251:363   */\n      iszero\n      tag_92\n      jumpi\n        /* \"#utility.yul\":282:361   */\n      tag_93\n      tag_94\n      jump\t// in\n    tag_93:\n        /* \"#utility.yul\":251:363   */\n    tag_92:\n        /* \"#utility.yul\":372:413   */\n      tag_95\n        /* \"#utility.yul\":406:412   */\n      dup5\n        /* \"#utility.yul\":401:404   */\n      dup3\n        /* \"#utility.yul\":396:399   */\n      dup6\n        /* \"#utility.yul\":372:413   */\n      tag_96\n      jump\t// in\n    tag_95:\n        /* \"#utility.yul\":91:419   */\n      pop\n        /* \"#utility.yul\":7:419   */\n      swap4\n      swap3\n      pop\n      pop\n      pop\n      jump\t// out\n        /* \"#utility.yul\":439:779   */\n    tag_97:\n        /* \"#utility.yul\":495:500   */\n      0x00\n        /* \"#utility.yul\":544:547   */\n      dup3\n        /* \"#utility.yul\":537:541   */\n      0x1f\n        /* \"#utility.yul\":529:535   */\n      dup4\n        /* \"#utility.yul\":525:542   */\n      add\n        /* \"#utility.yul\":521:548   */\n      slt\n        /* \"#utility.yul\":511:633   */\n      tag_99\n      jumpi\n        /* \"#utility.yul\":552:631   */\n      tag_100\n      tag_101\n      jump\t// in\n    tag_100:\n        /* \"#utility.yul\":511:633   */\n    tag_99:\n        /* \"#utility.yul\":669:675   */\n      dup2\n        /* \"#utility.yul\":656:676   */\n      calldataload\n        /* \"#utility.yul\":694:773   */\n      tag_102\n        /* \"#utility.yul\":769:772   */\n      dup5\n        /* \"#utility.yul\":761:767   */\n      dup3\n        /* \"#utility.yul\":754:758   */\n      0x20\n        /* \"#utility.yul\":746:752   */\n      dup7\n        /* \"#utility.yul\":742:759   */\n      add\n        /* \"#utility.yul\":694:773   */\n      tag_86\n      jump\t// in\n    tag_102:\n        /* \"#utility.yul\":685:773   */\n      swap2\n      pop\n        /* \"#utility.yul\":501:779   */\n      pop\n        /* \"#utility.yul\":439:779   */\n      swap3\n      swap2\n      pop\n      pop\n      jump\t// out\n        /* \"#utility.yul\":822:1056   */\n    tag_103:\n        /* \"#utility.yul\":897:902   */\n      0x00\n        /* \"#utility.yul\":938:941   */\n      0x80\n        /* \"#utility.yul\":929:935   */\n      dup3\n        /* \"#utility.yul\":924:927   */\n      dup5\n        /* \"#utility.yul\":920:936   */\n      sub\n        /* \"#utility.yul\":916:942   */\n      slt\n        /* \"#utility.yul\":913:1026   */\n      iszero\n      tag_105\n      jumpi\n        /* \"#utility.yul\":945:1024   */\n      tag_106\n      tag_107\n      jump\t// in\n    tag_106:\n        /* \"#utility.yul\":913:1026   */\n    tag_105:\n        /* \"#utility.yul\":1044:1050   */\n      dup2\n        /* \"#utility.yul\":1035:1050   */\n      swap1\n      pop\n        /* \"#utility.yul\":822:1056   */\n      swap3\n      swap2\n      pop\n      pop\n      jump\t// out\n        /* \"#utility.yul\":1062:1197   */\n    tag_108:\n        /* \"#utility.yul\":1106:1111   */\n      0x00\n        /* \"#utility.yul\":1144:1150   */\n      dup2\n        /* \"#utility.yul\":1131:1151   */\n      calldataload\n        /* \"#utility.yul\":1122:1151   */\n      swap1\n      pop\n        /* \"#utility.yul\":1160:1191   */\n      tag_110\n        /* \"#utility.yul\":1185:1190   */\n      dup2\n        /* \"#utility.yul\":1160:1191   */\n      tag_111\n      jump\t// in\n    tag_110:\n        /* \"#utility.yul\":1062:1197   */\n      swap3\n      swap2\n      pop\n      pop\n      jump\t// out\n        /* \"#utility.yul\":1203:1712   */\n    tag_15:\n        /* \"#utility.yul\":1272:1278   */\n      0x00\n        /* \"#utility.yul\":1321:1323   */\n      0x20\n        /* \"#utility.yul\":1309:1318   */\n      dup3\n        /* \"#utility.yul\":1300:1307   */\n      dup5\n        /* \"#utility.yul\":1296:1319   */\n      sub\n        /* \"#utility.yul\":1292:1324   */\n      slt\n        /* \"#utility.yul\":1289:1408   */\n      iszero\n      tag_113\n      jumpi\n        /* \"#utility.yul\":1327:1406   */\n      tag_114\n      tag_115\n      jump\t// in\n    tag_114:\n        /* \"#utility.yul\":1289:1408   */\n    tag_113:\n        /* \"#utility.yul\":1475:1476   */\n      0x00\n        /* \"#utility.yul\":1464:1473   */\n      dup3\n        /* \"#utility.yul\":1460:1477   */\n      add\n        /* \"#utility.yul\":1447:1478   */\n      calldataload\n        /* \"#utility.yul\":1505:1523   */\n      0xffffffffffffffff\n        /* \"#utility.yul\":1497:1503   */\n      dup2\n        /* \"#utility.yul\":1494:1524   */\n      gt\n        /* \"#utility.yul\":1491:1608   */\n      iszero\n      tag_116\n      jumpi\n        /* \"#utility.yul\":1527:1606   */\n      tag_117\n      tag_118\n      jump\t// in\n    tag_117:\n        /* \"#utility.yul\":1491:1608   */\n    tag_116:\n        /* \"#utility.yul\":1632:1695   */\n      tag_119\n        /* \"#utility.yul\":1687:1694   */\n      dup5\n        /* \"#utility.yul\":1678:1684   */\n      dup3\n        /* \"#utility.yul\":1667:1676   */\n      dup6\n        /* \"#utility.yul\":1663:1685   */\n      add\n        /* \"#utility.yul\":1632:1695   */\n      tag_97\n      jump\t// in\n    tag_119:\n        /* \"#utility.yul\":1622:1695   */\n      swap2\n      pop\n        /* \"#utility.yul\":1418:1705   */\n      pop\n        /* \"#utility.yul\":1203:1712   */\n      swap3\n      swap2\n      pop\n      pop\n      jump\t// out\n        /* \"#utility.yul\":1718:2265   */\n    tag_45:\n        /* \"#utility.yul\":1806:1812   */\n      0x00\n        /* \"#utility.yul\":1855:1857   */\n      0x20\n        /* \"#utility.yul\":1843:1852   */\n      dup3\n        /* \"#utility.yul\":1834:1841   */\n      dup5\n        /* \"#utility.yul\":1830:1853   */\n      sub\n        /* \"#utility.yul\":1826:1858   */\n      slt\n        /* \"#utility.yul\":1823:1942   */\n      iszero\n      tag_121\n      jumpi\n        /* \"#utility.yul\":1861:1940   */\n      tag_122\n      tag_115\n      jump\t// in\n    tag_122:\n        /* \"#utility.yul\":1823:1942   */\n    tag_121:\n        /* \"#utility.yul\":2009:2010   */\n      0x00\n        /* \"#utility.yul\":1998:2007   */\n      dup3\n        /* \"#utility.yul\":1994:2011   */\n      add\n        /* \"#utility.yul\":1981:2012   */\n      calldataload\n        /* \"#utility.yul\":2039:2057   */\n      0xffffffffffffffff\n        /* \"#utility.yul\":2031:2037   */\n      dup2\n        /* \"#utility.yul\":2028:2058   */\n      gt\n        /* \"#utility.yul\":2025:2142   */\n      iszero\n      tag_123\n      jumpi\n        /* \"#utility.yul\":2061:2140   */\n      tag_124\n      tag_118\n      jump\t// in\n    tag_124:\n        /* \"#utility.yul\":2025:2142   */\n    tag_123:\n        /* \"#utility.yul\":2166:2248   */\n      tag_125\n        /* \"#utility.yul\":2240:2247   */\n      dup5\n        /* \"#utility.yul\":2231:2237   */\n      dup3\n        /* \"#utility.yul\":2220:2229   */\n      dup6\n        /* \"#utility.yul\":2216:2238   */\n      add\n        /* \"#utility.yul\":2166:2248   */\n      tag_103\n      jump\t// in\n    tag_125:\n        /* \"#utility.yul\":2156:2248   */\n      swap2\n      pop\n        /* \"#utility.yul\":1952:2258   */\n      pop\n        /* \"#utility.yul\":1718:2265   */\n      swap3\n      swap2\n      pop\n      pop\n      jump\t// out\n        /* \"#utility.yul\":2271:2596   */\n    tag_30:\n        /* \"#utility.yul\":2328:2334   */\n      0x00\n        /* \"#utility.yul\":2377:2379   */\n      0x20\n        /* \"#utility.yul\":2365:2374   */\n      dup3\n        /* \"#utility.yul\":2356:2363   */\n      dup5\n        /* \"#utility.yul\":2352:2375   */\n      sub\n        /* \"#utility.yul\":2348:2380   */\n      slt\n        /* \"#utility.yul\":2345:2464   */\n      iszero\n      tag_127\n      jumpi\n        /* \"#utility.yul\":2383:2462   */\n      tag_128\n      tag_115\n      jump\t// in\n    tag_128:\n        /* \"#utility.yul\":2345:2464   */\n    tag_127:\n        /* \"#utility.yul\":2503:2504   */\n      0x00\n        /* \"#utility.yul\":2528:2579   */\n      tag_129\n        /* \"#utility.yul\":2571:2578   */\n      dup5\n        /* \"#utility.yul\":2562:2568   */\n      dup3\n        /* \"#utility.yul\":2551:2560   */\n      dup6\n        /* \"#utility.yul\":2547:2569   */\n      add\n        /* \"#utility.yul\":2528:2579   */\n      tag_108\n      jump\t// in\n    tag_129:\n        /* \"#utility.yul\":2518:2579   */\n      swap2\n      pop\n        /* \"#utility.yul\":2474:2589   */\n      pop\n        /* \"#utility.yul\":2271:2596   */\n      swap3\n      swap2\n      pop\n      pop\n      jump\t// out\n        /* \"#utility.yul\":2602:2720   */\n    tag_130:\n        /* \"#utility.yul\":2689:2713   */\n      tag_132\n        /* \"#utility.yul\":2707:2712   */\n      dup2\n        /* \"#utility.yul\":2689:2713   */\n      tag_133\n      jump\t// in\n    tag_132:\n        /* \"#utility.yul\":2684:2687   */\n      dup3\n        /* \"#utility.yul\":2677:2714   */\n      mstore\n        /* \"#utility.yul\":2602:2720   */\n      pop\n      pop\n      jump\t// out\n        /* \"#utility.yul\":2726:2835   */\n    tag_134:\n        /* \"#utility.yul\":2807:2828   */\n      tag_136\n        /* \"#utility.yul\":2822:2827   */\n      dup2\n        /* \"#utility.yul\":2807:2828   */\n      tag_137\n      jump\t// in\n    tag_136:\n        /* \"#utility.yul\":2802:2805   */\n      dup3\n        /* \"#utility.yul\":2795:2829   */\n      mstore\n        /* \"#utility.yul\":2726:2835   */\n      pop\n      pop\n      jump\t// out\n        /* \"#utility.yul\":2865:3182   */\n    tag_138:\n        /* \"#utility.yul\":2981:2984   */\n      0x00\n        /* \"#utility.yul\":3002:3091   */\n      tag_140\n        /* \"#utility.yul\":3084:3090   */\n      dup4\n        /* \"#utility.yul\":3079:3082   */\n      dup6\n        /* \"#utility.yul\":3002:3091   */\n      tag_141\n      jump\t// in\n    tag_140:\n        /* \"#utility.yul\":2995:3091   */\n      swap4\n      pop\n        /* \"#utility.yul\":3101:3144   */\n      tag_142\n        /* \"#utility.yul\":3137:3143   */\n      dup4\n        /* \"#utility.yul\":3132:3135   */\n      dup6\n        /* \"#utility.yul\":3125:3130   */\n      dup5\n        /* \"#utility.yul\":3101:3144   */\n      tag_96\n      jump\t// in\n    tag_142:\n        /* \"#utility.yul\":3169:3175   */\n      dup3\n        /* \"#utility.yul\":3164:3167   */\n      dup5\n        /* \"#utility.yul\":3160:3176   */\n      add\n        /* \"#utility.yul\":3153:3176   */\n      swap1\n      pop\n        /* \"#utility.yul\":2865:3182   */\n      swap4\n      swap3\n      pop\n      pop\n      pop\n      jump\t// out\n        /* \"#utility.yul\":3188:3554   */\n    tag_143:\n        /* \"#utility.yul\":3330:3333   */\n      0x00\n        /* \"#utility.yul\":3351:3418   */\n      tag_145\n        /* \"#utility.yul\":3415:3417   */\n      0x16\n        /* \"#utility.yul\":3410:3413   */\n      dup4\n        /* \"#utility.yul\":3351:3418   */\n      tag_146\n      jump\t// in\n    tag_145:\n        /* \"#utility.yul\":3344:3418   */\n      swap2\n      pop\n        /* \"#utility.yul\":3427:3520   */\n      tag_147\n        /* \"#utility.yul\":3516:3519   */\n      dup3\n        /* \"#utility.yul\":3427:3520   */\n      tag_148\n      jump\t// in\n    tag_147:\n        /* \"#utility.yul\":3545:3547   */\n      0x20\n        /* \"#utility.yul\":3540:3543   */\n      dup3\n        /* \"#utility.yul\":3536:3548   */\n      add\n        /* \"#utility.yul\":3529:3548   */\n      swap1\n      pop\n        /* \"#utility.yul\":3188:3554   */\n      swap2\n      swap1\n      pop\n      jump\t// out\n        /* \"#utility.yul\":3560:3926   */\n    tag_149:\n        /* \"#utility.yul\":3702:3705   */\n      0x00\n        /* \"#utility.yul\":3723:3790   */\n      tag_151\n        /* \"#utility.yul\":3787:3789   */\n      0x13\n        /* \"#utility.yul\":3782:3785   */\n      dup4\n        /* \"#utility.yul\":3723:3790   */\n      tag_146\n      jump\t// in\n    tag_151:\n        /* \"#utility.yul\":3716:3790   */\n      swap2\n      pop\n        /* \"#utility.yul\":3799:3892   */\n      tag_152\n        /* \"#utility.yul\":3888:3891   */\n      dup3\n        /* \"#utility.yul\":3799:3892   */\n      tag_153\n      jump\t// in\n    tag_152:\n        /* \"#utility.yul\":3917:3919   */\n      0x20\n        /* \"#utility.yul\":3912:3915   */\n      dup3\n        /* \"#utility.yul\":3908:3920   */\n      add\n        /* \"#utility.yul\":3901:3920   */\n      swap1\n      pop\n        /* \"#utility.yul\":3560:3926   */\n      swap2\n      swap1\n      pop\n      jump\t// out\n        /* \"#utility.yul\":3932:4298   */\n    tag_154:\n        /* \"#utility.yul\":4074:4077   */\n      0x00\n        /* \"#utility.yul\":4095:4162   */\n      tag_156\n        /* \"#utility.yul\":4159:4161   */\n      0x15\n        /* \"#utility.yul\":4154:4157   */\n      dup4\n        /* \"#utility.yul\":4095:4162   */\n      tag_146\n      jump\t// in\n    tag_156:\n        /* \"#utility.yul\":4088:4162   */\n      swap2\n      pop\n        /* \"#utility.yul\":4171:4264   */\n      tag_157\n        /* \"#utility.yul\":4260:4263   */\n      dup3\n        /* \"#utility.yul\":4171:4264   */\n      tag_158\n      jump\t// in\n    tag_157:\n        /* \"#utility.yul\":4289:4291   */\n      0x20\n        /* \"#utility.yul\":4284:4287   */\n      dup3\n        /* \"#utility.yul\":4280:4292   */\n      add\n        /* \"#utility.yul\":4273:4292   */\n      swap1\n      pop\n        /* \"#utility.yul\":3932:4298   */\n      swap2\n      swap1\n      pop\n      jump\t// out\n        /* \"#utility.yul\":4304:4670   */\n    tag_159:\n        /* \"#utility.yul\":4446:4449   */\n      0x00\n        /* \"#utility.yul\":4467:4534   */\n      tag_161\n        /* \"#utility.yul\":4531:4533   */\n      0x28\n        /* \"#utility.yul\":4526:4529   */\n      dup4\n        /* \"#utility.yul\":4467:4534   */\n      tag_146\n      jump\t// in\n    tag_161:\n        /* \"#utility.yul\":4460:4534   */\n      swap2\n      pop\n        /* \"#utility.yul\":4543:4636   */\n      tag_162\n        /* \"#utility.yul\":4632:4635   */\n      dup3\n        /* \"#utility.yul\":4543:4636   */\n      tag_163\n      jump\t// in\n    tag_162:\n        /* \"#utility.yul\":4661:4663   */\n      0x40\n        /* \"#utility.yul\":4656:4659   */\n      dup3\n        /* \"#utility.yul\":4652:4664   */\n      add\n        /* \"#utility.yul\":4645:4664   */\n      swap1\n      pop\n        /* \"#utility.yul\":4304:4670   */\n      swap2\n      swap1\n      pop\n      jump\t// out\n        /* \"#utility.yul\":4676:5042   */\n    tag_164:\n        /* \"#utility.yul\":4818:4821   */\n      0x00\n        /* \"#utility.yul\":4839:4906   */\n      tag_166\n        /* \"#utility.yul\":4903:4905   */\n      0x1c\n        /* \"#utility.yul\":4898:4901   */\n      dup4\n        /* \"#utility.yul\":4839:4906   */\n      tag_146\n      jump\t// in\n    tag_166:\n        /* \"#utility.yul\":4832:4906   */\n      swap2\n      pop\n        /* \"#utility.yul\":4915:5008   */\n      tag_167\n        /* \"#utility.yul\":5004:5007   */\n      dup3\n        /* \"#utility.yul\":4915:5008   */\n      tag_168\n      jump\t// in\n    tag_167:\n        /* \"#utility.yul\":5033:5035   */\n      0x20\n        /* \"#utility.yul\":5028:5031   */\n      dup3\n        /* \"#utility.yul\":5024:5036   */\n      add\n        /* \"#utility.yul\":5017:5036   */\n      swap1\n      pop\n        /* \"#utility.yul\":4676:5042   */\n      swap2\n      swap1\n      pop\n      jump\t// out\n        /* \"#utility.yul\":5048:5160   */\n    tag_169:\n        /* \"#utility.yul\":5131:5153   */\n      tag_171\n        /* \"#utility.yul\":5147:5152   */\n      dup2\n        /* \"#utility.yul\":5131:5153   */\n      tag_172\n      jump\t// in\n    tag_171:\n        /* \"#utility.yul\":5126:5129   */\n      dup3\n        /* \"#utility.yul\":5119:5154   */\n      mstore\n        /* \"#utility.yul\":5048:5160   */\n      pop\n      pop\n      jump\t// out\n        /* \"#utility.yul\":5166:5461   */\n    tag_71:\n        /* \"#utility.yul\":5308:5311   */\n      0x00\n        /* \"#utility.yul\":5330:5435   */\n      tag_174\n        /* \"#utility.yul\":5431:5434   */\n      dup3\n        /* \"#utility.yul\":5422:5428   */\n      dup5\n        /* \"#utility.yul\":5414:5420   */\n      dup7\n        /* \"#utility.yul\":5330:5435   */\n      tag_138\n      jump\t// in\n    tag_174:\n        /* \"#utility.yul\":5323:5435   */\n      swap2\n      pop\n        /* \"#utility.yul\":5452:5455   */\n      dup2\n        /* \"#utility.yul\":5445:5455   */\n      swap1\n      pop\n        /* \"#utility.yul\":5166:5461   */\n      swap4\n      swap3\n      pop\n      pop\n      pop\n      jump\t// out\n        /* \"#utility.yul\":5467:5689   */\n    tag_36:\n        /* \"#utility.yul\":5560:5564   */\n      0x00\n        /* \"#utility.yul\":5598:5600   */\n      0x20\n        /* \"#utility.yul\":5587:5596   */\n      dup3\n        /* \"#utility.yul\":5583:5601   */\n      add\n        /* \"#utility.yul\":5575:5601   */\n      swap1\n      pop\n        /* \"#utility.yul\":5611:5682   */\n      tag_176\n        /* \"#utility.yul\":5679:5680   */\n      0x00\n        /* \"#utility.yul\":5668:5677   */\n      dup4\n        /* \"#utility.yul\":5664:5681   */\n      add\n        /* \"#utility.yul\":5655:5661   */\n      dup5\n        /* \"#utility.yul\":5611:5682   */\n      tag_130\n      jump\t// in\n    tag_176:\n        /* \"#utility.yul\":5467:5689   */\n      swap3\n      swap2\n      pop\n      pop\n      jump\t// out\n        /* \"#utility.yul\":5695:5905   */\n    tag_18:\n        /* \"#utility.yul\":5782:5786   */\n      0x00\n        /* \"#utility.yul\":5820:5822   */\n      0x20\n        /* \"#utility.yul\":5809:5818   */\n      dup3\n        /* \"#utility.yul\":5805:5823   */\n      add\n        /* \"#utility.yul\":5797:5823   */\n      swap1\n      pop\n        /* \"#utility.yul\":5833:5898   */\n      tag_178\n        /* \"#utility.yul\":5895:5896   */\n      0x00\n        /* \"#utility.yul\":5884:5893   */\n      dup4\n        /* \"#utility.yul\":5880:5897   */\n      add\n        /* \"#utility.yul\":5871:5877   */\n      dup5\n        /* \"#utility.yul\":5833:5898   */\n      tag_134\n      jump\t// in\n    tag_178:\n        /* \"#utility.yul\":5695:5905   */\n      swap3\n      swap2\n      pop\n      pop\n      jump\t// out\n        /* \"#utility.yul\":5911:6330   */\n    tag_54:\n        /* \"#utility.yul\":6077:6081   */\n      0x00\n        /* \"#utility.yul\":6115:6117   */\n      0x20\n        /* \"#utility.yul\":6104:6113   */\n      dup3\n        /* \"#utility.yul\":6100:6118   */\n      add\n        /* \"#utility.yul\":6092:6118   */\n      swap1\n      pop\n        /* \"#utility.yul\":6164:6173   */\n      dup2\n        /* \"#utility.yul\":6158:6162   */\n      dup2\n        /* \"#utility.yul\":6154:6174   */\n      sub\n        /* \"#utility.yul\":6150:6151   */\n      0x00\n        /* \"#utility.yul\":6139:6148   */\n      dup4\n        /* \"#utility.yul\":6135:6152   */\n      add\n        /* \"#utility.yul\":6128:6175   */\n      mstore\n        /* \"#utility.yul\":6192:6323   */\n      tag_180\n        /* \"#utility.yul\":6318:6322   */\n      dup2\n        /* \"#utility.yul\":6192:6323   */\n      tag_143\n      jump\t// in\n    tag_180:\n        /* \"#utility.yul\":6184:6323   */\n      swap1\n      pop\n        /* \"#utility.yul\":5911:6330   */\n      swap2\n      swap1\n      pop\n      jump\t// out\n        /* \"#utility.yul\":6336:6755   */\n    tag_50:\n        /* \"#utility.yul\":6502:6506   */\n      0x00\n        /* \"#utility.yul\":6540:6542   */\n      0x20\n        /* \"#utility.yul\":6529:6538   */\n      dup3\n        /* \"#utility.yul\":6525:6543   */\n      add\n        /* \"#utility.yul\":6517:6543   */\n      swap1\n      pop\n        /* \"#utility.yul\":6589:6598   */\n      dup2\n        /* \"#utility.yul\":6583:6587   */\n      dup2\n        /* \"#utility.yul\":6579:6599   */\n      sub\n        /* \"#utility.yul\":6575:6576   */\n      0x00\n        /* \"#utility.yul\":6564:6573   */\n      dup4\n        /* \"#utility.yul\":6560:6577   */\n      add\n        /* \"#utility.yul\":6553:6600   */\n      mstore\n        /* \"#utility.yul\":6617:6748   */\n      tag_182\n        /* \"#utility.yul\":6743:6747   */\n      dup2\n        /* \"#utility.yul\":6617:6748   */\n      tag_149\n      jump\t// in\n    tag_182:\n        /* \"#utility.yul\":6609:6748   */\n      swap1\n      pop\n        /* \"#utility.yul\":6336:6755   */\n      swap2\n      swap1\n      pop\n      jump\t// out\n        /* \"#utility.yul\":6761:7180   */\n    tag_77:\n        /* \"#utility.yul\":6927:6931   */\n      0x00\n        /* \"#utility.yul\":6965:6967   */\n      0x20\n        /* \"#utility.yul\":6954:6963   */\n      dup3\n        /* \"#utility.yul\":6950:6968   */\n      add\n        /* \"#utility.yul\":6942:6968   */\n      swap1\n      pop\n        /* \"#utility.yul\":7014:7023   */\n      dup2\n        /* \"#utility.yul\":7008:7012   */\n      dup2\n        /* \"#utility.yul\":7004:7024   */\n      sub\n        /* \"#utility.yul\":7000:7001   */\n      0x00\n        /* \"#utility.yul\":6989:6998   */\n      dup4\n        /* \"#utility.yul\":6985:7002   */\n      add\n        /* \"#utility.yul\":6978:7025   */\n      mstore\n        /* \"#utility.yul\":7042:7173   */\n      tag_184\n        /* \"#utility.yul\":7168:7172   */\n      dup2\n        /* \"#utility.yul\":7042:7173   */\n      tag_154\n      jump\t// in\n    tag_184:\n        /* \"#utility.yul\":7034:7173   */\n      swap1\n      pop\n        /* \"#utility.yul\":6761:7180   */\n      swap2\n      swap1\n      pop\n      jump\t// out\n        /* \"#utility.yul\":7186:7605   */\n    tag_74:\n        /* \"#utility.yul\":7352:7356   */\n      0x00\n        /* \"#utility.yul\":7390:7392   */\n      0x20\n        /* \"#utility.yul\":7379:7388   */\n      dup3\n        /* \"#utility.yul\":7375:7393   */\n      add\n        /* \"#utility.yul\":7367:7393   */\n      swap1\n      pop\n        /* \"#utility.yul\":7439:7448   */\n      dup2\n        /* \"#utility.yul\":7433:7437   */\n      dup2\n        /* \"#utility.yul\":7429:7449   */\n      sub\n        /* \"#utility.yul\":7425:7426   */\n      0x00\n        /* \"#utility.yul\":7414:7423   */\n      dup4\n        /* \"#utility.yul\":7410:7427   */\n      add\n        /* \"#utility.yul\":7403:7450   */\n      mstore\n        /* \"#utility.yul\":7467:7598   */\n      tag_186\n        /* \"#utility.yul\":7593:7597   */\n      dup2\n        /* \"#utility.yul\":7467:7598   */\n      tag_159\n      jump\t// in\n    tag_186:\n        /* \"#utility.yul\":7459:7598   */\n      swap1\n      pop\n        /* \"#utility.yul\":7186:7605   */\n      swap2\n      swap1\n      pop\n      jump\t// out\n        /* \"#utility.yul\":7611:8030   */\n    tag_67:\n        /* \"#utility.yul\":7777:7781   */\n      0x00\n        /* \"#utility.yul\":7815:7817   */\n      0x20\n        /* \"#utility.yul\":7804:7813   */\n      dup3\n        /* \"#utility.yul\":7800:7818   */\n      add\n        /* \"#utility.yul\":7792:7818   */\n      swap1\n      pop\n        /* \"#utility.yul\":7864:7873   */\n      dup2\n        /* \"#utility.yul\":7858:7862   */\n      dup2\n        /* \"#utility.yul\":7854:7874   */\n      sub\n        /* \"#utility.yul\":7850:7851   */\n      0x00\n        /* \"#utility.yul\":7839:7848   */\n      dup4\n        /* \"#utility.yul\":7835:7852   */\n      add\n        /* \"#utility.yul\":7828:7875   */\n      mstore\n        /* \"#utility.yul\":7892:8023   */\n      tag_188\n        /* \"#utility.yul\":8018:8022   */\n      dup2\n        /* \"#utility.yul\":7892:8023   */\n      tag_164\n      jump\t// in\n    tag_188:\n        /* \"#utility.yul\":7884:8023   */\n      swap1\n      pop\n        /* \"#utility.yul\":7611:8030   */\n      swap2\n      swap1\n      pop\n      jump\t// out\n        /* \"#utility.yul\":8036:8250   */\n    tag_22:\n        /* \"#utility.yul\":8125:8129   */\n      0x00\n        /* \"#utility.yul\":8163:8165   */\n      0x20\n        /* \"#utility.yul\":8152:8161   */\n      dup3\n        /* \"#utility.yul\":8148:8166   */\n      add\n        /* \"#utility.yul\":8140:8166   */\n      swap1\n      pop\n        /* \"#utility.yul\":8176:8243   */\n      tag_190\n        /* \"#utility.yul\":8240:8241   */\n      0x00\n        /* \"#utility.yul\":8229:8238   */\n      dup4\n        /* \"#utility.yul\":8225:8242   */\n      add\n        /* \"#utility.yul\":8216:8222   */\n      dup5\n        /* \"#utility.yul\":8176:8243   */\n      tag_169\n      jump\t// in\n    tag_190:\n        /* \"#utility.yul\":8036:8250   */\n      swap3\n      swap2\n      pop\n      pop\n      jump\t// out\n        /* \"#utility.yul\":8256:8981   */\n    tag_69:\n        /* \"#utility.yul\":8334:8338   */\n      0x00\n        /* \"#utility.yul\":8340:8346   */\n      dup1\n        /* \"#utility.yul\":8396:8407   */\n      dup4\n        /* \"#utility.yul\":8383:8408   */\n      calldataload\n        /* \"#utility.yul\":8496:8497   */\n      0x01\n        /* \"#utility.yul\":8490:8494   */\n      0x20\n        /* \"#utility.yul\":8486:8498   */\n      sub\n        /* \"#utility.yul\":8475:8483   */\n      dup5\n        /* \"#utility.yul\":8459:8473   */\n      calldatasize\n        /* \"#utility.yul\":8455:8484   */\n      sub\n        /* \"#utility.yul\":8451:8499   */\n      sub\n        /* \"#utility.yul\":8431:8449   */\n      dup2\n        /* \"#utility.yul\":8427:8500   */\n      slt\n        /* \"#utility.yul\":8417:8585   */\n      tag_192\n      jumpi\n        /* \"#utility.yul\":8504:8583   */\n      tag_193\n      tag_194\n      jump\t// in\n    tag_193:\n        /* \"#utility.yul\":8417:8585   */\n    tag_192:\n        /* \"#utility.yul\":8616:8634   */\n      dup1\n        /* \"#utility.yul\":8606:8614   */\n      dup5\n        /* \"#utility.yul\":8602:8635   */\n      add\n        /* \"#utility.yul\":8594:8635   */\n      swap3\n      pop\n        /* \"#utility.yul\":8668:8672   */\n      dup3\n        /* \"#utility.yul\":8655:8673   */\n      calldataload\n        /* \"#utility.yul\":8645:8673   */\n      swap2\n      pop\n        /* \"#utility.yul\":8696:8714   */\n      0xffffffffffffffff\n        /* \"#utility.yul\":8688:8694   */\n      dup3\n        /* \"#utility.yul\":8685:8715   */\n      gt\n        /* \"#utility.yul\":8682:8799   */\n      iszero\n      tag_195\n      jumpi\n        /* \"#utility.yul\":8718:8797   */\n      tag_196\n      tag_197\n      jump\t// in\n    tag_196:\n        /* \"#utility.yul\":8682:8799   */\n    tag_195:\n        /* \"#utility.yul\":8826:8828   */\n      0x20\n        /* \"#utility.yul\":8820:8824   */\n      dup4\n        /* \"#utility.yul\":8816:8829   */\n      add\n        /* \"#utility.yul\":8808:8829   */\n      swap3\n      pop\n        /* \"#utility.yul\":8883:8887   */\n      0x01\n        /* \"#utility.yul\":8875:8881   */\n      dup3\n        /* \"#utility.yul\":8871:8888   */\n      mul\n        /* \"#utility.yul\":8855:8869   */\n      calldatasize\n        /* \"#utility.yul\":8851:8889   */\n      sub\n        /* \"#utility.yul\":8845:8849   */\n      dup4\n        /* \"#utility.yul\":8841:8890   */\n      sgt\n        /* \"#utility.yul\":8838:8974   */\n      iszero\n      tag_198\n      jumpi\n        /* \"#utility.yul\":8893:8972   */\n      tag_199\n      tag_200\n      jump\t// in\n    tag_199:\n        /* \"#utility.yul\":8838:8974   */\n    tag_198:\n        /* \"#utility.yul\":8347:8981   */\n      pop\n        /* \"#utility.yul\":8256:8981   */\n      swap3\n      pop\n      swap3\n      swap1\n      pop\n      jump\t// out\n        /* \"#utility.yul\":8987:9116   */\n    tag_91:\n        /* \"#utility.yul\":9021:9027   */\n      0x00\n        /* \"#utility.yul\":9048:9068   */\n      tag_202\n      tag_203\n      jump\t// in\n    tag_202:\n        /* \"#utility.yul\":9038:9068   */\n      swap1\n      pop\n        /* \"#utility.yul\":9077:9110   */\n      tag_204\n        /* \"#utility.yul\":9105:9109   */\n      dup3\n        /* \"#utility.yul\":9097:9103   */\n      dup3\n        /* \"#utility.yul\":9077:9110   */\n      tag_205\n      jump\t// in\n    tag_204:\n        /* \"#utility.yul\":8987:9116   */\n      swap2\n      swap1\n      pop\n      jump\t// out\n        /* \"#utility.yul\":9122:9197   */\n    tag_203:\n        /* \"#utility.yul\":9155:9161   */\n      0x00\n        /* \"#utility.yul\":9188:9190   */\n      0x40\n        /* \"#utility.yul\":9182:9191   */\n      mload\n        /* \"#utility.yul\":9172:9191   */\n      swap1\n      pop\n        /* \"#utility.yul\":9122:9197   */\n      swap1\n      jump\t// out\n        /* \"#utility.yul\":9203:9511   */\n    tag_90:\n        /* \"#utility.yul\":9265:9269   */\n      0x00\n        /* \"#utility.yul\":9355:9373   */\n      0xffffffffffffffff\n        /* \"#utility.yul\":9347:9353   */\n      dup3\n        /* \"#utility.yul\":9344:9374   */\n      gt\n        /* \"#utility.yul\":9341:9397   */\n      iszero\n      tag_208\n      jumpi\n        /* \"#utility.yul\":9377:9395   */\n      tag_209\n      tag_210\n      jump\t// in\n    tag_209:\n        /* \"#utility.yul\":9341:9397   */\n    tag_208:\n        /* \"#utility.yul\":9415:9444   */\n      tag_211\n        /* \"#utility.yul\":9437:9443   */\n      dup3\n        /* \"#utility.yul\":9415:9444   */\n      tag_212\n      jump\t// in\n    tag_211:\n        /* \"#utility.yul\":9407:9444   */\n      swap1\n      pop\n        /* \"#utility.yul\":9499:9503   */\n      0x20\n        /* \"#utility.yul\":9493:9497   */\n      dup2\n        /* \"#utility.yul\":9489:9504   */\n      add\n        /* \"#utility.yul\":9481:9504   */\n      swap1\n      pop\n        /* \"#utility.yul\":9203:9511   */\n      swap2\n      swap1\n      pop\n      jump\t// out\n        /* \"#utility.yul\":9517:9686   */\n    tag_146:\n        /* \"#utility.yul\":9601:9612   */\n      0x00\n        /* \"#utility.yul\":9635:9641   */\n      dup3\n        /* \"#utility.yul\":9630:9633   */\n      dup3\n        /* \"#utility.yul\":9623:9642   */\n      mstore\n        /* \"#utility.yul\":9675:9679   */\n      0x20\n        /* \"#utility.yul\":9670:9673   */\n      dup3\n        /* \"#utility.yul\":9666:9680   */\n      add\n        /* \"#utility.yul\":9651:9680   */\n      swap1\n      pop\n        /* \"#utility.yul\":9517:9686   */\n      swap3\n      swap2\n      pop\n      pop\n      jump\t// out\n        /* \"#utility.yul\":9692:9840   */\n    tag_141:\n        /* \"#utility.yul\":9794:9805   */\n      0x00\n        /* \"#utility.yul\":9831:9834   */\n      dup2\n        /* \"#utility.yul\":9816:9834   */\n      swap1\n      pop\n        /* \"#utility.yul\":9692:9840   */\n      swap3\n      swap2\n      pop\n      pop\n      jump\t// out\n        /* \"#utility.yul\":9846:10083   */\n    tag_84:\n        /* \"#utility.yul\":9884:9887   */\n      0x00\n        /* \"#utility.yul\":9903:9921   */\n      tag_216\n        /* \"#utility.yul\":9919:9920   */\n      dup3\n        /* \"#utility.yul\":9903:9921   */\n      tag_172\n      jump\t// in\n    tag_216:\n        /* \"#utility.yul\":9898:9921   */\n      swap2\n      pop\n        /* \"#utility.yul\":9935:9953   */\n      tag_217\n        /* \"#utility.yul\":9951:9952   */\n      dup4\n        /* \"#utility.yul\":9935:9953   */\n      tag_172\n      jump\t// in\n    tag_217:\n        /* \"#utility.yul\":9930:9953   */\n      swap3\n      pop\n        /* \"#utility.yul\":10025:10026   */\n      dup3\n        /* \"#utility.yul\":10019:10023   */\n      0xff\n        /* \"#utility.yul\":10015:10027   */\n      sub\n        /* \"#utility.yul\":10012:10013   */\n      dup3\n        /* \"#utility.yul\":10009:10028   */\n      gt\n        /* \"#utility.yul\":10006:10051   */\n      iszero\n      tag_218\n      jumpi\n        /* \"#utility.yul\":10031:10049   */\n      tag_219\n      tag_220\n      jump\t// in\n    tag_219:\n        /* \"#utility.yul\":10006:10051   */\n    tag_218:\n        /* \"#utility.yul\":10075:10076   */\n      dup3\n        /* \"#utility.yul\":10072:10073   */\n      dup3\n        /* \"#utility.yul\":10068:10077   */\n      add\n        /* \"#utility.yul\":10061:10077   */\n      swap1\n      pop\n        /* \"#utility.yul\":9846:10083   */\n      swap3\n      swap2\n      pop\n      pop\n      jump\t// out\n        /* \"#utility.yul\":10089:10185   */\n    tag_133:\n        /* \"#utility.yul\":10126:10133   */\n      0x00\n        /* \"#utility.yul\":10155:10179   */\n      tag_222\n        /* \"#utility.yul\":10173:10178   */\n      dup3\n        /* \"#utility.yul\":10155:10179   */\n      tag_223\n      jump\t// in\n    tag_222:\n        /* \"#utility.yul\":10144:10179   */\n      swap1\n      pop\n        /* \"#utility.yul\":10089:10185   */\n      swap2\n      swap1\n      pop\n      jump\t// out\n        /* \"#utility.yul\":10191:10281   */\n    tag_137:\n        /* \"#utility.yul\":10225:10232   */\n      0x00\n        /* \"#utility.yul\":10268:10273   */\n      dup2\n        /* \"#utility.yul\":10261:10274   */\n      iszero\n        /* \"#utility.yul\":10254:10275   */\n      iszero\n        /* \"#utility.yul\":10243:10275   */\n      swap1\n      pop\n        /* \"#utility.yul\":10191:10281   */\n      swap2\n      swap1\n      pop\n      jump\t// out\n        /* \"#utility.yul\":10287:10413   */\n    tag_223:\n        /* \"#utility.yul\":10324:10331   */\n      0x00\n        /* \"#utility.yul\":10364:10406   */\n      0xffffffffffffffffffffffffffffffffffffffff\n        /* \"#utility.yul\":10357:10362   */\n      dup3\n        /* \"#utility.yul\":10353:10407   */\n      and\n        /* \"#utility.yul\":10342:10407   */\n      swap1\n      pop\n        /* \"#utility.yul\":10287:10413   */\n      swap2\n      swap1\n      pop\n      jump\t// out\n        /* \"#utility.yul\":10419:10505   */\n    tag_172:\n        /* \"#utility.yul\":10454:10461   */\n      0x00\n        /* \"#utility.yul\":10494:10498   */\n      0xff\n        /* \"#utility.yul\":10487:10492   */\n      dup3\n        /* \"#utility.yul\":10483:10499   */\n      and\n        /* \"#utility.yul\":10472:10499   */\n      swap1\n      pop\n        /* \"#utility.yul\":10419:10505   */\n      swap2\n      swap1\n      pop\n      jump\t// out\n        /* \"#utility.yul\":10511:10665   */\n    tag_96:\n        /* \"#utility.yul\":10595:10601   */\n      dup3\n        /* \"#utility.yul\":10590:10593   */\n      dup2\n        /* \"#utility.yul\":10585:10588   */\n      dup4\n        /* \"#utility.yul\":10572:10602   */\n      calldatacopy\n        /* \"#utility.yul\":10657:10658   */\n      0x00\n        /* \"#utility.yul\":10648:10654   */\n      dup4\n        /* \"#utility.yul\":10643:10646   */\n      dup4\n        /* \"#utility.yul\":10639:10655   */\n      add\n        /* \"#utility.yul\":10632:10659   */\n      mstore\n        /* \"#utility.yul\":10511:10665   */\n      pop\n      pop\n      pop\n      jump\t// out\n        /* \"#utility.yul\":10671:10952   */\n    tag_205:\n        /* \"#utility.yul\":10754:10781   */\n      tag_229\n        /* \"#utility.yul\":10776:10780   */\n      dup3\n        /* \"#utility.yul\":10754:10781   */\n      tag_212\n      jump\t// in\n    tag_229:\n        /* \"#utility.yul\":10746:10752   */\n      dup2\n        /* \"#utility.yul\":10742:10782   */\n      add\n        /* \"#utility.yul\":10884:10890   */\n      dup2\n        /* \"#utility.yul\":10872:10882   */\n      dup2\n        /* \"#utility.yul\":10869:10891   */\n      lt\n        /* \"#utility.yul\":10848:10866   */\n      0xffffffffffffffff\n        /* \"#utility.yul\":10836:10846   */\n      dup3\n        /* \"#utility.yul\":10833:10867   */\n      gt\n        /* \"#utility.yul\":10830:10892   */\n      or\n        /* \"#utility.yul\":10827:10915   */\n      iszero\n      tag_230\n      jumpi\n        /* \"#utility.yul\":10895:10913   */\n      tag_231\n      tag_210\n      jump\t// in\n    tag_231:\n        /* \"#utility.yul\":10827:10915   */\n    tag_230:\n        /* \"#utility.yul\":10935:10945   */\n      dup1\n        /* \"#utility.yul\":10931:10933   */\n      0x40\n        /* \"#utility.yul\":10924:10946   */\n      mstore\n        /* \"#utility.yul\":10714:10952   */\n      pop\n        /* \"#utility.yul\":10671:10952   */\n      pop\n      pop\n      jump\t// out\n        /* \"#utility.yul\":10958:11138   */\n    tag_220:\n        /* \"#utility.yul\":11006:11083   */\n      0x4e487b7100000000000000000000000000000000000000000000000000000000\n        /* \"#utility.yul\":11003:11004   */\n      0x00\n        /* \"#utility.yul\":10996:11084   */\n      mstore\n        /* \"#utility.yul\":11103:11107   */\n      0x11\n        /* \"#utility.yul\":11100:11101   */\n      0x04\n        /* \"#utility.yul\":11093:11108   */\n      mstore\n        /* \"#utility.yul\":11127:11131   */\n      0x24\n        /* \"#utility.yul\":11124:11125   */\n      0x00\n        /* \"#utility.yul\":11117:11132   */\n      revert\n        /* \"#utility.yul\":11144:11324   */\n    tag_210:\n        /* \"#utility.yul\":11192:11269   */\n      0x4e487b7100000000000000000000000000000000000000000000000000000000\n        /* \"#utility.yul\":11189:11190   */\n      0x00\n        /* \"#utility.yul\":11182:11270   */\n      mstore\n        /* \"#utility.yul\":11289:11293   */\n      0x41\n        /* \"#utility.yul\":11286:11287   */\n      0x04\n        /* \"#utility.yul\":11279:11294   */\n      mstore\n        /* \"#utility.yul\":11313:11317   */\n      0x24\n        /* \"#utility.yul\":11310:11311   */\n      0x00\n        /* \"#utility.yul\":11303:11318   */\n      revert\n        /* \"#utility.yul\":11330:11447   */\n    tag_101:\n        /* \"#utility.yul\":11439:11440   */\n      0x00\n        /* \"#utility.yul\":11436:11437   */\n      dup1\n        /* \"#utility.yul\":11429:11441   */\n      revert\n        /* \"#utility.yul\":11453:11570   */\n    tag_197:\n        /* \"#utility.yul\":11562:11563   */\n      0x00\n        /* \"#utility.yul\":11559:11560   */\n      dup1\n        /* \"#utility.yul\":11552:11564   */\n      revert\n        /* \"#utility.yul\":11576:11693   */\n    tag_107:\n        /* \"#utility.yul\":11685:11686   */\n      0x00\n        /* \"#utility.yul\":11682:11683   */\n      dup1\n        /* \"#utility.yul\":11675:11687   */\n      revert\n        /* \"#utility.yul\":11699:11816   */\n    tag_194:\n        /* \"#utility.yul\":11808:11809   */\n      0x00\n        /* \"#utility.yul\":11805:11806   */\n      dup1\n        /* \"#utility.yul\":11798:11810   */\n      revert\n        /* \"#utility.yul\":11822:11939   */\n    tag_200:\n        /* \"#utility.yul\":11931:11932   */\n      0x00\n        /* \"#utility.yul\":11928:11929   */\n      dup1\n        /* \"#utility.yul\":11921:11933   */\n      revert\n        /* \"#utility.yul\":11945:12062   */\n    tag_94:\n        /* \"#utility.yul\":12054:12055   */\n      0x00\n        /* \"#utility.yul\":12051:12052   */\n      dup1\n        /* \"#utility.yul\":12044:12056   */\n      revert\n        /* \"#utility.yul\":12068:12185   */\n    tag_118:\n        /* \"#utility.yul\":12177:12178   */\n      0x00\n        /* \"#utility.yul\":12174:12175   */\n      dup1\n        /* \"#utility.yul\":12167:12179   */\n      revert\n        /* \"#utility.yul\":12191:12308   */\n    tag_115:\n        /* \"#utility.yul\":12300:12301   */\n      0x00\n        /* \"#utility.yul\":12297:12298   */\n      dup1\n        /* \"#utility.yul\":12290:12302   */\n      revert\n        /* \"#utility.yul\":12314:12416   */\n    tag_212:\n        /* \"#utility.yul\":12355:12361   */\n      0x00\n        /* \"#utility.yul\":12406:12408   */\n      0x1f\n        /* \"#utility.yul\":12402:12409   */\n      not\n        /* \"#utility.yul\":12397:12399   */\n      0x1f\n        /* \"#utility.yul\":12390:12395   */\n      dup4\n        /* \"#utility.yul\":12386:12400   */\n      add\n        /* \"#utility.yul\":12382:12410   */\n      and\n        /* \"#utility.yul\":12372:12410   */\n      swap1\n      pop\n        /* \"#utility.yul\":12314:12416   */\n      swap2\n      swap1\n      pop\n      jump\t// out\n        /* \"#utility.yul\":12422:12594   */\n    tag_148:\n        /* \"#utility.yul\":12562:12586   */\n      0x596f7520617265206e6f7420746865206f776e65722100000000000000000000\n        /* \"#utility.yul\":12558:12559   */\n      0x00\n        /* \"#utility.yul\":12550:12556   */\n      dup3\n        /* \"#utility.yul\":12546:12560   */\n      add\n        /* \"#utility.yul\":12539:12587   */\n      mstore\n        /* \"#utility.yul\":12422:12594   */\n      pop\n      jump\t// out\n        /* \"#utility.yul\":12600:12769   */\n    tag_153:\n        /* \"#utility.yul\":12740:12761   */\n      0x456c656374696f6e2068617320656e6465642100000000000000000000000000\n        /* \"#utility.yul\":12736:12737   */\n      0x00\n        /* \"#utility.yul\":12728:12734   */\n      dup3\n        /* \"#utility.yul\":12724:12738   */\n      add\n        /* \"#utility.yul\":12717:12762   */\n      mstore\n        /* \"#utility.yul\":12600:12769   */\n      pop\n      jump\t// out\n        /* \"#utility.yul\":12775:12946   */\n    tag_158:\n        /* \"#utility.yul\":12915:12938   */\n      0x54686572652063616e6e6f742062652061207469650000000000000000000000\n        /* \"#utility.yul\":12911:12912   */\n      0x00\n        /* \"#utility.yul\":12903:12909   */\n      dup3\n        /* \"#utility.yul\":12899:12913   */\n      add\n        /* \"#utility.yul\":12892:12939   */\n      mstore\n        /* \"#utility.yul\":12775:12946   */\n      pop\n      jump\t// out\n        /* \"#utility.yul\":12952:13179   */\n    tag_163:\n        /* \"#utility.yul\":13092:13126   */\n      0x546869732073746174652068617320616c7265616479207375626d6974656420\n        /* \"#utility.yul\":13088:13089   */\n      0x00\n        /* \"#utility.yul\":13080:13086   */\n      dup3\n        /* \"#utility.yul\":13076:13090   */\n      add\n        /* \"#utility.yul\":13069:13127   */\n      mstore\n        /* \"#utility.yul\":13161:13171   */\n      0x726573756c747321000000000000000000000000000000000000000000000000\n        /* \"#utility.yul\":13156:13158   */\n      0x20\n        /* \"#utility.yul\":13148:13154   */\n      dup3\n        /* \"#utility.yul\":13144:13159   */\n      add\n        /* \"#utility.yul\":13137:13172   */\n      mstore\n        /* \"#utility.yul\":12952:13179   */\n      pop\n      jump\t// out\n        /* \"#utility.yul\":13185:13363   */\n    tag_168:\n        /* \"#utility.yul\":13325:13355   */\n      0x53746174652073656574732063616e6e6f7420626520656d7074792100000000\n        /* \"#utility.yul\":13321:13322   */\n      0x00\n        /* \"#utility.yul\":13313:13319   */\n      dup3\n        /* \"#utility.yul\":13309:13323   */\n      add\n        /* \"#utility.yul\":13302:13356   */\n      mstore\n        /* \"#utility.yul\":13185:13363   */\n      pop\n      jump\t// out\n        /* \"#utility.yul\":13369:13487   */\n    tag_111:\n        /* \"#utility.yul\":13440:13462   */\n      tag_249\n        /* \"#utility.yul\":13456:13461   */\n      dup2\n        /* \"#utility.yul\":13440:13462   */\n      tag_172\n      jump\t// in\n    tag_249:\n        /* \"#utility.yul\":13433:13438   */\n      dup2\n        /* \"#utility.yul\":13430:13463   */\n      eq\n        /* \"#utility.yul\":13420:13481   */\n      tag_250\n      jumpi\n        /* \"#utility.yul\":13477:13478   */\n      0x00\n        /* \"#utility.yul\":13474:13475   */\n      dup1\n        /* \"#utility.yul\":13467:13479   */\n      revert\n        /* \"#utility.yul\":13420:13481   */\n    tag_250:\n        /* \"#utility.yul\":13369:13487   */\n      pop\n      jump\t// out\n\n    auxdata: 0xa2646970667358221220b76d08dbb41aad62c0b5f7c01624f878360fdbb499c74ba1f8cfcd66ad64a5f764736f6c63430008070033\n}\n",
				"bytecode": {
					"linkReferences": {},
					"object": "608060405234801561001057600080fd5b50336000806101000a81548173ffffffffffffffffffffffffffffffffffffffff021916908373ffffffffffffffffffffffffffffffffffffffff160217905550610ce3806100606000396000f3fe608060405234801561001057600080fd5b50600436106100935760003560e01c8063713d87c511610066578063713d87c51461010e5780638da5cb5b1461013e578063ac4bd53a1461015c578063c94ca9e31461017a578063e494a8831461019857610093565b80632d674216146100985780632d78d8e5146100c857806359f78468146100e657806369b36bd4146100f0575b600080fd5b6100b260048036038101906100ad91906106ab565b6101b4565b6040516100bf919061089f565b60405180910390f35b6100d06101ea565b6040516100dd919061095a565b60405180910390f35b6100ee6101ef565b005b6100f86102ea565b604051610105919061095a565b60405180910390f35b6101286004803603810190610123919061073d565b6102ef565b604051610135919061095a565b60405180910390f35b61014661030f565b6040516101539190610884565b60405180910390f35b610164610333565b604051610171919061095a565b60405180910390f35b6101826103be565b60405161018f919061089f565b60405180910390f35b6101b260048036038101906101ad91906106f4565b6103d1565b005b6002818051602081018201805184825260208301602085012081835280955050505050506000915054906101000a900460ff1681565b600281565b600060149054906101000a900460ff161561023f576040517f08c379a0000000000000000000000000000000000000000000000000000000008152600401610236906108da565b60405180910390fd5b60008054906101000a900473ffffffffffffffffffffffffffffffffffffffff1673ffffffffffffffffffffffffffffffffffffffff163373ffffffffffffffffffffffffffffffffffffffff16146102cd576040517f08c379a00000000000000000000000000000000000000000000000000000000081526004016102c4906108ba565b60405180910390fd5b6001600060146101000a81548160ff021916908315150217905550565b600181565b60016020528060005260406000206000915054906101000a900460ff1681565b60008054906101000a900473ffffffffffffffffffffffffffffffffffffffff1681565b60008060016000600160ff1660ff16815260200190815260200160002060009054906101000a900460ff1660ff169050600060016000600260ff1660ff16815260200190815260200160002060009054906101000a900460ff1660ff169050808214156103a5576000925050506103bb565b8082116103b35760026103b6565b60015b925050505b90565b600060149054906101000a900460ff1681565b600060149054906101000a900460ff1615610421576040517f08c379a0000000000000000000000000000000000000000000000000000000008152600401610418906108da565b60405180910390fd5b6000816060016020810190610436919061073d565b60ff1611610479576040517f08c379a00000000000000000000000000000000000000000000000000000000081526004016104709061093a565b60405180910390fd5b600281806000019061048b9190610975565b60405161049992919061086b565b908152602001604051809103902060009054906101000a900460ff16156104f5576040517f08c379a00000000000000000000000000000000000000000000000000000000081526004016104ec9061091a565b60405180910390fd5b806040013581602001351415610540576040517f08c379a0000000000000000000000000000000000000000000000000000000008152600401610537906108fa565b60405180910390fd5b600160028280600001906105549190610975565b60405161056292919061086b565b908152602001604051809103902060006101000a81548160ff0219169083151502179055506000816020013582604001351161059f5760016105a2565b60025b90508160600160208101906105b7919061073d565b600160008360ff1660ff16815260200190815260200160002060008282829054906101000a900460ff166105eb9190610a4a565b92506101000a81548160ff021916908360ff1602179055505050565b600061061a610615846109fd565b6109d8565b90508281526020810184848401111561063657610635610b83565b5b610641848285610acc565b509392505050565b600082601f83011261065e5761065d610b6a565b5b813561066e848260208601610607565b91505092915050565b60006080828403121561068d5761068c610b74565b5b81905092915050565b6000813590506106a581610c96565b92915050565b6000602082840312156106c1576106c0610b8d565b5b600082013567ffffffffffffffff8111156106df576106de610b88565b5b6106eb84828501610649565b91505092915050565b60006020828403121561070a57610709610b8d565b5b600082013567ffffffffffffffff81111561072857610727610b88565b5b61073484828501610677565b91505092915050565b60006020828403121561075357610752610b8d565b5b600061076184828501610696565b91505092915050565b61077381610a81565b82525050565b61078281610a93565b82525050565b60006107948385610a3f565b93506107a1838584610acc565b82840190509392505050565b60006107ba601683610a2e565b91506107c582610ba3565b602082019050919050565b60006107dd601383610a2e565b91506107e882610bcc565b602082019050919050565b6000610800601583610a2e565b915061080b82610bf5565b602082019050919050565b6000610823602883610a2e565b915061082e82610c1e565b604082019050919050565b6000610846601c83610a2e565b915061085182610c6d565b602082019050919050565b61086581610abf565b82525050565b6000610878828486610788565b91508190509392505050565b6000602082019050610899600083018461076a565b92915050565b60006020820190506108b46000830184610779565b92915050565b600060208201905081810360008301526108d3816107ad565b9050919050565b600060208201905081810360008301526108f3816107d0565b9050919050565b60006020820190508181036000830152610913816107f3565b9050919050565b6000602082019050818103600083015261093381610816565b9050919050565b6000602082019050818103600083015261095381610839565b9050919050565b600060208201905061096f600083018461085c565b92915050565b6000808335600160200384360303811261099257610991610b79565b5b80840192508235915067ffffffffffffffff8211156109b4576109b3610b6f565b5b6020830192506001820236038313156109d0576109cf610b7e565b5b509250929050565b60006109e26109f3565b90506109ee8282610adb565b919050565b6000604051905090565b600067ffffffffffffffff821115610a1857610a17610b3b565b5b610a2182610b92565b9050602081019050919050565b600082825260208201905092915050565b600081905092915050565b6000610a5582610abf565b9150610a6083610abf565b92508260ff03821115610a7657610a75610b0c565b5b828201905092915050565b6000610a8c82610a9f565b9050919050565b60008115159050919050565b600073ffffffffffffffffffffffffffffffffffffffff82169050919050565b600060ff82169050919050565b82818337600083830152505050565b610ae482610b92565b810181811067ffffffffffffffff82111715610b0357610b02610b3b565b5b80604052505050565b7f4e487b7100000000000000000000000000000000000000000000000000000000600052601160045260246000fd5b7f4e487b7100000000000000000000000000000000000000000000000000000000600052604160045260246000fd5b600080fd5b600080fd5b600080fd5b600080fd5b600080fd5b600080fd5b600080fd5b600080fd5b6000601f19601f8301169050919050565b7f596f7520617265206e6f7420746865206f776e65722100000000000000000000600082015250565b7f456c656374696f6e2068617320656e6465642100000000000000000000000000600082015250565b7f54686572652063616e6e6f742062652061207469650000000000000000000000600082015250565b7f546869732073746174652068617320616c7265616479207375626d697465642060008201527f726573756c747321000000000000000000000000000000000000000000000000602082015250565b7f53746174652073656574732063616e6e6f7420626520656d7074792100000000600082015250565b610c9f81610abf565b8114610caa57600080fd5b5056fea2646970667358221220b76d08dbb41aad62c0b5f7c01624f878360fdbb499c74ba1f8cfcd66ad64a5f764736f6c63430008070033",
					"opcodes": "PUSH1 0x80 PUSH1 0x40 MSTORE CALLVALUE DUP1 ISZERO PUSH2 0x10 JUMPI PUSH1 0x0 DUP1 REVERT JUMPDEST POP CALLER PUSH1 0x0 DUP1 PUSH2 0x100 EXP DUP2 SLOAD DUP2 PUSH20 0xFFFFFFFFFFFFFFFFFFFFFFFFFFFFFFFFFFFFFFFF MUL NOT AND SWAP1 DUP4 PUSH20 0xFFFFFFFFFFFFFFFFFFFFFFFFFFFFFFFFFFFFFFFF AND MUL OR SWAP1 SSTORE POP PUSH2 0xCE3 DUP1 PUSH2 0x60 PUSH1 0x0 CODECOPY PUSH1 0x0 RETURN INVALID PUSH1 0x80 PUSH1 0x40 MSTORE CALLVALUE DUP1 ISZERO PUSH2 0x10 JUMPI PUSH1 0x0 DUP1 REVERT JUMPDEST POP PUSH1 0x4 CALLDATASIZE LT PUSH2 0x93 JUMPI PUSH1 0x0 CALLDATALOAD PUSH1 0xE0 SHR DUP1 PUSH4 0x713D87C5 GT PUSH2 0x66 JUMPI DUP1 PUSH4 0x713D87C5 EQ PUSH2 0x10E JUMPI DUP1 PUSH4 0x8DA5CB5B EQ PUSH2 0x13E JUMPI DUP1 PUSH4 0xAC4BD53A EQ PUSH2 0x15C JUMPI DUP1 PUSH4 0xC94CA9E3 EQ PUSH2 0x17A JUMPI DUP1 PUSH4 0xE494A883 EQ PUSH2 0x198 JUMPI PUSH2 0x93 JUMP JUMPDEST DUP1 PUSH4 0x2D674216 EQ PUSH2 0x98 JUMPI DUP1 PUSH4 0x2D78D8E5 EQ PUSH2 0xC8 JUMPI DUP1 PUSH4 0x59F78468 EQ PUSH2 0xE6 JUMPI DUP1 PUSH4 0x69B36BD4 EQ PUSH2 0xF0 JUMPI JUMPDEST PUSH1 0x0 DUP1 REVERT JUMPDEST PUSH2 0xB2 PUSH1 0x4 DUP1 CALLDATASIZE SUB DUP2 ADD SWAP1 PUSH2 0xAD SWAP2 SWAP1 PUSH2 0x6AB JUMP JUMPDEST PUSH2 0x1B4 JUMP JUMPDEST PUSH1 0x40 MLOAD PUSH2 0xBF SWAP2 SWAP1 PUSH2 0x89F JUMP JUMPDEST PUSH1 0x40 MLOAD DUP1 SWAP2 SUB SWAP1 RETURN JUMPDEST PUSH2 0xD0 PUSH2 0x1EA JUMP JUMPDEST PUSH1 0x40 MLOAD PUSH2 0xDD SWAP2 SWAP1 PUSH2 0x95A JUMP JUMPDEST PUSH1 0x40 MLOAD DUP1 SWAP2 SUB SWAP1 RETURN JUMPDEST PUSH2 0xEE PUSH2 0x1EF JUMP JUMPDEST STOP JUMPDEST PUSH2 0xF8 PUSH2 0x2EA JUMP JUMPDEST PUSH1 0x40 MLOAD PUSH2 0x105 SWAP2 SWAP1 PUSH2 0x95A JUMP JUMPDEST PUSH1 0x40 MLOAD DUP1 SWAP2 SUB SWAP1 RETURN JUMPDEST PUSH2 0x128 PUSH1 0x4 DUP1 CALLDATASIZE SUB DUP2 ADD SWAP1 PUSH2 0x123 SWAP2 SWAP1 PUSH2 0x73D JUMP JUMPDEST PUSH2 0x2EF JUMP JUMPDEST PUSH1 0x40 MLOAD PUSH2 0x135 SWAP2 SWAP1 PUSH2 0x95A JUMP JUMPDEST PUSH1 0x40 MLOAD DUP1 SWAP2 SUB SWAP1 RETURN JUMPDEST PUSH2 0x146 PUSH2 0x30F JUMP JUMPDEST PUSH1 0x40 MLOAD PUSH2 0x153 SWAP2 SWAP1 PUSH2 0x884 JUMP JUMPDEST PUSH1 0x40 MLOAD DUP1 SWAP2 SUB SWAP1 RETURN JUMPDEST PUSH2 0x164 PUSH2 0x333 JUMP JUMPDEST PUSH1 0x40 MLOAD PUSH2 0x171 SWAP2 SWAP1 PUSH2 0x95A JUMP JUMPDEST PUSH1 0x40 MLOAD DUP1 SWAP2 SUB SWAP1 RETURN JUMPDEST PUSH2 0x182 PUSH2 0x3BE JUMP JUMPDEST PUSH1 0x40 MLOAD PUSH2 0x18F SWAP2 SWAP1 PUSH2 0x89F JUMP JUMPDEST PUSH1 0x40 MLOAD DUP1 SWAP2 SUB SWAP1 RETURN JUMPDEST PUSH2 0x1B2 PUSH1 0x4 DUP1 CALLDATASIZE SUB DUP2 ADD SWAP1 PUSH2 0x1AD SWAP2 SWAP1 PUSH2 0x6F4 JUMP JUMPDEST PUSH2 0x3D1 JUMP JUMPDEST STOP JUMPDEST PUSH1 0x2 DUP2 DUP1 MLOAD PUSH1 0x20 DUP2 ADD DUP3 ADD DUP1 MLOAD DUP5 DUP3 MSTORE PUSH1 0x20 DUP4 ADD PUSH1 0x20 DUP6 ADD KECCAK256 DUP2 DUP4 MSTORE DUP1 SWAP6 POP POP POP POP POP POP PUSH1 0x0 SWAP2 POP SLOAD SWAP1 PUSH2 0x100 EXP SWAP1 DIV PUSH1 0xFF AND DUP2 JUMP JUMPDEST PUSH1 0x2 DUP2 JUMP JUMPDEST PUSH1 0x0 PUSH1 0x14 SWAP1 SLOAD SWAP1 PUSH2 0x100 EXP SWAP1 DIV PUSH1 0xFF AND ISZERO PUSH2 0x23F JUMPI PUSH1 0x40 MLOAD PUSH32 0x8C379A000000000000000000000000000000000000000000000000000000000 DUP2 MSTORE PUSH1 0x4 ADD PUSH2 0x236 SWAP1 PUSH2 0x8DA JUMP JUMPDEST PUSH1 0x40 MLOAD DUP1 SWAP2 SUB SWAP1 REVERT JUMPDEST PUSH1 0x0 DUP1 SLOAD SWAP1 PUSH2 0x100 EXP SWAP1 DIV PUSH20 0xFFFFFFFFFFFFFFFFFFFFFFFFFFFFFFFFFFFFFFFF AND PUSH20 0xFFFFFFFFFFFFFFFFFFFFFFFFFFFFFFFFFFFFFFFF AND CALLER PUSH20 0xFFFFFFFFFFFFFFFFFFFFFFFFFFFFFFFFFFFFFFFF AND EQ PUSH2 0x2CD JUMPI PUSH1 0x40 MLOAD PUSH32 0x8C379A000000000000000000000000000000000000000000000000000000000 DUP2 MSTORE PUSH1 0x4 ADD PUSH2 0x2C4 SWAP1 PUSH2 0x8BA JUMP JUMPDEST PUSH1 0x40 MLOAD DUP1 SWAP2 SUB SWAP1 REVERT JUMPDEST PUSH1 0x1 PUSH1 0x0 PUSH1 0x14 PUSH2 0x100 EXP DUP2 SLOAD DUP2 PUSH1 0xFF MUL NOT AND SWAP1 DUP4 ISZERO ISZERO MUL OR SWAP1 SSTORE POP JUMP JUMPDEST PUSH1 0x1 DUP2 JUMP JUMPDEST PUSH1 0x1 PUSH1 0x20 MSTORE DUP1 PUSH1 0x0 MSTORE PUSH1 0x40 PUSH1 0x0 KECCAK256 PUSH1 0x0 SWAP2 POP SLOAD SWAP1 PUSH2 0x100 EXP SWAP1 DIV PUSH1 0xFF AND DUP2 JUMP JUMPDEST PUSH1 0x0 DUP1 SLOAD SWAP1 PUSH2 0x100 EXP SWAP1 DIV PUSH20 0xFFFFFFFFFFFFFFFFFFFFFFFFFFFFFFFFFFFFFFFF AND DUP2 JUMP JUMPDEST PUSH1 0x0 DUP1 PUSH1 0x1 PUSH1 0x0 PUSH1 0x1 PUSH1 0xFF AND PUSH1 0xFF AND DUP2 MSTORE PUSH1 0x20 ADD SWAP1 DUP2 MSTORE PUSH1 0x20 ADD PUSH1 0x0 KECCAK256 PUSH1 0x0 SWAP1 SLOAD SWAP1 PUSH2 0x100 EXP SWAP1 DIV PUSH1 0xFF AND PUSH1 0xFF AND SWAP1 POP PUSH1 0x0 PUSH1 0x1 PUSH1 0x0 PUSH1 0x2 PUSH1 0xFF AND PUSH1 0xFF AND DUP2 MSTORE PUSH1 0x20 ADD SWAP1 DUP2 MSTORE PUSH1 0x20 ADD PUSH1 0x0 KECCAK256 PUSH1 0x0 SWAP1 SLOAD SWAP1 PUSH2 0x100 EXP SWAP1 DIV PUSH1 0xFF AND PUSH1 0xFF AND SWAP1 POP DUP1 DUP3 EQ ISZERO PUSH2 0x3A5 JUMPI PUSH1 0x0 SWAP3 POP POP POP PUSH2 0x3BB JUMP JUMPDEST DUP1 DUP3 GT PUSH2 0x3B3 JUMPI PUSH1 0x2 PUSH2 0x3B6 JUMP JUMPDEST PUSH1 0x1 JUMPDEST SWAP3 POP POP POP JUMPDEST SWAP1 JUMP JUMPDEST PUSH1 0x0 PUSH1 0x14 SWAP1 SLOAD SWAP1 PUSH2 0x100 EXP SWAP1 DIV PUSH1 0xFF AND DUP2 JUMP JUMPDEST PUSH1 0x0 PUSH1 0x14 SWAP1 SLOAD SWAP1 PUSH2 0x100 EXP SWAP1 DIV PUSH1 0xFF AND ISZERO PUSH2 0x421 JUMPI PUSH1 0x40 MLOAD PUSH32 0x8C379A000000000000000000000000000000000000000000000000000000000 DUP2 MSTORE PUSH1 0x4 ADD PUSH2 0x418 SWAP1 PUSH2 0x8DA JUMP JUMPDEST PUSH1 0x40 MLOAD DUP1 SWAP2 SUB SWAP1 REVERT JUMPDEST PUSH1 0x0 DUP2 PUSH1 0x60 ADD PUSH1 0x20 DUP2 ADD SWAP1 PUSH2 0x436 SWAP2 SWAP1 PUSH2 0x73D JUMP JUMPDEST PUSH1 0xFF AND GT PUSH2 0x479 JUMPI PUSH1 0x40 MLOAD PUSH32 0x8C379A000000000000000000000000000000000000000000000000000000000 DUP2 MSTORE PUSH1 0x4 ADD PUSH2 0x470 SWAP1 PUSH2 0x93A JUMP JUMPDEST PUSH1 0x40 MLOAD DUP1 SWAP2 SUB SWAP1 REVERT JUMPDEST PUSH1 0x2 DUP2 DUP1 PUSH1 0x0 ADD SWAP1 PUSH2 0x48B SWAP2 SWAP1 PUSH2 0x975 JUMP JUMPDEST PUSH1 0x40 MLOAD PUSH2 0x499 SWAP3 SWAP2 SWAP1 PUSH2 0x86B JUMP JUMPDEST SWAP1 DUP2 MSTORE PUSH1 0x20 ADD PUSH1 0x40 MLOAD DUP1 SWAP2 SUB SWAP1 KECCAK256 PUSH1 0x0 SWAP1 SLOAD SWAP1 PUSH2 0x100 EXP SWAP1 DIV PUSH1 0xFF AND ISZERO PUSH2 0x4F5 JUMPI PUSH1 0x40 MLOAD PUSH32 0x8C379A000000000000000000000000000000000000000000000000000000000 DUP2 MSTORE PUSH1 0x4 ADD PUSH2 0x4EC SWAP1 PUSH2 0x91A JUMP JUMPDEST PUSH1 0x40 MLOAD DUP1 SWAP2 SUB SWAP1 REVERT JUMPDEST DUP1 PUSH1 0x40 ADD CALLDATALOAD DUP2 PUSH1 0x20 ADD CALLDATALOAD EQ ISZERO PUSH2 0x540 JUMPI PUSH1 0x40 MLOAD PUSH32 0x8C379A000000000000000000000000000000000000000000000000000000000 DUP2 MSTORE PUSH1 0x4 ADD PUSH2 0x537 SWAP1 PUSH2 0x8FA JUMP JUMPDEST PUSH1 0x40 MLOAD DUP1 SWAP2 SUB SWAP1 REVERT JUMPDEST PUSH1 0x1 PUSH1 0x2 DUP3 DUP1 PUSH1 0x0 ADD SWAP1 PUSH2 0x554 SWAP2 SWAP1 PUSH2 0x975 JUMP JUMPDEST PUSH1 0x40 MLOAD PUSH2 0x562 SWAP3 SWAP2 SWAP1 PUSH2 0x86B JUMP JUMPDEST SWAP1 DUP2 MSTORE PUSH1 0x20 ADD PUSH1 0x40 MLOAD DUP1 SWAP2 SUB SWAP1 KECCAK256 PUSH1 0x0 PUSH2 0x100 EXP DUP2 SLOAD DUP2 PUSH1 0xFF MUL NOT AND SWAP1 DUP4 ISZERO ISZERO MUL OR SWAP1 SSTORE POP PUSH1 0x0 DUP2 PUSH1 0x20 ADD CALLDATALOAD DUP3 PUSH1 0x40 ADD CALLDATALOAD GT PUSH2 0x59F JUMPI PUSH1 0x1 PUSH2 0x5A2 JUMP JUMPDEST PUSH1 0x2 JUMPDEST SWAP1 POP DUP2 PUSH1 0x60 ADD PUSH1 0x20 DUP2 ADD SWAP1 PUSH2 0x5B7 SWAP2 SWAP1 PUSH2 0x73D JUMP JUMPDEST PUSH1 0x1 PUSH1 0x0 DUP4 PUSH1 0xFF AND PUSH1 0xFF AND DUP2 MSTORE PUSH1 0x20 ADD SWAP1 DUP2 MSTORE PUSH1 0x20 ADD PUSH1 0x0 KECCAK256 PUSH1 0x0 DUP3 DUP3 DUP3 SWAP1 SLOAD SWAP1 PUSH2 0x100 EXP SWAP1 DIV PUSH1 0xFF AND PUSH2 0x5EB SWAP2 SWAP1 PUSH2 0xA4A JUMP JUMPDEST SWAP3 POP PUSH2 0x100 EXP DUP2 SLOAD DUP2 PUSH1 0xFF MUL NOT AND SWAP1 DUP4 PUSH1 0xFF AND MUL OR SWAP1 SSTORE POP POP POP JUMP JUMPDEST PUSH1 0x0 PUSH2 0x61A PUSH2 0x615 DUP5 PUSH2 0x9FD JUMP JUMPDEST PUSH2 0x9D8 JUMP JUMPDEST SWAP1 POP DUP3 DUP2 MSTORE PUSH1 0x20 DUP2 ADD DUP5 DUP5 DUP5 ADD GT ISZERO PUSH2 0x636 JUMPI PUSH2 0x635 PUSH2 0xB83 JUMP JUMPDEST JUMPDEST PUSH2 0x641 DUP5 DUP3 DUP6 PUSH2 0xACC JUMP JUMPDEST POP SWAP4 SWAP3 POP POP POP JUMP JUMPDEST PUSH1 0x0 DUP3 PUSH1 0x1F DUP4 ADD SLT PUSH2 0x65E JUMPI PUSH2 0x65D PUSH2 0xB6A JUMP JUMPDEST JUMPDEST DUP2 CALLDATALOAD PUSH2 0x66E DUP5 DUP3 PUSH1 0x20 DUP7 ADD PUSH2 0x607 JUMP JUMPDEST SWAP2 POP POP SWAP3 SWAP2 POP POP JUMP JUMPDEST PUSH1 0x0 PUSH1 0x80 DUP3 DUP5 SUB SLT ISZERO PUSH2 0x68D JUMPI PUSH2 0x68C PUSH2 0xB74 JUMP JUMPDEST JUMPDEST DUP2 SWAP1 POP SWAP3 SWAP2 POP POP JUMP JUMPDEST PUSH1 0x0 DUP2 CALLDATALOAD SWAP1 POP PUSH2 0x6A5 DUP2 PUSH2 0xC96 JUMP JUMPDEST SWAP3 SWAP2 POP POP JUMP JUMPDEST PUSH1 0x0 PUSH1 0x20 DUP3 DUP5 SUB SLT ISZERO PUSH2 0x6C1 JUMPI PUSH2 0x6C0 PUSH2 0xB8D JUMP JUMPDEST JUMPDEST PUSH1 0x0 DUP3 ADD CALLDATALOAD PUSH8 0xFFFFFFFFFFFFFFFF DUP2 GT ISZERO PUSH2 0x6DF JUMPI PUSH2 0x6DE PUSH2 0xB88 JUMP JUMPDEST JUMPDEST PUSH2 0x6EB DUP5 DUP3 DUP6 ADD PUSH2 0x649 JUMP JUMPDEST SWAP2 POP POP SWAP3 SWAP2 POP POP JUMP JUMPDEST PUSH1 0x0 PUSH1 0x20 DUP3 DUP5 SUB SLT ISZERO PUSH2 0x70A JUMPI PUSH2 0x709 PUSH2 0xB8D JUMP JUMPDEST JUMPDEST PUSH1 0x0 DUP3 ADD CALLDATALOAD PUSH8 0xFFFFFFFFFFFFFFFF DUP2 GT ISZERO PUSH2 0x728 JUMPI PUSH2 0x727 PUSH2 0xB88 JUMP JUMPDEST JUMPDEST PUSH2 0x734 DUP5 DUP3 DUP6 ADD PUSH2 0x677 JUMP JUMPDEST SWAP2 POP POP SWAP3 SWAP2 POP POP JUMP JUMPDEST PUSH1 0x0 PUSH1 0x20 DUP3 DUP5 SUB SLT ISZERO PUSH2 0x753 JUMPI PUSH2 0x752 PUSH2 0xB8D JUMP JUMPDEST JUMPDEST PUSH1 0x0 PUSH2 0x761 DUP5 DUP3 DUP6 ADD PUSH2 0x696 JUMP JUMPDEST SWAP2 POP POP SWAP3 SWAP2 POP POP JUMP JUMPDEST PUSH2 0x773 DUP2 PUSH2 0xA81 JUMP JUMPDEST DUP3 MSTORE POP POP JUMP JUMPDEST PUSH2 0x782 DUP2 PUSH2 0xA93 JUMP JUMPDEST DUP3 MSTORE POP POP JUMP JUMPDEST PUSH1 0x0 PUSH2 0x794 DUP4 DUP6 PUSH2 0xA3F JUMP JUMPDEST SWAP4 POP PUSH2 0x7A1 DUP4 DUP6 DUP5 PUSH2 0xACC JUMP JUMPDEST DUP3 DUP5 ADD SWAP1 POP SWAP4 SWAP3 POP POP POP JUMP JUMPDEST PUSH1 0x0 PUSH2 0x7BA PUSH1 0x16 DUP4 PUSH2 0xA2E JUMP JUMPDEST SWAP2 POP PUSH2 0x7C5 DUP3 PUSH2 0xBA3 JUMP JUMPDEST PUSH1 0x20 DUP3 ADD SWAP1 POP SWAP2 SWAP1 POP JUMP JUMPDEST PUSH1 0x0 PUSH2 0x7DD PUSH1 0x13 DUP4 PUSH2 0xA2E JUMP JUMPDEST SWAP2 POP PUSH2 0x7E8 DUP3 PUSH2 0xBCC JUMP JUMPDEST PUSH1 0x20 DUP3 ADD SWAP1 POP SWAP2 SWAP1 POP JUMP JUMPDEST PUSH1 0x0 PUSH2 0x800 PUSH1 0x15 DUP4 PUSH2 0xA2E JUMP JUMPDEST SWAP2 POP PUSH2 0x80B DUP3 PUSH2 0xBF5 JUMP JUMPDEST PUSH1 0x20 DUP3 ADD SWAP1 POP SWAP2 SWAP1 POP JUMP JUMPDEST PUSH1 0x0 PUSH2 0x823 PUSH1 0x28 DUP4 PUSH2 0xA2E JUMP JUMPDEST SWAP2 POP PUSH2 0x82E DUP3 PUSH2 0xC1E JUMP JUMPDEST PUSH1 0x40 DUP3 ADD SWAP1 POP SWAP2 SWAP1 POP JUMP JUMPDEST PUSH1 0x0 PUSH2 0x846 PUSH1 0x1C DUP4 PUSH2 0xA2E JUMP JUMPDEST SWAP2 POP PUSH2 0x851 DUP3 PUSH2 0xC6D JUMP JUMPDEST PUSH1 0x20 DUP3 ADD SWAP1 POP SWAP2 SWAP1 POP JUMP JUMPDEST PUSH2 0x865 DUP2 PUSH2 0xABF JUMP JUMPDEST DUP3 MSTORE POP POP JUMP JUMPDEST PUSH1 0x0 PUSH2 0x878 DUP3 DUP5 DUP7 PUSH2 0x788 JUMP JUMPDEST SWAP2 POP DUP2 SWAP1 POP SWAP4 SWAP3 POP POP POP JUMP JUMPDEST PUSH1 0x0 PUSH1 0x20 DUP3 ADD SWAP1 POP PUSH2 0x899 PUSH1 0x0 DUP4 ADD DUP5 PUSH2 0x76A JUMP JUMPDEST SWAP3 SWAP2 POP POP JUMP JUMPDEST PUSH1 0x0 PUSH1 0x20 DUP3 ADD SWAP1 POP PUSH2 0x8B4 PUSH1 0x0 DUP4 ADD DUP5 PUSH2 0x779 JUMP JUMPDEST SWAP3 SWAP2 POP POP JUMP JUMPDEST PUSH1 0x0 PUSH1 0x20 DUP3 ADD SWAP1 POP DUP2 DUP2 SUB PUSH1 0x0 DUP4 ADD MSTORE PUSH2 0x8D3 DUP2 PUSH2 0x7AD JUMP JUMPDEST SWAP1 POP SWAP2 SWAP1 POP JUMP JUMPDEST PUSH1 0x0 PUSH1 0x20 DUP3 ADD SWAP1 POP DUP2 DUP2 SUB PUSH1 0x0 DUP4 ADD MSTORE PUSH2 0x8F3 DUP2 PUSH2 0x7D0 JUMP JUMPDEST SWAP1 POP SWAP2 SWAP1 POP JUMP JUMPDEST PUSH1 0x0 PUSH1 0x20 DUP3 ADD SWAP1 POP DUP2 DUP2 SUB PUSH1 0x0 DUP4 ADD MSTORE PUSH2 0x913 DUP2 PUSH2 0x7F3 JUMP JUMPDEST SWAP1 POP SWAP2 SWAP1 POP JUMP JUMPDEST PUSH1 0x0 PUSH1 0x20 DUP3 ADD SWAP1 POP DUP2 DUP2 SUB PUSH1 0x0 DUP4 ADD MSTORE PUSH2 0x933 DUP2 PUSH2 0x816 JUMP JUMPDEST SWAP1 POP SWAP2 SWAP1 POP JUMP JUMPDEST PUSH1 0x0 PUSH1 0x20 DUP3 ADD SWAP1 POP DUP2 DUP2 SUB PUSH1 0x0 DUP4 ADD MSTORE PUSH2 0x953 DUP2 PUSH2 0x839 JUMP JUMPDEST SWAP1 POP SWAP2 SWAP1 POP JUMP JUMPDEST PUSH1 0x0 PUSH1 0x20 DUP3 ADD SWAP1 POP PUSH2 0x96F PUSH1 0x0 DUP4 ADD DUP5 PUSH2 0x85C JUMP JUMPDEST SWAP3 SWAP2 POP POP JUMP JUMPDEST PUSH1 0x0 DUP1 DUP4 CALLDATALOAD PUSH1 0x1 PUSH1 0x20 SUB DUP5 CALLDATASIZE SUB SUB DUP2 SLT PUSH2 0x992 JUMPI PUSH2 0x991 PUSH2 0xB79 JUMP JUMPDEST JUMPDEST DUP1 DUP5 ADD SWAP3 POP DUP3 CALLDATALOAD SWAP2 POP PUSH8 0xFFFFFFFFFFFFFFFF DUP3 GT ISZERO PUSH2 0x9B4 JUMPI PUSH2 0x9B3 PUSH2 0xB6F JUMP JUMPDEST JUMPDEST PUSH1 0x20 DUP4 ADD SWAP3 POP PUSH1 0x1 DUP3 MUL CALLDATASIZE SUB DUP4 SGT ISZERO PUSH2 0x9D0 JUMPI PUSH2 0x9CF PUSH2 0xB7E JUMP JUMPDEST JUMPDEST POP SWAP3 POP SWAP3 SWAP1 POP JUMP JUMPDEST PUSH1 0x0 PUSH2 0x9E2 PUSH2 0x9F3 JUMP JUMPDEST SWAP1 POP PUSH2 0x9EE DUP3 DUP3 PUSH2 0xADB JUMP JUMPDEST SWAP2 SWAP1 POP JUMP JUMPDEST PUSH1 0x0 PUSH1 0x40 MLOAD SWAP1 POP SWAP1 JUMP JUMPDEST PUSH1 0x0 PUSH8 0xFFFFFFFFFFFFFFFF DUP3 GT ISZERO PUSH2 0xA18 JUMPI PUSH2 0xA17 PUSH2 0xB3B JUMP JUMPDEST JUMPDEST PUSH2 0xA21 DUP3 PUSH2 0xB92 JUMP JUMPDEST SWAP1 POP PUSH1 0x20 DUP2 ADD SWAP1 POP SWAP2 SWAP1 POP JUMP JUMPDEST PUSH1 0x0 DUP3 DUP3 MSTORE PUSH1 0x20 DUP3 ADD SWAP1 POP SWAP3 SWAP2 POP POP JUMP JUMPDEST PUSH1 0x0 DUP2 SWAP1 POP SWAP3 SWAP2 POP POP JUMP JUMPDEST PUSH1 0x0 PUSH2 0xA55 DUP3 PUSH2 0xABF JUMP JUMPDEST SWAP2 POP PUSH2 0xA60 DUP4 PUSH2 0xABF JUMP JUMPDEST SWAP3 POP DUP3 PUSH1 0xFF SUB DUP3 GT ISZERO PUSH2 0xA76 JUMPI PUSH2 0xA75 PUSH2 0xB0C JUMP JUMPDEST JUMPDEST DUP3 DUP3 ADD SWAP1 POP SWAP3 SWAP2 POP POP JUMP JUMPDEST PUSH1 0x0 PUSH2 0xA8C DUP3 PUSH2 0xA9F JUMP JUMPDEST SWAP1 POP SWAP2 SWAP1 POP JUMP JUMPDEST PUSH1 0x0 DUP2 ISZERO ISZERO SWAP1 POP SWAP2 SWAP1 POP JUMP JUMPDEST PUSH1 0x0 PUSH20 0xFFFFFFFFFFFFFFFFFFFFFFFFFFFFFFFFFFFFFFFF DUP3 AND SWAP1 POP SWAP2 SWAP1 POP JUMP JUMPDEST PUSH1 0x0 PUSH1 0xFF DUP3 AND SWAP1 POP SWAP2 SWAP1 POP JUMP JUMPDEST DUP3 DUP2 DUP4 CALLDATACOPY PUSH1 0x0 DUP4 DUP4 ADD MSTORE POP POP POP JUMP JUMPDEST PUSH2 0xAE4 DUP3 PUSH2 0xB92 JUMP JUMPDEST DUP2 ADD DUP2 DUP2 LT PUSH8 0xFFFFFFFFFFFFFFFF DUP3 GT OR ISZERO PUSH2 0xB03 JUMPI PUSH2 0xB02 PUSH2 0xB3B JUMP JUMPDEST JUMPDEST DUP1 PUSH1 0x40 MSTORE POP POP POP JUMP JUMPDEST PUSH32 0x4E487B7100000000000000000000000000000000000000000000000000000000 PUSH1 0x0 MSTORE PUSH1 0x11 PUSH1 0x4 MSTORE PUSH1 0x24 PUSH1 0x0 REVERT JUMPDEST PUSH32 0x4E487B7100000000000000000000000000000000000000000000000000000000 PUSH1 0x0 MSTORE PUSH1 0x41 PUSH1 0x4 MSTORE PUSH1 0x24 PUSH1 0x0 REVERT JUMPDEST PUSH1 0x0 DUP1 REVERT JUMPDEST PUSH1 0x0 DUP1 REVERT JUMPDEST PUSH1 0x0 DUP1 REVERT JUMPDEST PUSH1 0x0 DUP1 REVERT JUMPDEST PUSH1 0x0 DUP1 REVERT JUMPDEST PUSH1 0x0 DUP1 REVERT JUMPDEST PUSH1 0x0 DUP1 REVERT JUMPDEST PUSH1 0x0 DUP1 REVERT JUMPDEST PUSH1 0x0 PUSH1 0x1F NOT PUSH1 0x1F DUP4 ADD AND SWAP1 POP SWAP2 SWAP1 POP JUMP JUMPDEST PUSH32 0x596F7520617265206E6F7420746865206F776E65722100000000000000000000 PUSH1 0x0 DUP3 ADD MSTORE POP JUMP JUMPDEST PUSH32 0x456C656374696F6E2068617320656E6465642100000000000000000000000000 PUSH1 0x0 DUP3 ADD MSTORE POP JUMP JUMPDEST PUSH32 0x54686572652063616E6E6F742062652061207469650000000000000000000000 PUSH1 0x0 DUP3 ADD MSTORE POP JUMP JUMPDEST PUSH32 0x546869732073746174652068617320616C7265616479207375626D6974656420 PUSH1 0x0 DUP3 ADD MSTORE PUSH32 0x726573756C747321000000000000000000000000000000000000000000000000 PUSH1 0x20 DUP3 ADD MSTORE POP JUMP JUMPDEST PUSH32 0x53746174652073656574732063616E6E6F7420626520656D7074792100000000 PUSH1 0x0 DUP3 ADD MSTORE POP JUMP JUMPDEST PUSH2 0xC9F DUP2 PUSH2 0xABF JUMP JUMPDEST DUP2 EQ PUSH2 0xCAA JUMPI PUSH1 0x0 DUP1 REVERT JUMPDEST POP JUMP INVALID LOG2 PUSH5 0x6970667358 0x22 SLT KECCAK256 0xB7 PUSH14 0x8DBB41AAD62C0B5F7C01624F878 CALLDATASIZE 0xF 0xDB 0xB4 SWAP10 0xC7 0x4B LOG1 0xF8 0xCF 0xCD PUSH7 0xAD64A5F764736F PUSH13 0x63430008070033000000000000 "
				},
				"gasEstimates": {
					"creation": {
						"codeDepositCost": "659800",
						"executionCost": "24962",
						"totalCost": "684762"
					},
					"external": {
						"BIDEN()": "402",
						"TRUMP()": "358",
						"currentLeader()": "4938",
						"electionEnded()": "2587",
						"endElection()": "28879",
						"owner()": "2533",
						"seats(uint8)": "infinite",
						"submitStateResult((string,uint256,uint256,uint8))": "infinite",
						"submitedStates(string)": "infinite"
					}
				},
				"methodIdentifiers": {
					"BIDEN()": "69b36bd4",
					"TRUMP()": "2d78d8e5",
					"currentLeader()": "ac4bd53a",
					"electionEnded()": "c94ca9e3",
					"endElection()": "59f78468",
					"owner()": "8da5cb5b",
					"seats(uint8)": "713d87c5",
					"submitStateResult((string,uint256,uint256,uint8))": "e494a883",
					"submitedStates(string)": "2d674216"
				}
			},
			"storageLayout": {
				"storage": [
					{
						"astId": 3,
						"contract": "contracts/USElection.sol:USElection",
						"label": "owner",
						"offset": 0,
						"slot": "0",
						"type": "t_address"
					},
					{
						"astId": 39,
						"contract": "contracts/USElection.sol:USElection",
						"label": "electionEnded",
						"offset": 20,
						"slot": "0",
						"type": "t_bool"
					},
					{
						"astId": 43,
						"contract": "contracts/USElection.sol:USElection",
						"label": "seats",
						"offset": 0,
						"slot": "1",
						"type": "t_mapping(t_uint8,t_uint8)"
					},
					{
						"astId": 47,
						"contract": "contracts/USElection.sol:USElection",
						"label": "submitedStates",
						"offset": 0,
						"slot": "2",
						"type": "t_mapping(t_string_memory_ptr,t_bool)"
					}
				],
				"types": {
					"t_address": {
						"encoding": "inplace",
						"label": "address",
						"numberOfBytes": "20"
					},
					"t_bool": {
						"encoding": "inplace",
						"label": "bool",
						"numberOfBytes": "1"
					},
					"t_mapping(t_string_memory_ptr,t_bool)": {
						"encoding": "mapping",
						"key": "t_string_memory_ptr",
						"label": "mapping(string => bool)",
						"numberOfBytes": "32",
						"value": "t_bool"
					},
					"t_mapping(t_uint8,t_uint8)": {
						"encoding": "mapping",
						"key": "t_uint8",
						"label": "mapping(uint8 => uint8)",
						"numberOfBytes": "32",
						"value": "t_uint8"
					},
					"t_string_memory_ptr": {
						"encoding": "bytes",
						"label": "string",
						"numberOfBytes": "32"
					},
					"t_uint8": {
						"encoding": "inplace",
						"label": "uint8",
						"numberOfBytes": "1"
					}
				}
			},
			"userdoc": {
				"kind": "user",
				"methods": {},
				"version": 1
			}
		}
	}
}