{
	"contracts/Store.sol": {
		"Store": {
			"abi": [
				{
					"inputs": [
						{
							"internalType": "string",
							"name": "name",
							"type": "string"
						},
						{
							"internalType": "uint256",
							"name": "quantity",
							"type": "uint256"
						},
						{
							"internalType": "uint256",
							"name": "price",
							"type": "uint256"
						}
					],
					"name": "addNewProduct",
					"outputs": [],
					"stateMutability": "nonpayable",
					"type": "function"
				},
				{
					"inputs": [
						{
							"internalType": "string",
							"name": "",
							"type": "string"
						}
					],
					"name": "availableProductsNames",
					"outputs": [
						{
							"internalType": "bool",
							"name": "",
							"type": "bool"
						}
					],
					"stateMutability": "view",
					"type": "function"
				},
				{
					"inputs": [
						{
							"internalType": "uint256",
							"name": "id",
							"type": "uint256"
						},
						{
							"internalType": "uint256",
							"name": "quantity",
							"type": "uint256"
						}
					],
					"name": "buyProduct",
					"outputs": [],
					"stateMutability": "payable",
					"type": "function"
				},
				{
					"inputs": [],
					"name": "getProducts",
					"outputs": [
						{
							"components": [
								{
									"internalType": "uint256",
									"name": "id",
									"type": "uint256"
								},
								{
									"internalType": "string",
									"name": "name",
									"type": "string"
								},
								{
									"internalType": "uint256",
									"name": "quantity",
									"type": "uint256"
								},
								{
									"internalType": "uint256",
									"name": "price",
									"type": "uint256"
								}
							],
							"internalType": "struct Store.Product[]",
							"name": "",
							"type": "tuple[]"
						}
					],
					"stateMutability": "view",
					"type": "function"
				},
				{
					"inputs": [],
					"name": "owner",
					"outputs": [
						{
							"internalType": "address",
							"name": "",
							"type": "address"
						}
					],
					"stateMutability": "view",
					"type": "function"
				},
				{
					"inputs": [
						{
							"internalType": "uint256",
							"name": "",
							"type": "uint256"
						}
					],
					"name": "products",
					"outputs": [
						{
							"internalType": "uint256",
							"name": "id",
							"type": "uint256"
						},
						{
							"internalType": "string",
							"name": "name",
							"type": "string"
						},
						{
							"internalType": "uint256",
							"name": "quantity",
							"type": "uint256"
						},
						{
							"internalType": "uint256",
							"name": "price",
							"type": "uint256"
						}
					],
					"stateMutability": "view",
					"type": "function"
				},
				{
					"inputs": [
						{
							"internalType": "uint256",
							"name": "",
							"type": "uint256"
						},
						{
							"internalType": "address",
							"name": "",
							"type": "address"
						}
					],
					"name": "productsPurchases",
					"outputs": [
						{
							"internalType": "uint256",
							"name": "",
							"type": "uint256"
						}
					],
					"stateMutability": "view",
					"type": "function"
				},
				{
					"inputs": [
						{
							"internalType": "uint256",
							"name": "id",
							"type": "uint256"
						},
						{
							"internalType": "uint256",
							"name": "quantity",
							"type": "uint256"
						}
					],
					"name": "updateProductQuantity",
					"outputs": [],
					"stateMutability": "nonpayable",
					"type": "function"
				}
			],
			"devdoc": {
				"kind": "dev",
				"methods": {},
				"version": 1
			},
			"evm": {
				"assembly": "    /* \"contracts/Store.sol\":93:2390  contract Store is Ownable {\r... */\n  mstore(0x40, 0x80)\n  callvalue\n  dup1\n  iszero\n  tag_1\n  jumpi\n  0x00\n  dup1\n  revert\ntag_1:\n  pop\n    /* \"contracts/Ownable.sol\":156:166  msg.sender */\n  caller\n    /* \"contracts/Ownable.sol\":148:153  owner */\n  0x00\n  dup1\n    /* \"contracts/Ownable.sol\":148:166  owner = msg.sender */\n  0x0100\n  exp\n  dup2\n  sload\n  dup2\n  0xffffffffffffffffffffffffffffffffffffffff\n  mul\n  not\n  and\n  swap1\n  dup4\n  0xffffffffffffffffffffffffffffffffffffffff\n  and\n  mul\n  or\n  swap1\n  sstore\n  pop\n    /* \"contracts/Store.sol\":93:2390  contract Store is Ownable {\r... */\n  dataSize(sub_0)\n  dup1\n  dataOffset(sub_0)\n  0x00\n  codecopy\n  0x00\n  return\nstop\n\nsub_0: assembly {\n        /* \"contracts/Store.sol\":93:2390  contract Store is Ownable {\r... */\n      mstore(0x40, 0x80)\n      jumpi(tag_1, lt(calldatasize, 0x04))\n      shr(0xe0, calldataload(0x00))\n      dup1\n      0x8da5cb5b\n      gt\n      tag_10\n      jumpi\n      dup1\n      0x8da5cb5b\n      eq\n      tag_6\n      jumpi\n      dup1\n      0xc29b2f20\n      eq\n      tag_7\n      jumpi\n      dup1\n      0xccc4174a\n      eq\n      tag_8\n      jumpi\n      dup1\n      0xfcc93b0b\n      eq\n      tag_9\n      jumpi\n      jump(tag_1)\n    tag_10:\n      dup1\n      0x0a5bd44b\n      eq\n      tag_2\n      jumpi\n      dup1\n      0x4c437514\n      eq\n      tag_3\n      jumpi\n      dup1\n      0x53b62866\n      eq\n      tag_4\n      jumpi\n      dup1\n      0x7acc0b20\n      eq\n      tag_5\n      jumpi\n    tag_1:\n      0x00\n      dup1\n      revert\n        /* \"contracts/Store.sol\":470:880  function addNewProduct(string calldata name, uint quantity, uint price) public onlyOwner {\r... */\n    tag_2:\n      callvalue\n      dup1\n      iszero\n      tag_11\n      jumpi\n      0x00\n      dup1\n      revert\n    tag_11:\n      pop\n      tag_12\n      0x04\n      dup1\n      calldatasize\n      sub\n      dup2\n      add\n      swap1\n      tag_13\n      swap2\n      swap1\n      tag_14\n      jump\t// in\n    tag_13:\n      tag_15\n      jump\t// in\n    tag_12:\n      stop\n        /* \"contracts/Store.sol\":274:327  mapping(string => bool) public availableProductsNames */\n    tag_3:\n      callvalue\n      dup1\n      iszero\n      tag_16\n      jumpi\n      0x00\n      dup1\n      revert\n    tag_16:\n      pop\n      tag_17\n      0x04\n      dup1\n      calldatasize\n      sub\n      dup2\n      add\n      swap1\n      tag_18\n      swap2\n      swap1\n      tag_19\n      jump\t// in\n    tag_18:\n      tag_20\n      jump\t// in\n    tag_17:\n      mload(0x40)\n      tag_21\n      swap2\n      swap1\n      tag_22\n      jump\t// in\n    tag_21:\n      mload(0x40)\n      dup1\n      swap2\n      sub\n      swap1\n      return\n        /* \"contracts/Store.sol\":1284:2387  function buyProduct(uint id, uint quantity) payable public onlyExistingProduct(id) {\r... */\n    tag_4:\n      tag_23\n      0x04\n      dup1\n      calldatasize\n      sub\n      dup2\n      add\n      swap1\n      tag_24\n      swap2\n      swap1\n      tag_25\n      jump\t// in\n    tag_24:\n      tag_26\n      jump\t// in\n    tag_23:\n      stop\n        /* \"contracts/Store.sol\":242:267  Product[] public products */\n    tag_5:\n      callvalue\n      dup1\n      iszero\n      tag_27\n      jumpi\n      0x00\n      dup1\n      revert\n    tag_27:\n      pop\n      tag_28\n      0x04\n      dup1\n      calldatasize\n      sub\n      dup2\n      add\n      swap1\n      tag_29\n      swap2\n      swap1\n      tag_30\n      jump\t// in\n    tag_29:\n      tag_31\n      jump\t// in\n    tag_28:\n      mload(0x40)\n      tag_32\n      swap5\n      swap4\n      swap3\n      swap2\n      swap1\n      tag_33\n      jump\t// in\n    tag_32:\n      mload(0x40)\n      dup1\n      swap2\n      sub\n      swap1\n      return\n        /* \"contracts/Ownable.sol\":90:110  address public owner */\n    tag_6:\n      callvalue\n      dup1\n      iszero\n      tag_34\n      jumpi\n      0x00\n      dup1\n      revert\n    tag_34:\n      pop\n      tag_35\n      tag_36\n      jump\t// in\n    tag_35:\n      mload(0x40)\n      tag_37\n      swap2\n      swap1\n      tag_38\n      jump\t// in\n    tag_37:\n      mload(0x40)\n      dup1\n      swap2\n      sub\n      swap1\n      return\n        /* \"contracts/Store.sol\":1181:1276  function getProducts() public view returns(Product[] memory) {\r... */\n    tag_7:\n      callvalue\n      dup1\n      iszero\n      tag_39\n      jumpi\n      0x00\n      dup1\n      revert\n    tag_39:\n      pop\n      tag_40\n      tag_41\n      jump\t// in\n    tag_40:\n      mload(0x40)\n      tag_42\n      swap2\n      swap1\n      tag_43\n      jump\t// in\n    tag_42:\n      mload(0x40)\n      dup1\n      swap2\n      sub\n      swap1\n      return\n        /* \"contracts/Store.sol\":395:461  mapping(uint => mapping(address => uint)) public productsPurchases */\n    tag_8:\n      callvalue\n      dup1\n      iszero\n      tag_44\n      jumpi\n      0x00\n      dup1\n      revert\n    tag_44:\n      pop\n      tag_45\n      0x04\n      dup1\n      calldatasize\n      sub\n      dup2\n      add\n      swap1\n      tag_46\n      swap2\n      swap1\n      tag_47\n      jump\t// in\n    tag_46:\n      tag_48\n      jump\t// in\n    tag_45:\n      mload(0x40)\n      tag_49\n      swap2\n      swap1\n      tag_50\n      jump\t// in\n    tag_49:\n      mload(0x40)\n      dup1\n      swap2\n      sub\n      swap1\n      return\n        /* \"contracts/Store.sol\":1026:1173  function updateProductQuantity(uint id, uint quantity) public onlyOwner onlyExistingProduct(id) {\r... */\n    tag_9:\n      callvalue\n      dup1\n      iszero\n      tag_51\n      jumpi\n      0x00\n      dup1\n      revert\n    tag_51:\n      pop\n      tag_52\n      0x04\n      dup1\n      calldatasize\n      sub\n      dup2\n      add\n      swap1\n      tag_53\n      swap2\n      swap1\n      tag_25\n      jump\t// in\n    tag_53:\n      tag_54\n      jump\t// in\n    tag_52:\n      stop\n        /* \"contracts/Store.sol\":470:880  function addNewProduct(string calldata name, uint quantity, uint price) public onlyOwner {\r... */\n    tag_15:\n        /* \"contracts/Ownable.sol\":236:241  owner */\n      0x00\n      dup1\n      sload\n      swap1\n      0x0100\n      exp\n      swap1\n      div\n      0xffffffffffffffffffffffffffffffffffffffff\n      and\n        /* \"contracts/Ownable.sol\":222:241  msg.sender == owner */\n      0xffffffffffffffffffffffffffffffffffffffff\n      and\n        /* \"contracts/Ownable.sol\":222:232  msg.sender */\n      caller\n        /* \"contracts/Ownable.sol\":222:241  msg.sender == owner */\n      0xffffffffffffffffffffffffffffffffffffffff\n      and\n      eq\n        /* \"contracts/Ownable.sol\":214:268  require(msg.sender == owner, \"You are not the owner!\") */\n      tag_56\n      jumpi\n      mload(0x40)\n      0x08c379a000000000000000000000000000000000000000000000000000000000\n      dup2\n      mstore\n      0x04\n      add\n      tag_57\n      swap1\n      tag_58\n      jump\t// in\n    tag_57:\n      mload(0x40)\n      dup1\n      swap2\n      sub\n      swap1\n      revert\n    tag_56:\n        /* \"contracts/Store.sol\":600:601  0 */\n      0x00\n        /* \"contracts/Store.sol\":584:588  name */\n      dup5\n      dup5\n        /* \"contracts/Store.sol\":578:596  bytes(name).length */\n      swap1\n      pop\n        /* \"contracts/Store.sol\":578:601  bytes(name).length != 0 */\n      eq\n      iszero\n        /* \"contracts/Store.sol\":578:614  bytes(name).length != 0 && price > 0 */\n      dup1\n      iszero\n      tag_60\n      jumpi\n      pop\n        /* \"contracts/Store.sol\":613:614  0 */\n      0x00\n        /* \"contracts/Store.sol\":605:610  price */\n      dup2\n        /* \"contracts/Store.sol\":605:614  price > 0 */\n      gt\n        /* \"contracts/Store.sol\":578:614  bytes(name).length != 0 && price > 0 */\n    tag_60:\n        /* \"contracts/Store.sol\":570:615  require(bytes(name).length != 0 && price > 0) */\n      tag_61\n      jumpi\n      0x00\n      dup1\n      revert\n    tag_61:\n        /* \"contracts/Store.sol\":635:657  availableProductsNames */\n      0x02\n        /* \"contracts/Store.sol\":658:662  name */\n      dup5\n      dup5\n        /* \"contracts/Store.sol\":635:663  availableProductsNames[name] */\n      mload(0x40)\n      tag_62\n      swap3\n      swap2\n      swap1\n      tag_63\n      jump\t// in\n    tag_62:\n      swap1\n      dup2\n      mstore\n      0x20\n      add\n      mload(0x40)\n      dup1\n      swap2\n      sub\n      swap1\n      keccak256\n      0x00\n      swap1\n      sload\n      swap1\n      0x0100\n      exp\n      swap1\n      div\n      0xff\n      and\n        /* \"contracts/Store.sol\":634:663  !availableProductsNames[name] */\n      iszero\n        /* \"contracts/Store.sol\":626:704  require(!availableProductsNames[name], \"The product is already in the store!\") */\n      tag_64\n      jumpi\n      mload(0x40)\n      0x08c379a000000000000000000000000000000000000000000000000000000000\n      dup2\n      mstore\n      0x04\n      add\n      tag_65\n      swap1\n      tag_66\n      jump\t// in\n    tag_65:\n      mload(0x40)\n      dup1\n      swap2\n      sub\n      swap1\n      revert\n    tag_64:\n        /* \"contracts/Store.sol\":725:739  uint productId */\n      0x00\n        /* \"contracts/Store.sol\":742:750  products */\n      0x01\n        /* \"contracts/Store.sol\":742:757  products.length */\n      dup1\n      sload\n      swap1\n      pop\n        /* \"contracts/Store.sol\":725:757  uint productId = products.length */\n      swap1\n      pop\n        /* \"contracts/Store.sol\":801:805  true */\n      0x01\n        /* \"contracts/Store.sol\":770:792  availableProductsNames */\n      0x02\n        /* \"contracts/Store.sol\":793:797  name */\n      dup7\n      dup7\n        /* \"contracts/Store.sol\":770:798  availableProductsNames[name] */\n      mload(0x40)\n      tag_67\n      swap3\n      swap2\n      swap1\n      tag_63\n      jump\t// in\n    tag_67:\n      swap1\n      dup2\n      mstore\n      0x20\n      add\n      mload(0x40)\n      dup1\n      swap2\n      sub\n      swap1\n      keccak256\n      0x00\n        /* \"contracts/Store.sol\":770:805  availableProductsNames[name] = true */\n      0x0100\n      exp\n      dup2\n      sload\n      dup2\n      0xff\n      mul\n      not\n      and\n      swap1\n      dup4\n      iszero\n      iszero\n      mul\n      or\n      swap1\n      sstore\n      pop\n        /* \"contracts/Store.sol\":816:824  products */\n      0x01\n        /* \"contracts/Store.sol\":830:871  Product(productId, name, quantity, price) */\n      mload(0x40)\n      dup1\n      0x80\n      add\n      0x40\n      mstore\n      dup1\n        /* \"contracts/Store.sol\":838:847  productId */\n      dup4\n        /* \"contracts/Store.sol\":830:871  Product(productId, name, quantity, price) */\n      dup2\n      mstore\n      0x20\n      add\n        /* \"contracts/Store.sol\":849:853  name */\n      dup8\n      dup8\n        /* \"contracts/Store.sol\":830:871  Product(productId, name, quantity, price) */\n      dup1\n      dup1\n      0x1f\n      add\n      0x20\n      dup1\n      swap2\n      div\n      mul\n      0x20\n      add\n      mload(0x40)\n      swap1\n      dup2\n      add\n      0x40\n      mstore\n      dup1\n      swap4\n      swap3\n      swap2\n      swap1\n      dup2\n      dup2\n      mstore\n      0x20\n      add\n      dup4\n      dup4\n      dup1\n      dup3\n      dup5\n      calldatacopy\n      0x00\n      dup2\n      dup5\n      add\n      mstore\n      not(0x1f)\n      0x1f\n      dup3\n      add\n      and\n      swap1\n      pop\n      dup1\n      dup4\n      add\n      swap3\n      pop\n      pop\n      pop\n      pop\n      pop\n      pop\n      pop\n      dup2\n      mstore\n      0x20\n      add\n        /* \"contracts/Store.sol\":855:863  quantity */\n      dup6\n        /* \"contracts/Store.sol\":830:871  Product(productId, name, quantity, price) */\n      dup2\n      mstore\n      0x20\n      add\n        /* \"contracts/Store.sol\":865:870  price */\n      dup5\n        /* \"contracts/Store.sol\":830:871  Product(productId, name, quantity, price) */\n      dup2\n      mstore\n      pop\n        /* \"contracts/Store.sol\":816:872  products.push(Product(productId, name, quantity, price)) */\n      swap1\n      dup1\n      0x01\n      dup2\n      sload\n      add\n      dup1\n      dup3\n      sstore\n      dup1\n      swap2\n      pop\n      pop\n      0x01\n      swap1\n      sub\n      swap1\n      0x00\n      mstore\n      keccak256(0x00, 0x20)\n      swap1\n      0x04\n      mul\n      add\n      0x00\n      swap1\n      swap2\n      swap1\n      swap2\n      swap1\n      swap2\n      pop\n      0x00\n      dup3\n      add\n      mload\n      dup2\n      0x00\n      add\n      sstore\n      0x20\n      dup3\n      add\n      mload\n      dup2\n      0x01\n      add\n      swap1\n      dup1\n      mload\n      swap1\n      0x20\n      add\n      swap1\n      tag_69\n      swap3\n      swap2\n      swap1\n      tag_70\n      jump\t// in\n    tag_69:\n      pop\n      0x40\n      dup3\n      add\n      mload\n      dup2\n      0x02\n      add\n      sstore\n      0x60\n      dup3\n      add\n      mload\n      dup2\n      0x03\n      add\n      sstore\n      pop\n      pop\n        /* \"contracts/Store.sol\":559:880  {\r... */\n      pop\n        /* \"contracts/Store.sol\":470:880  function addNewProduct(string calldata name, uint quantity, uint price) public onlyOwner {\r... */\n      pop\n      pop\n      pop\n      pop\n      jump\t// out\n        /* \"contracts/Store.sol\":274:327  mapping(string => bool) public availableProductsNames */\n    tag_20:\n      0x02\n      dup2\n      dup1\n      mload\n      0x20\n      dup2\n      add\n      dup3\n      add\n      dup1\n      mload\n      dup5\n      dup3\n      mstore\n      0x20\n      dup4\n      add\n      0x20\n      dup6\n      add\n      keccak256\n      dup2\n      dup4\n      mstore\n      dup1\n      swap6\n      pop\n      pop\n      pop\n      pop\n      pop\n      pop\n      0x00\n      swap2\n      pop\n      sload\n      swap1\n      0x0100\n      exp\n      swap1\n      div\n      0xff\n      and\n      dup2\n      jump\t// out\n        /* \"contracts/Store.sol\":1284:2387  function buyProduct(uint id, uint quantity) payable public onlyExistingProduct(id) {\r... */\n    tag_26:\n        /* \"contracts/Store.sol\":1363:1365  id */\n      dup2\n        /* \"contracts/Store.sol\":950:958  products */\n      0x01\n        /* \"contracts/Store.sol\":950:965  products.length */\n      dup1\n      sload\n      swap1\n      pop\n        /* \"contracts/Store.sol\":945:947  id */\n      dup2\n        /* \"contracts/Store.sol\":945:965  id < products.length */\n      lt\n        /* \"contracts/Store.sol\":937:998  require(id < products.length, \"The product is not existing!\") */\n      tag_72\n      jumpi\n      mload(0x40)\n      0x08c379a000000000000000000000000000000000000000000000000000000000\n      dup2\n      mstore\n      0x04\n      add\n      tag_73\n      swap1\n      tag_74\n      jump\t// in\n    tag_73:\n      mload(0x40)\n      dup1\n      swap2\n      sub\n      swap1\n      revert\n    tag_72:\n        /* \"contracts/Store.sol\":1397:1398  0 */\n      0x00\n        /* \"contracts/Store.sol\":1386:1394  quantity */\n      dup3\n        /* \"contracts/Store.sol\":1386:1398  quantity > 0 */\n      gt\n        /* \"contracts/Store.sol\":1378:1420  require(quantity > 0, \"Invalid quantity!\") */\n      tag_76\n      jumpi\n      mload(0x40)\n      0x08c379a000000000000000000000000000000000000000000000000000000000\n      dup2\n      mstore\n      0x04\n      add\n      tag_77\n      swap1\n      tag_78\n      jump\t// in\n    tag_77:\n      mload(0x40)\n      dup1\n      swap2\n      sub\n      swap1\n      revert\n    tag_76:\n        /* \"contracts/Store.sol\":1433:1454  address clientAddress */\n      0x00\n        /* \"contracts/Store.sol\":1457:1467  msg.sender */\n      caller\n        /* \"contracts/Store.sol\":1433:1467  address clientAddress = msg.sender */\n      swap1\n      pop\n        /* \"contracts/Store.sol\":1597:1598  0 */\n      0x00\n        /* \"contracts/Store.sol\":1557:1574  productsPurchases */\n      0x03\n        /* \"contracts/Store.sol\":1557:1578  productsPurchases[id] */\n      0x00\n        /* \"contracts/Store.sol\":1575:1577  id */\n      dup7\n        /* \"contracts/Store.sol\":1557:1578  productsPurchases[id] */\n      dup2\n      mstore\n      0x20\n      add\n      swap1\n      dup2\n      mstore\n      0x20\n      add\n      0x00\n      keccak256\n        /* \"contracts/Store.sol\":1557:1593  productsPurchases[id][clientAddress] */\n      0x00\n        /* \"contracts/Store.sol\":1579:1592  clientAddress */\n      dup4\n        /* \"contracts/Store.sol\":1557:1593  productsPurchases[id][clientAddress] */\n      0xffffffffffffffffffffffffffffffffffffffff\n      and\n      0xffffffffffffffffffffffffffffffffffffffff\n      and\n      dup2\n      mstore\n      0x20\n      add\n      swap1\n      dup2\n      mstore\n      0x20\n      add\n      0x00\n      keccak256\n      sload\n        /* \"contracts/Store.sol\":1557:1598  productsPurchases[id][clientAddress] == 0 */\n      eq\n        /* \"contracts/Store.sol\":1549:1640  require(productsPurchases[id][clientAddress] == 0, \"You have already bought this product!\") */\n      tag_79\n      jumpi\n      mload(0x40)\n      0x08c379a000000000000000000000000000000000000000000000000000000000\n      dup2\n      mstore\n      0x04\n      add\n      tag_80\n      swap1\n      tag_81\n      jump\t// in\n    tag_80:\n      mload(0x40)\n      dup1\n      swap2\n      sub\n      swap1\n      revert\n    tag_79:\n        /* \"contracts/Store.sol\":1653:1683  Product storage currentProduct */\n      0x00\n        /* \"contracts/Store.sol\":1686:1694  products */\n      0x01\n        /* \"contracts/Store.sol\":1695:1697  id */\n      dup6\n        /* \"contracts/Store.sol\":1686:1698  products[id] */\n      dup2\n      sload\n      dup2\n      lt\n      tag_82\n      jumpi\n      tag_83\n      tag_84\n      jump\t// in\n    tag_83:\n    tag_82:\n      swap1\n      0x00\n      mstore\n      keccak256(0x00, 0x20)\n      swap1\n      0x04\n      mul\n      add\n        /* \"contracts/Store.sol\":1653:1698  Product storage currentProduct = products[id] */\n      swap1\n      pop\n        /* \"contracts/Store.sol\":1808:1816  quantity */\n      dup4\n        /* \"contracts/Store.sol\":1781:1795  currentProduct */\n      dup2\n        /* \"contracts/Store.sol\":1781:1804  currentProduct.quantity */\n      0x02\n      add\n      sload\n        /* \"contracts/Store.sol\":1781:1816  currentProduct.quantity >= quantity */\n      lt\n      iszero\n        /* \"contracts/Store.sol\":1773:1866  require(currentProduct.quantity >= quantity, \"The product quantity is less than you wanted!\") */\n      tag_86\n      jumpi\n      mload(0x40)\n      0x08c379a000000000000000000000000000000000000000000000000000000000\n      dup2\n      mstore\n      0x04\n      add\n      tag_87\n      swap1\n      tag_88\n      jump\t// in\n    tag_87:\n      mload(0x40)\n      dup1\n      swap2\n      sub\n      swap1\n      revert\n    tag_86:\n        /* \"contracts/Store.sol\":1879:1897  uint256 totalPrice */\n      0x00\n        /* \"contracts/Store.sol\":1929:1937  quantity */\n      dup5\n        /* \"contracts/Store.sol\":1908:1916  products */\n      0x01\n        /* \"contracts/Store.sol\":1917:1919  id */\n      dup8\n        /* \"contracts/Store.sol\":1908:1920  products[id] */\n      dup2\n      sload\n      dup2\n      lt\n      tag_89\n      jumpi\n      tag_90\n      tag_84\n      jump\t// in\n    tag_90:\n    tag_89:\n      swap1\n      0x00\n      mstore\n      keccak256(0x00, 0x20)\n      swap1\n      0x04\n      mul\n      add\n        /* \"contracts/Store.sol\":1908:1926  products[id].price */\n      0x03\n      add\n      sload\n        /* \"contracts/Store.sol\":1908:1937  products[id].price * quantity */\n      tag_92\n      swap2\n      swap1\n      tag_93\n      jump\t// in\n    tag_92:\n        /* \"contracts/Store.sol\":1879:1938  uint256 totalPrice = uint256(products[id].price * quantity) */\n      swap1\n      pop\n        /* \"contracts/Store.sol\":1970:1980  totalPrice */\n      dup1\n        /* \"contracts/Store.sol\":1957:1966  msg.value */\n      callvalue\n        /* \"contracts/Store.sol\":1957:1980  msg.value == totalPrice */\n      eq\n        /* \"contracts/Store.sol\":1949:2064  require(msg.value == totalPrice, \"Please send the exact price of the product multiplied by the quantity you want!\") */\n      tag_94\n      jumpi\n      mload(0x40)\n      0x08c379a000000000000000000000000000000000000000000000000000000000\n      dup2\n      mstore\n      0x04\n      add\n      tag_95\n      swap1\n      tag_96\n      jump\t// in\n    tag_95:\n      mload(0x40)\n      dup1\n      swap2\n      sub\n      swap1\n      revert\n    tag_94:\n        /* \"contracts/Store.sol\":2142:2147  owner */\n      0x00\n      dup1\n      sload\n      swap1\n      0x0100\n      exp\n      swap1\n      div\n      0xffffffffffffffffffffffffffffffffffffffff\n      and\n        /* \"contracts/Store.sol\":2134:2157  payable(owner).transfer */\n      0xffffffffffffffffffffffffffffffffffffffff\n      and\n        /* \"contracts/Store.sol\":2134:2169  payable(owner).transfer(totalPrice) */\n      0x08fc\n        /* \"contracts/Store.sol\":2158:2168  totalPrice */\n      dup3\n        /* \"contracts/Store.sol\":2134:2169  payable(owner).transfer(totalPrice) */\n      swap1\n      dup2\n      iszero\n      mul\n      swap1\n      mload(0x40)\n      0x00\n      mload(0x40)\n      dup1\n      dup4\n      sub\n      dup2\n      dup6\n      dup9\n      dup9\n      call\n      swap4\n      pop\n      pop\n      pop\n      pop\n      iszero\n      dup1\n      iszero\n      tag_98\n      jumpi\n      returndatasize\n      0x00\n      dup1\n      returndatacopy\n      revert(0x00, returndatasize)\n    tag_98:\n      pop\n        /* \"contracts/Store.sol\":2267:2275  quantity */\n      dup5\n        /* \"contracts/Store.sol\":2228:2245  productsPurchases */\n      0x03\n        /* \"contracts/Store.sol\":2228:2249  productsPurchases[id] */\n      0x00\n        /* \"contracts/Store.sol\":2246:2248  id */\n      dup9\n        /* \"contracts/Store.sol\":2228:2249  productsPurchases[id] */\n      dup2\n      mstore\n      0x20\n      add\n      swap1\n      dup2\n      mstore\n      0x20\n      add\n      0x00\n      keccak256\n        /* \"contracts/Store.sol\":2228:2264  productsPurchases[id][clientAddress] */\n      0x00\n        /* \"contracts/Store.sol\":2250:2263  clientAddress */\n      dup6\n        /* \"contracts/Store.sol\":2228:2264  productsPurchases[id][clientAddress] */\n      0xffffffffffffffffffffffffffffffffffffffff\n      and\n      0xffffffffffffffffffffffffffffffffffffffff\n      and\n      dup2\n      mstore\n      0x20\n      add\n      swap1\n      dup2\n      mstore\n      0x20\n      add\n      0x00\n      keccak256\n        /* \"contracts/Store.sol\":2228:2275  productsPurchases[id][clientAddress] = quantity */\n      dup2\n      swap1\n      sstore\n      pop\n        /* \"contracts/Store.sol\":2371:2379  quantity */\n      dup5\n        /* \"contracts/Store.sol\":2344:2358  currentProduct */\n      dup3\n        /* \"contracts/Store.sol\":2344:2367  currentProduct.quantity */\n      0x02\n      add\n      0x00\n        /* \"contracts/Store.sol\":2344:2379  currentProduct.quantity -= quantity */\n      dup3\n      dup3\n      sload\n      tag_99\n      swap2\n      swap1\n      tag_100\n      jump\t// in\n    tag_99:\n      swap3\n      pop\n      pop\n      dup2\n      swap1\n      sstore\n      pop\n        /* \"contracts/Store.sol\":1367:2387  {\r... */\n      pop\n      pop\n      pop\n        /* \"contracts/Store.sol\":1284:2387  function buyProduct(uint id, uint quantity) payable public onlyExistingProduct(id) {\r... */\n      pop\n      pop\n      pop\n      jump\t// out\n        /* \"contracts/Store.sol\":242:267  Product[] public products */\n    tag_31:\n      0x01\n      dup2\n      dup2\n      sload\n      dup2\n      lt\n      tag_101\n      jumpi\n      0x00\n      dup1\n      revert\n    tag_101:\n      swap1\n      0x00\n      mstore\n      keccak256(0x00, 0x20)\n      swap1\n      0x04\n      mul\n      add\n      0x00\n      swap2\n      pop\n      swap1\n      pop\n      dup1\n      0x00\n      add\n      sload\n      swap1\n      dup1\n      0x01\n      add\n      dup1\n      sload\n      tag_103\n      swap1\n      tag_104\n      jump\t// in\n    tag_103:\n      dup1\n      0x1f\n      add\n      0x20\n      dup1\n      swap2\n      div\n      mul\n      0x20\n      add\n      mload(0x40)\n      swap1\n      dup2\n      add\n      0x40\n      mstore\n      dup1\n      swap3\n      swap2\n      swap1\n      dup2\n      dup2\n      mstore\n      0x20\n      add\n      dup3\n      dup1\n      sload\n      tag_105\n      swap1\n      tag_104\n      jump\t// in\n    tag_105:\n      dup1\n      iszero\n      tag_106\n      jumpi\n      dup1\n      0x1f\n      lt\n      tag_107\n      jumpi\n      0x0100\n      dup1\n      dup4\n      sload\n      div\n      mul\n      dup4\n      mstore\n      swap2\n      0x20\n      add\n      swap2\n      jump(tag_106)\n    tag_107:\n      dup3\n      add\n      swap2\n      swap1\n      0x00\n      mstore\n      keccak256(0x00, 0x20)\n      swap1\n    tag_108:\n      dup2\n      sload\n      dup2\n      mstore\n      swap1\n      0x01\n      add\n      swap1\n      0x20\n      add\n      dup1\n      dup4\n      gt\n      tag_108\n      jumpi\n      dup3\n      swap1\n      sub\n      0x1f\n      and\n      dup3\n      add\n      swap2\n    tag_106:\n      pop\n      pop\n      pop\n      pop\n      pop\n      swap1\n      dup1\n      0x02\n      add\n      sload\n      swap1\n      dup1\n      0x03\n      add\n      sload\n      swap1\n      pop\n      dup5\n      jump\t// out\n        /* \"contracts/Ownable.sol\":90:110  address public owner */\n    tag_36:\n      0x00\n      dup1\n      sload\n      swap1\n      0x0100\n      exp\n      swap1\n      div\n      0xffffffffffffffffffffffffffffffffffffffff\n      and\n      dup2\n      jump\t// out\n        /* \"contracts/Store.sol\":1181:1276  function getProducts() public view returns(Product[] memory) {\r... */\n    tag_41:\n        /* \"contracts/Store.sol\":1224:1240  Product[] memory */\n      0x60\n        /* \"contracts/Store.sol\":1260:1268  products */\n      0x01\n        /* \"contracts/Store.sol\":1253:1268  return products */\n      dup1\n      sload\n      dup1\n      0x20\n      mul\n      0x20\n      add\n      mload(0x40)\n      swap1\n      dup2\n      add\n      0x40\n      mstore\n      dup1\n      swap3\n      swap2\n      swap1\n      dup2\n      dup2\n      mstore\n      0x20\n      add\n      0x00\n      swap1\n    tag_110:\n      dup3\n      dup3\n      lt\n      iszero\n      tag_111\n      jumpi\n      dup4\n      dup3\n      swap1\n      0x00\n      mstore\n      keccak256(0x00, 0x20)\n      swap1\n      0x04\n      mul\n      add\n      mload(0x40)\n      dup1\n      0x80\n      add\n      0x40\n      mstore\n      swap1\n      dup2\n      0x00\n      dup3\n      add\n      sload\n      dup2\n      mstore\n      0x20\n      add\n      0x01\n      dup3\n      add\n      dup1\n      sload\n      tag_113\n      swap1\n      tag_104\n      jump\t// in\n    tag_113:\n      dup1\n      0x1f\n      add\n      0x20\n      dup1\n      swap2\n      div\n      mul\n      0x20\n      add\n      mload(0x40)\n      swap1\n      dup2\n      add\n      0x40\n      mstore\n      dup1\n      swap3\n      swap2\n      swap1\n      dup2\n      dup2\n      mstore\n      0x20\n      add\n      dup3\n      dup1\n      sload\n      tag_114\n      swap1\n      tag_104\n      jump\t// in\n    tag_114:\n      dup1\n      iszero\n      tag_115\n      jumpi\n      dup1\n      0x1f\n      lt\n      tag_116\n      jumpi\n      0x0100\n      dup1\n      dup4\n      sload\n      div\n      mul\n      dup4\n      mstore\n      swap2\n      0x20\n      add\n      swap2\n      jump(tag_115)\n    tag_116:\n      dup3\n      add\n      swap2\n      swap1\n      0x00\n      mstore\n      keccak256(0x00, 0x20)\n      swap1\n    tag_117:\n      dup2\n      sload\n      dup2\n      mstore\n      swap1\n      0x01\n      add\n      swap1\n      0x20\n      add\n      dup1\n      dup4\n      gt\n      tag_117\n      jumpi\n      dup3\n      swap1\n      sub\n      0x1f\n      and\n      dup3\n      add\n      swap2\n    tag_115:\n      pop\n      pop\n      pop\n      pop\n      pop\n      dup2\n      mstore\n      0x20\n      add\n      0x02\n      dup3\n      add\n      sload\n      dup2\n      mstore\n      0x20\n      add\n      0x03\n      dup3\n      add\n      sload\n      dup2\n      mstore\n      pop\n      pop\n      dup2\n      mstore\n      0x20\n      add\n      swap1\n      0x01\n      add\n      swap1\n      jump(tag_110)\n    tag_111:\n      pop\n      pop\n      pop\n      pop\n      swap1\n      pop\n        /* \"contracts/Store.sol\":1181:1276  function getProducts() public view returns(Product[] memory) {\r... */\n      swap1\n      jump\t// out\n        /* \"contracts/Store.sol\":395:461  mapping(uint => mapping(address => uint)) public productsPurchases */\n    tag_48:\n      mstore(0x20, 0x03)\n      dup2\n      0x00\n      mstore\n      mstore(0x20, keccak256(0x00, 0x40))\n      dup1\n      0x00\n      mstore\n      keccak256(0x00, 0x40)\n      0x00\n      swap2\n      pop\n      swap2\n      pop\n      pop\n      sload\n      dup2\n      jump\t// out\n        /* \"contracts/Store.sol\":1026:1173  function updateProductQuantity(uint id, uint quantity) public onlyOwner onlyExistingProduct(id) {\r... */\n    tag_54:\n        /* \"contracts/Ownable.sol\":236:241  owner */\n      0x00\n      dup1\n      sload\n      swap1\n      0x0100\n      exp\n      swap1\n      div\n      0xffffffffffffffffffffffffffffffffffffffff\n      and\n        /* \"contracts/Ownable.sol\":222:241  msg.sender == owner */\n      0xffffffffffffffffffffffffffffffffffffffff\n      and\n        /* \"contracts/Ownable.sol\":222:232  msg.sender */\n      caller\n        /* \"contracts/Ownable.sol\":222:241  msg.sender == owner */\n      0xffffffffffffffffffffffffffffffffffffffff\n      and\n      eq\n        /* \"contracts/Ownable.sol\":214:268  require(msg.sender == owner, \"You are not the owner!\") */\n      tag_119\n      jumpi\n      mload(0x40)\n      0x08c379a000000000000000000000000000000000000000000000000000000000\n      dup2\n      mstore\n      0x04\n      add\n      tag_120\n      swap1\n      tag_58\n      jump\t// in\n    tag_120:\n      mload(0x40)\n      dup1\n      swap2\n      sub\n      swap1\n      revert\n    tag_119:\n        /* \"contracts/Store.sol\":1118:1120  id */\n      dup2\n        /* \"contracts/Store.sol\":950:958  products */\n      0x01\n        /* \"contracts/Store.sol\":950:965  products.length */\n      dup1\n      sload\n      swap1\n      pop\n        /* \"contracts/Store.sol\":945:947  id */\n      dup2\n        /* \"contracts/Store.sol\":945:965  id < products.length */\n      lt\n        /* \"contracts/Store.sol\":937:998  require(id < products.length, \"The product is not existing!\") */\n      tag_122\n      jumpi\n      mload(0x40)\n      0x08c379a000000000000000000000000000000000000000000000000000000000\n      dup2\n      mstore\n      0x04\n      add\n      tag_123\n      swap1\n      tag_74\n      jump\t// in\n    tag_123:\n      mload(0x40)\n      dup1\n      swap2\n      sub\n      swap1\n      revert\n    tag_122:\n        /* \"contracts/Store.sol\":1157:1165  quantity */\n      dup2\n        /* \"contracts/Store.sol\":1133:1141  products */\n      0x01\n        /* \"contracts/Store.sol\":1142:1144  id */\n      dup5\n        /* \"contracts/Store.sol\":1133:1145  products[id] */\n      dup2\n      sload\n      dup2\n      lt\n      tag_125\n      jumpi\n      tag_126\n      tag_84\n      jump\t// in\n    tag_126:\n    tag_125:\n      swap1\n      0x00\n      mstore\n      keccak256(0x00, 0x20)\n      swap1\n      0x04\n      mul\n      add\n        /* \"contracts/Store.sol\":1133:1154  products[id].quantity */\n      0x02\n      add\n        /* \"contracts/Store.sol\":1133:1165  products[id].quantity = quantity */\n      dup2\n      swap1\n      sstore\n      pop\n        /* \"contracts/Ownable.sol\":279:280  _ */\n      pop\n        /* \"contracts/Store.sol\":1026:1173  function updateProductQuantity(uint id, uint quantity) public onlyOwner onlyExistingProduct(id) {\r... */\n      pop\n      pop\n      jump\t// out\n    tag_70:\n      dup3\n      dup1\n      sload\n      tag_128\n      swap1\n      tag_104\n      jump\t// in\n    tag_128:\n      swap1\n      0x00\n      mstore\n      keccak256(0x00, 0x20)\n      swap1\n      0x1f\n      add\n      0x20\n      swap1\n      div\n      dup2\n      add\n      swap3\n      dup3\n      tag_130\n      jumpi\n      0x00\n      dup6\n      sstore\n      jump(tag_129)\n    tag_130:\n      dup3\n      0x1f\n      lt\n      tag_131\n      jumpi\n      dup1\n      mload\n      not(0xff)\n      and\n      dup4\n      dup1\n      add\n      or\n      dup6\n      sstore\n      jump(tag_129)\n    tag_131:\n      dup3\n      dup1\n      add\n      0x01\n      add\n      dup6\n      sstore\n      dup3\n      iszero\n      tag_129\n      jumpi\n      swap2\n      dup3\n      add\n    tag_132:\n      dup3\n      dup2\n      gt\n      iszero\n      tag_133\n      jumpi\n      dup3\n      mload\n      dup3\n      sstore\n      swap2\n      0x20\n      add\n      swap2\n      swap1\n      0x01\n      add\n      swap1\n      jump(tag_132)\n    tag_133:\n    tag_129:\n      pop\n      swap1\n      pop\n      tag_134\n      swap2\n      swap1\n      tag_135\n      jump\t// in\n    tag_134:\n      pop\n      swap1\n      jump\t// out\n    tag_135:\n    tag_136:\n      dup1\n      dup3\n      gt\n      iszero\n      tag_137\n      jumpi\n      0x00\n      dup2\n      0x00\n      swap1\n      sstore\n      pop\n      0x01\n      add\n      jump(tag_136)\n    tag_137:\n      pop\n      swap1\n      jump\t// out\n        /* \"#utility.yul\":7:419   */\n    tag_139:\n        /* \"#utility.yul\":85:90   */\n      0x00\n        /* \"#utility.yul\":110:176   */\n      tag_141\n        /* \"#utility.yul\":126:175   */\n      tag_142\n        /* \"#utility.yul\":168:174   */\n      dup5\n        /* \"#utility.yul\":126:175   */\n      tag_143\n      jump\t// in\n    tag_142:\n        /* \"#utility.yul\":110:176   */\n      tag_144\n      jump\t// in\n    tag_141:\n        /* \"#utility.yul\":101:176   */\n      swap1\n      pop\n        /* \"#utility.yul\":199:205   */\n      dup3\n        /* \"#utility.yul\":192:197   */\n      dup2\n        /* \"#utility.yul\":185:206   */\n      mstore\n        /* \"#utility.yul\":237:241   */\n      0x20\n        /* \"#utility.yul\":230:235   */\n      dup2\n        /* \"#utility.yul\":226:242   */\n      add\n        /* \"#utility.yul\":275:278   */\n      dup5\n        /* \"#utility.yul\":266:272   */\n      dup5\n        /* \"#utility.yul\":261:264   */\n      dup5\n        /* \"#utility.yul\":257:273   */\n      add\n        /* \"#utility.yul\":254:279   */\n      gt\n        /* \"#utility.yul\":251:363   */\n      iszero\n      tag_145\n      jumpi\n        /* \"#utility.yul\":282:361   */\n      tag_146\n      tag_147\n      jump\t// in\n    tag_146:\n        /* \"#utility.yul\":251:363   */\n    tag_145:\n        /* \"#utility.yul\":372:413   */\n      tag_148\n        /* \"#utility.yul\":406:412   */\n      dup5\n        /* \"#utility.yul\":401:404   */\n      dup3\n        /* \"#utility.yul\":396:399   */\n      dup6\n        /* \"#utility.yul\":372:413   */\n      tag_149\n      jump\t// in\n    tag_148:\n        /* \"#utility.yul\":91:419   */\n      pop\n        /* \"#utility.yul\":7:419   */\n      swap4\n      swap3\n      pop\n      pop\n      pop\n      jump\t// out\n        /* \"#utility.yul\":425:564   */\n    tag_150:\n        /* \"#utility.yul\":471:476   */\n      0x00\n        /* \"#utility.yul\":509:515   */\n      dup2\n        /* \"#utility.yul\":496:516   */\n      calldataload\n        /* \"#utility.yul\":487:516   */\n      swap1\n      pop\n        /* \"#utility.yul\":525:558   */\n      tag_152\n        /* \"#utility.yul\":552:557   */\n      dup2\n        /* \"#utility.yul\":525:558   */\n      tag_153\n      jump\t// in\n    tag_152:\n        /* \"#utility.yul\":425:564   */\n      swap3\n      swap2\n      pop\n      pop\n      jump\t// out\n        /* \"#utility.yul\":584:1137   */\n    tag_154:\n        /* \"#utility.yul\":642:650   */\n      0x00\n        /* \"#utility.yul\":652:658   */\n      dup1\n        /* \"#utility.yul\":702:705   */\n      dup4\n        /* \"#utility.yul\":695:699   */\n      0x1f\n        /* \"#utility.yul\":687:693   */\n      dup5\n        /* \"#utility.yul\":683:700   */\n      add\n        /* \"#utility.yul\":679:706   */\n      slt\n        /* \"#utility.yul\":669:791   */\n      tag_156\n      jumpi\n        /* \"#utility.yul\":710:789   */\n      tag_157\n      tag_158\n      jump\t// in\n    tag_157:\n        /* \"#utility.yul\":669:791   */\n    tag_156:\n        /* \"#utility.yul\":823:829   */\n      dup3\n        /* \"#utility.yul\":810:830   */\n      calldataload\n        /* \"#utility.yul\":800:830   */\n      swap1\n      pop\n        /* \"#utility.yul\":853:871   */\n      0xffffffffffffffff\n        /* \"#utility.yul\":845:851   */\n      dup2\n        /* \"#utility.yul\":842:872   */\n      gt\n        /* \"#utility.yul\":839:956   */\n      iszero\n      tag_159\n      jumpi\n        /* \"#utility.yul\":875:954   */\n      tag_160\n      tag_161\n      jump\t// in\n    tag_160:\n        /* \"#utility.yul\":839:956   */\n    tag_159:\n        /* \"#utility.yul\":989:993   */\n      0x20\n        /* \"#utility.yul\":981:987   */\n      dup4\n        /* \"#utility.yul\":977:994   */\n      add\n        /* \"#utility.yul\":965:994   */\n      swap2\n      pop\n        /* \"#utility.yul\":1043:1046   */\n      dup4\n        /* \"#utility.yul\":1035:1039   */\n      0x01\n        /* \"#utility.yul\":1027:1033   */\n      dup3\n        /* \"#utility.yul\":1023:1040   */\n      mul\n        /* \"#utility.yul\":1013:1021   */\n      dup4\n        /* \"#utility.yul\":1009:1041   */\n      add\n        /* \"#utility.yul\":1006:1047   */\n      gt\n        /* \"#utility.yul\":1003:1131   */\n      iszero\n      tag_162\n      jumpi\n        /* \"#utility.yul\":1050:1129   */\n      tag_163\n      tag_164\n      jump\t// in\n    tag_163:\n        /* \"#utility.yul\":1003:1131   */\n    tag_162:\n        /* \"#utility.yul\":584:1137   */\n      swap3\n      pop\n      swap3\n      swap1\n      pop\n      jump\t// out\n        /* \"#utility.yul\":1157:1497   */\n    tag_165:\n        /* \"#utility.yul\":1213:1218   */\n      0x00\n        /* \"#utility.yul\":1262:1265   */\n      dup3\n        /* \"#utility.yul\":1255:1259   */\n      0x1f\n        /* \"#utility.yul\":1247:1253   */\n      dup4\n        /* \"#utility.yul\":1243:1260   */\n      add\n        /* \"#utility.yul\":1239:1266   */\n      slt\n        /* \"#utility.yul\":1229:1351   */\n      tag_167\n      jumpi\n        /* \"#utility.yul\":1270:1349   */\n      tag_168\n      tag_158\n      jump\t// in\n    tag_168:\n        /* \"#utility.yul\":1229:1351   */\n    tag_167:\n        /* \"#utility.yul\":1387:1393   */\n      dup2\n        /* \"#utility.yul\":1374:1394   */\n      calldataload\n        /* \"#utility.yul\":1412:1491   */\n      tag_169\n        /* \"#utility.yul\":1487:1490   */\n      dup5\n        /* \"#utility.yul\":1479:1485   */\n      dup3\n        /* \"#utility.yul\":1472:1476   */\n      0x20\n        /* \"#utility.yul\":1464:1470   */\n      dup7\n        /* \"#utility.yul\":1460:1477   */\n      add\n        /* \"#utility.yul\":1412:1491   */\n      tag_139\n      jump\t// in\n    tag_169:\n        /* \"#utility.yul\":1403:1491   */\n      swap2\n      pop\n        /* \"#utility.yul\":1219:1497   */\n      pop\n        /* \"#utility.yul\":1157:1497   */\n      swap3\n      swap2\n      pop\n      pop\n      jump\t// out\n        /* \"#utility.yul\":1503:1642   */\n    tag_170:\n        /* \"#utility.yul\":1549:1554   */\n      0x00\n        /* \"#utility.yul\":1587:1593   */\n      dup2\n        /* \"#utility.yul\":1574:1594   */\n      calldataload\n        /* \"#utility.yul\":1565:1594   */\n      swap1\n      pop\n        /* \"#utility.yul\":1603:1636   */\n      tag_172\n        /* \"#utility.yul\":1630:1635   */\n      dup2\n        /* \"#utility.yul\":1603:1636   */\n      tag_173\n      jump\t// in\n    tag_172:\n        /* \"#utility.yul\":1503:1642   */\n      swap3\n      swap2\n      pop\n      pop\n      jump\t// out\n        /* \"#utility.yul\":1648:2467   */\n    tag_14:\n        /* \"#utility.yul\":1737:1743   */\n      0x00\n        /* \"#utility.yul\":1745:1751   */\n      dup1\n        /* \"#utility.yul\":1753:1759   */\n      0x00\n        /* \"#utility.yul\":1761:1767   */\n      dup1\n        /* \"#utility.yul\":1810:1812   */\n      0x60\n        /* \"#utility.yul\":1798:1807   */\n      dup6\n        /* \"#utility.yul\":1789:1796   */\n      dup8\n        /* \"#utility.yul\":1785:1808   */\n      sub\n        /* \"#utility.yul\":1781:1813   */\n      slt\n        /* \"#utility.yul\":1778:1897   */\n      iszero\n      tag_175\n      jumpi\n        /* \"#utility.yul\":1816:1895   */\n      tag_176\n      tag_177\n      jump\t// in\n    tag_176:\n        /* \"#utility.yul\":1778:1897   */\n    tag_175:\n        /* \"#utility.yul\":1964:1965   */\n      0x00\n        /* \"#utility.yul\":1953:1962   */\n      dup6\n        /* \"#utility.yul\":1949:1966   */\n      add\n        /* \"#utility.yul\":1936:1967   */\n      calldataload\n        /* \"#utility.yul\":1994:2012   */\n      0xffffffffffffffff\n        /* \"#utility.yul\":1986:1992   */\n      dup2\n        /* \"#utility.yul\":1983:2013   */\n      gt\n        /* \"#utility.yul\":1980:2097   */\n      iszero\n      tag_178\n      jumpi\n        /* \"#utility.yul\":2016:2095   */\n      tag_179\n      tag_180\n      jump\t// in\n    tag_179:\n        /* \"#utility.yul\":1980:2097   */\n    tag_178:\n        /* \"#utility.yul\":2129:2194   */\n      tag_181\n        /* \"#utility.yul\":2186:2193   */\n      dup8\n        /* \"#utility.yul\":2177:2183   */\n      dup3\n        /* \"#utility.yul\":2166:2175   */\n      dup9\n        /* \"#utility.yul\":2162:2184   */\n      add\n        /* \"#utility.yul\":2129:2194   */\n      tag_154\n      jump\t// in\n    tag_181:\n        /* \"#utility.yul\":2111:2194   */\n      swap5\n      pop\n      swap5\n      pop\n        /* \"#utility.yul\":1907:2204   */\n      pop\n        /* \"#utility.yul\":2243:2245   */\n      0x20\n        /* \"#utility.yul\":2269:2322   */\n      tag_182\n        /* \"#utility.yul\":2314:2321   */\n      dup8\n        /* \"#utility.yul\":2305:2311   */\n      dup3\n        /* \"#utility.yul\":2294:2303   */\n      dup9\n        /* \"#utility.yul\":2290:2312   */\n      add\n        /* \"#utility.yul\":2269:2322   */\n      tag_170\n      jump\t// in\n    tag_182:\n        /* \"#utility.yul\":2259:2322   */\n      swap3\n      pop\n        /* \"#utility.yul\":2214:2332   */\n      pop\n        /* \"#utility.yul\":2371:2373   */\n      0x40\n        /* \"#utility.yul\":2397:2450   */\n      tag_183\n        /* \"#utility.yul\":2442:2449   */\n      dup8\n        /* \"#utility.yul\":2433:2439   */\n      dup3\n        /* \"#utility.yul\":2422:2431   */\n      dup9\n        /* \"#utility.yul\":2418:2440   */\n      add\n        /* \"#utility.yul\":2397:2450   */\n      tag_170\n      jump\t// in\n    tag_183:\n        /* \"#utility.yul\":2387:2450   */\n      swap2\n      pop\n        /* \"#utility.yul\":2342:2460   */\n      pop\n        /* \"#utility.yul\":1648:2467   */\n      swap3\n      swap6\n      swap2\n      swap5\n      pop\n      swap3\n      pop\n      jump\t// out\n        /* \"#utility.yul\":2473:2982   */\n    tag_19:\n        /* \"#utility.yul\":2542:2548   */\n      0x00\n        /* \"#utility.yul\":2591:2593   */\n      0x20\n        /* \"#utility.yul\":2579:2588   */\n      dup3\n        /* \"#utility.yul\":2570:2577   */\n      dup5\n        /* \"#utility.yul\":2566:2589   */\n      sub\n        /* \"#utility.yul\":2562:2594   */\n      slt\n        /* \"#utility.yul\":2559:2678   */\n      iszero\n      tag_185\n      jumpi\n        /* \"#utility.yul\":2597:2676   */\n      tag_186\n      tag_177\n      jump\t// in\n    tag_186:\n        /* \"#utility.yul\":2559:2678   */\n    tag_185:\n        /* \"#utility.yul\":2745:2746   */\n      0x00\n        /* \"#utility.yul\":2734:2743   */\n      dup3\n        /* \"#utility.yul\":2730:2747   */\n      add\n        /* \"#utility.yul\":2717:2748   */\n      calldataload\n        /* \"#utility.yul\":2775:2793   */\n      0xffffffffffffffff\n        /* \"#utility.yul\":2767:2773   */\n      dup2\n        /* \"#utility.yul\":2764:2794   */\n      gt\n        /* \"#utility.yul\":2761:2878   */\n      iszero\n      tag_187\n      jumpi\n        /* \"#utility.yul\":2797:2876   */\n      tag_188\n      tag_180\n      jump\t// in\n    tag_188:\n        /* \"#utility.yul\":2761:2878   */\n    tag_187:\n        /* \"#utility.yul\":2902:2965   */\n      tag_189\n        /* \"#utility.yul\":2957:2964   */\n      dup5\n        /* \"#utility.yul\":2948:2954   */\n      dup3\n        /* \"#utility.yul\":2937:2946   */\n      dup6\n        /* \"#utility.yul\":2933:2955   */\n      add\n        /* \"#utility.yul\":2902:2965   */\n      tag_165\n      jump\t// in\n    tag_189:\n        /* \"#utility.yul\":2892:2965   */\n      swap2\n      pop\n        /* \"#utility.yul\":2688:2975   */\n      pop\n        /* \"#utility.yul\":2473:2982   */\n      swap3\n      swap2\n      pop\n      pop\n      jump\t// out\n        /* \"#utility.yul\":2988:3317   */\n    tag_30:\n        /* \"#utility.yul\":3047:3053   */\n      0x00\n        /* \"#utility.yul\":3096:3098   */\n      0x20\n        /* \"#utility.yul\":3084:3093   */\n      dup3\n        /* \"#utility.yul\":3075:3082   */\n      dup5\n        /* \"#utility.yul\":3071:3094   */\n      sub\n        /* \"#utility.yul\":3067:3099   */\n      slt\n        /* \"#utility.yul\":3064:3183   */\n      iszero\n      tag_191\n      jumpi\n        /* \"#utility.yul\":3102:3181   */\n      tag_192\n      tag_177\n      jump\t// in\n    tag_192:\n        /* \"#utility.yul\":3064:3183   */\n    tag_191:\n        /* \"#utility.yul\":3222:3223   */\n      0x00\n        /* \"#utility.yul\":3247:3300   */\n      tag_193\n        /* \"#utility.yul\":3292:3299   */\n      dup5\n        /* \"#utility.yul\":3283:3289   */\n      dup3\n        /* \"#utility.yul\":3272:3281   */\n      dup6\n        /* \"#utility.yul\":3268:3290   */\n      add\n        /* \"#utility.yul\":3247:3300   */\n      tag_170\n      jump\t// in\n    tag_193:\n        /* \"#utility.yul\":3237:3300   */\n      swap2\n      pop\n        /* \"#utility.yul\":3193:3310   */\n      pop\n        /* \"#utility.yul\":2988:3317   */\n      swap3\n      swap2\n      pop\n      pop\n      jump\t// out\n        /* \"#utility.yul\":3323:3797   */\n    tag_47:\n        /* \"#utility.yul\":3391:3397   */\n      0x00\n        /* \"#utility.yul\":3399:3405   */\n      dup1\n        /* \"#utility.yul\":3448:3450   */\n      0x40\n        /* \"#utility.yul\":3436:3445   */\n      dup4\n        /* \"#utility.yul\":3427:3434   */\n      dup6\n        /* \"#utility.yul\":3423:3446   */\n      sub\n        /* \"#utility.yul\":3419:3451   */\n      slt\n        /* \"#utility.yul\":3416:3535   */\n      iszero\n      tag_195\n      jumpi\n        /* \"#utility.yul\":3454:3533   */\n      tag_196\n      tag_177\n      jump\t// in\n    tag_196:\n        /* \"#utility.yul\":3416:3535   */\n    tag_195:\n        /* \"#utility.yul\":3574:3575   */\n      0x00\n        /* \"#utility.yul\":3599:3652   */\n      tag_197\n        /* \"#utility.yul\":3644:3651   */\n      dup6\n        /* \"#utility.yul\":3635:3641   */\n      dup3\n        /* \"#utility.yul\":3624:3633   */\n      dup7\n        /* \"#utility.yul\":3620:3642   */\n      add\n        /* \"#utility.yul\":3599:3652   */\n      tag_170\n      jump\t// in\n    tag_197:\n        /* \"#utility.yul\":3589:3652   */\n      swap3\n      pop\n        /* \"#utility.yul\":3545:3662   */\n      pop\n        /* \"#utility.yul\":3701:3703   */\n      0x20\n        /* \"#utility.yul\":3727:3780   */\n      tag_198\n        /* \"#utility.yul\":3772:3779   */\n      dup6\n        /* \"#utility.yul\":3763:3769   */\n      dup3\n        /* \"#utility.yul\":3752:3761   */\n      dup7\n        /* \"#utility.yul\":3748:3770   */\n      add\n        /* \"#utility.yul\":3727:3780   */\n      tag_150\n      jump\t// in\n    tag_198:\n        /* \"#utility.yul\":3717:3780   */\n      swap2\n      pop\n        /* \"#utility.yul\":3672:3790   */\n      pop\n        /* \"#utility.yul\":3323:3797   */\n      swap3\n      pop\n      swap3\n      swap1\n      pop\n      jump\t// out\n        /* \"#utility.yul\":3803:4277   */\n    tag_25:\n        /* \"#utility.yul\":3871:3877   */\n      0x00\n        /* \"#utility.yul\":3879:3885   */\n      dup1\n        /* \"#utility.yul\":3928:3930   */\n      0x40\n        /* \"#utility.yul\":3916:3925   */\n      dup4\n        /* \"#utility.yul\":3907:3914   */\n      dup6\n        /* \"#utility.yul\":3903:3926   */\n      sub\n        /* \"#utility.yul\":3899:3931   */\n      slt\n        /* \"#utility.yul\":3896:4015   */\n      iszero\n      tag_200\n      jumpi\n        /* \"#utility.yul\":3934:4013   */\n      tag_201\n      tag_177\n      jump\t// in\n    tag_201:\n        /* \"#utility.yul\":3896:4015   */\n    tag_200:\n        /* \"#utility.yul\":4054:4055   */\n      0x00\n        /* \"#utility.yul\":4079:4132   */\n      tag_202\n        /* \"#utility.yul\":4124:4131   */\n      dup6\n        /* \"#utility.yul\":4115:4121   */\n      dup3\n        /* \"#utility.yul\":4104:4113   */\n      dup7\n        /* \"#utility.yul\":4100:4122   */\n      add\n        /* \"#utility.yul\":4079:4132   */\n      tag_170\n      jump\t// in\n    tag_202:\n        /* \"#utility.yul\":4069:4132   */\n      swap3\n      pop\n        /* \"#utility.yul\":4025:4142   */\n      pop\n        /* \"#utility.yul\":4181:4183   */\n      0x20\n        /* \"#utility.yul\":4207:4260   */\n      tag_203\n        /* \"#utility.yul\":4252:4259   */\n      dup6\n        /* \"#utility.yul\":4243:4249   */\n      dup3\n        /* \"#utility.yul\":4232:4241   */\n      dup7\n        /* \"#utility.yul\":4228:4250   */\n      add\n        /* \"#utility.yul\":4207:4260   */\n      tag_170\n      jump\t// in\n    tag_203:\n        /* \"#utility.yul\":4197:4260   */\n      swap2\n      pop\n        /* \"#utility.yul\":4152:4270   */\n      pop\n        /* \"#utility.yul\":3803:4277   */\n      swap3\n      pop\n      swap3\n      swap1\n      pop\n      jump\t// out\n        /* \"#utility.yul\":4283:4531   */\n    tag_204:\n        /* \"#utility.yul\":4398:4408   */\n      0x00\n        /* \"#utility.yul\":4433:4525   */\n      tag_206\n        /* \"#utility.yul\":4521:4524   */\n      dup4\n        /* \"#utility.yul\":4513:4519   */\n      dup4\n        /* \"#utility.yul\":4433:4525   */\n      tag_207\n      jump\t// in\n    tag_206:\n        /* \"#utility.yul\":4419:4525   */\n      swap1\n      pop\n        /* \"#utility.yul\":4283:4531   */\n      swap3\n      swap2\n      pop\n      pop\n      jump\t// out\n        /* \"#utility.yul\":4537:4655   */\n    tag_208:\n        /* \"#utility.yul\":4624:4648   */\n      tag_210\n        /* \"#utility.yul\":4642:4647   */\n      dup2\n        /* \"#utility.yul\":4624:4648   */\n      tag_211\n      jump\t// in\n    tag_210:\n        /* \"#utility.yul\":4619:4622   */\n      dup3\n        /* \"#utility.yul\":4612:4649   */\n      mstore\n        /* \"#utility.yul\":4537:4655   */\n      pop\n      pop\n      jump\t// out\n        /* \"#utility.yul\":4717:5812   */\n    tag_212:\n        /* \"#utility.yul\":4882:4885   */\n      0x00\n        /* \"#utility.yul\":4911:4988   */\n      tag_214\n        /* \"#utility.yul\":4982:4987   */\n      dup3\n        /* \"#utility.yul\":4911:4988   */\n      tag_215\n      jump\t// in\n    tag_214:\n        /* \"#utility.yul\":5004:5113   */\n      tag_216\n        /* \"#utility.yul\":5106:5112   */\n      dup2\n        /* \"#utility.yul\":5101:5104   */\n      dup6\n        /* \"#utility.yul\":5004:5113   */\n      tag_217\n      jump\t// in\n    tag_216:\n        /* \"#utility.yul\":4997:5113   */\n      swap4\n      pop\n        /* \"#utility.yul\":5139:5142   */\n      dup4\n        /* \"#utility.yul\":5184:5188   */\n      0x20\n        /* \"#utility.yul\":5176:5182   */\n      dup3\n        /* \"#utility.yul\":5172:5189   */\n      mul\n        /* \"#utility.yul\":5167:5170   */\n      dup6\n        /* \"#utility.yul\":5163:5190   */\n      add\n        /* \"#utility.yul\":5214:5293   */\n      tag_218\n        /* \"#utility.yul\":5287:5292   */\n      dup6\n        /* \"#utility.yul\":5214:5293   */\n      tag_219\n      jump\t// in\n    tag_218:\n        /* \"#utility.yul\":5316:5323   */\n      dup1\n        /* \"#utility.yul\":5347:5348   */\n      0x00\n        /* \"#utility.yul\":5332:5767   */\n    tag_220:\n        /* \"#utility.yul\":5357:5363   */\n      dup6\n        /* \"#utility.yul\":5354:5355   */\n      dup2\n        /* \"#utility.yul\":5351:5364   */\n      lt\n        /* \"#utility.yul\":5332:5767   */\n      iszero\n      tag_222\n      jumpi\n        /* \"#utility.yul\":5428:5437   */\n      dup5\n        /* \"#utility.yul\":5422:5426   */\n      dup5\n        /* \"#utility.yul\":5418:5438   */\n      sub\n        /* \"#utility.yul\":5413:5416   */\n      dup10\n        /* \"#utility.yul\":5406:5439   */\n      mstore\n        /* \"#utility.yul\":5479:5485   */\n      dup2\n        /* \"#utility.yul\":5473:5486   */\n      mload\n        /* \"#utility.yul\":5507:5617   */\n      tag_223\n        /* \"#utility.yul\":5612:5616   */\n      dup6\n        /* \"#utility.yul\":5597:5610   */\n      dup3\n        /* \"#utility.yul\":5507:5617   */\n      tag_204\n      jump\t// in\n    tag_223:\n        /* \"#utility.yul\":5499:5617   */\n      swap5\n      pop\n        /* \"#utility.yul\":5640:5723   */\n      tag_224\n        /* \"#utility.yul\":5716:5722   */\n      dup4\n        /* \"#utility.yul\":5640:5723   */\n      tag_225\n      jump\t// in\n    tag_224:\n        /* \"#utility.yul\":5630:5723   */\n      swap3\n      pop\n        /* \"#utility.yul\":5752:5756   */\n      0x20\n        /* \"#utility.yul\":5747:5750   */\n      dup11\n        /* \"#utility.yul\":5743:5757   */\n      add\n        /* \"#utility.yul\":5736:5757   */\n      swap10\n      pop\n        /* \"#utility.yul\":5392:5767   */\n      pop\n        /* \"#utility.yul\":5379:5380   */\n      0x01\n        /* \"#utility.yul\":5376:5377   */\n      dup2\n        /* \"#utility.yul\":5372:5381   */\n      add\n        /* \"#utility.yul\":5367:5381   */\n      swap1\n      pop\n        /* \"#utility.yul\":5332:5767   */\n      jump(tag_220)\n    tag_222:\n        /* \"#utility.yul\":5336:5350   */\n      pop\n        /* \"#utility.yul\":5783:5787   */\n      dup3\n        /* \"#utility.yul\":5776:5787   */\n      swap8\n      pop\n        /* \"#utility.yul\":5803:5806   */\n      dup8\n        /* \"#utility.yul\":5796:5806   */\n      swap6\n      pop\n        /* \"#utility.yul\":4887:5812   */\n      pop\n      pop\n      pop\n      pop\n      pop\n        /* \"#utility.yul\":4717:5812   */\n      swap3\n      swap2\n      pop\n      pop\n      jump\t// out\n        /* \"#utility.yul\":5818:5927   */\n    tag_226:\n        /* \"#utility.yul\":5899:5920   */\n      tag_228\n        /* \"#utility.yul\":5914:5919   */\n      dup2\n        /* \"#utility.yul\":5899:5920   */\n      tag_229\n      jump\t// in\n    tag_228:\n        /* \"#utility.yul\":5894:5897   */\n      dup3\n        /* \"#utility.yul\":5887:5921   */\n      mstore\n        /* \"#utility.yul\":5818:5927   */\n      pop\n      pop\n      jump\t// out\n        /* \"#utility.yul\":5957:6274   */\n    tag_230:\n        /* \"#utility.yul\":6073:6076   */\n      0x00\n        /* \"#utility.yul\":6094:6183   */\n      tag_232\n        /* \"#utility.yul\":6176:6182   */\n      dup4\n        /* \"#utility.yul\":6171:6174   */\n      dup6\n        /* \"#utility.yul\":6094:6183   */\n      tag_233\n      jump\t// in\n    tag_232:\n        /* \"#utility.yul\":6087:6183   */\n      swap4\n      pop\n        /* \"#utility.yul\":6193:6236   */\n      tag_234\n        /* \"#utility.yul\":6229:6235   */\n      dup4\n        /* \"#utility.yul\":6224:6227   */\n      dup6\n        /* \"#utility.yul\":6217:6222   */\n      dup5\n        /* \"#utility.yul\":6193:6236   */\n      tag_149\n      jump\t// in\n    tag_234:\n        /* \"#utility.yul\":6261:6267   */\n      dup3\n        /* \"#utility.yul\":6256:6259   */\n      dup5\n        /* \"#utility.yul\":6252:6268   */\n      add\n        /* \"#utility.yul\":6245:6268   */\n      swap1\n      pop\n        /* \"#utility.yul\":5957:6274   */\n      swap4\n      swap3\n      pop\n      pop\n      pop\n      jump\t// out\n        /* \"#utility.yul\":6280:6624   */\n    tag_235:\n        /* \"#utility.yul\":6358:6361   */\n      0x00\n        /* \"#utility.yul\":6386:6425   */\n      tag_237\n        /* \"#utility.yul\":6419:6424   */\n      dup3\n        /* \"#utility.yul\":6386:6425   */\n      tag_238\n      jump\t// in\n    tag_237:\n        /* \"#utility.yul\":6441:6502   */\n      tag_239\n        /* \"#utility.yul\":6495:6501   */\n      dup2\n        /* \"#utility.yul\":6490:6493   */\n      dup6\n        /* \"#utility.yul\":6441:6502   */\n      tag_240\n      jump\t// in\n    tag_239:\n        /* \"#utility.yul\":6434:6502   */\n      swap4\n      pop\n        /* \"#utility.yul\":6511:6563   */\n      tag_241\n        /* \"#utility.yul\":6556:6562   */\n      dup2\n        /* \"#utility.yul\":6551:6554   */\n      dup6\n        /* \"#utility.yul\":6544:6548   */\n      0x20\n        /* \"#utility.yul\":6537:6542   */\n      dup7\n        /* \"#utility.yul\":6533:6549   */\n      add\n        /* \"#utility.yul\":6511:6563   */\n      tag_242\n      jump\t// in\n    tag_241:\n        /* \"#utility.yul\":6588:6617   */\n      tag_243\n        /* \"#utility.yul\":6610:6616   */\n      dup2\n        /* \"#utility.yul\":6588:6617   */\n      tag_244\n      jump\t// in\n    tag_243:\n        /* \"#utility.yul\":6583:6586   */\n      dup5\n        /* \"#utility.yul\":6579:6618   */\n      add\n        /* \"#utility.yul\":6572:6618   */\n      swap2\n      pop\n        /* \"#utility.yul\":6362:6624   */\n      pop\n        /* \"#utility.yul\":6280:6624   */\n      swap3\n      swap2\n      pop\n      pop\n      jump\t// out\n        /* \"#utility.yul\":6630:6994   */\n    tag_245:\n        /* \"#utility.yul\":6718:6721   */\n      0x00\n        /* \"#utility.yul\":6746:6785   */\n      tag_247\n        /* \"#utility.yul\":6779:6784   */\n      dup3\n        /* \"#utility.yul\":6746:6785   */\n      tag_238\n      jump\t// in\n    tag_247:\n        /* \"#utility.yul\":6801:6872   */\n      tag_248\n        /* \"#utility.yul\":6865:6871   */\n      dup2\n        /* \"#utility.yul\":6860:6863   */\n      dup6\n        /* \"#utility.yul\":6801:6872   */\n      tag_249\n      jump\t// in\n    tag_248:\n        /* \"#utility.yul\":6794:6872   */\n      swap4\n      pop\n        /* \"#utility.yul\":6881:6933   */\n      tag_250\n        /* \"#utility.yul\":6926:6932   */\n      dup2\n        /* \"#utility.yul\":6921:6924   */\n      dup6\n        /* \"#utility.yul\":6914:6918   */\n      0x20\n        /* \"#utility.yul\":6907:6912   */\n      dup7\n        /* \"#utility.yul\":6903:6919   */\n      add\n        /* \"#utility.yul\":6881:6933   */\n      tag_242\n      jump\t// in\n    tag_250:\n        /* \"#utility.yul\":6958:6987   */\n      tag_251\n        /* \"#utility.yul\":6980:6986   */\n      dup2\n        /* \"#utility.yul\":6958:6987   */\n      tag_244\n      jump\t// in\n    tag_251:\n        /* \"#utility.yul\":6953:6956   */\n      dup5\n        /* \"#utility.yul\":6949:6988   */\n      add\n        /* \"#utility.yul\":6942:6988   */\n      swap2\n      pop\n        /* \"#utility.yul\":6722:6994   */\n      pop\n        /* \"#utility.yul\":6630:6994   */\n      swap3\n      swap2\n      pop\n      pop\n      jump\t// out\n        /* \"#utility.yul\":7000:7366   */\n    tag_252:\n        /* \"#utility.yul\":7142:7145   */\n      0x00\n        /* \"#utility.yul\":7163:7230   */\n      tag_254\n        /* \"#utility.yul\":7227:7229   */\n      0x16\n        /* \"#utility.yul\":7222:7225   */\n      dup4\n        /* \"#utility.yul\":7163:7230   */\n      tag_249\n      jump\t// in\n    tag_254:\n        /* \"#utility.yul\":7156:7230   */\n      swap2\n      pop\n        /* \"#utility.yul\":7239:7332   */\n      tag_255\n        /* \"#utility.yul\":7328:7331   */\n      dup3\n        /* \"#utility.yul\":7239:7332   */\n      tag_256\n      jump\t// in\n    tag_255:\n        /* \"#utility.yul\":7357:7359   */\n      0x20\n        /* \"#utility.yul\":7352:7355   */\n      dup3\n        /* \"#utility.yul\":7348:7360   */\n      add\n        /* \"#utility.yul\":7341:7360   */\n      swap1\n      pop\n        /* \"#utility.yul\":7000:7366   */\n      swap2\n      swap1\n      pop\n      jump\t// out\n        /* \"#utility.yul\":7372:7738   */\n    tag_257:\n        /* \"#utility.yul\":7514:7517   */\n      0x00\n        /* \"#utility.yul\":7535:7602   */\n      tag_259\n        /* \"#utility.yul\":7599:7601   */\n      0x2d\n        /* \"#utility.yul\":7594:7597   */\n      dup4\n        /* \"#utility.yul\":7535:7602   */\n      tag_249\n      jump\t// in\n    tag_259:\n        /* \"#utility.yul\":7528:7602   */\n      swap2\n      pop\n        /* \"#utility.yul\":7611:7704   */\n      tag_260\n        /* \"#utility.yul\":7700:7703   */\n      dup3\n        /* \"#utility.yul\":7611:7704   */\n      tag_261\n      jump\t// in\n    tag_260:\n        /* \"#utility.yul\":7729:7731   */\n      0x40\n        /* \"#utility.yul\":7724:7727   */\n      dup3\n        /* \"#utility.yul\":7720:7732   */\n      add\n        /* \"#utility.yul\":7713:7732   */\n      swap1\n      pop\n        /* \"#utility.yul\":7372:7738   */\n      swap2\n      swap1\n      pop\n      jump\t// out\n        /* \"#utility.yul\":7744:8110   */\n    tag_262:\n        /* \"#utility.yul\":7886:7889   */\n      0x00\n        /* \"#utility.yul\":7907:7974   */\n      tag_264\n        /* \"#utility.yul\":7971:7973   */\n      0x4f\n        /* \"#utility.yul\":7966:7969   */\n      dup4\n        /* \"#utility.yul\":7907:7974   */\n      tag_249\n      jump\t// in\n    tag_264:\n        /* \"#utility.yul\":7900:7974   */\n      swap2\n      pop\n        /* \"#utility.yul\":7983:8076   */\n      tag_265\n        /* \"#utility.yul\":8072:8075   */\n      dup3\n        /* \"#utility.yul\":7983:8076   */\n      tag_266\n      jump\t// in\n    tag_265:\n        /* \"#utility.yul\":8101:8103   */\n      0x60\n        /* \"#utility.yul\":8096:8099   */\n      dup3\n        /* \"#utility.yul\":8092:8104   */\n      add\n        /* \"#utility.yul\":8085:8104   */\n      swap1\n      pop\n        /* \"#utility.yul\":7744:8110   */\n      swap2\n      swap1\n      pop\n      jump\t// out\n        /* \"#utility.yul\":8116:8482   */\n    tag_267:\n        /* \"#utility.yul\":8258:8261   */\n      0x00\n        /* \"#utility.yul\":8279:8346   */\n      tag_269\n        /* \"#utility.yul\":8343:8345   */\n      0x11\n        /* \"#utility.yul\":8338:8341   */\n      dup4\n        /* \"#utility.yul\":8279:8346   */\n      tag_249\n      jump\t// in\n    tag_269:\n        /* \"#utility.yul\":8272:8346   */\n      swap2\n      pop\n        /* \"#utility.yul\":8355:8448   */\n      tag_270\n        /* \"#utility.yul\":8444:8447   */\n      dup3\n        /* \"#utility.yul\":8355:8448   */\n      tag_271\n      jump\t// in\n    tag_270:\n        /* \"#utility.yul\":8473:8475   */\n      0x20\n        /* \"#utility.yul\":8468:8471   */\n      dup3\n        /* \"#utility.yul\":8464:8476   */\n      add\n        /* \"#utility.yul\":8457:8476   */\n      swap1\n      pop\n        /* \"#utility.yul\":8116:8482   */\n      swap2\n      swap1\n      pop\n      jump\t// out\n        /* \"#utility.yul\":8488:8854   */\n    tag_272:\n        /* \"#utility.yul\":8630:8633   */\n      0x00\n        /* \"#utility.yul\":8651:8718   */\n      tag_274\n        /* \"#utility.yul\":8715:8717   */\n      0x25\n        /* \"#utility.yul\":8710:8713   */\n      dup4\n        /* \"#utility.yul\":8651:8718   */\n      tag_249\n      jump\t// in\n    tag_274:\n        /* \"#utility.yul\":8644:8718   */\n      swap2\n      pop\n        /* \"#utility.yul\":8727:8820   */\n      tag_275\n        /* \"#utility.yul\":8816:8819   */\n      dup3\n        /* \"#utility.yul\":8727:8820   */\n      tag_276\n      jump\t// in\n    tag_275:\n        /* \"#utility.yul\":8845:8847   */\n      0x40\n        /* \"#utility.yul\":8840:8843   */\n      dup3\n        /* \"#utility.yul\":8836:8848   */\n      add\n        /* \"#utility.yul\":8829:8848   */\n      swap1\n      pop\n        /* \"#utility.yul\":8488:8854   */\n      swap2\n      swap1\n      pop\n      jump\t// out\n        /* \"#utility.yul\":8860:9226   */\n    tag_277:\n        /* \"#utility.yul\":9002:9005   */\n      0x00\n        /* \"#utility.yul\":9023:9090   */\n      tag_279\n        /* \"#utility.yul\":9087:9089   */\n      0x1c\n        /* \"#utility.yul\":9082:9085   */\n      dup4\n        /* \"#utility.yul\":9023:9090   */\n      tag_249\n      jump\t// in\n    tag_279:\n        /* \"#utility.yul\":9016:9090   */\n      swap2\n      pop\n        /* \"#utility.yul\":9099:9192   */\n      tag_280\n        /* \"#utility.yul\":9188:9191   */\n      dup3\n        /* \"#utility.yul\":9099:9192   */\n      tag_281\n      jump\t// in\n    tag_280:\n        /* \"#utility.yul\":9217:9219   */\n      0x20\n        /* \"#utility.yul\":9212:9215   */\n      dup3\n        /* \"#utility.yul\":9208:9220   */\n      add\n        /* \"#utility.yul\":9201:9220   */\n      swap1\n      pop\n        /* \"#utility.yul\":8860:9226   */\n      swap2\n      swap1\n      pop\n      jump\t// out\n        /* \"#utility.yul\":9232:9598   */\n    tag_282:\n        /* \"#utility.yul\":9374:9377   */\n      0x00\n        /* \"#utility.yul\":9395:9462   */\n      tag_284\n        /* \"#utility.yul\":9459:9461   */\n      0x24\n        /* \"#utility.yul\":9454:9457   */\n      dup4\n        /* \"#utility.yul\":9395:9462   */\n      tag_249\n      jump\t// in\n    tag_284:\n        /* \"#utility.yul\":9388:9462   */\n      swap2\n      pop\n        /* \"#utility.yul\":9471:9564   */\n      tag_285\n        /* \"#utility.yul\":9560:9563   */\n      dup3\n        /* \"#utility.yul\":9471:9564   */\n      tag_286\n      jump\t// in\n    tag_285:\n        /* \"#utility.yul\":9589:9591   */\n      0x40\n        /* \"#utility.yul\":9584:9587   */\n      dup3\n        /* \"#utility.yul\":9580:9592   */\n      add\n        /* \"#utility.yul\":9573:9592   */\n      swap1\n      pop\n        /* \"#utility.yul\":9232:9598   */\n      swap2\n      swap1\n      pop\n      jump\t// out\n        /* \"#utility.yul\":9656:10599   */\n    tag_207:\n        /* \"#utility.yul\":9761:9764   */\n      0x00\n        /* \"#utility.yul\":9797:9801   */\n      0x80\n        /* \"#utility.yul\":9792:9795   */\n      dup4\n        /* \"#utility.yul\":9788:9802   */\n      add\n        /* \"#utility.yul\":9882:9886   */\n      0x00\n        /* \"#utility.yul\":9875:9880   */\n      dup4\n        /* \"#utility.yul\":9871:9887   */\n      add\n        /* \"#utility.yul\":9865:9888   */\n      mload\n        /* \"#utility.yul\":9901:9964   */\n      tag_288\n        /* \"#utility.yul\":9958:9962   */\n      0x00\n        /* \"#utility.yul\":9953:9956   */\n      dup7\n        /* \"#utility.yul\":9949:9963   */\n      add\n        /* \"#utility.yul\":9935:9947   */\n      dup3\n        /* \"#utility.yul\":9901:9964   */\n      tag_289\n      jump\t// in\n    tag_288:\n        /* \"#utility.yul\":9812:9974   */\n      pop\n        /* \"#utility.yul\":10056:10060   */\n      0x20\n        /* \"#utility.yul\":10049:10054   */\n      dup4\n        /* \"#utility.yul\":10045:10061   */\n      add\n        /* \"#utility.yul\":10039:10062   */\n      mload\n        /* \"#utility.yul\":10109:10112   */\n      dup5\n        /* \"#utility.yul\":10103:10107   */\n      dup3\n        /* \"#utility.yul\":10099:10113   */\n      sub\n        /* \"#utility.yul\":10092:10096   */\n      0x20\n        /* \"#utility.yul\":10087:10090   */\n      dup7\n        /* \"#utility.yul\":10083:10097   */\n      add\n        /* \"#utility.yul\":10076:10114   */\n      mstore\n        /* \"#utility.yul\":10135:10208   */\n      tag_290\n        /* \"#utility.yul\":10203:10207   */\n      dup3\n        /* \"#utility.yul\":10189:10201   */\n      dup3\n        /* \"#utility.yul\":10135:10208   */\n      tag_235\n      jump\t// in\n    tag_290:\n        /* \"#utility.yul\":10127:10208   */\n      swap2\n      pop\n        /* \"#utility.yul\":9984:10219   */\n      pop\n        /* \"#utility.yul\":10305:10309   */\n      0x40\n        /* \"#utility.yul\":10298:10303   */\n      dup4\n        /* \"#utility.yul\":10294:10310   */\n      add\n        /* \"#utility.yul\":10288:10311   */\n      mload\n        /* \"#utility.yul\":10324:10387   */\n      tag_291\n        /* \"#utility.yul\":10381:10385   */\n      0x40\n        /* \"#utility.yul\":10376:10379   */\n      dup7\n        /* \"#utility.yul\":10372:10386   */\n      add\n        /* \"#utility.yul\":10358:10370   */\n      dup3\n        /* \"#utility.yul\":10324:10387   */\n      tag_289\n      jump\t// in\n    tag_291:\n        /* \"#utility.yul\":10229:10397   */\n      pop\n        /* \"#utility.yul\":10480:10484   */\n      0x60\n        /* \"#utility.yul\":10473:10478   */\n      dup4\n        /* \"#utility.yul\":10469:10485   */\n      add\n        /* \"#utility.yul\":10463:10486   */\n      mload\n        /* \"#utility.yul\":10499:10562   */\n      tag_292\n        /* \"#utility.yul\":10556:10560   */\n      0x60\n        /* \"#utility.yul\":10551:10554   */\n      dup7\n        /* \"#utility.yul\":10547:10561   */\n      add\n        /* \"#utility.yul\":10533:10545   */\n      dup3\n        /* \"#utility.yul\":10499:10562   */\n      tag_289\n      jump\t// in\n    tag_292:\n        /* \"#utility.yul\":10407:10572   */\n      pop\n        /* \"#utility.yul\":10589:10593   */\n      dup1\n        /* \"#utility.yul\":10582:10593   */\n      swap2\n      pop\n        /* \"#utility.yul\":9766:10599   */\n      pop\n        /* \"#utility.yul\":9656:10599   */\n      swap3\n      swap2\n      pop\n      pop\n      jump\t// out\n        /* \"#utility.yul\":10605:10713   */\n    tag_289:\n        /* \"#utility.yul\":10682:10706   */\n      tag_294\n        /* \"#utility.yul\":10700:10705   */\n      dup2\n        /* \"#utility.yul\":10682:10706   */\n      tag_295\n      jump\t// in\n    tag_294:\n        /* \"#utility.yul\":10677:10680   */\n      dup3\n        /* \"#utility.yul\":10670:10707   */\n      mstore\n        /* \"#utility.yul\":10605:10713   */\n      pop\n      pop\n      jump\t// out\n        /* \"#utility.yul\":10719:10837   */\n    tag_296:\n        /* \"#utility.yul\":10806:10830   */\n      tag_298\n        /* \"#utility.yul\":10824:10829   */\n      dup2\n        /* \"#utility.yul\":10806:10830   */\n      tag_295\n      jump\t// in\n    tag_298:\n        /* \"#utility.yul\":10801:10804   */\n      dup3\n        /* \"#utility.yul\":10794:10831   */\n      mstore\n        /* \"#utility.yul\":10719:10837   */\n      pop\n      pop\n      jump\t// out\n        /* \"#utility.yul\":10843:11138   */\n    tag_63:\n        /* \"#utility.yul\":10985:10988   */\n      0x00\n        /* \"#utility.yul\":11007:11112   */\n      tag_300\n        /* \"#utility.yul\":11108:11111   */\n      dup3\n        /* \"#utility.yul\":11099:11105   */\n      dup5\n        /* \"#utility.yul\":11091:11097   */\n      dup7\n        /* \"#utility.yul\":11007:11112   */\n      tag_230\n      jump\t// in\n    tag_300:\n        /* \"#utility.yul\":11000:11112   */\n      swap2\n      pop\n        /* \"#utility.yul\":11129:11132   */\n      dup2\n        /* \"#utility.yul\":11122:11132   */\n      swap1\n      pop\n        /* \"#utility.yul\":10843:11138   */\n      swap4\n      swap3\n      pop\n      pop\n      pop\n      jump\t// out\n        /* \"#utility.yul\":11144:11366   */\n    tag_38:\n        /* \"#utility.yul\":11237:11241   */\n      0x00\n        /* \"#utility.yul\":11275:11277   */\n      0x20\n        /* \"#utility.yul\":11264:11273   */\n      dup3\n        /* \"#utility.yul\":11260:11278   */\n      add\n        /* \"#utility.yul\":11252:11278   */\n      swap1\n      pop\n        /* \"#utility.yul\":11288:11359   */\n      tag_302\n        /* \"#utility.yul\":11356:11357   */\n      0x00\n        /* \"#utility.yul\":11345:11354   */\n      dup4\n        /* \"#utility.yul\":11341:11358   */\n      add\n        /* \"#utility.yul\":11332:11338   */\n      dup5\n        /* \"#utility.yul\":11288:11359   */\n      tag_208\n      jump\t// in\n    tag_302:\n        /* \"#utility.yul\":11144:11366   */\n      swap3\n      swap2\n      pop\n      pop\n      jump\t// out\n        /* \"#utility.yul\":11372:11837   */\n    tag_43:\n        /* \"#utility.yul\":11561:11565   */\n      0x00\n        /* \"#utility.yul\":11599:11601   */\n      0x20\n        /* \"#utility.yul\":11588:11597   */\n      dup3\n        /* \"#utility.yul\":11584:11602   */\n      add\n        /* \"#utility.yul\":11576:11602   */\n      swap1\n      pop\n        /* \"#utility.yul\":11648:11657   */\n      dup2\n        /* \"#utility.yul\":11642:11646   */\n      dup2\n        /* \"#utility.yul\":11638:11658   */\n      sub\n        /* \"#utility.yul\":11634:11635   */\n      0x00\n        /* \"#utility.yul\":11623:11632   */\n      dup4\n        /* \"#utility.yul\":11619:11636   */\n      add\n        /* \"#utility.yul\":11612:11659   */\n      mstore\n        /* \"#utility.yul\":11676:11830   */\n      tag_304\n        /* \"#utility.yul\":11825:11829   */\n      dup2\n        /* \"#utility.yul\":11816:11822   */\n      dup5\n        /* \"#utility.yul\":11676:11830   */\n      tag_212\n      jump\t// in\n    tag_304:\n        /* \"#utility.yul\":11668:11830   */\n      swap1\n      pop\n        /* \"#utility.yul\":11372:11837   */\n      swap3\n      swap2\n      pop\n      pop\n      jump\t// out\n        /* \"#utility.yul\":11843:12053   */\n    tag_22:\n        /* \"#utility.yul\":11930:11934   */\n      0x00\n        /* \"#utility.yul\":11968:11970   */\n      0x20\n        /* \"#utility.yul\":11957:11966   */\n      dup3\n        /* \"#utility.yul\":11953:11971   */\n      add\n        /* \"#utility.yul\":11945:11971   */\n      swap1\n      pop\n        /* \"#utility.yul\":11981:12046   */\n      tag_306\n        /* \"#utility.yul\":12043:12044   */\n      0x00\n        /* \"#utility.yul\":12032:12041   */\n      dup4\n        /* \"#utility.yul\":12028:12045   */\n      add\n        /* \"#utility.yul\":12019:12025   */\n      dup5\n        /* \"#utility.yul\":11981:12046   */\n      tag_226\n      jump\t// in\n    tag_306:\n        /* \"#utility.yul\":11843:12053   */\n      swap3\n      swap2\n      pop\n      pop\n      jump\t// out\n        /* \"#utility.yul\":12059:12478   */\n    tag_58:\n        /* \"#utility.yul\":12225:12229   */\n      0x00\n        /* \"#utility.yul\":12263:12265   */\n      0x20\n        /* \"#utility.yul\":12252:12261   */\n      dup3\n        /* \"#utility.yul\":12248:12266   */\n      add\n        /* \"#utility.yul\":12240:12266   */\n      swap1\n      pop\n        /* \"#utility.yul\":12312:12321   */\n      dup2\n        /* \"#utility.yul\":12306:12310   */\n      dup2\n        /* \"#utility.yul\":12302:12322   */\n      sub\n        /* \"#utility.yul\":12298:12299   */\n      0x00\n        /* \"#utility.yul\":12287:12296   */\n      dup4\n        /* \"#utility.yul\":12283:12300   */\n      add\n        /* \"#utility.yul\":12276:12323   */\n      mstore\n        /* \"#utility.yul\":12340:12471   */\n      tag_308\n        /* \"#utility.yul\":12466:12470   */\n      dup2\n        /* \"#utility.yul\":12340:12471   */\n      tag_252\n      jump\t// in\n    tag_308:\n        /* \"#utility.yul\":12332:12471   */\n      swap1\n      pop\n        /* \"#utility.yul\":12059:12478   */\n      swap2\n      swap1\n      pop\n      jump\t// out\n        /* \"#utility.yul\":12484:12903   */\n    tag_88:\n        /* \"#utility.yul\":12650:12654   */\n      0x00\n        /* \"#utility.yul\":12688:12690   */\n      0x20\n        /* \"#utility.yul\":12677:12686   */\n      dup3\n        /* \"#utility.yul\":12673:12691   */\n      add\n        /* \"#utility.yul\":12665:12691   */\n      swap1\n      pop\n        /* \"#utility.yul\":12737:12746   */\n      dup2\n        /* \"#utility.yul\":12731:12735   */\n      dup2\n        /* \"#utility.yul\":12727:12747   */\n      sub\n        /* \"#utility.yul\":12723:12724   */\n      0x00\n        /* \"#utility.yul\":12712:12721   */\n      dup4\n        /* \"#utility.yul\":12708:12725   */\n      add\n        /* \"#utility.yul\":12701:12748   */\n      mstore\n        /* \"#utility.yul\":12765:12896   */\n      tag_310\n        /* \"#utility.yul\":12891:12895   */\n      dup2\n        /* \"#utility.yul\":12765:12896   */\n      tag_257\n      jump\t// in\n    tag_310:\n        /* \"#utility.yul\":12757:12896   */\n      swap1\n      pop\n        /* \"#utility.yul\":12484:12903   */\n      swap2\n      swap1\n      pop\n      jump\t// out\n        /* \"#utility.yul\":12909:13328   */\n    tag_96:\n        /* \"#utility.yul\":13075:13079   */\n      0x00\n        /* \"#utility.yul\":13113:13115   */\n      0x20\n        /* \"#utility.yul\":13102:13111   */\n      dup3\n        /* \"#utility.yul\":13098:13116   */\n      add\n        /* \"#utility.yul\":13090:13116   */\n      swap1\n      pop\n        /* \"#utility.yul\":13162:13171   */\n      dup2\n        /* \"#utility.yul\":13156:13160   */\n      dup2\n        /* \"#utility.yul\":13152:13172   */\n      sub\n        /* \"#utility.yul\":13148:13149   */\n      0x00\n        /* \"#utility.yul\":13137:13146   */\n      dup4\n        /* \"#utility.yul\":13133:13150   */\n      add\n        /* \"#utility.yul\":13126:13173   */\n      mstore\n        /* \"#utility.yul\":13190:13321   */\n      tag_312\n        /* \"#utility.yul\":13316:13320   */\n      dup2\n        /* \"#utility.yul\":13190:13321   */\n      tag_262\n      jump\t// in\n    tag_312:\n        /* \"#utility.yul\":13182:13321   */\n      swap1\n      pop\n        /* \"#utility.yul\":12909:13328   */\n      swap2\n      swap1\n      pop\n      jump\t// out\n        /* \"#utility.yul\":13334:13753   */\n    tag_78:\n        /* \"#utility.yul\":13500:13504   */\n      0x00\n        /* \"#utility.yul\":13538:13540   */\n      0x20\n        /* \"#utility.yul\":13527:13536   */\n      dup3\n        /* \"#utility.yul\":13523:13541   */\n      add\n        /* \"#utility.yul\":13515:13541   */\n      swap1\n      pop\n        /* \"#utility.yul\":13587:13596   */\n      dup2\n        /* \"#utility.yul\":13581:13585   */\n      dup2\n        /* \"#utility.yul\":13577:13597   */\n      sub\n        /* \"#utility.yul\":13573:13574   */\n      0x00\n        /* \"#utility.yul\":13562:13571   */\n      dup4\n        /* \"#utility.yul\":13558:13575   */\n      add\n        /* \"#utility.yul\":13551:13598   */\n      mstore\n        /* \"#utility.yul\":13615:13746   */\n      tag_314\n        /* \"#utility.yul\":13741:13745   */\n      dup2\n        /* \"#utility.yul\":13615:13746   */\n      tag_267\n      jump\t// in\n    tag_314:\n        /* \"#utility.yul\":13607:13746   */\n      swap1\n      pop\n        /* \"#utility.yul\":13334:13753   */\n      swap2\n      swap1\n      pop\n      jump\t// out\n        /* \"#utility.yul\":13759:14178   */\n    tag_81:\n        /* \"#utility.yul\":13925:13929   */\n      0x00\n        /* \"#utility.yul\":13963:13965   */\n      0x20\n        /* \"#utility.yul\":13952:13961   */\n      dup3\n        /* \"#utility.yul\":13948:13966   */\n      add\n        /* \"#utility.yul\":13940:13966   */\n      swap1\n      pop\n        /* \"#utility.yul\":14012:14021   */\n      dup2\n        /* \"#utility.yul\":14006:14010   */\n      dup2\n        /* \"#utility.yul\":14002:14022   */\n      sub\n        /* \"#utility.yul\":13998:13999   */\n      0x00\n        /* \"#utility.yul\":13987:13996   */\n      dup4\n        /* \"#utility.yul\":13983:14000   */\n      add\n        /* \"#utility.yul\":13976:14023   */\n      mstore\n        /* \"#utility.yul\":14040:14171   */\n      tag_316\n        /* \"#utility.yul\":14166:14170   */\n      dup2\n        /* \"#utility.yul\":14040:14171   */\n      tag_272\n      jump\t// in\n    tag_316:\n        /* \"#utility.yul\":14032:14171   */\n      swap1\n      pop\n        /* \"#utility.yul\":13759:14178   */\n      swap2\n      swap1\n      pop\n      jump\t// out\n        /* \"#utility.yul\":14184:14603   */\n    tag_74:\n        /* \"#utility.yul\":14350:14354   */\n      0x00\n        /* \"#utility.yul\":14388:14390   */\n      0x20\n        /* \"#utility.yul\":14377:14386   */\n      dup3\n        /* \"#utility.yul\":14373:14391   */\n      add\n        /* \"#utility.yul\":14365:14391   */\n      swap1\n      pop\n        /* \"#utility.yul\":14437:14446   */\n      dup2\n        /* \"#utility.yul\":14431:14435   */\n      dup2\n        /* \"#utility.yul\":14427:14447   */\n      sub\n        /* \"#utility.yul\":14423:14424   */\n      0x00\n        /* \"#utility.yul\":14412:14421   */\n      dup4\n        /* \"#utility.yul\":14408:14425   */\n      add\n        /* \"#utility.yul\":14401:14448   */\n      mstore\n        /* \"#utility.yul\":14465:14596   */\n      tag_318\n        /* \"#utility.yul\":14591:14595   */\n      dup2\n        /* \"#utility.yul\":14465:14596   */\n      tag_277\n      jump\t// in\n    tag_318:\n        /* \"#utility.yul\":14457:14596   */\n      swap1\n      pop\n        /* \"#utility.yul\":14184:14603   */\n      swap2\n      swap1\n      pop\n      jump\t// out\n        /* \"#utility.yul\":14609:15028   */\n    tag_66:\n        /* \"#utility.yul\":14775:14779   */\n      0x00\n        /* \"#utility.yul\":14813:14815   */\n      0x20\n        /* \"#utility.yul\":14802:14811   */\n      dup3\n        /* \"#utility.yul\":14798:14816   */\n      add\n        /* \"#utility.yul\":14790:14816   */\n      swap1\n      pop\n        /* \"#utility.yul\":14862:14871   */\n      dup2\n        /* \"#utility.yul\":14856:14860   */\n      dup2\n        /* \"#utility.yul\":14852:14872   */\n      sub\n        /* \"#utility.yul\":14848:14849   */\n      0x00\n        /* \"#utility.yul\":14837:14846   */\n      dup4\n        /* \"#utility.yul\":14833:14850   */\n      add\n        /* \"#utility.yul\":14826:14873   */\n      mstore\n        /* \"#utility.yul\":14890:15021   */\n      tag_320\n        /* \"#utility.yul\":15016:15020   */\n      dup2\n        /* \"#utility.yul\":14890:15021   */\n      tag_282\n      jump\t// in\n    tag_320:\n        /* \"#utility.yul\":14882:15021   */\n      swap1\n      pop\n        /* \"#utility.yul\":14609:15028   */\n      swap2\n      swap1\n      pop\n      jump\t// out\n        /* \"#utility.yul\":15034:15256   */\n    tag_50:\n        /* \"#utility.yul\":15127:15131   */\n      0x00\n        /* \"#utility.yul\":15165:15167   */\n      0x20\n        /* \"#utility.yul\":15154:15163   */\n      dup3\n        /* \"#utility.yul\":15150:15168   */\n      add\n        /* \"#utility.yul\":15142:15168   */\n      swap1\n      pop\n        /* \"#utility.yul\":15178:15249   */\n      tag_322\n        /* \"#utility.yul\":15246:15247   */\n      0x00\n        /* \"#utility.yul\":15235:15244   */\n      dup4\n        /* \"#utility.yul\":15231:15248   */\n      add\n        /* \"#utility.yul\":15222:15228   */\n      dup5\n        /* \"#utility.yul\":15178:15249   */\n      tag_296\n      jump\t// in\n    tag_322:\n        /* \"#utility.yul\":15034:15256   */\n      swap3\n      swap2\n      pop\n      pop\n      jump\t// out\n        /* \"#utility.yul\":15262:15906   */\n    tag_33:\n        /* \"#utility.yul\":15459:15463   */\n      0x00\n        /* \"#utility.yul\":15497:15500   */\n      0x80\n        /* \"#utility.yul\":15486:15495   */\n      dup3\n        /* \"#utility.yul\":15482:15501   */\n      add\n        /* \"#utility.yul\":15474:15501   */\n      swap1\n      pop\n        /* \"#utility.yul\":15511:15582   */\n      tag_324\n        /* \"#utility.yul\":15579:15580   */\n      0x00\n        /* \"#utility.yul\":15568:15577   */\n      dup4\n        /* \"#utility.yul\":15564:15581   */\n      add\n        /* \"#utility.yul\":15555:15561   */\n      dup8\n        /* \"#utility.yul\":15511:15582   */\n      tag_296\n      jump\t// in\n    tag_324:\n        /* \"#utility.yul\":15629:15638   */\n      dup2\n        /* \"#utility.yul\":15623:15627   */\n      dup2\n        /* \"#utility.yul\":15619:15639   */\n      sub\n        /* \"#utility.yul\":15614:15616   */\n      0x20\n        /* \"#utility.yul\":15603:15612   */\n      dup4\n        /* \"#utility.yul\":15599:15617   */\n      add\n        /* \"#utility.yul\":15592:15640   */\n      mstore\n        /* \"#utility.yul\":15657:15735   */\n      tag_325\n        /* \"#utility.yul\":15730:15734   */\n      dup2\n        /* \"#utility.yul\":15721:15727   */\n      dup7\n        /* \"#utility.yul\":15657:15735   */\n      tag_245\n      jump\t// in\n    tag_325:\n        /* \"#utility.yul\":15649:15735   */\n      swap1\n      pop\n        /* \"#utility.yul\":15745:15817   */\n      tag_326\n        /* \"#utility.yul\":15813:15815   */\n      0x40\n        /* \"#utility.yul\":15802:15811   */\n      dup4\n        /* \"#utility.yul\":15798:15816   */\n      add\n        /* \"#utility.yul\":15789:15795   */\n      dup6\n        /* \"#utility.yul\":15745:15817   */\n      tag_296\n      jump\t// in\n    tag_326:\n        /* \"#utility.yul\":15827:15899   */\n      tag_327\n        /* \"#utility.yul\":15895:15897   */\n      0x60\n        /* \"#utility.yul\":15884:15893   */\n      dup4\n        /* \"#utility.yul\":15880:15898   */\n      add\n        /* \"#utility.yul\":15871:15877   */\n      dup5\n        /* \"#utility.yul\":15827:15899   */\n      tag_296\n      jump\t// in\n    tag_327:\n        /* \"#utility.yul\":15262:15906   */\n      swap6\n      swap5\n      pop\n      pop\n      pop\n      pop\n      pop\n      jump\t// out\n        /* \"#utility.yul\":15912:16041   */\n    tag_144:\n        /* \"#utility.yul\":15946:15952   */\n      0x00\n        /* \"#utility.yul\":15973:15993   */\n      tag_329\n      tag_330\n      jump\t// in\n    tag_329:\n        /* \"#utility.yul\":15963:15993   */\n      swap1\n      pop\n        /* \"#utility.yul\":16002:16035   */\n      tag_331\n        /* \"#utility.yul\":16030:16034   */\n      dup3\n        /* \"#utility.yul\":16022:16028   */\n      dup3\n        /* \"#utility.yul\":16002:16035   */\n      tag_332\n      jump\t// in\n    tag_331:\n        /* \"#utility.yul\":15912:16041   */\n      swap2\n      swap1\n      pop\n      jump\t// out\n        /* \"#utility.yul\":16047:16122   */\n    tag_330:\n        /* \"#utility.yul\":16080:16086   */\n      0x00\n        /* \"#utility.yul\":16113:16115   */\n      0x40\n        /* \"#utility.yul\":16107:16116   */\n      mload\n        /* \"#utility.yul\":16097:16116   */\n      swap1\n      pop\n        /* \"#utility.yul\":16047:16122   */\n      swap1\n      jump\t// out\n        /* \"#utility.yul\":16128:16436   */\n    tag_143:\n        /* \"#utility.yul\":16190:16194   */\n      0x00\n        /* \"#utility.yul\":16280:16298   */\n      0xffffffffffffffff\n        /* \"#utility.yul\":16272:16278   */\n      dup3\n        /* \"#utility.yul\":16269:16299   */\n      gt\n        /* \"#utility.yul\":16266:16322   */\n      iszero\n      tag_335\n      jumpi\n        /* \"#utility.yul\":16302:16320   */\n      tag_336\n      tag_337\n      jump\t// in\n    tag_336:\n        /* \"#utility.yul\":16266:16322   */\n    tag_335:\n        /* \"#utility.yul\":16340:16369   */\n      tag_338\n        /* \"#utility.yul\":16362:16368   */\n      dup3\n        /* \"#utility.yul\":16340:16369   */\n      tag_244\n      jump\t// in\n    tag_338:\n        /* \"#utility.yul\":16332:16369   */\n      swap1\n      pop\n        /* \"#utility.yul\":16424:16428   */\n      0x20\n        /* \"#utility.yul\":16418:16422   */\n      dup2\n        /* \"#utility.yul\":16414:16429   */\n      add\n        /* \"#utility.yul\":16406:16429   */\n      swap1\n      pop\n        /* \"#utility.yul\":16128:16436   */\n      swap2\n      swap1\n      pop\n      jump\t// out\n        /* \"#utility.yul\":16442:16597   */\n    tag_219:\n        /* \"#utility.yul\":16532:16536   */\n      0x00\n        /* \"#utility.yul\":16555:16558   */\n      dup2\n        /* \"#utility.yul\":16547:16558   */\n      swap1\n      pop\n        /* \"#utility.yul\":16585:16589   */\n      0x20\n        /* \"#utility.yul\":16580:16583   */\n      dup3\n        /* \"#utility.yul\":16576:16590   */\n      add\n        /* \"#utility.yul\":16568:16590   */\n      swap1\n      pop\n        /* \"#utility.yul\":16442:16597   */\n      swap2\n      swap1\n      pop\n      jump\t// out\n        /* \"#utility.yul\":16603:16740   */\n    tag_215:\n        /* \"#utility.yul\":16693:16699   */\n      0x00\n        /* \"#utility.yul\":16727:16732   */\n      dup2\n        /* \"#utility.yul\":16721:16733   */\n      mload\n        /* \"#utility.yul\":16711:16733   */\n      swap1\n      pop\n        /* \"#utility.yul\":16603:16740   */\n      swap2\n      swap1\n      pop\n      jump\t// out\n        /* \"#utility.yul\":16746:16845   */\n    tag_238:\n        /* \"#utility.yul\":16798:16804   */\n      0x00\n        /* \"#utility.yul\":16832:16837   */\n      dup2\n        /* \"#utility.yul\":16826:16838   */\n      mload\n        /* \"#utility.yul\":16816:16838   */\n      swap1\n      pop\n        /* \"#utility.yul\":16746:16845   */\n      swap2\n      swap1\n      pop\n      jump\t// out\n        /* \"#utility.yul\":16851:16987   */\n    tag_225:\n        /* \"#utility.yul\":16944:16948   */\n      0x00\n        /* \"#utility.yul\":16976:16980   */\n      0x20\n        /* \"#utility.yul\":16971:16974   */\n      dup3\n        /* \"#utility.yul\":16967:16981   */\n      add\n        /* \"#utility.yul\":16959:16981   */\n      swap1\n      pop\n        /* \"#utility.yul\":16851:16987   */\n      swap2\n      swap1\n      pop\n      jump\t// out\n        /* \"#utility.yul\":16993:17200   */\n    tag_217:\n        /* \"#utility.yul\":17115:17126   */\n      0x00\n        /* \"#utility.yul\":17149:17155   */\n      dup3\n        /* \"#utility.yul\":17144:17147   */\n      dup3\n        /* \"#utility.yul\":17137:17156   */\n      mstore\n        /* \"#utility.yul\":17189:17193   */\n      0x20\n        /* \"#utility.yul\":17184:17187   */\n      dup3\n        /* \"#utility.yul\":17180:17194   */\n      add\n        /* \"#utility.yul\":17165:17194   */\n      swap1\n      pop\n        /* \"#utility.yul\":16993:17200   */\n      swap3\n      swap2\n      pop\n      pop\n      jump\t// out\n        /* \"#utility.yul\":17206:17365   */\n    tag_240:\n        /* \"#utility.yul\":17280:17291   */\n      0x00\n        /* \"#utility.yul\":17314:17320   */\n      dup3\n        /* \"#utility.yul\":17309:17312   */\n      dup3\n        /* \"#utility.yul\":17302:17321   */\n      mstore\n        /* \"#utility.yul\":17354:17358   */\n      0x20\n        /* \"#utility.yul\":17349:17352   */\n      dup3\n        /* \"#utility.yul\":17345:17359   */\n      add\n        /* \"#utility.yul\":17330:17359   */\n      swap1\n      pop\n        /* \"#utility.yul\":17206:17365   */\n      swap3\n      swap2\n      pop\n      pop\n      jump\t// out\n        /* \"#utility.yul\":17371:17540   */\n    tag_249:\n        /* \"#utility.yul\":17455:17466   */\n      0x00\n        /* \"#utility.yul\":17489:17495   */\n      dup3\n        /* \"#utility.yul\":17484:17487   */\n      dup3\n        /* \"#utility.yul\":17477:17496   */\n      mstore\n        /* \"#utility.yul\":17529:17533   */\n      0x20\n        /* \"#utility.yul\":17524:17527   */\n      dup3\n        /* \"#utility.yul\":17520:17534   */\n      add\n        /* \"#utility.yul\":17505:17534   */\n      swap1\n      pop\n        /* \"#utility.yul\":17371:17540   */\n      swap3\n      swap2\n      pop\n      pop\n      jump\t// out\n        /* \"#utility.yul\":17546:17694   */\n    tag_233:\n        /* \"#utility.yul\":17648:17659   */\n      0x00\n        /* \"#utility.yul\":17685:17688   */\n      dup2\n        /* \"#utility.yul\":17670:17688   */\n      swap1\n      pop\n        /* \"#utility.yul\":17546:17694   */\n      swap3\n      swap2\n      pop\n      pop\n      jump\t// out\n        /* \"#utility.yul\":17700:18048   */\n    tag_93:\n        /* \"#utility.yul\":17740:17747   */\n      0x00\n        /* \"#utility.yul\":17763:17783   */\n      tag_348\n        /* \"#utility.yul\":17781:17782   */\n      dup3\n        /* \"#utility.yul\":17763:17783   */\n      tag_295\n      jump\t// in\n    tag_348:\n        /* \"#utility.yul\":17758:17783   */\n      swap2\n      pop\n        /* \"#utility.yul\":17797:17817   */\n      tag_349\n        /* \"#utility.yul\":17815:17816   */\n      dup4\n        /* \"#utility.yul\":17797:17817   */\n      tag_295\n      jump\t// in\n    tag_349:\n        /* \"#utility.yul\":17792:17817   */\n      swap3\n      pop\n        /* \"#utility.yul\":17985:17986   */\n      dup2\n        /* \"#utility.yul\":17917:17983   */\n      0xffffffffffffffffffffffffffffffffffffffffffffffffffffffffffffffff\n        /* \"#utility.yul\":17913:17987   */\n      div\n        /* \"#utility.yul\":17910:17911   */\n      dup4\n        /* \"#utility.yul\":17907:17988   */\n      gt\n        /* \"#utility.yul\":17902:17903   */\n      dup3\n        /* \"#utility.yul\":17895:17904   */\n      iszero\n        /* \"#utility.yul\":17888:17905   */\n      iszero\n        /* \"#utility.yul\":17884:17989   */\n      and\n        /* \"#utility.yul\":17881:18012   */\n      iszero\n      tag_350\n      jumpi\n        /* \"#utility.yul\":17992:18010   */\n      tag_351\n      tag_352\n      jump\t// in\n    tag_351:\n        /* \"#utility.yul\":17881:18012   */\n    tag_350:\n        /* \"#utility.yul\":18040:18041   */\n      dup3\n        /* \"#utility.yul\":18037:18038   */\n      dup3\n        /* \"#utility.yul\":18033:18042   */\n      mul\n        /* \"#utility.yul\":18022:18042   */\n      swap1\n      pop\n        /* \"#utility.yul\":17700:18048   */\n      swap3\n      swap2\n      pop\n      pop\n      jump\t// out\n        /* \"#utility.yul\":18054:18245   */\n    tag_100:\n        /* \"#utility.yul\":18094:18098   */\n      0x00\n        /* \"#utility.yul\":18114:18134   */\n      tag_354\n        /* \"#utility.yul\":18132:18133   */\n      dup3\n        /* \"#utility.yul\":18114:18134   */\n      tag_295\n      jump\t// in\n    tag_354:\n        /* \"#utility.yul\":18109:18134   */\n      swap2\n      pop\n        /* \"#utility.yul\":18148:18168   */\n      tag_355\n        /* \"#utility.yul\":18166:18167   */\n      dup4\n        /* \"#utility.yul\":18148:18168   */\n      tag_295\n      jump\t// in\n    tag_355:\n        /* \"#utility.yul\":18143:18168   */\n      swap3\n      pop\n        /* \"#utility.yul\":18187:18188   */\n      dup3\n        /* \"#utility.yul\":18184:18185   */\n      dup3\n        /* \"#utility.yul\":18181:18189   */\n      lt\n        /* \"#utility.yul\":18178:18212   */\n      iszero\n      tag_356\n      jumpi\n        /* \"#utility.yul\":18192:18210   */\n      tag_357\n      tag_352\n      jump\t// in\n    tag_357:\n        /* \"#utility.yul\":18178:18212   */\n    tag_356:\n        /* \"#utility.yul\":18237:18238   */\n      dup3\n        /* \"#utility.yul\":18234:18235   */\n      dup3\n        /* \"#utility.yul\":18230:18239   */\n      sub\n        /* \"#utility.yul\":18222:18239   */\n      swap1\n      pop\n        /* \"#utility.yul\":18054:18245   */\n      swap3\n      swap2\n      pop\n      pop\n      jump\t// out\n        /* \"#utility.yul\":18251:18347   */\n    tag_211:\n        /* \"#utility.yul\":18288:18295   */\n      0x00\n        /* \"#utility.yul\":18317:18341   */\n      tag_359\n        /* \"#utility.yul\":18335:18340   */\n      dup3\n        /* \"#utility.yul\":18317:18341   */\n      tag_360\n      jump\t// in\n    tag_359:\n        /* \"#utility.yul\":18306:18341   */\n      swap1\n      pop\n        /* \"#utility.yul\":18251:18347   */\n      swap2\n      swap1\n      pop\n      jump\t// out\n        /* \"#utility.yul\":18353:18443   */\n    tag_229:\n        /* \"#utility.yul\":18387:18394   */\n      0x00\n        /* \"#utility.yul\":18430:18435   */\n      dup2\n        /* \"#utility.yul\":18423:18436   */\n      iszero\n        /* \"#utility.yul\":18416:18437   */\n      iszero\n        /* \"#utility.yul\":18405:18437   */\n      swap1\n      pop\n        /* \"#utility.yul\":18353:18443   */\n      swap2\n      swap1\n      pop\n      jump\t// out\n        /* \"#utility.yul\":18449:18575   */\n    tag_360:\n        /* \"#utility.yul\":18486:18493   */\n      0x00\n        /* \"#utility.yul\":18526:18568   */\n      0xffffffffffffffffffffffffffffffffffffffff\n        /* \"#utility.yul\":18519:18524   */\n      dup3\n        /* \"#utility.yul\":18515:18569   */\n      and\n        /* \"#utility.yul\":18504:18569   */\n      swap1\n      pop\n        /* \"#utility.yul\":18449:18575   */\n      swap2\n      swap1\n      pop\n      jump\t// out\n        /* \"#utility.yul\":18581:18658   */\n    tag_295:\n        /* \"#utility.yul\":18618:18625   */\n      0x00\n        /* \"#utility.yul\":18647:18652   */\n      dup2\n        /* \"#utility.yul\":18636:18652   */\n      swap1\n      pop\n        /* \"#utility.yul\":18581:18658   */\n      swap2\n      swap1\n      pop\n      jump\t// out\n        /* \"#utility.yul\":18664:18818   */\n    tag_149:\n        /* \"#utility.yul\":18748:18754   */\n      dup3\n        /* \"#utility.yul\":18743:18746   */\n      dup2\n        /* \"#utility.yul\":18738:18741   */\n      dup4\n        /* \"#utility.yul\":18725:18755   */\n      calldatacopy\n        /* \"#utility.yul\":18810:18811   */\n      0x00\n        /* \"#utility.yul\":18801:18807   */\n      dup4\n        /* \"#utility.yul\":18796:18799   */\n      dup4\n        /* \"#utility.yul\":18792:18808   */\n      add\n        /* \"#utility.yul\":18785:18812   */\n      mstore\n        /* \"#utility.yul\":18664:18818   */\n      pop\n      pop\n      pop\n      jump\t// out\n        /* \"#utility.yul\":18824:19131   */\n    tag_242:\n        /* \"#utility.yul\":18892:18893   */\n      0x00\n        /* \"#utility.yul\":18902:19015   */\n    tag_366:\n        /* \"#utility.yul\":18916:18922   */\n      dup4\n        /* \"#utility.yul\":18913:18914   */\n      dup2\n        /* \"#utility.yul\":18910:18923   */\n      lt\n        /* \"#utility.yul\":18902:19015   */\n      iszero\n      tag_368\n      jumpi\n        /* \"#utility.yul\":19001:19002   */\n      dup1\n        /* \"#utility.yul\":18996:18999   */\n      dup3\n        /* \"#utility.yul\":18992:19003   */\n      add\n        /* \"#utility.yul\":18986:19004   */\n      mload\n        /* \"#utility.yul\":18982:18983   */\n      dup2\n        /* \"#utility.yul\":18977:18980   */\n      dup5\n        /* \"#utility.yul\":18973:18984   */\n      add\n        /* \"#utility.yul\":18966:19005   */\n      mstore\n        /* \"#utility.yul\":18938:18940   */\n      0x20\n        /* \"#utility.yul\":18935:18936   */\n      dup2\n        /* \"#utility.yul\":18931:18941   */\n      add\n        /* \"#utility.yul\":18926:18941   */\n      swap1\n      pop\n        /* \"#utility.yul\":18902:19015   */\n      jump(tag_366)\n    tag_368:\n        /* \"#utility.yul\":19033:19039   */\n      dup4\n        /* \"#utility.yul\":19030:19031   */\n      dup2\n        /* \"#utility.yul\":19027:19040   */\n      gt\n        /* \"#utility.yul\":19024:19125   */\n      iszero\n      tag_369\n      jumpi\n        /* \"#utility.yul\":19113:19114   */\n      0x00\n        /* \"#utility.yul\":19104:19110   */\n      dup5\n        /* \"#utility.yul\":19099:19102   */\n      dup5\n        /* \"#utility.yul\":19095:19111   */\n      add\n        /* \"#utility.yul\":19088:19115   */\n      mstore\n        /* \"#utility.yul\":19024:19125   */\n    tag_369:\n        /* \"#utility.yul\":18873:19131   */\n      pop\n        /* \"#utility.yul\":18824:19131   */\n      pop\n      pop\n      pop\n      jump\t// out\n        /* \"#utility.yul\":19137:19457   */\n    tag_104:\n        /* \"#utility.yul\":19181:19187   */\n      0x00\n        /* \"#utility.yul\":19218:19219   */\n      0x02\n        /* \"#utility.yul\":19212:19216   */\n      dup3\n        /* \"#utility.yul\":19208:19220   */\n      div\n        /* \"#utility.yul\":19198:19220   */\n      swap1\n      pop\n        /* \"#utility.yul\":19265:19266   */\n      0x01\n        /* \"#utility.yul\":19259:19263   */\n      dup3\n        /* \"#utility.yul\":19255:19267   */\n      and\n        /* \"#utility.yul\":19286:19304   */\n      dup1\n        /* \"#utility.yul\":19276:19357   */\n      tag_371\n      jumpi\n        /* \"#utility.yul\":19342:19346   */\n      0x7f\n        /* \"#utility.yul\":19334:19340   */\n      dup3\n        /* \"#utility.yul\":19330:19347   */\n      and\n        /* \"#utility.yul\":19320:19347   */\n      swap2\n      pop\n        /* \"#utility.yul\":19276:19357   */\n    tag_371:\n        /* \"#utility.yul\":19404:19406   */\n      0x20\n        /* \"#utility.yul\":19396:19402   */\n      dup3\n        /* \"#utility.yul\":19393:19407   */\n      lt\n        /* \"#utility.yul\":19373:19391   */\n      dup2\n        /* \"#utility.yul\":19370:19408   */\n      eq\n        /* \"#utility.yul\":19367:19451   */\n      iszero\n      tag_372\n      jumpi\n        /* \"#utility.yul\":19423:19441   */\n      tag_373\n      tag_374\n      jump\t// in\n    tag_373:\n        /* \"#utility.yul\":19367:19451   */\n    tag_372:\n        /* \"#utility.yul\":19188:19457   */\n      pop\n        /* \"#utility.yul\":19137:19457   */\n      swap2\n      swap1\n      pop\n      jump\t// out\n        /* \"#utility.yul\":19463:19744   */\n    tag_332:\n        /* \"#utility.yul\":19546:19573   */\n      tag_376\n        /* \"#utility.yul\":19568:19572   */\n      dup3\n        /* \"#utility.yul\":19546:19573   */\n      tag_244\n      jump\t// in\n    tag_376:\n        /* \"#utility.yul\":19538:19544   */\n      dup2\n        /* \"#utility.yul\":19534:19574   */\n      add\n        /* \"#utility.yul\":19676:19682   */\n      dup2\n        /* \"#utility.yul\":19664:19674   */\n      dup2\n        /* \"#utility.yul\":19661:19683   */\n      lt\n        /* \"#utility.yul\":19640:19658   */\n      0xffffffffffffffff\n        /* \"#utility.yul\":19628:19638   */\n      dup3\n        /* \"#utility.yul\":19625:19659   */\n      gt\n        /* \"#utility.yul\":19622:19684   */\n      or\n        /* \"#utility.yul\":19619:19707   */\n      iszero\n      tag_377\n      jumpi\n        /* \"#utility.yul\":19687:19705   */\n      tag_378\n      tag_337\n      jump\t// in\n    tag_378:\n        /* \"#utility.yul\":19619:19707   */\n    tag_377:\n        /* \"#utility.yul\":19727:19737   */\n      dup1\n        /* \"#utility.yul\":19723:19725   */\n      0x40\n        /* \"#utility.yul\":19716:19738   */\n      mstore\n        /* \"#utility.yul\":19506:19744   */\n      pop\n        /* \"#utility.yul\":19463:19744   */\n      pop\n      pop\n      jump\t// out\n        /* \"#utility.yul\":19750:19930   */\n    tag_352:\n        /* \"#utility.yul\":19798:19875   */\n      0x4e487b7100000000000000000000000000000000000000000000000000000000\n        /* \"#utility.yul\":19795:19796   */\n      0x00\n        /* \"#utility.yul\":19788:19876   */\n      mstore\n        /* \"#utility.yul\":19895:19899   */\n      0x11\n        /* \"#utility.yul\":19892:19893   */\n      0x04\n        /* \"#utility.yul\":19885:19900   */\n      mstore\n        /* \"#utility.yul\":19919:19923   */\n      0x24\n        /* \"#utility.yul\":19916:19917   */\n      0x00\n        /* \"#utility.yul\":19909:19924   */\n      revert\n        /* \"#utility.yul\":19936:20116   */\n    tag_374:\n        /* \"#utility.yul\":19984:20061   */\n      0x4e487b7100000000000000000000000000000000000000000000000000000000\n        /* \"#utility.yul\":19981:19982   */\n      0x00\n        /* \"#utility.yul\":19974:20062   */\n      mstore\n        /* \"#utility.yul\":20081:20085   */\n      0x22\n        /* \"#utility.yul\":20078:20079   */\n      0x04\n        /* \"#utility.yul\":20071:20086   */\n      mstore\n        /* \"#utility.yul\":20105:20109   */\n      0x24\n        /* \"#utility.yul\":20102:20103   */\n      0x00\n        /* \"#utility.yul\":20095:20110   */\n      revert\n        /* \"#utility.yul\":20122:20302   */\n    tag_84:\n        /* \"#utility.yul\":20170:20247   */\n      0x4e487b7100000000000000000000000000000000000000000000000000000000\n        /* \"#utility.yul\":20167:20168   */\n      0x00\n        /* \"#utility.yul\":20160:20248   */\n      mstore\n        /* \"#utility.yul\":20267:20271   */\n      0x32\n        /* \"#utility.yul\":20264:20265   */\n      0x04\n        /* \"#utility.yul\":20257:20272   */\n      mstore\n        /* \"#utility.yul\":20291:20295   */\n      0x24\n        /* \"#utility.yul\":20288:20289   */\n      0x00\n        /* \"#utility.yul\":20281:20296   */\n      revert\n        /* \"#utility.yul\":20308:20488   */\n    tag_337:\n        /* \"#utility.yul\":20356:20433   */\n      0x4e487b7100000000000000000000000000000000000000000000000000000000\n        /* \"#utility.yul\":20353:20354   */\n      0x00\n        /* \"#utility.yul\":20346:20434   */\n      mstore\n        /* \"#utility.yul\":20453:20457   */\n      0x41\n        /* \"#utility.yul\":20450:20451   */\n      0x04\n        /* \"#utility.yul\":20443:20458   */\n      mstore\n        /* \"#utility.yul\":20477:20481   */\n      0x24\n        /* \"#utility.yul\":20474:20475   */\n      0x00\n        /* \"#utility.yul\":20467:20482   */\n      revert\n        /* \"#utility.yul\":20494:20611   */\n    tag_161:\n        /* \"#utility.yul\":20603:20604   */\n      0x00\n        /* \"#utility.yul\":20600:20601   */\n      dup1\n        /* \"#utility.yul\":20593:20605   */\n      revert\n        /* \"#utility.yul\":20617:20734   */\n    tag_158:\n        /* \"#utility.yul\":20726:20727   */\n      0x00\n        /* \"#utility.yul\":20723:20724   */\n      dup1\n        /* \"#utility.yul\":20716:20728   */\n      revert\n        /* \"#utility.yul\":20740:20857   */\n    tag_164:\n        /* \"#utility.yul\":20849:20850   */\n      0x00\n        /* \"#utility.yul\":20846:20847   */\n      dup1\n        /* \"#utility.yul\":20839:20851   */\n      revert\n        /* \"#utility.yul\":20863:20980   */\n    tag_147:\n        /* \"#utility.yul\":20972:20973   */\n      0x00\n        /* \"#utility.yul\":20969:20970   */\n      dup1\n        /* \"#utility.yul\":20962:20974   */\n      revert\n        /* \"#utility.yul\":20986:21103   */\n    tag_180:\n        /* \"#utility.yul\":21095:21096   */\n      0x00\n        /* \"#utility.yul\":21092:21093   */\n      dup1\n        /* \"#utility.yul\":21085:21097   */\n      revert\n        /* \"#utility.yul\":21109:21226   */\n    tag_177:\n        /* \"#utility.yul\":21218:21219   */\n      0x00\n        /* \"#utility.yul\":21215:21216   */\n      dup1\n        /* \"#utility.yul\":21208:21220   */\n      revert\n        /* \"#utility.yul\":21232:21334   */\n    tag_244:\n        /* \"#utility.yul\":21273:21279   */\n      0x00\n        /* \"#utility.yul\":21324:21326   */\n      0x1f\n        /* \"#utility.yul\":21320:21327   */\n      not\n        /* \"#utility.yul\":21315:21317   */\n      0x1f\n        /* \"#utility.yul\":21308:21313   */\n      dup4\n        /* \"#utility.yul\":21304:21318   */\n      add\n        /* \"#utility.yul\":21300:21328   */\n      and\n        /* \"#utility.yul\":21290:21328   */\n      swap1\n      pop\n        /* \"#utility.yul\":21232:21334   */\n      swap2\n      swap1\n      pop\n      jump\t// out\n        /* \"#utility.yul\":21340:21512   */\n    tag_256:\n        /* \"#utility.yul\":21480:21504   */\n      0x596f7520617265206e6f7420746865206f776e65722100000000000000000000\n        /* \"#utility.yul\":21476:21477   */\n      0x00\n        /* \"#utility.yul\":21468:21474   */\n      dup3\n        /* \"#utility.yul\":21464:21478   */\n      add\n        /* \"#utility.yul\":21457:21505   */\n      mstore\n        /* \"#utility.yul\":21340:21512   */\n      pop\n      jump\t// out\n        /* \"#utility.yul\":21518:21750   */\n    tag_261:\n        /* \"#utility.yul\":21658:21692   */\n      0x5468652070726f64756374207175616e74697479206973206c65737320746861\n        /* \"#utility.yul\":21654:21655   */\n      0x00\n        /* \"#utility.yul\":21646:21652   */\n      dup3\n        /* \"#utility.yul\":21642:21656   */\n      add\n        /* \"#utility.yul\":21635:21693   */\n      mstore\n        /* \"#utility.yul\":21727:21742   */\n      0x6e20796f752077616e7465642100000000000000000000000000000000000000\n        /* \"#utility.yul\":21722:21724   */\n      0x20\n        /* \"#utility.yul\":21714:21720   */\n      dup3\n        /* \"#utility.yul\":21710:21725   */\n      add\n        /* \"#utility.yul\":21703:21743   */\n      mstore\n        /* \"#utility.yul\":21518:21750   */\n      pop\n      jump\t// out\n        /* \"#utility.yul\":21756:22059   */\n    tag_266:\n        /* \"#utility.yul\":21896:21930   */\n      0x506c656173652073656e6420746865206578616374207072696365206f662074\n        /* \"#utility.yul\":21892:21893   */\n      0x00\n        /* \"#utility.yul\":21884:21890   */\n      dup3\n        /* \"#utility.yul\":21880:21894   */\n      add\n        /* \"#utility.yul\":21873:21931   */\n      mstore\n        /* \"#utility.yul\":21965:21999   */\n      0x68652070726f64756374206d756c7469706c6965642062792074686520717561\n        /* \"#utility.yul\":21960:21962   */\n      0x20\n        /* \"#utility.yul\":21952:21958   */\n      dup3\n        /* \"#utility.yul\":21948:21963   */\n      add\n        /* \"#utility.yul\":21941:22000   */\n      mstore\n        /* \"#utility.yul\":22034:22051   */\n      0x6e7469747920796f752077616e74210000000000000000000000000000000000\n        /* \"#utility.yul\":22029:22031   */\n      0x40\n        /* \"#utility.yul\":22021:22027   */\n      dup3\n        /* \"#utility.yul\":22017:22032   */\n      add\n        /* \"#utility.yul\":22010:22052   */\n      mstore\n        /* \"#utility.yul\":21756:22059   */\n      pop\n      jump\t// out\n        /* \"#utility.yul\":22065:22232   */\n    tag_271:\n        /* \"#utility.yul\":22205:22224   */\n      0x496e76616c6964207175616e7469747921000000000000000000000000000000\n        /* \"#utility.yul\":22201:22202   */\n      0x00\n        /* \"#utility.yul\":22193:22199   */\n      dup3\n        /* \"#utility.yul\":22189:22203   */\n      add\n        /* \"#utility.yul\":22182:22225   */\n      mstore\n        /* \"#utility.yul\":22065:22232   */\n      pop\n      jump\t// out\n        /* \"#utility.yul\":22238:22462   */\n    tag_276:\n        /* \"#utility.yul\":22378:22412   */\n      0x596f75206861766520616c726561647920626f7567687420746869732070726f\n        /* \"#utility.yul\":22374:22375   */\n      0x00\n        /* \"#utility.yul\":22366:22372   */\n      dup3\n        /* \"#utility.yul\":22362:22376   */\n      add\n        /* \"#utility.yul\":22355:22413   */\n      mstore\n        /* \"#utility.yul\":22447:22454   */\n      0x6475637421000000000000000000000000000000000000000000000000000000\n        /* \"#utility.yul\":22442:22444   */\n      0x20\n        /* \"#utility.yul\":22434:22440   */\n      dup3\n        /* \"#utility.yul\":22430:22445   */\n      add\n        /* \"#utility.yul\":22423:22455   */\n      mstore\n        /* \"#utility.yul\":22238:22462   */\n      pop\n      jump\t// out\n        /* \"#utility.yul\":22468:22646   */\n    tag_281:\n        /* \"#utility.yul\":22608:22638   */\n      0x5468652070726f64756374206973206e6f74206578697374696e672100000000\n        /* \"#utility.yul\":22604:22605   */\n      0x00\n        /* \"#utility.yul\":22596:22602   */\n      dup3\n        /* \"#utility.yul\":22592:22606   */\n      add\n        /* \"#utility.yul\":22585:22639   */\n      mstore\n        /* \"#utility.yul\":22468:22646   */\n      pop\n      jump\t// out\n        /* \"#utility.yul\":22652:22875   */\n    tag_286:\n        /* \"#utility.yul\":22792:22826   */\n      0x5468652070726f6475637420697320616c726561647920696e20746865207374\n        /* \"#utility.yul\":22788:22789   */\n      0x00\n        /* \"#utility.yul\":22780:22786   */\n      dup3\n        /* \"#utility.yul\":22776:22790   */\n      add\n        /* \"#utility.yul\":22769:22827   */\n      mstore\n        /* \"#utility.yul\":22861:22867   */\n      0x6f72652100000000000000000000000000000000000000000000000000000000\n        /* \"#utility.yul\":22856:22858   */\n      0x20\n        /* \"#utility.yul\":22848:22854   */\n      dup3\n        /* \"#utility.yul\":22844:22859   */\n      add\n        /* \"#utility.yul\":22837:22868   */\n      mstore\n        /* \"#utility.yul\":22652:22875   */\n      pop\n      jump\t// out\n        /* \"#utility.yul\":22881:23003   */\n    tag_153:\n        /* \"#utility.yul\":22954:22978   */\n      tag_398\n        /* \"#utility.yul\":22972:22977   */\n      dup2\n        /* \"#utility.yul\":22954:22978   */\n      tag_211\n      jump\t// in\n    tag_398:\n        /* \"#utility.yul\":22947:22952   */\n      dup2\n        /* \"#utility.yul\":22944:22979   */\n      eq\n        /* \"#utility.yul\":22934:22997   */\n      tag_399\n      jumpi\n        /* \"#utility.yul\":22993:22994   */\n      0x00\n        /* \"#utility.yul\":22990:22991   */\n      dup1\n        /* \"#utility.yul\":22983:22995   */\n      revert\n        /* \"#utility.yul\":22934:22997   */\n    tag_399:\n        /* \"#utility.yul\":22881:23003   */\n      pop\n      jump\t// out\n        /* \"#utility.yul\":23009:23131   */\n    tag_173:\n        /* \"#utility.yul\":23082:23106   */\n      tag_401\n        /* \"#utility.yul\":23100:23105   */\n      dup2\n        /* \"#utility.yul\":23082:23106   */\n      tag_295\n      jump\t// in\n    tag_401:\n        /* \"#utility.yul\":23075:23080   */\n      dup2\n        /* \"#utility.yul\":23072:23107   */\n      eq\n        /* \"#utility.yul\":23062:23125   */\n      tag_402\n      jumpi\n        /* \"#utility.yul\":23121:23122   */\n      0x00\n        /* \"#utility.yul\":23118:23119   */\n      dup1\n        /* \"#utility.yul\":23111:23123   */\n      revert\n        /* \"#utility.yul\":23062:23125   */\n    tag_402:\n        /* \"#utility.yul\":23009:23131   */\n      pop\n      jump\t// out\n\n    auxdata: 0xa2646970667358221220ed3d5c516e079a1b15e47f0f158af00518465b456bed5fae4d8a50e374fed10564736f6c63430008070033\n}\n",
				"bytecode": {
					"linkReferences": {},
					"object": "608060405234801561001057600080fd5b50336000806101000a81548173ffffffffffffffffffffffffffffffffffffffff021916908373ffffffffffffffffffffffffffffffffffffffff160217905550611746806100606000396000f3fe60806040526004361061007b5760003560e01c80638da5cb5b1161004e5780638da5cb5b14610142578063c29b2f201461016d578063ccc4174a14610198578063fcc93b0b146101d55761007b565b80630a5bd44b146100805780634c437514146100a957806353b62866146100e65780637acc0b2014610102575b600080fd5b34801561008c57600080fd5b506100a760048036038101906100a29190610c02565b6101fe565b005b3480156100b557600080fd5b506100d060048036038101906100cb9190610c76565b61042e565b6040516100dd9190611076565b60405180910390f35b61010060048036038101906100fb9190610d2c565b610464565b005b34801561010e57600080fd5b5061012960048036038101906101249190610cbf565b61074a565b604051610139949392919061118c565b60405180910390f35b34801561014e57600080fd5b50610157610812565b6040516101649190611039565b60405180910390f35b34801561017957600080fd5b50610182610836565b60405161018f9190611054565b60405180910390f35b3480156101a457600080fd5b506101bf60048036038101906101ba9190610cec565b610945565b6040516101cc9190611171565b60405180910390f35b3480156101e157600080fd5b506101fc60048036038101906101f79190610d2c565b61096a565b005b60008054906101000a900473ffffffffffffffffffffffffffffffffffffffff1673ffffffffffffffffffffffffffffffffffffffff163373ffffffffffffffffffffffffffffffffffffffff161461028c576040517f08c379a000000000000000000000000000000000000000000000000000000000815260040161028390611091565b60405180910390fd5b600084849050141580156102a05750600081115b6102a957600080fd5b600284846040516102bb929190611020565b908152602001604051809103902060009054906101000a900460ff1615610317576040517f08c379a000000000000000000000000000000000000000000000000000000000815260040161030e90611151565b60405180910390fd5b60006001805490509050600160028686604051610335929190611020565b908152602001604051809103902060006101000a81548160ff0219169083151502179055506001604051806080016040528083815260200187878080601f016020809104026020016040519081016040528093929190818152602001838380828437600081840152601f19601f820116905080830192505050505050508152602001858152602001848152509080600181540180825580915050600190039060005260206000209060040201600090919091909150600082015181600001556020820151816001019080519060200190610410929190610a6f565b50604082015181600201556060820151816003015550505050505050565b6002818051602081018201805184825260208301602085012081835280955050505050506000915054906101000a900460ff1681565b8160018054905081106104ac576040517f08c379a00000000000000000000000000000000000000000000000000000000081526004016104a390611131565b60405180910390fd5b600082116104ef576040517f08c379a00000000000000000000000000000000000000000000000000000000081526004016104e6906110f1565b60405180910390fd5b600033905060006003600086815260200190815260200160002060008373ffffffffffffffffffffffffffffffffffffffff1673ffffffffffffffffffffffffffffffffffffffff1681526020019081526020016000205414610587576040517f08c379a000000000000000000000000000000000000000000000000000000000815260040161057e90611111565b60405180910390fd5b60006001858154811061059d5761059c611478565b5b9060005260206000209060040201905083816002015410156105f4576040517f08c379a00000000000000000000000000000000000000000000000000000000081526004016105eb906110b1565b60405180910390fd5b6000846001878154811061060b5761060a611478565b5b906000526020600020906004020160030154610627919061129f565b905080341461066b576040517f08c379a0000000000000000000000000000000000000000000000000000000008152600401610662906110d1565b60405180910390fd5b60008054906101000a900473ffffffffffffffffffffffffffffffffffffffff1673ffffffffffffffffffffffffffffffffffffffff166108fc829081150290604051600060405180830381858888f193505050501580156106d1573d6000803e3d6000fd5b50846003600088815260200190815260200160002060008573ffffffffffffffffffffffffffffffffffffffff1673ffffffffffffffffffffffffffffffffffffffff168152602001908152602001600020819055508482600201600082825461073b91906112f9565b92505081905550505050505050565b6001818154811061075a57600080fd5b9060005260206000209060040201600091509050806000015490806001018054610783906113b7565b80601f01602080910402602001604051908101604052809291908181526020018280546107af906113b7565b80156107fc5780601f106107d1576101008083540402835291602001916107fc565b820191906000526020600020905b8154815290600101906020018083116107df57829003601f168201915b5050505050908060020154908060030154905084565b60008054906101000a900473ffffffffffffffffffffffffffffffffffffffff1681565b60606001805480602002602001604051908101604052809291908181526020016000905b8282101561093c578382906000526020600020906004020160405180608001604052908160008201548152602001600182018054610897906113b7565b80601f01602080910402602001604051908101604052809291908181526020018280546108c3906113b7565b80156109105780601f106108e557610100808354040283529160200191610910565b820191906000526020600020905b8154815290600101906020018083116108f357829003601f168201915b50505050508152602001600282015481526020016003820154815250508152602001906001019061085a565b50505050905090565b6003602052816000526040600020602052806000526040600020600091509150505481565b60008054906101000a900473ffffffffffffffffffffffffffffffffffffffff1673ffffffffffffffffffffffffffffffffffffffff163373ffffffffffffffffffffffffffffffffffffffff16146109f8576040517f08c379a00000000000000000000000000000000000000000000000000000000081526004016109ef90611091565b60405180910390fd5b816001805490508110610a40576040517f08c379a0000000000000000000000000000000000000000000000000000000008152600401610a3790611131565b60405180910390fd5b8160018481548110610a5557610a54611478565b5b906000526020600020906004020160020181905550505050565b828054610a7b906113b7565b90600052602060002090601f016020900481019282610a9d5760008555610ae4565b82601f10610ab657805160ff1916838001178555610ae4565b82800160010185558215610ae4579182015b82811115610ae3578251825591602001919060010190610ac8565b5b509050610af19190610af5565b5090565b5b80821115610b0e576000816000905550600101610af6565b5090565b6000610b25610b20846111fd565b6111d8565b905082815260208101848484011115610b4157610b406114e5565b5b610b4c848285611375565b509392505050565b600081359050610b63816116e2565b92915050565b60008083601f840112610b7f57610b7e6114db565b5b8235905067ffffffffffffffff811115610b9c57610b9b6114d6565b5b602083019150836001820283011115610bb857610bb76114e0565b5b9250929050565b600082601f830112610bd457610bd36114db565b5b8135610be4848260208601610b12565b91505092915050565b600081359050610bfc816116f9565b92915050565b60008060008060608587031215610c1c57610c1b6114ef565b5b600085013567ffffffffffffffff811115610c3a57610c396114ea565b5b610c4687828801610b69565b94509450506020610c5987828801610bed565b9250506040610c6a87828801610bed565b91505092959194509250565b600060208284031215610c8c57610c8b6114ef565b5b600082013567ffffffffffffffff811115610caa57610ca96114ea565b5b610cb684828501610bbf565b91505092915050565b600060208284031215610cd557610cd46114ef565b5b6000610ce384828501610bed565b91505092915050565b60008060408385031215610d0357610d026114ef565b5b6000610d1185828601610bed565b9250506020610d2285828601610b54565b9150509250929050565b60008060408385031215610d4357610d426114ef565b5b6000610d5185828601610bed565b9250506020610d6285828601610bed565b9150509250929050565b6000610d788383610f9f565b905092915050565b610d898161132d565b82525050565b6000610d9a8261123e565b610da48185611261565b935083602082028501610db68561122e565b8060005b85811015610df25784840389528151610dd38582610d6c565b9450610dde83611254565b925060208a01995050600181019050610dba565b50829750879550505050505092915050565b610e0d8161133f565b82525050565b6000610e1f8385611294565b9350610e2c838584611375565b82840190509392505050565b6000610e4382611249565b610e4d8185611272565b9350610e5d818560208601611384565b610e66816114f4565b840191505092915050565b6000610e7c82611249565b610e868185611283565b9350610e96818560208601611384565b610e9f816114f4565b840191505092915050565b6000610eb7601683611283565b9150610ec282611505565b602082019050919050565b6000610eda602d83611283565b9150610ee58261152e565b604082019050919050565b6000610efd604f83611283565b9150610f088261157d565b606082019050919050565b6000610f20601183611283565b9150610f2b826115f2565b602082019050919050565b6000610f43602583611283565b9150610f4e8261161b565b604082019050919050565b6000610f66601c83611283565b9150610f718261166a565b602082019050919050565b6000610f89602483611283565b9150610f9482611693565b604082019050919050565b6000608083016000830151610fb76000860182611002565b5060208301518482036020860152610fcf8282610e38565b9150506040830151610fe46040860182611002565b506060830151610ff76060860182611002565b508091505092915050565b61100b8161136b565b82525050565b61101a8161136b565b82525050565b600061102d828486610e13565b91508190509392505050565b600060208201905061104e6000830184610d80565b92915050565b6000602082019050818103600083015261106e8184610d8f565b905092915050565b600060208201905061108b6000830184610e04565b92915050565b600060208201905081810360008301526110aa81610eaa565b9050919050565b600060208201905081810360008301526110ca81610ecd565b9050919050565b600060208201905081810360008301526110ea81610ef0565b9050919050565b6000602082019050818103600083015261110a81610f13565b9050919050565b6000602082019050818103600083015261112a81610f36565b9050919050565b6000602082019050818103600083015261114a81610f59565b9050919050565b6000602082019050818103600083015261116a81610f7c565b9050919050565b60006020820190506111866000830184611011565b92915050565b60006080820190506111a16000830187611011565b81810360208301526111b38186610e71565b90506111c26040830185611011565b6111cf6060830184611011565b95945050505050565b60006111e26111f3565b90506111ee82826113e9565b919050565b6000604051905090565b600067ffffffffffffffff821115611218576112176114a7565b5b611221826114f4565b9050602081019050919050565b6000819050602082019050919050565b600081519050919050565b600081519050919050565b6000602082019050919050565b600082825260208201905092915050565b600082825260208201905092915050565b600082825260208201905092915050565b600081905092915050565b60006112aa8261136b565b91506112b58361136b565b9250817fffffffffffffffffffffffffffffffffffffffffffffffffffffffffffffffff04831182151516156112ee576112ed61141a565b5b828202905092915050565b60006113048261136b565b915061130f8361136b565b9250828210156113225761132161141a565b5b828203905092915050565b60006113388261134b565b9050919050565b60008115159050919050565b600073ffffffffffffffffffffffffffffffffffffffff82169050919050565b6000819050919050565b82818337600083830152505050565b60005b838110156113a2578082015181840152602081019050611387565b838111156113b1576000848401525b50505050565b600060028204905060018216806113cf57607f821691505b602082108114156113e3576113e2611449565b5b50919050565b6113f2826114f4565b810181811067ffffffffffffffff82111715611411576114106114a7565b5b80604052505050565b7f4e487b7100000000000000000000000000000000000000000000000000000000600052601160045260246000fd5b7f4e487b7100000000000000000000000000000000000000000000000000000000600052602260045260246000fd5b7f4e487b7100000000000000000000000000000000000000000000000000000000600052603260045260246000fd5b7f4e487b7100000000000000000000000000000000000000000000000000000000600052604160045260246000fd5b600080fd5b600080fd5b600080fd5b600080fd5b600080fd5b600080fd5b6000601f19601f8301169050919050565b7f596f7520617265206e6f7420746865206f776e65722100000000000000000000600082015250565b7f5468652070726f64756374207175616e74697479206973206c6573732074686160008201527f6e20796f752077616e7465642100000000000000000000000000000000000000602082015250565b7f506c656173652073656e6420746865206578616374207072696365206f66207460008201527f68652070726f64756374206d756c7469706c696564206279207468652071756160208201527f6e7469747920796f752077616e74210000000000000000000000000000000000604082015250565b7f496e76616c6964207175616e7469747921000000000000000000000000000000600082015250565b7f596f75206861766520616c726561647920626f7567687420746869732070726f60008201527f6475637421000000000000000000000000000000000000000000000000000000602082015250565b7f5468652070726f64756374206973206e6f74206578697374696e672100000000600082015250565b7f5468652070726f6475637420697320616c726561647920696e2074686520737460008201527f6f72652100000000000000000000000000000000000000000000000000000000602082015250565b6116eb8161132d565b81146116f657600080fd5b50565b6117028161136b565b811461170d57600080fd5b5056fea2646970667358221220ed3d5c516e079a1b15e47f0f158af00518465b456bed5fae4d8a50e374fed10564736f6c63430008070033",
					"opcodes": "PUSH1 0x80 PUSH1 0x40 MSTORE CALLVALUE DUP1 ISZERO PUSH2 0x10 JUMPI PUSH1 0x0 DUP1 REVERT JUMPDEST POP CALLER PUSH1 0x0 DUP1 PUSH2 0x100 EXP DUP2 SLOAD DUP2 PUSH20 0xFFFFFFFFFFFFFFFFFFFFFFFFFFFFFFFFFFFFFFFF MUL NOT AND SWAP1 DUP4 PUSH20 0xFFFFFFFFFFFFFFFFFFFFFFFFFFFFFFFFFFFFFFFF AND MUL OR SWAP1 SSTORE POP PUSH2 0x1746 DUP1 PUSH2 0x60 PUSH1 0x0 CODECOPY PUSH1 0x0 RETURN INVALID PUSH1 0x80 PUSH1 0x40 MSTORE PUSH1 0x4 CALLDATASIZE LT PUSH2 0x7B JUMPI PUSH1 0x0 CALLDATALOAD PUSH1 0xE0 SHR DUP1 PUSH4 0x8DA5CB5B GT PUSH2 0x4E JUMPI DUP1 PUSH4 0x8DA5CB5B EQ PUSH2 0x142 JUMPI DUP1 PUSH4 0xC29B2F20 EQ PUSH2 0x16D JUMPI DUP1 PUSH4 0xCCC4174A EQ PUSH2 0x198 JUMPI DUP1 PUSH4 0xFCC93B0B EQ PUSH2 0x1D5 JUMPI PUSH2 0x7B JUMP JUMPDEST DUP1 PUSH4 0xA5BD44B EQ PUSH2 0x80 JUMPI DUP1 PUSH4 0x4C437514 EQ PUSH2 0xA9 JUMPI DUP1 PUSH4 0x53B62866 EQ PUSH2 0xE6 JUMPI DUP1 PUSH4 0x7ACC0B20 EQ PUSH2 0x102 JUMPI JUMPDEST PUSH1 0x0 DUP1 REVERT JUMPDEST CALLVALUE DUP1 ISZERO PUSH2 0x8C JUMPI PUSH1 0x0 DUP1 REVERT JUMPDEST POP PUSH2 0xA7 PUSH1 0x4 DUP1 CALLDATASIZE SUB DUP2 ADD SWAP1 PUSH2 0xA2 SWAP2 SWAP1 PUSH2 0xC02 JUMP JUMPDEST PUSH2 0x1FE JUMP JUMPDEST STOP JUMPDEST CALLVALUE DUP1 ISZERO PUSH2 0xB5 JUMPI PUSH1 0x0 DUP1 REVERT JUMPDEST POP PUSH2 0xD0 PUSH1 0x4 DUP1 CALLDATASIZE SUB DUP2 ADD SWAP1 PUSH2 0xCB SWAP2 SWAP1 PUSH2 0xC76 JUMP JUMPDEST PUSH2 0x42E JUMP JUMPDEST PUSH1 0x40 MLOAD PUSH2 0xDD SWAP2 SWAP1 PUSH2 0x1076 JUMP JUMPDEST PUSH1 0x40 MLOAD DUP1 SWAP2 SUB SWAP1 RETURN JUMPDEST PUSH2 0x100 PUSH1 0x4 DUP1 CALLDATASIZE SUB DUP2 ADD SWAP1 PUSH2 0xFB SWAP2 SWAP1 PUSH2 0xD2C JUMP JUMPDEST PUSH2 0x464 JUMP JUMPDEST STOP JUMPDEST CALLVALUE DUP1 ISZERO PUSH2 0x10E JUMPI PUSH1 0x0 DUP1 REVERT JUMPDEST POP PUSH2 0x129 PUSH1 0x4 DUP1 CALLDATASIZE SUB DUP2 ADD SWAP1 PUSH2 0x124 SWAP2 SWAP1 PUSH2 0xCBF JUMP JUMPDEST PUSH2 0x74A JUMP JUMPDEST PUSH1 0x40 MLOAD PUSH2 0x139 SWAP5 SWAP4 SWAP3 SWAP2 SWAP1 PUSH2 0x118C JUMP JUMPDEST PUSH1 0x40 MLOAD DUP1 SWAP2 SUB SWAP1 RETURN JUMPDEST CALLVALUE DUP1 ISZERO PUSH2 0x14E JUMPI PUSH1 0x0 DUP1 REVERT JUMPDEST POP PUSH2 0x157 PUSH2 0x812 JUMP JUMPDEST PUSH1 0x40 MLOAD PUSH2 0x164 SWAP2 SWAP1 PUSH2 0x1039 JUMP JUMPDEST PUSH1 0x40 MLOAD DUP1 SWAP2 SUB SWAP1 RETURN JUMPDEST CALLVALUE DUP1 ISZERO PUSH2 0x179 JUMPI PUSH1 0x0 DUP1 REVERT JUMPDEST POP PUSH2 0x182 PUSH2 0x836 JUMP JUMPDEST PUSH1 0x40 MLOAD PUSH2 0x18F SWAP2 SWAP1 PUSH2 0x1054 JUMP JUMPDEST PUSH1 0x40 MLOAD DUP1 SWAP2 SUB SWAP1 RETURN JUMPDEST CALLVALUE DUP1 ISZERO PUSH2 0x1A4 JUMPI PUSH1 0x0 DUP1 REVERT JUMPDEST POP PUSH2 0x1BF PUSH1 0x4 DUP1 CALLDATASIZE SUB DUP2 ADD SWAP1 PUSH2 0x1BA SWAP2 SWAP1 PUSH2 0xCEC JUMP JUMPDEST PUSH2 0x945 JUMP JUMPDEST PUSH1 0x40 MLOAD PUSH2 0x1CC SWAP2 SWAP1 PUSH2 0x1171 JUMP JUMPDEST PUSH1 0x40 MLOAD DUP1 SWAP2 SUB SWAP1 RETURN JUMPDEST CALLVALUE DUP1 ISZERO PUSH2 0x1E1 JUMPI PUSH1 0x0 DUP1 REVERT JUMPDEST POP PUSH2 0x1FC PUSH1 0x4 DUP1 CALLDATASIZE SUB DUP2 ADD SWAP1 PUSH2 0x1F7 SWAP2 SWAP1 PUSH2 0xD2C JUMP JUMPDEST PUSH2 0x96A JUMP JUMPDEST STOP JUMPDEST PUSH1 0x0 DUP1 SLOAD SWAP1 PUSH2 0x100 EXP SWAP1 DIV PUSH20 0xFFFFFFFFFFFFFFFFFFFFFFFFFFFFFFFFFFFFFFFF AND PUSH20 0xFFFFFFFFFFFFFFFFFFFFFFFFFFFFFFFFFFFFFFFF AND CALLER PUSH20 0xFFFFFFFFFFFFFFFFFFFFFFFFFFFFFFFFFFFFFFFF AND EQ PUSH2 0x28C JUMPI PUSH1 0x40 MLOAD PUSH32 0x8C379A000000000000000000000000000000000000000000000000000000000 DUP2 MSTORE PUSH1 0x4 ADD PUSH2 0x283 SWAP1 PUSH2 0x1091 JUMP JUMPDEST PUSH1 0x40 MLOAD DUP1 SWAP2 SUB SWAP1 REVERT JUMPDEST PUSH1 0x0 DUP5 DUP5 SWAP1 POP EQ ISZERO DUP1 ISZERO PUSH2 0x2A0 JUMPI POP PUSH1 0x0 DUP2 GT JUMPDEST PUSH2 0x2A9 JUMPI PUSH1 0x0 DUP1 REVERT JUMPDEST PUSH1 0x2 DUP5 DUP5 PUSH1 0x40 MLOAD PUSH2 0x2BB SWAP3 SWAP2 SWAP1 PUSH2 0x1020 JUMP JUMPDEST SWAP1 DUP2 MSTORE PUSH1 0x20 ADD PUSH1 0x40 MLOAD DUP1 SWAP2 SUB SWAP1 KECCAK256 PUSH1 0x0 SWAP1 SLOAD SWAP1 PUSH2 0x100 EXP SWAP1 DIV PUSH1 0xFF AND ISZERO PUSH2 0x317 JUMPI PUSH1 0x40 MLOAD PUSH32 0x8C379A000000000000000000000000000000000000000000000000000000000 DUP2 MSTORE PUSH1 0x4 ADD PUSH2 0x30E SWAP1 PUSH2 0x1151 JUMP JUMPDEST PUSH1 0x40 MLOAD DUP1 SWAP2 SUB SWAP1 REVERT JUMPDEST PUSH1 0x0 PUSH1 0x1 DUP1 SLOAD SWAP1 POP SWAP1 POP PUSH1 0x1 PUSH1 0x2 DUP7 DUP7 PUSH1 0x40 MLOAD PUSH2 0x335 SWAP3 SWAP2 SWAP1 PUSH2 0x1020 JUMP JUMPDEST SWAP1 DUP2 MSTORE PUSH1 0x20 ADD PUSH1 0x40 MLOAD DUP1 SWAP2 SUB SWAP1 KECCAK256 PUSH1 0x0 PUSH2 0x100 EXP DUP2 SLOAD DUP2 PUSH1 0xFF MUL NOT AND SWAP1 DUP4 ISZERO ISZERO MUL OR SWAP1 SSTORE POP PUSH1 0x1 PUSH1 0x40 MLOAD DUP1 PUSH1 0x80 ADD PUSH1 0x40 MSTORE DUP1 DUP4 DUP2 MSTORE PUSH1 0x20 ADD DUP8 DUP8 DUP1 DUP1 PUSH1 0x1F ADD PUSH1 0x20 DUP1 SWAP2 DIV MUL PUSH1 0x20 ADD PUSH1 0x40 MLOAD SWAP1 DUP2 ADD PUSH1 0x40 MSTORE DUP1 SWAP4 SWAP3 SWAP2 SWAP1 DUP2 DUP2 MSTORE PUSH1 0x20 ADD DUP4 DUP4 DUP1 DUP3 DUP5 CALLDATACOPY PUSH1 0x0 DUP2 DUP5 ADD MSTORE PUSH1 0x1F NOT PUSH1 0x1F DUP3 ADD AND SWAP1 POP DUP1 DUP4 ADD SWAP3 POP POP POP POP POP POP POP DUP2 MSTORE PUSH1 0x20 ADD DUP6 DUP2 MSTORE PUSH1 0x20 ADD DUP5 DUP2 MSTORE POP SWAP1 DUP1 PUSH1 0x1 DUP2 SLOAD ADD DUP1 DUP3 SSTORE DUP1 SWAP2 POP POP PUSH1 0x1 SWAP1 SUB SWAP1 PUSH1 0x0 MSTORE PUSH1 0x20 PUSH1 0x0 KECCAK256 SWAP1 PUSH1 0x4 MUL ADD PUSH1 0x0 SWAP1 SWAP2 SWAP1 SWAP2 SWAP1 SWAP2 POP PUSH1 0x0 DUP3 ADD MLOAD DUP2 PUSH1 0x0 ADD SSTORE PUSH1 0x20 DUP3 ADD MLOAD DUP2 PUSH1 0x1 ADD SWAP1 DUP1 MLOAD SWAP1 PUSH1 0x20 ADD SWAP1 PUSH2 0x410 SWAP3 SWAP2 SWAP1 PUSH2 0xA6F JUMP JUMPDEST POP PUSH1 0x40 DUP3 ADD MLOAD DUP2 PUSH1 0x2 ADD SSTORE PUSH1 0x60 DUP3 ADD MLOAD DUP2 PUSH1 0x3 ADD SSTORE POP POP POP POP POP POP POP JUMP JUMPDEST PUSH1 0x2 DUP2 DUP1 MLOAD PUSH1 0x20 DUP2 ADD DUP3 ADD DUP1 MLOAD DUP5 DUP3 MSTORE PUSH1 0x20 DUP4 ADD PUSH1 0x20 DUP6 ADD KECCAK256 DUP2 DUP4 MSTORE DUP1 SWAP6 POP POP POP POP POP POP PUSH1 0x0 SWAP2 POP SLOAD SWAP1 PUSH2 0x100 EXP SWAP1 DIV PUSH1 0xFF AND DUP2 JUMP JUMPDEST DUP2 PUSH1 0x1 DUP1 SLOAD SWAP1 POP DUP2 LT PUSH2 0x4AC JUMPI PUSH1 0x40 MLOAD PUSH32 0x8C379A000000000000000000000000000000000000000000000000000000000 DUP2 MSTORE PUSH1 0x4 ADD PUSH2 0x4A3 SWAP1 PUSH2 0x1131 JUMP JUMPDEST PUSH1 0x40 MLOAD DUP1 SWAP2 SUB SWAP1 REVERT JUMPDEST PUSH1 0x0 DUP3 GT PUSH2 0x4EF JUMPI PUSH1 0x40 MLOAD PUSH32 0x8C379A000000000000000000000000000000000000000000000000000000000 DUP2 MSTORE PUSH1 0x4 ADD PUSH2 0x4E6 SWAP1 PUSH2 0x10F1 JUMP JUMPDEST PUSH1 0x40 MLOAD DUP1 SWAP2 SUB SWAP1 REVERT JUMPDEST PUSH1 0x0 CALLER SWAP1 POP PUSH1 0x0 PUSH1 0x3 PUSH1 0x0 DUP7 DUP2 MSTORE PUSH1 0x20 ADD SWAP1 DUP2 MSTORE PUSH1 0x20 ADD PUSH1 0x0 KECCAK256 PUSH1 0x0 DUP4 PUSH20 0xFFFFFFFFFFFFFFFFFFFFFFFFFFFFFFFFFFFFFFFF AND PUSH20 0xFFFFFFFFFFFFFFFFFFFFFFFFFFFFFFFFFFFFFFFF AND DUP2 MSTORE PUSH1 0x20 ADD SWAP1 DUP2 MSTORE PUSH1 0x20 ADD PUSH1 0x0 KECCAK256 SLOAD EQ PUSH2 0x587 JUMPI PUSH1 0x40 MLOAD PUSH32 0x8C379A000000000000000000000000000000000000000000000000000000000 DUP2 MSTORE PUSH1 0x4 ADD PUSH2 0x57E SWAP1 PUSH2 0x1111 JUMP JUMPDEST PUSH1 0x40 MLOAD DUP1 SWAP2 SUB SWAP1 REVERT JUMPDEST PUSH1 0x0 PUSH1 0x1 DUP6 DUP2 SLOAD DUP2 LT PUSH2 0x59D JUMPI PUSH2 0x59C PUSH2 0x1478 JUMP JUMPDEST JUMPDEST SWAP1 PUSH1 0x0 MSTORE PUSH1 0x20 PUSH1 0x0 KECCAK256 SWAP1 PUSH1 0x4 MUL ADD SWAP1 POP DUP4 DUP2 PUSH1 0x2 ADD SLOAD LT ISZERO PUSH2 0x5F4 JUMPI PUSH1 0x40 MLOAD PUSH32 0x8C379A000000000000000000000000000000000000000000000000000000000 DUP2 MSTORE PUSH1 0x4 ADD PUSH2 0x5EB SWAP1 PUSH2 0x10B1 JUMP JUMPDEST PUSH1 0x40 MLOAD DUP1 SWAP2 SUB SWAP1 REVERT JUMPDEST PUSH1 0x0 DUP5 PUSH1 0x1 DUP8 DUP2 SLOAD DUP2 LT PUSH2 0x60B JUMPI PUSH2 0x60A PUSH2 0x1478 JUMP JUMPDEST JUMPDEST SWAP1 PUSH1 0x0 MSTORE PUSH1 0x20 PUSH1 0x0 KECCAK256 SWAP1 PUSH1 0x4 MUL ADD PUSH1 0x3 ADD SLOAD PUSH2 0x627 SWAP2 SWAP1 PUSH2 0x129F JUMP JUMPDEST SWAP1 POP DUP1 CALLVALUE EQ PUSH2 0x66B JUMPI PUSH1 0x40 MLOAD PUSH32 0x8C379A000000000000000000000000000000000000000000000000000000000 DUP2 MSTORE PUSH1 0x4 ADD PUSH2 0x662 SWAP1 PUSH2 0x10D1 JUMP JUMPDEST PUSH1 0x40 MLOAD DUP1 SWAP2 SUB SWAP1 REVERT JUMPDEST PUSH1 0x0 DUP1 SLOAD SWAP1 PUSH2 0x100 EXP SWAP1 DIV PUSH20 0xFFFFFFFFFFFFFFFFFFFFFFFFFFFFFFFFFFFFFFFF AND PUSH20 0xFFFFFFFFFFFFFFFFFFFFFFFFFFFFFFFFFFFFFFFF AND PUSH2 0x8FC DUP3 SWAP1 DUP2 ISZERO MUL SWAP1 PUSH1 0x40 MLOAD PUSH1 0x0 PUSH1 0x40 MLOAD DUP1 DUP4 SUB DUP2 DUP6 DUP9 DUP9 CALL SWAP4 POP POP POP POP ISZERO DUP1 ISZERO PUSH2 0x6D1 JUMPI RETURNDATASIZE PUSH1 0x0 DUP1 RETURNDATACOPY RETURNDATASIZE PUSH1 0x0 REVERT JUMPDEST POP DUP5 PUSH1 0x3 PUSH1 0x0 DUP9 DUP2 MSTORE PUSH1 0x20 ADD SWAP1 DUP2 MSTORE PUSH1 0x20 ADD PUSH1 0x0 KECCAK256 PUSH1 0x0 DUP6 PUSH20 0xFFFFFFFFFFFFFFFFFFFFFFFFFFFFFFFFFFFFFFFF AND PUSH20 0xFFFFFFFFFFFFFFFFFFFFFFFFFFFFFFFFFFFFFFFF AND DUP2 MSTORE PUSH1 0x20 ADD SWAP1 DUP2 MSTORE PUSH1 0x20 ADD PUSH1 0x0 KECCAK256 DUP2 SWAP1 SSTORE POP DUP5 DUP3 PUSH1 0x2 ADD PUSH1 0x0 DUP3 DUP3 SLOAD PUSH2 0x73B SWAP2 SWAP1 PUSH2 0x12F9 JUMP JUMPDEST SWAP3 POP POP DUP2 SWAP1 SSTORE POP POP POP POP POP POP POP JUMP JUMPDEST PUSH1 0x1 DUP2 DUP2 SLOAD DUP2 LT PUSH2 0x75A JUMPI PUSH1 0x0 DUP1 REVERT JUMPDEST SWAP1 PUSH1 0x0 MSTORE PUSH1 0x20 PUSH1 0x0 KECCAK256 SWAP1 PUSH1 0x4 MUL ADD PUSH1 0x0 SWAP2 POP SWAP1 POP DUP1 PUSH1 0x0 ADD SLOAD SWAP1 DUP1 PUSH1 0x1 ADD DUP1 SLOAD PUSH2 0x783 SWAP1 PUSH2 0x13B7 JUMP JUMPDEST DUP1 PUSH1 0x1F ADD PUSH1 0x20 DUP1 SWAP2 DIV MUL PUSH1 0x20 ADD PUSH1 0x40 MLOAD SWAP1 DUP2 ADD PUSH1 0x40 MSTORE DUP1 SWAP3 SWAP2 SWAP1 DUP2 DUP2 MSTORE PUSH1 0x20 ADD DUP3 DUP1 SLOAD PUSH2 0x7AF SWAP1 PUSH2 0x13B7 JUMP JUMPDEST DUP1 ISZERO PUSH2 0x7FC JUMPI DUP1 PUSH1 0x1F LT PUSH2 0x7D1 JUMPI PUSH2 0x100 DUP1 DUP4 SLOAD DIV MUL DUP4 MSTORE SWAP2 PUSH1 0x20 ADD SWAP2 PUSH2 0x7FC JUMP JUMPDEST DUP3 ADD SWAP2 SWAP1 PUSH1 0x0 MSTORE PUSH1 0x20 PUSH1 0x0 KECCAK256 SWAP1 JUMPDEST DUP2 SLOAD DUP2 MSTORE SWAP1 PUSH1 0x1 ADD SWAP1 PUSH1 0x20 ADD DUP1 DUP4 GT PUSH2 0x7DF JUMPI DUP3 SWAP1 SUB PUSH1 0x1F AND DUP3 ADD SWAP2 JUMPDEST POP POP POP POP POP SWAP1 DUP1 PUSH1 0x2 ADD SLOAD SWAP1 DUP1 PUSH1 0x3 ADD SLOAD SWAP1 POP DUP5 JUMP JUMPDEST PUSH1 0x0 DUP1 SLOAD SWAP1 PUSH2 0x100 EXP SWAP1 DIV PUSH20 0xFFFFFFFFFFFFFFFFFFFFFFFFFFFFFFFFFFFFFFFF AND DUP2 JUMP JUMPDEST PUSH1 0x60 PUSH1 0x1 DUP1 SLOAD DUP1 PUSH1 0x20 MUL PUSH1 0x20 ADD PUSH1 0x40 MLOAD SWAP1 DUP2 ADD PUSH1 0x40 MSTORE DUP1 SWAP3 SWAP2 SWAP1 DUP2 DUP2 MSTORE PUSH1 0x20 ADD PUSH1 0x0 SWAP1 JUMPDEST DUP3 DUP3 LT ISZERO PUSH2 0x93C JUMPI DUP4 DUP3 SWAP1 PUSH1 0x0 MSTORE PUSH1 0x20 PUSH1 0x0 KECCAK256 SWAP1 PUSH1 0x4 MUL ADD PUSH1 0x40 MLOAD DUP1 PUSH1 0x80 ADD PUSH1 0x40 MSTORE SWAP1 DUP2 PUSH1 0x0 DUP3 ADD SLOAD DUP2 MSTORE PUSH1 0x20 ADD PUSH1 0x1 DUP3 ADD DUP1 SLOAD PUSH2 0x897 SWAP1 PUSH2 0x13B7 JUMP JUMPDEST DUP1 PUSH1 0x1F ADD PUSH1 0x20 DUP1 SWAP2 DIV MUL PUSH1 0x20 ADD PUSH1 0x40 MLOAD SWAP1 DUP2 ADD PUSH1 0x40 MSTORE DUP1 SWAP3 SWAP2 SWAP1 DUP2 DUP2 MSTORE PUSH1 0x20 ADD DUP3 DUP1 SLOAD PUSH2 0x8C3 SWAP1 PUSH2 0x13B7 JUMP JUMPDEST DUP1 ISZERO PUSH2 0x910 JUMPI DUP1 PUSH1 0x1F LT PUSH2 0x8E5 JUMPI PUSH2 0x100 DUP1 DUP4 SLOAD DIV MUL DUP4 MSTORE SWAP2 PUSH1 0x20 ADD SWAP2 PUSH2 0x910 JUMP JUMPDEST DUP3 ADD SWAP2 SWAP1 PUSH1 0x0 MSTORE PUSH1 0x20 PUSH1 0x0 KECCAK256 SWAP1 JUMPDEST DUP2 SLOAD DUP2 MSTORE SWAP1 PUSH1 0x1 ADD SWAP1 PUSH1 0x20 ADD DUP1 DUP4 GT PUSH2 0x8F3 JUMPI DUP3 SWAP1 SUB PUSH1 0x1F AND DUP3 ADD SWAP2 JUMPDEST POP POP POP POP POP DUP2 MSTORE PUSH1 0x20 ADD PUSH1 0x2 DUP3 ADD SLOAD DUP2 MSTORE PUSH1 0x20 ADD PUSH1 0x3 DUP3 ADD SLOAD DUP2 MSTORE POP POP DUP2 MSTORE PUSH1 0x20 ADD SWAP1 PUSH1 0x1 ADD SWAP1 PUSH2 0x85A JUMP JUMPDEST POP POP POP POP SWAP1 POP SWAP1 JUMP JUMPDEST PUSH1 0x3 PUSH1 0x20 MSTORE DUP2 PUSH1 0x0 MSTORE PUSH1 0x40 PUSH1 0x0 KECCAK256 PUSH1 0x20 MSTORE DUP1 PUSH1 0x0 MSTORE PUSH1 0x40 PUSH1 0x0 KECCAK256 PUSH1 0x0 SWAP2 POP SWAP2 POP POP SLOAD DUP2 JUMP JUMPDEST PUSH1 0x0 DUP1 SLOAD SWAP1 PUSH2 0x100 EXP SWAP1 DIV PUSH20 0xFFFFFFFFFFFFFFFFFFFFFFFFFFFFFFFFFFFFFFFF AND PUSH20 0xFFFFFFFFFFFFFFFFFFFFFFFFFFFFFFFFFFFFFFFF AND CALLER PUSH20 0xFFFFFFFFFFFFFFFFFFFFFFFFFFFFFFFFFFFFFFFF AND EQ PUSH2 0x9F8 JUMPI PUSH1 0x40 MLOAD PUSH32 0x8C379A000000000000000000000000000000000000000000000000000000000 DUP2 MSTORE PUSH1 0x4 ADD PUSH2 0x9EF SWAP1 PUSH2 0x1091 JUMP JUMPDEST PUSH1 0x40 MLOAD DUP1 SWAP2 SUB SWAP1 REVERT JUMPDEST DUP2 PUSH1 0x1 DUP1 SLOAD SWAP1 POP DUP2 LT PUSH2 0xA40 JUMPI PUSH1 0x40 MLOAD PUSH32 0x8C379A000000000000000000000000000000000000000000000000000000000 DUP2 MSTORE PUSH1 0x4 ADD PUSH2 0xA37 SWAP1 PUSH2 0x1131 JUMP JUMPDEST PUSH1 0x40 MLOAD DUP1 SWAP2 SUB SWAP1 REVERT JUMPDEST DUP2 PUSH1 0x1 DUP5 DUP2 SLOAD DUP2 LT PUSH2 0xA55 JUMPI PUSH2 0xA54 PUSH2 0x1478 JUMP JUMPDEST JUMPDEST SWAP1 PUSH1 0x0 MSTORE PUSH1 0x20 PUSH1 0x0 KECCAK256 SWAP1 PUSH1 0x4 MUL ADD PUSH1 0x2 ADD DUP2 SWAP1 SSTORE POP POP POP POP JUMP JUMPDEST DUP3 DUP1 SLOAD PUSH2 0xA7B SWAP1 PUSH2 0x13B7 JUMP JUMPDEST SWAP1 PUSH1 0x0 MSTORE PUSH1 0x20 PUSH1 0x0 KECCAK256 SWAP1 PUSH1 0x1F ADD PUSH1 0x20 SWAP1 DIV DUP2 ADD SWAP3 DUP3 PUSH2 0xA9D JUMPI PUSH1 0x0 DUP6 SSTORE PUSH2 0xAE4 JUMP JUMPDEST DUP3 PUSH1 0x1F LT PUSH2 0xAB6 JUMPI DUP1 MLOAD PUSH1 0xFF NOT AND DUP4 DUP1 ADD OR DUP6 SSTORE PUSH2 0xAE4 JUMP JUMPDEST DUP3 DUP1 ADD PUSH1 0x1 ADD DUP6 SSTORE DUP3 ISZERO PUSH2 0xAE4 JUMPI SWAP2 DUP3 ADD JUMPDEST DUP3 DUP2 GT ISZERO PUSH2 0xAE3 JUMPI DUP3 MLOAD DUP3 SSTORE SWAP2 PUSH1 0x20 ADD SWAP2 SWAP1 PUSH1 0x1 ADD SWAP1 PUSH2 0xAC8 JUMP JUMPDEST JUMPDEST POP SWAP1 POP PUSH2 0xAF1 SWAP2 SWAP1 PUSH2 0xAF5 JUMP JUMPDEST POP SWAP1 JUMP JUMPDEST JUMPDEST DUP1 DUP3 GT ISZERO PUSH2 0xB0E JUMPI PUSH1 0x0 DUP2 PUSH1 0x0 SWAP1 SSTORE POP PUSH1 0x1 ADD PUSH2 0xAF6 JUMP JUMPDEST POP SWAP1 JUMP JUMPDEST PUSH1 0x0 PUSH2 0xB25 PUSH2 0xB20 DUP5 PUSH2 0x11FD JUMP JUMPDEST PUSH2 0x11D8 JUMP JUMPDEST SWAP1 POP DUP3 DUP2 MSTORE PUSH1 0x20 DUP2 ADD DUP5 DUP5 DUP5 ADD GT ISZERO PUSH2 0xB41 JUMPI PUSH2 0xB40 PUSH2 0x14E5 JUMP JUMPDEST JUMPDEST PUSH2 0xB4C DUP5 DUP3 DUP6 PUSH2 0x1375 JUMP JUMPDEST POP SWAP4 SWAP3 POP POP POP JUMP JUMPDEST PUSH1 0x0 DUP2 CALLDATALOAD SWAP1 POP PUSH2 0xB63 DUP2 PUSH2 0x16E2 JUMP JUMPDEST SWAP3 SWAP2 POP POP JUMP JUMPDEST PUSH1 0x0 DUP1 DUP4 PUSH1 0x1F DUP5 ADD SLT PUSH2 0xB7F JUMPI PUSH2 0xB7E PUSH2 0x14DB JUMP JUMPDEST JUMPDEST DUP3 CALLDATALOAD SWAP1 POP PUSH8 0xFFFFFFFFFFFFFFFF DUP2 GT ISZERO PUSH2 0xB9C JUMPI PUSH2 0xB9B PUSH2 0x14D6 JUMP JUMPDEST JUMPDEST PUSH1 0x20 DUP4 ADD SWAP2 POP DUP4 PUSH1 0x1 DUP3 MUL DUP4 ADD GT ISZERO PUSH2 0xBB8 JUMPI PUSH2 0xBB7 PUSH2 0x14E0 JUMP JUMPDEST JUMPDEST SWAP3 POP SWAP3 SWAP1 POP JUMP JUMPDEST PUSH1 0x0 DUP3 PUSH1 0x1F DUP4 ADD SLT PUSH2 0xBD4 JUMPI PUSH2 0xBD3 PUSH2 0x14DB JUMP JUMPDEST JUMPDEST DUP2 CALLDATALOAD PUSH2 0xBE4 DUP5 DUP3 PUSH1 0x20 DUP7 ADD PUSH2 0xB12 JUMP JUMPDEST SWAP2 POP POP SWAP3 SWAP2 POP POP JUMP JUMPDEST PUSH1 0x0 DUP2 CALLDATALOAD SWAP1 POP PUSH2 0xBFC DUP2 PUSH2 0x16F9 JUMP JUMPDEST SWAP3 SWAP2 POP POP JUMP JUMPDEST PUSH1 0x0 DUP1 PUSH1 0x0 DUP1 PUSH1 0x60 DUP6 DUP8 SUB SLT ISZERO PUSH2 0xC1C JUMPI PUSH2 0xC1B PUSH2 0x14EF JUMP JUMPDEST JUMPDEST PUSH1 0x0 DUP6 ADD CALLDATALOAD PUSH8 0xFFFFFFFFFFFFFFFF DUP2 GT ISZERO PUSH2 0xC3A JUMPI PUSH2 0xC39 PUSH2 0x14EA JUMP JUMPDEST JUMPDEST PUSH2 0xC46 DUP8 DUP3 DUP9 ADD PUSH2 0xB69 JUMP JUMPDEST SWAP5 POP SWAP5 POP POP PUSH1 0x20 PUSH2 0xC59 DUP8 DUP3 DUP9 ADD PUSH2 0xBED JUMP JUMPDEST SWAP3 POP POP PUSH1 0x40 PUSH2 0xC6A DUP8 DUP3 DUP9 ADD PUSH2 0xBED JUMP JUMPDEST SWAP2 POP POP SWAP3 SWAP6 SWAP2 SWAP5 POP SWAP3 POP JUMP JUMPDEST PUSH1 0x0 PUSH1 0x20 DUP3 DUP5 SUB SLT ISZERO PUSH2 0xC8C JUMPI PUSH2 0xC8B PUSH2 0x14EF JUMP JUMPDEST JUMPDEST PUSH1 0x0 DUP3 ADD CALLDATALOAD PUSH8 0xFFFFFFFFFFFFFFFF DUP2 GT ISZERO PUSH2 0xCAA JUMPI PUSH2 0xCA9 PUSH2 0x14EA JUMP JUMPDEST JUMPDEST PUSH2 0xCB6 DUP5 DUP3 DUP6 ADD PUSH2 0xBBF JUMP JUMPDEST SWAP2 POP POP SWAP3 SWAP2 POP POP JUMP JUMPDEST PUSH1 0x0 PUSH1 0x20 DUP3 DUP5 SUB SLT ISZERO PUSH2 0xCD5 JUMPI PUSH2 0xCD4 PUSH2 0x14EF JUMP JUMPDEST JUMPDEST PUSH1 0x0 PUSH2 0xCE3 DUP5 DUP3 DUP6 ADD PUSH2 0xBED JUMP JUMPDEST SWAP2 POP POP SWAP3 SWAP2 POP POP JUMP JUMPDEST PUSH1 0x0 DUP1 PUSH1 0x40 DUP4 DUP6 SUB SLT ISZERO PUSH2 0xD03 JUMPI PUSH2 0xD02 PUSH2 0x14EF JUMP JUMPDEST JUMPDEST PUSH1 0x0 PUSH2 0xD11 DUP6 DUP3 DUP7 ADD PUSH2 0xBED JUMP JUMPDEST SWAP3 POP POP PUSH1 0x20 PUSH2 0xD22 DUP6 DUP3 DUP7 ADD PUSH2 0xB54 JUMP JUMPDEST SWAP2 POP POP SWAP3 POP SWAP3 SWAP1 POP JUMP JUMPDEST PUSH1 0x0 DUP1 PUSH1 0x40 DUP4 DUP6 SUB SLT ISZERO PUSH2 0xD43 JUMPI PUSH2 0xD42 PUSH2 0x14EF JUMP JUMPDEST JUMPDEST PUSH1 0x0 PUSH2 0xD51 DUP6 DUP3 DUP7 ADD PUSH2 0xBED JUMP JUMPDEST SWAP3 POP POP PUSH1 0x20 PUSH2 0xD62 DUP6 DUP3 DUP7 ADD PUSH2 0xBED JUMP JUMPDEST SWAP2 POP POP SWAP3 POP SWAP3 SWAP1 POP JUMP JUMPDEST PUSH1 0x0 PUSH2 0xD78 DUP4 DUP4 PUSH2 0xF9F JUMP JUMPDEST SWAP1 POP SWAP3 SWAP2 POP POP JUMP JUMPDEST PUSH2 0xD89 DUP2 PUSH2 0x132D JUMP JUMPDEST DUP3 MSTORE POP POP JUMP JUMPDEST PUSH1 0x0 PUSH2 0xD9A DUP3 PUSH2 0x123E JUMP JUMPDEST PUSH2 0xDA4 DUP2 DUP6 PUSH2 0x1261 JUMP JUMPDEST SWAP4 POP DUP4 PUSH1 0x20 DUP3 MUL DUP6 ADD PUSH2 0xDB6 DUP6 PUSH2 0x122E JUMP JUMPDEST DUP1 PUSH1 0x0 JUMPDEST DUP6 DUP2 LT ISZERO PUSH2 0xDF2 JUMPI DUP5 DUP5 SUB DUP10 MSTORE DUP2 MLOAD PUSH2 0xDD3 DUP6 DUP3 PUSH2 0xD6C JUMP JUMPDEST SWAP5 POP PUSH2 0xDDE DUP4 PUSH2 0x1254 JUMP JUMPDEST SWAP3 POP PUSH1 0x20 DUP11 ADD SWAP10 POP POP PUSH1 0x1 DUP2 ADD SWAP1 POP PUSH2 0xDBA JUMP JUMPDEST POP DUP3 SWAP8 POP DUP8 SWAP6 POP POP POP POP POP POP SWAP3 SWAP2 POP POP JUMP JUMPDEST PUSH2 0xE0D DUP2 PUSH2 0x133F JUMP JUMPDEST DUP3 MSTORE POP POP JUMP JUMPDEST PUSH1 0x0 PUSH2 0xE1F DUP4 DUP6 PUSH2 0x1294 JUMP JUMPDEST SWAP4 POP PUSH2 0xE2C DUP4 DUP6 DUP5 PUSH2 0x1375 JUMP JUMPDEST DUP3 DUP5 ADD SWAP1 POP SWAP4 SWAP3 POP POP POP JUMP JUMPDEST PUSH1 0x0 PUSH2 0xE43 DUP3 PUSH2 0x1249 JUMP JUMPDEST PUSH2 0xE4D DUP2 DUP6 PUSH2 0x1272 JUMP JUMPDEST SWAP4 POP PUSH2 0xE5D DUP2 DUP6 PUSH1 0x20 DUP7 ADD PUSH2 0x1384 JUMP JUMPDEST PUSH2 0xE66 DUP2 PUSH2 0x14F4 JUMP JUMPDEST DUP5 ADD SWAP2 POP POP SWAP3 SWAP2 POP POP JUMP JUMPDEST PUSH1 0x0 PUSH2 0xE7C DUP3 PUSH2 0x1249 JUMP JUMPDEST PUSH2 0xE86 DUP2 DUP6 PUSH2 0x1283 JUMP JUMPDEST SWAP4 POP PUSH2 0xE96 DUP2 DUP6 PUSH1 0x20 DUP7 ADD PUSH2 0x1384 JUMP JUMPDEST PUSH2 0xE9F DUP2 PUSH2 0x14F4 JUMP JUMPDEST DUP5 ADD SWAP2 POP POP SWAP3 SWAP2 POP POP JUMP JUMPDEST PUSH1 0x0 PUSH2 0xEB7 PUSH1 0x16 DUP4 PUSH2 0x1283 JUMP JUMPDEST SWAP2 POP PUSH2 0xEC2 DUP3 PUSH2 0x1505 JUMP JUMPDEST PUSH1 0x20 DUP3 ADD SWAP1 POP SWAP2 SWAP1 POP JUMP JUMPDEST PUSH1 0x0 PUSH2 0xEDA PUSH1 0x2D DUP4 PUSH2 0x1283 JUMP JUMPDEST SWAP2 POP PUSH2 0xEE5 DUP3 PUSH2 0x152E JUMP JUMPDEST PUSH1 0x40 DUP3 ADD SWAP1 POP SWAP2 SWAP1 POP JUMP JUMPDEST PUSH1 0x0 PUSH2 0xEFD PUSH1 0x4F DUP4 PUSH2 0x1283 JUMP JUMPDEST SWAP2 POP PUSH2 0xF08 DUP3 PUSH2 0x157D JUMP JUMPDEST PUSH1 0x60 DUP3 ADD SWAP1 POP SWAP2 SWAP1 POP JUMP JUMPDEST PUSH1 0x0 PUSH2 0xF20 PUSH1 0x11 DUP4 PUSH2 0x1283 JUMP JUMPDEST SWAP2 POP PUSH2 0xF2B DUP3 PUSH2 0x15F2 JUMP JUMPDEST PUSH1 0x20 DUP3 ADD SWAP1 POP SWAP2 SWAP1 POP JUMP JUMPDEST PUSH1 0x0 PUSH2 0xF43 PUSH1 0x25 DUP4 PUSH2 0x1283 JUMP JUMPDEST SWAP2 POP PUSH2 0xF4E DUP3 PUSH2 0x161B JUMP JUMPDEST PUSH1 0x40 DUP3 ADD SWAP1 POP SWAP2 SWAP1 POP JUMP JUMPDEST PUSH1 0x0 PUSH2 0xF66 PUSH1 0x1C DUP4 PUSH2 0x1283 JUMP JUMPDEST SWAP2 POP PUSH2 0xF71 DUP3 PUSH2 0x166A JUMP JUMPDEST PUSH1 0x20 DUP3 ADD SWAP1 POP SWAP2 SWAP1 POP JUMP JUMPDEST PUSH1 0x0 PUSH2 0xF89 PUSH1 0x24 DUP4 PUSH2 0x1283 JUMP JUMPDEST SWAP2 POP PUSH2 0xF94 DUP3 PUSH2 0x1693 JUMP JUMPDEST PUSH1 0x40 DUP3 ADD SWAP1 POP SWAP2 SWAP1 POP JUMP JUMPDEST PUSH1 0x0 PUSH1 0x80 DUP4 ADD PUSH1 0x0 DUP4 ADD MLOAD PUSH2 0xFB7 PUSH1 0x0 DUP7 ADD DUP3 PUSH2 0x1002 JUMP JUMPDEST POP PUSH1 0x20 DUP4 ADD MLOAD DUP5 DUP3 SUB PUSH1 0x20 DUP7 ADD MSTORE PUSH2 0xFCF DUP3 DUP3 PUSH2 0xE38 JUMP JUMPDEST SWAP2 POP POP PUSH1 0x40 DUP4 ADD MLOAD PUSH2 0xFE4 PUSH1 0x40 DUP7 ADD DUP3 PUSH2 0x1002 JUMP JUMPDEST POP PUSH1 0x60 DUP4 ADD MLOAD PUSH2 0xFF7 PUSH1 0x60 DUP7 ADD DUP3 PUSH2 0x1002 JUMP JUMPDEST POP DUP1 SWAP2 POP POP SWAP3 SWAP2 POP POP JUMP JUMPDEST PUSH2 0x100B DUP2 PUSH2 0x136B JUMP JUMPDEST DUP3 MSTORE POP POP JUMP JUMPDEST PUSH2 0x101A DUP2 PUSH2 0x136B JUMP JUMPDEST DUP3 MSTORE POP POP JUMP JUMPDEST PUSH1 0x0 PUSH2 0x102D DUP3 DUP5 DUP7 PUSH2 0xE13 JUMP JUMPDEST SWAP2 POP DUP2 SWAP1 POP SWAP4 SWAP3 POP POP POP JUMP JUMPDEST PUSH1 0x0 PUSH1 0x20 DUP3 ADD SWAP1 POP PUSH2 0x104E PUSH1 0x0 DUP4 ADD DUP5 PUSH2 0xD80 JUMP JUMPDEST SWAP3 SWAP2 POP POP JUMP JUMPDEST PUSH1 0x0 PUSH1 0x20 DUP3 ADD SWAP1 POP DUP2 DUP2 SUB PUSH1 0x0 DUP4 ADD MSTORE PUSH2 0x106E DUP2 DUP5 PUSH2 0xD8F JUMP JUMPDEST SWAP1 POP SWAP3 SWAP2 POP POP JUMP JUMPDEST PUSH1 0x0 PUSH1 0x20 DUP3 ADD SWAP1 POP PUSH2 0x108B PUSH1 0x0 DUP4 ADD DUP5 PUSH2 0xE04 JUMP JUMPDEST SWAP3 SWAP2 POP POP JUMP JUMPDEST PUSH1 0x0 PUSH1 0x20 DUP3 ADD SWAP1 POP DUP2 DUP2 SUB PUSH1 0x0 DUP4 ADD MSTORE PUSH2 0x10AA DUP2 PUSH2 0xEAA JUMP JUMPDEST SWAP1 POP SWAP2 SWAP1 POP JUMP JUMPDEST PUSH1 0x0 PUSH1 0x20 DUP3 ADD SWAP1 POP DUP2 DUP2 SUB PUSH1 0x0 DUP4 ADD MSTORE PUSH2 0x10CA DUP2 PUSH2 0xECD JUMP JUMPDEST SWAP1 POP SWAP2 SWAP1 POP JUMP JUMPDEST PUSH1 0x0 PUSH1 0x20 DUP3 ADD SWAP1 POP DUP2 DUP2 SUB PUSH1 0x0 DUP4 ADD MSTORE PUSH2 0x10EA DUP2 PUSH2 0xEF0 JUMP JUMPDEST SWAP1 POP SWAP2 SWAP1 POP JUMP JUMPDEST PUSH1 0x0 PUSH1 0x20 DUP3 ADD SWAP1 POP DUP2 DUP2 SUB PUSH1 0x0 DUP4 ADD MSTORE PUSH2 0x110A DUP2 PUSH2 0xF13 JUMP JUMPDEST SWAP1 POP SWAP2 SWAP1 POP JUMP JUMPDEST PUSH1 0x0 PUSH1 0x20 DUP3 ADD SWAP1 POP DUP2 DUP2 SUB PUSH1 0x0 DUP4 ADD MSTORE PUSH2 0x112A DUP2 PUSH2 0xF36 JUMP JUMPDEST SWAP1 POP SWAP2 SWAP1 POP JUMP JUMPDEST PUSH1 0x0 PUSH1 0x20 DUP3 ADD SWAP1 POP DUP2 DUP2 SUB PUSH1 0x0 DUP4 ADD MSTORE PUSH2 0x114A DUP2 PUSH2 0xF59 JUMP JUMPDEST SWAP1 POP SWAP2 SWAP1 POP JUMP JUMPDEST PUSH1 0x0 PUSH1 0x20 DUP3 ADD SWAP1 POP DUP2 DUP2 SUB PUSH1 0x0 DUP4 ADD MSTORE PUSH2 0x116A DUP2 PUSH2 0xF7C JUMP JUMPDEST SWAP1 POP SWAP2 SWAP1 POP JUMP JUMPDEST PUSH1 0x0 PUSH1 0x20 DUP3 ADD SWAP1 POP PUSH2 0x1186 PUSH1 0x0 DUP4 ADD DUP5 PUSH2 0x1011 JUMP JUMPDEST SWAP3 SWAP2 POP POP JUMP JUMPDEST PUSH1 0x0 PUSH1 0x80 DUP3 ADD SWAP1 POP PUSH2 0x11A1 PUSH1 0x0 DUP4 ADD DUP8 PUSH2 0x1011 JUMP JUMPDEST DUP2 DUP2 SUB PUSH1 0x20 DUP4 ADD MSTORE PUSH2 0x11B3 DUP2 DUP7 PUSH2 0xE71 JUMP JUMPDEST SWAP1 POP PUSH2 0x11C2 PUSH1 0x40 DUP4 ADD DUP6 PUSH2 0x1011 JUMP JUMPDEST PUSH2 0x11CF PUSH1 0x60 DUP4 ADD DUP5 PUSH2 0x1011 JUMP JUMPDEST SWAP6 SWAP5 POP POP POP POP POP JUMP JUMPDEST PUSH1 0x0 PUSH2 0x11E2 PUSH2 0x11F3 JUMP JUMPDEST SWAP1 POP PUSH2 0x11EE DUP3 DUP3 PUSH2 0x13E9 JUMP JUMPDEST SWAP2 SWAP1 POP JUMP JUMPDEST PUSH1 0x0 PUSH1 0x40 MLOAD SWAP1 POP SWAP1 JUMP JUMPDEST PUSH1 0x0 PUSH8 0xFFFFFFFFFFFFFFFF DUP3 GT ISZERO PUSH2 0x1218 JUMPI PUSH2 0x1217 PUSH2 0x14A7 JUMP JUMPDEST JUMPDEST PUSH2 0x1221 DUP3 PUSH2 0x14F4 JUMP JUMPDEST SWAP1 POP PUSH1 0x20 DUP2 ADD SWAP1 POP SWAP2 SWAP1 POP JUMP JUMPDEST PUSH1 0x0 DUP2 SWAP1 POP PUSH1 0x20 DUP3 ADD SWAP1 POP SWAP2 SWAP1 POP JUMP JUMPDEST PUSH1 0x0 DUP2 MLOAD SWAP1 POP SWAP2 SWAP1 POP JUMP JUMPDEST PUSH1 0x0 DUP2 MLOAD SWAP1 POP SWAP2 SWAP1 POP JUMP JUMPDEST PUSH1 0x0 PUSH1 0x20 DUP3 ADD SWAP1 POP SWAP2 SWAP1 POP JUMP JUMPDEST PUSH1 0x0 DUP3 DUP3 MSTORE PUSH1 0x20 DUP3 ADD SWAP1 POP SWAP3 SWAP2 POP POP JUMP JUMPDEST PUSH1 0x0 DUP3 DUP3 MSTORE PUSH1 0x20 DUP3 ADD SWAP1 POP SWAP3 SWAP2 POP POP JUMP JUMPDEST PUSH1 0x0 DUP3 DUP3 MSTORE PUSH1 0x20 DUP3 ADD SWAP1 POP SWAP3 SWAP2 POP POP JUMP JUMPDEST PUSH1 0x0 DUP2 SWAP1 POP SWAP3 SWAP2 POP POP JUMP JUMPDEST PUSH1 0x0 PUSH2 0x12AA DUP3 PUSH2 0x136B JUMP JUMPDEST SWAP2 POP PUSH2 0x12B5 DUP4 PUSH2 0x136B JUMP JUMPDEST SWAP3 POP DUP2 PUSH32 0xFFFFFFFFFFFFFFFFFFFFFFFFFFFFFFFFFFFFFFFFFFFFFFFFFFFFFFFFFFFFFFFF DIV DUP4 GT DUP3 ISZERO ISZERO AND ISZERO PUSH2 0x12EE JUMPI PUSH2 0x12ED PUSH2 0x141A JUMP JUMPDEST JUMPDEST DUP3 DUP3 MUL SWAP1 POP SWAP3 SWAP2 POP POP JUMP JUMPDEST PUSH1 0x0 PUSH2 0x1304 DUP3 PUSH2 0x136B JUMP JUMPDEST SWAP2 POP PUSH2 0x130F DUP4 PUSH2 0x136B JUMP JUMPDEST SWAP3 POP DUP3 DUP3 LT ISZERO PUSH2 0x1322 JUMPI PUSH2 0x1321 PUSH2 0x141A JUMP JUMPDEST JUMPDEST DUP3 DUP3 SUB SWAP1 POP SWAP3 SWAP2 POP POP JUMP JUMPDEST PUSH1 0x0 PUSH2 0x1338 DUP3 PUSH2 0x134B JUMP JUMPDEST SWAP1 POP SWAP2 SWAP1 POP JUMP JUMPDEST PUSH1 0x0 DUP2 ISZERO ISZERO SWAP1 POP SWAP2 SWAP1 POP JUMP JUMPDEST PUSH1 0x0 PUSH20 0xFFFFFFFFFFFFFFFFFFFFFFFFFFFFFFFFFFFFFFFF DUP3 AND SWAP1 POP SWAP2 SWAP1 POP JUMP JUMPDEST PUSH1 0x0 DUP2 SWAP1 POP SWAP2 SWAP1 POP JUMP JUMPDEST DUP3 DUP2 DUP4 CALLDATACOPY PUSH1 0x0 DUP4 DUP4 ADD MSTORE POP POP POP JUMP JUMPDEST PUSH1 0x0 JUMPDEST DUP4 DUP2 LT ISZERO PUSH2 0x13A2 JUMPI DUP1 DUP3 ADD MLOAD DUP2 DUP5 ADD MSTORE PUSH1 0x20 DUP2 ADD SWAP1 POP PUSH2 0x1387 JUMP JUMPDEST DUP4 DUP2 GT ISZERO PUSH2 0x13B1 JUMPI PUSH1 0x0 DUP5 DUP5 ADD MSTORE JUMPDEST POP POP POP POP JUMP JUMPDEST PUSH1 0x0 PUSH1 0x2 DUP3 DIV SWAP1 POP PUSH1 0x1 DUP3 AND DUP1 PUSH2 0x13CF JUMPI PUSH1 0x7F DUP3 AND SWAP2 POP JUMPDEST PUSH1 0x20 DUP3 LT DUP2 EQ ISZERO PUSH2 0x13E3 JUMPI PUSH2 0x13E2 PUSH2 0x1449 JUMP JUMPDEST JUMPDEST POP SWAP2 SWAP1 POP JUMP JUMPDEST PUSH2 0x13F2 DUP3 PUSH2 0x14F4 JUMP JUMPDEST DUP2 ADD DUP2 DUP2 LT PUSH8 0xFFFFFFFFFFFFFFFF DUP3 GT OR ISZERO PUSH2 0x1411 JUMPI PUSH2 0x1410 PUSH2 0x14A7 JUMP JUMPDEST JUMPDEST DUP1 PUSH1 0x40 MSTORE POP POP POP JUMP JUMPDEST PUSH32 0x4E487B7100000000000000000000000000000000000000000000000000000000 PUSH1 0x0 MSTORE PUSH1 0x11 PUSH1 0x4 MSTORE PUSH1 0x24 PUSH1 0x0 REVERT JUMPDEST PUSH32 0x4E487B7100000000000000000000000000000000000000000000000000000000 PUSH1 0x0 MSTORE PUSH1 0x22 PUSH1 0x4 MSTORE PUSH1 0x24 PUSH1 0x0 REVERT JUMPDEST PUSH32 0x4E487B7100000000000000000000000000000000000000000000000000000000 PUSH1 0x0 MSTORE PUSH1 0x32 PUSH1 0x4 MSTORE PUSH1 0x24 PUSH1 0x0 REVERT JUMPDEST PUSH32 0x4E487B7100000000000000000000000000000000000000000000000000000000 PUSH1 0x0 MSTORE PUSH1 0x41 PUSH1 0x4 MSTORE PUSH1 0x24 PUSH1 0x0 REVERT JUMPDEST PUSH1 0x0 DUP1 REVERT JUMPDEST PUSH1 0x0 DUP1 REVERT JUMPDEST PUSH1 0x0 DUP1 REVERT JUMPDEST PUSH1 0x0 DUP1 REVERT JUMPDEST PUSH1 0x0 DUP1 REVERT JUMPDEST PUSH1 0x0 DUP1 REVERT JUMPDEST PUSH1 0x0 PUSH1 0x1F NOT PUSH1 0x1F DUP4 ADD AND SWAP1 POP SWAP2 SWAP1 POP JUMP JUMPDEST PUSH32 0x596F7520617265206E6F7420746865206F776E65722100000000000000000000 PUSH1 0x0 DUP3 ADD MSTORE POP JUMP JUMPDEST PUSH32 0x5468652070726F64756374207175616E74697479206973206C65737320746861 PUSH1 0x0 DUP3 ADD MSTORE PUSH32 0x6E20796F752077616E7465642100000000000000000000000000000000000000 PUSH1 0x20 DUP3 ADD MSTORE POP JUMP JUMPDEST PUSH32 0x506C656173652073656E6420746865206578616374207072696365206F662074 PUSH1 0x0 DUP3 ADD MSTORE PUSH32 0x68652070726F64756374206D756C7469706C6965642062792074686520717561 PUSH1 0x20 DUP3 ADD MSTORE PUSH32 0x6E7469747920796F752077616E74210000000000000000000000000000000000 PUSH1 0x40 DUP3 ADD MSTORE POP JUMP JUMPDEST PUSH32 0x496E76616C6964207175616E7469747921000000000000000000000000000000 PUSH1 0x0 DUP3 ADD MSTORE POP JUMP JUMPDEST PUSH32 0x596F75206861766520616C726561647920626F7567687420746869732070726F PUSH1 0x0 DUP3 ADD MSTORE PUSH32 0x6475637421000000000000000000000000000000000000000000000000000000 PUSH1 0x20 DUP3 ADD MSTORE POP JUMP JUMPDEST PUSH32 0x5468652070726F64756374206973206E6F74206578697374696E672100000000 PUSH1 0x0 DUP3 ADD MSTORE POP JUMP JUMPDEST PUSH32 0x5468652070726F6475637420697320616C726561647920696E20746865207374 PUSH1 0x0 DUP3 ADD MSTORE PUSH32 0x6F72652100000000000000000000000000000000000000000000000000000000 PUSH1 0x20 DUP3 ADD MSTORE POP JUMP JUMPDEST PUSH2 0x16EB DUP2 PUSH2 0x132D JUMP JUMPDEST DUP2 EQ PUSH2 0x16F6 JUMPI PUSH1 0x0 DUP1 REVERT JUMPDEST POP JUMP JUMPDEST PUSH2 0x1702 DUP2 PUSH2 0x136B JUMP JUMPDEST DUP2 EQ PUSH2 0x170D JUMPI PUSH1 0x0 DUP1 REVERT JUMPDEST POP JUMP INVALID LOG2 PUSH5 0x6970667358 0x22 SLT KECCAK256 0xED RETURNDATASIZE 0x5C MLOAD PUSH15 0x79A1B15E47F0F158AF00518465B45 PUSH12 0xED5FAE4D8A50E374FED10564 PUSH20 0x6F6C634300080700330000000000000000000000 "
				},
				"gasEstimates": {
					"creation": {
						"codeDepositCost": "1191600",
						"executionCost": "25507",
						"totalCost": "1217107"
					},
					"external": {
						"addNewProduct(string,uint256,uint256)": "infinite",
						"availableProductsNames(string)": "infinite",
						"buyProduct(uint256,uint256)": "infinite",
						"getProducts()": "infinite",
						"owner()": "2511",
						"products(uint256)": "infinite",
						"productsPurchases(uint256,address)": "infinite",
						"updateProductQuantity(uint256,uint256)": "infinite"
					}
				},
				"methodIdentifiers": {
					"addNewProduct(string,uint256,uint256)": "0a5bd44b",
					"availableProductsNames(string)": "4c437514",
					"buyProduct(uint256,uint256)": "53b62866",
					"getProducts()": "c29b2f20",
					"owner()": "8da5cb5b",
					"products(uint256)": "7acc0b20",
					"productsPurchases(uint256,address)": "ccc4174a",
					"updateProductQuantity(uint256,uint256)": "fcc93b0b"
				}
			},
			"storageLayout": {
				"storage": [
					{
						"astId": 3,
						"contract": "contracts/Store.sol:Store",
						"label": "owner",
						"offset": 0,
						"slot": "0",
						"type": "t_address"
					},
					{
						"astId": 43,
						"contract": "contracts/Store.sol:Store",
						"label": "products",
						"offset": 0,
						"slot": "1",
						"type": "t_array(t_struct(Product)39_storage)dyn_storage"
					},
					{
						"astId": 47,
						"contract": "contracts/Store.sol:Store",
						"label": "availableProductsNames",
						"offset": 0,
						"slot": "2",
						"type": "t_mapping(t_string_memory_ptr,t_bool)"
					},
					{
						"astId": 53,
						"contract": "contracts/Store.sol:Store",
						"label": "productsPurchases",
						"offset": 0,
						"slot": "3",
						"type": "t_mapping(t_uint256,t_mapping(t_address,t_uint256))"
					}
				],
				"types": {
					"t_address": {
						"encoding": "inplace",
						"label": "address",
						"numberOfBytes": "20"
					},
					"t_array(t_struct(Product)39_storage)dyn_storage": {
						"base": "t_struct(Product)39_storage",
						"encoding": "dynamic_array",
						"label": "struct Store.Product[]",
						"numberOfBytes": "32"
					},
					"t_bool": {
						"encoding": "inplace",
						"label": "bool",
						"numberOfBytes": "1"
					},
					"t_mapping(t_address,t_uint256)": {
						"encoding": "mapping",
						"key": "t_address",
						"label": "mapping(address => uint256)",
						"numberOfBytes": "32",
						"value": "t_uint256"
					},
					"t_mapping(t_string_memory_ptr,t_bool)": {
						"encoding": "mapping",
						"key": "t_string_memory_ptr",
						"label": "mapping(string => bool)",
						"numberOfBytes": "32",
						"value": "t_bool"
					},
					"t_mapping(t_uint256,t_mapping(t_address,t_uint256))": {
						"encoding": "mapping",
						"key": "t_uint256",
						"label": "mapping(uint256 => mapping(address => uint256))",
						"numberOfBytes": "32",
						"value": "t_mapping(t_address,t_uint256)"
					},
					"t_string_memory_ptr": {
						"encoding": "bytes",
						"label": "string",
						"numberOfBytes": "32"
					},
					"t_string_storage": {
						"encoding": "bytes",
						"label": "string",
						"numberOfBytes": "32"
					},
					"t_struct(Product)39_storage": {
						"encoding": "inplace",
						"label": "struct Store.Product",
						"members": [
							{
								"astId": 32,
								"contract": "contracts/Store.sol:Store",
								"label": "id",
								"offset": 0,
								"slot": "0",
								"type": "t_uint256"
							},
							{
								"astId": 34,
								"contract": "contracts/Store.sol:Store",
								"label": "name",
								"offset": 0,
								"slot": "1",
								"type": "t_string_storage"
							},
							{
								"astId": 36,
								"contract": "contracts/Store.sol:Store",
								"label": "quantity",
								"offset": 0,
								"slot": "2",
								"type": "t_uint256"
							},
							{
								"astId": 38,
								"contract": "contracts/Store.sol:Store",
								"label": "price",
								"offset": 0,
								"slot": "3",
								"type": "t_uint256"
							}
						],
						"numberOfBytes": "128"
					},
					"t_uint256": {
						"encoding": "inplace",
						"label": "uint256",
						"numberOfBytes": "32"
					}
				}
			},
			"userdoc": {
				"kind": "user",
				"methods": {},
				"version": 1
			}
		}
	}
}